{"contracts/horsesMarket/NFTAuctionMarketplace.sol":{"NFTAuctionMarketplace":{"abi":[{"inputs":[{"internalType":"address","name":"_nftContractAddress","type":"address"},{"internalType":"address","name":"_siliquaCoinContractAddress","type":"address"},{"internalType":"uint256","name":"_commissionPercentage","type":"uint256"}],"stateMutability":"nonpayable","type":"constructor"},{"anonymous":false,"inputs":[{"indexed":true,"internalType":"uint256","name":"auctionId","type":"uint256"},{"indexed":false,"internalType":"address","name":"seller","type":"address"},{"indexed":false,"internalType":"uint256","name":"tokenId","type":"uint256"},{"indexed":false,"internalType":"uint256","name":"amount","type":"uint256"},{"indexed":false,"internalType":"uint256","name":"startingPrice","type":"uint256"},{"indexed":false,"internalType":"uint256","name":"duration","type":"uint256"}],"name":"AuctionCreated","type":"event"},{"anonymous":false,"inputs":[{"indexed":true,"internalType":"uint256","name":"auctionId","type":"uint256"},{"indexed":true,"internalType":"address","name":"winner","type":"address"},{"indexed":false,"internalType":"uint256","name":"winningBid","type":"uint256"}],"name":"AuctionEnded","type":"event"},{"anonymous":false,"inputs":[{"indexed":true,"internalType":"uint256","name":"auctionId","type":"uint256"},{"indexed":true,"internalType":"address","name":"bidder","type":"address"},{"indexed":false,"internalType":"uint256","name":"bidAmount","type":"uint256"}],"name":"BidPlaced","type":"event"},{"anonymous":false,"inputs":[{"indexed":true,"internalType":"address","name":"previousOwner","type":"address"},{"indexed":true,"internalType":"address","name":"newOwner","type":"address"}],"name":"OwnershipTransferred","type":"event"},{"inputs":[{"internalType":"address","name":"seller","type":"address"}],"name":"approveSeller","outputs":[],"stateMutability":"nonpayable","type":"function"},{"inputs":[],"name":"auctionId","outputs":[{"internalType":"uint256","name":"","type":"uint256"}],"stateMutability":"view","type":"function"},{"inputs":[{"internalType":"uint256","name":"","type":"uint256"}],"name":"auctions","outputs":[{"internalType":"uint256","name":"auctionId","type":"uint256"},{"internalType":"address","name":"seller","type":"address"},{"internalType":"uint256","name":"tokenId","type":"uint256"},{"internalType":"uint256","name":"amount","type":"uint256"},{"internalType":"uint256","name":"startingPrice","type":"uint256"},{"internalType":"uint256","name":"highestBid","type":"uint256"},{"internalType":"address","name":"highestBidder","type":"address"},{"internalType":"uint256","name":"auctionEndTime","type":"uint256"},{"internalType":"bool","name":"ended","type":"bool"}],"stateMutability":"view","type":"function"},{"inputs":[],"name":"commissionPercentage","outputs":[{"internalType":"uint256","name":"","type":"uint256"}],"stateMutability":"view","type":"function"},{"inputs":[{"internalType":"uint256","name":"tokenId","type":"uint256"},{"internalType":"uint256","name":"amount","type":"uint256"},{"internalType":"uint256","name":"startingPrice","type":"uint256"},{"internalType":"uint256","name":"duration","type":"uint256"}],"name":"createAuction","outputs":[],"stateMutability":"nonpayable","type":"function"},{"inputs":[{"internalType":"uint256","name":"_auctionId","type":"uint256"}],"name":"endAuction","outputs":[],"stateMutability":"nonpayable","type":"function"},{"inputs":[],"name":"nftToken","outputs":[{"internalType":"contract HorsesNFT","name":"","type":"address"}],"stateMutability":"view","type":"function"},{"inputs":[{"internalType":"address","name":"","type":"address"},{"internalType":"address","name":"","type":"address"},{"internalType":"uint256[]","name":"","type":"uint256[]"},{"internalType":"uint256[]","name":"","type":"uint256[]"},{"internalType":"bytes","name":"","type":"bytes"}],"name":"onERC1155BatchReceived","outputs":[{"internalType":"bytes4","name":"","type":"bytes4"}],"stateMutability":"nonpayable","type":"function"},{"inputs":[{"internalType":"address","name":"","type":"address"},{"internalType":"address","name":"","type":"address"},{"internalType":"uint256","name":"","type":"uint256"},{"internalType":"uint256","name":"","type":"uint256"},{"internalType":"bytes","name":"","type":"bytes"}],"name":"onERC1155Received","outputs":[{"internalType":"bytes4","name":"","type":"bytes4"}],"stateMutability":"nonpayable","type":"function"},{"inputs":[],"name":"owner","outputs":[{"internalType":"address","name":"","type":"address"}],"stateMutability":"view","type":"function"},{"inputs":[{"internalType":"uint256","name":"_auctionId","type":"uint256"},{"internalType":"uint256","name":"bidAmount","type":"uint256"}],"name":"placeBid","outputs":[],"stateMutability":"nonpayable","type":"function"},{"inputs":[],"name":"renounceOwnership","outputs":[],"stateMutability":"nonpayable","type":"function"},{"inputs":[{"internalType":"address","name":"seller","type":"address"}],"name":"revokeSellerApproval","outputs":[],"stateMutability":"nonpayable","type":"function"},{"inputs":[{"internalType":"address","name":"_nftContractAddress","type":"address"}],"name":"setNFTContract","outputs":[],"stateMutability":"nonpayable","type":"function"},{"inputs":[{"internalType":"address","name":"_siliquaCoinAddress","type":"address"}],"name":"setSiliquaCoin","outputs":[],"stateMutability":"nonpayable","type":"function"},{"inputs":[{"internalType":"bytes4","name":"interfaceId","type":"bytes4"}],"name":"supportsInterface","outputs":[{"internalType":"bool","name":"","type":"bool"}],"stateMutability":"view","type":"function"},{"inputs":[],"name":"token","outputs":[{"internalType":"contract ISiliquaCoin","name":"","type":"address"}],"stateMutability":"view","type":"function"},{"inputs":[],"name":"totalCommissionEarned","outputs":[{"internalType":"uint256","name":"","type":"uint256"}],"stateMutability":"view","type":"function"},{"inputs":[{"internalType":"address","name":"newOwner","type":"address"}],"name":"transferOwnership","outputs":[],"stateMutability":"nonpayable","type":"function"},{"inputs":[{"internalType":"uint256","name":"_newCommissionPercentage","type":"uint256"}],"name":"updateCommissionPercentage","outputs":[],"stateMutability":"nonpayable","type":"function"}],"evm":{"bytecode":{"linkReferences":{},"object":"6080604052600060065534801561001557600080fd5b50604051620013a8380380620013a8833981016040819052610036916100e3565b61003f33610077565b600180546001600160a01b039485166001600160a01b031991821617909155600280549390941692169190911790915560035561011f565b600080546001600160a01b038381166001600160a01b0319831681178455604051919092169283917f8be0079c531659141344cd1fd0a4f28419497f9722a3daafe3b4186f6b6457e09190a35050565b80516001600160a01b03811681146100de57600080fd5b919050565b6000806000606084860312156100f857600080fd5b610101846100c7565b925061010f602085016100c7565b9150604084015190509250925092565b611279806200012f6000396000f3fe608060405234801561001057600080fd5b506004361061012c5760003560e01c8063a7ccabdf116100ad578063d06fcba811610071578063d06fcba814610334578063d575fe6414610347578063f23a6e6114610350578063f2fde38b1461036f578063fc0c546a1461038257600080fd5b8063a7ccabdf146102ba578063b226a966146102cd578063b9a2de3a146102e0578063bc197c81146102f3578063c73cdd231461032b57600080fd5b806357c90de5116100f457806357c90de5146102545780635ec5d85614610267578063715018a61461027a5780638ce2199e146102825780638da5cb5b1461029557600080fd5b806301ffc9a71461013157806310782f8f1461015957806313bc2b4914610170578063431f21da14610185578063571a26a014610198575b600080fd5b61014461013f366004610e54565b610395565b60405190151581526020015b60405180910390f35b61016260065481565b604051908152602001610150565b61018361017e366004610ea1565b6103cc565b005b610183610193366004610ebc565b6103f6565b6102016101a6366004610eee565b600560208190526000918252604090912080546001820154600283015460038401546004850154958501546006860154600787015460089097015495976001600160a01b039586169794969395909492939116919060ff1689565b60408051998a526001600160a01b0398891660208b01528901969096526060880194909452608087019290925260a086015290921660c084015260e0830191909152151561010082015261012001610150565b610183610262366004610f07565b610654565b610183610275366004610ea1565b6108ce565b610183610941565b610183610290366004610eee565b610955565b6000546001600160a01b03165b6040516001600160a01b039091168152602001610150565b6101836102c8366004610ea1565b6109b3565b6101836102db366004610ea1565b6109dd565b6101836102ee366004610eee565b610a1e565b610312610301366004611060565b63bc197c8160e01b95945050505050565b6040516001600160e01b03199091168152602001610150565b61016260045481565b6001546102a2906001600160a01b031681565b61016260035481565b61031261035e36600461110a565b63f23a6e6160e01b95945050505050565b61018361037d366004610ea1565b610d31565b6002546102a2906001600160a01b031681565b60006001600160e01b03198216630271189760e51b14806103c657506301ffc9a760e01b6001600160e01b03198316145b92915050565b6103d4610daa565b600280546001600160a01b0319166001600160a01b0392909216919091179055565b6001546040516370a0823160e01b815233600482015284916001600160a01b0316906370a0823190602401602060405180830381865afa15801561043e573d6000803e3d6000fd5b505050506040513d601f19601f82011682018060405250810190610462919061116f565b10156104ac5760405162461bcd60e51b8152602060048201526014602482015273496e73756666696369656e742062616c616e636560601b60448201526064015b60405180910390fd5b60408051610120810182526006548152336020820152908101859052606081018490526080810183905260a08101839052600060c082015260e081016104f2834261119e565b81526000602091820181905260068054825260058084526040928390208551815593850151600180860180546001600160a01b03199081166001600160a01b039485161790915587860151600288015560608801516003880155608088015160048089019190915560a08901519488019490945560c088015194870180549091169483169490941790935560e08601516007860155610100909501516008909401805460ff1916941515949094179093555490516323b872dd60e01b81529216916323b872dd916105c991339130918a91016111b1565b600060405180830381600087803b1580156105e357600080fd5b505af11580156105f7573d6000803e3d6000fd5b5050600654604080513381526020810189905290810187905260608101869052608081018590529092507e09646912aaa7019ad837e57cc5c0613299c8432f5268d4450ab8673fe0fa03915060a00160405180910390a250505050565b6000828152600560205260409020600881015460ff16156106af5760405162461bcd60e51b8152602060048201526015602482015274105d58dd1a5bdb88185b1c9958591e48195b991959605a1b60448201526064016104a3565b806007015442106106f65760405162461bcd60e51b8152602060048201526011602482015270105d58dd1a5bdb881a185cc8195b991959607a1b60448201526064016104a3565b806005015482116107685760405162461bcd60e51b815260206004820152603660248201527f42696420616d6f756e74206d75737420626520686967686572207468616e20746044820152751a194818dd5c9c995b9d081a1a59da195cdd08189a5960521b60648201526084016104a3565b60068101546001600160a01b0316156107fe576002546006820154600583015460405163423f6cef60e01b81526001600160a01b039283166004820152602481019190915291169063423f6cef906044016020604051808303816000875af11580156107d8573d6000803e3d6000fd5b505050506040513d601f19601f820116820180604052508101906107fc91906111d5565b505b600254604051632142170760e11b81526001600160a01b03909116906342842e0e90610832903390309087906004016111b1565b6020604051808303816000875af1158015610851573d6000803e3d6000fd5b505050506040513d601f19601f8201168201806040525081019061087591906111d5565b50600581018290556006810180546001600160a01b0319163390811790915581546040518481527f0e54eff26401bf69b81b26f60bd85ef47f5d85275c1d268d84f68d6897431c479060200160405180910390a3505050565b6108d6610daa565b6001805460405163a22cb46560e01b81526001600160a01b038481166004830152602482019390935291169063a22cb465906044015b600060405180830381600087803b15801561092657600080fd5b505af115801561093a573d6000803e3d6000fd5b5050505050565b610949610daa565b6109536000610e04565b565b61095d610daa565b60648111156109ae5760405162461bcd60e51b815260206004820152601d60248201527f496e76616c696420636f6d6d697373696f6e2070657263656e7461676500000060448201526064016104a3565b600355565b6109bb610daa565b600180546001600160a01b0319166001600160a01b0392909216919091179055565b6109e5610daa565b60015460405163a22cb46560e01b81526001600160a01b038381166004830152600060248301529091169063a22cb4659060440161090c565b610a26610daa565b6000818152600560205260409020600881015460ff1615610a815760405162461bcd60e51b8152602060048201526015602482015274105d58dd1a5bdb88185b1c9958591e48195b991959605a1b60448201526064016104a3565b8060070154421015610ad55760405162461bcd60e51b815260206004820152601960248201527f41756374696f6e20686173206e6f742079657420656e6465640000000000000060448201526064016104a3565b60088101805460ff1916600117905560068101546001600160a01b031615610c8257600060646003548360050154610b0d91906111f7565b610b17919061120e565b90506000818360050154610b2b9190611230565b600254600185015460405163423f6cef60e01b81526001600160a01b03918216600482015260248101849052929350169063423f6cef906044016020604051808303816000875af1158015610b84573d6000803e3d6000fd5b505050506040513d601f19601f82011682018060405250810190610ba891906111d5565b508160046000828254610bbb919061119e565b9091555050600154600684015460028501546040516323b872dd60e01b81526001600160a01b03938416936323b872dd93610bff93309392909116916004016111b1565b600060405180830381600087803b158015610c1957600080fd5b505af1158015610c2d573d6000803e3d6000fd5b505050506006830154835460058501546040519081526001600160a01b03909216917fd2aa34a4fdbbc6dff6a3e56f46e0f3ae2a31d7785ff3487aa5c95c642acea5019060200160405180910390a350505050565b600180549082015460028301546040516323b872dd60e01b81526001600160a01b03938416936323b872dd93610cc193309392909116916004016111b1565b600060405180830381600087803b158015610cdb57600080fd5b505af1158015610cef573d6000803e3d6000fd5b50508254604051600080825293509091507fd2aa34a4fdbbc6dff6a3e56f46e0f3ae2a31d7785ff3487aa5c95c642acea5019060200160405180910390a35050565b610d39610daa565b6001600160a01b038116610d9e5760405162461bcd60e51b815260206004820152602660248201527f4f776e61626c653a206e6577206f776e657220697320746865207a65726f206160448201526564647265737360d01b60648201526084016104a3565b610da781610e04565b50565b6000546001600160a01b031633146109535760405162461bcd60e51b815260206004820181905260248201527f4f776e61626c653a2063616c6c6572206973206e6f7420746865206f776e657260448201526064016104a3565b600080546001600160a01b038381166001600160a01b0319831681178455604051919092169283917f8be0079c531659141344cd1fd0a4f28419497f9722a3daafe3b4186f6b6457e09190a35050565b600060208284031215610e6657600080fd5b81356001600160e01b031981168114610e7e57600080fd5b9392505050565b80356001600160a01b0381168114610e9c57600080fd5b919050565b600060208284031215610eb357600080fd5b610e7e82610e85565b60008060008060808587031215610ed257600080fd5b5050823594602084013594506040840135936060013592509050565b600060208284031215610f0057600080fd5b5035919050565b60008060408385031215610f1a57600080fd5b50508035926020909101359150565b634e487b7160e01b600052604160045260246000fd5b604051601f8201601f1916810167ffffffffffffffff81118282101715610f6857610f68610f29565b604052919050565b600082601f830112610f8157600080fd5b8135602067ffffffffffffffff821115610f9d57610f9d610f29565b8160051b610fac828201610f3f565b9283528481018201928281019087851115610fc657600080fd5b83870192505b84831015610fe557823582529183019190830190610fcc565b979650505050505050565b600082601f83011261100157600080fd5b813567ffffffffffffffff81111561101b5761101b610f29565b61102e601f8201601f1916602001610f3f565b81815284602083860101111561104357600080fd5b816020850160208301376000918101602001919091529392505050565b600080600080600060a0868803121561107857600080fd5b61108186610e85565b945061108f60208701610e85565b9350604086013567ffffffffffffffff808211156110ac57600080fd5b6110b889838a01610f70565b945060608801359150808211156110ce57600080fd5b6110da89838a01610f70565b935060808801359150808211156110f057600080fd5b506110fd88828901610ff0565b9150509295509295909350565b600080600080600060a0868803121561112257600080fd5b61112b86610e85565b945061113960208701610e85565b93506040860135925060608601359150608086013567ffffffffffffffff81111561116357600080fd5b6110fd88828901610ff0565b60006020828403121561118157600080fd5b5051919050565b634e487b7160e01b600052601160045260246000fd5b808201808211156103c6576103c6611188565b6001600160a01b039384168152919092166020820152604081019190915260600190565b6000602082840312156111e757600080fd5b81518015158114610e7e57600080fd5b80820281158282048414176103c6576103c6611188565b60008261122b57634e487b7160e01b600052601260045260246000fd5b500490565b818103818111156103c6576103c661118856fea2646970667358221220b4fbdd530c781d0cea1fa1f7d3e0a070b4fe87bda77cd1a1240c14c483657a7c64736f6c63430008150033","opcodes":"PUSH1 0x80 PUSH1 0x40 MSTORE PUSH1 0x0 PUSH1 0x6 SSTORE CALLVALUE DUP1 ISZERO PUSH2 0x15 JUMPI PUSH1 0x0 DUP1 REVERT JUMPDEST POP PUSH1 0x40 MLOAD PUSH3 0x13A8 CODESIZE SUB DUP1 PUSH3 0x13A8 DUP4 CODECOPY DUP2 ADD PUSH1 0x40 DUP2 SWAP1 MSTORE PUSH2 0x36 SWAP2 PUSH2 0xE3 JUMP JUMPDEST PUSH2 0x3F CALLER PUSH2 0x77 JUMP JUMPDEST PUSH1 0x1 DUP1 SLOAD PUSH1 0x1 PUSH1 0x1 PUSH1 0xA0 SHL SUB SWAP5 DUP6 AND PUSH1 0x1 PUSH1 0x1 PUSH1 0xA0 SHL SUB NOT SWAP2 DUP3 AND OR SWAP1 SWAP2 SSTORE PUSH1 0x2 DUP1 SLOAD SWAP4 SWAP1 SWAP5 AND SWAP3 AND SWAP2 SWAP1 SWAP2 OR SWAP1 SWAP2 SSTORE PUSH1 0x3 SSTORE PUSH2 0x11F JUMP JUMPDEST PUSH1 0x0 DUP1 SLOAD PUSH1 0x1 PUSH1 0x1 PUSH1 0xA0 SHL SUB DUP4 DUP2 AND PUSH1 0x1 PUSH1 0x1 PUSH1 0xA0 SHL SUB NOT DUP4 AND DUP2 OR DUP5 SSTORE PUSH1 0x40 MLOAD SWAP2 SWAP1 SWAP3 AND SWAP3 DUP4 SWAP2 PUSH32 0x8BE0079C531659141344CD1FD0A4F28419497F9722A3DAAFE3B4186F6B6457E0 SWAP2 SWAP1 LOG3 POP POP JUMP JUMPDEST DUP1 MLOAD PUSH1 0x1 PUSH1 0x1 PUSH1 0xA0 SHL SUB DUP2 AND DUP2 EQ PUSH2 0xDE JUMPI PUSH1 0x0 DUP1 REVERT JUMPDEST SWAP2 SWAP1 POP JUMP JUMPDEST PUSH1 0x0 DUP1 PUSH1 0x0 PUSH1 0x60 DUP5 DUP7 SUB SLT ISZERO PUSH2 0xF8 JUMPI PUSH1 0x0 DUP1 REVERT JUMPDEST PUSH2 0x101 DUP5 PUSH2 0xC7 JUMP JUMPDEST SWAP3 POP PUSH2 0x10F PUSH1 0x20 DUP6 ADD PUSH2 0xC7 JUMP JUMPDEST SWAP2 POP PUSH1 0x40 DUP5 ADD MLOAD SWAP1 POP SWAP3 POP SWAP3 POP SWAP3 JUMP JUMPDEST PUSH2 0x1279 DUP1 PUSH3 0x12F PUSH1 0x0 CODECOPY PUSH1 0x0 RETURN INVALID PUSH1 0x80 PUSH1 0x40 MSTORE CALLVALUE DUP1 ISZERO PUSH2 0x10 JUMPI PUSH1 0x0 DUP1 REVERT JUMPDEST POP PUSH1 0x4 CALLDATASIZE LT PUSH2 0x12C JUMPI PUSH1 0x0 CALLDATALOAD PUSH1 0xE0 SHR DUP1 PUSH4 0xA7CCABDF GT PUSH2 0xAD JUMPI DUP1 PUSH4 0xD06FCBA8 GT PUSH2 0x71 JUMPI DUP1 PUSH4 0xD06FCBA8 EQ PUSH2 0x334 JUMPI DUP1 PUSH4 0xD575FE64 EQ PUSH2 0x347 JUMPI DUP1 PUSH4 0xF23A6E61 EQ PUSH2 0x350 JUMPI DUP1 PUSH4 0xF2FDE38B EQ PUSH2 0x36F JUMPI DUP1 PUSH4 0xFC0C546A EQ PUSH2 0x382 JUMPI PUSH1 0x0 DUP1 REVERT JUMPDEST DUP1 PUSH4 0xA7CCABDF EQ PUSH2 0x2BA JUMPI DUP1 PUSH4 0xB226A966 EQ PUSH2 0x2CD JUMPI DUP1 PUSH4 0xB9A2DE3A EQ PUSH2 0x2E0 JUMPI DUP1 PUSH4 0xBC197C81 EQ PUSH2 0x2F3 JUMPI DUP1 PUSH4 0xC73CDD23 EQ PUSH2 0x32B JUMPI PUSH1 0x0 DUP1 REVERT JUMPDEST DUP1 PUSH4 0x57C90DE5 GT PUSH2 0xF4 JUMPI DUP1 PUSH4 0x57C90DE5 EQ PUSH2 0x254 JUMPI DUP1 PUSH4 0x5EC5D856 EQ PUSH2 0x267 JUMPI DUP1 PUSH4 0x715018A6 EQ PUSH2 0x27A JUMPI DUP1 PUSH4 0x8CE2199E EQ PUSH2 0x282 JUMPI DUP1 PUSH4 0x8DA5CB5B EQ PUSH2 0x295 JUMPI PUSH1 0x0 DUP1 REVERT JUMPDEST DUP1 PUSH4 0x1FFC9A7 EQ PUSH2 0x131 JUMPI DUP1 PUSH4 0x10782F8F EQ PUSH2 0x159 JUMPI DUP1 PUSH4 0x13BC2B49 EQ PUSH2 0x170 JUMPI DUP1 PUSH4 0x431F21DA EQ PUSH2 0x185 JUMPI DUP1 PUSH4 0x571A26A0 EQ PUSH2 0x198 JUMPI JUMPDEST PUSH1 0x0 DUP1 REVERT JUMPDEST PUSH2 0x144 PUSH2 0x13F CALLDATASIZE PUSH1 0x4 PUSH2 0xE54 JUMP JUMPDEST PUSH2 0x395 JUMP JUMPDEST PUSH1 0x40 MLOAD SWAP1 ISZERO ISZERO DUP2 MSTORE PUSH1 0x20 ADD JUMPDEST PUSH1 0x40 MLOAD DUP1 SWAP2 SUB SWAP1 RETURN JUMPDEST PUSH2 0x162 PUSH1 0x6 SLOAD DUP2 JUMP JUMPDEST PUSH1 0x40 MLOAD SWAP1 DUP2 MSTORE PUSH1 0x20 ADD PUSH2 0x150 JUMP JUMPDEST PUSH2 0x183 PUSH2 0x17E CALLDATASIZE PUSH1 0x4 PUSH2 0xEA1 JUMP JUMPDEST PUSH2 0x3CC JUMP JUMPDEST STOP JUMPDEST PUSH2 0x183 PUSH2 0x193 CALLDATASIZE PUSH1 0x4 PUSH2 0xEBC JUMP JUMPDEST PUSH2 0x3F6 JUMP JUMPDEST PUSH2 0x201 PUSH2 0x1A6 CALLDATASIZE PUSH1 0x4 PUSH2 0xEEE JUMP JUMPDEST PUSH1 0x5 PUSH1 0x20 DUP2 SWAP1 MSTORE PUSH1 0x0 SWAP2 DUP3 MSTORE PUSH1 0x40 SWAP1 SWAP2 KECCAK256 DUP1 SLOAD PUSH1 0x1 DUP3 ADD SLOAD PUSH1 0x2 DUP4 ADD SLOAD PUSH1 0x3 DUP5 ADD SLOAD PUSH1 0x4 DUP6 ADD SLOAD SWAP6 DUP6 ADD SLOAD PUSH1 0x6 DUP7 ADD SLOAD PUSH1 0x7 DUP8 ADD SLOAD PUSH1 0x8 SWAP1 SWAP8 ADD SLOAD SWAP6 SWAP8 PUSH1 0x1 PUSH1 0x1 PUSH1 0xA0 SHL SUB SWAP6 DUP7 AND SWAP8 SWAP5 SWAP7 SWAP4 SWAP6 SWAP1 SWAP5 SWAP3 SWAP4 SWAP2 AND SWAP2 SWAP1 PUSH1 0xFF AND DUP10 JUMP JUMPDEST PUSH1 0x40 DUP1 MLOAD SWAP10 DUP11 MSTORE PUSH1 0x1 PUSH1 0x1 PUSH1 0xA0 SHL SUB SWAP9 DUP10 AND PUSH1 0x20 DUP12 ADD MSTORE DUP10 ADD SWAP7 SWAP1 SWAP7 MSTORE PUSH1 0x60 DUP9 ADD SWAP5 SWAP1 SWAP5 MSTORE PUSH1 0x80 DUP8 ADD SWAP3 SWAP1 SWAP3 MSTORE PUSH1 0xA0 DUP7 ADD MSTORE SWAP1 SWAP3 AND PUSH1 0xC0 DUP5 ADD MSTORE PUSH1 0xE0 DUP4 ADD SWAP2 SWAP1 SWAP2 MSTORE ISZERO ISZERO PUSH2 0x100 DUP3 ADD MSTORE PUSH2 0x120 ADD PUSH2 0x150 JUMP JUMPDEST PUSH2 0x183 PUSH2 0x262 CALLDATASIZE PUSH1 0x4 PUSH2 0xF07 JUMP JUMPDEST PUSH2 0x654 JUMP JUMPDEST PUSH2 0x183 PUSH2 0x275 CALLDATASIZE PUSH1 0x4 PUSH2 0xEA1 JUMP JUMPDEST PUSH2 0x8CE JUMP JUMPDEST PUSH2 0x183 PUSH2 0x941 JUMP JUMPDEST PUSH2 0x183 PUSH2 0x290 CALLDATASIZE PUSH1 0x4 PUSH2 0xEEE JUMP JUMPDEST PUSH2 0x955 JUMP JUMPDEST PUSH1 0x0 SLOAD PUSH1 0x1 PUSH1 0x1 PUSH1 0xA0 SHL SUB AND JUMPDEST PUSH1 0x40 MLOAD PUSH1 0x1 PUSH1 0x1 PUSH1 0xA0 SHL SUB SWAP1 SWAP2 AND DUP2 MSTORE PUSH1 0x20 ADD PUSH2 0x150 JUMP JUMPDEST PUSH2 0x183 PUSH2 0x2C8 CALLDATASIZE PUSH1 0x4 PUSH2 0xEA1 JUMP JUMPDEST PUSH2 0x9B3 JUMP JUMPDEST PUSH2 0x183 PUSH2 0x2DB CALLDATASIZE PUSH1 0x4 PUSH2 0xEA1 JUMP JUMPDEST PUSH2 0x9DD JUMP JUMPDEST PUSH2 0x183 PUSH2 0x2EE CALLDATASIZE PUSH1 0x4 PUSH2 0xEEE JUMP JUMPDEST PUSH2 0xA1E JUMP JUMPDEST PUSH2 0x312 PUSH2 0x301 CALLDATASIZE PUSH1 0x4 PUSH2 0x1060 JUMP JUMPDEST PUSH4 0xBC197C81 PUSH1 0xE0 SHL SWAP6 SWAP5 POP POP POP POP POP JUMP JUMPDEST PUSH1 0x40 MLOAD PUSH1 0x1 PUSH1 0x1 PUSH1 0xE0 SHL SUB NOT SWAP1 SWAP2 AND DUP2 MSTORE PUSH1 0x20 ADD PUSH2 0x150 JUMP JUMPDEST PUSH2 0x162 PUSH1 0x4 SLOAD DUP2 JUMP JUMPDEST PUSH1 0x1 SLOAD PUSH2 0x2A2 SWAP1 PUSH1 0x1 PUSH1 0x1 PUSH1 0xA0 SHL SUB AND DUP2 JUMP JUMPDEST PUSH2 0x162 PUSH1 0x3 SLOAD DUP2 JUMP JUMPDEST PUSH2 0x312 PUSH2 0x35E CALLDATASIZE PUSH1 0x4 PUSH2 0x110A JUMP JUMPDEST PUSH4 0xF23A6E61 PUSH1 0xE0 SHL SWAP6 SWAP5 POP POP POP POP POP JUMP JUMPDEST PUSH2 0x183 PUSH2 0x37D CALLDATASIZE PUSH1 0x4 PUSH2 0xEA1 JUMP JUMPDEST PUSH2 0xD31 JUMP JUMPDEST PUSH1 0x2 SLOAD PUSH2 0x2A2 SWAP1 PUSH1 0x1 PUSH1 0x1 PUSH1 0xA0 SHL SUB AND DUP2 JUMP JUMPDEST PUSH1 0x0 PUSH1 0x1 PUSH1 0x1 PUSH1 0xE0 SHL SUB NOT DUP3 AND PUSH4 0x2711897 PUSH1 0xE5 SHL EQ DUP1 PUSH2 0x3C6 JUMPI POP PUSH4 0x1FFC9A7 PUSH1 0xE0 SHL PUSH1 0x1 PUSH1 0x1 PUSH1 0xE0 SHL SUB NOT DUP4 AND EQ JUMPDEST SWAP3 SWAP2 POP POP JUMP JUMPDEST PUSH2 0x3D4 PUSH2 0xDAA JUMP JUMPDEST PUSH1 0x2 DUP1 SLOAD PUSH1 0x1 PUSH1 0x1 PUSH1 0xA0 SHL SUB NOT AND PUSH1 0x1 PUSH1 0x1 PUSH1 0xA0 SHL SUB SWAP3 SWAP1 SWAP3 AND SWAP2 SWAP1 SWAP2 OR SWAP1 SSTORE JUMP JUMPDEST PUSH1 0x1 SLOAD PUSH1 0x40 MLOAD PUSH4 0x70A08231 PUSH1 0xE0 SHL DUP2 MSTORE CALLER PUSH1 0x4 DUP3 ADD MSTORE DUP5 SWAP2 PUSH1 0x1 PUSH1 0x1 PUSH1 0xA0 SHL SUB AND SWAP1 PUSH4 0x70A08231 SWAP1 PUSH1 0x24 ADD PUSH1 0x20 PUSH1 0x40 MLOAD DUP1 DUP4 SUB DUP2 DUP7 GAS STATICCALL ISZERO DUP1 ISZERO PUSH2 0x43E JUMPI RETURNDATASIZE PUSH1 0x0 DUP1 RETURNDATACOPY RETURNDATASIZE PUSH1 0x0 REVERT JUMPDEST POP POP POP POP PUSH1 0x40 MLOAD RETURNDATASIZE PUSH1 0x1F NOT PUSH1 0x1F DUP3 ADD AND DUP3 ADD DUP1 PUSH1 0x40 MSTORE POP DUP2 ADD SWAP1 PUSH2 0x462 SWAP2 SWAP1 PUSH2 0x116F JUMP JUMPDEST LT ISZERO PUSH2 0x4AC JUMPI PUSH1 0x40 MLOAD PUSH3 0x461BCD PUSH1 0xE5 SHL DUP2 MSTORE PUSH1 0x20 PUSH1 0x4 DUP3 ADD MSTORE PUSH1 0x14 PUSH1 0x24 DUP3 ADD MSTORE PUSH20 0x496E73756666696369656E742062616C616E6365 PUSH1 0x60 SHL PUSH1 0x44 DUP3 ADD MSTORE PUSH1 0x64 ADD JUMPDEST PUSH1 0x40 MLOAD DUP1 SWAP2 SUB SWAP1 REVERT JUMPDEST PUSH1 0x40 DUP1 MLOAD PUSH2 0x120 DUP2 ADD DUP3 MSTORE PUSH1 0x6 SLOAD DUP2 MSTORE CALLER PUSH1 0x20 DUP3 ADD MSTORE SWAP1 DUP2 ADD DUP6 SWAP1 MSTORE PUSH1 0x60 DUP2 ADD DUP5 SWAP1 MSTORE PUSH1 0x80 DUP2 ADD DUP4 SWAP1 MSTORE PUSH1 0xA0 DUP2 ADD DUP4 SWAP1 MSTORE PUSH1 0x0 PUSH1 0xC0 DUP3 ADD MSTORE PUSH1 0xE0 DUP2 ADD PUSH2 0x4F2 DUP4 TIMESTAMP PUSH2 0x119E JUMP JUMPDEST DUP2 MSTORE PUSH1 0x0 PUSH1 0x20 SWAP2 DUP3 ADD DUP2 SWAP1 MSTORE PUSH1 0x6 DUP1 SLOAD DUP3 MSTORE PUSH1 0x5 DUP1 DUP5 MSTORE PUSH1 0x40 SWAP3 DUP4 SWAP1 KECCAK256 DUP6 MLOAD DUP2 SSTORE SWAP4 DUP6 ADD MLOAD PUSH1 0x1 DUP1 DUP7 ADD DUP1 SLOAD PUSH1 0x1 PUSH1 0x1 PUSH1 0xA0 SHL SUB NOT SWAP1 DUP2 AND PUSH1 0x1 PUSH1 0x1 PUSH1 0xA0 SHL SUB SWAP5 DUP6 AND OR SWAP1 SWAP2 SSTORE DUP8 DUP7 ADD MLOAD PUSH1 0x2 DUP9 ADD SSTORE PUSH1 0x60 DUP9 ADD MLOAD PUSH1 0x3 DUP9 ADD SSTORE PUSH1 0x80 DUP9 ADD MLOAD PUSH1 0x4 DUP1 DUP10 ADD SWAP2 SWAP1 SWAP2 SSTORE PUSH1 0xA0 DUP10 ADD MLOAD SWAP5 DUP9 ADD SWAP5 SWAP1 SWAP5 SSTORE PUSH1 0xC0 DUP9 ADD MLOAD SWAP5 DUP8 ADD DUP1 SLOAD SWAP1 SWAP2 AND SWAP5 DUP4 AND SWAP5 SWAP1 SWAP5 OR SWAP1 SWAP4 SSTORE PUSH1 0xE0 DUP7 ADD MLOAD PUSH1 0x7 DUP7 ADD SSTORE PUSH2 0x100 SWAP1 SWAP6 ADD MLOAD PUSH1 0x8 SWAP1 SWAP5 ADD DUP1 SLOAD PUSH1 0xFF NOT AND SWAP5 ISZERO ISZERO SWAP5 SWAP1 SWAP5 OR SWAP1 SWAP4 SSTORE SLOAD SWAP1 MLOAD PUSH4 0x23B872DD PUSH1 0xE0 SHL DUP2 MSTORE SWAP3 AND SWAP2 PUSH4 0x23B872DD SWAP2 PUSH2 0x5C9 SWAP2 CALLER SWAP2 ADDRESS SWAP2 DUP11 SWAP2 ADD PUSH2 0x11B1 JUMP JUMPDEST PUSH1 0x0 PUSH1 0x40 MLOAD DUP1 DUP4 SUB DUP2 PUSH1 0x0 DUP8 DUP1 EXTCODESIZE ISZERO DUP1 ISZERO PUSH2 0x5E3 JUMPI PUSH1 0x0 DUP1 REVERT JUMPDEST POP GAS CALL ISZERO DUP1 ISZERO PUSH2 0x5F7 JUMPI RETURNDATASIZE PUSH1 0x0 DUP1 RETURNDATACOPY RETURNDATASIZE PUSH1 0x0 REVERT JUMPDEST POP POP PUSH1 0x6 SLOAD PUSH1 0x40 DUP1 MLOAD CALLER DUP2 MSTORE PUSH1 0x20 DUP2 ADD DUP10 SWAP1 MSTORE SWAP1 DUP2 ADD DUP8 SWAP1 MSTORE PUSH1 0x60 DUP2 ADD DUP7 SWAP1 MSTORE PUSH1 0x80 DUP2 ADD DUP6 SWAP1 MSTORE SWAP1 SWAP3 POP PUSH31 0x9646912AAA7019AD837E57CC5C0613299C8432F5268D4450AB8673FE0FA03 SWAP2 POP PUSH1 0xA0 ADD PUSH1 0x40 MLOAD DUP1 SWAP2 SUB SWAP1 LOG2 POP POP POP POP JUMP JUMPDEST PUSH1 0x0 DUP3 DUP2 MSTORE PUSH1 0x5 PUSH1 0x20 MSTORE PUSH1 0x40 SWAP1 KECCAK256 PUSH1 0x8 DUP2 ADD SLOAD PUSH1 0xFF AND ISZERO PUSH2 0x6AF JUMPI PUSH1 0x40 MLOAD PUSH3 0x461BCD PUSH1 0xE5 SHL DUP2 MSTORE PUSH1 0x20 PUSH1 0x4 DUP3 ADD MSTORE PUSH1 0x15 PUSH1 0x24 DUP3 ADD MSTORE PUSH21 0x105D58DD1A5BDB88185B1C9958591E48195B991959 PUSH1 0x5A SHL PUSH1 0x44 DUP3 ADD MSTORE PUSH1 0x64 ADD PUSH2 0x4A3 JUMP JUMPDEST DUP1 PUSH1 0x7 ADD SLOAD TIMESTAMP LT PUSH2 0x6F6 JUMPI PUSH1 0x40 MLOAD PUSH3 0x461BCD PUSH1 0xE5 SHL DUP2 MSTORE PUSH1 0x20 PUSH1 0x4 DUP3 ADD MSTORE PUSH1 0x11 PUSH1 0x24 DUP3 ADD MSTORE PUSH17 0x105D58DD1A5BDB881A185CC8195B991959 PUSH1 0x7A SHL PUSH1 0x44 DUP3 ADD MSTORE PUSH1 0x64 ADD PUSH2 0x4A3 JUMP JUMPDEST DUP1 PUSH1 0x5 ADD SLOAD DUP3 GT PUSH2 0x768 JUMPI PUSH1 0x40 MLOAD PUSH3 0x461BCD PUSH1 0xE5 SHL DUP2 MSTORE PUSH1 0x20 PUSH1 0x4 DUP3 ADD MSTORE PUSH1 0x36 PUSH1 0x24 DUP3 ADD MSTORE PUSH32 0x42696420616D6F756E74206D75737420626520686967686572207468616E2074 PUSH1 0x44 DUP3 ADD MSTORE PUSH22 0x1A194818DD5C9C995B9D081A1A59DA195CDD08189A59 PUSH1 0x52 SHL PUSH1 0x64 DUP3 ADD MSTORE PUSH1 0x84 ADD PUSH2 0x4A3 JUMP JUMPDEST PUSH1 0x6 DUP2 ADD SLOAD PUSH1 0x1 PUSH1 0x1 PUSH1 0xA0 SHL SUB AND ISZERO PUSH2 0x7FE JUMPI PUSH1 0x2 SLOAD PUSH1 0x6 DUP3 ADD SLOAD PUSH1 0x5 DUP4 ADD SLOAD PUSH1 0x40 MLOAD PUSH4 0x423F6CEF PUSH1 0xE0 SHL DUP2 MSTORE PUSH1 0x1 PUSH1 0x1 PUSH1 0xA0 SHL SUB SWAP3 DUP4 AND PUSH1 0x4 DUP3 ADD MSTORE PUSH1 0x24 DUP2 ADD SWAP2 SWAP1 SWAP2 MSTORE SWAP2 AND SWAP1 PUSH4 0x423F6CEF SWAP1 PUSH1 0x44 ADD PUSH1 0x20 PUSH1 0x40 MLOAD DUP1 DUP4 SUB DUP2 PUSH1 0x0 DUP8 GAS CALL ISZERO DUP1 ISZERO PUSH2 0x7D8 JUMPI RETURNDATASIZE PUSH1 0x0 DUP1 RETURNDATACOPY RETURNDATASIZE PUSH1 0x0 REVERT JUMPDEST POP POP POP POP PUSH1 0x40 MLOAD RETURNDATASIZE PUSH1 0x1F NOT PUSH1 0x1F DUP3 ADD AND DUP3 ADD DUP1 PUSH1 0x40 MSTORE POP DUP2 ADD SWAP1 PUSH2 0x7FC SWAP2 SWAP1 PUSH2 0x11D5 JUMP JUMPDEST POP JUMPDEST PUSH1 0x2 SLOAD PUSH1 0x40 MLOAD PUSH4 0x21421707 PUSH1 0xE1 SHL DUP2 MSTORE PUSH1 0x1 PUSH1 0x1 PUSH1 0xA0 SHL SUB SWAP1 SWAP2 AND SWAP1 PUSH4 0x42842E0E SWAP1 PUSH2 0x832 SWAP1 CALLER SWAP1 ADDRESS SWAP1 DUP8 SWAP1 PUSH1 0x4 ADD PUSH2 0x11B1 JUMP JUMPDEST PUSH1 0x20 PUSH1 0x40 MLOAD DUP1 DUP4 SUB DUP2 PUSH1 0x0 DUP8 GAS CALL ISZERO DUP1 ISZERO PUSH2 0x851 JUMPI RETURNDATASIZE PUSH1 0x0 DUP1 RETURNDATACOPY RETURNDATASIZE PUSH1 0x0 REVERT JUMPDEST POP POP POP POP PUSH1 0x40 MLOAD RETURNDATASIZE PUSH1 0x1F NOT PUSH1 0x1F DUP3 ADD AND DUP3 ADD DUP1 PUSH1 0x40 MSTORE POP DUP2 ADD SWAP1 PUSH2 0x875 SWAP2 SWAP1 PUSH2 0x11D5 JUMP JUMPDEST POP PUSH1 0x5 DUP2 ADD DUP3 SWAP1 SSTORE PUSH1 0x6 DUP2 ADD DUP1 SLOAD PUSH1 0x1 PUSH1 0x1 PUSH1 0xA0 SHL SUB NOT AND CALLER SWAP1 DUP2 OR SWAP1 SWAP2 SSTORE DUP2 SLOAD PUSH1 0x40 MLOAD DUP5 DUP2 MSTORE PUSH32 0xE54EFF26401BF69B81B26F60BD85EF47F5D85275C1D268D84F68D6897431C47 SWAP1 PUSH1 0x20 ADD PUSH1 0x40 MLOAD DUP1 SWAP2 SUB SWAP1 LOG3 POP POP POP JUMP JUMPDEST PUSH2 0x8D6 PUSH2 0xDAA JUMP JUMPDEST PUSH1 0x1 DUP1 SLOAD PUSH1 0x40 MLOAD PUSH4 0xA22CB465 PUSH1 0xE0 SHL DUP2 MSTORE PUSH1 0x1 PUSH1 0x1 PUSH1 0xA0 SHL SUB DUP5 DUP2 AND PUSH1 0x4 DUP4 ADD MSTORE PUSH1 0x24 DUP3 ADD SWAP4 SWAP1 SWAP4 MSTORE SWAP2 AND SWAP1 PUSH4 0xA22CB465 SWAP1 PUSH1 0x44 ADD JUMPDEST PUSH1 0x0 PUSH1 0x40 MLOAD DUP1 DUP4 SUB DUP2 PUSH1 0x0 DUP8 DUP1 EXTCODESIZE ISZERO DUP1 ISZERO PUSH2 0x926 JUMPI PUSH1 0x0 DUP1 REVERT JUMPDEST POP GAS CALL ISZERO DUP1 ISZERO PUSH2 0x93A JUMPI RETURNDATASIZE PUSH1 0x0 DUP1 RETURNDATACOPY RETURNDATASIZE PUSH1 0x0 REVERT JUMPDEST POP POP POP POP POP JUMP JUMPDEST PUSH2 0x949 PUSH2 0xDAA JUMP JUMPDEST PUSH2 0x953 PUSH1 0x0 PUSH2 0xE04 JUMP JUMPDEST JUMP JUMPDEST PUSH2 0x95D PUSH2 0xDAA JUMP JUMPDEST PUSH1 0x64 DUP2 GT ISZERO PUSH2 0x9AE JUMPI PUSH1 0x40 MLOAD PUSH3 0x461BCD PUSH1 0xE5 SHL DUP2 MSTORE PUSH1 0x20 PUSH1 0x4 DUP3 ADD MSTORE PUSH1 0x1D PUSH1 0x24 DUP3 ADD MSTORE PUSH32 0x496E76616C696420636F6D6D697373696F6E2070657263656E74616765000000 PUSH1 0x44 DUP3 ADD MSTORE PUSH1 0x64 ADD PUSH2 0x4A3 JUMP JUMPDEST PUSH1 0x3 SSTORE JUMP JUMPDEST PUSH2 0x9BB PUSH2 0xDAA JUMP JUMPDEST PUSH1 0x1 DUP1 SLOAD PUSH1 0x1 PUSH1 0x1 PUSH1 0xA0 SHL SUB NOT AND PUSH1 0x1 PUSH1 0x1 PUSH1 0xA0 SHL SUB SWAP3 SWAP1 SWAP3 AND SWAP2 SWAP1 SWAP2 OR SWAP1 SSTORE JUMP JUMPDEST PUSH2 0x9E5 PUSH2 0xDAA JUMP JUMPDEST PUSH1 0x1 SLOAD PUSH1 0x40 MLOAD PUSH4 0xA22CB465 PUSH1 0xE0 SHL DUP2 MSTORE PUSH1 0x1 PUSH1 0x1 PUSH1 0xA0 SHL SUB DUP4 DUP2 AND PUSH1 0x4 DUP4 ADD MSTORE PUSH1 0x0 PUSH1 0x24 DUP4 ADD MSTORE SWAP1 SWAP2 AND SWAP1 PUSH4 0xA22CB465 SWAP1 PUSH1 0x44 ADD PUSH2 0x90C JUMP JUMPDEST PUSH2 0xA26 PUSH2 0xDAA JUMP JUMPDEST PUSH1 0x0 DUP2 DUP2 MSTORE PUSH1 0x5 PUSH1 0x20 MSTORE PUSH1 0x40 SWAP1 KECCAK256 PUSH1 0x8 DUP2 ADD SLOAD PUSH1 0xFF AND ISZERO PUSH2 0xA81 JUMPI PUSH1 0x40 MLOAD PUSH3 0x461BCD PUSH1 0xE5 SHL DUP2 MSTORE PUSH1 0x20 PUSH1 0x4 DUP3 ADD MSTORE PUSH1 0x15 PUSH1 0x24 DUP3 ADD MSTORE PUSH21 0x105D58DD1A5BDB88185B1C9958591E48195B991959 PUSH1 0x5A SHL PUSH1 0x44 DUP3 ADD MSTORE PUSH1 0x64 ADD PUSH2 0x4A3 JUMP JUMPDEST DUP1 PUSH1 0x7 ADD SLOAD TIMESTAMP LT ISZERO PUSH2 0xAD5 JUMPI PUSH1 0x40 MLOAD PUSH3 0x461BCD PUSH1 0xE5 SHL DUP2 MSTORE PUSH1 0x20 PUSH1 0x4 DUP3 ADD MSTORE PUSH1 0x19 PUSH1 0x24 DUP3 ADD MSTORE PUSH32 0x41756374696F6E20686173206E6F742079657420656E64656400000000000000 PUSH1 0x44 DUP3 ADD MSTORE PUSH1 0x64 ADD PUSH2 0x4A3 JUMP JUMPDEST PUSH1 0x8 DUP2 ADD DUP1 SLOAD PUSH1 0xFF NOT AND PUSH1 0x1 OR SWAP1 SSTORE PUSH1 0x6 DUP2 ADD SLOAD PUSH1 0x1 PUSH1 0x1 PUSH1 0xA0 SHL SUB AND ISZERO PUSH2 0xC82 JUMPI PUSH1 0x0 PUSH1 0x64 PUSH1 0x3 SLOAD DUP4 PUSH1 0x5 ADD SLOAD PUSH2 0xB0D SWAP2 SWAP1 PUSH2 0x11F7 JUMP JUMPDEST PUSH2 0xB17 SWAP2 SWAP1 PUSH2 0x120E JUMP JUMPDEST SWAP1 POP PUSH1 0x0 DUP2 DUP4 PUSH1 0x5 ADD SLOAD PUSH2 0xB2B SWAP2 SWAP1 PUSH2 0x1230 JUMP JUMPDEST PUSH1 0x2 SLOAD PUSH1 0x1 DUP6 ADD SLOAD PUSH1 0x40 MLOAD PUSH4 0x423F6CEF PUSH1 0xE0 SHL DUP2 MSTORE PUSH1 0x1 PUSH1 0x1 PUSH1 0xA0 SHL SUB SWAP2 DUP3 AND PUSH1 0x4 DUP3 ADD MSTORE PUSH1 0x24 DUP2 ADD DUP5 SWAP1 MSTORE SWAP3 SWAP4 POP AND SWAP1 PUSH4 0x423F6CEF SWAP1 PUSH1 0x44 ADD PUSH1 0x20 PUSH1 0x40 MLOAD DUP1 DUP4 SUB DUP2 PUSH1 0x0 DUP8 GAS CALL ISZERO DUP1 ISZERO PUSH2 0xB84 JUMPI RETURNDATASIZE PUSH1 0x0 DUP1 RETURNDATACOPY RETURNDATASIZE PUSH1 0x0 REVERT JUMPDEST POP POP POP POP PUSH1 0x40 MLOAD RETURNDATASIZE PUSH1 0x1F NOT PUSH1 0x1F DUP3 ADD AND DUP3 ADD DUP1 PUSH1 0x40 MSTORE POP DUP2 ADD SWAP1 PUSH2 0xBA8 SWAP2 SWAP1 PUSH2 0x11D5 JUMP JUMPDEST POP DUP2 PUSH1 0x4 PUSH1 0x0 DUP3 DUP3 SLOAD PUSH2 0xBBB SWAP2 SWAP1 PUSH2 0x119E JUMP JUMPDEST SWAP1 SWAP2 SSTORE POP POP PUSH1 0x1 SLOAD PUSH1 0x6 DUP5 ADD SLOAD PUSH1 0x2 DUP6 ADD SLOAD PUSH1 0x40 MLOAD PUSH4 0x23B872DD PUSH1 0xE0 SHL DUP2 MSTORE PUSH1 0x1 PUSH1 0x1 PUSH1 0xA0 SHL SUB SWAP4 DUP5 AND SWAP4 PUSH4 0x23B872DD SWAP4 PUSH2 0xBFF SWAP4 ADDRESS SWAP4 SWAP3 SWAP1 SWAP2 AND SWAP2 PUSH1 0x4 ADD PUSH2 0x11B1 JUMP JUMPDEST PUSH1 0x0 PUSH1 0x40 MLOAD DUP1 DUP4 SUB DUP2 PUSH1 0x0 DUP8 DUP1 EXTCODESIZE ISZERO DUP1 ISZERO PUSH2 0xC19 JUMPI PUSH1 0x0 DUP1 REVERT JUMPDEST POP GAS CALL ISZERO DUP1 ISZERO PUSH2 0xC2D JUMPI RETURNDATASIZE PUSH1 0x0 DUP1 RETURNDATACOPY RETURNDATASIZE PUSH1 0x0 REVERT JUMPDEST POP POP POP POP PUSH1 0x6 DUP4 ADD SLOAD DUP4 SLOAD PUSH1 0x5 DUP6 ADD SLOAD PUSH1 0x40 MLOAD SWAP1 DUP2 MSTORE PUSH1 0x1 PUSH1 0x1 PUSH1 0xA0 SHL SUB SWAP1 SWAP3 AND SWAP2 PUSH32 0xD2AA34A4FDBBC6DFF6A3E56F46E0F3AE2A31D7785FF3487AA5C95C642ACEA501 SWAP1 PUSH1 0x20 ADD PUSH1 0x40 MLOAD DUP1 SWAP2 SUB SWAP1 LOG3 POP POP POP POP JUMP JUMPDEST PUSH1 0x1 DUP1 SLOAD SWAP1 DUP3 ADD SLOAD PUSH1 0x2 DUP4 ADD SLOAD PUSH1 0x40 MLOAD PUSH4 0x23B872DD PUSH1 0xE0 SHL DUP2 MSTORE PUSH1 0x1 PUSH1 0x1 PUSH1 0xA0 SHL SUB SWAP4 DUP5 AND SWAP4 PUSH4 0x23B872DD SWAP4 PUSH2 0xCC1 SWAP4 ADDRESS SWAP4 SWAP3 SWAP1 SWAP2 AND SWAP2 PUSH1 0x4 ADD PUSH2 0x11B1 JUMP JUMPDEST PUSH1 0x0 PUSH1 0x40 MLOAD DUP1 DUP4 SUB DUP2 PUSH1 0x0 DUP8 DUP1 EXTCODESIZE ISZERO DUP1 ISZERO PUSH2 0xCDB JUMPI PUSH1 0x0 DUP1 REVERT JUMPDEST POP GAS CALL ISZERO DUP1 ISZERO PUSH2 0xCEF JUMPI RETURNDATASIZE PUSH1 0x0 DUP1 RETURNDATACOPY RETURNDATASIZE PUSH1 0x0 REVERT JUMPDEST POP POP DUP3 SLOAD PUSH1 0x40 MLOAD PUSH1 0x0 DUP1 DUP3 MSTORE SWAP4 POP SWAP1 SWAP2 POP PUSH32 0xD2AA34A4FDBBC6DFF6A3E56F46E0F3AE2A31D7785FF3487AA5C95C642ACEA501 SWAP1 PUSH1 0x20 ADD PUSH1 0x40 MLOAD DUP1 SWAP2 SUB SWAP1 LOG3 POP POP JUMP JUMPDEST PUSH2 0xD39 PUSH2 0xDAA JUMP JUMPDEST PUSH1 0x1 PUSH1 0x1 PUSH1 0xA0 SHL SUB DUP2 AND PUSH2 0xD9E JUMPI PUSH1 0x40 MLOAD PUSH3 0x461BCD PUSH1 0xE5 SHL DUP2 MSTORE PUSH1 0x20 PUSH1 0x4 DUP3 ADD MSTORE PUSH1 0x26 PUSH1 0x24 DUP3 ADD MSTORE PUSH32 0x4F776E61626C653A206E6577206F776E657220697320746865207A65726F2061 PUSH1 0x44 DUP3 ADD MSTORE PUSH6 0x646472657373 PUSH1 0xD0 SHL PUSH1 0x64 DUP3 ADD MSTORE PUSH1 0x84 ADD PUSH2 0x4A3 JUMP JUMPDEST PUSH2 0xDA7 DUP2 PUSH2 0xE04 JUMP JUMPDEST POP JUMP JUMPDEST PUSH1 0x0 SLOAD PUSH1 0x1 PUSH1 0x1 PUSH1 0xA0 SHL SUB AND CALLER EQ PUSH2 0x953 JUMPI PUSH1 0x40 MLOAD PUSH3 0x461BCD PUSH1 0xE5 SHL DUP2 MSTORE PUSH1 0x20 PUSH1 0x4 DUP3 ADD DUP2 SWAP1 MSTORE PUSH1 0x24 DUP3 ADD MSTORE PUSH32 0x4F776E61626C653A2063616C6C6572206973206E6F7420746865206F776E6572 PUSH1 0x44 DUP3 ADD MSTORE PUSH1 0x64 ADD PUSH2 0x4A3 JUMP JUMPDEST PUSH1 0x0 DUP1 SLOAD PUSH1 0x1 PUSH1 0x1 PUSH1 0xA0 SHL SUB DUP4 DUP2 AND PUSH1 0x1 PUSH1 0x1 PUSH1 0xA0 SHL SUB NOT DUP4 AND DUP2 OR DUP5 SSTORE PUSH1 0x40 MLOAD SWAP2 SWAP1 SWAP3 AND SWAP3 DUP4 SWAP2 PUSH32 0x8BE0079C531659141344CD1FD0A4F28419497F9722A3DAAFE3B4186F6B6457E0 SWAP2 SWAP1 LOG3 POP POP JUMP JUMPDEST PUSH1 0x0 PUSH1 0x20 DUP3 DUP5 SUB SLT ISZERO PUSH2 0xE66 JUMPI PUSH1 0x0 DUP1 REVERT JUMPDEST DUP2 CALLDATALOAD PUSH1 0x1 PUSH1 0x1 PUSH1 0xE0 SHL SUB NOT DUP2 AND DUP2 EQ PUSH2 0xE7E JUMPI PUSH1 0x0 DUP1 REVERT JUMPDEST SWAP4 SWAP3 POP POP POP JUMP JUMPDEST DUP1 CALLDATALOAD PUSH1 0x1 PUSH1 0x1 PUSH1 0xA0 SHL SUB DUP2 AND DUP2 EQ PUSH2 0xE9C JUMPI PUSH1 0x0 DUP1 REVERT JUMPDEST SWAP2 SWAP1 POP JUMP JUMPDEST PUSH1 0x0 PUSH1 0x20 DUP3 DUP5 SUB SLT ISZERO PUSH2 0xEB3 JUMPI PUSH1 0x0 DUP1 REVERT JUMPDEST PUSH2 0xE7E DUP3 PUSH2 0xE85 JUMP JUMPDEST PUSH1 0x0 DUP1 PUSH1 0x0 DUP1 PUSH1 0x80 DUP6 DUP8 SUB SLT ISZERO PUSH2 0xED2 JUMPI PUSH1 0x0 DUP1 REVERT JUMPDEST POP POP DUP3 CALLDATALOAD SWAP5 PUSH1 0x20 DUP5 ADD CALLDATALOAD SWAP5 POP PUSH1 0x40 DUP5 ADD CALLDATALOAD SWAP4 PUSH1 0x60 ADD CALLDATALOAD SWAP3 POP SWAP1 POP JUMP JUMPDEST PUSH1 0x0 PUSH1 0x20 DUP3 DUP5 SUB SLT ISZERO PUSH2 0xF00 JUMPI PUSH1 0x0 DUP1 REVERT JUMPDEST POP CALLDATALOAD SWAP2 SWAP1 POP JUMP JUMPDEST PUSH1 0x0 DUP1 PUSH1 0x40 DUP4 DUP6 SUB SLT ISZERO PUSH2 0xF1A JUMPI PUSH1 0x0 DUP1 REVERT JUMPDEST POP POP DUP1 CALLDATALOAD SWAP3 PUSH1 0x20 SWAP1 SWAP2 ADD CALLDATALOAD SWAP2 POP JUMP JUMPDEST PUSH4 0x4E487B71 PUSH1 0xE0 SHL PUSH1 0x0 MSTORE PUSH1 0x41 PUSH1 0x4 MSTORE PUSH1 0x24 PUSH1 0x0 REVERT JUMPDEST PUSH1 0x40 MLOAD PUSH1 0x1F DUP3 ADD PUSH1 0x1F NOT AND DUP2 ADD PUSH8 0xFFFFFFFFFFFFFFFF DUP2 GT DUP3 DUP3 LT OR ISZERO PUSH2 0xF68 JUMPI PUSH2 0xF68 PUSH2 0xF29 JUMP JUMPDEST PUSH1 0x40 MSTORE SWAP2 SWAP1 POP JUMP JUMPDEST PUSH1 0x0 DUP3 PUSH1 0x1F DUP4 ADD SLT PUSH2 0xF81 JUMPI PUSH1 0x0 DUP1 REVERT JUMPDEST DUP2 CALLDATALOAD PUSH1 0x20 PUSH8 0xFFFFFFFFFFFFFFFF DUP3 GT ISZERO PUSH2 0xF9D JUMPI PUSH2 0xF9D PUSH2 0xF29 JUMP JUMPDEST DUP2 PUSH1 0x5 SHL PUSH2 0xFAC DUP3 DUP3 ADD PUSH2 0xF3F JUMP JUMPDEST SWAP3 DUP4 MSTORE DUP5 DUP2 ADD DUP3 ADD SWAP3 DUP3 DUP2 ADD SWAP1 DUP8 DUP6 GT ISZERO PUSH2 0xFC6 JUMPI PUSH1 0x0 DUP1 REVERT JUMPDEST DUP4 DUP8 ADD SWAP3 POP JUMPDEST DUP5 DUP4 LT ISZERO PUSH2 0xFE5 JUMPI DUP3 CALLDATALOAD DUP3 MSTORE SWAP2 DUP4 ADD SWAP2 SWAP1 DUP4 ADD SWAP1 PUSH2 0xFCC JUMP JUMPDEST SWAP8 SWAP7 POP POP POP POP POP POP POP JUMP JUMPDEST PUSH1 0x0 DUP3 PUSH1 0x1F DUP4 ADD SLT PUSH2 0x1001 JUMPI PUSH1 0x0 DUP1 REVERT JUMPDEST DUP2 CALLDATALOAD PUSH8 0xFFFFFFFFFFFFFFFF DUP2 GT ISZERO PUSH2 0x101B JUMPI PUSH2 0x101B PUSH2 0xF29 JUMP JUMPDEST PUSH2 0x102E PUSH1 0x1F DUP3 ADD PUSH1 0x1F NOT AND PUSH1 0x20 ADD PUSH2 0xF3F JUMP JUMPDEST DUP2 DUP2 MSTORE DUP5 PUSH1 0x20 DUP4 DUP7 ADD ADD GT ISZERO PUSH2 0x1043 JUMPI PUSH1 0x0 DUP1 REVERT JUMPDEST DUP2 PUSH1 0x20 DUP6 ADD PUSH1 0x20 DUP4 ADD CALLDATACOPY PUSH1 0x0 SWAP2 DUP2 ADD PUSH1 0x20 ADD SWAP2 SWAP1 SWAP2 MSTORE SWAP4 SWAP3 POP POP POP JUMP JUMPDEST PUSH1 0x0 DUP1 PUSH1 0x0 DUP1 PUSH1 0x0 PUSH1 0xA0 DUP7 DUP9 SUB SLT ISZERO PUSH2 0x1078 JUMPI PUSH1 0x0 DUP1 REVERT JUMPDEST PUSH2 0x1081 DUP7 PUSH2 0xE85 JUMP JUMPDEST SWAP5 POP PUSH2 0x108F PUSH1 0x20 DUP8 ADD PUSH2 0xE85 JUMP JUMPDEST SWAP4 POP PUSH1 0x40 DUP7 ADD CALLDATALOAD PUSH8 0xFFFFFFFFFFFFFFFF DUP1 DUP3 GT ISZERO PUSH2 0x10AC JUMPI PUSH1 0x0 DUP1 REVERT JUMPDEST PUSH2 0x10B8 DUP10 DUP4 DUP11 ADD PUSH2 0xF70 JUMP JUMPDEST SWAP5 POP PUSH1 0x60 DUP9 ADD CALLDATALOAD SWAP2 POP DUP1 DUP3 GT ISZERO PUSH2 0x10CE JUMPI PUSH1 0x0 DUP1 REVERT JUMPDEST PUSH2 0x10DA DUP10 DUP4 DUP11 ADD PUSH2 0xF70 JUMP JUMPDEST SWAP4 POP PUSH1 0x80 DUP9 ADD CALLDATALOAD SWAP2 POP DUP1 DUP3 GT ISZERO PUSH2 0x10F0 JUMPI PUSH1 0x0 DUP1 REVERT JUMPDEST POP PUSH2 0x10FD DUP9 DUP3 DUP10 ADD PUSH2 0xFF0 JUMP JUMPDEST SWAP2 POP POP SWAP3 SWAP6 POP SWAP3 SWAP6 SWAP1 SWAP4 POP JUMP JUMPDEST PUSH1 0x0 DUP1 PUSH1 0x0 DUP1 PUSH1 0x0 PUSH1 0xA0 DUP7 DUP9 SUB SLT ISZERO PUSH2 0x1122 JUMPI PUSH1 0x0 DUP1 REVERT JUMPDEST PUSH2 0x112B DUP7 PUSH2 0xE85 JUMP JUMPDEST SWAP5 POP PUSH2 0x1139 PUSH1 0x20 DUP8 ADD PUSH2 0xE85 JUMP JUMPDEST SWAP4 POP PUSH1 0x40 DUP7 ADD CALLDATALOAD SWAP3 POP PUSH1 0x60 DUP7 ADD CALLDATALOAD SWAP2 POP PUSH1 0x80 DUP7 ADD CALLDATALOAD PUSH8 0xFFFFFFFFFFFFFFFF DUP2 GT ISZERO PUSH2 0x1163 JUMPI PUSH1 0x0 DUP1 REVERT JUMPDEST PUSH2 0x10FD DUP9 DUP3 DUP10 ADD PUSH2 0xFF0 JUMP JUMPDEST PUSH1 0x0 PUSH1 0x20 DUP3 DUP5 SUB SLT ISZERO PUSH2 0x1181 JUMPI PUSH1 0x0 DUP1 REVERT JUMPDEST POP MLOAD SWAP2 SWAP1 POP JUMP JUMPDEST PUSH4 0x4E487B71 PUSH1 0xE0 SHL PUSH1 0x0 MSTORE PUSH1 0x11 PUSH1 0x4 MSTORE PUSH1 0x24 PUSH1 0x0 REVERT JUMPDEST DUP1 DUP3 ADD DUP1 DUP3 GT ISZERO PUSH2 0x3C6 JUMPI PUSH2 0x3C6 PUSH2 0x1188 JUMP JUMPDEST PUSH1 0x1 PUSH1 0x1 PUSH1 0xA0 SHL SUB SWAP4 DUP5 AND DUP2 MSTORE SWAP2 SWAP1 SWAP3 AND PUSH1 0x20 DUP3 ADD MSTORE PUSH1 0x40 DUP2 ADD SWAP2 SWAP1 SWAP2 MSTORE PUSH1 0x60 ADD SWAP1 JUMP JUMPDEST PUSH1 0x0 PUSH1 0x20 DUP3 DUP5 SUB SLT ISZERO PUSH2 0x11E7 JUMPI PUSH1 0x0 DUP1 REVERT JUMPDEST DUP2 MLOAD DUP1 ISZERO ISZERO DUP2 EQ PUSH2 0xE7E JUMPI PUSH1 0x0 DUP1 REVERT JUMPDEST DUP1 DUP3 MUL DUP2 ISZERO DUP3 DUP3 DIV DUP5 EQ OR PUSH2 0x3C6 JUMPI PUSH2 0x3C6 PUSH2 0x1188 JUMP JUMPDEST PUSH1 0x0 DUP3 PUSH2 0x122B JUMPI PUSH4 0x4E487B71 PUSH1 0xE0 SHL PUSH1 0x0 MSTORE PUSH1 0x12 PUSH1 0x4 MSTORE PUSH1 0x24 PUSH1 0x0 REVERT JUMPDEST POP DIV SWAP1 JUMP JUMPDEST DUP2 DUP2 SUB DUP2 DUP2 GT ISZERO PUSH2 0x3C6 JUMPI PUSH2 0x3C6 PUSH2 0x1188 JUMP INVALID LOG2 PUSH5 0x6970667358 0x22 SLT KECCAK256 0xB4 0xFB 0xDD MSTORE8 0xC PUSH25 0x1D0CEA1FA1F7D3E0A070B4FE87BDA77CD1A1240C14C483657A PUSH29 0x64736F6C63430008150033000000000000000000000000000000000000 "},"methodIdentifiers":{"approveSeller(address)":"5ec5d856","auctionId()":"10782f8f","auctions(uint256)":"571a26a0","commissionPercentage()":"d575fe64","createAuction(uint256,uint256,uint256,uint256)":"431f21da","endAuction(uint256)":"b9a2de3a","nftToken()":"d06fcba8","onERC1155BatchReceived(address,address,uint256[],uint256[],bytes)":"bc197c81","onERC1155Received(address,address,uint256,uint256,bytes)":"f23a6e61","owner()":"8da5cb5b","placeBid(uint256,uint256)":"57c90de5","renounceOwnership()":"715018a6","revokeSellerApproval(address)":"b226a966","setNFTContract(address)":"a7ccabdf","setSiliquaCoin(address)":"13bc2b49","supportsInterface(bytes4)":"01ffc9a7","token()":"fc0c546a","totalCommissionEarned()":"c73cdd23","transferOwnership(address)":"f2fde38b","updateCommissionPercentage(uint256)":"8ce2199e"}}}}}