{"contracts/avatarMarket/NFTMarketplace.sol":{"AvatarMarketplace":{"abi":[{"inputs":[{"internalType":"address","name":"_siliquaCoinAddress","type":"address"},{"internalType":"address","name":"_nftContractAddress","type":"address"},{"internalType":"uint256","name":"_commissionPercentage","type":"uint256"}],"stateMutability":"nonpayable","type":"constructor"},{"anonymous":false,"inputs":[{"indexed":false,"internalType":"uint256","name":"newCommissionPercentage","type":"uint256"}],"name":"CommissionPercentageUpdated","type":"event"},{"anonymous":false,"inputs":[{"indexed":true,"internalType":"address","name":"newNFTContractAddress","type":"address"}],"name":"NFTContractUpdated","type":"event"},{"anonymous":false,"inputs":[{"indexed":true,"internalType":"uint256","name":"listingId","type":"uint256"},{"indexed":true,"internalType":"address","name":"seller","type":"address"},{"indexed":true,"internalType":"uint256","name":"tokenId","type":"uint256"},{"indexed":false,"internalType":"uint256","name":"price","type":"uint256"},{"indexed":false,"internalType":"string","name":"status","type":"string"}],"name":"NFTListed","type":"event"},{"anonymous":false,"inputs":[{"indexed":true,"internalType":"uint256","name":"listingId","type":"uint256"},{"indexed":true,"internalType":"address","name":"seller","type":"address"},{"indexed":true,"internalType":"uint256","name":"tokenId","type":"uint256"},{"indexed":false,"internalType":"uint256","name":"price","type":"uint256"},{"indexed":false,"internalType":"string","name":"status","type":"string"}],"name":"NFTListingCancelled","type":"event"},{"anonymous":false,"inputs":[{"indexed":true,"internalType":"uint256","name":"listingId","type":"uint256"},{"indexed":true,"internalType":"address","name":"buyer","type":"address"},{"indexed":true,"internalType":"address","name":"seller","type":"address"},{"indexed":false,"internalType":"uint256","name":"tokenId","type":"uint256"},{"indexed":false,"internalType":"uint256","name":"price","type":"uint256"},{"indexed":false,"internalType":"string","name":"status","type":"string"}],"name":"NFTPurchased","type":"event"},{"anonymous":false,"inputs":[{"indexed":true,"internalType":"address","name":"previousOwner","type":"address"},{"indexed":true,"internalType":"address","name":"newOwner","type":"address"}],"name":"OwnershipTransferred","type":"event"},{"anonymous":false,"inputs":[{"indexed":false,"internalType":"address","name":"account","type":"address"}],"name":"Paused","type":"event"},{"anonymous":false,"inputs":[{"indexed":true,"internalType":"address","name":"newSiliquaCoinAddress","type":"address"}],"name":"SiliquaCoinUpdated","type":"event"},{"anonymous":false,"inputs":[{"indexed":false,"internalType":"address","name":"account","type":"address"}],"name":"Unpaused","type":"event"},{"inputs":[{"internalType":"uint256","name":"_listingId","type":"uint256"}],"name":"cancelListing","outputs":[],"stateMutability":"nonpayable","type":"function"},{"inputs":[],"name":"commissionPercentage","outputs":[{"internalType":"uint256","name":"","type":"uint256"}],"stateMutability":"view","type":"function"},{"inputs":[],"name":"getActiveListings","outputs":[{"components":[{"internalType":"uint256","name":"listingId","type":"uint256"},{"internalType":"address","name":"seller","type":"address"},{"internalType":"uint256","name":"tokenId","type":"uint256"},{"internalType":"uint256","name":"price","type":"uint256"},{"internalType":"bool","name":"isActive","type":"bool"}],"internalType":"struct AvatarMarketplace.Listing[]","name":"activeListings","type":"tuple[]"}],"stateMutability":"view","type":"function"},{"inputs":[{"internalType":"uint256","name":"_tokenId","type":"uint256"},{"internalType":"uint256","name":"_price","type":"uint256"}],"name":"listNFT","outputs":[],"stateMutability":"nonpayable","type":"function"},{"inputs":[],"name":"listingId","outputs":[{"internalType":"uint256","name":"","type":"uint256"}],"stateMutability":"view","type":"function"},{"inputs":[{"internalType":"uint256","name":"","type":"uint256"}],"name":"listings","outputs":[{"internalType":"uint256","name":"listingId","type":"uint256"},{"internalType":"address","name":"seller","type":"address"},{"internalType":"uint256","name":"tokenId","type":"uint256"},{"internalType":"uint256","name":"price","type":"uint256"},{"internalType":"bool","name":"isActive","type":"bool"}],"stateMutability":"view","type":"function"},{"inputs":[],"name":"nftToken","outputs":[{"internalType":"contract AvatarNFT","name":"","type":"address"}],"stateMutability":"view","type":"function"},{"inputs":[{"internalType":"address","name":"","type":"address"},{"internalType":"address","name":"","type":"address"},{"internalType":"uint256[]","name":"","type":"uint256[]"},{"internalType":"uint256[]","name":"","type":"uint256[]"},{"internalType":"bytes","name":"","type":"bytes"}],"name":"onERC1155BatchReceived","outputs":[{"internalType":"bytes4","name":"","type":"bytes4"}],"stateMutability":"nonpayable","type":"function"},{"inputs":[{"internalType":"address","name":"","type":"address"},{"internalType":"address","name":"","type":"address"},{"internalType":"uint256","name":"","type":"uint256"},{"internalType":"uint256","name":"","type":"uint256"},{"internalType":"bytes","name":"","type":"bytes"}],"name":"onERC1155Received","outputs":[{"internalType":"bytes4","name":"","type":"bytes4"}],"stateMutability":"nonpayable","type":"function"},{"inputs":[],"name":"owner","outputs":[{"internalType":"address","name":"","type":"address"}],"stateMutability":"view","type":"function"},{"inputs":[],"name":"pause","outputs":[],"stateMutability":"nonpayable","type":"function"},{"inputs":[],"name":"paused","outputs":[{"internalType":"bool","name":"","type":"bool"}],"stateMutability":"view","type":"function"},{"inputs":[{"internalType":"uint256","name":"_listingId","type":"uint256"}],"name":"purchaseNFT","outputs":[],"stateMutability":"payable","type":"function"},{"inputs":[],"name":"renounceOwnership","outputs":[],"stateMutability":"nonpayable","type":"function"},{"inputs":[{"internalType":"address","name":"_nftContractAddress","type":"address"}],"name":"setNFTContract","outputs":[],"stateMutability":"nonpayable","type":"function"},{"inputs":[{"internalType":"address","name":"_siliquaCoinAddress","type":"address"}],"name":"setSiliquaCoin","outputs":[],"stateMutability":"nonpayable","type":"function"},{"inputs":[{"internalType":"bytes4","name":"interfaceId","type":"bytes4"}],"name":"supportsInterface","outputs":[{"internalType":"bool","name":"","type":"bool"}],"stateMutability":"view","type":"function"},{"inputs":[],"name":"token","outputs":[{"internalType":"contract ISiliquaCoin","name":"","type":"address"}],"stateMutability":"view","type":"function"},{"inputs":[],"name":"totalCommissionEarned","outputs":[{"internalType":"uint256","name":"","type":"uint256"}],"stateMutability":"view","type":"function"},{"inputs":[{"internalType":"address","name":"newOwner","type":"address"}],"name":"transferOwnership","outputs":[],"stateMutability":"nonpayable","type":"function"},{"inputs":[],"name":"unpause","outputs":[],"stateMutability":"nonpayable","type":"function"},{"inputs":[{"internalType":"uint256","name":"_newCommissionPercentage","type":"uint256"}],"name":"updateCommissionPercentage","outputs":[],"stateMutability":"nonpayable","type":"function"}],"evm":{"bytecode":{"linkReferences":{},"object":"608060405260006007553480156200001657600080fd5b506040516200183e3803806200183e8339810160408190526200003991620000f6565b620000443362000089565b60018055600280546001600160a81b0319166101006001600160a01b0394851602179055600380546001600160a01b0319169390921692909217905560045562000137565b600080546001600160a01b038381166001600160a01b0319831681178455604051919092169283917f8be0079c531659141344cd1fd0a4f28419497f9722a3daafe3b4186f6b6457e09190a35050565b80516001600160a01b0381168114620000f157600080fd5b919050565b6000806000606084860312156200010c57600080fd5b6200011784620000d9565b92506200012760208501620000d9565b9150604084015190509250925092565b6116f780620001476000396000f3fe6080604052600436106101355760003560e01c80639405dfdd116100ab578063d06fcba81161006f578063d06fcba81461034e578063d575fe6414610373578063de74e57b14610389578063f23a6e6114610412578063f2fde38b1461043e578063fc0c546a1461045e57600080fd5b80639405dfdd1461028f57806394383f14146102b3578063a7ccabdf146102d3578063bc197c81146102f3578063c73cdd231461033857600080fd5b80635c975abb116100fd5780635c975abb146101d9578063715018a6146101f15780638456cb591461020657806387c35bc01461021b5780638ce2199e1461023d5780638da5cb5b1461025d57600080fd5b806301ffc9a71461013a57806313bc2b491461016f578063150bde0314610191578063305a67a8146101a45780633f4ba83a146101c4575b600080fd5b34801561014657600080fd5b5061015a610155366004611279565b61047e565b60405190151581526020015b60405180910390f35b34801561017b57600080fd5b5061018f61018a3660046112bf565b6104b5565b005b61018f61019f3660046112dc565b61050f565b3480156101b057600080fd5b5061018f6101bf3660046112dc565b6108cb565b3480156101d057600080fd5b5061018f610acf565b3480156101e557600080fd5b5060025460ff1661015a565b3480156101fd57600080fd5b5061018f610ae1565b34801561021257600080fd5b5061018f610af3565b34801561022757600080fd5b50610230610b03565b60405161016691906112f5565b34801561024957600080fd5b5061018f6102583660046112dc565b610ca7565b34801561026957600080fd5b506000546001600160a01b03165b6040516001600160a01b039091168152602001610166565b34801561029b57600080fd5b506102a560075481565b604051908152602001610166565b3480156102bf57600080fd5b5061018f6102ce36600461136e565b610d43565b3480156102df57600080fd5b5061018f6102ee3660046112bf565b610f80565b3480156102ff57600080fd5b5061031f61030e3660046114c7565b63bc197c8160e01b95945050505050565b6040516001600160e01b03199091168152602001610166565b34801561034457600080fd5b506102a560055481565b34801561035a57600080fd5b506002546102779061010090046001600160a01b031681565b34801561037f57600080fd5b506102a560045481565b34801561039557600080fd5b506103e06103a43660046112dc565b6006602052600090815260409020805460018201546002830154600384015460049094015492936001600160a01b039092169290919060ff1685565b604080519586526001600160a01b0390941660208601529284019190915260608301521515608082015260a001610166565b34801561041e57600080fd5b5061031f61042d366004611575565b63f23a6e6160e01b95945050505050565b34801561044a57600080fd5b5061018f6104593660046112bf565b610fe2565b34801561046a57600080fd5b50600354610277906001600160a01b031681565b60006001600160e01b03198216630271189760e51b14806104af57506301ffc9a760e01b6001600160e01b03198316145b92915050565b6104bd611058565b6104c56110b2565b600380546001600160a01b0319166001600160a01b0383169081179091556040517f6eee81a43bf9442f55a05941b6e18df1a7bcf02125d1e7b93ba7342aa72ef20e90600090a250565b6105176110f8565b61051f6110b2565b60075481106105685760405162461bcd60e51b815260206004820152601060248201526f125108191bd95cdb89dd08195e1a5cdd60821b60448201526064015b60405180910390fd5b6000818152600660205260409020600481015460ff166105c25760405162461bcd60e51b81526020600482015260156024820152744c697374696e67206973206e6f742061637469766560581b604482015260640161055f565b806003015434146106075760405162461bcd60e51b815260206004820152600f60248201526e496e636f727265637420707269636560881b604482015260640161055f565b60006064600454836003015461061d91906115f4565b610627919061160b565b9050806005600082825461063b919061162d565b9091555050600080546040516001600160a01b039091169183156108fc02918491818181858888f19350505050158015610679573d6000803e3d6000fd5b50600081836003015461068c9190611640565b60018401546040519192506001600160a01b03169082156108fc029083906000818181858888f193505050501580156106c9573d6000803e3d6000fd5b506002805490840154604051632142170760e11b815230600482015233602482015260448101919091526101009091046001600160a01b0316906342842e0e90606401600060405180830381600087803b15801561072657600080fd5b505af115801561073a573d6000803e3d6000fd5b505060035460405163423f6cef60e01b8152336004820152670de0b6b3a764000060248201526001600160a01b03909116925063423f6cef91506044016020604051808303816000875af1158015610796573d6000803e3d6000fd5b505050506040513d601f19601f820116820180604052508101906107ba9190611653565b50600354600184015460405163423f6cef60e01b81526001600160a01b039182166004820152670de0b6b3a7640000602482015291169063423f6cef906044016020604051808303816000875af1158015610819573d6000803e3d6000fd5b505050506040513d601f19601f8201168201806040525081019061083d9190611653565b5060048301805460ff1916905560018301546002840154604080519182523460208301526060828201819052600990830152681c1d5c98da185cd95960ba1b6080830152516001600160a01b0390921691339187917f12c5db205c15a58219d216eea2f3362efc64a7e2db9a9b7237eae6ea6e6e30049181900360a00190a45050506108c860018055565b50565b6108d36110f8565b6108db6110b2565b60075481106109215760405162461bcd60e51b8152602060048201526012602482015271125b9d985b1a59081b1a5cdd1a5b99c8125160721b604482015260640161055f565b600081815260066020526040902060018101546001600160a01b0316331461099a5760405162461bcd60e51b815260206004820152602660248201527f4f6e6c79207468652073656c6c65722063616e2063616e63656c20746865206c604482015265697374696e6760d01b606482015260840161055f565b600481015460ff166109e65760405162461bcd60e51b81526020600482015260156024820152744c697374696e67206973206e6f742061637469766560581b604482015260640161055f565b60028054908201546040516323b872dd60e01b815230600482015233602482015260448101919091526101009091046001600160a01b0316906323b872dd90606401600060405180830381600087803b158015610a4257600080fd5b505af1158015610a56573d6000803e3d6000fd5b5050505060048101805460ff191690556002810154600382015460408051918252602082018190526009828201526818d85b98d95b1b195960ba1b606083015251339185917f4365cb53484debef7671e094e8cead2a45d4b329d842264eb2c68b1f1f46d3a39181900360800190a4506108c860018055565b610ad7611058565b610adf611151565b565b610ae9611058565b610adf60006111a3565b610afb611058565b610adf6111f3565b6060610b0d6110b2565b6000805b600754811015610b555760008181526006602052604090206004015460ff1615610b435781610b3f81611675565b9250505b80610b4d81611675565b915050610b11565b508067ffffffffffffffff811115610b6f57610b6f611390565b604051908082528060200260200182016040528015610bdd57816020015b610bca6040518060a001604052806000815260200160006001600160a01b0316815260200160008152602001600081526020016000151581525090565b815260200190600190039081610b8d5790505b5091506000805b600754811015610ca15760008181526006602052604090206004015460ff1615610c8f57600081815260066020908152604091829020825160a0810184528154815260018201546001600160a01b0316928101929092526002810154928201929092526003820154606082015260049091015460ff16151560808201528451859084908110610c7557610c7561168e565b60200260200101819052508180610c8b90611675565b9250505b80610c9981611675565b915050610be4565b50505090565b610caf611058565b610cb76110b2565b6064811115610d085760405162461bcd60e51b815260206004820152601d60248201527f496e76616c696420636f6d6d697373696f6e2070657263656e74616765000000604482015260640161055f565b60048190556040518181527f7e3665a83046ac3c4ec146cf309edab9d75086c48761909ce868f5c65743f4f19060200160405180910390a150565b610d4b6110f8565b610d536110b2565b6002546040516331a9108f60e11b815260048101849052339161010090046001600160a01b031690636352211e90602401602060405180830381865afa158015610da1573d6000803e3d6000fd5b505050506040513d601f19601f82011682018060405250810190610dc591906116a4565b6001600160a01b031614610e115760405162461bcd60e51b815260206004820152601360248201527213db9b1e481bdddb995c8818d85b881cd95b1b606a1b604482015260640161055f565b6002546040516323b872dd60e01b8152336004820152306024820152604481018490526101009091046001600160a01b0316906323b872dd90606401600060405180830381600087803b158015610e6757600080fd5b505af1158015610e7b573d6000803e3d6000fd5b50506040805160a081018252600780548083523360208085018281528587018b815260608088018c815260016080808b018281526000998a526006808952998d90209b518c559551918b0180546001600160a01b0319166001600160a01b0390931692909217909155925160028a015551600389015591516004909701805460ff191697151597909717909655935486518a815291820187905295810192909252651b1a5cdd195960d21b928201929092528795509093507f1874edc4dd8ef51672d2c7645e73e04998f9bed81a6dbc28eb3dc65a06d725bf910160405180910390a460078054906000610f6e83611675565b9190505550610f7c60018055565b5050565b610f88611058565b610f906110b2565b60028054610100600160a81b0319166101006001600160a01b038416908102919091179091556040517ff2610996d245d9b77e4ff84c2174eea0b76fb44c422218404f66e28816d78fb990600090a250565b610fea611058565b6001600160a01b03811661104f5760405162461bcd60e51b815260206004820152602660248201527f4f776e61626c653a206e6577206f776e657220697320746865207a65726f206160448201526564647265737360d01b606482015260840161055f565b6108c8816111a3565b6000546001600160a01b03163314610adf5760405162461bcd60e51b815260206004820181905260248201527f4f776e61626c653a2063616c6c6572206973206e6f7420746865206f776e6572604482015260640161055f565b60025460ff1615610adf5760405162461bcd60e51b815260206004820152601060248201526f14185d5cd8589b194e881c185d5cd95960821b604482015260640161055f565b60026001540361114a5760405162461bcd60e51b815260206004820152601f60248201527f5265656e7472616e637947756172643a207265656e7472616e742063616c6c00604482015260640161055f565b6002600155565b611159611230565b6002805460ff191690557f5db9ee0a495bf2e6ff9c91a7834c1ba4fdd244a5e8aa4e537bd38aeae4b073aa335b6040516001600160a01b03909116815260200160405180910390a1565b600080546001600160a01b038381166001600160a01b0319831681178455604051919092169283917f8be0079c531659141344cd1fd0a4f28419497f9722a3daafe3b4186f6b6457e09190a35050565b6111fb6110b2565b6002805460ff191660011790557f62e78cea01bee320cd4e420270b5ea74000d11b0c9f74754ebdbfc544b05a2586111863390565b60025460ff16610adf5760405162461bcd60e51b815260206004820152601460248201527314185d5cd8589b194e881b9bdd081c185d5cd95960621b604482015260640161055f565b60006020828403121561128b57600080fd5b81356001600160e01b0319811681146112a357600080fd5b9392505050565b6001600160a01b03811681146108c857600080fd5b6000602082840312156112d157600080fd5b81356112a3816112aa565b6000602082840312156112ee57600080fd5b5035919050565b602080825282518282018190526000919060409081850190868401855b8281101561136157815180518552868101516001600160a01b03168786015285810151868601526060808201519086015260809081015115159085015260a09093019290850190600101611312565b5091979650505050505050565b6000806040838503121561138157600080fd5b50508035926020909101359150565b634e487b7160e01b600052604160045260246000fd5b604051601f8201601f1916810167ffffffffffffffff811182821017156113cf576113cf611390565b604052919050565b600082601f8301126113e857600080fd5b8135602067ffffffffffffffff82111561140457611404611390565b8160051b6114138282016113a6565b928352848101820192828101908785111561142d57600080fd5b83870192505b8483101561144c57823582529183019190830190611433565b979650505050505050565b600082601f83011261146857600080fd5b813567ffffffffffffffff81111561148257611482611390565b611495601f8201601f19166020016113a6565b8181528460208386010111156114aa57600080fd5b816020850160208301376000918101602001919091529392505050565b600080600080600060a086880312156114df57600080fd5b85356114ea816112aa565b945060208601356114fa816112aa565b9350604086013567ffffffffffffffff8082111561151757600080fd5b61152389838a016113d7565b9450606088013591508082111561153957600080fd5b61154589838a016113d7565b9350608088013591508082111561155b57600080fd5b5061156888828901611457565b9150509295509295909350565b600080600080600060a0868803121561158d57600080fd5b8535611598816112aa565b945060208601356115a8816112aa565b93506040860135925060608601359150608086013567ffffffffffffffff8111156115d257600080fd5b61156888828901611457565b634e487b7160e01b600052601160045260246000fd5b80820281158282048414176104af576104af6115de565b60008261162857634e487b7160e01b600052601260045260246000fd5b500490565b808201808211156104af576104af6115de565b818103818111156104af576104af6115de565b60006020828403121561166557600080fd5b815180151581146112a357600080fd5b600060018201611687576116876115de565b5060010190565b634e487b7160e01b600052603260045260246000fd5b6000602082840312156116b657600080fd5b81516112a3816112aa56fea2646970667358221220f9b8387fa8ca514c61d8ea92b9a3c1b6459c5b127feb604c5fdf06e9ff9c5d6164736f6c63430008150033","opcodes":"PUSH1 0x80 PUSH1 0x40 MSTORE PUSH1 0x0 PUSH1 0x7 SSTORE CALLVALUE DUP1 ISZERO PUSH3 0x16 JUMPI PUSH1 0x0 DUP1 REVERT JUMPDEST POP PUSH1 0x40 MLOAD PUSH3 0x183E CODESIZE SUB DUP1 PUSH3 0x183E DUP4 CODECOPY DUP2 ADD PUSH1 0x40 DUP2 SWAP1 MSTORE PUSH3 0x39 SWAP2 PUSH3 0xF6 JUMP JUMPDEST PUSH3 0x44 CALLER PUSH3 0x89 JUMP JUMPDEST PUSH1 0x1 DUP1 SSTORE PUSH1 0x2 DUP1 SLOAD PUSH1 0x1 PUSH1 0x1 PUSH1 0xA8 SHL SUB NOT AND PUSH2 0x100 PUSH1 0x1 PUSH1 0x1 PUSH1 0xA0 SHL SUB SWAP5 DUP6 AND MUL OR SWAP1 SSTORE PUSH1 0x3 DUP1 SLOAD PUSH1 0x1 PUSH1 0x1 PUSH1 0xA0 SHL SUB NOT AND SWAP4 SWAP1 SWAP3 AND SWAP3 SWAP1 SWAP3 OR SWAP1 SSTORE PUSH1 0x4 SSTORE PUSH3 0x137 JUMP JUMPDEST PUSH1 0x0 DUP1 SLOAD PUSH1 0x1 PUSH1 0x1 PUSH1 0xA0 SHL SUB DUP4 DUP2 AND PUSH1 0x1 PUSH1 0x1 PUSH1 0xA0 SHL SUB NOT DUP4 AND DUP2 OR DUP5 SSTORE PUSH1 0x40 MLOAD SWAP2 SWAP1 SWAP3 AND SWAP3 DUP4 SWAP2 PUSH32 0x8BE0079C531659141344CD1FD0A4F28419497F9722A3DAAFE3B4186F6B6457E0 SWAP2 SWAP1 LOG3 POP POP JUMP JUMPDEST DUP1 MLOAD PUSH1 0x1 PUSH1 0x1 PUSH1 0xA0 SHL SUB DUP2 AND DUP2 EQ PUSH3 0xF1 JUMPI PUSH1 0x0 DUP1 REVERT JUMPDEST SWAP2 SWAP1 POP JUMP JUMPDEST PUSH1 0x0 DUP1 PUSH1 0x0 PUSH1 0x60 DUP5 DUP7 SUB SLT ISZERO PUSH3 0x10C JUMPI PUSH1 0x0 DUP1 REVERT JUMPDEST PUSH3 0x117 DUP5 PUSH3 0xD9 JUMP JUMPDEST SWAP3 POP PUSH3 0x127 PUSH1 0x20 DUP6 ADD PUSH3 0xD9 JUMP JUMPDEST SWAP2 POP PUSH1 0x40 DUP5 ADD MLOAD SWAP1 POP SWAP3 POP SWAP3 POP SWAP3 JUMP JUMPDEST PUSH2 0x16F7 DUP1 PUSH3 0x147 PUSH1 0x0 CODECOPY PUSH1 0x0 RETURN INVALID PUSH1 0x80 PUSH1 0x40 MSTORE PUSH1 0x4 CALLDATASIZE LT PUSH2 0x135 JUMPI PUSH1 0x0 CALLDATALOAD PUSH1 0xE0 SHR DUP1 PUSH4 0x9405DFDD GT PUSH2 0xAB JUMPI DUP1 PUSH4 0xD06FCBA8 GT PUSH2 0x6F JUMPI DUP1 PUSH4 0xD06FCBA8 EQ PUSH2 0x34E JUMPI DUP1 PUSH4 0xD575FE64 EQ PUSH2 0x373 JUMPI DUP1 PUSH4 0xDE74E57B EQ PUSH2 0x389 JUMPI DUP1 PUSH4 0xF23A6E61 EQ PUSH2 0x412 JUMPI DUP1 PUSH4 0xF2FDE38B EQ PUSH2 0x43E JUMPI DUP1 PUSH4 0xFC0C546A EQ PUSH2 0x45E JUMPI PUSH1 0x0 DUP1 REVERT JUMPDEST DUP1 PUSH4 0x9405DFDD EQ PUSH2 0x28F JUMPI DUP1 PUSH4 0x94383F14 EQ PUSH2 0x2B3 JUMPI DUP1 PUSH4 0xA7CCABDF EQ PUSH2 0x2D3 JUMPI DUP1 PUSH4 0xBC197C81 EQ PUSH2 0x2F3 JUMPI DUP1 PUSH4 0xC73CDD23 EQ PUSH2 0x338 JUMPI PUSH1 0x0 DUP1 REVERT JUMPDEST DUP1 PUSH4 0x5C975ABB GT PUSH2 0xFD JUMPI DUP1 PUSH4 0x5C975ABB EQ PUSH2 0x1D9 JUMPI DUP1 PUSH4 0x715018A6 EQ PUSH2 0x1F1 JUMPI DUP1 PUSH4 0x8456CB59 EQ PUSH2 0x206 JUMPI DUP1 PUSH4 0x87C35BC0 EQ PUSH2 0x21B JUMPI DUP1 PUSH4 0x8CE2199E EQ PUSH2 0x23D JUMPI DUP1 PUSH4 0x8DA5CB5B EQ PUSH2 0x25D JUMPI PUSH1 0x0 DUP1 REVERT JUMPDEST DUP1 PUSH4 0x1FFC9A7 EQ PUSH2 0x13A JUMPI DUP1 PUSH4 0x13BC2B49 EQ PUSH2 0x16F JUMPI DUP1 PUSH4 0x150BDE03 EQ PUSH2 0x191 JUMPI DUP1 PUSH4 0x305A67A8 EQ PUSH2 0x1A4 JUMPI DUP1 PUSH4 0x3F4BA83A EQ PUSH2 0x1C4 JUMPI JUMPDEST PUSH1 0x0 DUP1 REVERT JUMPDEST CALLVALUE DUP1 ISZERO PUSH2 0x146 JUMPI PUSH1 0x0 DUP1 REVERT JUMPDEST POP PUSH2 0x15A PUSH2 0x155 CALLDATASIZE PUSH1 0x4 PUSH2 0x1279 JUMP JUMPDEST PUSH2 0x47E JUMP JUMPDEST PUSH1 0x40 MLOAD SWAP1 ISZERO ISZERO DUP2 MSTORE PUSH1 0x20 ADD JUMPDEST PUSH1 0x40 MLOAD DUP1 SWAP2 SUB SWAP1 RETURN JUMPDEST CALLVALUE DUP1 ISZERO PUSH2 0x17B JUMPI PUSH1 0x0 DUP1 REVERT JUMPDEST POP PUSH2 0x18F PUSH2 0x18A CALLDATASIZE PUSH1 0x4 PUSH2 0x12BF JUMP JUMPDEST PUSH2 0x4B5 JUMP JUMPDEST STOP JUMPDEST PUSH2 0x18F PUSH2 0x19F CALLDATASIZE PUSH1 0x4 PUSH2 0x12DC JUMP JUMPDEST PUSH2 0x50F JUMP JUMPDEST CALLVALUE DUP1 ISZERO PUSH2 0x1B0 JUMPI PUSH1 0x0 DUP1 REVERT JUMPDEST POP PUSH2 0x18F PUSH2 0x1BF CALLDATASIZE PUSH1 0x4 PUSH2 0x12DC JUMP JUMPDEST PUSH2 0x8CB JUMP JUMPDEST CALLVALUE DUP1 ISZERO PUSH2 0x1D0 JUMPI PUSH1 0x0 DUP1 REVERT JUMPDEST POP PUSH2 0x18F PUSH2 0xACF JUMP JUMPDEST CALLVALUE DUP1 ISZERO PUSH2 0x1E5 JUMPI PUSH1 0x0 DUP1 REVERT JUMPDEST POP PUSH1 0x2 SLOAD PUSH1 0xFF AND PUSH2 0x15A JUMP JUMPDEST CALLVALUE DUP1 ISZERO PUSH2 0x1FD JUMPI PUSH1 0x0 DUP1 REVERT JUMPDEST POP PUSH2 0x18F PUSH2 0xAE1 JUMP JUMPDEST CALLVALUE DUP1 ISZERO PUSH2 0x212 JUMPI PUSH1 0x0 DUP1 REVERT JUMPDEST POP PUSH2 0x18F PUSH2 0xAF3 JUMP JUMPDEST CALLVALUE DUP1 ISZERO PUSH2 0x227 JUMPI PUSH1 0x0 DUP1 REVERT JUMPDEST POP PUSH2 0x230 PUSH2 0xB03 JUMP JUMPDEST PUSH1 0x40 MLOAD PUSH2 0x166 SWAP2 SWAP1 PUSH2 0x12F5 JUMP JUMPDEST CALLVALUE DUP1 ISZERO PUSH2 0x249 JUMPI PUSH1 0x0 DUP1 REVERT JUMPDEST POP PUSH2 0x18F PUSH2 0x258 CALLDATASIZE PUSH1 0x4 PUSH2 0x12DC JUMP JUMPDEST PUSH2 0xCA7 JUMP JUMPDEST CALLVALUE DUP1 ISZERO PUSH2 0x269 JUMPI PUSH1 0x0 DUP1 REVERT JUMPDEST POP PUSH1 0x0 SLOAD PUSH1 0x1 PUSH1 0x1 PUSH1 0xA0 SHL SUB AND JUMPDEST PUSH1 0x40 MLOAD PUSH1 0x1 PUSH1 0x1 PUSH1 0xA0 SHL SUB SWAP1 SWAP2 AND DUP2 MSTORE PUSH1 0x20 ADD PUSH2 0x166 JUMP JUMPDEST CALLVALUE DUP1 ISZERO PUSH2 0x29B JUMPI PUSH1 0x0 DUP1 REVERT JUMPDEST POP PUSH2 0x2A5 PUSH1 0x7 SLOAD DUP2 JUMP JUMPDEST PUSH1 0x40 MLOAD SWAP1 DUP2 MSTORE PUSH1 0x20 ADD PUSH2 0x166 JUMP JUMPDEST CALLVALUE DUP1 ISZERO PUSH2 0x2BF JUMPI PUSH1 0x0 DUP1 REVERT JUMPDEST POP PUSH2 0x18F PUSH2 0x2CE CALLDATASIZE PUSH1 0x4 PUSH2 0x136E JUMP JUMPDEST PUSH2 0xD43 JUMP JUMPDEST CALLVALUE DUP1 ISZERO PUSH2 0x2DF JUMPI PUSH1 0x0 DUP1 REVERT JUMPDEST POP PUSH2 0x18F PUSH2 0x2EE CALLDATASIZE PUSH1 0x4 PUSH2 0x12BF JUMP JUMPDEST PUSH2 0xF80 JUMP JUMPDEST CALLVALUE DUP1 ISZERO PUSH2 0x2FF JUMPI PUSH1 0x0 DUP1 REVERT JUMPDEST POP PUSH2 0x31F PUSH2 0x30E CALLDATASIZE PUSH1 0x4 PUSH2 0x14C7 JUMP JUMPDEST PUSH4 0xBC197C81 PUSH1 0xE0 SHL SWAP6 SWAP5 POP POP POP POP POP JUMP JUMPDEST PUSH1 0x40 MLOAD PUSH1 0x1 PUSH1 0x1 PUSH1 0xE0 SHL SUB NOT SWAP1 SWAP2 AND DUP2 MSTORE PUSH1 0x20 ADD PUSH2 0x166 JUMP JUMPDEST CALLVALUE DUP1 ISZERO PUSH2 0x344 JUMPI PUSH1 0x0 DUP1 REVERT JUMPDEST POP PUSH2 0x2A5 PUSH1 0x5 SLOAD DUP2 JUMP JUMPDEST CALLVALUE DUP1 ISZERO PUSH2 0x35A JUMPI PUSH1 0x0 DUP1 REVERT JUMPDEST POP PUSH1 0x2 SLOAD PUSH2 0x277 SWAP1 PUSH2 0x100 SWAP1 DIV PUSH1 0x1 PUSH1 0x1 PUSH1 0xA0 SHL SUB AND DUP2 JUMP JUMPDEST CALLVALUE DUP1 ISZERO PUSH2 0x37F JUMPI PUSH1 0x0 DUP1 REVERT JUMPDEST POP PUSH2 0x2A5 PUSH1 0x4 SLOAD DUP2 JUMP JUMPDEST CALLVALUE DUP1 ISZERO PUSH2 0x395 JUMPI PUSH1 0x0 DUP1 REVERT JUMPDEST POP PUSH2 0x3E0 PUSH2 0x3A4 CALLDATASIZE PUSH1 0x4 PUSH2 0x12DC JUMP JUMPDEST PUSH1 0x6 PUSH1 0x20 MSTORE PUSH1 0x0 SWAP1 DUP2 MSTORE PUSH1 0x40 SWAP1 KECCAK256 DUP1 SLOAD PUSH1 0x1 DUP3 ADD SLOAD PUSH1 0x2 DUP4 ADD SLOAD PUSH1 0x3 DUP5 ADD SLOAD PUSH1 0x4 SWAP1 SWAP5 ADD SLOAD SWAP3 SWAP4 PUSH1 0x1 PUSH1 0x1 PUSH1 0xA0 SHL SUB SWAP1 SWAP3 AND SWAP3 SWAP1 SWAP2 SWAP1 PUSH1 0xFF AND DUP6 JUMP JUMPDEST PUSH1 0x40 DUP1 MLOAD SWAP6 DUP7 MSTORE PUSH1 0x1 PUSH1 0x1 PUSH1 0xA0 SHL SUB SWAP1 SWAP5 AND PUSH1 0x20 DUP7 ADD MSTORE SWAP3 DUP5 ADD SWAP2 SWAP1 SWAP2 MSTORE PUSH1 0x60 DUP4 ADD MSTORE ISZERO ISZERO PUSH1 0x80 DUP3 ADD MSTORE PUSH1 0xA0 ADD PUSH2 0x166 JUMP JUMPDEST CALLVALUE DUP1 ISZERO PUSH2 0x41E JUMPI PUSH1 0x0 DUP1 REVERT JUMPDEST POP PUSH2 0x31F PUSH2 0x42D CALLDATASIZE PUSH1 0x4 PUSH2 0x1575 JUMP JUMPDEST PUSH4 0xF23A6E61 PUSH1 0xE0 SHL SWAP6 SWAP5 POP POP POP POP POP JUMP JUMPDEST CALLVALUE DUP1 ISZERO PUSH2 0x44A JUMPI PUSH1 0x0 DUP1 REVERT JUMPDEST POP PUSH2 0x18F PUSH2 0x459 CALLDATASIZE PUSH1 0x4 PUSH2 0x12BF JUMP JUMPDEST PUSH2 0xFE2 JUMP JUMPDEST CALLVALUE DUP1 ISZERO PUSH2 0x46A JUMPI PUSH1 0x0 DUP1 REVERT JUMPDEST POP PUSH1 0x3 SLOAD PUSH2 0x277 SWAP1 PUSH1 0x1 PUSH1 0x1 PUSH1 0xA0 SHL SUB AND DUP2 JUMP JUMPDEST PUSH1 0x0 PUSH1 0x1 PUSH1 0x1 PUSH1 0xE0 SHL SUB NOT DUP3 AND PUSH4 0x2711897 PUSH1 0xE5 SHL EQ DUP1 PUSH2 0x4AF JUMPI POP PUSH4 0x1FFC9A7 PUSH1 0xE0 SHL PUSH1 0x1 PUSH1 0x1 PUSH1 0xE0 SHL SUB NOT DUP4 AND EQ JUMPDEST SWAP3 SWAP2 POP POP JUMP JUMPDEST PUSH2 0x4BD PUSH2 0x1058 JUMP JUMPDEST PUSH2 0x4C5 PUSH2 0x10B2 JUMP JUMPDEST PUSH1 0x3 DUP1 SLOAD PUSH1 0x1 PUSH1 0x1 PUSH1 0xA0 SHL SUB NOT AND PUSH1 0x1 PUSH1 0x1 PUSH1 0xA0 SHL SUB DUP4 AND SWAP1 DUP2 OR SWAP1 SWAP2 SSTORE PUSH1 0x40 MLOAD PUSH32 0x6EEE81A43BF9442F55A05941B6E18DF1A7BCF02125D1E7B93BA7342AA72EF20E SWAP1 PUSH1 0x0 SWAP1 LOG2 POP JUMP JUMPDEST PUSH2 0x517 PUSH2 0x10F8 JUMP JUMPDEST PUSH2 0x51F PUSH2 0x10B2 JUMP JUMPDEST PUSH1 0x7 SLOAD DUP2 LT PUSH2 0x568 JUMPI PUSH1 0x40 MLOAD PUSH3 0x461BCD PUSH1 0xE5 SHL DUP2 MSTORE PUSH1 0x20 PUSH1 0x4 DUP3 ADD MSTORE PUSH1 0x10 PUSH1 0x24 DUP3 ADD MSTORE PUSH16 0x125108191BD95CDB89DD08195E1A5CDD PUSH1 0x82 SHL PUSH1 0x44 DUP3 ADD MSTORE PUSH1 0x64 ADD JUMPDEST PUSH1 0x40 MLOAD DUP1 SWAP2 SUB SWAP1 REVERT JUMPDEST PUSH1 0x0 DUP2 DUP2 MSTORE PUSH1 0x6 PUSH1 0x20 MSTORE PUSH1 0x40 SWAP1 KECCAK256 PUSH1 0x4 DUP2 ADD SLOAD PUSH1 0xFF AND PUSH2 0x5C2 JUMPI PUSH1 0x40 MLOAD PUSH3 0x461BCD PUSH1 0xE5 SHL DUP2 MSTORE PUSH1 0x20 PUSH1 0x4 DUP3 ADD MSTORE PUSH1 0x15 PUSH1 0x24 DUP3 ADD MSTORE PUSH21 0x4C697374696E67206973206E6F7420616374697665 PUSH1 0x58 SHL PUSH1 0x44 DUP3 ADD MSTORE PUSH1 0x64 ADD PUSH2 0x55F JUMP JUMPDEST DUP1 PUSH1 0x3 ADD SLOAD CALLVALUE EQ PUSH2 0x607 JUMPI PUSH1 0x40 MLOAD PUSH3 0x461BCD PUSH1 0xE5 SHL DUP2 MSTORE PUSH1 0x20 PUSH1 0x4 DUP3 ADD MSTORE PUSH1 0xF PUSH1 0x24 DUP3 ADD MSTORE PUSH15 0x496E636F7272656374207072696365 PUSH1 0x88 SHL PUSH1 0x44 DUP3 ADD MSTORE PUSH1 0x64 ADD PUSH2 0x55F JUMP JUMPDEST PUSH1 0x0 PUSH1 0x64 PUSH1 0x4 SLOAD DUP4 PUSH1 0x3 ADD SLOAD PUSH2 0x61D SWAP2 SWAP1 PUSH2 0x15F4 JUMP JUMPDEST PUSH2 0x627 SWAP2 SWAP1 PUSH2 0x160B JUMP JUMPDEST SWAP1 POP DUP1 PUSH1 0x5 PUSH1 0x0 DUP3 DUP3 SLOAD PUSH2 0x63B SWAP2 SWAP1 PUSH2 0x162D JUMP JUMPDEST SWAP1 SWAP2 SSTORE POP POP PUSH1 0x0 DUP1 SLOAD PUSH1 0x40 MLOAD PUSH1 0x1 PUSH1 0x1 PUSH1 0xA0 SHL SUB SWAP1 SWAP2 AND SWAP2 DUP4 ISZERO PUSH2 0x8FC MUL SWAP2 DUP5 SWAP2 DUP2 DUP2 DUP2 DUP6 DUP9 DUP9 CALL SWAP4 POP POP POP POP ISZERO DUP1 ISZERO PUSH2 0x679 JUMPI RETURNDATASIZE PUSH1 0x0 DUP1 RETURNDATACOPY RETURNDATASIZE PUSH1 0x0 REVERT JUMPDEST POP PUSH1 0x0 DUP2 DUP4 PUSH1 0x3 ADD SLOAD PUSH2 0x68C SWAP2 SWAP1 PUSH2 0x1640 JUMP JUMPDEST PUSH1 0x1 DUP5 ADD SLOAD PUSH1 0x40 MLOAD SWAP2 SWAP3 POP PUSH1 0x1 PUSH1 0x1 PUSH1 0xA0 SHL SUB AND SWAP1 DUP3 ISZERO PUSH2 0x8FC MUL SWAP1 DUP4 SWAP1 PUSH1 0x0 DUP2 DUP2 DUP2 DUP6 DUP9 DUP9 CALL SWAP4 POP POP POP POP ISZERO DUP1 ISZERO PUSH2 0x6C9 JUMPI RETURNDATASIZE PUSH1 0x0 DUP1 RETURNDATACOPY RETURNDATASIZE PUSH1 0x0 REVERT JUMPDEST POP PUSH1 0x2 DUP1 SLOAD SWAP1 DUP5 ADD SLOAD PUSH1 0x40 MLOAD PUSH4 0x21421707 PUSH1 0xE1 SHL DUP2 MSTORE ADDRESS PUSH1 0x4 DUP3 ADD MSTORE CALLER PUSH1 0x24 DUP3 ADD MSTORE PUSH1 0x44 DUP2 ADD SWAP2 SWAP1 SWAP2 MSTORE PUSH2 0x100 SWAP1 SWAP2 DIV PUSH1 0x1 PUSH1 0x1 PUSH1 0xA0 SHL SUB AND SWAP1 PUSH4 0x42842E0E SWAP1 PUSH1 0x64 ADD PUSH1 0x0 PUSH1 0x40 MLOAD DUP1 DUP4 SUB DUP2 PUSH1 0x0 DUP8 DUP1 EXTCODESIZE ISZERO DUP1 ISZERO PUSH2 0x726 JUMPI PUSH1 0x0 DUP1 REVERT JUMPDEST POP GAS CALL ISZERO DUP1 ISZERO PUSH2 0x73A JUMPI RETURNDATASIZE PUSH1 0x0 DUP1 RETURNDATACOPY RETURNDATASIZE PUSH1 0x0 REVERT JUMPDEST POP POP PUSH1 0x3 SLOAD PUSH1 0x40 MLOAD PUSH4 0x423F6CEF PUSH1 0xE0 SHL DUP2 MSTORE CALLER PUSH1 0x4 DUP3 ADD MSTORE PUSH8 0xDE0B6B3A7640000 PUSH1 0x24 DUP3 ADD MSTORE PUSH1 0x1 PUSH1 0x1 PUSH1 0xA0 SHL SUB SWAP1 SWAP2 AND SWAP3 POP PUSH4 0x423F6CEF SWAP2 POP PUSH1 0x44 ADD PUSH1 0x20 PUSH1 0x40 MLOAD DUP1 DUP4 SUB DUP2 PUSH1 0x0 DUP8 GAS CALL ISZERO DUP1 ISZERO PUSH2 0x796 JUMPI RETURNDATASIZE PUSH1 0x0 DUP1 RETURNDATACOPY RETURNDATASIZE PUSH1 0x0 REVERT JUMPDEST POP POP POP POP PUSH1 0x40 MLOAD RETURNDATASIZE PUSH1 0x1F NOT PUSH1 0x1F DUP3 ADD AND DUP3 ADD DUP1 PUSH1 0x40 MSTORE POP DUP2 ADD SWAP1 PUSH2 0x7BA SWAP2 SWAP1 PUSH2 0x1653 JUMP JUMPDEST POP PUSH1 0x3 SLOAD PUSH1 0x1 DUP5 ADD SLOAD PUSH1 0x40 MLOAD PUSH4 0x423F6CEF PUSH1 0xE0 SHL DUP2 MSTORE PUSH1 0x1 PUSH1 0x1 PUSH1 0xA0 SHL SUB SWAP2 DUP3 AND PUSH1 0x4 DUP3 ADD MSTORE PUSH8 0xDE0B6B3A7640000 PUSH1 0x24 DUP3 ADD MSTORE SWAP2 AND SWAP1 PUSH4 0x423F6CEF SWAP1 PUSH1 0x44 ADD PUSH1 0x20 PUSH1 0x40 MLOAD DUP1 DUP4 SUB DUP2 PUSH1 0x0 DUP8 GAS CALL ISZERO DUP1 ISZERO PUSH2 0x819 JUMPI RETURNDATASIZE PUSH1 0x0 DUP1 RETURNDATACOPY RETURNDATASIZE PUSH1 0x0 REVERT JUMPDEST POP POP POP POP PUSH1 0x40 MLOAD RETURNDATASIZE PUSH1 0x1F NOT PUSH1 0x1F DUP3 ADD AND DUP3 ADD DUP1 PUSH1 0x40 MSTORE POP DUP2 ADD SWAP1 PUSH2 0x83D SWAP2 SWAP1 PUSH2 0x1653 JUMP JUMPDEST POP PUSH1 0x4 DUP4 ADD DUP1 SLOAD PUSH1 0xFF NOT AND SWAP1 SSTORE PUSH1 0x1 DUP4 ADD SLOAD PUSH1 0x2 DUP5 ADD SLOAD PUSH1 0x40 DUP1 MLOAD SWAP2 DUP3 MSTORE CALLVALUE PUSH1 0x20 DUP4 ADD MSTORE PUSH1 0x60 DUP3 DUP3 ADD DUP2 SWAP1 MSTORE PUSH1 0x9 SWAP1 DUP4 ADD MSTORE PUSH9 0x1C1D5C98DA185CD959 PUSH1 0xBA SHL PUSH1 0x80 DUP4 ADD MSTORE MLOAD PUSH1 0x1 PUSH1 0x1 PUSH1 0xA0 SHL SUB SWAP1 SWAP3 AND SWAP2 CALLER SWAP2 DUP8 SWAP2 PUSH32 0x12C5DB205C15A58219D216EEA2F3362EFC64A7E2DB9A9B7237EAE6EA6E6E3004 SWAP2 DUP2 SWAP1 SUB PUSH1 0xA0 ADD SWAP1 LOG4 POP POP POP PUSH2 0x8C8 PUSH1 0x1 DUP1 SSTORE JUMP JUMPDEST POP JUMP JUMPDEST PUSH2 0x8D3 PUSH2 0x10F8 JUMP JUMPDEST PUSH2 0x8DB PUSH2 0x10B2 JUMP JUMPDEST PUSH1 0x7 SLOAD DUP2 LT PUSH2 0x921 JUMPI PUSH1 0x40 MLOAD PUSH3 0x461BCD PUSH1 0xE5 SHL DUP2 MSTORE PUSH1 0x20 PUSH1 0x4 DUP3 ADD MSTORE PUSH1 0x12 PUSH1 0x24 DUP3 ADD MSTORE PUSH18 0x125B9D985B1A59081B1A5CDD1A5B99C81251 PUSH1 0x72 SHL PUSH1 0x44 DUP3 ADD MSTORE PUSH1 0x64 ADD PUSH2 0x55F JUMP JUMPDEST PUSH1 0x0 DUP2 DUP2 MSTORE PUSH1 0x6 PUSH1 0x20 MSTORE PUSH1 0x40 SWAP1 KECCAK256 PUSH1 0x1 DUP2 ADD SLOAD PUSH1 0x1 PUSH1 0x1 PUSH1 0xA0 SHL SUB AND CALLER EQ PUSH2 0x99A JUMPI PUSH1 0x40 MLOAD PUSH3 0x461BCD PUSH1 0xE5 SHL DUP2 MSTORE PUSH1 0x20 PUSH1 0x4 DUP3 ADD MSTORE PUSH1 0x26 PUSH1 0x24 DUP3 ADD MSTORE PUSH32 0x4F6E6C79207468652073656C6C65722063616E2063616E63656C20746865206C PUSH1 0x44 DUP3 ADD MSTORE PUSH6 0x697374696E67 PUSH1 0xD0 SHL PUSH1 0x64 DUP3 ADD MSTORE PUSH1 0x84 ADD PUSH2 0x55F JUMP JUMPDEST PUSH1 0x4 DUP2 ADD SLOAD PUSH1 0xFF AND PUSH2 0x9E6 JUMPI PUSH1 0x40 MLOAD PUSH3 0x461BCD PUSH1 0xE5 SHL DUP2 MSTORE PUSH1 0x20 PUSH1 0x4 DUP3 ADD MSTORE PUSH1 0x15 PUSH1 0x24 DUP3 ADD MSTORE PUSH21 0x4C697374696E67206973206E6F7420616374697665 PUSH1 0x58 SHL PUSH1 0x44 DUP3 ADD MSTORE PUSH1 0x64 ADD PUSH2 0x55F JUMP JUMPDEST PUSH1 0x2 DUP1 SLOAD SWAP1 DUP3 ADD SLOAD PUSH1 0x40 MLOAD PUSH4 0x23B872DD PUSH1 0xE0 SHL DUP2 MSTORE ADDRESS PUSH1 0x4 DUP3 ADD MSTORE CALLER PUSH1 0x24 DUP3 ADD MSTORE PUSH1 0x44 DUP2 ADD SWAP2 SWAP1 SWAP2 MSTORE PUSH2 0x100 SWAP1 SWAP2 DIV PUSH1 0x1 PUSH1 0x1 PUSH1 0xA0 SHL SUB AND SWAP1 PUSH4 0x23B872DD SWAP1 PUSH1 0x64 ADD PUSH1 0x0 PUSH1 0x40 MLOAD DUP1 DUP4 SUB DUP2 PUSH1 0x0 DUP8 DUP1 EXTCODESIZE ISZERO DUP1 ISZERO PUSH2 0xA42 JUMPI PUSH1 0x0 DUP1 REVERT JUMPDEST POP GAS CALL ISZERO DUP1 ISZERO PUSH2 0xA56 JUMPI RETURNDATASIZE PUSH1 0x0 DUP1 RETURNDATACOPY RETURNDATASIZE PUSH1 0x0 REVERT JUMPDEST POP POP POP POP PUSH1 0x4 DUP2 ADD DUP1 SLOAD PUSH1 0xFF NOT AND SWAP1 SSTORE PUSH1 0x2 DUP2 ADD SLOAD PUSH1 0x3 DUP3 ADD SLOAD PUSH1 0x40 DUP1 MLOAD SWAP2 DUP3 MSTORE PUSH1 0x20 DUP3 ADD DUP2 SWAP1 MSTORE PUSH1 0x9 DUP3 DUP3 ADD MSTORE PUSH9 0x18D85B98D95B1B1959 PUSH1 0xBA SHL PUSH1 0x60 DUP4 ADD MSTORE MLOAD CALLER SWAP2 DUP6 SWAP2 PUSH32 0x4365CB53484DEBEF7671E094E8CEAD2A45D4B329D842264EB2C68B1F1F46D3A3 SWAP2 DUP2 SWAP1 SUB PUSH1 0x80 ADD SWAP1 LOG4 POP PUSH2 0x8C8 PUSH1 0x1 DUP1 SSTORE JUMP JUMPDEST PUSH2 0xAD7 PUSH2 0x1058 JUMP JUMPDEST PUSH2 0xADF PUSH2 0x1151 JUMP JUMPDEST JUMP JUMPDEST PUSH2 0xAE9 PUSH2 0x1058 JUMP JUMPDEST PUSH2 0xADF PUSH1 0x0 PUSH2 0x11A3 JUMP JUMPDEST PUSH2 0xAFB PUSH2 0x1058 JUMP JUMPDEST PUSH2 0xADF PUSH2 0x11F3 JUMP JUMPDEST PUSH1 0x60 PUSH2 0xB0D PUSH2 0x10B2 JUMP JUMPDEST PUSH1 0x0 DUP1 JUMPDEST PUSH1 0x7 SLOAD DUP2 LT ISZERO PUSH2 0xB55 JUMPI PUSH1 0x0 DUP2 DUP2 MSTORE PUSH1 0x6 PUSH1 0x20 MSTORE PUSH1 0x40 SWAP1 KECCAK256 PUSH1 0x4 ADD SLOAD PUSH1 0xFF AND ISZERO PUSH2 0xB43 JUMPI DUP2 PUSH2 0xB3F DUP2 PUSH2 0x1675 JUMP JUMPDEST SWAP3 POP POP JUMPDEST DUP1 PUSH2 0xB4D DUP2 PUSH2 0x1675 JUMP JUMPDEST SWAP2 POP POP PUSH2 0xB11 JUMP JUMPDEST POP DUP1 PUSH8 0xFFFFFFFFFFFFFFFF DUP2 GT ISZERO PUSH2 0xB6F JUMPI PUSH2 0xB6F PUSH2 0x1390 JUMP JUMPDEST PUSH1 0x40 MLOAD SWAP1 DUP1 DUP3 MSTORE DUP1 PUSH1 0x20 MUL PUSH1 0x20 ADD DUP3 ADD PUSH1 0x40 MSTORE DUP1 ISZERO PUSH2 0xBDD JUMPI DUP2 PUSH1 0x20 ADD JUMPDEST PUSH2 0xBCA PUSH1 0x40 MLOAD DUP1 PUSH1 0xA0 ADD PUSH1 0x40 MSTORE DUP1 PUSH1 0x0 DUP2 MSTORE PUSH1 0x20 ADD PUSH1 0x0 PUSH1 0x1 PUSH1 0x1 PUSH1 0xA0 SHL SUB AND DUP2 MSTORE PUSH1 0x20 ADD PUSH1 0x0 DUP2 MSTORE PUSH1 0x20 ADD PUSH1 0x0 DUP2 MSTORE PUSH1 0x20 ADD PUSH1 0x0 ISZERO ISZERO DUP2 MSTORE POP SWAP1 JUMP JUMPDEST DUP2 MSTORE PUSH1 0x20 ADD SWAP1 PUSH1 0x1 SWAP1 SUB SWAP1 DUP2 PUSH2 0xB8D JUMPI SWAP1 POP JUMPDEST POP SWAP2 POP PUSH1 0x0 DUP1 JUMPDEST PUSH1 0x7 SLOAD DUP2 LT ISZERO PUSH2 0xCA1 JUMPI PUSH1 0x0 DUP2 DUP2 MSTORE PUSH1 0x6 PUSH1 0x20 MSTORE PUSH1 0x40 SWAP1 KECCAK256 PUSH1 0x4 ADD SLOAD PUSH1 0xFF AND ISZERO PUSH2 0xC8F JUMPI PUSH1 0x0 DUP2 DUP2 MSTORE PUSH1 0x6 PUSH1 0x20 SWAP1 DUP2 MSTORE PUSH1 0x40 SWAP2 DUP3 SWAP1 KECCAK256 DUP3 MLOAD PUSH1 0xA0 DUP2 ADD DUP5 MSTORE DUP2 SLOAD DUP2 MSTORE PUSH1 0x1 DUP3 ADD SLOAD PUSH1 0x1 PUSH1 0x1 PUSH1 0xA0 SHL SUB AND SWAP3 DUP2 ADD SWAP3 SWAP1 SWAP3 MSTORE PUSH1 0x2 DUP2 ADD SLOAD SWAP3 DUP3 ADD SWAP3 SWAP1 SWAP3 MSTORE PUSH1 0x3 DUP3 ADD SLOAD PUSH1 0x60 DUP3 ADD MSTORE PUSH1 0x4 SWAP1 SWAP2 ADD SLOAD PUSH1 0xFF AND ISZERO ISZERO PUSH1 0x80 DUP3 ADD MSTORE DUP5 MLOAD DUP6 SWAP1 DUP5 SWAP1 DUP2 LT PUSH2 0xC75 JUMPI PUSH2 0xC75 PUSH2 0x168E JUMP JUMPDEST PUSH1 0x20 MUL PUSH1 0x20 ADD ADD DUP2 SWAP1 MSTORE POP DUP2 DUP1 PUSH2 0xC8B SWAP1 PUSH2 0x1675 JUMP JUMPDEST SWAP3 POP POP JUMPDEST DUP1 PUSH2 0xC99 DUP2 PUSH2 0x1675 JUMP JUMPDEST SWAP2 POP POP PUSH2 0xBE4 JUMP JUMPDEST POP POP POP SWAP1 JUMP JUMPDEST PUSH2 0xCAF PUSH2 0x1058 JUMP JUMPDEST PUSH2 0xCB7 PUSH2 0x10B2 JUMP JUMPDEST PUSH1 0x64 DUP2 GT ISZERO PUSH2 0xD08 JUMPI PUSH1 0x40 MLOAD PUSH3 0x461BCD PUSH1 0xE5 SHL DUP2 MSTORE PUSH1 0x20 PUSH1 0x4 DUP3 ADD MSTORE PUSH1 0x1D PUSH1 0x24 DUP3 ADD MSTORE PUSH32 0x496E76616C696420636F6D6D697373696F6E2070657263656E74616765000000 PUSH1 0x44 DUP3 ADD MSTORE PUSH1 0x64 ADD PUSH2 0x55F JUMP JUMPDEST PUSH1 0x4 DUP2 SWAP1 SSTORE PUSH1 0x40 MLOAD DUP2 DUP2 MSTORE PUSH32 0x7E3665A83046AC3C4EC146CF309EDAB9D75086C48761909CE868F5C65743F4F1 SWAP1 PUSH1 0x20 ADD PUSH1 0x40 MLOAD DUP1 SWAP2 SUB SWAP1 LOG1 POP JUMP JUMPDEST PUSH2 0xD4B PUSH2 0x10F8 JUMP JUMPDEST PUSH2 0xD53 PUSH2 0x10B2 JUMP JUMPDEST PUSH1 0x2 SLOAD PUSH1 0x40 MLOAD PUSH4 0x31A9108F PUSH1 0xE1 SHL DUP2 MSTORE PUSH1 0x4 DUP2 ADD DUP5 SWAP1 MSTORE CALLER SWAP2 PUSH2 0x100 SWAP1 DIV PUSH1 0x1 PUSH1 0x1 PUSH1 0xA0 SHL SUB AND SWAP1 PUSH4 0x6352211E SWAP1 PUSH1 0x24 ADD PUSH1 0x20 PUSH1 0x40 MLOAD DUP1 DUP4 SUB DUP2 DUP7 GAS STATICCALL ISZERO DUP1 ISZERO PUSH2 0xDA1 JUMPI RETURNDATASIZE PUSH1 0x0 DUP1 RETURNDATACOPY RETURNDATASIZE PUSH1 0x0 REVERT JUMPDEST POP POP POP POP PUSH1 0x40 MLOAD RETURNDATASIZE PUSH1 0x1F NOT PUSH1 0x1F DUP3 ADD AND DUP3 ADD DUP1 PUSH1 0x40 MSTORE POP DUP2 ADD SWAP1 PUSH2 0xDC5 SWAP2 SWAP1 PUSH2 0x16A4 JUMP JUMPDEST PUSH1 0x1 PUSH1 0x1 PUSH1 0xA0 SHL SUB AND EQ PUSH2 0xE11 JUMPI PUSH1 0x40 MLOAD PUSH3 0x461BCD PUSH1 0xE5 SHL DUP2 MSTORE PUSH1 0x20 PUSH1 0x4 DUP3 ADD MSTORE PUSH1 0x13 PUSH1 0x24 DUP3 ADD MSTORE PUSH19 0x13DB9B1E481BDDDB995C8818D85B881CD95B1B PUSH1 0x6A SHL PUSH1 0x44 DUP3 ADD MSTORE PUSH1 0x64 ADD PUSH2 0x55F JUMP JUMPDEST PUSH1 0x2 SLOAD PUSH1 0x40 MLOAD PUSH4 0x23B872DD PUSH1 0xE0 SHL DUP2 MSTORE CALLER PUSH1 0x4 DUP3 ADD MSTORE ADDRESS PUSH1 0x24 DUP3 ADD MSTORE PUSH1 0x44 DUP2 ADD DUP5 SWAP1 MSTORE PUSH2 0x100 SWAP1 SWAP2 DIV PUSH1 0x1 PUSH1 0x1 PUSH1 0xA0 SHL SUB AND SWAP1 PUSH4 0x23B872DD SWAP1 PUSH1 0x64 ADD PUSH1 0x0 PUSH1 0x40 MLOAD DUP1 DUP4 SUB DUP2 PUSH1 0x0 DUP8 DUP1 EXTCODESIZE ISZERO DUP1 ISZERO PUSH2 0xE67 JUMPI PUSH1 0x0 DUP1 REVERT JUMPDEST POP GAS CALL ISZERO DUP1 ISZERO PUSH2 0xE7B JUMPI RETURNDATASIZE PUSH1 0x0 DUP1 RETURNDATACOPY RETURNDATASIZE PUSH1 0x0 REVERT JUMPDEST POP POP PUSH1 0x40 DUP1 MLOAD PUSH1 0xA0 DUP2 ADD DUP3 MSTORE PUSH1 0x7 DUP1 SLOAD DUP1 DUP4 MSTORE CALLER PUSH1 0x20 DUP1 DUP6 ADD DUP3 DUP2 MSTORE DUP6 DUP8 ADD DUP12 DUP2 MSTORE PUSH1 0x60 DUP1 DUP9 ADD DUP13 DUP2 MSTORE PUSH1 0x1 PUSH1 0x80 DUP1 DUP12 ADD DUP3 DUP2 MSTORE PUSH1 0x0 SWAP10 DUP11 MSTORE PUSH1 0x6 DUP1 DUP10 MSTORE SWAP10 DUP14 SWAP1 KECCAK256 SWAP12 MLOAD DUP13 SSTORE SWAP6 MLOAD SWAP2 DUP12 ADD DUP1 SLOAD PUSH1 0x1 PUSH1 0x1 PUSH1 0xA0 SHL SUB NOT AND PUSH1 0x1 PUSH1 0x1 PUSH1 0xA0 SHL SUB SWAP1 SWAP4 AND SWAP3 SWAP1 SWAP3 OR SWAP1 SWAP2 SSTORE SWAP3 MLOAD PUSH1 0x2 DUP11 ADD SSTORE MLOAD PUSH1 0x3 DUP10 ADD SSTORE SWAP2 MLOAD PUSH1 0x4 SWAP1 SWAP8 ADD DUP1 SLOAD PUSH1 0xFF NOT AND SWAP8 ISZERO ISZERO SWAP8 SWAP1 SWAP8 OR SWAP1 SWAP7 SSTORE SWAP4 SLOAD DUP7 MLOAD DUP11 DUP2 MSTORE SWAP2 DUP3 ADD DUP8 SWAP1 MSTORE SWAP6 DUP2 ADD SWAP3 SWAP1 SWAP3 MSTORE PUSH6 0x1B1A5CDD1959 PUSH1 0xD2 SHL SWAP3 DUP3 ADD SWAP3 SWAP1 SWAP3 MSTORE DUP8 SWAP6 POP SWAP1 SWAP4 POP PUSH32 0x1874EDC4DD8EF51672D2C7645E73E04998F9BED81A6DBC28EB3DC65A06D725BF SWAP2 ADD PUSH1 0x40 MLOAD DUP1 SWAP2 SUB SWAP1 LOG4 PUSH1 0x7 DUP1 SLOAD SWAP1 PUSH1 0x0 PUSH2 0xF6E DUP4 PUSH2 0x1675 JUMP JUMPDEST SWAP2 SWAP1 POP SSTORE POP PUSH2 0xF7C PUSH1 0x1 DUP1 SSTORE JUMP JUMPDEST POP POP JUMP JUMPDEST PUSH2 0xF88 PUSH2 0x1058 JUMP JUMPDEST PUSH2 0xF90 PUSH2 0x10B2 JUMP JUMPDEST PUSH1 0x2 DUP1 SLOAD PUSH2 0x100 PUSH1 0x1 PUSH1 0xA8 SHL SUB NOT AND PUSH2 0x100 PUSH1 0x1 PUSH1 0x1 PUSH1 0xA0 SHL SUB DUP5 AND SWAP1 DUP2 MUL SWAP2 SWAP1 SWAP2 OR SWAP1 SWAP2 SSTORE PUSH1 0x40 MLOAD PUSH32 0xF2610996D245D9B77E4FF84C2174EEA0B76FB44C422218404F66E28816D78FB9 SWAP1 PUSH1 0x0 SWAP1 LOG2 POP JUMP JUMPDEST PUSH2 0xFEA PUSH2 0x1058 JUMP JUMPDEST PUSH1 0x1 PUSH1 0x1 PUSH1 0xA0 SHL SUB DUP2 AND PUSH2 0x104F JUMPI PUSH1 0x40 MLOAD PUSH3 0x461BCD PUSH1 0xE5 SHL DUP2 MSTORE PUSH1 0x20 PUSH1 0x4 DUP3 ADD MSTORE PUSH1 0x26 PUSH1 0x24 DUP3 ADD MSTORE PUSH32 0x4F776E61626C653A206E6577206F776E657220697320746865207A65726F2061 PUSH1 0x44 DUP3 ADD MSTORE PUSH6 0x646472657373 PUSH1 0xD0 SHL PUSH1 0x64 DUP3 ADD MSTORE PUSH1 0x84 ADD PUSH2 0x55F JUMP JUMPDEST PUSH2 0x8C8 DUP2 PUSH2 0x11A3 JUMP JUMPDEST PUSH1 0x0 SLOAD PUSH1 0x1 PUSH1 0x1 PUSH1 0xA0 SHL SUB AND CALLER EQ PUSH2 0xADF JUMPI PUSH1 0x40 MLOAD PUSH3 0x461BCD PUSH1 0xE5 SHL DUP2 MSTORE PUSH1 0x20 PUSH1 0x4 DUP3 ADD DUP2 SWAP1 MSTORE PUSH1 0x24 DUP3 ADD MSTORE PUSH32 0x4F776E61626C653A2063616C6C6572206973206E6F7420746865206F776E6572 PUSH1 0x44 DUP3 ADD MSTORE PUSH1 0x64 ADD PUSH2 0x55F JUMP JUMPDEST PUSH1 0x2 SLOAD PUSH1 0xFF AND ISZERO PUSH2 0xADF JUMPI PUSH1 0x40 MLOAD PUSH3 0x461BCD PUSH1 0xE5 SHL DUP2 MSTORE PUSH1 0x20 PUSH1 0x4 DUP3 ADD MSTORE PUSH1 0x10 PUSH1 0x24 DUP3 ADD MSTORE PUSH16 0x14185D5CD8589B194E881C185D5CD959 PUSH1 0x82 SHL PUSH1 0x44 DUP3 ADD MSTORE PUSH1 0x64 ADD PUSH2 0x55F JUMP JUMPDEST PUSH1 0x2 PUSH1 0x1 SLOAD SUB PUSH2 0x114A JUMPI PUSH1 0x40 MLOAD PUSH3 0x461BCD PUSH1 0xE5 SHL DUP2 MSTORE PUSH1 0x20 PUSH1 0x4 DUP3 ADD MSTORE PUSH1 0x1F PUSH1 0x24 DUP3 ADD MSTORE PUSH32 0x5265656E7472616E637947756172643A207265656E7472616E742063616C6C00 PUSH1 0x44 DUP3 ADD MSTORE PUSH1 0x64 ADD PUSH2 0x55F JUMP JUMPDEST PUSH1 0x2 PUSH1 0x1 SSTORE JUMP JUMPDEST PUSH2 0x1159 PUSH2 0x1230 JUMP JUMPDEST PUSH1 0x2 DUP1 SLOAD PUSH1 0xFF NOT AND SWAP1 SSTORE PUSH32 0x5DB9EE0A495BF2E6FF9C91A7834C1BA4FDD244A5E8AA4E537BD38AEAE4B073AA CALLER JUMPDEST PUSH1 0x40 MLOAD PUSH1 0x1 PUSH1 0x1 PUSH1 0xA0 SHL SUB SWAP1 SWAP2 AND DUP2 MSTORE PUSH1 0x20 ADD PUSH1 0x40 MLOAD DUP1 SWAP2 SUB SWAP1 LOG1 JUMP JUMPDEST PUSH1 0x0 DUP1 SLOAD PUSH1 0x1 PUSH1 0x1 PUSH1 0xA0 SHL SUB DUP4 DUP2 AND PUSH1 0x1 PUSH1 0x1 PUSH1 0xA0 SHL SUB NOT DUP4 AND DUP2 OR DUP5 SSTORE PUSH1 0x40 MLOAD SWAP2 SWAP1 SWAP3 AND SWAP3 DUP4 SWAP2 PUSH32 0x8BE0079C531659141344CD1FD0A4F28419497F9722A3DAAFE3B4186F6B6457E0 SWAP2 SWAP1 LOG3 POP POP JUMP JUMPDEST PUSH2 0x11FB PUSH2 0x10B2 JUMP JUMPDEST PUSH1 0x2 DUP1 SLOAD PUSH1 0xFF NOT AND PUSH1 0x1 OR SWAP1 SSTORE PUSH32 0x62E78CEA01BEE320CD4E420270B5EA74000D11B0C9F74754EBDBFC544B05A258 PUSH2 0x1186 CALLER SWAP1 JUMP JUMPDEST PUSH1 0x2 SLOAD PUSH1 0xFF AND PUSH2 0xADF JUMPI PUSH1 0x40 MLOAD PUSH3 0x461BCD PUSH1 0xE5 SHL DUP2 MSTORE PUSH1 0x20 PUSH1 0x4 DUP3 ADD MSTORE PUSH1 0x14 PUSH1 0x24 DUP3 ADD MSTORE PUSH20 0x14185D5CD8589B194E881B9BDD081C185D5CD959 PUSH1 0x62 SHL PUSH1 0x44 DUP3 ADD MSTORE PUSH1 0x64 ADD PUSH2 0x55F JUMP JUMPDEST PUSH1 0x0 PUSH1 0x20 DUP3 DUP5 SUB SLT ISZERO PUSH2 0x128B JUMPI PUSH1 0x0 DUP1 REVERT JUMPDEST DUP2 CALLDATALOAD PUSH1 0x1 PUSH1 0x1 PUSH1 0xE0 SHL SUB NOT DUP2 AND DUP2 EQ PUSH2 0x12A3 JUMPI PUSH1 0x0 DUP1 REVERT JUMPDEST SWAP4 SWAP3 POP POP POP JUMP JUMPDEST PUSH1 0x1 PUSH1 0x1 PUSH1 0xA0 SHL SUB DUP2 AND DUP2 EQ PUSH2 0x8C8 JUMPI PUSH1 0x0 DUP1 REVERT JUMPDEST PUSH1 0x0 PUSH1 0x20 DUP3 DUP5 SUB SLT ISZERO PUSH2 0x12D1 JUMPI PUSH1 0x0 DUP1 REVERT JUMPDEST DUP2 CALLDATALOAD PUSH2 0x12A3 DUP2 PUSH2 0x12AA JUMP JUMPDEST PUSH1 0x0 PUSH1 0x20 DUP3 DUP5 SUB SLT ISZERO PUSH2 0x12EE JUMPI PUSH1 0x0 DUP1 REVERT JUMPDEST POP CALLDATALOAD SWAP2 SWAP1 POP JUMP JUMPDEST PUSH1 0x20 DUP1 DUP3 MSTORE DUP3 MLOAD DUP3 DUP3 ADD DUP2 SWAP1 MSTORE PUSH1 0x0 SWAP2 SWAP1 PUSH1 0x40 SWAP1 DUP2 DUP6 ADD SWAP1 DUP7 DUP5 ADD DUP6 JUMPDEST DUP3 DUP2 LT ISZERO PUSH2 0x1361 JUMPI DUP2 MLOAD DUP1 MLOAD DUP6 MSTORE DUP7 DUP2 ADD MLOAD PUSH1 0x1 PUSH1 0x1 PUSH1 0xA0 SHL SUB AND DUP8 DUP7 ADD MSTORE DUP6 DUP2 ADD MLOAD DUP7 DUP7 ADD MSTORE PUSH1 0x60 DUP1 DUP3 ADD MLOAD SWAP1 DUP7 ADD MSTORE PUSH1 0x80 SWAP1 DUP2 ADD MLOAD ISZERO ISZERO SWAP1 DUP6 ADD MSTORE PUSH1 0xA0 SWAP1 SWAP4 ADD SWAP3 SWAP1 DUP6 ADD SWAP1 PUSH1 0x1 ADD PUSH2 0x1312 JUMP JUMPDEST POP SWAP2 SWAP8 SWAP7 POP POP POP POP POP POP POP JUMP JUMPDEST PUSH1 0x0 DUP1 PUSH1 0x40 DUP4 DUP6 SUB SLT ISZERO PUSH2 0x1381 JUMPI PUSH1 0x0 DUP1 REVERT JUMPDEST POP POP DUP1 CALLDATALOAD SWAP3 PUSH1 0x20 SWAP1 SWAP2 ADD CALLDATALOAD SWAP2 POP JUMP JUMPDEST PUSH4 0x4E487B71 PUSH1 0xE0 SHL PUSH1 0x0 MSTORE PUSH1 0x41 PUSH1 0x4 MSTORE PUSH1 0x24 PUSH1 0x0 REVERT JUMPDEST PUSH1 0x40 MLOAD PUSH1 0x1F DUP3 ADD PUSH1 0x1F NOT AND DUP2 ADD PUSH8 0xFFFFFFFFFFFFFFFF DUP2 GT DUP3 DUP3 LT OR ISZERO PUSH2 0x13CF JUMPI PUSH2 0x13CF PUSH2 0x1390 JUMP JUMPDEST PUSH1 0x40 MSTORE SWAP2 SWAP1 POP JUMP JUMPDEST PUSH1 0x0 DUP3 PUSH1 0x1F DUP4 ADD SLT PUSH2 0x13E8 JUMPI PUSH1 0x0 DUP1 REVERT JUMPDEST DUP2 CALLDATALOAD PUSH1 0x20 PUSH8 0xFFFFFFFFFFFFFFFF DUP3 GT ISZERO PUSH2 0x1404 JUMPI PUSH2 0x1404 PUSH2 0x1390 JUMP JUMPDEST DUP2 PUSH1 0x5 SHL PUSH2 0x1413 DUP3 DUP3 ADD PUSH2 0x13A6 JUMP JUMPDEST SWAP3 DUP4 MSTORE DUP5 DUP2 ADD DUP3 ADD SWAP3 DUP3 DUP2 ADD SWAP1 DUP8 DUP6 GT ISZERO PUSH2 0x142D JUMPI PUSH1 0x0 DUP1 REVERT JUMPDEST DUP4 DUP8 ADD SWAP3 POP JUMPDEST DUP5 DUP4 LT ISZERO PUSH2 0x144C JUMPI DUP3 CALLDATALOAD DUP3 MSTORE SWAP2 DUP4 ADD SWAP2 SWAP1 DUP4 ADD SWAP1 PUSH2 0x1433 JUMP JUMPDEST SWAP8 SWAP7 POP POP POP POP POP POP POP JUMP JUMPDEST PUSH1 0x0 DUP3 PUSH1 0x1F DUP4 ADD SLT PUSH2 0x1468 JUMPI PUSH1 0x0 DUP1 REVERT JUMPDEST DUP2 CALLDATALOAD PUSH8 0xFFFFFFFFFFFFFFFF DUP2 GT ISZERO PUSH2 0x1482 JUMPI PUSH2 0x1482 PUSH2 0x1390 JUMP JUMPDEST PUSH2 0x1495 PUSH1 0x1F DUP3 ADD PUSH1 0x1F NOT AND PUSH1 0x20 ADD PUSH2 0x13A6 JUMP JUMPDEST DUP2 DUP2 MSTORE DUP5 PUSH1 0x20 DUP4 DUP7 ADD ADD GT ISZERO PUSH2 0x14AA JUMPI PUSH1 0x0 DUP1 REVERT JUMPDEST DUP2 PUSH1 0x20 DUP6 ADD PUSH1 0x20 DUP4 ADD CALLDATACOPY PUSH1 0x0 SWAP2 DUP2 ADD PUSH1 0x20 ADD SWAP2 SWAP1 SWAP2 MSTORE SWAP4 SWAP3 POP POP POP JUMP JUMPDEST PUSH1 0x0 DUP1 PUSH1 0x0 DUP1 PUSH1 0x0 PUSH1 0xA0 DUP7 DUP9 SUB SLT ISZERO PUSH2 0x14DF JUMPI PUSH1 0x0 DUP1 REVERT JUMPDEST DUP6 CALLDATALOAD PUSH2 0x14EA DUP2 PUSH2 0x12AA JUMP JUMPDEST SWAP5 POP PUSH1 0x20 DUP7 ADD CALLDATALOAD PUSH2 0x14FA DUP2 PUSH2 0x12AA JUMP JUMPDEST SWAP4 POP PUSH1 0x40 DUP7 ADD CALLDATALOAD PUSH8 0xFFFFFFFFFFFFFFFF DUP1 DUP3 GT ISZERO PUSH2 0x1517 JUMPI PUSH1 0x0 DUP1 REVERT JUMPDEST PUSH2 0x1523 DUP10 DUP4 DUP11 ADD PUSH2 0x13D7 JUMP JUMPDEST SWAP5 POP PUSH1 0x60 DUP9 ADD CALLDATALOAD SWAP2 POP DUP1 DUP3 GT ISZERO PUSH2 0x1539 JUMPI PUSH1 0x0 DUP1 REVERT JUMPDEST PUSH2 0x1545 DUP10 DUP4 DUP11 ADD PUSH2 0x13D7 JUMP JUMPDEST SWAP4 POP PUSH1 0x80 DUP9 ADD CALLDATALOAD SWAP2 POP DUP1 DUP3 GT ISZERO PUSH2 0x155B JUMPI PUSH1 0x0 DUP1 REVERT JUMPDEST POP PUSH2 0x1568 DUP9 DUP3 DUP10 ADD PUSH2 0x1457 JUMP JUMPDEST SWAP2 POP POP SWAP3 SWAP6 POP SWAP3 SWAP6 SWAP1 SWAP4 POP JUMP JUMPDEST PUSH1 0x0 DUP1 PUSH1 0x0 DUP1 PUSH1 0x0 PUSH1 0xA0 DUP7 DUP9 SUB SLT ISZERO PUSH2 0x158D JUMPI PUSH1 0x0 DUP1 REVERT JUMPDEST DUP6 CALLDATALOAD PUSH2 0x1598 DUP2 PUSH2 0x12AA JUMP JUMPDEST SWAP5 POP PUSH1 0x20 DUP7 ADD CALLDATALOAD PUSH2 0x15A8 DUP2 PUSH2 0x12AA JUMP JUMPDEST SWAP4 POP PUSH1 0x40 DUP7 ADD CALLDATALOAD SWAP3 POP PUSH1 0x60 DUP7 ADD CALLDATALOAD SWAP2 POP PUSH1 0x80 DUP7 ADD CALLDATALOAD PUSH8 0xFFFFFFFFFFFFFFFF DUP2 GT ISZERO PUSH2 0x15D2 JUMPI PUSH1 0x0 DUP1 REVERT JUMPDEST PUSH2 0x1568 DUP9 DUP3 DUP10 ADD PUSH2 0x1457 JUMP JUMPDEST PUSH4 0x4E487B71 PUSH1 0xE0 SHL PUSH1 0x0 MSTORE PUSH1 0x11 PUSH1 0x4 MSTORE PUSH1 0x24 PUSH1 0x0 REVERT JUMPDEST DUP1 DUP3 MUL DUP2 ISZERO DUP3 DUP3 DIV DUP5 EQ OR PUSH2 0x4AF JUMPI PUSH2 0x4AF PUSH2 0x15DE JUMP JUMPDEST PUSH1 0x0 DUP3 PUSH2 0x1628 JUMPI PUSH4 0x4E487B71 PUSH1 0xE0 SHL PUSH1 0x0 MSTORE PUSH1 0x12 PUSH1 0x4 MSTORE PUSH1 0x24 PUSH1 0x0 REVERT JUMPDEST POP DIV SWAP1 JUMP JUMPDEST DUP1 DUP3 ADD DUP1 DUP3 GT ISZERO PUSH2 0x4AF JUMPI PUSH2 0x4AF PUSH2 0x15DE JUMP JUMPDEST DUP2 DUP2 SUB DUP2 DUP2 GT ISZERO PUSH2 0x4AF JUMPI PUSH2 0x4AF PUSH2 0x15DE JUMP JUMPDEST PUSH1 0x0 PUSH1 0x20 DUP3 DUP5 SUB SLT ISZERO PUSH2 0x1665 JUMPI PUSH1 0x0 DUP1 REVERT JUMPDEST DUP2 MLOAD DUP1 ISZERO ISZERO DUP2 EQ PUSH2 0x12A3 JUMPI PUSH1 0x0 DUP1 REVERT JUMPDEST PUSH1 0x0 PUSH1 0x1 DUP3 ADD PUSH2 0x1687 JUMPI PUSH2 0x1687 PUSH2 0x15DE JUMP JUMPDEST POP PUSH1 0x1 ADD SWAP1 JUMP JUMPDEST PUSH4 0x4E487B71 PUSH1 0xE0 SHL PUSH1 0x0 MSTORE PUSH1 0x32 PUSH1 0x4 MSTORE PUSH1 0x24 PUSH1 0x0 REVERT JUMPDEST PUSH1 0x0 PUSH1 0x20 DUP3 DUP5 SUB SLT ISZERO PUSH2 0x16B6 JUMPI PUSH1 0x0 DUP1 REVERT JUMPDEST DUP2 MLOAD PUSH2 0x12A3 DUP2 PUSH2 0x12AA JUMP INVALID LOG2 PUSH5 0x6970667358 0x22 SLT KECCAK256 0xF9 0xB8 CODESIZE PUSH32 0xA8CA514C61D8EA92B9A3C1B6459C5B127FEB604C5FDF06E9FF9C5D6164736F6C PUSH4 0x43000815 STOP CALLER "},"methodIdentifiers":{"cancelListing(uint256)":"305a67a8","commissionPercentage()":"d575fe64","getActiveListings()":"87c35bc0","listNFT(uint256,uint256)":"94383f14","listingId()":"9405dfdd","listings(uint256)":"de74e57b","nftToken()":"d06fcba8","onERC1155BatchReceived(address,address,uint256[],uint256[],bytes)":"bc197c81","onERC1155Received(address,address,uint256,uint256,bytes)":"f23a6e61","owner()":"8da5cb5b","pause()":"8456cb59","paused()":"5c975abb","purchaseNFT(uint256)":"150bde03","renounceOwnership()":"715018a6","setNFTContract(address)":"a7ccabdf","setSiliquaCoin(address)":"13bc2b49","supportsInterface(bytes4)":"01ffc9a7","token()":"fc0c546a","totalCommissionEarned()":"c73cdd23","transferOwnership(address)":"f2fde38b","unpause()":"3f4ba83a","updateCommissionPercentage(uint256)":"8ce2199e"}}}}}