{"contracts/racing/DerbyBettingHub.sol":{"DerbyBettingHub":{"abi":[{"inputs":[{"internalType":"address","name":"_racingEventAddress","type":"address"}],"stateMutability":"nonpayable","type":"constructor"},{"anonymous":false,"inputs":[{"indexed":true,"internalType":"uint256","name":"raceId","type":"uint256"},{"indexed":false,"internalType":"uint256","name":"betId","type":"uint256"},{"indexed":true,"internalType":"address","name":"bettor","type":"address"},{"indexed":false,"internalType":"uint256","name":"winnings","type":"uint256"}],"name":"BetClaimed","type":"event"},{"anonymous":false,"inputs":[{"indexed":true,"internalType":"uint256","name":"raceId","type":"uint256"},{"indexed":false,"internalType":"uint256","name":"betId","type":"uint256"},{"indexed":true,"internalType":"address","name":"bettor","type":"address"},{"indexed":false,"internalType":"uint256","name":"betAmount","type":"uint256"}],"name":"BetPlaced","type":"event"},{"anonymous":false,"inputs":[{"indexed":true,"internalType":"address","name":"previousOwner","type":"address"},{"indexed":true,"internalType":"address","name":"newOwner","type":"address"}],"name":"OwnershipTransferred","type":"event"},{"inputs":[{"internalType":"uint256","name":"","type":"uint256"},{"internalType":"uint256","name":"","type":"uint256"}],"name":"betsByRace","outputs":[{"internalType":"uint256","name":"betId","type":"uint256"},{"internalType":"uint256","name":"raceId","type":"uint256"},{"internalType":"uint256","name":"betAmount","type":"uint256"},{"internalType":"address","name":"bettor","type":"address"},{"internalType":"bool","name":"isClaimed","type":"bool"}],"stateMutability":"view","type":"function"},{"inputs":[{"internalType":"uint256","name":"raceId","type":"uint256"},{"internalType":"uint256","name":"betId","type":"uint256"}],"name":"claimWinnings","outputs":[],"stateMutability":"nonpayable","type":"function"},{"inputs":[],"name":"owner","outputs":[{"internalType":"address","name":"","type":"address"}],"stateMutability":"view","type":"function"},{"inputs":[{"internalType":"uint256","name":"raceId","type":"uint256"},{"internalType":"uint256[]","name":"horseIds","type":"uint256[]"}],"name":"placeBet","outputs":[],"stateMutability":"payable","type":"function"},{"inputs":[],"name":"racingEvent","outputs":[{"internalType":"contract HorseRacingEvent","name":"","type":"address"}],"stateMutability":"view","type":"function"},{"inputs":[],"name":"renounceOwnership","outputs":[],"stateMutability":"nonpayable","type":"function"},{"inputs":[{"internalType":"address","name":"newOwner","type":"address"}],"name":"transferOwnership","outputs":[],"stateMutability":"nonpayable","type":"function"}],"evm":{"bytecode":{"linkReferences":{},"object":"608060405234801561001057600080fd5b5060405161102a38038061102a83398101604081905261002f916100ad565b6100383361005d565b600180546001600160a01b0319166001600160a01b03929092169190911790556100dd565b600080546001600160a01b038381166001600160a01b0319831681178455604051919092169283917f8be0079c531659141344cd1fd0a4f28419497f9722a3daafe3b4186f6b6457e09190a35050565b6000602082840312156100bf57600080fd5b81516001600160a01b03811681146100d657600080fd5b9392505050565b610f3e806100ec6000396000f3fe6080604052600436106100705760003560e01c8063715018a61161004e578063715018a6146101435780638da5cb5b146101585780639d6d10da1461018a578063f2fde38b146101aa57600080fd5b8063286db5c21461007557806330d14655146100975780634f36ed09146100aa575b600080fd5b34801561008157600080fd5b50610095610090366004610c65565b6101ca565b005b6100956100a5366004610cf2565b61068a565b3480156100b657600080fd5b5061010b6100c5366004610c65565b600360208181526000938452604080852090915291835291208054600182015492820154600490920154909291906001600160a01b03811690600160a01b900460ff1685565b604080519586526020860194909452928401919091526001600160a01b031660608301521515608082015260a0015b60405180910390f35b34801561014f57600080fd5b50610095610855565b34801561016457600080fd5b506000546001600160a01b03165b6040516001600160a01b03909116815260200161013a565b34801561019657600080fd5b50600154610172906001600160a01b031681565b3480156101b657600080fd5b506100956101c5366004610d94565b610869565b6000828152600360209081526040808320848452909152902060048101546001600160a01b03166102375760405162461bcd60e51b815260206004820152601260248201527110995d08191bd95cc81b9bdd08195e1a5cdd60721b60448201526064015b60405180910390fd5b60015460405163287b12f160e01b8152600481018590526001600160a01b039091169063287b12f190602401602060405180830381865afa158015610280573d6000803e3d6000fd5b505050506040513d601f19601f820116820180604052508101906102a49190610dc4565b6102e45760405162461bcd60e51b8152602060048201526011602482015270149858d9481a5cc81b9bdd08195b991959607a1b604482015260640161022e565b60048101546001600160a01b031633146103315760405162461bcd60e51b815260206004820152600e60248201526d2737ba103a3432903132ba3a37b960911b604482015260640161022e565b6004810154600160a01b900460ff161561038d5760405162461bcd60e51b815260206004820152601860248201527f57696e6e696e677320616c726561647920636c61696d65640000000000000000604482015260640161022e565b600154604051637bb5ed8d60e11b8152600481018590526000916001600160a01b03169063f76bdb1a90602401600060405180830381865afa1580156103d7573d6000803e3d6000fd5b505050506040513d6000823e601f3d908101601f191682016040526103ff9190810190610de6565b90506104b2826040518060c001604052908160008201548152602001600182015481526020016002820180548060200260200160405190810160405280929190818152602001828054801561047357602002820191906000526020600020905b81548152602001906001019080831161045f575b5050509183525050600382015460208201526004909101546001600160a01b0381166040830152600160a01b900460ff161515606090910152826108e2565b6104f05760405162461bcd60e51b815260206004820152600f60248201526e2132ba103234b2103737ba103bb4b760891b604482015260640161022e565b60006105a3836040518060c001604052908160008201548152602001600182015481526020016002820180548060200260200160405190810160405280929190818152602001828054801561056457602002820191906000526020600020905b815481526020019060010190808311610550575b5050509183525050600382015460208201526004909101546001600160a01b0381166040830152600160a01b900460ff1615156060909101528661096e565b905047808211156106025760405162461bcd60e51b815260206004820152602360248201527f436f6e747261637420646f6573206e6f74206861766520656e6f7567682066756044820152626e647360e81b606482015260840161022e565b60048401805460ff60a01b1916600160a01b179055604051339083156108fc029084906000818181858888f19350505050158015610644573d6000803e3d6000fd5b506040805186815260208101849052339188917ff251247842e91ddcbb8408e9b83e4f8cba5b0d669ff7a5e1ae6dad372c368109910160405180910390a3505050505050565b600154604051630116538f60e01b8152600481018490526001600160a01b0390911690630116538f90602401602060405180830381865afa1580156106d3573d6000803e3d6000fd5b505050506040513d601f19601f820116820180604052508101906106f79190610dc4565b61074e5760405162461bcd60e51b815260206004820152602260248201527f52616365206e6f7420616374697665206f7220616c7265616479207374617274604482015261195960f21b606482015260840161022e565b600061075960025490565b6040805160c0810182528281526020808201878152828401878152346060850152336080850152600060a085018190528981526003845285812087825284529490942083518155905160018201559251805194955091936107c09260028501920190610c05565b506060820151600382015560808201516004909101805460a0909301511515600160a01b026001600160a81b03199093166001600160a01b0390921691909117919091179055610814600280546001019055565b60408051828152346020820152339185917ffdd8ed02332acacb3420e7345a9adadb30877075eade2bcde9fe778e8bb71e42910160405180910390a3505050565b61085d61099e565b61086760006109f8565b565b61087161099e565b6001600160a01b0381166108d65760405162461bcd60e51b815260206004820152602660248201527f4f776e61626c653a206e6577206f776e657220697320746865207a65726f206160448201526564647265737360d01b606482015260840161022e565b6108df816109f8565b50565b60008151836040015151146108f957506000610968565b60005b8360400151518110156109625782818151811061091b5761091b610e77565b60200260200101518460400151828151811061093957610939610e77565b602002602001015114610950576000915050610968565b8061095a81610ea3565b9150506108fc565b50600190505b92915050565b600080600090506000610985856040015185610a48565b9050610995856060015182610b60565b95945050505050565b6000546001600160a01b031633146108675760405162461bcd60e51b815260206004820181905260248201527f4f776e61626c653a2063616c6c6572206973206e6f7420746865206f776e6572604482015260640161022e565b600080546001600160a01b038381166001600160a01b0319831681178455604051919092169283917f8be0079c531659141344cd1fd0a4f28419497f9722a3daafe3b4186f6b6457e09190a35050565b60008080610a5560025490565b905060005b81811015610b565760008581526003602090815260408083208484528252808320815160c08101835281548152600182015481850152600282018054845181870281018701865281815292959394860193830182828015610ada57602002820191906000526020600020905b815481526020019060010190808311610ac6575b5050509183525050600382015460208201526004909101546001600160a01b038116604080840191909152600160a01b90910460ff161515606090920191909152810151909150610b2c908890610b91565b15610b43576060810151610b409085610ebc565b93505b5080610b4e81610ea3565b915050610a5a565b5090949350505050565b600082821115610b8657610b75600284610ecf565b610b7f9084610ebc565b9050610968565b610b7f836002610ef1565b60008151835114610ba457506000610968565b60005b835181101561096257828181518110610bc257610bc2610e77565b6020026020010151848281518110610bdc57610bdc610e77565b602002602001015114610bf3576000915050610968565b80610bfd81610ea3565b915050610ba7565b828054828255906000526020600020908101928215610c40579160200282015b82811115610c40578251825591602001919060010190610c25565b50610c4c929150610c50565b5090565b5b80821115610c4c5760008155600101610c51565b60008060408385031215610c7857600080fd5b50508035926020909101359150565b634e487b7160e01b600052604160045260246000fd5b604051601f8201601f1916810167ffffffffffffffff81118282101715610cc657610cc6610c87565b604052919050565b600067ffffffffffffffff821115610ce857610ce8610c87565b5060051b60200190565b60008060408385031215610d0557600080fd5b8235915060208084013567ffffffffffffffff811115610d2457600080fd5b8401601f81018613610d3557600080fd5b8035610d48610d4382610cce565b610c9d565b81815260059190911b82018301908381019088831115610d6757600080fd5b928401925b82841015610d8557833582529284019290840190610d6c565b80955050505050509250929050565b600060208284031215610da657600080fd5b81356001600160a01b0381168114610dbd57600080fd5b9392505050565b600060208284031215610dd657600080fd5b81518015158114610dbd57600080fd5b60006020808385031215610df957600080fd5b825167ffffffffffffffff811115610e1057600080fd5b8301601f81018513610e2157600080fd5b8051610e2f610d4382610cce565b81815260059190911b82018301908381019087831115610e4e57600080fd5b928401925b82841015610e6c57835182529284019290840190610e53565b979650505050505050565b634e487b7160e01b600052603260045260246000fd5b634e487b7160e01b600052601160045260246000fd5b600060018201610eb557610eb5610e8d565b5060010190565b8082018082111561096857610968610e8d565b600082610eec57634e487b7160e01b600052601260045260246000fd5b500490565b808202811582820484141761096857610968610e8d56fea2646970667358221220cce0e7bde9aafa7275f943e14584fc1590ad59e4eac74e5ad97826b3d66d900e64736f6c63430008150033","opcodes":"PUSH1 0x80 PUSH1 0x40 MSTORE CALLVALUE DUP1 ISZERO PUSH2 0x10 JUMPI PUSH1 0x0 DUP1 REVERT JUMPDEST POP PUSH1 0x40 MLOAD PUSH2 0x102A CODESIZE SUB DUP1 PUSH2 0x102A DUP4 CODECOPY DUP2 ADD PUSH1 0x40 DUP2 SWAP1 MSTORE PUSH2 0x2F SWAP2 PUSH2 0xAD JUMP JUMPDEST PUSH2 0x38 CALLER PUSH2 0x5D JUMP JUMPDEST PUSH1 0x1 DUP1 SLOAD PUSH1 0x1 PUSH1 0x1 PUSH1 0xA0 SHL SUB NOT AND PUSH1 0x1 PUSH1 0x1 PUSH1 0xA0 SHL SUB SWAP3 SWAP1 SWAP3 AND SWAP2 SWAP1 SWAP2 OR SWAP1 SSTORE PUSH2 0xDD JUMP JUMPDEST PUSH1 0x0 DUP1 SLOAD PUSH1 0x1 PUSH1 0x1 PUSH1 0xA0 SHL SUB DUP4 DUP2 AND PUSH1 0x1 PUSH1 0x1 PUSH1 0xA0 SHL SUB NOT DUP4 AND DUP2 OR DUP5 SSTORE PUSH1 0x40 MLOAD SWAP2 SWAP1 SWAP3 AND SWAP3 DUP4 SWAP2 PUSH32 0x8BE0079C531659141344CD1FD0A4F28419497F9722A3DAAFE3B4186F6B6457E0 SWAP2 SWAP1 LOG3 POP POP JUMP JUMPDEST PUSH1 0x0 PUSH1 0x20 DUP3 DUP5 SUB SLT ISZERO PUSH2 0xBF JUMPI PUSH1 0x0 DUP1 REVERT JUMPDEST DUP2 MLOAD PUSH1 0x1 PUSH1 0x1 PUSH1 0xA0 SHL SUB DUP2 AND DUP2 EQ PUSH2 0xD6 JUMPI PUSH1 0x0 DUP1 REVERT JUMPDEST SWAP4 SWAP3 POP POP POP JUMP JUMPDEST PUSH2 0xF3E DUP1 PUSH2 0xEC PUSH1 0x0 CODECOPY PUSH1 0x0 RETURN INVALID PUSH1 0x80 PUSH1 0x40 MSTORE PUSH1 0x4 CALLDATASIZE LT PUSH2 0x70 JUMPI PUSH1 0x0 CALLDATALOAD PUSH1 0xE0 SHR DUP1 PUSH4 0x715018A6 GT PUSH2 0x4E JUMPI DUP1 PUSH4 0x715018A6 EQ PUSH2 0x143 JUMPI DUP1 PUSH4 0x8DA5CB5B EQ PUSH2 0x158 JUMPI DUP1 PUSH4 0x9D6D10DA EQ PUSH2 0x18A JUMPI DUP1 PUSH4 0xF2FDE38B EQ PUSH2 0x1AA JUMPI PUSH1 0x0 DUP1 REVERT JUMPDEST DUP1 PUSH4 0x286DB5C2 EQ PUSH2 0x75 JUMPI DUP1 PUSH4 0x30D14655 EQ PUSH2 0x97 JUMPI DUP1 PUSH4 0x4F36ED09 EQ PUSH2 0xAA JUMPI JUMPDEST PUSH1 0x0 DUP1 REVERT JUMPDEST CALLVALUE DUP1 ISZERO PUSH2 0x81 JUMPI PUSH1 0x0 DUP1 REVERT JUMPDEST POP PUSH2 0x95 PUSH2 0x90 CALLDATASIZE PUSH1 0x4 PUSH2 0xC65 JUMP JUMPDEST PUSH2 0x1CA JUMP JUMPDEST STOP JUMPDEST PUSH2 0x95 PUSH2 0xA5 CALLDATASIZE PUSH1 0x4 PUSH2 0xCF2 JUMP JUMPDEST PUSH2 0x68A JUMP JUMPDEST CALLVALUE DUP1 ISZERO PUSH2 0xB6 JUMPI PUSH1 0x0 DUP1 REVERT JUMPDEST POP PUSH2 0x10B PUSH2 0xC5 CALLDATASIZE PUSH1 0x4 PUSH2 0xC65 JUMP JUMPDEST PUSH1 0x3 PUSH1 0x20 DUP2 DUP2 MSTORE PUSH1 0x0 SWAP4 DUP5 MSTORE PUSH1 0x40 DUP1 DUP6 KECCAK256 SWAP1 SWAP2 MSTORE SWAP2 DUP4 MSTORE SWAP2 KECCAK256 DUP1 SLOAD PUSH1 0x1 DUP3 ADD SLOAD SWAP3 DUP3 ADD SLOAD PUSH1 0x4 SWAP1 SWAP3 ADD SLOAD SWAP1 SWAP3 SWAP2 SWAP1 PUSH1 0x1 PUSH1 0x1 PUSH1 0xA0 SHL SUB DUP2 AND SWAP1 PUSH1 0x1 PUSH1 0xA0 SHL SWAP1 DIV PUSH1 0xFF AND DUP6 JUMP JUMPDEST PUSH1 0x40 DUP1 MLOAD SWAP6 DUP7 MSTORE PUSH1 0x20 DUP7 ADD SWAP5 SWAP1 SWAP5 MSTORE SWAP3 DUP5 ADD SWAP2 SWAP1 SWAP2 MSTORE PUSH1 0x1 PUSH1 0x1 PUSH1 0xA0 SHL SUB AND PUSH1 0x60 DUP4 ADD MSTORE ISZERO ISZERO PUSH1 0x80 DUP3 ADD MSTORE PUSH1 0xA0 ADD JUMPDEST PUSH1 0x40 MLOAD DUP1 SWAP2 SUB SWAP1 RETURN JUMPDEST CALLVALUE DUP1 ISZERO PUSH2 0x14F JUMPI PUSH1 0x0 DUP1 REVERT JUMPDEST POP PUSH2 0x95 PUSH2 0x855 JUMP JUMPDEST CALLVALUE DUP1 ISZERO PUSH2 0x164 JUMPI PUSH1 0x0 DUP1 REVERT JUMPDEST POP PUSH1 0x0 SLOAD PUSH1 0x1 PUSH1 0x1 PUSH1 0xA0 SHL SUB AND JUMPDEST PUSH1 0x40 MLOAD PUSH1 0x1 PUSH1 0x1 PUSH1 0xA0 SHL SUB SWAP1 SWAP2 AND DUP2 MSTORE PUSH1 0x20 ADD PUSH2 0x13A JUMP JUMPDEST CALLVALUE DUP1 ISZERO PUSH2 0x196 JUMPI PUSH1 0x0 DUP1 REVERT JUMPDEST POP PUSH1 0x1 SLOAD PUSH2 0x172 SWAP1 PUSH1 0x1 PUSH1 0x1 PUSH1 0xA0 SHL SUB AND DUP2 JUMP JUMPDEST CALLVALUE DUP1 ISZERO PUSH2 0x1B6 JUMPI PUSH1 0x0 DUP1 REVERT JUMPDEST POP PUSH2 0x95 PUSH2 0x1C5 CALLDATASIZE PUSH1 0x4 PUSH2 0xD94 JUMP JUMPDEST PUSH2 0x869 JUMP JUMPDEST PUSH1 0x0 DUP3 DUP2 MSTORE PUSH1 0x3 PUSH1 0x20 SWAP1 DUP2 MSTORE PUSH1 0x40 DUP1 DUP4 KECCAK256 DUP5 DUP5 MSTORE SWAP1 SWAP2 MSTORE SWAP1 KECCAK256 PUSH1 0x4 DUP2 ADD SLOAD PUSH1 0x1 PUSH1 0x1 PUSH1 0xA0 SHL SUB AND PUSH2 0x237 JUMPI PUSH1 0x40 MLOAD PUSH3 0x461BCD PUSH1 0xE5 SHL DUP2 MSTORE PUSH1 0x20 PUSH1 0x4 DUP3 ADD MSTORE PUSH1 0x12 PUSH1 0x24 DUP3 ADD MSTORE PUSH18 0x10995D08191BD95CC81B9BDD08195E1A5CDD PUSH1 0x72 SHL PUSH1 0x44 DUP3 ADD MSTORE PUSH1 0x64 ADD JUMPDEST PUSH1 0x40 MLOAD DUP1 SWAP2 SUB SWAP1 REVERT JUMPDEST PUSH1 0x1 SLOAD PUSH1 0x40 MLOAD PUSH4 0x287B12F1 PUSH1 0xE0 SHL DUP2 MSTORE PUSH1 0x4 DUP2 ADD DUP6 SWAP1 MSTORE PUSH1 0x1 PUSH1 0x1 PUSH1 0xA0 SHL SUB SWAP1 SWAP2 AND SWAP1 PUSH4 0x287B12F1 SWAP1 PUSH1 0x24 ADD PUSH1 0x20 PUSH1 0x40 MLOAD DUP1 DUP4 SUB DUP2 DUP7 GAS STATICCALL ISZERO DUP1 ISZERO PUSH2 0x280 JUMPI RETURNDATASIZE PUSH1 0x0 DUP1 RETURNDATACOPY RETURNDATASIZE PUSH1 0x0 REVERT JUMPDEST POP POP POP POP PUSH1 0x40 MLOAD RETURNDATASIZE PUSH1 0x1F NOT PUSH1 0x1F DUP3 ADD AND DUP3 ADD DUP1 PUSH1 0x40 MSTORE POP DUP2 ADD SWAP1 PUSH2 0x2A4 SWAP2 SWAP1 PUSH2 0xDC4 JUMP JUMPDEST PUSH2 0x2E4 JUMPI PUSH1 0x40 MLOAD PUSH3 0x461BCD PUSH1 0xE5 SHL DUP2 MSTORE PUSH1 0x20 PUSH1 0x4 DUP3 ADD MSTORE PUSH1 0x11 PUSH1 0x24 DUP3 ADD MSTORE PUSH17 0x149858D9481A5CC81B9BDD08195B991959 PUSH1 0x7A SHL PUSH1 0x44 DUP3 ADD MSTORE PUSH1 0x64 ADD PUSH2 0x22E JUMP JUMPDEST PUSH1 0x4 DUP2 ADD SLOAD PUSH1 0x1 PUSH1 0x1 PUSH1 0xA0 SHL SUB AND CALLER EQ PUSH2 0x331 JUMPI PUSH1 0x40 MLOAD PUSH3 0x461BCD PUSH1 0xE5 SHL DUP2 MSTORE PUSH1 0x20 PUSH1 0x4 DUP3 ADD MSTORE PUSH1 0xE PUSH1 0x24 DUP3 ADD MSTORE PUSH14 0x2737BA103A3432903132BA3A37B9 PUSH1 0x91 SHL PUSH1 0x44 DUP3 ADD MSTORE PUSH1 0x64 ADD PUSH2 0x22E JUMP JUMPDEST PUSH1 0x4 DUP2 ADD SLOAD PUSH1 0x1 PUSH1 0xA0 SHL SWAP1 DIV PUSH1 0xFF AND ISZERO PUSH2 0x38D JUMPI PUSH1 0x40 MLOAD PUSH3 0x461BCD PUSH1 0xE5 SHL DUP2 MSTORE PUSH1 0x20 PUSH1 0x4 DUP3 ADD MSTORE PUSH1 0x18 PUSH1 0x24 DUP3 ADD MSTORE PUSH32 0x57696E6E696E677320616C726561647920636C61696D65640000000000000000 PUSH1 0x44 DUP3 ADD MSTORE PUSH1 0x64 ADD PUSH2 0x22E JUMP JUMPDEST PUSH1 0x1 SLOAD PUSH1 0x40 MLOAD PUSH4 0x7BB5ED8D PUSH1 0xE1 SHL DUP2 MSTORE PUSH1 0x4 DUP2 ADD DUP6 SWAP1 MSTORE PUSH1 0x0 SWAP2 PUSH1 0x1 PUSH1 0x1 PUSH1 0xA0 SHL SUB AND SWAP1 PUSH4 0xF76BDB1A SWAP1 PUSH1 0x24 ADD PUSH1 0x0 PUSH1 0x40 MLOAD DUP1 DUP4 SUB DUP2 DUP7 GAS STATICCALL ISZERO DUP1 ISZERO PUSH2 0x3D7 JUMPI RETURNDATASIZE PUSH1 0x0 DUP1 RETURNDATACOPY RETURNDATASIZE PUSH1 0x0 REVERT JUMPDEST POP POP POP POP PUSH1 0x40 MLOAD RETURNDATASIZE PUSH1 0x0 DUP3 RETURNDATACOPY PUSH1 0x1F RETURNDATASIZE SWAP1 DUP2 ADD PUSH1 0x1F NOT AND DUP3 ADD PUSH1 0x40 MSTORE PUSH2 0x3FF SWAP2 SWAP1 DUP2 ADD SWAP1 PUSH2 0xDE6 JUMP JUMPDEST SWAP1 POP PUSH2 0x4B2 DUP3 PUSH1 0x40 MLOAD DUP1 PUSH1 0xC0 ADD PUSH1 0x40 MSTORE SWAP1 DUP2 PUSH1 0x0 DUP3 ADD SLOAD DUP2 MSTORE PUSH1 0x20 ADD PUSH1 0x1 DUP3 ADD SLOAD DUP2 MSTORE PUSH1 0x20 ADD PUSH1 0x2 DUP3 ADD DUP1 SLOAD DUP1 PUSH1 0x20 MUL PUSH1 0x20 ADD PUSH1 0x40 MLOAD SWAP1 DUP2 ADD PUSH1 0x40 MSTORE DUP1 SWAP3 SWAP2 SWAP1 DUP2 DUP2 MSTORE PUSH1 0x20 ADD DUP3 DUP1 SLOAD DUP1 ISZERO PUSH2 0x473 JUMPI PUSH1 0x20 MUL DUP3 ADD SWAP2 SWAP1 PUSH1 0x0 MSTORE PUSH1 0x20 PUSH1 0x0 KECCAK256 SWAP1 JUMPDEST DUP2 SLOAD DUP2 MSTORE PUSH1 0x20 ADD SWAP1 PUSH1 0x1 ADD SWAP1 DUP1 DUP4 GT PUSH2 0x45F JUMPI JUMPDEST POP POP POP SWAP2 DUP4 MSTORE POP POP PUSH1 0x3 DUP3 ADD SLOAD PUSH1 0x20 DUP3 ADD MSTORE PUSH1 0x4 SWAP1 SWAP2 ADD SLOAD PUSH1 0x1 PUSH1 0x1 PUSH1 0xA0 SHL SUB DUP2 AND PUSH1 0x40 DUP4 ADD MSTORE PUSH1 0x1 PUSH1 0xA0 SHL SWAP1 DIV PUSH1 0xFF AND ISZERO ISZERO PUSH1 0x60 SWAP1 SWAP2 ADD MSTORE DUP3 PUSH2 0x8E2 JUMP JUMPDEST PUSH2 0x4F0 JUMPI PUSH1 0x40 MLOAD PUSH3 0x461BCD PUSH1 0xE5 SHL DUP2 MSTORE PUSH1 0x20 PUSH1 0x4 DUP3 ADD MSTORE PUSH1 0xF PUSH1 0x24 DUP3 ADD MSTORE PUSH15 0x2132BA103234B2103737BA103BB4B7 PUSH1 0x89 SHL PUSH1 0x44 DUP3 ADD MSTORE PUSH1 0x64 ADD PUSH2 0x22E JUMP JUMPDEST PUSH1 0x0 PUSH2 0x5A3 DUP4 PUSH1 0x40 MLOAD DUP1 PUSH1 0xC0 ADD PUSH1 0x40 MSTORE SWAP1 DUP2 PUSH1 0x0 DUP3 ADD SLOAD DUP2 MSTORE PUSH1 0x20 ADD PUSH1 0x1 DUP3 ADD SLOAD DUP2 MSTORE PUSH1 0x20 ADD PUSH1 0x2 DUP3 ADD DUP1 SLOAD DUP1 PUSH1 0x20 MUL PUSH1 0x20 ADD PUSH1 0x40 MLOAD SWAP1 DUP2 ADD PUSH1 0x40 MSTORE DUP1 SWAP3 SWAP2 SWAP1 DUP2 DUP2 MSTORE PUSH1 0x20 ADD DUP3 DUP1 SLOAD DUP1 ISZERO PUSH2 0x564 JUMPI PUSH1 0x20 MUL DUP3 ADD SWAP2 SWAP1 PUSH1 0x0 MSTORE PUSH1 0x20 PUSH1 0x0 KECCAK256 SWAP1 JUMPDEST DUP2 SLOAD DUP2 MSTORE PUSH1 0x20 ADD SWAP1 PUSH1 0x1 ADD SWAP1 DUP1 DUP4 GT PUSH2 0x550 JUMPI JUMPDEST POP POP POP SWAP2 DUP4 MSTORE POP POP PUSH1 0x3 DUP3 ADD SLOAD PUSH1 0x20 DUP3 ADD MSTORE PUSH1 0x4 SWAP1 SWAP2 ADD SLOAD PUSH1 0x1 PUSH1 0x1 PUSH1 0xA0 SHL SUB DUP2 AND PUSH1 0x40 DUP4 ADD MSTORE PUSH1 0x1 PUSH1 0xA0 SHL SWAP1 DIV PUSH1 0xFF AND ISZERO ISZERO PUSH1 0x60 SWAP1 SWAP2 ADD MSTORE DUP7 PUSH2 0x96E JUMP JUMPDEST SWAP1 POP SELFBALANCE DUP1 DUP3 GT ISZERO PUSH2 0x602 JUMPI PUSH1 0x40 MLOAD PUSH3 0x461BCD PUSH1 0xE5 SHL DUP2 MSTORE PUSH1 0x20 PUSH1 0x4 DUP3 ADD MSTORE PUSH1 0x23 PUSH1 0x24 DUP3 ADD MSTORE PUSH32 0x436F6E747261637420646F6573206E6F74206861766520656E6F756768206675 PUSH1 0x44 DUP3 ADD MSTORE PUSH3 0x6E6473 PUSH1 0xE8 SHL PUSH1 0x64 DUP3 ADD MSTORE PUSH1 0x84 ADD PUSH2 0x22E JUMP JUMPDEST PUSH1 0x4 DUP5 ADD DUP1 SLOAD PUSH1 0xFF PUSH1 0xA0 SHL NOT AND PUSH1 0x1 PUSH1 0xA0 SHL OR SWAP1 SSTORE PUSH1 0x40 MLOAD CALLER SWAP1 DUP4 ISZERO PUSH2 0x8FC MUL SWAP1 DUP5 SWAP1 PUSH1 0x0 DUP2 DUP2 DUP2 DUP6 DUP9 DUP9 CALL SWAP4 POP POP POP POP ISZERO DUP1 ISZERO PUSH2 0x644 JUMPI RETURNDATASIZE PUSH1 0x0 DUP1 RETURNDATACOPY RETURNDATASIZE PUSH1 0x0 REVERT JUMPDEST POP PUSH1 0x40 DUP1 MLOAD DUP7 DUP2 MSTORE PUSH1 0x20 DUP2 ADD DUP5 SWAP1 MSTORE CALLER SWAP2 DUP9 SWAP2 PUSH32 0xF251247842E91DDCBB8408E9B83E4F8CBA5B0D669FF7A5E1AE6DAD372C368109 SWAP2 ADD PUSH1 0x40 MLOAD DUP1 SWAP2 SUB SWAP1 LOG3 POP POP POP POP POP POP JUMP JUMPDEST PUSH1 0x1 SLOAD PUSH1 0x40 MLOAD PUSH4 0x116538F PUSH1 0xE0 SHL DUP2 MSTORE PUSH1 0x4 DUP2 ADD DUP5 SWAP1 MSTORE PUSH1 0x1 PUSH1 0x1 PUSH1 0xA0 SHL SUB SWAP1 SWAP2 AND SWAP1 PUSH4 0x116538F SWAP1 PUSH1 0x24 ADD PUSH1 0x20 PUSH1 0x40 MLOAD DUP1 DUP4 SUB DUP2 DUP7 GAS STATICCALL ISZERO DUP1 ISZERO PUSH2 0x6D3 JUMPI RETURNDATASIZE PUSH1 0x0 DUP1 RETURNDATACOPY RETURNDATASIZE PUSH1 0x0 REVERT JUMPDEST POP POP POP POP PUSH1 0x40 MLOAD RETURNDATASIZE PUSH1 0x1F NOT PUSH1 0x1F DUP3 ADD AND DUP3 ADD DUP1 PUSH1 0x40 MSTORE POP DUP2 ADD SWAP1 PUSH2 0x6F7 SWAP2 SWAP1 PUSH2 0xDC4 JUMP JUMPDEST PUSH2 0x74E JUMPI PUSH1 0x40 MLOAD PUSH3 0x461BCD PUSH1 0xE5 SHL DUP2 MSTORE PUSH1 0x20 PUSH1 0x4 DUP3 ADD MSTORE PUSH1 0x22 PUSH1 0x24 DUP3 ADD MSTORE PUSH32 0x52616365206E6F7420616374697665206F7220616C7265616479207374617274 PUSH1 0x44 DUP3 ADD MSTORE PUSH2 0x1959 PUSH1 0xF2 SHL PUSH1 0x64 DUP3 ADD MSTORE PUSH1 0x84 ADD PUSH2 0x22E JUMP JUMPDEST PUSH1 0x0 PUSH2 0x759 PUSH1 0x2 SLOAD SWAP1 JUMP JUMPDEST PUSH1 0x40 DUP1 MLOAD PUSH1 0xC0 DUP2 ADD DUP3 MSTORE DUP3 DUP2 MSTORE PUSH1 0x20 DUP1 DUP3 ADD DUP8 DUP2 MSTORE DUP3 DUP5 ADD DUP8 DUP2 MSTORE CALLVALUE PUSH1 0x60 DUP6 ADD MSTORE CALLER PUSH1 0x80 DUP6 ADD MSTORE PUSH1 0x0 PUSH1 0xA0 DUP6 ADD DUP2 SWAP1 MSTORE DUP10 DUP2 MSTORE PUSH1 0x3 DUP5 MSTORE DUP6 DUP2 KECCAK256 DUP8 DUP3 MSTORE DUP5 MSTORE SWAP5 SWAP1 SWAP5 KECCAK256 DUP4 MLOAD DUP2 SSTORE SWAP1 MLOAD PUSH1 0x1 DUP3 ADD SSTORE SWAP3 MLOAD DUP1 MLOAD SWAP5 SWAP6 POP SWAP2 SWAP4 PUSH2 0x7C0 SWAP3 PUSH1 0x2 DUP6 ADD SWAP3 ADD SWAP1 PUSH2 0xC05 JUMP JUMPDEST POP PUSH1 0x60 DUP3 ADD MLOAD PUSH1 0x3 DUP3 ADD SSTORE PUSH1 0x80 DUP3 ADD MLOAD PUSH1 0x4 SWAP1 SWAP2 ADD DUP1 SLOAD PUSH1 0xA0 SWAP1 SWAP4 ADD MLOAD ISZERO ISZERO PUSH1 0x1 PUSH1 0xA0 SHL MUL PUSH1 0x1 PUSH1 0x1 PUSH1 0xA8 SHL SUB NOT SWAP1 SWAP4 AND PUSH1 0x1 PUSH1 0x1 PUSH1 0xA0 SHL SUB SWAP1 SWAP3 AND SWAP2 SWAP1 SWAP2 OR SWAP2 SWAP1 SWAP2 OR SWAP1 SSTORE PUSH2 0x814 PUSH1 0x2 DUP1 SLOAD PUSH1 0x1 ADD SWAP1 SSTORE JUMP JUMPDEST PUSH1 0x40 DUP1 MLOAD DUP3 DUP2 MSTORE CALLVALUE PUSH1 0x20 DUP3 ADD MSTORE CALLER SWAP2 DUP6 SWAP2 PUSH32 0xFDD8ED02332ACACB3420E7345A9ADADB30877075EADE2BCDE9FE778E8BB71E42 SWAP2 ADD PUSH1 0x40 MLOAD DUP1 SWAP2 SUB SWAP1 LOG3 POP POP POP JUMP JUMPDEST PUSH2 0x85D PUSH2 0x99E JUMP JUMPDEST PUSH2 0x867 PUSH1 0x0 PUSH2 0x9F8 JUMP JUMPDEST JUMP JUMPDEST PUSH2 0x871 PUSH2 0x99E JUMP JUMPDEST PUSH1 0x1 PUSH1 0x1 PUSH1 0xA0 SHL SUB DUP2 AND PUSH2 0x8D6 JUMPI PUSH1 0x40 MLOAD PUSH3 0x461BCD PUSH1 0xE5 SHL DUP2 MSTORE PUSH1 0x20 PUSH1 0x4 DUP3 ADD MSTORE PUSH1 0x26 PUSH1 0x24 DUP3 ADD MSTORE PUSH32 0x4F776E61626C653A206E6577206F776E657220697320746865207A65726F2061 PUSH1 0x44 DUP3 ADD MSTORE PUSH6 0x646472657373 PUSH1 0xD0 SHL PUSH1 0x64 DUP3 ADD MSTORE PUSH1 0x84 ADD PUSH2 0x22E JUMP JUMPDEST PUSH2 0x8DF DUP2 PUSH2 0x9F8 JUMP JUMPDEST POP JUMP JUMPDEST PUSH1 0x0 DUP2 MLOAD DUP4 PUSH1 0x40 ADD MLOAD MLOAD EQ PUSH2 0x8F9 JUMPI POP PUSH1 0x0 PUSH2 0x968 JUMP JUMPDEST PUSH1 0x0 JUMPDEST DUP4 PUSH1 0x40 ADD MLOAD MLOAD DUP2 LT ISZERO PUSH2 0x962 JUMPI DUP3 DUP2 DUP2 MLOAD DUP2 LT PUSH2 0x91B JUMPI PUSH2 0x91B PUSH2 0xE77 JUMP JUMPDEST PUSH1 0x20 MUL PUSH1 0x20 ADD ADD MLOAD DUP5 PUSH1 0x40 ADD MLOAD DUP3 DUP2 MLOAD DUP2 LT PUSH2 0x939 JUMPI PUSH2 0x939 PUSH2 0xE77 JUMP JUMPDEST PUSH1 0x20 MUL PUSH1 0x20 ADD ADD MLOAD EQ PUSH2 0x950 JUMPI PUSH1 0x0 SWAP2 POP POP PUSH2 0x968 JUMP JUMPDEST DUP1 PUSH2 0x95A DUP2 PUSH2 0xEA3 JUMP JUMPDEST SWAP2 POP POP PUSH2 0x8FC JUMP JUMPDEST POP PUSH1 0x1 SWAP1 POP JUMPDEST SWAP3 SWAP2 POP POP JUMP JUMPDEST PUSH1 0x0 DUP1 PUSH1 0x0 SWAP1 POP PUSH1 0x0 PUSH2 0x985 DUP6 PUSH1 0x40 ADD MLOAD DUP6 PUSH2 0xA48 JUMP JUMPDEST SWAP1 POP PUSH2 0x995 DUP6 PUSH1 0x60 ADD MLOAD DUP3 PUSH2 0xB60 JUMP JUMPDEST SWAP6 SWAP5 POP POP POP POP POP JUMP JUMPDEST PUSH1 0x0 SLOAD PUSH1 0x1 PUSH1 0x1 PUSH1 0xA0 SHL SUB AND CALLER EQ PUSH2 0x867 JUMPI PUSH1 0x40 MLOAD PUSH3 0x461BCD PUSH1 0xE5 SHL DUP2 MSTORE PUSH1 0x20 PUSH1 0x4 DUP3 ADD DUP2 SWAP1 MSTORE PUSH1 0x24 DUP3 ADD MSTORE PUSH32 0x4F776E61626C653A2063616C6C6572206973206E6F7420746865206F776E6572 PUSH1 0x44 DUP3 ADD MSTORE PUSH1 0x64 ADD PUSH2 0x22E JUMP JUMPDEST PUSH1 0x0 DUP1 SLOAD PUSH1 0x1 PUSH1 0x1 PUSH1 0xA0 SHL SUB DUP4 DUP2 AND PUSH1 0x1 PUSH1 0x1 PUSH1 0xA0 SHL SUB NOT DUP4 AND DUP2 OR DUP5 SSTORE PUSH1 0x40 MLOAD SWAP2 SWAP1 SWAP3 AND SWAP3 DUP4 SWAP2 PUSH32 0x8BE0079C531659141344CD1FD0A4F28419497F9722A3DAAFE3B4186F6B6457E0 SWAP2 SWAP1 LOG3 POP POP JUMP JUMPDEST PUSH1 0x0 DUP1 DUP1 PUSH2 0xA55 PUSH1 0x2 SLOAD SWAP1 JUMP JUMPDEST SWAP1 POP PUSH1 0x0 JUMPDEST DUP2 DUP2 LT ISZERO PUSH2 0xB56 JUMPI PUSH1 0x0 DUP6 DUP2 MSTORE PUSH1 0x3 PUSH1 0x20 SWAP1 DUP2 MSTORE PUSH1 0x40 DUP1 DUP4 KECCAK256 DUP5 DUP5 MSTORE DUP3 MSTORE DUP1 DUP4 KECCAK256 DUP2 MLOAD PUSH1 0xC0 DUP2 ADD DUP4 MSTORE DUP2 SLOAD DUP2 MSTORE PUSH1 0x1 DUP3 ADD SLOAD DUP2 DUP6 ADD MSTORE PUSH1 0x2 DUP3 ADD DUP1 SLOAD DUP5 MLOAD DUP2 DUP8 MUL DUP2 ADD DUP8 ADD DUP7 MSTORE DUP2 DUP2 MSTORE SWAP3 SWAP6 SWAP4 SWAP5 DUP7 ADD SWAP4 DUP4 ADD DUP3 DUP3 DUP1 ISZERO PUSH2 0xADA JUMPI PUSH1 0x20 MUL DUP3 ADD SWAP2 SWAP1 PUSH1 0x0 MSTORE PUSH1 0x20 PUSH1 0x0 KECCAK256 SWAP1 JUMPDEST DUP2 SLOAD DUP2 MSTORE PUSH1 0x20 ADD SWAP1 PUSH1 0x1 ADD SWAP1 DUP1 DUP4 GT PUSH2 0xAC6 JUMPI JUMPDEST POP POP POP SWAP2 DUP4 MSTORE POP POP PUSH1 0x3 DUP3 ADD SLOAD PUSH1 0x20 DUP3 ADD MSTORE PUSH1 0x4 SWAP1 SWAP2 ADD SLOAD PUSH1 0x1 PUSH1 0x1 PUSH1 0xA0 SHL SUB DUP2 AND PUSH1 0x40 DUP1 DUP5 ADD SWAP2 SWAP1 SWAP2 MSTORE PUSH1 0x1 PUSH1 0xA0 SHL SWAP1 SWAP2 DIV PUSH1 0xFF AND ISZERO ISZERO PUSH1 0x60 SWAP1 SWAP3 ADD SWAP2 SWAP1 SWAP2 MSTORE DUP2 ADD MLOAD SWAP1 SWAP2 POP PUSH2 0xB2C SWAP1 DUP9 SWAP1 PUSH2 0xB91 JUMP JUMPDEST ISZERO PUSH2 0xB43 JUMPI PUSH1 0x60 DUP2 ADD MLOAD PUSH2 0xB40 SWAP1 DUP6 PUSH2 0xEBC JUMP JUMPDEST SWAP4 POP JUMPDEST POP DUP1 PUSH2 0xB4E DUP2 PUSH2 0xEA3 JUMP JUMPDEST SWAP2 POP POP PUSH2 0xA5A JUMP JUMPDEST POP SWAP1 SWAP5 SWAP4 POP POP POP POP JUMP JUMPDEST PUSH1 0x0 DUP3 DUP3 GT ISZERO PUSH2 0xB86 JUMPI PUSH2 0xB75 PUSH1 0x2 DUP5 PUSH2 0xECF JUMP JUMPDEST PUSH2 0xB7F SWAP1 DUP5 PUSH2 0xEBC JUMP JUMPDEST SWAP1 POP PUSH2 0x968 JUMP JUMPDEST PUSH2 0xB7F DUP4 PUSH1 0x2 PUSH2 0xEF1 JUMP JUMPDEST PUSH1 0x0 DUP2 MLOAD DUP4 MLOAD EQ PUSH2 0xBA4 JUMPI POP PUSH1 0x0 PUSH2 0x968 JUMP JUMPDEST PUSH1 0x0 JUMPDEST DUP4 MLOAD DUP2 LT ISZERO PUSH2 0x962 JUMPI DUP3 DUP2 DUP2 MLOAD DUP2 LT PUSH2 0xBC2 JUMPI PUSH2 0xBC2 PUSH2 0xE77 JUMP JUMPDEST PUSH1 0x20 MUL PUSH1 0x20 ADD ADD MLOAD DUP5 DUP3 DUP2 MLOAD DUP2 LT PUSH2 0xBDC JUMPI PUSH2 0xBDC PUSH2 0xE77 JUMP JUMPDEST PUSH1 0x20 MUL PUSH1 0x20 ADD ADD MLOAD EQ PUSH2 0xBF3 JUMPI PUSH1 0x0 SWAP2 POP POP PUSH2 0x968 JUMP JUMPDEST DUP1 PUSH2 0xBFD DUP2 PUSH2 0xEA3 JUMP JUMPDEST SWAP2 POP POP PUSH2 0xBA7 JUMP JUMPDEST DUP3 DUP1 SLOAD DUP3 DUP3 SSTORE SWAP1 PUSH1 0x0 MSTORE PUSH1 0x20 PUSH1 0x0 KECCAK256 SWAP1 DUP2 ADD SWAP3 DUP3 ISZERO PUSH2 0xC40 JUMPI SWAP2 PUSH1 0x20 MUL DUP3 ADD JUMPDEST DUP3 DUP2 GT ISZERO PUSH2 0xC40 JUMPI DUP3 MLOAD DUP3 SSTORE SWAP2 PUSH1 0x20 ADD SWAP2 SWAP1 PUSH1 0x1 ADD SWAP1 PUSH2 0xC25 JUMP JUMPDEST POP PUSH2 0xC4C SWAP3 SWAP2 POP PUSH2 0xC50 JUMP JUMPDEST POP SWAP1 JUMP JUMPDEST JUMPDEST DUP1 DUP3 GT ISZERO PUSH2 0xC4C JUMPI PUSH1 0x0 DUP2 SSTORE PUSH1 0x1 ADD PUSH2 0xC51 JUMP JUMPDEST PUSH1 0x0 DUP1 PUSH1 0x40 DUP4 DUP6 SUB SLT ISZERO PUSH2 0xC78 JUMPI PUSH1 0x0 DUP1 REVERT JUMPDEST POP POP DUP1 CALLDATALOAD SWAP3 PUSH1 0x20 SWAP1 SWAP2 ADD CALLDATALOAD SWAP2 POP JUMP JUMPDEST PUSH4 0x4E487B71 PUSH1 0xE0 SHL PUSH1 0x0 MSTORE PUSH1 0x41 PUSH1 0x4 MSTORE PUSH1 0x24 PUSH1 0x0 REVERT JUMPDEST PUSH1 0x40 MLOAD PUSH1 0x1F DUP3 ADD PUSH1 0x1F NOT AND DUP2 ADD PUSH8 0xFFFFFFFFFFFFFFFF DUP2 GT DUP3 DUP3 LT OR ISZERO PUSH2 0xCC6 JUMPI PUSH2 0xCC6 PUSH2 0xC87 JUMP JUMPDEST PUSH1 0x40 MSTORE SWAP2 SWAP1 POP JUMP JUMPDEST PUSH1 0x0 PUSH8 0xFFFFFFFFFFFFFFFF DUP3 GT ISZERO PUSH2 0xCE8 JUMPI PUSH2 0xCE8 PUSH2 0xC87 JUMP JUMPDEST POP PUSH1 0x5 SHL PUSH1 0x20 ADD SWAP1 JUMP JUMPDEST PUSH1 0x0 DUP1 PUSH1 0x40 DUP4 DUP6 SUB SLT ISZERO PUSH2 0xD05 JUMPI PUSH1 0x0 DUP1 REVERT JUMPDEST DUP3 CALLDATALOAD SWAP2 POP PUSH1 0x20 DUP1 DUP5 ADD CALLDATALOAD PUSH8 0xFFFFFFFFFFFFFFFF DUP2 GT ISZERO PUSH2 0xD24 JUMPI PUSH1 0x0 DUP1 REVERT JUMPDEST DUP5 ADD PUSH1 0x1F DUP2 ADD DUP7 SGT PUSH2 0xD35 JUMPI PUSH1 0x0 DUP1 REVERT JUMPDEST DUP1 CALLDATALOAD PUSH2 0xD48 PUSH2 0xD43 DUP3 PUSH2 0xCCE JUMP JUMPDEST PUSH2 0xC9D JUMP JUMPDEST DUP2 DUP2 MSTORE PUSH1 0x5 SWAP2 SWAP1 SWAP2 SHL DUP3 ADD DUP4 ADD SWAP1 DUP4 DUP2 ADD SWAP1 DUP9 DUP4 GT ISZERO PUSH2 0xD67 JUMPI PUSH1 0x0 DUP1 REVERT JUMPDEST SWAP3 DUP5 ADD SWAP3 JUMPDEST DUP3 DUP5 LT ISZERO PUSH2 0xD85 JUMPI DUP4 CALLDATALOAD DUP3 MSTORE SWAP3 DUP5 ADD SWAP3 SWAP1 DUP5 ADD SWAP1 PUSH2 0xD6C JUMP JUMPDEST DUP1 SWAP6 POP POP POP POP POP POP SWAP3 POP SWAP3 SWAP1 POP JUMP JUMPDEST PUSH1 0x0 PUSH1 0x20 DUP3 DUP5 SUB SLT ISZERO PUSH2 0xDA6 JUMPI PUSH1 0x0 DUP1 REVERT JUMPDEST DUP2 CALLDATALOAD PUSH1 0x1 PUSH1 0x1 PUSH1 0xA0 SHL SUB DUP2 AND DUP2 EQ PUSH2 0xDBD JUMPI PUSH1 0x0 DUP1 REVERT JUMPDEST SWAP4 SWAP3 POP POP POP JUMP JUMPDEST PUSH1 0x0 PUSH1 0x20 DUP3 DUP5 SUB SLT ISZERO PUSH2 0xDD6 JUMPI PUSH1 0x0 DUP1 REVERT JUMPDEST DUP2 MLOAD DUP1 ISZERO ISZERO DUP2 EQ PUSH2 0xDBD JUMPI PUSH1 0x0 DUP1 REVERT JUMPDEST PUSH1 0x0 PUSH1 0x20 DUP1 DUP4 DUP6 SUB SLT ISZERO PUSH2 0xDF9 JUMPI PUSH1 0x0 DUP1 REVERT JUMPDEST DUP3 MLOAD PUSH8 0xFFFFFFFFFFFFFFFF DUP2 GT ISZERO PUSH2 0xE10 JUMPI PUSH1 0x0 DUP1 REVERT JUMPDEST DUP4 ADD PUSH1 0x1F DUP2 ADD DUP6 SGT PUSH2 0xE21 JUMPI PUSH1 0x0 DUP1 REVERT JUMPDEST DUP1 MLOAD PUSH2 0xE2F PUSH2 0xD43 DUP3 PUSH2 0xCCE JUMP JUMPDEST DUP2 DUP2 MSTORE PUSH1 0x5 SWAP2 SWAP1 SWAP2 SHL DUP3 ADD DUP4 ADD SWAP1 DUP4 DUP2 ADD SWAP1 DUP8 DUP4 GT ISZERO PUSH2 0xE4E JUMPI PUSH1 0x0 DUP1 REVERT JUMPDEST SWAP3 DUP5 ADD SWAP3 JUMPDEST DUP3 DUP5 LT ISZERO PUSH2 0xE6C JUMPI DUP4 MLOAD DUP3 MSTORE SWAP3 DUP5 ADD SWAP3 SWAP1 DUP5 ADD SWAP1 PUSH2 0xE53 JUMP JUMPDEST SWAP8 SWAP7 POP POP POP POP POP POP POP JUMP JUMPDEST PUSH4 0x4E487B71 PUSH1 0xE0 SHL PUSH1 0x0 MSTORE PUSH1 0x32 PUSH1 0x4 MSTORE PUSH1 0x24 PUSH1 0x0 REVERT JUMPDEST PUSH4 0x4E487B71 PUSH1 0xE0 SHL PUSH1 0x0 MSTORE PUSH1 0x11 PUSH1 0x4 MSTORE PUSH1 0x24 PUSH1 0x0 REVERT JUMPDEST PUSH1 0x0 PUSH1 0x1 DUP3 ADD PUSH2 0xEB5 JUMPI PUSH2 0xEB5 PUSH2 0xE8D JUMP JUMPDEST POP PUSH1 0x1 ADD SWAP1 JUMP JUMPDEST DUP1 DUP3 ADD DUP1 DUP3 GT ISZERO PUSH2 0x968 JUMPI PUSH2 0x968 PUSH2 0xE8D JUMP JUMPDEST PUSH1 0x0 DUP3 PUSH2 0xEEC JUMPI PUSH4 0x4E487B71 PUSH1 0xE0 SHL PUSH1 0x0 MSTORE PUSH1 0x12 PUSH1 0x4 MSTORE PUSH1 0x24 PUSH1 0x0 REVERT JUMPDEST POP DIV SWAP1 JUMP JUMPDEST DUP1 DUP3 MUL DUP2 ISZERO DUP3 DUP3 DIV DUP5 EQ OR PUSH2 0x968 JUMPI PUSH2 0x968 PUSH2 0xE8D JUMP INVALID LOG2 PUSH5 0x6970667358 0x22 SLT KECCAK256 0xCC 0xE0 0xE7 0xBD 0xE9 0xAA STATICCALL PUSH19 0x75F943E14584FC1590AD59E4EAC74E5AD97826 0xB3 0xD6 PUSH14 0x900E64736F6C6343000815003300 "},"methodIdentifiers":{"betsByRace(uint256,uint256)":"4f36ed09","claimWinnings(uint256,uint256)":"286db5c2","owner()":"8da5cb5b","placeBet(uint256,uint256[])":"30d14655","racingEvent()":"9d6d10da","renounceOwnership()":"715018a6","transferOwnership(address)":"f2fde38b"}}}}}