{"contracts/racing/HorseRacingEvent.sol":{"HorseRacingEvent":{"abi":[{"inputs":[{"internalType":"address","name":"_horsesNFTAddress","type":"address"}],"stateMutability":"nonpayable","type":"constructor"},{"anonymous":false,"inputs":[{"indexed":false,"internalType":"uint256","name":"raceId","type":"uint256"},{"indexed":false,"internalType":"address","name":"horseOwner","type":"address"},{"indexed":false,"internalType":"uint256","name":"horseId","type":"uint256"}],"name":"HorseEnteredRace","type":"event"},{"anonymous":false,"inputs":[{"indexed":false,"internalType":"uint256","name":"raceId","type":"uint256"},{"indexed":false,"internalType":"address","name":"horseOwner","type":"address"},{"indexed":false,"internalType":"uint256","name":"horseId","type":"uint256"}],"name":"HorseWithdrawn","type":"event"},{"anonymous":false,"inputs":[{"indexed":true,"internalType":"address","name":"previousOwner","type":"address"},{"indexed":true,"internalType":"address","name":"newOwner","type":"address"}],"name":"OwnershipTransferred","type":"event"},{"anonymous":false,"inputs":[{"indexed":false,"internalType":"uint256","name":"raceId","type":"uint256"},{"indexed":false,"internalType":"uint256","name":"entryFee","type":"uint256"},{"indexed":false,"internalType":"uint256","name":"numWinners","type":"uint256"},{"indexed":false,"internalType":"uint256[]","name":"prizeDistribution","type":"uint256[]"}],"name":"RaceCreated","type":"event"},{"anonymous":false,"inputs":[{"indexed":false,"internalType":"uint256","name":"raceId","type":"uint256"},{"indexed":false,"internalType":"uint256[]","name":"winningHorseId","type":"uint256[]"}],"name":"RaceEnded","type":"event"},{"anonymous":false,"inputs":[{"indexed":false,"internalType":"uint256","name":"raceId","type":"uint256"}],"name":"RaceStarted","type":"event"},{"inputs":[{"internalType":"uint256","name":"entryFee","type":"uint256"},{"internalType":"uint256","name":"numWinners","type":"uint256"},{"internalType":"uint256[]","name":"prizeDistribution","type":"uint256[]"}],"name":"createRace","outputs":[],"stateMutability":"nonpayable","type":"function"},{"inputs":[{"internalType":"uint256","name":"raceId","type":"uint256"},{"internalType":"uint256[]","name":"winningHorseIds","type":"uint256[]"}],"name":"endRace","outputs":[],"stateMutability":"nonpayable","type":"function"},{"inputs":[{"internalType":"uint256","name":"raceId","type":"uint256"},{"internalType":"uint256","name":"horseId","type":"uint256"}],"name":"enterHorseInRace","outputs":[],"stateMutability":"payable","type":"function"},{"inputs":[{"internalType":"uint256","name":"raceId","type":"uint256"}],"name":"getIsActiveRace","outputs":[{"internalType":"bool","name":"raceActive","type":"bool"}],"stateMutability":"view","type":"function"},{"inputs":[{"internalType":"uint256","name":"raceId","type":"uint256"}],"name":"getRaceResults","outputs":[{"internalType":"uint256[]","name":"","type":"uint256[]"}],"stateMutability":"view","type":"function"},{"inputs":[],"name":"horsesNFTContract","outputs":[{"internalType":"contract HorsesNFT","name":"","type":"address"}],"stateMutability":"view","type":"function"},{"inputs":[],"name":"nextRaceId","outputs":[{"internalType":"uint256","name":"","type":"uint256"}],"stateMutability":"view","type":"function"},{"inputs":[],"name":"owner","outputs":[{"internalType":"address","name":"","type":"address"}],"stateMutability":"view","type":"function"},{"inputs":[{"internalType":"uint256","name":"","type":"uint256"}],"name":"races","outputs":[{"internalType":"uint256","name":"raceId","type":"uint256"},{"internalType":"uint256","name":"entryFee","type":"uint256"},{"internalType":"uint256","name":"totalPrizePool","type":"uint256"},{"internalType":"uint256","name":"numWinners","type":"uint256"},{"internalType":"uint256","name":"minParticipants","type":"uint256"},{"internalType":"bool","name":"raceActive","type":"bool"},{"internalType":"bool","name":"raceStarted","type":"bool"}],"stateMutability":"view","type":"function"},{"inputs":[],"name":"renounceOwnership","outputs":[],"stateMutability":"nonpayable","type":"function"},{"inputs":[{"internalType":"uint256","name":"raceId","type":"uint256"}],"name":"startRace","outputs":[],"stateMutability":"nonpayable","type":"function"},{"inputs":[{"internalType":"address","name":"newOwner","type":"address"}],"name":"transferOwnership","outputs":[],"stateMutability":"nonpayable","type":"function"}],"evm":{"bytecode":{"linkReferences":{},"object":"6080604052600160035534801561001557600080fd5b50604051611308380380611308833981016040819052610034916100b2565b61003d33610062565b600180546001600160a01b0319166001600160a01b03929092169190911790556100e2565b600080546001600160a01b038381166001600160a01b0319831681178455604051919092169283917f8be0079c531659141344cd1fd0a4f28419497f9722a3daafe3b4186f6b6457e09190a35050565b6000602082840312156100c457600080fd5b81516001600160a01b03811681146100db57600080fd5b9392505050565b611217806100f16000396000f3fe6080604052600436106100a75760003560e01c8063924c855a11610064578063924c855a146101f5578063d9b8fd8f14610225578063e204761714610249578063f2fde38b14610269578063f76bdb1a14610289578063fa47723a146102b657600080fd5b80631316b05d146100ac57806324d822bf146100e9578063315aa38c1461010b578063715018a61461012b5780637bbc469e146101405780638da5cb5b146101d7575b600080fd5b3480156100b857600080fd5b506001546100cc906001600160a01b031681565b6040516001600160a01b0390911681526020015b60405180910390f35b3480156100f557600080fd5b50610109610104366004610e97565b6102c9565b005b34801561011757600080fd5b50610109610126366004610f61565b6103c3565b34801561013757600080fd5b50610109610661565b34801561014c57600080fd5b5061019e61015b366004610e97565b6002602081905260009182526040909120805460018201549282015460038301546005840154600690940154929493919290919060ff8082169161010090041687565b6040805197885260208801969096529486019390935260608501919091526080840152151560a0830152151560c082015260e0016100e0565b3480156101e357600080fd5b506000546001600160a01b03166100cc565b34801561020157600080fd5b50610215610210366004610e97565b610675565b60405190151581526020016100e0565b34801561023157600080fd5b5061023b60035481565b6040519081526020016100e0565b34801561025557600080fd5b50610109610264366004610fa8565b6106d7565b34801561027557600080fd5b5061010961028436600461100d565b610a1c565b34801561029557600080fd5b506102a96102a4366004610e97565b610a95565b6040516100e0919061106c565b6101096102c436600461107f565b610b55565b6102d1610d19565b6000818152600260205260409020600681015460ff1680156102fd57506006810154610100900460ff16155b6103225760405162461bcd60e51b8152600401610319906110a1565b60405180910390fd5b6005810154600882015410156103745760405162461bcd60e51b81526020600482015260176024820152764e6f7420656e6f756768207061727469636970616e747360481b6044820152606401610319565b60068101805461ff0019166101001790556040517fd8a537561d247cabc83980738b2fd3771513f9b3a4b696b3fead967d36efe7da906103b79084815260200190565b60405180910390a15050565b6103cb610d19565b60008281526002602052604090206006810154610100900460ff166104255760405162461bcd60e51b815260206004820152601060248201526f149858d9481b9bdd081cdd185c9d195960821b6044820152606401610319565b80600301548251146104795760405162461bcd60e51b815260206004820152601b60248201527f496e636f7272656374206e756d626572206f662077696e6e65727300000000006044820152606401610319565b6005810154600882015410156104cb5760405162461bcd60e51b81526020600482015260176024820152764e6f7420656e6f756768207061727469636970616e747360481b6044820152606401610319565b60068101805461ffff1916905581516104ed9060078301906020850190610e37565b50600060648260020154605061050391906110f9565b61050d9190611110565b905060005b8260030154811015610621576000606484600401838154811061053757610537611132565b90600052602060002001548461054d91906110f9565b6105579190611110565b9050600061057d86848151811061057057610570611132565b6020026020010151610d73565b90506001600160a01b0381166105d55760405162461bcd60e51b815260206004820152601860248201527f57696e6e6572206e6f7420666f756e6420696e207261636500000000000000006044820152606401610319565b6040516001600160a01b0382169083156108fc029084906000818181858888f1935050505015801561060b573d6000803e3d6000fd5b505050808061061990611148565b915050610512565b507f7aed510e5c2fdcd342c5cef991b106a3986e8d20d22e489ae5c9a0d18d5971528484604051610653929190611161565b60405180910390a150505050565b610669610d19565b6106736000610de7565b565b600060035482106106be5760405162461bcd60e51b8152602060048201526013602482015272149858d948191bd95cc81b9bdd08195e1a5cdd606a1b6044820152606401610319565b5060009081526002602052604090206006015460ff1690565b6106df610d19565b8051600090815b818110156107275783818151811061070057610700611132565b6020026020010151836107139190611182565b92508061071f81611148565b9150506106e6565b5060648211156107795760405162461bcd60e51b815260206004820152601f60248201527f546f74616c20646973747269627574696f6e20657863656564732031303025006044820152606401610319565b8381146107da5760405162461bcd60e51b815260206004820152602960248201527f446973747269627574696f6e206d757374206d61746368206e756d626572206f604482015268662077696e6e65727360b81b6064820152608401610319565b60146107e78560026110f9565b11156108355760405162461bcd60e51b815260206004820152601960248201527f4d6178207061727469636970616e7473206578636565646564000000000000006044820152606401610319565b60056108428560026110f9565b10156108905760405162461bcd60e51b815260206004820152601860248201527f4d696e207061727469636970616e7473206e6f74206d657400000000000000006044820152606401610319565b6040518061014001604052806003548152602001868152602001600081526020018581526020018481526020018560026108ca91906110f9565b81526001602080830182905260006040808501829052805182815280840182526060808701919091528151838152808501835260809687015260038054845260028086529383902088518155888601519681019690965591870151928501929092559085015190830155918301518051919261094e92600485019290910190610e37565b5060a0820151600582015560c082015160068201805460e085015161ffff1990911692151561ff00191692909217610100921515830217905582015180516109a0916007840191602090910190610e37565b5061012082015180516109bd916008840191602090910190610e37565b509050507fd353319d8f5cef7e55b32e749160eb2a2d9ee2076bea05ff3a44c760c39291056003548686866040516109f89493929190611195565b60405180910390a160038054906000610a1083611148565b91905055505050505050565b610a24610d19565b6001600160a01b038116610a895760405162461bcd60e51b815260206004820152602660248201527f4f776e61626c653a206e6577206f776e657220697320746865207a65726f206160448201526564647265737360d01b6064820152608401610319565b610a9281610de7565b50565b60008181526002602052604090206006015460609060ff16610af25760405162461bcd60e51b8152602060048201526016602482015275149858d9481a185cc81b9bdd08195b991959081e595d60521b6044820152606401610319565b60008281526002602090815260409182902060070180548351818402810184019094528084529091830182828015610b4957602002820191906000526020600020905b815481526020019060010190808311610b35575b50505050509050919050565b6000828152600260205260409020600681015460ff168015610b8157506006810154610100900460ff16155b610b9d5760405162461bcd60e51b8152600401610319906110a1565b6001546040516331a9108f60e11b81526004810184905233916001600160a01b031690636352211e90602401602060405180830381865afa158015610be6573d6000803e3d6000fd5b505050506040513d601f19601f82011682018060405250810190610c0a91906111c4565b6001600160a01b031614610c565760405162461bcd60e51b81526020600482015260136024820152722737ba103a3432903437b939b29037bbb732b960691b6044820152606401610319565b80600101543414610c9f5760405162461bcd60e51b8152602060048201526013602482015272496e636f727265637420656e7472792066656560681b6044820152606401610319565b34816002016000828254610cb39190611182565b909155505060088101805460018101825560009182526020918290200183905560408051858152339281019290925281018390527f9ce334b4c8b04bea9c08533da5d64964ae1e53e1c9152c5749044adad3f62b289060600160405180910390a1505050565b6000546001600160a01b031633146106735760405162461bcd60e51b815260206004820181905260248201527f4f776e61626c653a2063616c6c6572206973206e6f7420746865206f776e65726044820152606401610319565b6001546040516331a9108f60e11b8152600481018390526000916001600160a01b031690636352211e90602401602060405180830381865afa158015610dbd573d6000803e3d6000fd5b505050506040513d601f19601f82011682018060405250810190610de191906111c4565b92915050565b600080546001600160a01b038381166001600160a01b0319831681178455604051919092169283917f8be0079c531659141344cd1fd0a4f28419497f9722a3daafe3b4186f6b6457e09190a35050565b828054828255906000526020600020908101928215610e72579160200282015b82811115610e72578251825591602001919060010190610e57565b50610e7e929150610e82565b5090565b5b80821115610e7e5760008155600101610e83565b600060208284031215610ea957600080fd5b5035919050565b634e487b7160e01b600052604160045260246000fd5b600082601f830112610ed757600080fd5b8135602067ffffffffffffffff80831115610ef457610ef4610eb0565b8260051b604051601f19603f83011681018181108482111715610f1957610f19610eb0565b604052938452858101830193838101925087851115610f3757600080fd5b83870191505b84821015610f5657813583529183019190830190610f3d565b979650505050505050565b60008060408385031215610f7457600080fd5b82359150602083013567ffffffffffffffff811115610f9257600080fd5b610f9e85828601610ec6565b9150509250929050565b600080600060608486031215610fbd57600080fd5b8335925060208401359150604084013567ffffffffffffffff811115610fe257600080fd5b610fee86828701610ec6565b9150509250925092565b6001600160a01b0381168114610a9257600080fd5b60006020828403121561101f57600080fd5b813561102a81610ff8565b9392505050565b600081518084526020808501945080840160005b8381101561106157815187529582019590820190600101611045565b509495945050505050565b60208152600061102a6020830184611031565b6000806040838503121561109257600080fd5b50508035926020909101359150565b60208082526022908201527f52616365206e6f7420616374697665206f7220616c7265616479207374617274604082015261195960f21b606082015260800190565b634e487b7160e01b600052601160045260246000fd5b8082028115828204841417610de157610de16110e3565b60008261112d57634e487b7160e01b600052601260045260246000fd5b500490565b634e487b7160e01b600052603260045260246000fd5b60006001820161115a5761115a6110e3565b5060010190565b82815260406020820152600061117a6040830184611031565b949350505050565b80820180821115610de157610de16110e3565b8481528360208201528260408201526080606082015260006111ba6080830184611031565b9695505050505050565b6000602082840312156111d657600080fd5b815161102a81610ff856fea26469706673582212202b055ca7ba71d90663ff3237530cd831f24b567c045e68f15212d77c6cecdc0d64736f6c63430008150033","opcodes":"PUSH1 0x80 PUSH1 0x40 MSTORE PUSH1 0x1 PUSH1 0x3 SSTORE CALLVALUE DUP1 ISZERO PUSH2 0x15 JUMPI PUSH1 0x0 DUP1 REVERT JUMPDEST POP PUSH1 0x40 MLOAD PUSH2 0x1308 CODESIZE SUB DUP1 PUSH2 0x1308 DUP4 CODECOPY DUP2 ADD PUSH1 0x40 DUP2 SWAP1 MSTORE PUSH2 0x34 SWAP2 PUSH2 0xB2 JUMP JUMPDEST PUSH2 0x3D CALLER PUSH2 0x62 JUMP JUMPDEST PUSH1 0x1 DUP1 SLOAD PUSH1 0x1 PUSH1 0x1 PUSH1 0xA0 SHL SUB NOT AND PUSH1 0x1 PUSH1 0x1 PUSH1 0xA0 SHL SUB SWAP3 SWAP1 SWAP3 AND SWAP2 SWAP1 SWAP2 OR SWAP1 SSTORE PUSH2 0xE2 JUMP JUMPDEST PUSH1 0x0 DUP1 SLOAD PUSH1 0x1 PUSH1 0x1 PUSH1 0xA0 SHL SUB DUP4 DUP2 AND PUSH1 0x1 PUSH1 0x1 PUSH1 0xA0 SHL SUB NOT DUP4 AND DUP2 OR DUP5 SSTORE PUSH1 0x40 MLOAD SWAP2 SWAP1 SWAP3 AND SWAP3 DUP4 SWAP2 PUSH32 0x8BE0079C531659141344CD1FD0A4F28419497F9722A3DAAFE3B4186F6B6457E0 SWAP2 SWAP1 LOG3 POP POP JUMP JUMPDEST PUSH1 0x0 PUSH1 0x20 DUP3 DUP5 SUB SLT ISZERO PUSH2 0xC4 JUMPI PUSH1 0x0 DUP1 REVERT JUMPDEST DUP2 MLOAD PUSH1 0x1 PUSH1 0x1 PUSH1 0xA0 SHL SUB DUP2 AND DUP2 EQ PUSH2 0xDB JUMPI PUSH1 0x0 DUP1 REVERT JUMPDEST SWAP4 SWAP3 POP POP POP JUMP JUMPDEST PUSH2 0x1217 DUP1 PUSH2 0xF1 PUSH1 0x0 CODECOPY PUSH1 0x0 RETURN INVALID PUSH1 0x80 PUSH1 0x40 MSTORE PUSH1 0x4 CALLDATASIZE LT PUSH2 0xA7 JUMPI PUSH1 0x0 CALLDATALOAD PUSH1 0xE0 SHR DUP1 PUSH4 0x924C855A GT PUSH2 0x64 JUMPI DUP1 PUSH4 0x924C855A EQ PUSH2 0x1F5 JUMPI DUP1 PUSH4 0xD9B8FD8F EQ PUSH2 0x225 JUMPI DUP1 PUSH4 0xE2047617 EQ PUSH2 0x249 JUMPI DUP1 PUSH4 0xF2FDE38B EQ PUSH2 0x269 JUMPI DUP1 PUSH4 0xF76BDB1A EQ PUSH2 0x289 JUMPI DUP1 PUSH4 0xFA47723A EQ PUSH2 0x2B6 JUMPI PUSH1 0x0 DUP1 REVERT JUMPDEST DUP1 PUSH4 0x1316B05D EQ PUSH2 0xAC JUMPI DUP1 PUSH4 0x24D822BF EQ PUSH2 0xE9 JUMPI DUP1 PUSH4 0x315AA38C EQ PUSH2 0x10B JUMPI DUP1 PUSH4 0x715018A6 EQ PUSH2 0x12B JUMPI DUP1 PUSH4 0x7BBC469E EQ PUSH2 0x140 JUMPI DUP1 PUSH4 0x8DA5CB5B EQ PUSH2 0x1D7 JUMPI JUMPDEST PUSH1 0x0 DUP1 REVERT JUMPDEST CALLVALUE DUP1 ISZERO PUSH2 0xB8 JUMPI PUSH1 0x0 DUP1 REVERT JUMPDEST POP PUSH1 0x1 SLOAD PUSH2 0xCC SWAP1 PUSH1 0x1 PUSH1 0x1 PUSH1 0xA0 SHL SUB AND DUP2 JUMP JUMPDEST PUSH1 0x40 MLOAD PUSH1 0x1 PUSH1 0x1 PUSH1 0xA0 SHL SUB SWAP1 SWAP2 AND DUP2 MSTORE PUSH1 0x20 ADD JUMPDEST PUSH1 0x40 MLOAD DUP1 SWAP2 SUB SWAP1 RETURN JUMPDEST CALLVALUE DUP1 ISZERO PUSH2 0xF5 JUMPI PUSH1 0x0 DUP1 REVERT JUMPDEST POP PUSH2 0x109 PUSH2 0x104 CALLDATASIZE PUSH1 0x4 PUSH2 0xE97 JUMP JUMPDEST PUSH2 0x2C9 JUMP JUMPDEST STOP JUMPDEST CALLVALUE DUP1 ISZERO PUSH2 0x117 JUMPI PUSH1 0x0 DUP1 REVERT JUMPDEST POP PUSH2 0x109 PUSH2 0x126 CALLDATASIZE PUSH1 0x4 PUSH2 0xF61 JUMP JUMPDEST PUSH2 0x3C3 JUMP JUMPDEST CALLVALUE DUP1 ISZERO PUSH2 0x137 JUMPI PUSH1 0x0 DUP1 REVERT JUMPDEST POP PUSH2 0x109 PUSH2 0x661 JUMP JUMPDEST CALLVALUE DUP1 ISZERO PUSH2 0x14C JUMPI PUSH1 0x0 DUP1 REVERT JUMPDEST POP PUSH2 0x19E PUSH2 0x15B CALLDATASIZE PUSH1 0x4 PUSH2 0xE97 JUMP JUMPDEST PUSH1 0x2 PUSH1 0x20 DUP2 SWAP1 MSTORE PUSH1 0x0 SWAP2 DUP3 MSTORE PUSH1 0x40 SWAP1 SWAP2 KECCAK256 DUP1 SLOAD PUSH1 0x1 DUP3 ADD SLOAD SWAP3 DUP3 ADD SLOAD PUSH1 0x3 DUP4 ADD SLOAD PUSH1 0x5 DUP5 ADD SLOAD PUSH1 0x6 SWAP1 SWAP5 ADD SLOAD SWAP3 SWAP5 SWAP4 SWAP2 SWAP3 SWAP1 SWAP2 SWAP1 PUSH1 0xFF DUP1 DUP3 AND SWAP2 PUSH2 0x100 SWAP1 DIV AND DUP8 JUMP JUMPDEST PUSH1 0x40 DUP1 MLOAD SWAP8 DUP9 MSTORE PUSH1 0x20 DUP9 ADD SWAP7 SWAP1 SWAP7 MSTORE SWAP5 DUP7 ADD SWAP4 SWAP1 SWAP4 MSTORE PUSH1 0x60 DUP6 ADD SWAP2 SWAP1 SWAP2 MSTORE PUSH1 0x80 DUP5 ADD MSTORE ISZERO ISZERO PUSH1 0xA0 DUP4 ADD MSTORE ISZERO ISZERO PUSH1 0xC0 DUP3 ADD MSTORE PUSH1 0xE0 ADD PUSH2 0xE0 JUMP JUMPDEST CALLVALUE DUP1 ISZERO PUSH2 0x1E3 JUMPI PUSH1 0x0 DUP1 REVERT JUMPDEST POP PUSH1 0x0 SLOAD PUSH1 0x1 PUSH1 0x1 PUSH1 0xA0 SHL SUB AND PUSH2 0xCC JUMP JUMPDEST CALLVALUE DUP1 ISZERO PUSH2 0x201 JUMPI PUSH1 0x0 DUP1 REVERT JUMPDEST POP PUSH2 0x215 PUSH2 0x210 CALLDATASIZE PUSH1 0x4 PUSH2 0xE97 JUMP JUMPDEST PUSH2 0x675 JUMP JUMPDEST PUSH1 0x40 MLOAD SWAP1 ISZERO ISZERO DUP2 MSTORE PUSH1 0x20 ADD PUSH2 0xE0 JUMP JUMPDEST CALLVALUE DUP1 ISZERO PUSH2 0x231 JUMPI PUSH1 0x0 DUP1 REVERT JUMPDEST POP PUSH2 0x23B PUSH1 0x3 SLOAD DUP2 JUMP JUMPDEST PUSH1 0x40 MLOAD SWAP1 DUP2 MSTORE PUSH1 0x20 ADD PUSH2 0xE0 JUMP JUMPDEST CALLVALUE DUP1 ISZERO PUSH2 0x255 JUMPI PUSH1 0x0 DUP1 REVERT JUMPDEST POP PUSH2 0x109 PUSH2 0x264 CALLDATASIZE PUSH1 0x4 PUSH2 0xFA8 JUMP JUMPDEST PUSH2 0x6D7 JUMP JUMPDEST CALLVALUE DUP1 ISZERO PUSH2 0x275 JUMPI PUSH1 0x0 DUP1 REVERT JUMPDEST POP PUSH2 0x109 PUSH2 0x284 CALLDATASIZE PUSH1 0x4 PUSH2 0x100D JUMP JUMPDEST PUSH2 0xA1C JUMP JUMPDEST CALLVALUE DUP1 ISZERO PUSH2 0x295 JUMPI PUSH1 0x0 DUP1 REVERT JUMPDEST POP PUSH2 0x2A9 PUSH2 0x2A4 CALLDATASIZE PUSH1 0x4 PUSH2 0xE97 JUMP JUMPDEST PUSH2 0xA95 JUMP JUMPDEST PUSH1 0x40 MLOAD PUSH2 0xE0 SWAP2 SWAP1 PUSH2 0x106C JUMP JUMPDEST PUSH2 0x109 PUSH2 0x2C4 CALLDATASIZE PUSH1 0x4 PUSH2 0x107F JUMP JUMPDEST PUSH2 0xB55 JUMP JUMPDEST PUSH2 0x2D1 PUSH2 0xD19 JUMP JUMPDEST PUSH1 0x0 DUP2 DUP2 MSTORE PUSH1 0x2 PUSH1 0x20 MSTORE PUSH1 0x40 SWAP1 KECCAK256 PUSH1 0x6 DUP2 ADD SLOAD PUSH1 0xFF AND DUP1 ISZERO PUSH2 0x2FD JUMPI POP PUSH1 0x6 DUP2 ADD SLOAD PUSH2 0x100 SWAP1 DIV PUSH1 0xFF AND ISZERO JUMPDEST PUSH2 0x322 JUMPI PUSH1 0x40 MLOAD PUSH3 0x461BCD PUSH1 0xE5 SHL DUP2 MSTORE PUSH1 0x4 ADD PUSH2 0x319 SWAP1 PUSH2 0x10A1 JUMP JUMPDEST PUSH1 0x40 MLOAD DUP1 SWAP2 SUB SWAP1 REVERT JUMPDEST PUSH1 0x5 DUP2 ADD SLOAD PUSH1 0x8 DUP3 ADD SLOAD LT ISZERO PUSH2 0x374 JUMPI PUSH1 0x40 MLOAD PUSH3 0x461BCD PUSH1 0xE5 SHL DUP2 MSTORE PUSH1 0x20 PUSH1 0x4 DUP3 ADD MSTORE PUSH1 0x17 PUSH1 0x24 DUP3 ADD MSTORE PUSH23 0x4E6F7420656E6F756768207061727469636970616E7473 PUSH1 0x48 SHL PUSH1 0x44 DUP3 ADD MSTORE PUSH1 0x64 ADD PUSH2 0x319 JUMP JUMPDEST PUSH1 0x6 DUP2 ADD DUP1 SLOAD PUSH2 0xFF00 NOT AND PUSH2 0x100 OR SWAP1 SSTORE PUSH1 0x40 MLOAD PUSH32 0xD8A537561D247CABC83980738B2FD3771513F9B3A4B696B3FEAD967D36EFE7DA SWAP1 PUSH2 0x3B7 SWAP1 DUP5 DUP2 MSTORE PUSH1 0x20 ADD SWAP1 JUMP JUMPDEST PUSH1 0x40 MLOAD DUP1 SWAP2 SUB SWAP1 LOG1 POP POP JUMP JUMPDEST PUSH2 0x3CB PUSH2 0xD19 JUMP JUMPDEST PUSH1 0x0 DUP3 DUP2 MSTORE PUSH1 0x2 PUSH1 0x20 MSTORE PUSH1 0x40 SWAP1 KECCAK256 PUSH1 0x6 DUP2 ADD SLOAD PUSH2 0x100 SWAP1 DIV PUSH1 0xFF AND PUSH2 0x425 JUMPI PUSH1 0x40 MLOAD PUSH3 0x461BCD PUSH1 0xE5 SHL DUP2 MSTORE PUSH1 0x20 PUSH1 0x4 DUP3 ADD MSTORE PUSH1 0x10 PUSH1 0x24 DUP3 ADD MSTORE PUSH16 0x149858D9481B9BDD081CDD185C9D1959 PUSH1 0x82 SHL PUSH1 0x44 DUP3 ADD MSTORE PUSH1 0x64 ADD PUSH2 0x319 JUMP JUMPDEST DUP1 PUSH1 0x3 ADD SLOAD DUP3 MLOAD EQ PUSH2 0x479 JUMPI PUSH1 0x40 MLOAD PUSH3 0x461BCD PUSH1 0xE5 SHL DUP2 MSTORE PUSH1 0x20 PUSH1 0x4 DUP3 ADD MSTORE PUSH1 0x1B PUSH1 0x24 DUP3 ADD MSTORE PUSH32 0x496E636F7272656374206E756D626572206F662077696E6E6572730000000000 PUSH1 0x44 DUP3 ADD MSTORE PUSH1 0x64 ADD PUSH2 0x319 JUMP JUMPDEST PUSH1 0x5 DUP2 ADD SLOAD PUSH1 0x8 DUP3 ADD SLOAD LT ISZERO PUSH2 0x4CB JUMPI PUSH1 0x40 MLOAD PUSH3 0x461BCD PUSH1 0xE5 SHL DUP2 MSTORE PUSH1 0x20 PUSH1 0x4 DUP3 ADD MSTORE PUSH1 0x17 PUSH1 0x24 DUP3 ADD MSTORE PUSH23 0x4E6F7420656E6F756768207061727469636970616E7473 PUSH1 0x48 SHL PUSH1 0x44 DUP3 ADD MSTORE PUSH1 0x64 ADD PUSH2 0x319 JUMP JUMPDEST PUSH1 0x6 DUP2 ADD DUP1 SLOAD PUSH2 0xFFFF NOT AND SWAP1 SSTORE DUP2 MLOAD PUSH2 0x4ED SWAP1 PUSH1 0x7 DUP4 ADD SWAP1 PUSH1 0x20 DUP6 ADD SWAP1 PUSH2 0xE37 JUMP JUMPDEST POP PUSH1 0x0 PUSH1 0x64 DUP3 PUSH1 0x2 ADD SLOAD PUSH1 0x50 PUSH2 0x503 SWAP2 SWAP1 PUSH2 0x10F9 JUMP JUMPDEST PUSH2 0x50D SWAP2 SWAP1 PUSH2 0x1110 JUMP JUMPDEST SWAP1 POP PUSH1 0x0 JUMPDEST DUP3 PUSH1 0x3 ADD SLOAD DUP2 LT ISZERO PUSH2 0x621 JUMPI PUSH1 0x0 PUSH1 0x64 DUP5 PUSH1 0x4 ADD DUP4 DUP2 SLOAD DUP2 LT PUSH2 0x537 JUMPI PUSH2 0x537 PUSH2 0x1132 JUMP JUMPDEST SWAP1 PUSH1 0x0 MSTORE PUSH1 0x20 PUSH1 0x0 KECCAK256 ADD SLOAD DUP5 PUSH2 0x54D SWAP2 SWAP1 PUSH2 0x10F9 JUMP JUMPDEST PUSH2 0x557 SWAP2 SWAP1 PUSH2 0x1110 JUMP JUMPDEST SWAP1 POP PUSH1 0x0 PUSH2 0x57D DUP7 DUP5 DUP2 MLOAD DUP2 LT PUSH2 0x570 JUMPI PUSH2 0x570 PUSH2 0x1132 JUMP JUMPDEST PUSH1 0x20 MUL PUSH1 0x20 ADD ADD MLOAD PUSH2 0xD73 JUMP JUMPDEST SWAP1 POP PUSH1 0x1 PUSH1 0x1 PUSH1 0xA0 SHL SUB DUP2 AND PUSH2 0x5D5 JUMPI PUSH1 0x40 MLOAD PUSH3 0x461BCD PUSH1 0xE5 SHL DUP2 MSTORE PUSH1 0x20 PUSH1 0x4 DUP3 ADD MSTORE PUSH1 0x18 PUSH1 0x24 DUP3 ADD MSTORE PUSH32 0x57696E6E6572206E6F7420666F756E6420696E20726163650000000000000000 PUSH1 0x44 DUP3 ADD MSTORE PUSH1 0x64 ADD PUSH2 0x319 JUMP JUMPDEST PUSH1 0x40 MLOAD PUSH1 0x1 PUSH1 0x1 PUSH1 0xA0 SHL SUB DUP3 AND SWAP1 DUP4 ISZERO PUSH2 0x8FC MUL SWAP1 DUP5 SWAP1 PUSH1 0x0 DUP2 DUP2 DUP2 DUP6 DUP9 DUP9 CALL SWAP4 POP POP POP POP ISZERO DUP1 ISZERO PUSH2 0x60B JUMPI RETURNDATASIZE PUSH1 0x0 DUP1 RETURNDATACOPY RETURNDATASIZE PUSH1 0x0 REVERT JUMPDEST POP POP POP DUP1 DUP1 PUSH2 0x619 SWAP1 PUSH2 0x1148 JUMP JUMPDEST SWAP2 POP POP PUSH2 0x512 JUMP JUMPDEST POP PUSH32 0x7AED510E5C2FDCD342C5CEF991B106A3986E8D20D22E489AE5C9A0D18D597152 DUP5 DUP5 PUSH1 0x40 MLOAD PUSH2 0x653 SWAP3 SWAP2 SWAP1 PUSH2 0x1161 JUMP JUMPDEST PUSH1 0x40 MLOAD DUP1 SWAP2 SUB SWAP1 LOG1 POP POP POP POP JUMP JUMPDEST PUSH2 0x669 PUSH2 0xD19 JUMP JUMPDEST PUSH2 0x673 PUSH1 0x0 PUSH2 0xDE7 JUMP JUMPDEST JUMP JUMPDEST PUSH1 0x0 PUSH1 0x3 SLOAD DUP3 LT PUSH2 0x6BE JUMPI PUSH1 0x40 MLOAD PUSH3 0x461BCD PUSH1 0xE5 SHL DUP2 MSTORE PUSH1 0x20 PUSH1 0x4 DUP3 ADD MSTORE PUSH1 0x13 PUSH1 0x24 DUP3 ADD MSTORE PUSH19 0x149858D948191BD95CC81B9BDD08195E1A5CDD PUSH1 0x6A SHL PUSH1 0x44 DUP3 ADD MSTORE PUSH1 0x64 ADD PUSH2 0x319 JUMP JUMPDEST POP PUSH1 0x0 SWAP1 DUP2 MSTORE PUSH1 0x2 PUSH1 0x20 MSTORE PUSH1 0x40 SWAP1 KECCAK256 PUSH1 0x6 ADD SLOAD PUSH1 0xFF AND SWAP1 JUMP JUMPDEST PUSH2 0x6DF PUSH2 0xD19 JUMP JUMPDEST DUP1 MLOAD PUSH1 0x0 SWAP1 DUP2 JUMPDEST DUP2 DUP2 LT ISZERO PUSH2 0x727 JUMPI DUP4 DUP2 DUP2 MLOAD DUP2 LT PUSH2 0x700 JUMPI PUSH2 0x700 PUSH2 0x1132 JUMP JUMPDEST PUSH1 0x20 MUL PUSH1 0x20 ADD ADD MLOAD DUP4 PUSH2 0x713 SWAP2 SWAP1 PUSH2 0x1182 JUMP JUMPDEST SWAP3 POP DUP1 PUSH2 0x71F DUP2 PUSH2 0x1148 JUMP JUMPDEST SWAP2 POP POP PUSH2 0x6E6 JUMP JUMPDEST POP PUSH1 0x64 DUP3 GT ISZERO PUSH2 0x779 JUMPI PUSH1 0x40 MLOAD PUSH3 0x461BCD PUSH1 0xE5 SHL DUP2 MSTORE PUSH1 0x20 PUSH1 0x4 DUP3 ADD MSTORE PUSH1 0x1F PUSH1 0x24 DUP3 ADD MSTORE PUSH32 0x546F74616C20646973747269627574696F6E2065786365656473203130302500 PUSH1 0x44 DUP3 ADD MSTORE PUSH1 0x64 ADD PUSH2 0x319 JUMP JUMPDEST DUP4 DUP2 EQ PUSH2 0x7DA JUMPI PUSH1 0x40 MLOAD PUSH3 0x461BCD PUSH1 0xE5 SHL DUP2 MSTORE PUSH1 0x20 PUSH1 0x4 DUP3 ADD MSTORE PUSH1 0x29 PUSH1 0x24 DUP3 ADD MSTORE PUSH32 0x446973747269627574696F6E206D757374206D61746368206E756D626572206F PUSH1 0x44 DUP3 ADD MSTORE PUSH9 0x662077696E6E657273 PUSH1 0xB8 SHL PUSH1 0x64 DUP3 ADD MSTORE PUSH1 0x84 ADD PUSH2 0x319 JUMP JUMPDEST PUSH1 0x14 PUSH2 0x7E7 DUP6 PUSH1 0x2 PUSH2 0x10F9 JUMP JUMPDEST GT ISZERO PUSH2 0x835 JUMPI PUSH1 0x40 MLOAD PUSH3 0x461BCD PUSH1 0xE5 SHL DUP2 MSTORE PUSH1 0x20 PUSH1 0x4 DUP3 ADD MSTORE PUSH1 0x19 PUSH1 0x24 DUP3 ADD MSTORE PUSH32 0x4D6178207061727469636970616E747320657863656564656400000000000000 PUSH1 0x44 DUP3 ADD MSTORE PUSH1 0x64 ADD PUSH2 0x319 JUMP JUMPDEST PUSH1 0x5 PUSH2 0x842 DUP6 PUSH1 0x2 PUSH2 0x10F9 JUMP JUMPDEST LT ISZERO PUSH2 0x890 JUMPI PUSH1 0x40 MLOAD PUSH3 0x461BCD PUSH1 0xE5 SHL DUP2 MSTORE PUSH1 0x20 PUSH1 0x4 DUP3 ADD MSTORE PUSH1 0x18 PUSH1 0x24 DUP3 ADD MSTORE PUSH32 0x4D696E207061727469636970616E7473206E6F74206D65740000000000000000 PUSH1 0x44 DUP3 ADD MSTORE PUSH1 0x64 ADD PUSH2 0x319 JUMP JUMPDEST PUSH1 0x40 MLOAD DUP1 PUSH2 0x140 ADD PUSH1 0x40 MSTORE DUP1 PUSH1 0x3 SLOAD DUP2 MSTORE PUSH1 0x20 ADD DUP7 DUP2 MSTORE PUSH1 0x20 ADD PUSH1 0x0 DUP2 MSTORE PUSH1 0x20 ADD DUP6 DUP2 MSTORE PUSH1 0x20 ADD DUP5 DUP2 MSTORE PUSH1 0x20 ADD DUP6 PUSH1 0x2 PUSH2 0x8CA SWAP2 SWAP1 PUSH2 0x10F9 JUMP JUMPDEST DUP2 MSTORE PUSH1 0x1 PUSH1 0x20 DUP1 DUP4 ADD DUP3 SWAP1 MSTORE PUSH1 0x0 PUSH1 0x40 DUP1 DUP6 ADD DUP3 SWAP1 MSTORE DUP1 MLOAD DUP3 DUP2 MSTORE DUP1 DUP5 ADD DUP3 MSTORE PUSH1 0x60 DUP1 DUP8 ADD SWAP2 SWAP1 SWAP2 MSTORE DUP2 MLOAD DUP4 DUP2 MSTORE DUP1 DUP6 ADD DUP4 MSTORE PUSH1 0x80 SWAP7 DUP8 ADD MSTORE PUSH1 0x3 DUP1 SLOAD DUP5 MSTORE PUSH1 0x2 DUP1 DUP7 MSTORE SWAP4 DUP4 SWAP1 KECCAK256 DUP9 MLOAD DUP2 SSTORE DUP9 DUP7 ADD MLOAD SWAP7 DUP2 ADD SWAP7 SWAP1 SWAP7 SSTORE SWAP2 DUP8 ADD MLOAD SWAP3 DUP6 ADD SWAP3 SWAP1 SWAP3 SSTORE SWAP1 DUP6 ADD MLOAD SWAP1 DUP4 ADD SSTORE SWAP2 DUP4 ADD MLOAD DUP1 MLOAD SWAP2 SWAP3 PUSH2 0x94E SWAP3 PUSH1 0x4 DUP6 ADD SWAP3 SWAP1 SWAP2 ADD SWAP1 PUSH2 0xE37 JUMP JUMPDEST POP PUSH1 0xA0 DUP3 ADD MLOAD PUSH1 0x5 DUP3 ADD SSTORE PUSH1 0xC0 DUP3 ADD MLOAD PUSH1 0x6 DUP3 ADD DUP1 SLOAD PUSH1 0xE0 DUP6 ADD MLOAD PUSH2 0xFFFF NOT SWAP1 SWAP2 AND SWAP3 ISZERO ISZERO PUSH2 0xFF00 NOT AND SWAP3 SWAP1 SWAP3 OR PUSH2 0x100 SWAP3 ISZERO ISZERO DUP4 MUL OR SWAP1 SSTORE DUP3 ADD MLOAD DUP1 MLOAD PUSH2 0x9A0 SWAP2 PUSH1 0x7 DUP5 ADD SWAP2 PUSH1 0x20 SWAP1 SWAP2 ADD SWAP1 PUSH2 0xE37 JUMP JUMPDEST POP PUSH2 0x120 DUP3 ADD MLOAD DUP1 MLOAD PUSH2 0x9BD SWAP2 PUSH1 0x8 DUP5 ADD SWAP2 PUSH1 0x20 SWAP1 SWAP2 ADD SWAP1 PUSH2 0xE37 JUMP JUMPDEST POP SWAP1 POP POP PUSH32 0xD353319D8F5CEF7E55B32E749160EB2A2D9EE2076BEA05FF3A44C760C3929105 PUSH1 0x3 SLOAD DUP7 DUP7 DUP7 PUSH1 0x40 MLOAD PUSH2 0x9F8 SWAP5 SWAP4 SWAP3 SWAP2 SWAP1 PUSH2 0x1195 JUMP JUMPDEST PUSH1 0x40 MLOAD DUP1 SWAP2 SUB SWAP1 LOG1 PUSH1 0x3 DUP1 SLOAD SWAP1 PUSH1 0x0 PUSH2 0xA10 DUP4 PUSH2 0x1148 JUMP JUMPDEST SWAP2 SWAP1 POP SSTORE POP POP POP POP POP POP JUMP JUMPDEST PUSH2 0xA24 PUSH2 0xD19 JUMP JUMPDEST PUSH1 0x1 PUSH1 0x1 PUSH1 0xA0 SHL SUB DUP2 AND PUSH2 0xA89 JUMPI PUSH1 0x40 MLOAD PUSH3 0x461BCD PUSH1 0xE5 SHL DUP2 MSTORE PUSH1 0x20 PUSH1 0x4 DUP3 ADD MSTORE PUSH1 0x26 PUSH1 0x24 DUP3 ADD MSTORE PUSH32 0x4F776E61626C653A206E6577206F776E657220697320746865207A65726F2061 PUSH1 0x44 DUP3 ADD MSTORE PUSH6 0x646472657373 PUSH1 0xD0 SHL PUSH1 0x64 DUP3 ADD MSTORE PUSH1 0x84 ADD PUSH2 0x319 JUMP JUMPDEST PUSH2 0xA92 DUP2 PUSH2 0xDE7 JUMP JUMPDEST POP JUMP JUMPDEST PUSH1 0x0 DUP2 DUP2 MSTORE PUSH1 0x2 PUSH1 0x20 MSTORE PUSH1 0x40 SWAP1 KECCAK256 PUSH1 0x6 ADD SLOAD PUSH1 0x60 SWAP1 PUSH1 0xFF AND PUSH2 0xAF2 JUMPI PUSH1 0x40 MLOAD PUSH3 0x461BCD PUSH1 0xE5 SHL DUP2 MSTORE PUSH1 0x20 PUSH1 0x4 DUP3 ADD MSTORE PUSH1 0x16 PUSH1 0x24 DUP3 ADD MSTORE PUSH22 0x149858D9481A185CC81B9BDD08195B991959081E595D PUSH1 0x52 SHL PUSH1 0x44 DUP3 ADD MSTORE PUSH1 0x64 ADD PUSH2 0x319 JUMP JUMPDEST PUSH1 0x0 DUP3 DUP2 MSTORE PUSH1 0x2 PUSH1 0x20 SWAP1 DUP2 MSTORE PUSH1 0x40 SWAP2 DUP3 SWAP1 KECCAK256 PUSH1 0x7 ADD DUP1 SLOAD DUP4 MLOAD DUP2 DUP5 MUL DUP2 ADD DUP5 ADD SWAP1 SWAP5 MSTORE DUP1 DUP5 MSTORE SWAP1 SWAP2 DUP4 ADD DUP3 DUP3 DUP1 ISZERO PUSH2 0xB49 JUMPI PUSH1 0x20 MUL DUP3 ADD SWAP2 SWAP1 PUSH1 0x0 MSTORE PUSH1 0x20 PUSH1 0x0 KECCAK256 SWAP1 JUMPDEST DUP2 SLOAD DUP2 MSTORE PUSH1 0x20 ADD SWAP1 PUSH1 0x1 ADD SWAP1 DUP1 DUP4 GT PUSH2 0xB35 JUMPI JUMPDEST POP POP POP POP POP SWAP1 POP SWAP2 SWAP1 POP JUMP JUMPDEST PUSH1 0x0 DUP3 DUP2 MSTORE PUSH1 0x2 PUSH1 0x20 MSTORE PUSH1 0x40 SWAP1 KECCAK256 PUSH1 0x6 DUP2 ADD SLOAD PUSH1 0xFF AND DUP1 ISZERO PUSH2 0xB81 JUMPI POP PUSH1 0x6 DUP2 ADD SLOAD PUSH2 0x100 SWAP1 DIV PUSH1 0xFF AND ISZERO JUMPDEST PUSH2 0xB9D JUMPI PUSH1 0x40 MLOAD PUSH3 0x461BCD PUSH1 0xE5 SHL DUP2 MSTORE PUSH1 0x4 ADD PUSH2 0x319 SWAP1 PUSH2 0x10A1 JUMP JUMPDEST PUSH1 0x1 SLOAD PUSH1 0x40 MLOAD PUSH4 0x31A9108F PUSH1 0xE1 SHL DUP2 MSTORE PUSH1 0x4 DUP2 ADD DUP5 SWAP1 MSTORE CALLER SWAP2 PUSH1 0x1 PUSH1 0x1 PUSH1 0xA0 SHL SUB AND SWAP1 PUSH4 0x6352211E SWAP1 PUSH1 0x24 ADD PUSH1 0x20 PUSH1 0x40 MLOAD DUP1 DUP4 SUB DUP2 DUP7 GAS STATICCALL ISZERO DUP1 ISZERO PUSH2 0xBE6 JUMPI RETURNDATASIZE PUSH1 0x0 DUP1 RETURNDATACOPY RETURNDATASIZE PUSH1 0x0 REVERT JUMPDEST POP POP POP POP PUSH1 0x40 MLOAD RETURNDATASIZE PUSH1 0x1F NOT PUSH1 0x1F DUP3 ADD AND DUP3 ADD DUP1 PUSH1 0x40 MSTORE POP DUP2 ADD SWAP1 PUSH2 0xC0A SWAP2 SWAP1 PUSH2 0x11C4 JUMP JUMPDEST PUSH1 0x1 PUSH1 0x1 PUSH1 0xA0 SHL SUB AND EQ PUSH2 0xC56 JUMPI PUSH1 0x40 MLOAD PUSH3 0x461BCD PUSH1 0xE5 SHL DUP2 MSTORE PUSH1 0x20 PUSH1 0x4 DUP3 ADD MSTORE PUSH1 0x13 PUSH1 0x24 DUP3 ADD MSTORE PUSH19 0x2737BA103A3432903437B939B29037BBB732B9 PUSH1 0x69 SHL PUSH1 0x44 DUP3 ADD MSTORE PUSH1 0x64 ADD PUSH2 0x319 JUMP JUMPDEST DUP1 PUSH1 0x1 ADD SLOAD CALLVALUE EQ PUSH2 0xC9F JUMPI PUSH1 0x40 MLOAD PUSH3 0x461BCD PUSH1 0xE5 SHL DUP2 MSTORE PUSH1 0x20 PUSH1 0x4 DUP3 ADD MSTORE PUSH1 0x13 PUSH1 0x24 DUP3 ADD MSTORE PUSH19 0x496E636F727265637420656E74727920666565 PUSH1 0x68 SHL PUSH1 0x44 DUP3 ADD MSTORE PUSH1 0x64 ADD PUSH2 0x319 JUMP JUMPDEST CALLVALUE DUP2 PUSH1 0x2 ADD PUSH1 0x0 DUP3 DUP3 SLOAD PUSH2 0xCB3 SWAP2 SWAP1 PUSH2 0x1182 JUMP JUMPDEST SWAP1 SWAP2 SSTORE POP POP PUSH1 0x8 DUP2 ADD DUP1 SLOAD PUSH1 0x1 DUP2 ADD DUP3 SSTORE PUSH1 0x0 SWAP2 DUP3 MSTORE PUSH1 0x20 SWAP2 DUP3 SWAP1 KECCAK256 ADD DUP4 SWAP1 SSTORE PUSH1 0x40 DUP1 MLOAD DUP6 DUP2 MSTORE CALLER SWAP3 DUP2 ADD SWAP3 SWAP1 SWAP3 MSTORE DUP2 ADD DUP4 SWAP1 MSTORE PUSH32 0x9CE334B4C8B04BEA9C08533DA5D64964AE1E53E1C9152C5749044ADAD3F62B28 SWAP1 PUSH1 0x60 ADD PUSH1 0x40 MLOAD DUP1 SWAP2 SUB SWAP1 LOG1 POP POP POP JUMP JUMPDEST PUSH1 0x0 SLOAD PUSH1 0x1 PUSH1 0x1 PUSH1 0xA0 SHL SUB AND CALLER EQ PUSH2 0x673 JUMPI PUSH1 0x40 MLOAD PUSH3 0x461BCD PUSH1 0xE5 SHL DUP2 MSTORE PUSH1 0x20 PUSH1 0x4 DUP3 ADD DUP2 SWAP1 MSTORE PUSH1 0x24 DUP3 ADD MSTORE PUSH32 0x4F776E61626C653A2063616C6C6572206973206E6F7420746865206F776E6572 PUSH1 0x44 DUP3 ADD MSTORE PUSH1 0x64 ADD PUSH2 0x319 JUMP JUMPDEST PUSH1 0x1 SLOAD PUSH1 0x40 MLOAD PUSH4 0x31A9108F PUSH1 0xE1 SHL DUP2 MSTORE PUSH1 0x4 DUP2 ADD DUP4 SWAP1 MSTORE PUSH1 0x0 SWAP2 PUSH1 0x1 PUSH1 0x1 PUSH1 0xA0 SHL SUB AND SWAP1 PUSH4 0x6352211E SWAP1 PUSH1 0x24 ADD PUSH1 0x20 PUSH1 0x40 MLOAD DUP1 DUP4 SUB DUP2 DUP7 GAS STATICCALL ISZERO DUP1 ISZERO PUSH2 0xDBD JUMPI RETURNDATASIZE PUSH1 0x0 DUP1 RETURNDATACOPY RETURNDATASIZE PUSH1 0x0 REVERT JUMPDEST POP POP POP POP PUSH1 0x40 MLOAD RETURNDATASIZE PUSH1 0x1F NOT PUSH1 0x1F DUP3 ADD AND DUP3 ADD DUP1 PUSH1 0x40 MSTORE POP DUP2 ADD SWAP1 PUSH2 0xDE1 SWAP2 SWAP1 PUSH2 0x11C4 JUMP JUMPDEST SWAP3 SWAP2 POP POP JUMP JUMPDEST PUSH1 0x0 DUP1 SLOAD PUSH1 0x1 PUSH1 0x1 PUSH1 0xA0 SHL SUB DUP4 DUP2 AND PUSH1 0x1 PUSH1 0x1 PUSH1 0xA0 SHL SUB NOT DUP4 AND DUP2 OR DUP5 SSTORE PUSH1 0x40 MLOAD SWAP2 SWAP1 SWAP3 AND SWAP3 DUP4 SWAP2 PUSH32 0x8BE0079C531659141344CD1FD0A4F28419497F9722A3DAAFE3B4186F6B6457E0 SWAP2 SWAP1 LOG3 POP POP JUMP JUMPDEST DUP3 DUP1 SLOAD DUP3 DUP3 SSTORE SWAP1 PUSH1 0x0 MSTORE PUSH1 0x20 PUSH1 0x0 KECCAK256 SWAP1 DUP2 ADD SWAP3 DUP3 ISZERO PUSH2 0xE72 JUMPI SWAP2 PUSH1 0x20 MUL DUP3 ADD JUMPDEST DUP3 DUP2 GT ISZERO PUSH2 0xE72 JUMPI DUP3 MLOAD DUP3 SSTORE SWAP2 PUSH1 0x20 ADD SWAP2 SWAP1 PUSH1 0x1 ADD SWAP1 PUSH2 0xE57 JUMP JUMPDEST POP PUSH2 0xE7E SWAP3 SWAP2 POP PUSH2 0xE82 JUMP JUMPDEST POP SWAP1 JUMP JUMPDEST JUMPDEST DUP1 DUP3 GT ISZERO PUSH2 0xE7E JUMPI PUSH1 0x0 DUP2 SSTORE PUSH1 0x1 ADD PUSH2 0xE83 JUMP JUMPDEST PUSH1 0x0 PUSH1 0x20 DUP3 DUP5 SUB SLT ISZERO PUSH2 0xEA9 JUMPI PUSH1 0x0 DUP1 REVERT JUMPDEST POP CALLDATALOAD SWAP2 SWAP1 POP JUMP JUMPDEST PUSH4 0x4E487B71 PUSH1 0xE0 SHL PUSH1 0x0 MSTORE PUSH1 0x41 PUSH1 0x4 MSTORE PUSH1 0x24 PUSH1 0x0 REVERT JUMPDEST PUSH1 0x0 DUP3 PUSH1 0x1F DUP4 ADD SLT PUSH2 0xED7 JUMPI PUSH1 0x0 DUP1 REVERT JUMPDEST DUP2 CALLDATALOAD PUSH1 0x20 PUSH8 0xFFFFFFFFFFFFFFFF DUP1 DUP4 GT ISZERO PUSH2 0xEF4 JUMPI PUSH2 0xEF4 PUSH2 0xEB0 JUMP JUMPDEST DUP3 PUSH1 0x5 SHL PUSH1 0x40 MLOAD PUSH1 0x1F NOT PUSH1 0x3F DUP4 ADD AND DUP2 ADD DUP2 DUP2 LT DUP5 DUP3 GT OR ISZERO PUSH2 0xF19 JUMPI PUSH2 0xF19 PUSH2 0xEB0 JUMP JUMPDEST PUSH1 0x40 MSTORE SWAP4 DUP5 MSTORE DUP6 DUP2 ADD DUP4 ADD SWAP4 DUP4 DUP2 ADD SWAP3 POP DUP8 DUP6 GT ISZERO PUSH2 0xF37 JUMPI PUSH1 0x0 DUP1 REVERT JUMPDEST DUP4 DUP8 ADD SWAP2 POP JUMPDEST DUP5 DUP3 LT ISZERO PUSH2 0xF56 JUMPI DUP2 CALLDATALOAD DUP4 MSTORE SWAP2 DUP4 ADD SWAP2 SWAP1 DUP4 ADD SWAP1 PUSH2 0xF3D JUMP JUMPDEST SWAP8 SWAP7 POP POP POP POP POP POP POP JUMP JUMPDEST PUSH1 0x0 DUP1 PUSH1 0x40 DUP4 DUP6 SUB SLT ISZERO PUSH2 0xF74 JUMPI PUSH1 0x0 DUP1 REVERT JUMPDEST DUP3 CALLDATALOAD SWAP2 POP PUSH1 0x20 DUP4 ADD CALLDATALOAD PUSH8 0xFFFFFFFFFFFFFFFF DUP2 GT ISZERO PUSH2 0xF92 JUMPI PUSH1 0x0 DUP1 REVERT JUMPDEST PUSH2 0xF9E DUP6 DUP3 DUP7 ADD PUSH2 0xEC6 JUMP JUMPDEST SWAP2 POP POP SWAP3 POP SWAP3 SWAP1 POP JUMP JUMPDEST PUSH1 0x0 DUP1 PUSH1 0x0 PUSH1 0x60 DUP5 DUP7 SUB SLT ISZERO PUSH2 0xFBD JUMPI PUSH1 0x0 DUP1 REVERT JUMPDEST DUP4 CALLDATALOAD SWAP3 POP PUSH1 0x20 DUP5 ADD CALLDATALOAD SWAP2 POP PUSH1 0x40 DUP5 ADD CALLDATALOAD PUSH8 0xFFFFFFFFFFFFFFFF DUP2 GT ISZERO PUSH2 0xFE2 JUMPI PUSH1 0x0 DUP1 REVERT JUMPDEST PUSH2 0xFEE DUP7 DUP3 DUP8 ADD PUSH2 0xEC6 JUMP JUMPDEST SWAP2 POP POP SWAP3 POP SWAP3 POP SWAP3 JUMP JUMPDEST PUSH1 0x1 PUSH1 0x1 PUSH1 0xA0 SHL SUB DUP2 AND DUP2 EQ PUSH2 0xA92 JUMPI PUSH1 0x0 DUP1 REVERT JUMPDEST PUSH1 0x0 PUSH1 0x20 DUP3 DUP5 SUB SLT ISZERO PUSH2 0x101F JUMPI PUSH1 0x0 DUP1 REVERT JUMPDEST DUP2 CALLDATALOAD PUSH2 0x102A DUP2 PUSH2 0xFF8 JUMP JUMPDEST SWAP4 SWAP3 POP POP POP JUMP JUMPDEST PUSH1 0x0 DUP2 MLOAD DUP1 DUP5 MSTORE PUSH1 0x20 DUP1 DUP6 ADD SWAP5 POP DUP1 DUP5 ADD PUSH1 0x0 JUMPDEST DUP4 DUP2 LT ISZERO PUSH2 0x1061 JUMPI DUP2 MLOAD DUP8 MSTORE SWAP6 DUP3 ADD SWAP6 SWAP1 DUP3 ADD SWAP1 PUSH1 0x1 ADD PUSH2 0x1045 JUMP JUMPDEST POP SWAP5 SWAP6 SWAP5 POP POP POP POP POP JUMP JUMPDEST PUSH1 0x20 DUP2 MSTORE PUSH1 0x0 PUSH2 0x102A PUSH1 0x20 DUP4 ADD DUP5 PUSH2 0x1031 JUMP JUMPDEST PUSH1 0x0 DUP1 PUSH1 0x40 DUP4 DUP6 SUB SLT ISZERO PUSH2 0x1092 JUMPI PUSH1 0x0 DUP1 REVERT JUMPDEST POP POP DUP1 CALLDATALOAD SWAP3 PUSH1 0x20 SWAP1 SWAP2 ADD CALLDATALOAD SWAP2 POP JUMP JUMPDEST PUSH1 0x20 DUP1 DUP3 MSTORE PUSH1 0x22 SWAP1 DUP3 ADD MSTORE PUSH32 0x52616365206E6F7420616374697665206F7220616C7265616479207374617274 PUSH1 0x40 DUP3 ADD MSTORE PUSH2 0x1959 PUSH1 0xF2 SHL PUSH1 0x60 DUP3 ADD MSTORE PUSH1 0x80 ADD SWAP1 JUMP JUMPDEST PUSH4 0x4E487B71 PUSH1 0xE0 SHL PUSH1 0x0 MSTORE PUSH1 0x11 PUSH1 0x4 MSTORE PUSH1 0x24 PUSH1 0x0 REVERT JUMPDEST DUP1 DUP3 MUL DUP2 ISZERO DUP3 DUP3 DIV DUP5 EQ OR PUSH2 0xDE1 JUMPI PUSH2 0xDE1 PUSH2 0x10E3 JUMP JUMPDEST PUSH1 0x0 DUP3 PUSH2 0x112D JUMPI PUSH4 0x4E487B71 PUSH1 0xE0 SHL PUSH1 0x0 MSTORE PUSH1 0x12 PUSH1 0x4 MSTORE PUSH1 0x24 PUSH1 0x0 REVERT JUMPDEST POP DIV SWAP1 JUMP JUMPDEST PUSH4 0x4E487B71 PUSH1 0xE0 SHL PUSH1 0x0 MSTORE PUSH1 0x32 PUSH1 0x4 MSTORE PUSH1 0x24 PUSH1 0x0 REVERT JUMPDEST PUSH1 0x0 PUSH1 0x1 DUP3 ADD PUSH2 0x115A JUMPI PUSH2 0x115A PUSH2 0x10E3 JUMP JUMPDEST POP PUSH1 0x1 ADD SWAP1 JUMP JUMPDEST DUP3 DUP2 MSTORE PUSH1 0x40 PUSH1 0x20 DUP3 ADD MSTORE PUSH1 0x0 PUSH2 0x117A PUSH1 0x40 DUP4 ADD DUP5 PUSH2 0x1031 JUMP JUMPDEST SWAP5 SWAP4 POP POP POP POP JUMP JUMPDEST DUP1 DUP3 ADD DUP1 DUP3 GT ISZERO PUSH2 0xDE1 JUMPI PUSH2 0xDE1 PUSH2 0x10E3 JUMP JUMPDEST DUP5 DUP2 MSTORE DUP4 PUSH1 0x20 DUP3 ADD MSTORE DUP3 PUSH1 0x40 DUP3 ADD MSTORE PUSH1 0x80 PUSH1 0x60 DUP3 ADD MSTORE PUSH1 0x0 PUSH2 0x11BA PUSH1 0x80 DUP4 ADD DUP5 PUSH2 0x1031 JUMP JUMPDEST SWAP7 SWAP6 POP POP POP POP POP POP JUMP JUMPDEST PUSH1 0x0 PUSH1 0x20 DUP3 DUP5 SUB SLT ISZERO PUSH2 0x11D6 JUMPI PUSH1 0x0 DUP1 REVERT JUMPDEST DUP2 MLOAD PUSH2 0x102A DUP2 PUSH2 0xFF8 JUMP INVALID LOG2 PUSH5 0x6970667358 0x22 SLT KECCAK256 0x2B SDIV 0x5C 0xA7 0xBA PUSH18 0xD90663FF3237530CD831F24B567C045E68F1 MSTORE SLT 0xD7 PUSH29 0x6CECDC0D64736F6C634300081500330000000000000000000000000000 "},"methodIdentifiers":{"createRace(uint256,uint256,uint256[])":"e2047617","endRace(uint256,uint256[])":"315aa38c","enterHorseInRace(uint256,uint256)":"fa47723a","getIsActiveRace(uint256)":"924c855a","getRaceResults(uint256)":"f76bdb1a","horsesNFTContract()":"1316b05d","nextRaceId()":"d9b8fd8f","owner()":"8da5cb5b","races(uint256)":"7bbc469e","renounceOwnership()":"715018a6","startRace(uint256)":"24d822bf","transferOwnership(address)":"f2fde38b"}}}}}