{"contracts/racing/DerbyBettingHub.sol":{"DerbyBettingHub":{"abi":[{"inputs":[{"internalType":"address","name":"_racingEventAddress","type":"address"}],"stateMutability":"nonpayable","type":"constructor"},{"anonymous":false,"inputs":[{"indexed":true,"internalType":"uint256","name":"raceId","type":"uint256"},{"indexed":true,"internalType":"address","name":"bettor","type":"address"},{"indexed":false,"internalType":"uint256","name":"winnings","type":"uint256"}],"name":"BetClaimed","type":"event"},{"anonymous":false,"inputs":[{"indexed":true,"internalType":"uint256","name":"raceId","type":"uint256"},{"indexed":true,"internalType":"address","name":"bettor","type":"address"},{"indexed":false,"internalType":"uint256","name":"betAmount","type":"uint256"}],"name":"BetPlaced","type":"event"},{"anonymous":false,"inputs":[{"indexed":true,"internalType":"address","name":"previousOwner","type":"address"},{"indexed":true,"internalType":"address","name":"newOwner","type":"address"}],"name":"OwnershipTransferred","type":"event"},{"inputs":[{"internalType":"uint256","name":"","type":"uint256"},{"internalType":"uint256","name":"","type":"uint256"}],"name":"betsByRace","outputs":[{"internalType":"uint256","name":"raceId","type":"uint256"},{"internalType":"uint256","name":"betAmount","type":"uint256"},{"internalType":"address","name":"bettor","type":"address"},{"internalType":"bool","name":"isClaimed","type":"bool"}],"stateMutability":"view","type":"function"},{"inputs":[{"internalType":"uint256","name":"raceId","type":"uint256"},{"internalType":"uint256","name":"betIndex","type":"uint256"}],"name":"claimWinnings","outputs":[],"stateMutability":"nonpayable","type":"function"},{"inputs":[],"name":"owner","outputs":[{"internalType":"address","name":"","type":"address"}],"stateMutability":"view","type":"function"},{"inputs":[{"internalType":"uint256","name":"raceId","type":"uint256"},{"internalType":"uint256[]","name":"horseIds","type":"uint256[]"}],"name":"placeBet","outputs":[],"stateMutability":"payable","type":"function"},{"inputs":[],"name":"racingEvent","outputs":[{"internalType":"contract HorseRacingEvent","name":"","type":"address"}],"stateMutability":"view","type":"function"},{"inputs":[],"name":"renounceOwnership","outputs":[],"stateMutability":"nonpayable","type":"function"},{"inputs":[{"internalType":"address","name":"newOwner","type":"address"}],"name":"transferOwnership","outputs":[],"stateMutability":"nonpayable","type":"function"}],"evm":{"bytecode":{"linkReferences":{},"object":"608060405234801561001057600080fd5b50604051610e3f380380610e3f83398101604081905261002f916100ad565b6100383361005d565b600180546001600160a01b0319166001600160a01b03929092169190911790556100dd565b600080546001600160a01b038381166001600160a01b0319831681178455604051919092169283917f8be0079c531659141344cd1fd0a4f28419497f9722a3daafe3b4186f6b6457e09190a35050565b6000602082840312156100bf57600080fd5b81516001600160a01b03811681146100d657600080fd5b9392505050565b610d53806100ec6000396000f3fe6080604052600436106100705760003560e01c8063715018a61161004e578063715018a6146101045780638da5cb5b146101195780639d6d10da1461014b578063f2fde38b1461016b57600080fd5b8063286db5c21461007557806330d14655146100975780634f36ed09146100aa575b600080fd5b34801561008157600080fd5b50610095610090366004610a7a565b61018b565b005b6100956100a5366004610b07565b61040f565b3480156100b657600080fd5b506100ca6100c5366004610a7a565b6105ad565b6040516100fb949392919093845260208401929092526001600160a01b031660408301521515606082015260800190565b60405180910390f35b34801561011057600080fd5b50610095610604565b34801561012557600080fd5b506000546001600160a01b03165b6040516001600160a01b0390911681526020016100fb565b34801561015757600080fd5b50600154610133906001600160a01b031681565b34801561017757600080fd5b50610095610186366004610ba9565b610618565b60008281526002602052604081208054839081106101ab576101ab610bd9565b600091825260209091206003600490920201908101549091506001600160a01b031633146102115760405162461bcd60e51b815260206004820152600e60248201526d2737ba103a3432903132ba3a37b960911b60448201526064015b60405180910390fd5b6003810154600160a01b900460ff161561026d5760405162461bcd60e51b815260206004820152601860248201527f57696e6e696e677320616c726561647920636c61696d656400000000000000006044820152606401610208565b600154604051637bb5ed8d60e11b8152600481018590526000916001600160a01b03169063f76bdb1a90602401600060405180830381865afa1580156102b7573d6000803e3d6000fd5b505050506040513d6000823e601f3d908101601f191682016040526102df9190810190610bef565b9050600061038b836040518060a0016040529081600082015481526020016001820180548060200260200160405190810160405280929190818152602001828054801561034b57602002820191906000526020600020905b815481526020019060010190808311610337575b5050509183525050600282015460208201526003909101546001600160a01b0381166040830152600160a01b900460ff1615156060909101528387610691565b60038401805460ff60a01b1916600160a01b179055604051909150339082156108fc029083906000818181858888f193505050501580156103d0573d6000803e3d6000fd5b50604051818152339086907fad65ef4ba28f4ce1aaee7e8f86645eb4ce0ddc8b6c8fa2821564a94dbd2485fe9060200160405180910390a35050505050565b60015460405163492642ad60e11b8152600481018490526001600160a01b039091169063924c855a90602401602060405180830381865afa158015610458573d6000803e3d6000fd5b505050506040513d601f19601f8201168201806040525081019061047c9190610c80565b6104bd5760405162461bcd60e51b815260206004820152601260248201527152616365206973206e6f742061637469766560701b6044820152606401610208565b6000828152600260209081526040808320815160a081018352868152808401868152349382019390935233606082015260808101859052815460018181018455928652948490208151600490960201948555915180519294936105269392850192910190610a1a565b5060408281015160028301556060830151600390920180546080909401511515600160a01b026001600160a81b03199094166001600160a01b039093169290921792909217905551339083907f87b9df6fa7123c2e6044c3a3a37b4b0662c188d7a58ef86ee55067c46e4613ad906105a19034815260200190565b60405180910390a35050565b600260205281600052604060002081815481106105c957600080fd5b60009182526020909120600490910201805460028201546003909201549093509091506001600160a01b03811690600160a01b900460ff1684565b61060c610742565b610616600061079c565b565b610620610742565b6001600160a01b0381166106855760405162461bcd60e51b815260206004820152602660248201527f4f776e61626c653a206e6577206f776e657220697320746865207a65726f206160448201526564647265737360d01b6064820152608401610208565b61068e8161079c565b50565b815160208401515160009182910361073a57600160005b86602001515181101561070d578581815181106106c7576106c7610bd9565b6020026020010151876020015182815181106106e5576106e5610bd9565b6020026020010151146106fb576000915061070d565b8061070581610cb8565b9150506106a8565b5080156107385760006107248760200151866107ec565b905061073487604001518261096b565b9250505b505b949350505050565b6000546001600160a01b031633146106165760405162461bcd60e51b815260206004820181905260248201527f4f776e61626c653a2063616c6c6572206973206e6f7420746865206f776e65726044820152606401610208565b600080546001600160a01b038381166001600160a01b0319831681178455604051919092169283917f8be0079c531659141344cd1fd0a4f28419497f9722a3daafe3b4186f6b6457e09190a35050565b6000818152600260209081526040808320805482518185028101850190935280835284938493929190849084015b828210156108e357838290600052602060002090600402016040518060a0016040529081600082015481526020016001820180548060200260200160405190810160405280929190818152602001828054801561089657602002820191906000526020600020905b815481526020019060010190808311610882575b505050918352505060028201546020808301919091526003909201546001600160a01b0381166040830152600160a01b900460ff161515606090910152908252600192909201910161081a565b50505050905060005b815181101561095f5761091c82828151811061090a5761090a610bd9565b6020026020010151602001518761099c565b1561094d5781818151811061093357610933610bd9565b6020026020010151604001518361094a9190610cd1565b92505b8061095781610cb8565b9150506108ec565b50909150505b92915050565b60008282111561099157610980600284610ce4565b61098a9084610cd1565b9050610965565b61098a836002610d06565b600081518351146109af57506000610965565b60005b8351811015610a10578281815181106109cd576109cd610bd9565b60200260200101518482815181106109e7576109e7610bd9565b6020026020010151146109fe576000915050610965565b80610a0881610cb8565b9150506109b2565b5060019392505050565b828054828255906000526020600020908101928215610a55579160200282015b82811115610a55578251825591602001919060010190610a3a565b50610a61929150610a65565b5090565b5b80821115610a615760008155600101610a66565b60008060408385031215610a8d57600080fd5b50508035926020909101359150565b634e487b7160e01b600052604160045260246000fd5b604051601f8201601f1916810167ffffffffffffffff81118282101715610adb57610adb610a9c565b604052919050565b600067ffffffffffffffff821115610afd57610afd610a9c565b5060051b60200190565b60008060408385031215610b1a57600080fd5b8235915060208084013567ffffffffffffffff811115610b3957600080fd5b8401601f81018613610b4a57600080fd5b8035610b5d610b5882610ae3565b610ab2565b81815260059190911b82018301908381019088831115610b7c57600080fd5b928401925b82841015610b9a57833582529284019290840190610b81565b80955050505050509250929050565b600060208284031215610bbb57600080fd5b81356001600160a01b0381168114610bd257600080fd5b9392505050565b634e487b7160e01b600052603260045260246000fd5b60006020808385031215610c0257600080fd5b825167ffffffffffffffff811115610c1957600080fd5b8301601f81018513610c2a57600080fd5b8051610c38610b5882610ae3565b81815260059190911b82018301908381019087831115610c5757600080fd5b928401925b82841015610c7557835182529284019290840190610c5c565b979650505050505050565b600060208284031215610c9257600080fd5b81518015158114610bd257600080fd5b634e487b7160e01b600052601160045260246000fd5b600060018201610cca57610cca610ca2565b5060010190565b8082018082111561096557610965610ca2565b600082610d0157634e487b7160e01b600052601260045260246000fd5b500490565b808202811582820484141761096557610965610ca256fea2646970667358221220a2e1dd6b3e39666d988836c3d8ac43a6a3841fd7ac689102f317ffa9512a789764736f6c63430008150033","opcodes":"PUSH1 0x80 PUSH1 0x40 MSTORE CALLVALUE DUP1 ISZERO PUSH2 0x10 JUMPI PUSH1 0x0 DUP1 REVERT JUMPDEST POP PUSH1 0x40 MLOAD PUSH2 0xE3F CODESIZE SUB DUP1 PUSH2 0xE3F DUP4 CODECOPY DUP2 ADD PUSH1 0x40 DUP2 SWAP1 MSTORE PUSH2 0x2F SWAP2 PUSH2 0xAD JUMP JUMPDEST PUSH2 0x38 CALLER PUSH2 0x5D JUMP JUMPDEST PUSH1 0x1 DUP1 SLOAD PUSH1 0x1 PUSH1 0x1 PUSH1 0xA0 SHL SUB NOT AND PUSH1 0x1 PUSH1 0x1 PUSH1 0xA0 SHL SUB SWAP3 SWAP1 SWAP3 AND SWAP2 SWAP1 SWAP2 OR SWAP1 SSTORE PUSH2 0xDD JUMP JUMPDEST PUSH1 0x0 DUP1 SLOAD PUSH1 0x1 PUSH1 0x1 PUSH1 0xA0 SHL SUB DUP4 DUP2 AND PUSH1 0x1 PUSH1 0x1 PUSH1 0xA0 SHL SUB NOT DUP4 AND DUP2 OR DUP5 SSTORE PUSH1 0x40 MLOAD SWAP2 SWAP1 SWAP3 AND SWAP3 DUP4 SWAP2 PUSH32 0x8BE0079C531659141344CD1FD0A4F28419497F9722A3DAAFE3B4186F6B6457E0 SWAP2 SWAP1 LOG3 POP POP JUMP JUMPDEST PUSH1 0x0 PUSH1 0x20 DUP3 DUP5 SUB SLT ISZERO PUSH2 0xBF JUMPI PUSH1 0x0 DUP1 REVERT JUMPDEST DUP2 MLOAD PUSH1 0x1 PUSH1 0x1 PUSH1 0xA0 SHL SUB DUP2 AND DUP2 EQ PUSH2 0xD6 JUMPI PUSH1 0x0 DUP1 REVERT JUMPDEST SWAP4 SWAP3 POP POP POP JUMP JUMPDEST PUSH2 0xD53 DUP1 PUSH2 0xEC PUSH1 0x0 CODECOPY PUSH1 0x0 RETURN INVALID PUSH1 0x80 PUSH1 0x40 MSTORE PUSH1 0x4 CALLDATASIZE LT PUSH2 0x70 JUMPI PUSH1 0x0 CALLDATALOAD PUSH1 0xE0 SHR DUP1 PUSH4 0x715018A6 GT PUSH2 0x4E JUMPI DUP1 PUSH4 0x715018A6 EQ PUSH2 0x104 JUMPI DUP1 PUSH4 0x8DA5CB5B EQ PUSH2 0x119 JUMPI DUP1 PUSH4 0x9D6D10DA EQ PUSH2 0x14B JUMPI DUP1 PUSH4 0xF2FDE38B EQ PUSH2 0x16B JUMPI PUSH1 0x0 DUP1 REVERT JUMPDEST DUP1 PUSH4 0x286DB5C2 EQ PUSH2 0x75 JUMPI DUP1 PUSH4 0x30D14655 EQ PUSH2 0x97 JUMPI DUP1 PUSH4 0x4F36ED09 EQ PUSH2 0xAA JUMPI JUMPDEST PUSH1 0x0 DUP1 REVERT JUMPDEST CALLVALUE DUP1 ISZERO PUSH2 0x81 JUMPI PUSH1 0x0 DUP1 REVERT JUMPDEST POP PUSH2 0x95 PUSH2 0x90 CALLDATASIZE PUSH1 0x4 PUSH2 0xA7A JUMP JUMPDEST PUSH2 0x18B JUMP JUMPDEST STOP JUMPDEST PUSH2 0x95 PUSH2 0xA5 CALLDATASIZE PUSH1 0x4 PUSH2 0xB07 JUMP JUMPDEST PUSH2 0x40F JUMP JUMPDEST CALLVALUE DUP1 ISZERO PUSH2 0xB6 JUMPI PUSH1 0x0 DUP1 REVERT JUMPDEST POP PUSH2 0xCA PUSH2 0xC5 CALLDATASIZE PUSH1 0x4 PUSH2 0xA7A JUMP JUMPDEST PUSH2 0x5AD JUMP JUMPDEST PUSH1 0x40 MLOAD PUSH2 0xFB SWAP5 SWAP4 SWAP3 SWAP2 SWAP1 SWAP4 DUP5 MSTORE PUSH1 0x20 DUP5 ADD SWAP3 SWAP1 SWAP3 MSTORE PUSH1 0x1 PUSH1 0x1 PUSH1 0xA0 SHL SUB AND PUSH1 0x40 DUP4 ADD MSTORE ISZERO ISZERO PUSH1 0x60 DUP3 ADD MSTORE PUSH1 0x80 ADD SWAP1 JUMP JUMPDEST PUSH1 0x40 MLOAD DUP1 SWAP2 SUB SWAP1 RETURN JUMPDEST CALLVALUE DUP1 ISZERO PUSH2 0x110 JUMPI PUSH1 0x0 DUP1 REVERT JUMPDEST POP PUSH2 0x95 PUSH2 0x604 JUMP JUMPDEST CALLVALUE DUP1 ISZERO PUSH2 0x125 JUMPI PUSH1 0x0 DUP1 REVERT JUMPDEST POP PUSH1 0x0 SLOAD PUSH1 0x1 PUSH1 0x1 PUSH1 0xA0 SHL SUB AND JUMPDEST PUSH1 0x40 MLOAD PUSH1 0x1 PUSH1 0x1 PUSH1 0xA0 SHL SUB SWAP1 SWAP2 AND DUP2 MSTORE PUSH1 0x20 ADD PUSH2 0xFB JUMP JUMPDEST CALLVALUE DUP1 ISZERO PUSH2 0x157 JUMPI PUSH1 0x0 DUP1 REVERT JUMPDEST POP PUSH1 0x1 SLOAD PUSH2 0x133 SWAP1 PUSH1 0x1 PUSH1 0x1 PUSH1 0xA0 SHL SUB AND DUP2 JUMP JUMPDEST CALLVALUE DUP1 ISZERO PUSH2 0x177 JUMPI PUSH1 0x0 DUP1 REVERT JUMPDEST POP PUSH2 0x95 PUSH2 0x186 CALLDATASIZE PUSH1 0x4 PUSH2 0xBA9 JUMP JUMPDEST PUSH2 0x618 JUMP JUMPDEST PUSH1 0x0 DUP3 DUP2 MSTORE PUSH1 0x2 PUSH1 0x20 MSTORE PUSH1 0x40 DUP2 KECCAK256 DUP1 SLOAD DUP4 SWAP1 DUP2 LT PUSH2 0x1AB JUMPI PUSH2 0x1AB PUSH2 0xBD9 JUMP JUMPDEST PUSH1 0x0 SWAP2 DUP3 MSTORE PUSH1 0x20 SWAP1 SWAP2 KECCAK256 PUSH1 0x3 PUSH1 0x4 SWAP1 SWAP3 MUL ADD SWAP1 DUP2 ADD SLOAD SWAP1 SWAP2 POP PUSH1 0x1 PUSH1 0x1 PUSH1 0xA0 SHL SUB AND CALLER EQ PUSH2 0x211 JUMPI PUSH1 0x40 MLOAD PUSH3 0x461BCD PUSH1 0xE5 SHL DUP2 MSTORE PUSH1 0x20 PUSH1 0x4 DUP3 ADD MSTORE PUSH1 0xE PUSH1 0x24 DUP3 ADD MSTORE PUSH14 0x2737BA103A3432903132BA3A37B9 PUSH1 0x91 SHL PUSH1 0x44 DUP3 ADD MSTORE PUSH1 0x64 ADD JUMPDEST PUSH1 0x40 MLOAD DUP1 SWAP2 SUB SWAP1 REVERT JUMPDEST PUSH1 0x3 DUP2 ADD SLOAD PUSH1 0x1 PUSH1 0xA0 SHL SWAP1 DIV PUSH1 0xFF AND ISZERO PUSH2 0x26D JUMPI PUSH1 0x40 MLOAD PUSH3 0x461BCD PUSH1 0xE5 SHL DUP2 MSTORE PUSH1 0x20 PUSH1 0x4 DUP3 ADD MSTORE PUSH1 0x18 PUSH1 0x24 DUP3 ADD MSTORE PUSH32 0x57696E6E696E677320616C726561647920636C61696D65640000000000000000 PUSH1 0x44 DUP3 ADD MSTORE PUSH1 0x64 ADD PUSH2 0x208 JUMP JUMPDEST PUSH1 0x1 SLOAD PUSH1 0x40 MLOAD PUSH4 0x7BB5ED8D PUSH1 0xE1 SHL DUP2 MSTORE PUSH1 0x4 DUP2 ADD DUP6 SWAP1 MSTORE PUSH1 0x0 SWAP2 PUSH1 0x1 PUSH1 0x1 PUSH1 0xA0 SHL SUB AND SWAP1 PUSH4 0xF76BDB1A SWAP1 PUSH1 0x24 ADD PUSH1 0x0 PUSH1 0x40 MLOAD DUP1 DUP4 SUB DUP2 DUP7 GAS STATICCALL ISZERO DUP1 ISZERO PUSH2 0x2B7 JUMPI RETURNDATASIZE PUSH1 0x0 DUP1 RETURNDATACOPY RETURNDATASIZE PUSH1 0x0 REVERT JUMPDEST POP POP POP POP PUSH1 0x40 MLOAD RETURNDATASIZE PUSH1 0x0 DUP3 RETURNDATACOPY PUSH1 0x1F RETURNDATASIZE SWAP1 DUP2 ADD PUSH1 0x1F NOT AND DUP3 ADD PUSH1 0x40 MSTORE PUSH2 0x2DF SWAP2 SWAP1 DUP2 ADD SWAP1 PUSH2 0xBEF JUMP JUMPDEST SWAP1 POP PUSH1 0x0 PUSH2 0x38B DUP4 PUSH1 0x40 MLOAD DUP1 PUSH1 0xA0 ADD PUSH1 0x40 MSTORE SWAP1 DUP2 PUSH1 0x0 DUP3 ADD SLOAD DUP2 MSTORE PUSH1 0x20 ADD PUSH1 0x1 DUP3 ADD DUP1 SLOAD DUP1 PUSH1 0x20 MUL PUSH1 0x20 ADD PUSH1 0x40 MLOAD SWAP1 DUP2 ADD PUSH1 0x40 MSTORE DUP1 SWAP3 SWAP2 SWAP1 DUP2 DUP2 MSTORE PUSH1 0x20 ADD DUP3 DUP1 SLOAD DUP1 ISZERO PUSH2 0x34B JUMPI PUSH1 0x20 MUL DUP3 ADD SWAP2 SWAP1 PUSH1 0x0 MSTORE PUSH1 0x20 PUSH1 0x0 KECCAK256 SWAP1 JUMPDEST DUP2 SLOAD DUP2 MSTORE PUSH1 0x20 ADD SWAP1 PUSH1 0x1 ADD SWAP1 DUP1 DUP4 GT PUSH2 0x337 JUMPI JUMPDEST POP POP POP SWAP2 DUP4 MSTORE POP POP PUSH1 0x2 DUP3 ADD SLOAD PUSH1 0x20 DUP3 ADD MSTORE PUSH1 0x3 SWAP1 SWAP2 ADD SLOAD PUSH1 0x1 PUSH1 0x1 PUSH1 0xA0 SHL SUB DUP2 AND PUSH1 0x40 DUP4 ADD MSTORE PUSH1 0x1 PUSH1 0xA0 SHL SWAP1 DIV PUSH1 0xFF AND ISZERO ISZERO PUSH1 0x60 SWAP1 SWAP2 ADD MSTORE DUP4 DUP8 PUSH2 0x691 JUMP JUMPDEST PUSH1 0x3 DUP5 ADD DUP1 SLOAD PUSH1 0xFF PUSH1 0xA0 SHL NOT AND PUSH1 0x1 PUSH1 0xA0 SHL OR SWAP1 SSTORE PUSH1 0x40 MLOAD SWAP1 SWAP2 POP CALLER SWAP1 DUP3 ISZERO PUSH2 0x8FC MUL SWAP1 DUP4 SWAP1 PUSH1 0x0 DUP2 DUP2 DUP2 DUP6 DUP9 DUP9 CALL SWAP4 POP POP POP POP ISZERO DUP1 ISZERO PUSH2 0x3D0 JUMPI RETURNDATASIZE PUSH1 0x0 DUP1 RETURNDATACOPY RETURNDATASIZE PUSH1 0x0 REVERT JUMPDEST POP PUSH1 0x40 MLOAD DUP2 DUP2 MSTORE CALLER SWAP1 DUP7 SWAP1 PUSH32 0xAD65EF4BA28F4CE1AAEE7E8F86645EB4CE0DDC8B6C8FA2821564A94DBD2485FE SWAP1 PUSH1 0x20 ADD PUSH1 0x40 MLOAD DUP1 SWAP2 SUB SWAP1 LOG3 POP POP POP POP POP JUMP JUMPDEST PUSH1 0x1 SLOAD PUSH1 0x40 MLOAD PUSH4 0x492642AD PUSH1 0xE1 SHL DUP2 MSTORE PUSH1 0x4 DUP2 ADD DUP5 SWAP1 MSTORE PUSH1 0x1 PUSH1 0x1 PUSH1 0xA0 SHL SUB SWAP1 SWAP2 AND SWAP1 PUSH4 0x924C855A SWAP1 PUSH1 0x24 ADD PUSH1 0x20 PUSH1 0x40 MLOAD DUP1 DUP4 SUB DUP2 DUP7 GAS STATICCALL ISZERO DUP1 ISZERO PUSH2 0x458 JUMPI RETURNDATASIZE PUSH1 0x0 DUP1 RETURNDATACOPY RETURNDATASIZE PUSH1 0x0 REVERT JUMPDEST POP POP POP POP PUSH1 0x40 MLOAD RETURNDATASIZE PUSH1 0x1F NOT PUSH1 0x1F DUP3 ADD AND DUP3 ADD DUP1 PUSH1 0x40 MSTORE POP DUP2 ADD SWAP1 PUSH2 0x47C SWAP2 SWAP1 PUSH2 0xC80 JUMP JUMPDEST PUSH2 0x4BD JUMPI PUSH1 0x40 MLOAD PUSH3 0x461BCD PUSH1 0xE5 SHL DUP2 MSTORE PUSH1 0x20 PUSH1 0x4 DUP3 ADD MSTORE PUSH1 0x12 PUSH1 0x24 DUP3 ADD MSTORE PUSH18 0x52616365206973206E6F7420616374697665 PUSH1 0x70 SHL PUSH1 0x44 DUP3 ADD MSTORE PUSH1 0x64 ADD PUSH2 0x208 JUMP JUMPDEST PUSH1 0x0 DUP3 DUP2 MSTORE PUSH1 0x2 PUSH1 0x20 SWAP1 DUP2 MSTORE PUSH1 0x40 DUP1 DUP4 KECCAK256 DUP2 MLOAD PUSH1 0xA0 DUP2 ADD DUP4 MSTORE DUP7 DUP2 MSTORE DUP1 DUP5 ADD DUP7 DUP2 MSTORE CALLVALUE SWAP4 DUP3 ADD SWAP4 SWAP1 SWAP4 MSTORE CALLER PUSH1 0x60 DUP3 ADD MSTORE PUSH1 0x80 DUP2 ADD DUP6 SWAP1 MSTORE DUP2 SLOAD PUSH1 0x1 DUP2 DUP2 ADD DUP5 SSTORE SWAP3 DUP7 MSTORE SWAP5 DUP5 SWAP1 KECCAK256 DUP2 MLOAD PUSH1 0x4 SWAP1 SWAP7 MUL ADD SWAP5 DUP6 SSTORE SWAP2 MLOAD DUP1 MLOAD SWAP3 SWAP5 SWAP4 PUSH2 0x526 SWAP4 SWAP3 DUP6 ADD SWAP3 SWAP2 ADD SWAP1 PUSH2 0xA1A JUMP JUMPDEST POP PUSH1 0x40 DUP3 DUP2 ADD MLOAD PUSH1 0x2 DUP4 ADD SSTORE PUSH1 0x60 DUP4 ADD MLOAD PUSH1 0x3 SWAP1 SWAP3 ADD DUP1 SLOAD PUSH1 0x80 SWAP1 SWAP5 ADD MLOAD ISZERO ISZERO PUSH1 0x1 PUSH1 0xA0 SHL MUL PUSH1 0x1 PUSH1 0x1 PUSH1 0xA8 SHL SUB NOT SWAP1 SWAP5 AND PUSH1 0x1 PUSH1 0x1 PUSH1 0xA0 SHL SUB SWAP1 SWAP4 AND SWAP3 SWAP1 SWAP3 OR SWAP3 SWAP1 SWAP3 OR SWAP1 SSTORE MLOAD CALLER SWAP1 DUP4 SWAP1 PUSH32 0x87B9DF6FA7123C2E6044C3A3A37B4B0662C188D7A58EF86EE55067C46E4613AD SWAP1 PUSH2 0x5A1 SWAP1 CALLVALUE DUP2 MSTORE PUSH1 0x20 ADD SWAP1 JUMP JUMPDEST PUSH1 0x40 MLOAD DUP1 SWAP2 SUB SWAP1 LOG3 POP POP JUMP JUMPDEST PUSH1 0x2 PUSH1 0x20 MSTORE DUP2 PUSH1 0x0 MSTORE PUSH1 0x40 PUSH1 0x0 KECCAK256 DUP2 DUP2 SLOAD DUP2 LT PUSH2 0x5C9 JUMPI PUSH1 0x0 DUP1 REVERT JUMPDEST PUSH1 0x0 SWAP2 DUP3 MSTORE PUSH1 0x20 SWAP1 SWAP2 KECCAK256 PUSH1 0x4 SWAP1 SWAP2 MUL ADD DUP1 SLOAD PUSH1 0x2 DUP3 ADD SLOAD PUSH1 0x3 SWAP1 SWAP3 ADD SLOAD SWAP1 SWAP4 POP SWAP1 SWAP2 POP PUSH1 0x1 PUSH1 0x1 PUSH1 0xA0 SHL SUB DUP2 AND SWAP1 PUSH1 0x1 PUSH1 0xA0 SHL SWAP1 DIV PUSH1 0xFF AND DUP5 JUMP JUMPDEST PUSH2 0x60C PUSH2 0x742 JUMP JUMPDEST PUSH2 0x616 PUSH1 0x0 PUSH2 0x79C JUMP JUMPDEST JUMP JUMPDEST PUSH2 0x620 PUSH2 0x742 JUMP JUMPDEST PUSH1 0x1 PUSH1 0x1 PUSH1 0xA0 SHL SUB DUP2 AND PUSH2 0x685 JUMPI PUSH1 0x40 MLOAD PUSH3 0x461BCD PUSH1 0xE5 SHL DUP2 MSTORE PUSH1 0x20 PUSH1 0x4 DUP3 ADD MSTORE PUSH1 0x26 PUSH1 0x24 DUP3 ADD MSTORE PUSH32 0x4F776E61626C653A206E6577206F776E657220697320746865207A65726F2061 PUSH1 0x44 DUP3 ADD MSTORE PUSH6 0x646472657373 PUSH1 0xD0 SHL PUSH1 0x64 DUP3 ADD MSTORE PUSH1 0x84 ADD PUSH2 0x208 JUMP JUMPDEST PUSH2 0x68E DUP2 PUSH2 0x79C JUMP JUMPDEST POP JUMP JUMPDEST DUP2 MLOAD PUSH1 0x20 DUP5 ADD MLOAD MLOAD PUSH1 0x0 SWAP2 DUP3 SWAP2 SUB PUSH2 0x73A JUMPI PUSH1 0x1 PUSH1 0x0 JUMPDEST DUP7 PUSH1 0x20 ADD MLOAD MLOAD DUP2 LT ISZERO PUSH2 0x70D JUMPI DUP6 DUP2 DUP2 MLOAD DUP2 LT PUSH2 0x6C7 JUMPI PUSH2 0x6C7 PUSH2 0xBD9 JUMP JUMPDEST PUSH1 0x20 MUL PUSH1 0x20 ADD ADD MLOAD DUP8 PUSH1 0x20 ADD MLOAD DUP3 DUP2 MLOAD DUP2 LT PUSH2 0x6E5 JUMPI PUSH2 0x6E5 PUSH2 0xBD9 JUMP JUMPDEST PUSH1 0x20 MUL PUSH1 0x20 ADD ADD MLOAD EQ PUSH2 0x6FB JUMPI PUSH1 0x0 SWAP2 POP PUSH2 0x70D JUMP JUMPDEST DUP1 PUSH2 0x705 DUP2 PUSH2 0xCB8 JUMP JUMPDEST SWAP2 POP POP PUSH2 0x6A8 JUMP JUMPDEST POP DUP1 ISZERO PUSH2 0x738 JUMPI PUSH1 0x0 PUSH2 0x724 DUP8 PUSH1 0x20 ADD MLOAD DUP7 PUSH2 0x7EC JUMP JUMPDEST SWAP1 POP PUSH2 0x734 DUP8 PUSH1 0x40 ADD MLOAD DUP3 PUSH2 0x96B JUMP JUMPDEST SWAP3 POP POP JUMPDEST POP JUMPDEST SWAP5 SWAP4 POP POP POP POP JUMP JUMPDEST PUSH1 0x0 SLOAD PUSH1 0x1 PUSH1 0x1 PUSH1 0xA0 SHL SUB AND CALLER EQ PUSH2 0x616 JUMPI PUSH1 0x40 MLOAD PUSH3 0x461BCD PUSH1 0xE5 SHL DUP2 MSTORE PUSH1 0x20 PUSH1 0x4 DUP3 ADD DUP2 SWAP1 MSTORE PUSH1 0x24 DUP3 ADD MSTORE PUSH32 0x4F776E61626C653A2063616C6C6572206973206E6F7420746865206F776E6572 PUSH1 0x44 DUP3 ADD MSTORE PUSH1 0x64 ADD PUSH2 0x208 JUMP JUMPDEST PUSH1 0x0 DUP1 SLOAD PUSH1 0x1 PUSH1 0x1 PUSH1 0xA0 SHL SUB DUP4 DUP2 AND PUSH1 0x1 PUSH1 0x1 PUSH1 0xA0 SHL SUB NOT DUP4 AND DUP2 OR DUP5 SSTORE PUSH1 0x40 MLOAD SWAP2 SWAP1 SWAP3 AND SWAP3 DUP4 SWAP2 PUSH32 0x8BE0079C531659141344CD1FD0A4F28419497F9722A3DAAFE3B4186F6B6457E0 SWAP2 SWAP1 LOG3 POP POP JUMP JUMPDEST PUSH1 0x0 DUP2 DUP2 MSTORE PUSH1 0x2 PUSH1 0x20 SWAP1 DUP2 MSTORE PUSH1 0x40 DUP1 DUP4 KECCAK256 DUP1 SLOAD DUP3 MLOAD DUP2 DUP6 MUL DUP2 ADD DUP6 ADD SWAP1 SWAP4 MSTORE DUP1 DUP4 MSTORE DUP5 SWAP4 DUP5 SWAP4 SWAP3 SWAP2 SWAP1 DUP5 SWAP1 DUP5 ADD JUMPDEST DUP3 DUP3 LT ISZERO PUSH2 0x8E3 JUMPI DUP4 DUP3 SWAP1 PUSH1 0x0 MSTORE PUSH1 0x20 PUSH1 0x0 KECCAK256 SWAP1 PUSH1 0x4 MUL ADD PUSH1 0x40 MLOAD DUP1 PUSH1 0xA0 ADD PUSH1 0x40 MSTORE SWAP1 DUP2 PUSH1 0x0 DUP3 ADD SLOAD DUP2 MSTORE PUSH1 0x20 ADD PUSH1 0x1 DUP3 ADD DUP1 SLOAD DUP1 PUSH1 0x20 MUL PUSH1 0x20 ADD PUSH1 0x40 MLOAD SWAP1 DUP2 ADD PUSH1 0x40 MSTORE DUP1 SWAP3 SWAP2 SWAP1 DUP2 DUP2 MSTORE PUSH1 0x20 ADD DUP3 DUP1 SLOAD DUP1 ISZERO PUSH2 0x896 JUMPI PUSH1 0x20 MUL DUP3 ADD SWAP2 SWAP1 PUSH1 0x0 MSTORE PUSH1 0x20 PUSH1 0x0 KECCAK256 SWAP1 JUMPDEST DUP2 SLOAD DUP2 MSTORE PUSH1 0x20 ADD SWAP1 PUSH1 0x1 ADD SWAP1 DUP1 DUP4 GT PUSH2 0x882 JUMPI JUMPDEST POP POP POP SWAP2 DUP4 MSTORE POP POP PUSH1 0x2 DUP3 ADD SLOAD PUSH1 0x20 DUP1 DUP4 ADD SWAP2 SWAP1 SWAP2 MSTORE PUSH1 0x3 SWAP1 SWAP3 ADD SLOAD PUSH1 0x1 PUSH1 0x1 PUSH1 0xA0 SHL SUB DUP2 AND PUSH1 0x40 DUP4 ADD MSTORE PUSH1 0x1 PUSH1 0xA0 SHL SWAP1 DIV PUSH1 0xFF AND ISZERO ISZERO PUSH1 0x60 SWAP1 SWAP2 ADD MSTORE SWAP1 DUP3 MSTORE PUSH1 0x1 SWAP3 SWAP1 SWAP3 ADD SWAP2 ADD PUSH2 0x81A JUMP JUMPDEST POP POP POP POP SWAP1 POP PUSH1 0x0 JUMPDEST DUP2 MLOAD DUP2 LT ISZERO PUSH2 0x95F JUMPI PUSH2 0x91C DUP3 DUP3 DUP2 MLOAD DUP2 LT PUSH2 0x90A JUMPI PUSH2 0x90A PUSH2 0xBD9 JUMP JUMPDEST PUSH1 0x20 MUL PUSH1 0x20 ADD ADD MLOAD PUSH1 0x20 ADD MLOAD DUP8 PUSH2 0x99C JUMP JUMPDEST ISZERO PUSH2 0x94D JUMPI DUP2 DUP2 DUP2 MLOAD DUP2 LT PUSH2 0x933 JUMPI PUSH2 0x933 PUSH2 0xBD9 JUMP JUMPDEST PUSH1 0x20 MUL PUSH1 0x20 ADD ADD MLOAD PUSH1 0x40 ADD MLOAD DUP4 PUSH2 0x94A SWAP2 SWAP1 PUSH2 0xCD1 JUMP JUMPDEST SWAP3 POP JUMPDEST DUP1 PUSH2 0x957 DUP2 PUSH2 0xCB8 JUMP JUMPDEST SWAP2 POP POP PUSH2 0x8EC JUMP JUMPDEST POP SWAP1 SWAP2 POP POP JUMPDEST SWAP3 SWAP2 POP POP JUMP JUMPDEST PUSH1 0x0 DUP3 DUP3 GT ISZERO PUSH2 0x991 JUMPI PUSH2 0x980 PUSH1 0x2 DUP5 PUSH2 0xCE4 JUMP JUMPDEST PUSH2 0x98A SWAP1 DUP5 PUSH2 0xCD1 JUMP JUMPDEST SWAP1 POP PUSH2 0x965 JUMP JUMPDEST PUSH2 0x98A DUP4 PUSH1 0x2 PUSH2 0xD06 JUMP JUMPDEST PUSH1 0x0 DUP2 MLOAD DUP4 MLOAD EQ PUSH2 0x9AF JUMPI POP PUSH1 0x0 PUSH2 0x965 JUMP JUMPDEST PUSH1 0x0 JUMPDEST DUP4 MLOAD DUP2 LT ISZERO PUSH2 0xA10 JUMPI DUP3 DUP2 DUP2 MLOAD DUP2 LT PUSH2 0x9CD JUMPI PUSH2 0x9CD PUSH2 0xBD9 JUMP JUMPDEST PUSH1 0x20 MUL PUSH1 0x20 ADD ADD MLOAD DUP5 DUP3 DUP2 MLOAD DUP2 LT PUSH2 0x9E7 JUMPI PUSH2 0x9E7 PUSH2 0xBD9 JUMP JUMPDEST PUSH1 0x20 MUL PUSH1 0x20 ADD ADD MLOAD EQ PUSH2 0x9FE JUMPI PUSH1 0x0 SWAP2 POP POP PUSH2 0x965 JUMP JUMPDEST DUP1 PUSH2 0xA08 DUP2 PUSH2 0xCB8 JUMP JUMPDEST SWAP2 POP POP PUSH2 0x9B2 JUMP JUMPDEST POP PUSH1 0x1 SWAP4 SWAP3 POP POP POP JUMP JUMPDEST DUP3 DUP1 SLOAD DUP3 DUP3 SSTORE SWAP1 PUSH1 0x0 MSTORE PUSH1 0x20 PUSH1 0x0 KECCAK256 SWAP1 DUP2 ADD SWAP3 DUP3 ISZERO PUSH2 0xA55 JUMPI SWAP2 PUSH1 0x20 MUL DUP3 ADD JUMPDEST DUP3 DUP2 GT ISZERO PUSH2 0xA55 JUMPI DUP3 MLOAD DUP3 SSTORE SWAP2 PUSH1 0x20 ADD SWAP2 SWAP1 PUSH1 0x1 ADD SWAP1 PUSH2 0xA3A JUMP JUMPDEST POP PUSH2 0xA61 SWAP3 SWAP2 POP PUSH2 0xA65 JUMP JUMPDEST POP SWAP1 JUMP JUMPDEST JUMPDEST DUP1 DUP3 GT ISZERO PUSH2 0xA61 JUMPI PUSH1 0x0 DUP2 SSTORE PUSH1 0x1 ADD PUSH2 0xA66 JUMP JUMPDEST PUSH1 0x0 DUP1 PUSH1 0x40 DUP4 DUP6 SUB SLT ISZERO PUSH2 0xA8D JUMPI PUSH1 0x0 DUP1 REVERT JUMPDEST POP POP DUP1 CALLDATALOAD SWAP3 PUSH1 0x20 SWAP1 SWAP2 ADD CALLDATALOAD SWAP2 POP JUMP JUMPDEST PUSH4 0x4E487B71 PUSH1 0xE0 SHL PUSH1 0x0 MSTORE PUSH1 0x41 PUSH1 0x4 MSTORE PUSH1 0x24 PUSH1 0x0 REVERT JUMPDEST PUSH1 0x40 MLOAD PUSH1 0x1F DUP3 ADD PUSH1 0x1F NOT AND DUP2 ADD PUSH8 0xFFFFFFFFFFFFFFFF DUP2 GT DUP3 DUP3 LT OR ISZERO PUSH2 0xADB JUMPI PUSH2 0xADB PUSH2 0xA9C JUMP JUMPDEST PUSH1 0x40 MSTORE SWAP2 SWAP1 POP JUMP JUMPDEST PUSH1 0x0 PUSH8 0xFFFFFFFFFFFFFFFF DUP3 GT ISZERO PUSH2 0xAFD JUMPI PUSH2 0xAFD PUSH2 0xA9C JUMP JUMPDEST POP PUSH1 0x5 SHL PUSH1 0x20 ADD SWAP1 JUMP JUMPDEST PUSH1 0x0 DUP1 PUSH1 0x40 DUP4 DUP6 SUB SLT ISZERO PUSH2 0xB1A JUMPI PUSH1 0x0 DUP1 REVERT JUMPDEST DUP3 CALLDATALOAD SWAP2 POP PUSH1 0x20 DUP1 DUP5 ADD CALLDATALOAD PUSH8 0xFFFFFFFFFFFFFFFF DUP2 GT ISZERO PUSH2 0xB39 JUMPI PUSH1 0x0 DUP1 REVERT JUMPDEST DUP5 ADD PUSH1 0x1F DUP2 ADD DUP7 SGT PUSH2 0xB4A JUMPI PUSH1 0x0 DUP1 REVERT JUMPDEST DUP1 CALLDATALOAD PUSH2 0xB5D PUSH2 0xB58 DUP3 PUSH2 0xAE3 JUMP JUMPDEST PUSH2 0xAB2 JUMP JUMPDEST DUP2 DUP2 MSTORE PUSH1 0x5 SWAP2 SWAP1 SWAP2 SHL DUP3 ADD DUP4 ADD SWAP1 DUP4 DUP2 ADD SWAP1 DUP9 DUP4 GT ISZERO PUSH2 0xB7C JUMPI PUSH1 0x0 DUP1 REVERT JUMPDEST SWAP3 DUP5 ADD SWAP3 JUMPDEST DUP3 DUP5 LT ISZERO PUSH2 0xB9A JUMPI DUP4 CALLDATALOAD DUP3 MSTORE SWAP3 DUP5 ADD SWAP3 SWAP1 DUP5 ADD SWAP1 PUSH2 0xB81 JUMP JUMPDEST DUP1 SWAP6 POP POP POP POP POP POP SWAP3 POP SWAP3 SWAP1 POP JUMP JUMPDEST PUSH1 0x0 PUSH1 0x20 DUP3 DUP5 SUB SLT ISZERO PUSH2 0xBBB JUMPI PUSH1 0x0 DUP1 REVERT JUMPDEST DUP2 CALLDATALOAD PUSH1 0x1 PUSH1 0x1 PUSH1 0xA0 SHL SUB DUP2 AND DUP2 EQ PUSH2 0xBD2 JUMPI PUSH1 0x0 DUP1 REVERT JUMPDEST SWAP4 SWAP3 POP POP POP JUMP JUMPDEST PUSH4 0x4E487B71 PUSH1 0xE0 SHL PUSH1 0x0 MSTORE PUSH1 0x32 PUSH1 0x4 MSTORE PUSH1 0x24 PUSH1 0x0 REVERT JUMPDEST PUSH1 0x0 PUSH1 0x20 DUP1 DUP4 DUP6 SUB SLT ISZERO PUSH2 0xC02 JUMPI PUSH1 0x0 DUP1 REVERT JUMPDEST DUP3 MLOAD PUSH8 0xFFFFFFFFFFFFFFFF DUP2 GT ISZERO PUSH2 0xC19 JUMPI PUSH1 0x0 DUP1 REVERT JUMPDEST DUP4 ADD PUSH1 0x1F DUP2 ADD DUP6 SGT PUSH2 0xC2A JUMPI PUSH1 0x0 DUP1 REVERT JUMPDEST DUP1 MLOAD PUSH2 0xC38 PUSH2 0xB58 DUP3 PUSH2 0xAE3 JUMP JUMPDEST DUP2 DUP2 MSTORE PUSH1 0x5 SWAP2 SWAP1 SWAP2 SHL DUP3 ADD DUP4 ADD SWAP1 DUP4 DUP2 ADD SWAP1 DUP8 DUP4 GT ISZERO PUSH2 0xC57 JUMPI PUSH1 0x0 DUP1 REVERT JUMPDEST SWAP3 DUP5 ADD SWAP3 JUMPDEST DUP3 DUP5 LT ISZERO PUSH2 0xC75 JUMPI DUP4 MLOAD DUP3 MSTORE SWAP3 DUP5 ADD SWAP3 SWAP1 DUP5 ADD SWAP1 PUSH2 0xC5C JUMP JUMPDEST SWAP8 SWAP7 POP POP POP POP POP POP POP JUMP JUMPDEST PUSH1 0x0 PUSH1 0x20 DUP3 DUP5 SUB SLT ISZERO PUSH2 0xC92 JUMPI PUSH1 0x0 DUP1 REVERT JUMPDEST DUP2 MLOAD DUP1 ISZERO ISZERO DUP2 EQ PUSH2 0xBD2 JUMPI PUSH1 0x0 DUP1 REVERT JUMPDEST PUSH4 0x4E487B71 PUSH1 0xE0 SHL PUSH1 0x0 MSTORE PUSH1 0x11 PUSH1 0x4 MSTORE PUSH1 0x24 PUSH1 0x0 REVERT JUMPDEST PUSH1 0x0 PUSH1 0x1 DUP3 ADD PUSH2 0xCCA JUMPI PUSH2 0xCCA PUSH2 0xCA2 JUMP JUMPDEST POP PUSH1 0x1 ADD SWAP1 JUMP JUMPDEST DUP1 DUP3 ADD DUP1 DUP3 GT ISZERO PUSH2 0x965 JUMPI PUSH2 0x965 PUSH2 0xCA2 JUMP JUMPDEST PUSH1 0x0 DUP3 PUSH2 0xD01 JUMPI PUSH4 0x4E487B71 PUSH1 0xE0 SHL PUSH1 0x0 MSTORE PUSH1 0x12 PUSH1 0x4 MSTORE PUSH1 0x24 PUSH1 0x0 REVERT JUMPDEST POP DIV SWAP1 JUMP JUMPDEST DUP1 DUP3 MUL DUP2 ISZERO DUP3 DUP3 DIV DUP5 EQ OR PUSH2 0x965 JUMPI PUSH2 0x965 PUSH2 0xCA2 JUMP INVALID LOG2 PUSH5 0x6970667358 0x22 SLT KECCAK256 LOG2 0xE1 0xDD PUSH12 0x3E39666D988836C3D8AC43A6 LOG3 DUP5 0x1F 0xD7 0xAC PUSH9 0x9102F317FFA9512A78 SWAP8 PUSH5 0x736F6C6343 STOP ADDMOD ISZERO STOP CALLER "},"methodIdentifiers":{"betsByRace(uint256,uint256)":"4f36ed09","claimWinnings(uint256,uint256)":"286db5c2","owner()":"8da5cb5b","placeBet(uint256,uint256[])":"30d14655","racingEvent()":"9d6d10da","renounceOwnership()":"715018a6","transferOwnership(address)":"f2fde38b"}}}}}