{
  "_format": "hh-sol-artifact-1",
  "contractName": "AvatarMarketplace",
  "sourceName": "contracts/avatarMarket/NFTMarketplace.sol",
  "abi": [
    {
      "inputs": [
        {
          "internalType": "address",
          "name": "_nftContractAddress",
          "type": "address"
        },
        {
          "internalType": "uint256",
          "name": "_commissionPercentage",
          "type": "uint256"
        }
      ],
      "stateMutability": "nonpayable",
      "type": "constructor"
    },
    {
      "anonymous": false,
      "inputs": [
        {
          "indexed": false,
          "internalType": "uint256",
          "name": "newCommissionPercentage",
          "type": "uint256"
        }
      ],
      "name": "CommissionPercentageUpdated",
      "type": "event"
    },
    {
      "anonymous": false,
      "inputs": [
        {
          "indexed": true,
          "internalType": "address",
          "name": "newNFTContractAddress",
          "type": "address"
        }
      ],
      "name": "NFTContractUpdated",
      "type": "event"
    },
    {
      "anonymous": false,
      "inputs": [
        {
          "indexed": true,
          "internalType": "uint256",
          "name": "listingId",
          "type": "uint256"
        },
        {
          "indexed": true,
          "internalType": "address",
          "name": "seller",
          "type": "address"
        },
        {
          "indexed": true,
          "internalType": "uint256",
          "name": "tokenId",
          "type": "uint256"
        },
        {
          "indexed": false,
          "internalType": "uint256",
          "name": "price",
          "type": "uint256"
        },
        {
          "indexed": false,
          "internalType": "string",
          "name": "status",
          "type": "string"
        }
      ],
      "name": "NFTListed",
      "type": "event"
    },
    {
      "anonymous": false,
      "inputs": [
        {
          "indexed": true,
          "internalType": "uint256",
          "name": "listingId",
          "type": "uint256"
        },
        {
          "indexed": true,
          "internalType": "address",
          "name": "seller",
          "type": "address"
        },
        {
          "indexed": true,
          "internalType": "uint256",
          "name": "tokenId",
          "type": "uint256"
        },
        {
          "indexed": false,
          "internalType": "uint256",
          "name": "price",
          "type": "uint256"
        },
        {
          "indexed": false,
          "internalType": "string",
          "name": "status",
          "type": "string"
        }
      ],
      "name": "NFTListingCancelled",
      "type": "event"
    },
    {
      "anonymous": false,
      "inputs": [
        {
          "indexed": true,
          "internalType": "uint256",
          "name": "listingId",
          "type": "uint256"
        },
        {
          "indexed": true,
          "internalType": "address",
          "name": "buyer",
          "type": "address"
        },
        {
          "indexed": true,
          "internalType": "address",
          "name": "seller",
          "type": "address"
        },
        {
          "indexed": false,
          "internalType": "uint256",
          "name": "tokenId",
          "type": "uint256"
        },
        {
          "indexed": false,
          "internalType": "uint256",
          "name": "price",
          "type": "uint256"
        },
        {
          "indexed": false,
          "internalType": "string",
          "name": "status",
          "type": "string"
        }
      ],
      "name": "NFTPurchased",
      "type": "event"
    },
    {
      "anonymous": false,
      "inputs": [
        {
          "indexed": true,
          "internalType": "address",
          "name": "previousOwner",
          "type": "address"
        },
        {
          "indexed": true,
          "internalType": "address",
          "name": "newOwner",
          "type": "address"
        }
      ],
      "name": "OwnershipTransferred",
      "type": "event"
    },
    {
      "anonymous": false,
      "inputs": [
        {
          "indexed": false,
          "internalType": "address",
          "name": "account",
          "type": "address"
        }
      ],
      "name": "Paused",
      "type": "event"
    },
    {
      "anonymous": false,
      "inputs": [
        {
          "indexed": true,
          "internalType": "address",
          "name": "newSiliquaCoinAddress",
          "type": "address"
        }
      ],
      "name": "SiliquaCoinUpdated",
      "type": "event"
    },
    {
      "anonymous": false,
      "inputs": [
        {
          "indexed": false,
          "internalType": "address",
          "name": "account",
          "type": "address"
        }
      ],
      "name": "Unpaused",
      "type": "event"
    },
    {
      "inputs": [
        {
          "internalType": "uint256",
          "name": "_listingId",
          "type": "uint256"
        }
      ],
      "name": "cancelListing",
      "outputs": [],
      "stateMutability": "nonpayable",
      "type": "function"
    },
    {
      "inputs": [],
      "name": "commissionPercentage",
      "outputs": [
        {
          "internalType": "uint256",
          "name": "",
          "type": "uint256"
        }
      ],
      "stateMutability": "view",
      "type": "function"
    },
    {
      "inputs": [],
      "name": "getActiveListings",
      "outputs": [
        {
          "components": [
            {
              "internalType": "uint256",
              "name": "listingId",
              "type": "uint256"
            },
            {
              "internalType": "address",
              "name": "seller",
              "type": "address"
            },
            {
              "internalType": "uint256",
              "name": "tokenId",
              "type": "uint256"
            },
            {
              "internalType": "uint256",
              "name": "price",
              "type": "uint256"
            },
            {
              "internalType": "bool",
              "name": "isActive",
              "type": "bool"
            }
          ],
          "internalType": "struct AvatarMarketplace.Listing[]",
          "name": "activeListings",
          "type": "tuple[]"
        }
      ],
      "stateMutability": "view",
      "type": "function"
    },
    {
      "inputs": [
        {
          "internalType": "uint256",
          "name": "_tokenId",
          "type": "uint256"
        },
        {
          "internalType": "uint256",
          "name": "_price",
          "type": "uint256"
        }
      ],
      "name": "listNFT",
      "outputs": [],
      "stateMutability": "nonpayable",
      "type": "function"
    },
    {
      "inputs": [],
      "name": "listingId",
      "outputs": [
        {
          "internalType": "uint256",
          "name": "",
          "type": "uint256"
        }
      ],
      "stateMutability": "view",
      "type": "function"
    },
    {
      "inputs": [
        {
          "internalType": "uint256",
          "name": "",
          "type": "uint256"
        }
      ],
      "name": "listings",
      "outputs": [
        {
          "internalType": "uint256",
          "name": "listingId",
          "type": "uint256"
        },
        {
          "internalType": "address",
          "name": "seller",
          "type": "address"
        },
        {
          "internalType": "uint256",
          "name": "tokenId",
          "type": "uint256"
        },
        {
          "internalType": "uint256",
          "name": "price",
          "type": "uint256"
        },
        {
          "internalType": "bool",
          "name": "isActive",
          "type": "bool"
        }
      ],
      "stateMutability": "view",
      "type": "function"
    },
    {
      "inputs": [],
      "name": "nftToken",
      "outputs": [
        {
          "internalType": "contract AvatarNFT",
          "name": "",
          "type": "address"
        }
      ],
      "stateMutability": "view",
      "type": "function"
    },
    {
      "inputs": [
        {
          "internalType": "address",
          "name": "",
          "type": "address"
        },
        {
          "internalType": "address",
          "name": "",
          "type": "address"
        },
        {
          "internalType": "uint256[]",
          "name": "",
          "type": "uint256[]"
        },
        {
          "internalType": "uint256[]",
          "name": "",
          "type": "uint256[]"
        },
        {
          "internalType": "bytes",
          "name": "",
          "type": "bytes"
        }
      ],
      "name": "onERC1155BatchReceived",
      "outputs": [
        {
          "internalType": "bytes4",
          "name": "",
          "type": "bytes4"
        }
      ],
      "stateMutability": "nonpayable",
      "type": "function"
    },
    {
      "inputs": [
        {
          "internalType": "address",
          "name": "",
          "type": "address"
        },
        {
          "internalType": "address",
          "name": "",
          "type": "address"
        },
        {
          "internalType": "uint256",
          "name": "",
          "type": "uint256"
        },
        {
          "internalType": "uint256",
          "name": "",
          "type": "uint256"
        },
        {
          "internalType": "bytes",
          "name": "",
          "type": "bytes"
        }
      ],
      "name": "onERC1155Received",
      "outputs": [
        {
          "internalType": "bytes4",
          "name": "",
          "type": "bytes4"
        }
      ],
      "stateMutability": "nonpayable",
      "type": "function"
    },
    {
      "inputs": [],
      "name": "owner",
      "outputs": [
        {
          "internalType": "address",
          "name": "",
          "type": "address"
        }
      ],
      "stateMutability": "view",
      "type": "function"
    },
    {
      "inputs": [],
      "name": "pause",
      "outputs": [],
      "stateMutability": "nonpayable",
      "type": "function"
    },
    {
      "inputs": [],
      "name": "paused",
      "outputs": [
        {
          "internalType": "bool",
          "name": "",
          "type": "bool"
        }
      ],
      "stateMutability": "view",
      "type": "function"
    },
    {
      "inputs": [
        {
          "internalType": "uint256",
          "name": "_listingId",
          "type": "uint256"
        }
      ],
      "name": "purchaseNFT",
      "outputs": [],
      "stateMutability": "payable",
      "type": "function"
    },
    {
      "inputs": [],
      "name": "renounceOwnership",
      "outputs": [],
      "stateMutability": "nonpayable",
      "type": "function"
    },
    {
      "inputs": [
        {
          "internalType": "address",
          "name": "_nftContractAddress",
          "type": "address"
        }
      ],
      "name": "setNFTContract",
      "outputs": [],
      "stateMutability": "nonpayable",
      "type": "function"
    },
    {
      "inputs": [
        {
          "internalType": "bytes4",
          "name": "interfaceId",
          "type": "bytes4"
        }
      ],
      "name": "supportsInterface",
      "outputs": [
        {
          "internalType": "bool",
          "name": "",
          "type": "bool"
        }
      ],
      "stateMutability": "view",
      "type": "function"
    },
    {
      "inputs": [],
      "name": "totalCommissionEarned",
      "outputs": [
        {
          "internalType": "uint256",
          "name": "",
          "type": "uint256"
        }
      ],
      "stateMutability": "view",
      "type": "function"
    },
    {
      "inputs": [
        {
          "internalType": "address",
          "name": "newOwner",
          "type": "address"
        }
      ],
      "name": "transferOwnership",
      "outputs": [],
      "stateMutability": "nonpayable",
      "type": "function"
    },
    {
      "inputs": [],
      "name": "unpause",
      "outputs": [],
      "stateMutability": "nonpayable",
      "type": "function"
    },
    {
      "inputs": [
        {
          "internalType": "uint256",
          "name": "_newCommissionPercentage",
          "type": "uint256"
        }
      ],
      "name": "updateCommissionPercentage",
      "outputs": [],
      "stateMutability": "nonpayable",
      "type": "function"
    }
  ],
  "bytecode": "0x6080604052600060065534801561001557600080fd5b5060405161160c38038061160c833981016040819052610034916100bf565b61003d3361006f565b60018055600280546001600160a01b03909316610100026001600160a81b0319909316929092179091556003556100f9565b600080546001600160a01b038381166001600160a01b0319831681178455604051919092169283917f8be0079c531659141344cd1fd0a4f28419497f9722a3daafe3b4186f6b6457e09190a35050565b600080604083850312156100d257600080fd5b82516001600160a01b03811681146100e957600080fd5b6020939093015192949293505050565b611504806101086000396000f3fe60806040526004361061011f5760003560e01c80639405dfdd116100a0578063d06fcba811610064578063d06fcba814610318578063d575fe641461033d578063de74e57b14610353578063f23a6e61146103dc578063f2fde38b1461040857600080fd5b80639405dfdd1461025957806394383f141461027d578063a7ccabdf1461029d578063bc197c81146102bd578063c73cdd231461030257600080fd5b8063715018a6116100e7578063715018a6146101bb5780638456cb59146101d057806387c35bc0146101e55780638ce2199e146102075780638da5cb5b1461022757600080fd5b806301ffc9a714610124578063150bde0314610159578063305a67a81461016e5780633f4ba83a1461018e5780635c975abb146101a3575b600080fd5b34801561013057600080fd5b5061014461013f3660046110a8565b610428565b60405190151581526020015b60405180910390f35b61016c6101673660046110d9565b61045f565b005b34801561017a57600080fd5b5061016c6101893660046110d9565b61071b565b34801561019a57600080fd5b5061016c610911565b3480156101af57600080fd5b5060025460ff16610144565b3480156101c757600080fd5b5061016c610923565b3480156101dc57600080fd5b5061016c610935565b3480156101f157600080fd5b506101fa610945565b60405161015091906110f2565b34801561021357600080fd5b5061016c6102223660046110d9565b610ae9565b34801561023357600080fd5b506000546001600160a01b03165b6040516001600160a01b039091168152602001610150565b34801561026557600080fd5b5061026f60065481565b604051908152602001610150565b34801561028957600080fd5b5061016c61029836600461116b565b610b85565b3480156102a957600080fd5b5061016c6102b83660046111a2565b610daf565b3480156102c957600080fd5b506102e96102d83660046112f6565b63bc197c8160e01b95945050505050565b6040516001600160e01b03199091168152602001610150565b34801561030e57600080fd5b5061026f60045481565b34801561032457600080fd5b506002546102419061010090046001600160a01b031681565b34801561034957600080fd5b5061026f60035481565b34801561035f57600080fd5b506103aa61036e3660046110d9565b6005602052600090815260409020805460018201546002830154600384015460049094015492936001600160a01b039092169290919060ff1685565b604080519586526001600160a01b0390941660208601529284019190915260608301521515608082015260a001610150565b3480156103e857600080fd5b506102e96103f73660046113a4565b63f23a6e6160e01b95945050505050565b34801561041457600080fd5b5061016c6104233660046111a2565b610e11565b60006001600160e01b03198216630271189760e51b148061045957506301ffc9a760e01b6001600160e01b03198316145b92915050565b610467610e87565b61046f610ee0565b60065481106104b85760405162461bcd60e51b815260206004820152601060248201526f125108191bd95cdb89dd08195e1a5cdd60821b60448201526064015b60405180910390fd5b6000818152600560205260409020600481015460ff166105125760405162461bcd60e51b81526020600482015260156024820152744c697374696e67206973206e6f742061637469766560581b60448201526064016104af565b806003015434146105575760405162461bcd60e51b815260206004820152600f60248201526e496e636f727265637420707269636560881b60448201526064016104af565b60006064600354836003015461056d9190611423565b610577919061143a565b9050806004600082825461058b919061145c565b9091555050600080546040516001600160a01b039091169183156108fc02918491818181858888f193505050501580156105c9573d6000803e3d6000fd5b5060008183600301546105dc919061146f565b60018401546040519192506001600160a01b03169082156108fc029083906000818181858888f19350505050158015610619573d6000803e3d6000fd5b506002805490840154604051632142170760e11b815230600482015233602482015260448101919091526101009091046001600160a01b0316906342842e0e90606401600060405180830381600087803b15801561067657600080fd5b505af115801561068a573d6000803e3d6000fd5b5050505060048301805460ff1916905560018301546002840154604080519182523460208301526060828201819052600990830152681c1d5c98da185cd95960ba1b6080830152516001600160a01b0390921691339187917f12c5db205c15a58219d216eea2f3362efc64a7e2db9a9b7237eae6ea6e6e30049181900360a00190a450505061071860018055565b50565b610723610ee0565b60065481106107695760405162461bcd60e51b8152602060048201526012602482015271125b9d985b1a59081b1a5cdd1a5b99c8125160721b60448201526064016104af565b600081815260056020526040902060018101546001600160a01b031633146107e25760405162461bcd60e51b815260206004820152602660248201527f4f6e6c79207468652073656c6c65722063616e2063616e63656c20746865206c604482015265697374696e6760d01b60648201526084016104af565b600481015460ff1661082e5760405162461bcd60e51b81526020600482015260156024820152744c697374696e67206973206e6f742061637469766560581b60448201526064016104af565b60028054908201546040516323b872dd60e01b815230600482015233602482015260448101919091526101009091046001600160a01b0316906323b872dd90606401600060405180830381600087803b15801561088a57600080fd5b505af115801561089e573d6000803e3d6000fd5b5050505060048101805460ff191690556002810154600382015460408051918252602082018190526009828201526818d85b98d95b1b195960ba1b606083015251339185917f4365cb53484debef7671e094e8cead2a45d4b329d842264eb2c68b1f1f46d3a39181900360800190a45050565b610919610f26565b610921610f80565b565b61092b610f26565b6109216000610fd2565b61093d610f26565b610921611022565b606061094f610ee0565b6000805b6006548110156109975760008181526005602052604090206004015460ff1615610985578161098181611482565b9250505b8061098f81611482565b915050610953565b508067ffffffffffffffff8111156109b1576109b16111bf565b604051908082528060200260200182016040528015610a1f57816020015b610a0c6040518060a001604052806000815260200160006001600160a01b0316815260200160008152602001600081526020016000151581525090565b8152602001906001900390816109cf5790505b5091506000805b600654811015610ae35760008181526005602052604090206004015460ff1615610ad157600081815260056020908152604091829020825160a0810184528154815260018201546001600160a01b0316928101929092526002810154928201929092526003820154606082015260049091015460ff16151560808201528451859084908110610ab757610ab761149b565b60200260200101819052508180610acd90611482565b9250505b80610adb81611482565b915050610a26565b50505090565b610af1610f26565b610af9610ee0565b6064811115610b4a5760405162461bcd60e51b815260206004820152601d60248201527f496e76616c696420636f6d6d697373696f6e2070657263656e7461676500000060448201526064016104af565b60038190556040518181527f7e3665a83046ac3c4ec146cf309edab9d75086c48761909ce868f5c65743f4f19060200160405180910390a150565b610b8d610ee0565b6002546040516331a9108f60e11b815260048101849052339161010090046001600160a01b031690636352211e90602401602060405180830381865afa158015610bdb573d6000803e3d6000fd5b505050506040513d601f19601f82011682018060405250810190610bff91906114b1565b6001600160a01b031614610c4b5760405162461bcd60e51b815260206004820152601360248201527213db9b1e481bdddb995c8818d85b881cd95b1b606a1b60448201526064016104af565b6002546040516323b872dd60e01b8152336004820152306024820152604481018490526101009091046001600160a01b0316906323b872dd90606401600060405180830381600087803b158015610ca157600080fd5b505af1158015610cb5573d6000803e3d6000fd5b50506040805160a081018252600680548083523360208085018281528587018b815260608088018c815260016080808b018281526000998a5260058852988c90209a518b559451908a0180546001600160a01b0319166001600160a01b03909216919091179055915160028901559051600388015593516004909601805460ff191696151596909617909555835486518a815291820187905295810193909352651b1a5cdd195960d21b9183019190915287955093507f1874edc4dd8ef51672d2c7645e73e04998f9bed81a6dbc28eb3dc65a06d725bf910160405180910390a460068054906000610da683611482565b91905055505050565b610db7610f26565b610dbf610ee0565b60028054610100600160a81b0319166101006001600160a01b038416908102919091179091556040517ff2610996d245d9b77e4ff84c2174eea0b76fb44c422218404f66e28816d78fb990600090a250565b610e19610f26565b6001600160a01b038116610e7e5760405162461bcd60e51b815260206004820152602660248201527f4f776e61626c653a206e6577206f776e657220697320746865207a65726f206160448201526564647265737360d01b60648201526084016104af565b61071881610fd2565b600260015403610ed95760405162461bcd60e51b815260206004820152601f60248201527f5265656e7472616e637947756172643a207265656e7472616e742063616c6c0060448201526064016104af565b6002600155565b60025460ff16156109215760405162461bcd60e51b815260206004820152601060248201526f14185d5cd8589b194e881c185d5cd95960821b60448201526064016104af565b6000546001600160a01b031633146109215760405162461bcd60e51b815260206004820181905260248201527f4f776e61626c653a2063616c6c6572206973206e6f7420746865206f776e657260448201526064016104af565b610f8861105f565b6002805460ff191690557f5db9ee0a495bf2e6ff9c91a7834c1ba4fdd244a5e8aa4e537bd38aeae4b073aa335b6040516001600160a01b03909116815260200160405180910390a1565b600080546001600160a01b038381166001600160a01b0319831681178455604051919092169283917f8be0079c531659141344cd1fd0a4f28419497f9722a3daafe3b4186f6b6457e09190a35050565b61102a610ee0565b6002805460ff191660011790557f62e78cea01bee320cd4e420270b5ea74000d11b0c9f74754ebdbfc544b05a258610fb53390565b60025460ff166109215760405162461bcd60e51b815260206004820152601460248201527314185d5cd8589b194e881b9bdd081c185d5cd95960621b60448201526064016104af565b6000602082840312156110ba57600080fd5b81356001600160e01b0319811681146110d257600080fd5b9392505050565b6000602082840312156110eb57600080fd5b5035919050565b602080825282518282018190526000919060409081850190868401855b8281101561115e57815180518552868101516001600160a01b03168786015285810151868601526060808201519086015260809081015115159085015260a0909301929085019060010161110f565b5091979650505050505050565b6000806040838503121561117e57600080fd5b50508035926020909101359150565b6001600160a01b038116811461071857600080fd5b6000602082840312156111b457600080fd5b81356110d28161118d565b634e487b7160e01b600052604160045260246000fd5b604051601f8201601f1916810167ffffffffffffffff811182821017156111fe576111fe6111bf565b604052919050565b600082601f83011261121757600080fd5b8135602067ffffffffffffffff821115611233576112336111bf565b8160051b6112428282016111d5565b928352848101820192828101908785111561125c57600080fd5b83870192505b8483101561127b57823582529183019190830190611262565b979650505050505050565b600082601f83011261129757600080fd5b813567ffffffffffffffff8111156112b1576112b16111bf565b6112c4601f8201601f19166020016111d5565b8181528460208386010111156112d957600080fd5b816020850160208301376000918101602001919091529392505050565b600080600080600060a0868803121561130e57600080fd5b85356113198161118d565b945060208601356113298161118d565b9350604086013567ffffffffffffffff8082111561134657600080fd5b61135289838a01611206565b9450606088013591508082111561136857600080fd5b61137489838a01611206565b9350608088013591508082111561138a57600080fd5b5061139788828901611286565b9150509295509295909350565b600080600080600060a086880312156113bc57600080fd5b85356113c78161118d565b945060208601356113d78161118d565b93506040860135925060608601359150608086013567ffffffffffffffff81111561140157600080fd5b61139788828901611286565b634e487b7160e01b600052601160045260246000fd5b80820281158282048414176104595761045961140d565b60008261145757634e487b7160e01b600052601260045260246000fd5b500490565b808201808211156104595761045961140d565b818103818111156104595761045961140d565b6000600182016114945761149461140d565b5060010190565b634e487b7160e01b600052603260045260246000fd5b6000602082840312156114c357600080fd5b81516110d28161118d56fea264697066735822122012fb27821e7ca18dc6032476840e3de040fb583f8fc87ff8bdbf287dc63baa2664736f6c63430008150033",
  "linkReferences": {},
  "deployedLinkReferences": {}
}