{
  "_format": "hh-sol-artifact-1",
  "contractName": "AvatarMarketplace",
  "sourceName": "contracts/avatarMarket/NFTMarketplace.sol",
  "abi": [
    {
      "inputs": [
        {
          "internalType": "address",
          "name": "_nftContractAddress",
          "type": "address"
        },
        {
          "internalType": "uint256",
          "name": "_commissionPercentage",
          "type": "uint256"
        }
      ],
      "stateMutability": "nonpayable",
      "type": "constructor"
    },
    {
      "anonymous": false,
      "inputs": [
        {
          "indexed": false,
          "internalType": "uint256",
          "name": "newCommissionPercentage",
          "type": "uint256"
        }
      ],
      "name": "CommissionPercentageUpdated",
      "type": "event"
    },
    {
      "anonymous": false,
      "inputs": [
        {
          "indexed": false,
          "internalType": "address",
          "name": "newNFTContractAddress",
          "type": "address"
        }
      ],
      "name": "NFTContractUpdated",
      "type": "event"
    },
    {
      "anonymous": false,
      "inputs": [
        {
          "indexed": true,
          "internalType": "uint256",
          "name": "tokenId",
          "type": "uint256"
        },
        {
          "indexed": true,
          "internalType": "address",
          "name": "seller",
          "type": "address"
        },
        {
          "indexed": false,
          "internalType": "uint256",
          "name": "price",
          "type": "uint256"
        }
      ],
      "name": "NFTListed",
      "type": "event"
    },
    {
      "anonymous": false,
      "inputs": [
        {
          "indexed": true,
          "internalType": "uint256",
          "name": "tokenId",
          "type": "uint256"
        },
        {
          "indexed": true,
          "internalType": "address",
          "name": "seller",
          "type": "address"
        },
        {
          "indexed": false,
          "internalType": "uint256",
          "name": "price",
          "type": "uint256"
        }
      ],
      "name": "NFTListingCancelled",
      "type": "event"
    },
    {
      "anonymous": false,
      "inputs": [
        {
          "indexed": true,
          "internalType": "uint256",
          "name": "tokenId",
          "type": "uint256"
        },
        {
          "indexed": true,
          "internalType": "address",
          "name": "buyer",
          "type": "address"
        },
        {
          "indexed": true,
          "internalType": "address",
          "name": "seller",
          "type": "address"
        },
        {
          "indexed": false,
          "internalType": "uint256",
          "name": "price",
          "type": "uint256"
        }
      ],
      "name": "NFTPurchased",
      "type": "event"
    },
    {
      "anonymous": false,
      "inputs": [
        {
          "indexed": true,
          "internalType": "address",
          "name": "previousOwner",
          "type": "address"
        },
        {
          "indexed": true,
          "internalType": "address",
          "name": "newOwner",
          "type": "address"
        }
      ],
      "name": "OwnershipTransferred",
      "type": "event"
    },
    {
      "anonymous": false,
      "inputs": [
        {
          "indexed": false,
          "internalType": "address",
          "name": "account",
          "type": "address"
        }
      ],
      "name": "Paused",
      "type": "event"
    },
    {
      "anonymous": false,
      "inputs": [
        {
          "indexed": false,
          "internalType": "address",
          "name": "account",
          "type": "address"
        }
      ],
      "name": "Unpaused",
      "type": "event"
    },
    {
      "inputs": [
        {
          "internalType": "uint256",
          "name": "_listingIndex",
          "type": "uint256"
        }
      ],
      "name": "cancelListing",
      "outputs": [],
      "stateMutability": "nonpayable",
      "type": "function"
    },
    {
      "inputs": [],
      "name": "commissionPercentage",
      "outputs": [
        {
          "internalType": "uint256",
          "name": "",
          "type": "uint256"
        }
      ],
      "stateMutability": "view",
      "type": "function"
    },
    {
      "inputs": [],
      "name": "getActiveListings",
      "outputs": [
        {
          "components": [
            {
              "internalType": "uint256",
              "name": "tokenId",
              "type": "uint256"
            },
            {
              "internalType": "address",
              "name": "seller",
              "type": "address"
            },
            {
              "internalType": "uint256",
              "name": "price",
              "type": "uint256"
            },
            {
              "internalType": "bool",
              "name": "isActive",
              "type": "bool"
            }
          ],
          "internalType": "struct AvatarMarketplace.Listing[]",
          "name": "",
          "type": "tuple[]"
        }
      ],
      "stateMutability": "view",
      "type": "function"
    },
    {
      "inputs": [
        {
          "internalType": "uint256",
          "name": "_tokenId",
          "type": "uint256"
        },
        {
          "internalType": "uint256",
          "name": "_price",
          "type": "uint256"
        }
      ],
      "name": "listNFT",
      "outputs": [],
      "stateMutability": "nonpayable",
      "type": "function"
    },
    {
      "inputs": [
        {
          "internalType": "uint256",
          "name": "",
          "type": "uint256"
        }
      ],
      "name": "listings",
      "outputs": [
        {
          "internalType": "uint256",
          "name": "tokenId",
          "type": "uint256"
        },
        {
          "internalType": "address",
          "name": "seller",
          "type": "address"
        },
        {
          "internalType": "uint256",
          "name": "price",
          "type": "uint256"
        },
        {
          "internalType": "bool",
          "name": "isActive",
          "type": "bool"
        }
      ],
      "stateMutability": "view",
      "type": "function"
    },
    {
      "inputs": [
        {
          "internalType": "uint256",
          "name": "",
          "type": "uint256"
        }
      ],
      "name": "mintCounts",
      "outputs": [
        {
          "internalType": "uint256",
          "name": "",
          "type": "uint256"
        }
      ],
      "stateMutability": "view",
      "type": "function"
    },
    {
      "inputs": [],
      "name": "mintPrice",
      "outputs": [
        {
          "internalType": "uint256",
          "name": "",
          "type": "uint256"
        }
      ],
      "stateMutability": "view",
      "type": "function"
    },
    {
      "inputs": [],
      "name": "nftToken",
      "outputs": [
        {
          "internalType": "contract AvatarNFT",
          "name": "",
          "type": "address"
        }
      ],
      "stateMutability": "view",
      "type": "function"
    },
    {
      "inputs": [
        {
          "internalType": "address",
          "name": "",
          "type": "address"
        },
        {
          "internalType": "address",
          "name": "",
          "type": "address"
        },
        {
          "internalType": "uint256[]",
          "name": "",
          "type": "uint256[]"
        },
        {
          "internalType": "uint256[]",
          "name": "",
          "type": "uint256[]"
        },
        {
          "internalType": "bytes",
          "name": "",
          "type": "bytes"
        }
      ],
      "name": "onERC1155BatchReceived",
      "outputs": [
        {
          "internalType": "bytes4",
          "name": "",
          "type": "bytes4"
        }
      ],
      "stateMutability": "nonpayable",
      "type": "function"
    },
    {
      "inputs": [
        {
          "internalType": "address",
          "name": "",
          "type": "address"
        },
        {
          "internalType": "address",
          "name": "",
          "type": "address"
        },
        {
          "internalType": "uint256",
          "name": "",
          "type": "uint256"
        },
        {
          "internalType": "uint256",
          "name": "",
          "type": "uint256"
        },
        {
          "internalType": "bytes",
          "name": "",
          "type": "bytes"
        }
      ],
      "name": "onERC1155Received",
      "outputs": [
        {
          "internalType": "bytes4",
          "name": "",
          "type": "bytes4"
        }
      ],
      "stateMutability": "nonpayable",
      "type": "function"
    },
    {
      "inputs": [],
      "name": "owner",
      "outputs": [
        {
          "internalType": "address",
          "name": "",
          "type": "address"
        }
      ],
      "stateMutability": "view",
      "type": "function"
    },
    {
      "inputs": [],
      "name": "pause",
      "outputs": [],
      "stateMutability": "nonpayable",
      "type": "function"
    },
    {
      "inputs": [],
      "name": "paused",
      "outputs": [
        {
          "internalType": "bool",
          "name": "",
          "type": "bool"
        }
      ],
      "stateMutability": "view",
      "type": "function"
    },
    {
      "inputs": [
        {
          "internalType": "uint256",
          "name": "existingTokenId",
          "type": "uint256"
        }
      ],
      "name": "purchaseExistingNFT",
      "outputs": [],
      "stateMutability": "payable",
      "type": "function"
    },
    {
      "inputs": [
        {
          "internalType": "uint256",
          "name": "_listingIndex",
          "type": "uint256"
        }
      ],
      "name": "purchaseNFT",
      "outputs": [],
      "stateMutability": "payable",
      "type": "function"
    },
    {
      "inputs": [
        {
          "internalType": "uint256",
          "name": "_numberOfNFTs",
          "type": "uint256"
        }
      ],
      "name": "purchaseNFTsPackage",
      "outputs": [],
      "stateMutability": "payable",
      "type": "function"
    },
    {
      "inputs": [],
      "name": "renounceOwnership",
      "outputs": [],
      "stateMutability": "nonpayable",
      "type": "function"
    },
    {
      "inputs": [
        {
          "internalType": "uint256",
          "name": "_newMintPrice",
          "type": "uint256"
        }
      ],
      "name": "setMintPrice",
      "outputs": [],
      "stateMutability": "nonpayable",
      "type": "function"
    },
    {
      "inputs": [
        {
          "internalType": "address",
          "name": "_nftContractAddress",
          "type": "address"
        }
      ],
      "name": "setNFTContract",
      "outputs": [],
      "stateMutability": "nonpayable",
      "type": "function"
    },
    {
      "inputs": [
        {
          "internalType": "bytes4",
          "name": "interfaceId",
          "type": "bytes4"
        }
      ],
      "name": "supportsInterface",
      "outputs": [
        {
          "internalType": "bool",
          "name": "",
          "type": "bool"
        }
      ],
      "stateMutability": "view",
      "type": "function"
    },
    {
      "inputs": [],
      "name": "totalCommissionEarned",
      "outputs": [
        {
          "internalType": "uint256",
          "name": "",
          "type": "uint256"
        }
      ],
      "stateMutability": "view",
      "type": "function"
    },
    {
      "inputs": [
        {
          "internalType": "address",
          "name": "newOwner",
          "type": "address"
        }
      ],
      "name": "transferOwnership",
      "outputs": [],
      "stateMutability": "nonpayable",
      "type": "function"
    },
    {
      "inputs": [],
      "name": "unpause",
      "outputs": [],
      "stateMutability": "nonpayable",
      "type": "function"
    },
    {
      "inputs": [
        {
          "internalType": "uint256",
          "name": "_newCommissionPercentage",
          "type": "uint256"
        }
      ],
      "name": "updateCommissionPercentage",
      "outputs": [],
      "stateMutability": "nonpayable",
      "type": "function"
    },
    {
      "inputs": [
        {
          "internalType": "uint256",
          "name": "amount",
          "type": "uint256"
        }
      ],
      "name": "withdraw",
      "outputs": [],
      "stateMutability": "nonpayable",
      "type": "function"
    }
  ],
  "bytecode": "0x608060405267016345785d8a000060065534801561001c57600080fd5b5060405161192d38038061192d83398101604081905261003b916100c6565b61004433610076565b60018055600280546001600160a01b03909316610100026001600160a81b031990931692909217909155600355610100565b600080546001600160a01b038381166001600160a01b0319831681178455604051919092169283917f8be0079c531659141344cd1fd0a4f28419497f9722a3daafe3b4186f6b6457e09190a35050565b600080604083850312156100d957600080fd5b82516001600160a01b03811681146100f057600080fd5b6020939093015192949293505050565b61181e8061010f6000396000f3fe6080604052600436106101665760003560e01c80638da5cb5b116100d1578063c73cdd231161008a578063de74e57b11610064578063de74e57b1461040d578063f23a6e6114610457578063f2fde38b14610483578063f4a0a528146104a357600080fd5b8063c73cdd23146103bc578063d06fcba8146103d2578063d575fe64146103f757600080fd5b80638da5cb5b146102df57806394383f1414610311578063a7ccabdf14610331578063aa2e4ed614610351578063ae872c5314610364578063bc197c811461037757600080fd5b80636817c76c116101235780636817c76c14610222578063715018a6146102465780638456cb591461025b57806387c35bc0146102705780638b4678be146102925780638ce2199e146102bf57600080fd5b806301ffc9a71461016b578063150bde03146101a05780632e1a7d4d146101b5578063305a67a8146101d55780633f4ba83a146101f55780635c975abb1461020a575b600080fd5b34801561017757600080fd5b5061018b6101863660046113cc565b6104c3565b60405190151581526020015b60405180910390f35b6101b36101ae3660046113fd565b6104fa565b005b3480156101c157600080fd5b506101b36101d03660046113fd565b610756565b3480156101e157600080fd5b506101b36101f03660046113fd565b61078f565b34801561020157600080fd5b506101b361095a565b34801561021657600080fd5b5060025460ff1661018b565b34801561022e57600080fd5b5061023860065481565b604051908152602001610197565b34801561025257600080fd5b506101b361096c565b34801561026757600080fd5b506101b361097e565b34801561027c57600080fd5b5061028561098e565b6040516101979190611416565b34801561029e57600080fd5b506102386102ad3660046113fd565b60076020526000908152604090205481565b3480156102cb57600080fd5b506101b36102da3660046113fd565b610b2d565b3480156102eb57600080fd5b506000546001600160a01b03165b6040516001600160a01b039091168152602001610197565b34801561031d57600080fd5b506101b361032c366004611485565b610bca565b34801561033d57600080fd5b506101b361034c3660046114bc565b610e29565b6101b361035f3660046113fd565b610e8f565b6101b36103723660046113fd565b610fd4565b34801561038357600080fd5b506103a3610392366004611610565b63bc197c8160e01b95945050505050565b6040516001600160e01b03199091168152602001610197565b3480156103c857600080fd5b5061023860045481565b3480156103de57600080fd5b506002546102f99061010090046001600160a01b031681565b34801561040357600080fd5b5061023860035481565b34801561041957600080fd5b5061042d6104283660046113fd565b6110dc565b604080519485526001600160a01b0390931660208501529183015215156060820152608001610197565b34801561046357600080fd5b506103a36104723660046116be565b63f23a6e6160e01b95945050505050565b34801561048f57600080fd5b506101b361049e3660046114bc565b611122565b3480156104af57600080fd5b506101b36104be3660046113fd565b611198565b60006001600160e01b03198216630271189760e51b14806104f457506301ffc9a760e01b6001600160e01b03198316145b92915050565b6105026111a5565b61050a6111fe565b60055481106105555760405162461bcd60e51b8152602060048201526012602482015271125b9d985b1a59081b1a5cdd1a5b99c8125160721b60448201526064015b60405180910390fd5b60006005828154811061056a5761056a611727565b60009182526020909120600490910201600381015490915060ff166105c45760405162461bcd60e51b815260206004820152601060248201526f496e616374697665206c697374696e6760801b604482015260640161054c565b806002015434146106095760405162461bcd60e51b815260206004820152600f60248201526e496e636f72726563742076616c756560881b604482015260640161054c565b600060646003543461061b9190611753565b610625919061176a565b90508060046000828254610639919061178c565b909155505060018201546001600160a01b03166108fc610659833461179f565b6040518115909202916000818181858888f19350505050158015610681573d6000803e3d6000fd5b506002548254604051632142170760e11b815230600482015233602482015260448101919091526101009091046001600160a01b0316906342842e0e90606401600060405180830381600087803b1580156106db57600080fd5b505af11580156106ef573d6000803e3d6000fd5b5050505060038201805460ff19169055600182015482546040513481526001600160a01b03909216913391907fef1fb2bd31f5ed737e6054243d9b5eacd3af967f35af45e8fb844ca6dbbe98f99060200160405180910390a4505061075360018055565b50565b61075e61124a565b604051339082156108fc029083906000818181858888f1935050505015801561078b573d6000803e3d6000fd5b5050565b6107976111fe565b60055481106107dd5760405162461bcd60e51b8152602060048201526012602482015271125b9d985b1a59081b1a5cdd1a5b99c8125160721b604482015260640161054c565b6000600582815481106107f2576107f2611727565b600091825260209091206001600490920201908101549091506001600160a01b031633146108535760405162461bcd60e51b815260206004820152600e60248201526d2737ba103a34329039b2b63632b960911b604482015260640161054c565b600381015460ff1661089a5760405162461bcd60e51b815260206004820152601060248201526f496e616374697665206c697374696e6760801b604482015260640161054c565b60038101805460ff1916905560025481546040516323b872dd60e01b815230600482015233602482015260448101919091526101009091046001600160a01b0316906323b872dd90606401600060405180830381600087803b1580156108ff57600080fd5b505af1158015610913573d6000803e3d6000fd5b5050825460028401546040519081523393509091507fbd08ee6d85faf9c8c1fe115a36d0de02a2c023485ade4cbcc1906ffb24df450c906020015b60405180910390a35050565b61096261124a565b61096a6112a4565b565b61097461124a565b61096a60006112f6565b61098661124a565b61096a611346565b60606000805b6005548110156109e357600581815481106109b1576109b1611727565b600091825260209091206003600490920201015460ff16156109db57816109d7816117b2565b9250505b600101610994565b5060008167ffffffffffffffff8111156109ff576109ff6114d9565b604051908082528060200260200182016040528015610a5157816020015b604080516080810182526000808252602080830182905292820181905260608201528252600019909201910181610a1d5790505b5090506000805b600554811015610b245760058181548110610a7557610a75611727565b600091825260209091206003600490920201015460ff1615610b1c5760058181548110610aa457610aa4611727565b60009182526020918290206040805160808101825260049093029091018054835260018101546001600160a01b03169383019390935260028301549082015260039091015460ff16151560608201528383610afe816117b2565b945081518110610b1057610b10611727565b60200260200101819052505b600101610a58565b50909392505050565b610b3561124a565b610b3d6111fe565b6064811115610b8e5760405162461bcd60e51b815260206004820152601d60248201527f496e76616c696420636f6d6d697373696f6e2070657263656e74616765000000604482015260640161054c565b60038190556040518181527f7e3665a83046ac3c4ec146cf309edab9d75086c48761909ce868f5c65743f4f1906020015b60405180910390a150565b610bd26111fe565b6002546040516331a9108f60e11b815260048101849052339161010090046001600160a01b031690636352211e90602401602060405180830381865afa158015610c20573d6000803e3d6000fd5b505050506040513d601f19601f82011682018060405250810190610c4491906117cb565b6001600160a01b031614610c905760405162461bcd60e51b815260206004820152601360248201527213db9b1e481bdddb995c8818d85b881b1a5cdd606a1b604482015260640161054c565b6002546040516323b872dd60e01b8152336004820152306024820152604481018490526101009091046001600160a01b0316906323b872dd90606401600060405180830381600087803b158015610ce657600080fd5b505af1158015610cfa573d6000803e3d6000fd5b50506040805160808101825285815233602080830182815283850188815260016060860181815260058054928301815560005295517f036b6384b5eca791c62761152d0c79bb0604c104a5fb6f4eb0703f3154bb3db060049092029182015591517f036b6384b5eca791c62761152d0c79bb0604c104a5fb6f4eb0703f3154bb3db1830180546001600160a01b0319166001600160a01b03909216919091179055517f036b6384b5eca791c62761152d0c79bb0604c104a5fb6f4eb0703f3154bb3db282015592517f036b6384b5eca791c62761152d0c79bb0604c104a5fb6f4eb0703f3154bb3db3909301805460ff19169315159390931790925591518581529193508592507f5f9c03de076f5063cd3ebcfe8ef7aa8af378e4b35a83c77ba9777e97083879a2910161094e565b610e3161124a565b610e396111fe565b60028054610100600160a81b0319166101006001600160a01b038416908102919091179091556040519081527ff2610996d245d9b77e4ff84c2174eea0b76fb44c422218404f66e28816d78fb990602001610bbf565b610e976111a5565b610e9f6111fe565b600081815260076020526040812054610eb990600161178c565b90506000610ec882600a611753565b905060006064610ed8838261178c565b600654610ee59190611753565b610eef919061176a565b9050803414610f4e5760405162461bcd60e51b815260206004820152602560248201527f4d7573742073656e642074686520657861637420707269636520666f72207468604482015264194813919560da1b606482015260840161054c565b600254604051636578f13d60e11b8152336004820152602481018690526101009091046001600160a01b03169063caf1e27a90604401600060405180830381600087803b158015610f9e57600080fd5b505af1158015610fb2573d6000803e3d6000fd5b5050506000858152600760205260409020939093555061075391506112449050565b610fdc6111a5565b610fe46111fe565b600081600654610ff49190611753565b90508034146110595760405162461bcd60e51b815260206004820152602b60248201527f4d7573742073656e6420746865206578616374206d696e74207072696365206660448201526a6f7220616c6c204e46547360a81b606482015260840161054c565b60005b828110156110d1576002546040516340d097c360e01b81523360048201526101009091046001600160a01b0316906340d097c390602401600060405180830381600087803b1580156110ad57600080fd5b505af11580156110c1573d6000803e3d6000fd5b50506001909201915061105c9050565b505061075360018055565b600581815481106110ec57600080fd5b600091825260209091206004909102018054600182015460028301546003909301549193506001600160a01b0316919060ff1684565b61112a61124a565b6001600160a01b03811661118f5760405162461bcd60e51b815260206004820152602660248201527f4f776e61626c653a206e6577206f776e657220697320746865207a65726f206160448201526564647265737360d01b606482015260840161054c565b610753816112f6565b6111a061124a565b600655565b6002600154036111f75760405162461bcd60e51b815260206004820152601f60248201527f5265656e7472616e637947756172643a207265656e7472616e742063616c6c00604482015260640161054c565b6002600155565b60025460ff161561096a5760405162461bcd60e51b815260206004820152601060248201526f14185d5cd8589b194e881c185d5cd95960821b604482015260640161054c565b60018055565b6000546001600160a01b0316331461096a5760405162461bcd60e51b815260206004820181905260248201527f4f776e61626c653a2063616c6c6572206973206e6f7420746865206f776e6572604482015260640161054c565b6112ac611383565b6002805460ff191690557f5db9ee0a495bf2e6ff9c91a7834c1ba4fdd244a5e8aa4e537bd38aeae4b073aa335b6040516001600160a01b03909116815260200160405180910390a1565b600080546001600160a01b038381166001600160a01b0319831681178455604051919092169283917f8be0079c531659141344cd1fd0a4f28419497f9722a3daafe3b4186f6b6457e09190a35050565b61134e6111fe565b6002805460ff191660011790557f62e78cea01bee320cd4e420270b5ea74000d11b0c9f74754ebdbfc544b05a2586112d93390565b60025460ff1661096a5760405162461bcd60e51b815260206004820152601460248201527314185d5cd8589b194e881b9bdd081c185d5cd95960621b604482015260640161054c565b6000602082840312156113de57600080fd5b81356001600160e01b0319811681146113f657600080fd5b9392505050565b60006020828403121561140f57600080fd5b5035919050565b602080825282518282018190526000919060409081850190868401855b8281101561147857815180518552868101516001600160a01b031687860152858101518686015260609081015115159085015260809093019290850190600101611433565b5091979650505050505050565b6000806040838503121561149857600080fd5b50508035926020909101359150565b6001600160a01b038116811461075357600080fd5b6000602082840312156114ce57600080fd5b81356113f6816114a7565b634e487b7160e01b600052604160045260246000fd5b604051601f8201601f1916810167ffffffffffffffff81118282101715611518576115186114d9565b604052919050565b600082601f83011261153157600080fd5b8135602067ffffffffffffffff82111561154d5761154d6114d9565b8160051b61155c8282016114ef565b928352848101820192828101908785111561157657600080fd5b83870192505b848310156115955782358252918301919083019061157c565b979650505050505050565b600082601f8301126115b157600080fd5b813567ffffffffffffffff8111156115cb576115cb6114d9565b6115de601f8201601f19166020016114ef565b8181528460208386010111156115f357600080fd5b816020850160208301376000918101602001919091529392505050565b600080600080600060a0868803121561162857600080fd5b8535611633816114a7565b94506020860135611643816114a7565b9350604086013567ffffffffffffffff8082111561166057600080fd5b61166c89838a01611520565b9450606088013591508082111561168257600080fd5b61168e89838a01611520565b935060808801359150808211156116a457600080fd5b506116b1888289016115a0565b9150509295509295909350565b600080600080600060a086880312156116d657600080fd5b85356116e1816114a7565b945060208601356116f1816114a7565b93506040860135925060608601359150608086013567ffffffffffffffff81111561171b57600080fd5b6116b1888289016115a0565b634e487b7160e01b600052603260045260246000fd5b634e487b7160e01b600052601160045260246000fd5b80820281158282048414176104f4576104f461173d565b60008261178757634e487b7160e01b600052601260045260246000fd5b500490565b808201808211156104f4576104f461173d565b818103818111156104f4576104f461173d565b6000600182016117c4576117c461173d565b5060010190565b6000602082840312156117dd57600080fd5b81516113f6816114a756fea2646970667358221220bd7c9069bf0cd959c17baf30de43ecca428332911ce733026ab88703bf3f49dc64736f6c63430008170033",
  "linkReferences": {},
  "deployedLinkReferences": {}
}