{
  "_format": "hh-sol-artifact-1",
  "contractName": "AvatarMarketplace",
  "sourceName": "contracts/avatarMarket/NFTMarketplace.sol",
  "abi": [
    {
      "inputs": [
        {
          "internalType": "address",
          "name": "_nftContractAddress",
          "type": "address"
        },
        {
          "internalType": "uint256",
          "name": "_commissionPercentage",
          "type": "uint256"
        }
      ],
      "stateMutability": "nonpayable",
      "type": "constructor"
    },
    {
      "anonymous": false,
      "inputs": [
        {
          "indexed": false,
          "internalType": "uint256",
          "name": "newCommissionPercentage",
          "type": "uint256"
        }
      ],
      "name": "CommissionPercentageUpdated",
      "type": "event"
    },
    {
      "anonymous": false,
      "inputs": [
        {
          "indexed": true,
          "internalType": "uint256",
          "name": "listingIndex",
          "type": "uint256"
        },
        {
          "indexed": false,
          "internalType": "uint256",
          "name": "tokenId",
          "type": "uint256"
        },
        {
          "indexed": true,
          "internalType": "address",
          "name": "seller",
          "type": "address"
        },
        {
          "indexed": false,
          "internalType": "uint256",
          "name": "price",
          "type": "uint256"
        },
        {
          "indexed": false,
          "internalType": "string",
          "name": "status",
          "type": "string"
        }
      ],
      "name": "ListingUpdated",
      "type": "event"
    },
    {
      "anonymous": false,
      "inputs": [
        {
          "indexed": false,
          "internalType": "address",
          "name": "newNFTContractAddress",
          "type": "address"
        }
      ],
      "name": "NFTContractUpdated",
      "type": "event"
    },
    {
      "anonymous": false,
      "inputs": [
        {
          "indexed": true,
          "internalType": "address",
          "name": "previousOwner",
          "type": "address"
        },
        {
          "indexed": true,
          "internalType": "address",
          "name": "newOwner",
          "type": "address"
        }
      ],
      "name": "OwnershipTransferred",
      "type": "event"
    },
    {
      "anonymous": false,
      "inputs": [
        {
          "indexed": false,
          "internalType": "address",
          "name": "account",
          "type": "address"
        }
      ],
      "name": "Paused",
      "type": "event"
    },
    {
      "anonymous": false,
      "inputs": [
        {
          "indexed": false,
          "internalType": "address",
          "name": "account",
          "type": "address"
        }
      ],
      "name": "Unpaused",
      "type": "event"
    },
    {
      "inputs": [
        {
          "internalType": "uint256",
          "name": "listingIndex",
          "type": "uint256"
        }
      ],
      "name": "cancelListing",
      "outputs": [],
      "stateMutability": "nonpayable",
      "type": "function"
    },
    {
      "inputs": [],
      "name": "commissionPercentage",
      "outputs": [
        {
          "internalType": "uint256",
          "name": "",
          "type": "uint256"
        }
      ],
      "stateMutability": "view",
      "type": "function"
    },
    {
      "inputs": [],
      "name": "getActiveListings",
      "outputs": [
        {
          "components": [
            {
              "internalType": "uint256",
              "name": "tokenId",
              "type": "uint256"
            },
            {
              "internalType": "address",
              "name": "seller",
              "type": "address"
            },
            {
              "internalType": "uint256",
              "name": "price",
              "type": "uint256"
            },
            {
              "internalType": "bool",
              "name": "isActive",
              "type": "bool"
            }
          ],
          "internalType": "struct AvatarMarketplace.Listing[]",
          "name": "",
          "type": "tuple[]"
        }
      ],
      "stateMutability": "view",
      "type": "function"
    },
    {
      "inputs": [
        {
          "internalType": "uint256",
          "name": "tokenId",
          "type": "uint256"
        },
        {
          "internalType": "uint256",
          "name": "price",
          "type": "uint256"
        }
      ],
      "name": "listNFT",
      "outputs": [],
      "stateMutability": "nonpayable",
      "type": "function"
    },
    {
      "inputs": [
        {
          "internalType": "uint256",
          "name": "",
          "type": "uint256"
        }
      ],
      "name": "listings",
      "outputs": [
        {
          "internalType": "uint256",
          "name": "tokenId",
          "type": "uint256"
        },
        {
          "internalType": "address",
          "name": "seller",
          "type": "address"
        },
        {
          "internalType": "uint256",
          "name": "price",
          "type": "uint256"
        },
        {
          "internalType": "bool",
          "name": "isActive",
          "type": "bool"
        }
      ],
      "stateMutability": "view",
      "type": "function"
    },
    {
      "inputs": [
        {
          "internalType": "uint256",
          "name": "",
          "type": "uint256"
        }
      ],
      "name": "mintCounts",
      "outputs": [
        {
          "internalType": "uint256",
          "name": "",
          "type": "uint256"
        }
      ],
      "stateMutability": "view",
      "type": "function"
    },
    {
      "inputs": [],
      "name": "mintPrice",
      "outputs": [
        {
          "internalType": "uint256",
          "name": "",
          "type": "uint256"
        }
      ],
      "stateMutability": "view",
      "type": "function"
    },
    {
      "inputs": [],
      "name": "nftToken",
      "outputs": [
        {
          "internalType": "contract AvatarNFT",
          "name": "",
          "type": "address"
        }
      ],
      "stateMutability": "view",
      "type": "function"
    },
    {
      "inputs": [
        {
          "internalType": "address",
          "name": "",
          "type": "address"
        },
        {
          "internalType": "address",
          "name": "",
          "type": "address"
        },
        {
          "internalType": "uint256[]",
          "name": "",
          "type": "uint256[]"
        },
        {
          "internalType": "uint256[]",
          "name": "",
          "type": "uint256[]"
        },
        {
          "internalType": "bytes",
          "name": "",
          "type": "bytes"
        }
      ],
      "name": "onERC1155BatchReceived",
      "outputs": [
        {
          "internalType": "bytes4",
          "name": "",
          "type": "bytes4"
        }
      ],
      "stateMutability": "nonpayable",
      "type": "function"
    },
    {
      "inputs": [
        {
          "internalType": "address",
          "name": "",
          "type": "address"
        },
        {
          "internalType": "address",
          "name": "",
          "type": "address"
        },
        {
          "internalType": "uint256",
          "name": "",
          "type": "uint256"
        },
        {
          "internalType": "uint256",
          "name": "",
          "type": "uint256"
        },
        {
          "internalType": "bytes",
          "name": "",
          "type": "bytes"
        }
      ],
      "name": "onERC1155Received",
      "outputs": [
        {
          "internalType": "bytes4",
          "name": "",
          "type": "bytes4"
        }
      ],
      "stateMutability": "nonpayable",
      "type": "function"
    },
    {
      "inputs": [],
      "name": "owner",
      "outputs": [
        {
          "internalType": "address",
          "name": "",
          "type": "address"
        }
      ],
      "stateMutability": "view",
      "type": "function"
    },
    {
      "inputs": [],
      "name": "pause",
      "outputs": [],
      "stateMutability": "nonpayable",
      "type": "function"
    },
    {
      "inputs": [],
      "name": "paused",
      "outputs": [
        {
          "internalType": "bool",
          "name": "",
          "type": "bool"
        }
      ],
      "stateMutability": "view",
      "type": "function"
    },
    {
      "inputs": [
        {
          "internalType": "uint256",
          "name": "existingTokenId",
          "type": "uint256"
        }
      ],
      "name": "purchaseExistingNFT",
      "outputs": [],
      "stateMutability": "payable",
      "type": "function"
    },
    {
      "inputs": [
        {
          "internalType": "uint256",
          "name": "listingIndex",
          "type": "uint256"
        }
      ],
      "name": "purchaseNFT",
      "outputs": [],
      "stateMutability": "payable",
      "type": "function"
    },
    {
      "inputs": [
        {
          "internalType": "uint256",
          "name": "_numberOfNFTs",
          "type": "uint256"
        }
      ],
      "name": "purchaseNFTsPackage",
      "outputs": [],
      "stateMutability": "payable",
      "type": "function"
    },
    {
      "inputs": [],
      "name": "renounceOwnership",
      "outputs": [],
      "stateMutability": "nonpayable",
      "type": "function"
    },
    {
      "inputs": [
        {
          "internalType": "uint256",
          "name": "_newMintPrice",
          "type": "uint256"
        }
      ],
      "name": "setMintPrice",
      "outputs": [],
      "stateMutability": "nonpayable",
      "type": "function"
    },
    {
      "inputs": [
        {
          "internalType": "address",
          "name": "_nftContractAddress",
          "type": "address"
        }
      ],
      "name": "setNFTContract",
      "outputs": [],
      "stateMutability": "nonpayable",
      "type": "function"
    },
    {
      "inputs": [
        {
          "internalType": "bytes4",
          "name": "interfaceId",
          "type": "bytes4"
        }
      ],
      "name": "supportsInterface",
      "outputs": [
        {
          "internalType": "bool",
          "name": "",
          "type": "bool"
        }
      ],
      "stateMutability": "view",
      "type": "function"
    },
    {
      "inputs": [],
      "name": "totalCommissionEarned",
      "outputs": [
        {
          "internalType": "uint256",
          "name": "",
          "type": "uint256"
        }
      ],
      "stateMutability": "view",
      "type": "function"
    },
    {
      "inputs": [
        {
          "internalType": "address",
          "name": "newOwner",
          "type": "address"
        }
      ],
      "name": "transferOwnership",
      "outputs": [],
      "stateMutability": "nonpayable",
      "type": "function"
    },
    {
      "inputs": [],
      "name": "unpause",
      "outputs": [],
      "stateMutability": "nonpayable",
      "type": "function"
    },
    {
      "inputs": [
        {
          "internalType": "uint256",
          "name": "_newCommissionPercentage",
          "type": "uint256"
        }
      ],
      "name": "updateCommissionPercentage",
      "outputs": [],
      "stateMutability": "nonpayable",
      "type": "function"
    },
    {
      "inputs": [
        {
          "internalType": "uint256",
          "name": "amount",
          "type": "uint256"
        }
      ],
      "name": "withdraw",
      "outputs": [],
      "stateMutability": "nonpayable",
      "type": "function"
    }
  ],
  "bytecode": "0x608060405267016345785d8a000060065534801561001c57600080fd5b506040516119c13803806119c183398101604081905261003b916100c6565b61004433610076565b60018055600280546001600160a01b03909316610100026001600160a81b031990931692909217909155600355610100565b600080546001600160a01b038381166001600160a01b0319831681178455604051919092169283917f8be0079c531659141344cd1fd0a4f28419497f9722a3daafe3b4186f6b6457e09190a35050565b600080604083850312156100d957600080fd5b82516001600160a01b03811681146100f057600080fd5b6020939093015192949293505050565b6118b28061010f6000396000f3fe6080604052600436106101665760003560e01c80638da5cb5b116100d1578063c73cdd231161008a578063de74e57b11610064578063de74e57b1461040d578063f23a6e6114610457578063f2fde38b14610483578063f4a0a528146104a357600080fd5b8063c73cdd23146103bc578063d06fcba8146103d2578063d575fe64146103f757600080fd5b80638da5cb5b146102df57806394383f1414610311578063a7ccabdf14610331578063aa2e4ed614610351578063ae872c5314610364578063bc197c811461037757600080fd5b80636817c76c116101235780636817c76c14610222578063715018a6146102465780638456cb591461025b57806387c35bc0146102705780638b4678be146102925780638ce2199e146102bf57600080fd5b806301ffc9a71461016b578063150bde03146101a05780632e1a7d4d146101b5578063305a67a8146101d55780633f4ba83a146101f55780635c975abb1461020a575b600080fd5b34801561017757600080fd5b5061018b610186366004611460565b6104c3565b60405190151581526020015b60405180910390f35b6101b36101ae366004611491565b6104fa565b005b3480156101c157600080fd5b506101b36101d0366004611491565b610787565b3480156101e157600080fd5b506101b36101f0366004611491565b6107c0565b34801561020157600080fd5b506101b36109b7565b34801561021657600080fd5b5060025460ff1661018b565b34801561022e57600080fd5b5061023860065481565b604051908152602001610197565b34801561025257600080fd5b506101b36109c9565b34801561026757600080fd5b506101b36109db565b34801561027c57600080fd5b506102856109eb565b60405161019791906114aa565b34801561029e57600080fd5b506102386102ad366004611491565b60076020526000908152604090205481565b3480156102cb57600080fd5b506101b36102da366004611491565b610b8a565b3480156102eb57600080fd5b506000546001600160a01b03165b6040516001600160a01b039091168152602001610197565b34801561031d57600080fd5b506101b361032c366004611519565b610c27565b34801561033d57600080fd5b506101b361034c366004611550565b610ebd565b6101b361035f366004611491565b610f23565b6101b3610372366004611491565b611068565b34801561038357600080fd5b506103a36103923660046116a4565b63bc197c8160e01b95945050505050565b6040516001600160e01b03199091168152602001610197565b3480156103c857600080fd5b5061023860045481565b3480156103de57600080fd5b506002546102f99061010090046001600160a01b031681565b34801561040357600080fd5b5061023860035481565b34801561041957600080fd5b5061042d610428366004611491565b611170565b604080519485526001600160a01b0390931660208501529183015215156060820152608001610197565b34801561046357600080fd5b506103a3610472366004611752565b63f23a6e6160e01b95945050505050565b34801561048f57600080fd5b506101b361049e366004611550565b6111b6565b3480156104af57600080fd5b506101b36104be366004611491565b61122c565b60006001600160e01b03198216630271189760e51b14806104f457506301ffc9a760e01b6001600160e01b03198316145b92915050565b610502611239565b61050a611292565b60055481106105555760405162461bcd60e51b8152602060048201526012602482015271125b9d985b1a59081b1a5cdd1a5b99c8125160721b60448201526064015b60405180910390fd5b60006005828154811061056a5761056a6117bb565b60009182526020909120600490910201600381015490915060ff166105c45760405162461bcd60e51b815260206004820152601060248201526f496e616374697665206c697374696e6760801b604482015260640161054c565b806002015434146106095760405162461bcd60e51b815260206004820152600f60248201526e496e636f72726563742076616c756560881b604482015260640161054c565b600060646003543461061b91906117e7565b61062591906117fe565b905080600460008282546106399190611820565b909155505060018201546001600160a01b03166108fc6106598334611833565b6040518115909202916000818181858888f19350505050158015610681573d6000803e3d6000fd5b506002548254604051632142170760e11b815230600482015233602482015260448101919091526101009091046001600160a01b0316906342842e0e90606401600060405180830381600087803b1580156106db57600080fd5b505af11580156106ef573d6000803e3d6000fd5b50505060038301805460ff19169055506001820154825460028401546040516001600160a01b039093169286927fe0a1b131a07884f333da288d8be0b4c2df731572f65bd8489b045c860824798e9261077192918252602082015260606040820181905260099082015268141d5c98da185cd95960ba1b608082015260a00190565b60405180910390a3505061078460018055565b50565b61078f6112de565b604051339082156108fc029083906000818181858888f193505050501580156107bc573d6000803e3d6000fd5b5050565b6107c8611292565b600554811061080e5760405162461bcd60e51b8152602060048201526012602482015271125b9d985b1a59081b1a5cdd1a5b99c8125160721b604482015260640161054c565b600060058281548110610823576108236117bb565b600091825260209091206001600490920201908101549091506001600160a01b031633146108845760405162461bcd60e51b815260206004820152600e60248201526d2737ba103a34329039b2b63632b960911b604482015260640161054c565b600381015460ff166108cb5760405162461bcd60e51b815260206004820152601060248201526f496e616374697665206c697374696e6760801b604482015260640161054c565b60038101805460ff1916905560025481546040516323b872dd60e01b815230600482015233602482015260448101919091526101009091046001600160a01b0316906323b872dd90606401600060405180830381600087803b15801561093057600080fd5b505af1158015610944573d6000803e3d6000fd5b5050825460028401546040513394508693507fe0a1b131a07884f333da288d8be0b4c2df731572f65bd8489b045c860824798e926109ab9290825260208201526060604082018190526009908201526810d85b98d95b1b195960ba1b608082015260a00190565b60405180910390a35050565b6109bf6112de565b6109c7611338565b565b6109d16112de565b6109c7600061138a565b6109e36112de565b6109c76113da565b60606000805b600554811015610a405760058181548110610a0e57610a0e6117bb565b600091825260209091206003600490920201015460ff1615610a385781610a3481611846565b9250505b6001016109f1565b5060008167ffffffffffffffff811115610a5c57610a5c61156d565b604051908082528060200260200182016040528015610aae57816020015b604080516080810182526000808252602080830182905292820181905260608201528252600019909201910181610a7a5790505b5090506000805b600554811015610b815760058181548110610ad257610ad26117bb565b600091825260209091206003600490920201015460ff1615610b795760058181548110610b0157610b016117bb565b60009182526020918290206040805160808101825260049093029091018054835260018101546001600160a01b03169383019390935260028301549082015260039091015460ff16151560608201528383610b5b81611846565b945081518110610b6d57610b6d6117bb565b60200260200101819052505b600101610ab5565b50909392505050565b610b926112de565b610b9a611292565b6064811115610beb5760405162461bcd60e51b815260206004820152601d60248201527f496e76616c696420636f6d6d697373696f6e2070657263656e74616765000000604482015260640161054c565b60038190556040518181527f7e3665a83046ac3c4ec146cf309edab9d75086c48761909ce868f5c65743f4f1906020015b60405180910390a150565b610c2f611292565b6002546040516331a9108f60e11b815260048101849052339161010090046001600160a01b031690636352211e90602401602060405180830381865afa158015610c7d573d6000803e3d6000fd5b505050506040513d601f19601f82011682018060405250810190610ca1919061185f565b6001600160a01b031614610ced5760405162461bcd60e51b815260206004820152601360248201527213db9b1e481bdddb995c8818d85b881b1a5cdd606a1b604482015260640161054c565b6002546040516323b872dd60e01b8152336004820152306024820152604481018490526101009091046001600160a01b0316906323b872dd90606401600060405180830381600087803b158015610d4357600080fd5b505af1158015610d57573d6000803e3d6000fd5b5050604080516080810182528581523360208201818152928201868152600160608401818152600580548084018255600082905295517f036b6384b5eca791c62761152d0c79bb0604c104a5fb6f4eb0703f3154bb3db060049097029687015595517f036b6384b5eca791c62761152d0c79bb0604c104a5fb6f4eb0703f3154bb3db1860180546001600160a01b0319166001600160a01b0390921691909117905591517f036b6384b5eca791c62761152d0c79bb0604c104a5fb6f4eb0703f3154bb3db285015590517f036b6384b5eca791c62761152d0c79bb0604c104a5fb6f4eb0703f3154bb3db3909301805460ff1916931515939093179092559154919350610e65925090611833565b7fe0a1b131a07884f333da288d8be0b4c2df731572f65bd8489b045c860824798e84846040516109ab929190918252602082015260606040820181905260069082015265131a5cdd195960d21b608082015260a00190565b610ec56112de565b610ecd611292565b60028054610100600160a81b0319166101006001600160a01b038416908102919091179091556040519081527ff2610996d245d9b77e4ff84c2174eea0b76fb44c422218404f66e28816d78fb990602001610c1c565b610f2b611239565b610f33611292565b600081815260076020526040812054610f4d906001611820565b90506000610f5c82600a6117e7565b905060006064610f6c8382611820565b600654610f7991906117e7565b610f8391906117fe565b9050803414610fe25760405162461bcd60e51b815260206004820152602560248201527f4d7573742073656e642074686520657861637420707269636520666f72207468604482015264194813919560da1b606482015260840161054c565b600254604051636578f13d60e11b8152336004820152602481018690526101009091046001600160a01b03169063caf1e27a90604401600060405180830381600087803b15801561103257600080fd5b505af1158015611046573d6000803e3d6000fd5b5050506000858152600760205260409020939093555061078491506112d89050565b611070611239565b611078611292565b60008160065461108891906117e7565b90508034146110ed5760405162461bcd60e51b815260206004820152602b60248201527f4d7573742073656e6420746865206578616374206d696e74207072696365206660448201526a6f7220616c6c204e46547360a81b606482015260840161054c565b60005b82811015611165576002546040516340d097c360e01b81523360048201526101009091046001600160a01b0316906340d097c390602401600060405180830381600087803b15801561114157600080fd5b505af1158015611155573d6000803e3d6000fd5b5050600190920191506110f09050565b505061078460018055565b6005818154811061118057600080fd5b600091825260209091206004909102018054600182015460028301546003909301549193506001600160a01b0316919060ff1684565b6111be6112de565b6001600160a01b0381166112235760405162461bcd60e51b815260206004820152602660248201527f4f776e61626c653a206e6577206f776e657220697320746865207a65726f206160448201526564647265737360d01b606482015260840161054c565b6107848161138a565b6112346112de565b600655565b60026001540361128b5760405162461bcd60e51b815260206004820152601f60248201527f5265656e7472616e637947756172643a207265656e7472616e742063616c6c00604482015260640161054c565b6002600155565b60025460ff16156109c75760405162461bcd60e51b815260206004820152601060248201526f14185d5cd8589b194e881c185d5cd95960821b604482015260640161054c565b60018055565b6000546001600160a01b031633146109c75760405162461bcd60e51b815260206004820181905260248201527f4f776e61626c653a2063616c6c6572206973206e6f7420746865206f776e6572604482015260640161054c565b611340611417565b6002805460ff191690557f5db9ee0a495bf2e6ff9c91a7834c1ba4fdd244a5e8aa4e537bd38aeae4b073aa335b6040516001600160a01b03909116815260200160405180910390a1565b600080546001600160a01b038381166001600160a01b0319831681178455604051919092169283917f8be0079c531659141344cd1fd0a4f28419497f9722a3daafe3b4186f6b6457e09190a35050565b6113e2611292565b6002805460ff191660011790557f62e78cea01bee320cd4e420270b5ea74000d11b0c9f74754ebdbfc544b05a25861136d3390565b60025460ff166109c75760405162461bcd60e51b815260206004820152601460248201527314185d5cd8589b194e881b9bdd081c185d5cd95960621b604482015260640161054c565b60006020828403121561147257600080fd5b81356001600160e01b03198116811461148a57600080fd5b9392505050565b6000602082840312156114a357600080fd5b5035919050565b602080825282518282018190526000919060409081850190868401855b8281101561150c57815180518552868101516001600160a01b0316878601528581015186860152606090810151151590850152608090930192908501906001016114c7565b5091979650505050505050565b6000806040838503121561152c57600080fd5b50508035926020909101359150565b6001600160a01b038116811461078457600080fd5b60006020828403121561156257600080fd5b813561148a8161153b565b634e487b7160e01b600052604160045260246000fd5b604051601f8201601f1916810167ffffffffffffffff811182821017156115ac576115ac61156d565b604052919050565b600082601f8301126115c557600080fd5b8135602067ffffffffffffffff8211156115e1576115e161156d565b8160051b6115f0828201611583565b928352848101820192828101908785111561160a57600080fd5b83870192505b8483101561162957823582529183019190830190611610565b979650505050505050565b600082601f83011261164557600080fd5b813567ffffffffffffffff81111561165f5761165f61156d565b611672601f8201601f1916602001611583565b81815284602083860101111561168757600080fd5b816020850160208301376000918101602001919091529392505050565b600080600080600060a086880312156116bc57600080fd5b85356116c78161153b565b945060208601356116d78161153b565b9350604086013567ffffffffffffffff808211156116f457600080fd5b61170089838a016115b4565b9450606088013591508082111561171657600080fd5b61172289838a016115b4565b9350608088013591508082111561173857600080fd5b5061174588828901611634565b9150509295509295909350565b600080600080600060a0868803121561176a57600080fd5b85356117758161153b565b945060208601356117858161153b565b93506040860135925060608601359150608086013567ffffffffffffffff8111156117af57600080fd5b61174588828901611634565b634e487b7160e01b600052603260045260246000fd5b634e487b7160e01b600052601160045260246000fd5b80820281158282048414176104f4576104f46117d1565b60008261181b57634e487b7160e01b600052601260045260246000fd5b500490565b808201808211156104f4576104f46117d1565b818103818111156104f4576104f46117d1565b600060018201611858576118586117d1565b5060010190565b60006020828403121561187157600080fd5b815161148a8161153b56fea26469706673582212208aacd20f5f607e5760d3e7e52be604ede8a4ecc509affc80ddae4c3a8669564c64736f6c63430008170033",
  "linkReferences": {},
  "deployedLinkReferences": {}
}