{
  "_format": "hh-sol-artifact-1",
  "contractName": "AvatarMarketplace",
  "sourceName": "contracts/avatarMarket/NFTMarketplace.sol",
  "abi": [
    {
      "inputs": [
        {
          "internalType": "address",
          "name": "_nftContractAddress",
          "type": "address"
        },
        {
          "internalType": "uint256",
          "name": "_commissionPercentage",
          "type": "uint256"
        }
      ],
      "stateMutability": "nonpayable",
      "type": "constructor"
    },
    {
      "anonymous": false,
      "inputs": [
        {
          "indexed": false,
          "internalType": "uint256",
          "name": "newCommissionPercentage",
          "type": "uint256"
        }
      ],
      "name": "CommissionPercentageUpdated",
      "type": "event"
    },
    {
      "anonymous": false,
      "inputs": [
        {
          "indexed": true,
          "internalType": "address",
          "name": "newNFTContractAddress",
          "type": "address"
        }
      ],
      "name": "NFTContractUpdated",
      "type": "event"
    },
    {
      "anonymous": false,
      "inputs": [
        {
          "indexed": true,
          "internalType": "uint256",
          "name": "listingId",
          "type": "uint256"
        },
        {
          "indexed": true,
          "internalType": "address",
          "name": "seller",
          "type": "address"
        },
        {
          "indexed": true,
          "internalType": "uint256",
          "name": "tokenId",
          "type": "uint256"
        },
        {
          "indexed": false,
          "internalType": "uint256",
          "name": "price",
          "type": "uint256"
        },
        {
          "indexed": false,
          "internalType": "string",
          "name": "status",
          "type": "string"
        }
      ],
      "name": "NFTListed",
      "type": "event"
    },
    {
      "anonymous": false,
      "inputs": [
        {
          "indexed": true,
          "internalType": "uint256",
          "name": "listingId",
          "type": "uint256"
        },
        {
          "indexed": true,
          "internalType": "address",
          "name": "seller",
          "type": "address"
        },
        {
          "indexed": true,
          "internalType": "uint256",
          "name": "tokenId",
          "type": "uint256"
        },
        {
          "indexed": false,
          "internalType": "uint256",
          "name": "price",
          "type": "uint256"
        },
        {
          "indexed": false,
          "internalType": "string",
          "name": "status",
          "type": "string"
        }
      ],
      "name": "NFTListingCancelled",
      "type": "event"
    },
    {
      "anonymous": false,
      "inputs": [
        {
          "indexed": true,
          "internalType": "uint256",
          "name": "listingId",
          "type": "uint256"
        },
        {
          "indexed": true,
          "internalType": "address",
          "name": "buyer",
          "type": "address"
        },
        {
          "indexed": true,
          "internalType": "address",
          "name": "seller",
          "type": "address"
        },
        {
          "indexed": false,
          "internalType": "uint256",
          "name": "tokenId",
          "type": "uint256"
        },
        {
          "indexed": false,
          "internalType": "uint256",
          "name": "price",
          "type": "uint256"
        },
        {
          "indexed": false,
          "internalType": "string",
          "name": "status",
          "type": "string"
        }
      ],
      "name": "NFTPurchased",
      "type": "event"
    },
    {
      "anonymous": false,
      "inputs": [
        {
          "indexed": true,
          "internalType": "address",
          "name": "previousOwner",
          "type": "address"
        },
        {
          "indexed": true,
          "internalType": "address",
          "name": "newOwner",
          "type": "address"
        }
      ],
      "name": "OwnershipTransferred",
      "type": "event"
    },
    {
      "anonymous": false,
      "inputs": [
        {
          "indexed": false,
          "internalType": "address",
          "name": "account",
          "type": "address"
        }
      ],
      "name": "Paused",
      "type": "event"
    },
    {
      "anonymous": false,
      "inputs": [
        {
          "indexed": true,
          "internalType": "address",
          "name": "newSiliquaCoinAddress",
          "type": "address"
        }
      ],
      "name": "SiliquaCoinUpdated",
      "type": "event"
    },
    {
      "anonymous": false,
      "inputs": [
        {
          "indexed": false,
          "internalType": "address",
          "name": "account",
          "type": "address"
        }
      ],
      "name": "Unpaused",
      "type": "event"
    },
    {
      "inputs": [
        {
          "internalType": "uint256",
          "name": "_listingId",
          "type": "uint256"
        }
      ],
      "name": "cancelListing",
      "outputs": [],
      "stateMutability": "nonpayable",
      "type": "function"
    },
    {
      "inputs": [],
      "name": "commissionPercentage",
      "outputs": [
        {
          "internalType": "uint256",
          "name": "",
          "type": "uint256"
        }
      ],
      "stateMutability": "view",
      "type": "function"
    },
    {
      "inputs": [],
      "name": "getActiveListings",
      "outputs": [
        {
          "components": [
            {
              "internalType": "uint256",
              "name": "listingId",
              "type": "uint256"
            },
            {
              "internalType": "address",
              "name": "seller",
              "type": "address"
            },
            {
              "internalType": "uint256",
              "name": "tokenId",
              "type": "uint256"
            },
            {
              "internalType": "uint256",
              "name": "price",
              "type": "uint256"
            },
            {
              "internalType": "bool",
              "name": "isActive",
              "type": "bool"
            }
          ],
          "internalType": "struct AvatarMarketplace.Listing[]",
          "name": "activeListings",
          "type": "tuple[]"
        }
      ],
      "stateMutability": "view",
      "type": "function"
    },
    {
      "inputs": [
        {
          "internalType": "uint256",
          "name": "_tokenId",
          "type": "uint256"
        },
        {
          "internalType": "uint256",
          "name": "_price",
          "type": "uint256"
        }
      ],
      "name": "listNFT",
      "outputs": [],
      "stateMutability": "nonpayable",
      "type": "function"
    },
    {
      "inputs": [],
      "name": "listingId",
      "outputs": [
        {
          "internalType": "uint256",
          "name": "",
          "type": "uint256"
        }
      ],
      "stateMutability": "view",
      "type": "function"
    },
    {
      "inputs": [
        {
          "internalType": "uint256",
          "name": "",
          "type": "uint256"
        }
      ],
      "name": "listings",
      "outputs": [
        {
          "internalType": "uint256",
          "name": "listingId",
          "type": "uint256"
        },
        {
          "internalType": "address",
          "name": "seller",
          "type": "address"
        },
        {
          "internalType": "uint256",
          "name": "tokenId",
          "type": "uint256"
        },
        {
          "internalType": "uint256",
          "name": "price",
          "type": "uint256"
        },
        {
          "internalType": "bool",
          "name": "isActive",
          "type": "bool"
        }
      ],
      "stateMutability": "view",
      "type": "function"
    },
    {
      "inputs": [],
      "name": "mintPrice",
      "outputs": [
        {
          "internalType": "uint256",
          "name": "",
          "type": "uint256"
        }
      ],
      "stateMutability": "view",
      "type": "function"
    },
    {
      "inputs": [],
      "name": "nftToken",
      "outputs": [
        {
          "internalType": "contract AvatarNFT",
          "name": "",
          "type": "address"
        }
      ],
      "stateMutability": "view",
      "type": "function"
    },
    {
      "inputs": [
        {
          "internalType": "address",
          "name": "",
          "type": "address"
        },
        {
          "internalType": "address",
          "name": "",
          "type": "address"
        },
        {
          "internalType": "uint256[]",
          "name": "",
          "type": "uint256[]"
        },
        {
          "internalType": "uint256[]",
          "name": "",
          "type": "uint256[]"
        },
        {
          "internalType": "bytes",
          "name": "",
          "type": "bytes"
        }
      ],
      "name": "onERC1155BatchReceived",
      "outputs": [
        {
          "internalType": "bytes4",
          "name": "",
          "type": "bytes4"
        }
      ],
      "stateMutability": "nonpayable",
      "type": "function"
    },
    {
      "inputs": [
        {
          "internalType": "address",
          "name": "",
          "type": "address"
        },
        {
          "internalType": "address",
          "name": "",
          "type": "address"
        },
        {
          "internalType": "uint256",
          "name": "",
          "type": "uint256"
        },
        {
          "internalType": "uint256",
          "name": "",
          "type": "uint256"
        },
        {
          "internalType": "bytes",
          "name": "",
          "type": "bytes"
        }
      ],
      "name": "onERC1155Received",
      "outputs": [
        {
          "internalType": "bytes4",
          "name": "",
          "type": "bytes4"
        }
      ],
      "stateMutability": "nonpayable",
      "type": "function"
    },
    {
      "inputs": [],
      "name": "owner",
      "outputs": [
        {
          "internalType": "address",
          "name": "",
          "type": "address"
        }
      ],
      "stateMutability": "view",
      "type": "function"
    },
    {
      "inputs": [],
      "name": "pause",
      "outputs": [],
      "stateMutability": "nonpayable",
      "type": "function"
    },
    {
      "inputs": [],
      "name": "paused",
      "outputs": [
        {
          "internalType": "bool",
          "name": "",
          "type": "bool"
        }
      ],
      "stateMutability": "view",
      "type": "function"
    },
    {
      "inputs": [
        {
          "internalType": "uint256",
          "name": "_listingId",
          "type": "uint256"
        }
      ],
      "name": "purchaseNFT",
      "outputs": [],
      "stateMutability": "payable",
      "type": "function"
    },
    {
      "inputs": [],
      "name": "purchaseNFTsPackage",
      "outputs": [],
      "stateMutability": "payable",
      "type": "function"
    },
    {
      "inputs": [],
      "name": "renounceOwnership",
      "outputs": [],
      "stateMutability": "nonpayable",
      "type": "function"
    },
    {
      "inputs": [
        {
          "internalType": "uint256",
          "name": "_newMintPrice",
          "type": "uint256"
        }
      ],
      "name": "setMintPrice",
      "outputs": [],
      "stateMutability": "nonpayable",
      "type": "function"
    },
    {
      "inputs": [
        {
          "internalType": "address",
          "name": "_nftContractAddress",
          "type": "address"
        }
      ],
      "name": "setNFTContract",
      "outputs": [],
      "stateMutability": "nonpayable",
      "type": "function"
    },
    {
      "inputs": [
        {
          "internalType": "bytes4",
          "name": "interfaceId",
          "type": "bytes4"
        }
      ],
      "name": "supportsInterface",
      "outputs": [
        {
          "internalType": "bool",
          "name": "",
          "type": "bool"
        }
      ],
      "stateMutability": "view",
      "type": "function"
    },
    {
      "inputs": [],
      "name": "totalCommissionEarned",
      "outputs": [
        {
          "internalType": "uint256",
          "name": "",
          "type": "uint256"
        }
      ],
      "stateMutability": "view",
      "type": "function"
    },
    {
      "inputs": [
        {
          "internalType": "address",
          "name": "newOwner",
          "type": "address"
        }
      ],
      "name": "transferOwnership",
      "outputs": [],
      "stateMutability": "nonpayable",
      "type": "function"
    },
    {
      "inputs": [],
      "name": "unpause",
      "outputs": [],
      "stateMutability": "nonpayable",
      "type": "function"
    },
    {
      "inputs": [
        {
          "internalType": "uint256",
          "name": "_newCommissionPercentage",
          "type": "uint256"
        }
      ],
      "name": "updateCommissionPercentage",
      "outputs": [],
      "stateMutability": "nonpayable",
      "type": "function"
    }
  ],
  "bytecode": "0x60806040526000600655678ac7230489e8000060075534801561002157600080fd5b50604051611754380380611754833981016040819052610040916100cb565b6100493361007b565b60018055600280546001600160a01b03909316610100026001600160a81b031990931692909217909155600355610105565b600080546001600160a01b038381166001600160a01b0319831681178455604051919092169283917f8be0079c531659141344cd1fd0a4f28419497f9722a3daafe3b4186f6b6457e09190a35050565b600080604083850312156100de57600080fd5b82516001600160a01b03811681146100f557600080fd5b6020939093015192949293505050565b611640806101146000396000f3fe6080604052600436106101405760003560e01c806392589e01116100b6578063d06fcba81161006f578063d06fcba814610357578063d575fe641461037c578063de74e57b14610392578063f23a6e611461041b578063f2fde38b14610447578063f4a0a5281461046757600080fd5b806392589e011461029e5780639405dfdd146102a657806394383f14146102bc578063a7ccabdf146102dc578063bc197c81146102fc578063c73cdd231461034157600080fd5b80636817c76c116101085780636817c76c146101dc578063715018a6146102005780638456cb591461021557806387c35bc01461022a5780638ce2199e1461024c5780638da5cb5b1461026c57600080fd5b806301ffc9a714610145578063150bde031461017a578063305a67a81461018f5780633f4ba83a146101af5780635c975abb146101c4575b600080fd5b34801561015157600080fd5b506101656101603660046111e4565b610487565b60405190151581526020015b60405180910390f35b61018d610188366004611215565b6104be565b005b34801561019b57600080fd5b5061018d6101aa366004611215565b61077a565b3480156101bb57600080fd5b5061018d610970565b3480156101d057600080fd5b5060025460ff16610165565b3480156101e857600080fd5b506101f260075481565b604051908152602001610171565b34801561020c57600080fd5b5061018d610982565b34801561022157600080fd5b5061018d610994565b34801561023657600080fd5b5061023f6109a4565b604051610171919061122e565b34801561025857600080fd5b5061018d610267366004611215565b610b34565b34801561027857600080fd5b506000546001600160a01b03165b6040516001600160a01b039091168152602001610171565b61018d610bd0565b3480156102b257600080fd5b506101f260065481565b3480156102c857600080fd5b5061018d6102d73660046112a7565b610cb4565b3480156102e857600080fd5b5061018d6102f73660046112de565b610ede565b34801561030857600080fd5b50610328610317366004611432565b63bc197c8160e01b95945050505050565b6040516001600160e01b03199091168152602001610171565b34801561034d57600080fd5b506101f260045481565b34801561036357600080fd5b506002546102869061010090046001600160a01b031681565b34801561038857600080fd5b506101f260035481565b34801561039e57600080fd5b506103e96103ad366004611215565b6005602052600090815260409020805460018201546002830154600384015460049094015492936001600160a01b039092169290919060ff1685565b604080519586526001600160a01b0390941660208601529284019190915260608301521515608082015260a001610171565b34801561042757600080fd5b506103286104363660046114e0565b63f23a6e6160e01b95945050505050565b34801561045357600080fd5b5061018d6104623660046112de565b610f40565b34801561047357600080fd5b5061018d610482366004611215565b610fb6565b60006001600160e01b03198216630271189760e51b14806104b857506301ffc9a760e01b6001600160e01b03198316145b92915050565b6104c6610fc3565b6104ce61101c565b60065481106105175760405162461bcd60e51b815260206004820152601060248201526f125108191bd95cdb89dd08195e1a5cdd60821b60448201526064015b60405180910390fd5b6000818152600560205260409020600481015460ff166105715760405162461bcd60e51b81526020600482015260156024820152744c697374696e67206973206e6f742061637469766560581b604482015260640161050e565b806003015434146105b65760405162461bcd60e51b815260206004820152600f60248201526e496e636f727265637420707269636560881b604482015260640161050e565b6000606460035483600301546105cc919061155f565b6105d69190611576565b905080600460008282546105ea9190611598565b9091555050600080546040516001600160a01b039091169183156108fc02918491818181858888f19350505050158015610628573d6000803e3d6000fd5b50600081836003015461063b91906115ab565b60018401546040519192506001600160a01b03169082156108fc029083906000818181858888f19350505050158015610678573d6000803e3d6000fd5b506002805490840154604051632142170760e11b815230600482015233602482015260448101919091526101009091046001600160a01b0316906342842e0e90606401600060405180830381600087803b1580156106d557600080fd5b505af11580156106e9573d6000803e3d6000fd5b5050505060048301805460ff1916905560018301546002840154604080519182523460208301526060828201819052600990830152681c1d5c98da185cd95960ba1b6080830152516001600160a01b0390921691339187917f12c5db205c15a58219d216eea2f3362efc64a7e2db9a9b7237eae6ea6e6e30049181900360a00190a450505061077760018055565b50565b61078261101c565b60065481106107c85760405162461bcd60e51b8152602060048201526012602482015271125b9d985b1a59081b1a5cdd1a5b99c8125160721b604482015260640161050e565b600081815260056020526040902060018101546001600160a01b031633146108415760405162461bcd60e51b815260206004820152602660248201527f4f6e6c79207468652073656c6c65722063616e2063616e63656c20746865206c604482015265697374696e6760d01b606482015260840161050e565b600481015460ff1661088d5760405162461bcd60e51b81526020600482015260156024820152744c697374696e67206973206e6f742061637469766560581b604482015260640161050e565b60028054908201546040516323b872dd60e01b815230600482015233602482015260448101919091526101009091046001600160a01b0316906323b872dd90606401600060405180830381600087803b1580156108e957600080fd5b505af11580156108fd573d6000803e3d6000fd5b5050505060048101805460ff191690556002810154600382015460408051918252602082018190526009828201526818d85b98d95b1b195960ba1b606083015251339185917f4365cb53484debef7671e094e8cead2a45d4b329d842264eb2c68b1f1f46d3a39181900360800190a45050565b610978611062565b6109806110bc565b565b61098a611062565b610980600061110e565b61099c611062565b61098061115e565b60606109ae61101c565b6000805b6006548110156109ec5760008181526005602052604090206004015460ff16156109e457816109e0816115be565b9250505b6001016109b2565b508067ffffffffffffffff811115610a0657610a066112fb565b604051908082528060200260200182016040528015610a7457816020015b610a616040518060a001604052806000815260200160006001600160a01b0316815260200160008152602001600081526020016000151581525090565b815260200190600190039081610a245790505b5091506000805b600654811015610b2e5760008181526005602052604090206004015460ff1615610b2657600081815260056020908152604091829020825160a0810184528154815260018201546001600160a01b0316928101929092526002810154928201929092526003820154606082015260049091015460ff16151560808201528451859084908110610b0c57610b0c6115d7565b60200260200101819052508180610b22906115be565b9250505b600101610a7b565b50505090565b610b3c611062565b610b4461101c565b6064811115610b955760405162461bcd60e51b815260206004820152601d60248201527f496e76616c696420636f6d6d697373696f6e2070657263656e74616765000000604482015260640161050e565b60038190556040518181527f7e3665a83046ac3c4ec146cf309edab9d75086c48761909ce868f5c65743f4f19060200160405180910390a150565b610bd8610fc3565b610be061101c565b6007543414610c315760405162461bcd60e51b815260206004820152601e60248201527f4d7573742073656e6420746865206578616374206d696e742070726963650000604482015260640161050e565b60005b6005811015610caa576002546040516340d097c360e01b81523360048201526101009091046001600160a01b0316906340d097c390602401600060405180830381600087803b158015610c8657600080fd5b505af1158015610c9a573d6000803e3d6000fd5b505060019092019150610c349050565b5061098060018055565b610cbc61101c565b6002546040516331a9108f60e11b815260048101849052339161010090046001600160a01b031690636352211e90602401602060405180830381865afa158015610d0a573d6000803e3d6000fd5b505050506040513d601f19601f82011682018060405250810190610d2e91906115ed565b6001600160a01b031614610d7a5760405162461bcd60e51b815260206004820152601360248201527213db9b1e481bdddb995c8818d85b881cd95b1b606a1b604482015260640161050e565b6002546040516323b872dd60e01b8152336004820152306024820152604481018490526101009091046001600160a01b0316906323b872dd90606401600060405180830381600087803b158015610dd057600080fd5b505af1158015610de4573d6000803e3d6000fd5b50506040805160a081018252600680548083523360208085018281528587018b815260608088018c815260016080808b018281526000998a5260058852988c90209a518b559451908a0180546001600160a01b0319166001600160a01b03909216919091179055915160028901559051600388015593516004909601805460ff191696151596909617909555835486518a815291820187905295810193909352651b1a5cdd195960d21b9183019190915287955093507f1874edc4dd8ef51672d2c7645e73e04998f9bed81a6dbc28eb3dc65a06d725bf910160405180910390a460068054906000610ed5836115be565b91905055505050565b610ee6611062565b610eee61101c565b60028054610100600160a81b0319166101006001600160a01b038416908102919091179091556040517ff2610996d245d9b77e4ff84c2174eea0b76fb44c422218404f66e28816d78fb990600090a250565b610f48611062565b6001600160a01b038116610fad5760405162461bcd60e51b815260206004820152602660248201527f4f776e61626c653a206e6577206f776e657220697320746865207a65726f206160448201526564647265737360d01b606482015260840161050e565b6107778161110e565b610fbe611062565b600755565b6002600154036110155760405162461bcd60e51b815260206004820152601f60248201527f5265656e7472616e637947756172643a207265656e7472616e742063616c6c00604482015260640161050e565b6002600155565b60025460ff16156109805760405162461bcd60e51b815260206004820152601060248201526f14185d5cd8589b194e881c185d5cd95960821b604482015260640161050e565b6000546001600160a01b031633146109805760405162461bcd60e51b815260206004820181905260248201527f4f776e61626c653a2063616c6c6572206973206e6f7420746865206f776e6572604482015260640161050e565b6110c461119b565b6002805460ff191690557f5db9ee0a495bf2e6ff9c91a7834c1ba4fdd244a5e8aa4e537bd38aeae4b073aa335b6040516001600160a01b03909116815260200160405180910390a1565b600080546001600160a01b038381166001600160a01b0319831681178455604051919092169283917f8be0079c531659141344cd1fd0a4f28419497f9722a3daafe3b4186f6b6457e09190a35050565b61116661101c565b6002805460ff191660011790557f62e78cea01bee320cd4e420270b5ea74000d11b0c9f74754ebdbfc544b05a2586110f13390565b60025460ff166109805760405162461bcd60e51b815260206004820152601460248201527314185d5cd8589b194e881b9bdd081c185d5cd95960621b604482015260640161050e565b6000602082840312156111f657600080fd5b81356001600160e01b03198116811461120e57600080fd5b9392505050565b60006020828403121561122757600080fd5b5035919050565b602080825282518282018190526000919060409081850190868401855b8281101561129a57815180518552868101516001600160a01b03168786015285810151868601526060808201519086015260809081015115159085015260a0909301929085019060010161124b565b5091979650505050505050565b600080604083850312156112ba57600080fd5b50508035926020909101359150565b6001600160a01b038116811461077757600080fd5b6000602082840312156112f057600080fd5b813561120e816112c9565b634e487b7160e01b600052604160045260246000fd5b604051601f8201601f1916810167ffffffffffffffff8111828210171561133a5761133a6112fb565b604052919050565b600082601f83011261135357600080fd5b8135602067ffffffffffffffff82111561136f5761136f6112fb565b8160051b61137e828201611311565b928352848101820192828101908785111561139857600080fd5b83870192505b848310156113b75782358252918301919083019061139e565b979650505050505050565b600082601f8301126113d357600080fd5b813567ffffffffffffffff8111156113ed576113ed6112fb565b611400601f8201601f1916602001611311565b81815284602083860101111561141557600080fd5b816020850160208301376000918101602001919091529392505050565b600080600080600060a0868803121561144a57600080fd5b8535611455816112c9565b94506020860135611465816112c9565b9350604086013567ffffffffffffffff8082111561148257600080fd5b61148e89838a01611342565b945060608801359150808211156114a457600080fd5b6114b089838a01611342565b935060808801359150808211156114c657600080fd5b506114d3888289016113c2565b9150509295509295909350565b600080600080600060a086880312156114f857600080fd5b8535611503816112c9565b94506020860135611513816112c9565b93506040860135925060608601359150608086013567ffffffffffffffff81111561153d57600080fd5b6114d3888289016113c2565b634e487b7160e01b600052601160045260246000fd5b80820281158282048414176104b8576104b8611549565b60008261159357634e487b7160e01b600052601260045260246000fd5b500490565b808201808211156104b8576104b8611549565b818103818111156104b8576104b8611549565b6000600182016115d0576115d0611549565b5060010190565b634e487b7160e01b600052603260045260246000fd5b6000602082840312156115ff57600080fd5b815161120e816112c956fea2646970667358221220060c34953a810059836a9af30cfb4e5b9b11c1ef84ca98474cb81619058b2f2564736f6c63430008170033",
  "linkReferences": {},
  "deployedLinkReferences": {}
}