{
  "_format": "hh-sol-artifact-1",
  "contractName": "AvatarMarketplace",
  "sourceName": "contracts/avatarMarket/NFTMarketplace.sol",
  "abi": [
    {
      "inputs": [
        {
          "internalType": "address",
          "name": "_siliquaCoinAddress",
          "type": "address"
        },
        {
          "internalType": "address",
          "name": "_nftContractAddress",
          "type": "address"
        },
        {
          "internalType": "uint256",
          "name": "_commissionPercentage",
          "type": "uint256"
        }
      ],
      "stateMutability": "nonpayable",
      "type": "constructor"
    },
    {
      "anonymous": false,
      "inputs": [
        {
          "indexed": false,
          "internalType": "uint256",
          "name": "newCommissionPercentage",
          "type": "uint256"
        }
      ],
      "name": "CommissionPercentageUpdated",
      "type": "event"
    },
    {
      "anonymous": false,
      "inputs": [
        {
          "indexed": true,
          "internalType": "address",
          "name": "newNFTContractAddress",
          "type": "address"
        }
      ],
      "name": "NFTContractUpdated",
      "type": "event"
    },
    {
      "anonymous": false,
      "inputs": [
        {
          "indexed": true,
          "internalType": "uint256",
          "name": "listingId",
          "type": "uint256"
        },
        {
          "indexed": true,
          "internalType": "address",
          "name": "seller",
          "type": "address"
        },
        {
          "indexed": true,
          "internalType": "uint256",
          "name": "tokenId",
          "type": "uint256"
        },
        {
          "indexed": false,
          "internalType": "uint256",
          "name": "price",
          "type": "uint256"
        },
        {
          "indexed": false,
          "internalType": "string",
          "name": "status",
          "type": "string"
        }
      ],
      "name": "NFTListed",
      "type": "event"
    },
    {
      "anonymous": false,
      "inputs": [
        {
          "indexed": true,
          "internalType": "uint256",
          "name": "listingId",
          "type": "uint256"
        },
        {
          "indexed": true,
          "internalType": "address",
          "name": "seller",
          "type": "address"
        },
        {
          "indexed": true,
          "internalType": "uint256",
          "name": "tokenId",
          "type": "uint256"
        },
        {
          "indexed": false,
          "internalType": "uint256",
          "name": "price",
          "type": "uint256"
        },
        {
          "indexed": false,
          "internalType": "string",
          "name": "status",
          "type": "string"
        }
      ],
      "name": "NFTListingCancelled",
      "type": "event"
    },
    {
      "anonymous": false,
      "inputs": [
        {
          "indexed": true,
          "internalType": "uint256",
          "name": "listingId",
          "type": "uint256"
        },
        {
          "indexed": true,
          "internalType": "address",
          "name": "buyer",
          "type": "address"
        },
        {
          "indexed": true,
          "internalType": "address",
          "name": "seller",
          "type": "address"
        },
        {
          "indexed": false,
          "internalType": "uint256",
          "name": "tokenId",
          "type": "uint256"
        },
        {
          "indexed": false,
          "internalType": "uint256",
          "name": "price",
          "type": "uint256"
        },
        {
          "indexed": false,
          "internalType": "string",
          "name": "status",
          "type": "string"
        }
      ],
      "name": "NFTPurchased",
      "type": "event"
    },
    {
      "anonymous": false,
      "inputs": [
        {
          "indexed": true,
          "internalType": "address",
          "name": "previousOwner",
          "type": "address"
        },
        {
          "indexed": true,
          "internalType": "address",
          "name": "newOwner",
          "type": "address"
        }
      ],
      "name": "OwnershipTransferred",
      "type": "event"
    },
    {
      "anonymous": false,
      "inputs": [
        {
          "indexed": false,
          "internalType": "address",
          "name": "account",
          "type": "address"
        }
      ],
      "name": "Paused",
      "type": "event"
    },
    {
      "anonymous": false,
      "inputs": [
        {
          "indexed": true,
          "internalType": "address",
          "name": "newSiliquaCoinAddress",
          "type": "address"
        }
      ],
      "name": "SiliquaCoinUpdated",
      "type": "event"
    },
    {
      "anonymous": false,
      "inputs": [
        {
          "indexed": false,
          "internalType": "address",
          "name": "account",
          "type": "address"
        }
      ],
      "name": "Unpaused",
      "type": "event"
    },
    {
      "inputs": [
        {
          "internalType": "uint256",
          "name": "_listingId",
          "type": "uint256"
        }
      ],
      "name": "cancelListing",
      "outputs": [],
      "stateMutability": "nonpayable",
      "type": "function"
    },
    {
      "inputs": [],
      "name": "commissionPercentage",
      "outputs": [
        {
          "internalType": "uint256",
          "name": "",
          "type": "uint256"
        }
      ],
      "stateMutability": "view",
      "type": "function"
    },
    {
      "inputs": [],
      "name": "getActiveListings",
      "outputs": [
        {
          "components": [
            {
              "internalType": "uint256",
              "name": "listingId",
              "type": "uint256"
            },
            {
              "internalType": "address",
              "name": "seller",
              "type": "address"
            },
            {
              "internalType": "uint256",
              "name": "tokenId",
              "type": "uint256"
            },
            {
              "internalType": "uint256",
              "name": "price",
              "type": "uint256"
            },
            {
              "internalType": "bool",
              "name": "isActive",
              "type": "bool"
            }
          ],
          "internalType": "struct AvatarMarketplace.Listing[]",
          "name": "activeListings",
          "type": "tuple[]"
        }
      ],
      "stateMutability": "view",
      "type": "function"
    },
    {
      "inputs": [
        {
          "internalType": "uint256",
          "name": "_tokenId",
          "type": "uint256"
        },
        {
          "internalType": "uint256",
          "name": "_price",
          "type": "uint256"
        }
      ],
      "name": "listNFT",
      "outputs": [],
      "stateMutability": "nonpayable",
      "type": "function"
    },
    {
      "inputs": [],
      "name": "listingId",
      "outputs": [
        {
          "internalType": "uint256",
          "name": "",
          "type": "uint256"
        }
      ],
      "stateMutability": "view",
      "type": "function"
    },
    {
      "inputs": [
        {
          "internalType": "uint256",
          "name": "",
          "type": "uint256"
        }
      ],
      "name": "listings",
      "outputs": [
        {
          "internalType": "uint256",
          "name": "listingId",
          "type": "uint256"
        },
        {
          "internalType": "address",
          "name": "seller",
          "type": "address"
        },
        {
          "internalType": "uint256",
          "name": "tokenId",
          "type": "uint256"
        },
        {
          "internalType": "uint256",
          "name": "price",
          "type": "uint256"
        },
        {
          "internalType": "bool",
          "name": "isActive",
          "type": "bool"
        }
      ],
      "stateMutability": "view",
      "type": "function"
    },
    {
      "inputs": [],
      "name": "nftToken",
      "outputs": [
        {
          "internalType": "contract AvatarNFT",
          "name": "",
          "type": "address"
        }
      ],
      "stateMutability": "view",
      "type": "function"
    },
    {
      "inputs": [
        {
          "internalType": "address",
          "name": "",
          "type": "address"
        },
        {
          "internalType": "address",
          "name": "",
          "type": "address"
        },
        {
          "internalType": "uint256[]",
          "name": "",
          "type": "uint256[]"
        },
        {
          "internalType": "uint256[]",
          "name": "",
          "type": "uint256[]"
        },
        {
          "internalType": "bytes",
          "name": "",
          "type": "bytes"
        }
      ],
      "name": "onERC1155BatchReceived",
      "outputs": [
        {
          "internalType": "bytes4",
          "name": "",
          "type": "bytes4"
        }
      ],
      "stateMutability": "nonpayable",
      "type": "function"
    },
    {
      "inputs": [
        {
          "internalType": "address",
          "name": "",
          "type": "address"
        },
        {
          "internalType": "address",
          "name": "",
          "type": "address"
        },
        {
          "internalType": "uint256",
          "name": "",
          "type": "uint256"
        },
        {
          "internalType": "uint256",
          "name": "",
          "type": "uint256"
        },
        {
          "internalType": "bytes",
          "name": "",
          "type": "bytes"
        }
      ],
      "name": "onERC1155Received",
      "outputs": [
        {
          "internalType": "bytes4",
          "name": "",
          "type": "bytes4"
        }
      ],
      "stateMutability": "nonpayable",
      "type": "function"
    },
    {
      "inputs": [],
      "name": "owner",
      "outputs": [
        {
          "internalType": "address",
          "name": "",
          "type": "address"
        }
      ],
      "stateMutability": "view",
      "type": "function"
    },
    {
      "inputs": [],
      "name": "pause",
      "outputs": [],
      "stateMutability": "nonpayable",
      "type": "function"
    },
    {
      "inputs": [],
      "name": "paused",
      "outputs": [
        {
          "internalType": "bool",
          "name": "",
          "type": "bool"
        }
      ],
      "stateMutability": "view",
      "type": "function"
    },
    {
      "inputs": [
        {
          "internalType": "uint256",
          "name": "_listingId",
          "type": "uint256"
        }
      ],
      "name": "purchaseNFT",
      "outputs": [],
      "stateMutability": "payable",
      "type": "function"
    },
    {
      "inputs": [],
      "name": "renounceOwnership",
      "outputs": [],
      "stateMutability": "nonpayable",
      "type": "function"
    },
    {
      "inputs": [
        {
          "internalType": "address",
          "name": "_nftContractAddress",
          "type": "address"
        }
      ],
      "name": "setNFTContract",
      "outputs": [],
      "stateMutability": "nonpayable",
      "type": "function"
    },
    {
      "inputs": [
        {
          "internalType": "address",
          "name": "_siliquaCoinAddress",
          "type": "address"
        }
      ],
      "name": "setSiliquaCoin",
      "outputs": [],
      "stateMutability": "nonpayable",
      "type": "function"
    },
    {
      "inputs": [
        {
          "internalType": "bytes4",
          "name": "interfaceId",
          "type": "bytes4"
        }
      ],
      "name": "supportsInterface",
      "outputs": [
        {
          "internalType": "bool",
          "name": "",
          "type": "bool"
        }
      ],
      "stateMutability": "view",
      "type": "function"
    },
    {
      "inputs": [],
      "name": "token",
      "outputs": [
        {
          "internalType": "contract ISiliquaCoin",
          "name": "",
          "type": "address"
        }
      ],
      "stateMutability": "view",
      "type": "function"
    },
    {
      "inputs": [],
      "name": "totalCommissionEarned",
      "outputs": [
        {
          "internalType": "uint256",
          "name": "",
          "type": "uint256"
        }
      ],
      "stateMutability": "view",
      "type": "function"
    },
    {
      "inputs": [
        {
          "internalType": "address",
          "name": "newOwner",
          "type": "address"
        }
      ],
      "name": "transferOwnership",
      "outputs": [],
      "stateMutability": "nonpayable",
      "type": "function"
    },
    {
      "inputs": [],
      "name": "unpause",
      "outputs": [],
      "stateMutability": "nonpayable",
      "type": "function"
    },
    {
      "inputs": [
        {
          "internalType": "uint256",
          "name": "_newCommissionPercentage",
          "type": "uint256"
        }
      ],
      "name": "updateCommissionPercentage",
      "outputs": [],
      "stateMutability": "nonpayable",
      "type": "function"
    }
  ],
  "bytecode": "0x608060405260006007553480156200001657600080fd5b506040516200183e3803806200183e8339810160408190526200003991620000f6565b620000443362000089565b60018055600280546001600160a81b0319166101006001600160a01b0394851602179055600380546001600160a01b0319169390921692909217905560045562000137565b600080546001600160a01b038381166001600160a01b0319831681178455604051919092169283917f8be0079c531659141344cd1fd0a4f28419497f9722a3daafe3b4186f6b6457e09190a35050565b80516001600160a01b0381168114620000f157600080fd5b919050565b6000806000606084860312156200010c57600080fd5b6200011784620000d9565b92506200012760208501620000d9565b9150604084015190509250925092565b6116f780620001476000396000f3fe6080604052600436106101355760003560e01c80639405dfdd116100ab578063d06fcba81161006f578063d06fcba81461034e578063d575fe6414610373578063de74e57b14610389578063f23a6e6114610412578063f2fde38b1461043e578063fc0c546a1461045e57600080fd5b80639405dfdd1461028f57806394383f14146102b3578063a7ccabdf146102d3578063bc197c81146102f3578063c73cdd231461033857600080fd5b80635c975abb116100fd5780635c975abb146101d9578063715018a6146101f15780638456cb591461020657806387c35bc01461021b5780638ce2199e1461023d5780638da5cb5b1461025d57600080fd5b806301ffc9a71461013a57806313bc2b491461016f578063150bde0314610191578063305a67a8146101a45780633f4ba83a146101c4575b600080fd5b34801561014657600080fd5b5061015a610155366004611279565b61047e565b60405190151581526020015b60405180910390f35b34801561017b57600080fd5b5061018f61018a3660046112bf565b6104b5565b005b61018f61019f3660046112dc565b61050f565b3480156101b057600080fd5b5061018f6101bf3660046112dc565b6108cb565b3480156101d057600080fd5b5061018f610acf565b3480156101e557600080fd5b5060025460ff1661015a565b3480156101fd57600080fd5b5061018f610ae1565b34801561021257600080fd5b5061018f610af3565b34801561022757600080fd5b50610230610b03565b60405161016691906112f5565b34801561024957600080fd5b5061018f6102583660046112dc565b610ca7565b34801561026957600080fd5b506000546001600160a01b03165b6040516001600160a01b039091168152602001610166565b34801561029b57600080fd5b506102a560075481565b604051908152602001610166565b3480156102bf57600080fd5b5061018f6102ce36600461136e565b610d43565b3480156102df57600080fd5b5061018f6102ee3660046112bf565b610f80565b3480156102ff57600080fd5b5061031f61030e3660046114c7565b63bc197c8160e01b95945050505050565b6040516001600160e01b03199091168152602001610166565b34801561034457600080fd5b506102a560055481565b34801561035a57600080fd5b506002546102779061010090046001600160a01b031681565b34801561037f57600080fd5b506102a560045481565b34801561039557600080fd5b506103e06103a43660046112dc565b6006602052600090815260409020805460018201546002830154600384015460049094015492936001600160a01b039092169290919060ff1685565b604080519586526001600160a01b0390941660208601529284019190915260608301521515608082015260a001610166565b34801561041e57600080fd5b5061031f61042d366004611575565b63f23a6e6160e01b95945050505050565b34801561044a57600080fd5b5061018f6104593660046112bf565b610fe2565b34801561046a57600080fd5b50600354610277906001600160a01b031681565b60006001600160e01b03198216630271189760e51b14806104af57506301ffc9a760e01b6001600160e01b03198316145b92915050565b6104bd611058565b6104c56110b2565b600380546001600160a01b0319166001600160a01b0383169081179091556040517f6eee81a43bf9442f55a05941b6e18df1a7bcf02125d1e7b93ba7342aa72ef20e90600090a250565b6105176110f8565b61051f6110b2565b60075481106105685760405162461bcd60e51b815260206004820152601060248201526f125108191bd95cdb89dd08195e1a5cdd60821b60448201526064015b60405180910390fd5b6000818152600660205260409020600481015460ff166105c25760405162461bcd60e51b81526020600482015260156024820152744c697374696e67206973206e6f742061637469766560581b604482015260640161055f565b806003015434146106075760405162461bcd60e51b815260206004820152600f60248201526e496e636f727265637420707269636560881b604482015260640161055f565b60006064600454836003015461061d91906115f4565b610627919061160b565b9050806005600082825461063b919061162d565b9091555050600080546040516001600160a01b039091169183156108fc02918491818181858888f19350505050158015610679573d6000803e3d6000fd5b50600081836003015461068c9190611640565b60018401546040519192506001600160a01b03169082156108fc029083906000818181858888f193505050501580156106c9573d6000803e3d6000fd5b506002805490840154604051632142170760e11b815230600482015233602482015260448101919091526101009091046001600160a01b0316906342842e0e90606401600060405180830381600087803b15801561072657600080fd5b505af115801561073a573d6000803e3d6000fd5b505060035460405163423f6cef60e01b8152336004820152670de0b6b3a764000060248201526001600160a01b03909116925063423f6cef91506044016020604051808303816000875af1158015610796573d6000803e3d6000fd5b505050506040513d601f19601f820116820180604052508101906107ba9190611653565b50600354600184015460405163423f6cef60e01b81526001600160a01b039182166004820152670de0b6b3a7640000602482015291169063423f6cef906044016020604051808303816000875af1158015610819573d6000803e3d6000fd5b505050506040513d601f19601f8201168201806040525081019061083d9190611653565b5060048301805460ff1916905560018301546002840154604080519182523460208301526060828201819052600990830152681c1d5c98da185cd95960ba1b6080830152516001600160a01b0390921691339187917f12c5db205c15a58219d216eea2f3362efc64a7e2db9a9b7237eae6ea6e6e30049181900360a00190a45050506108c860018055565b50565b6108d36110f8565b6108db6110b2565b60075481106109215760405162461bcd60e51b8152602060048201526012602482015271125b9d985b1a59081b1a5cdd1a5b99c8125160721b604482015260640161055f565b600081815260066020526040902060018101546001600160a01b0316331461099a5760405162461bcd60e51b815260206004820152602660248201527f4f6e6c79207468652073656c6c65722063616e2063616e63656c20746865206c604482015265697374696e6760d01b606482015260840161055f565b600481015460ff166109e65760405162461bcd60e51b81526020600482015260156024820152744c697374696e67206973206e6f742061637469766560581b604482015260640161055f565b60028054908201546040516323b872dd60e01b815230600482015233602482015260448101919091526101009091046001600160a01b0316906323b872dd90606401600060405180830381600087803b158015610a4257600080fd5b505af1158015610a56573d6000803e3d6000fd5b5050505060048101805460ff191690556002810154600382015460408051918252602082018190526009828201526818d85b98d95b1b195960ba1b606083015251339185917f4365cb53484debef7671e094e8cead2a45d4b329d842264eb2c68b1f1f46d3a39181900360800190a4506108c860018055565b610ad7611058565b610adf611151565b565b610ae9611058565b610adf60006111a3565b610afb611058565b610adf6111f3565b6060610b0d6110b2565b6000805b600754811015610b555760008181526006602052604090206004015460ff1615610b435781610b3f81611675565b9250505b80610b4d81611675565b915050610b11565b508067ffffffffffffffff811115610b6f57610b6f611390565b604051908082528060200260200182016040528015610bdd57816020015b610bca6040518060a001604052806000815260200160006001600160a01b0316815260200160008152602001600081526020016000151581525090565b815260200190600190039081610b8d5790505b5091506000805b600754811015610ca15760008181526006602052604090206004015460ff1615610c8f57600081815260066020908152604091829020825160a0810184528154815260018201546001600160a01b0316928101929092526002810154928201929092526003820154606082015260049091015460ff16151560808201528451859084908110610c7557610c7561168e565b60200260200101819052508180610c8b90611675565b9250505b80610c9981611675565b915050610be4565b50505090565b610caf611058565b610cb76110b2565b6064811115610d085760405162461bcd60e51b815260206004820152601d60248201527f496e76616c696420636f6d6d697373696f6e2070657263656e74616765000000604482015260640161055f565b60048190556040518181527f7e3665a83046ac3c4ec146cf309edab9d75086c48761909ce868f5c65743f4f19060200160405180910390a150565b610d4b6110f8565b610d536110b2565b6002546040516331a9108f60e11b815260048101849052339161010090046001600160a01b031690636352211e90602401602060405180830381865afa158015610da1573d6000803e3d6000fd5b505050506040513d601f19601f82011682018060405250810190610dc591906116a4565b6001600160a01b031614610e115760405162461bcd60e51b815260206004820152601360248201527213db9b1e481bdddb995c8818d85b881cd95b1b606a1b604482015260640161055f565b6002546040516323b872dd60e01b8152336004820152306024820152604481018490526101009091046001600160a01b0316906323b872dd90606401600060405180830381600087803b158015610e6757600080fd5b505af1158015610e7b573d6000803e3d6000fd5b50506040805160a081018252600780548083523360208085018281528587018b815260608088018c815260016080808b018281526000998a526006808952998d90209b518c559551918b0180546001600160a01b0319166001600160a01b0390931692909217909155925160028a015551600389015591516004909701805460ff191697151597909717909655935486518a815291820187905295810192909252651b1a5cdd195960d21b928201929092528795509093507f1874edc4dd8ef51672d2c7645e73e04998f9bed81a6dbc28eb3dc65a06d725bf910160405180910390a460078054906000610f6e83611675565b9190505550610f7c60018055565b5050565b610f88611058565b610f906110b2565b60028054610100600160a81b0319166101006001600160a01b038416908102919091179091556040517ff2610996d245d9b77e4ff84c2174eea0b76fb44c422218404f66e28816d78fb990600090a250565b610fea611058565b6001600160a01b03811661104f5760405162461bcd60e51b815260206004820152602660248201527f4f776e61626c653a206e6577206f776e657220697320746865207a65726f206160448201526564647265737360d01b606482015260840161055f565b6108c8816111a3565b6000546001600160a01b03163314610adf5760405162461bcd60e51b815260206004820181905260248201527f4f776e61626c653a2063616c6c6572206973206e6f7420746865206f776e6572604482015260640161055f565b60025460ff1615610adf5760405162461bcd60e51b815260206004820152601060248201526f14185d5cd8589b194e881c185d5cd95960821b604482015260640161055f565b60026001540361114a5760405162461bcd60e51b815260206004820152601f60248201527f5265656e7472616e637947756172643a207265656e7472616e742063616c6c00604482015260640161055f565b6002600155565b611159611230565b6002805460ff191690557f5db9ee0a495bf2e6ff9c91a7834c1ba4fdd244a5e8aa4e537bd38aeae4b073aa335b6040516001600160a01b03909116815260200160405180910390a1565b600080546001600160a01b038381166001600160a01b0319831681178455604051919092169283917f8be0079c531659141344cd1fd0a4f28419497f9722a3daafe3b4186f6b6457e09190a35050565b6111fb6110b2565b6002805460ff191660011790557f62e78cea01bee320cd4e420270b5ea74000d11b0c9f74754ebdbfc544b05a2586111863390565b60025460ff16610adf5760405162461bcd60e51b815260206004820152601460248201527314185d5cd8589b194e881b9bdd081c185d5cd95960621b604482015260640161055f565b60006020828403121561128b57600080fd5b81356001600160e01b0319811681146112a357600080fd5b9392505050565b6001600160a01b03811681146108c857600080fd5b6000602082840312156112d157600080fd5b81356112a3816112aa565b6000602082840312156112ee57600080fd5b5035919050565b602080825282518282018190526000919060409081850190868401855b8281101561136157815180518552868101516001600160a01b03168786015285810151868601526060808201519086015260809081015115159085015260a09093019290850190600101611312565b5091979650505050505050565b6000806040838503121561138157600080fd5b50508035926020909101359150565b634e487b7160e01b600052604160045260246000fd5b604051601f8201601f1916810167ffffffffffffffff811182821017156113cf576113cf611390565b604052919050565b600082601f8301126113e857600080fd5b8135602067ffffffffffffffff82111561140457611404611390565b8160051b6114138282016113a6565b928352848101820192828101908785111561142d57600080fd5b83870192505b8483101561144c57823582529183019190830190611433565b979650505050505050565b600082601f83011261146857600080fd5b813567ffffffffffffffff81111561148257611482611390565b611495601f8201601f19166020016113a6565b8181528460208386010111156114aa57600080fd5b816020850160208301376000918101602001919091529392505050565b600080600080600060a086880312156114df57600080fd5b85356114ea816112aa565b945060208601356114fa816112aa565b9350604086013567ffffffffffffffff8082111561151757600080fd5b61152389838a016113d7565b9450606088013591508082111561153957600080fd5b61154589838a016113d7565b9350608088013591508082111561155b57600080fd5b5061156888828901611457565b9150509295509295909350565b600080600080600060a0868803121561158d57600080fd5b8535611598816112aa565b945060208601356115a8816112aa565b93506040860135925060608601359150608086013567ffffffffffffffff8111156115d257600080fd5b61156888828901611457565b634e487b7160e01b600052601160045260246000fd5b80820281158282048414176104af576104af6115de565b60008261162857634e487b7160e01b600052601260045260246000fd5b500490565b808201808211156104af576104af6115de565b818103818111156104af576104af6115de565b60006020828403121561166557600080fd5b815180151581146112a357600080fd5b600060018201611687576116876115de565b5060010190565b634e487b7160e01b600052603260045260246000fd5b6000602082840312156116b657600080fd5b81516112a3816112aa56fea2646970667358221220f9b8387fa8ca514c61d8ea92b9a3c1b6459c5b127feb604c5fdf06e9ff9c5d6164736f6c63430008150033",
  "linkReferences": {},
  "deployedLinkReferences": {}
}