{
  "_format": "hh-sol-artifact-1",
  "contractName": "AssetsNFT",
  "sourceName": "contracts/assetsMarket/AssetsNFT.sol",
  "abi": [
    {
      "inputs": [],
      "stateMutability": "nonpayable",
      "type": "constructor"
    },
    {
      "anonymous": false,
      "inputs": [
        {
          "indexed": true,
          "internalType": "address",
          "name": "account",
          "type": "address"
        },
        {
          "indexed": true,
          "internalType": "address",
          "name": "operator",
          "type": "address"
        },
        {
          "indexed": false,
          "internalType": "bool",
          "name": "approved",
          "type": "bool"
        }
      ],
      "name": "ApprovalForAll",
      "type": "event"
    },
    {
      "anonymous": false,
      "inputs": [
        {
          "indexed": true,
          "internalType": "address",
          "name": "previousOwner",
          "type": "address"
        },
        {
          "indexed": true,
          "internalType": "address",
          "name": "newOwner",
          "type": "address"
        }
      ],
      "name": "OwnershipTransferred",
      "type": "event"
    },
    {
      "anonymous": false,
      "inputs": [
        {
          "indexed": false,
          "internalType": "address",
          "name": "account",
          "type": "address"
        }
      ],
      "name": "Paused",
      "type": "event"
    },
    {
      "anonymous": false,
      "inputs": [
        {
          "indexed": true,
          "internalType": "address",
          "name": "operator",
          "type": "address"
        },
        {
          "indexed": true,
          "internalType": "address",
          "name": "from",
          "type": "address"
        },
        {
          "indexed": true,
          "internalType": "address",
          "name": "to",
          "type": "address"
        },
        {
          "indexed": false,
          "internalType": "uint256[]",
          "name": "ids",
          "type": "uint256[]"
        },
        {
          "indexed": false,
          "internalType": "uint256[]",
          "name": "values",
          "type": "uint256[]"
        }
      ],
      "name": "TransferBatch",
      "type": "event"
    },
    {
      "anonymous": false,
      "inputs": [
        {
          "indexed": true,
          "internalType": "address",
          "name": "operator",
          "type": "address"
        },
        {
          "indexed": true,
          "internalType": "address",
          "name": "from",
          "type": "address"
        },
        {
          "indexed": true,
          "internalType": "address",
          "name": "to",
          "type": "address"
        },
        {
          "indexed": false,
          "internalType": "uint256",
          "name": "id",
          "type": "uint256"
        },
        {
          "indexed": false,
          "internalType": "uint256",
          "name": "value",
          "type": "uint256"
        }
      ],
      "name": "TransferSingle",
      "type": "event"
    },
    {
      "anonymous": false,
      "inputs": [
        {
          "indexed": false,
          "internalType": "string",
          "name": "value",
          "type": "string"
        },
        {
          "indexed": true,
          "internalType": "uint256",
          "name": "id",
          "type": "uint256"
        }
      ],
      "name": "URI",
      "type": "event"
    },
    {
      "anonymous": false,
      "inputs": [
        {
          "indexed": false,
          "internalType": "address",
          "name": "account",
          "type": "address"
        }
      ],
      "name": "Unpaused",
      "type": "event"
    },
    {
      "inputs": [
        {
          "internalType": "address",
          "name": "account",
          "type": "address"
        },
        {
          "internalType": "uint256",
          "name": "id",
          "type": "uint256"
        }
      ],
      "name": "balanceOf",
      "outputs": [
        {
          "internalType": "uint256",
          "name": "",
          "type": "uint256"
        }
      ],
      "stateMutability": "view",
      "type": "function"
    },
    {
      "inputs": [
        {
          "internalType": "address[]",
          "name": "accounts",
          "type": "address[]"
        },
        {
          "internalType": "uint256[]",
          "name": "ids",
          "type": "uint256[]"
        }
      ],
      "name": "balanceOfBatch",
      "outputs": [
        {
          "internalType": "uint256[]",
          "name": "",
          "type": "uint256[]"
        }
      ],
      "stateMutability": "view",
      "type": "function"
    },
    {
      "inputs": [
        {
          "internalType": "address",
          "name": "_from",
          "type": "address"
        },
        {
          "internalType": "address",
          "name": "_to",
          "type": "address"
        },
        {
          "internalType": "uint256[]",
          "name": "_tokenIds",
          "type": "uint256[]"
        },
        {
          "internalType": "uint256[]",
          "name": "_amount",
          "type": "uint256[]"
        }
      ],
      "name": "batchTransferFrom",
      "outputs": [],
      "stateMutability": "nonpayable",
      "type": "function"
    },
    {
      "inputs": [
        {
          "internalType": "address",
          "name": "account",
          "type": "address"
        },
        {
          "internalType": "address",
          "name": "operator",
          "type": "address"
        }
      ],
      "name": "isApprovedForAll",
      "outputs": [
        {
          "internalType": "bool",
          "name": "",
          "type": "bool"
        }
      ],
      "stateMutability": "view",
      "type": "function"
    },
    {
      "inputs": [
        {
          "internalType": "address",
          "name": "_account",
          "type": "address"
        },
        {
          "internalType": "uint256",
          "name": "_tokenId",
          "type": "uint256"
        },
        {
          "internalType": "uint256",
          "name": "_amount",
          "type": "uint256"
        },
        {
          "internalType": "string",
          "name": "_uri",
          "type": "string"
        }
      ],
      "name": "mint",
      "outputs": [],
      "stateMutability": "nonpayable",
      "type": "function"
    },
    {
      "inputs": [
        {
          "internalType": "address",
          "name": "_to",
          "type": "address"
        },
        {
          "internalType": "uint256[]",
          "name": "_tokenIds",
          "type": "uint256[]"
        },
        {
          "internalType": "uint256[]",
          "name": "_amounts",
          "type": "uint256[]"
        },
        {
          "internalType": "string[]",
          "name": "_uris",
          "type": "string[]"
        }
      ],
      "name": "mintBatch",
      "outputs": [],
      "stateMutability": "nonpayable",
      "type": "function"
    },
    {
      "inputs": [],
      "name": "owner",
      "outputs": [
        {
          "internalType": "address",
          "name": "",
          "type": "address"
        }
      ],
      "stateMutability": "view",
      "type": "function"
    },
    {
      "inputs": [],
      "name": "pause",
      "outputs": [],
      "stateMutability": "nonpayable",
      "type": "function"
    },
    {
      "inputs": [],
      "name": "paused",
      "outputs": [
        {
          "internalType": "bool",
          "name": "",
          "type": "bool"
        }
      ],
      "stateMutability": "view",
      "type": "function"
    },
    {
      "inputs": [],
      "name": "renounceOwnership",
      "outputs": [],
      "stateMutability": "nonpayable",
      "type": "function"
    },
    {
      "inputs": [
        {
          "internalType": "address",
          "name": "from",
          "type": "address"
        },
        {
          "internalType": "address",
          "name": "to",
          "type": "address"
        },
        {
          "internalType": "uint256[]",
          "name": "ids",
          "type": "uint256[]"
        },
        {
          "internalType": "uint256[]",
          "name": "amounts",
          "type": "uint256[]"
        },
        {
          "internalType": "bytes",
          "name": "data",
          "type": "bytes"
        }
      ],
      "name": "safeBatchTransferFrom",
      "outputs": [],
      "stateMutability": "nonpayable",
      "type": "function"
    },
    {
      "inputs": [
        {
          "internalType": "address",
          "name": "from",
          "type": "address"
        },
        {
          "internalType": "address",
          "name": "to",
          "type": "address"
        },
        {
          "internalType": "uint256",
          "name": "id",
          "type": "uint256"
        },
        {
          "internalType": "uint256",
          "name": "amount",
          "type": "uint256"
        },
        {
          "internalType": "bytes",
          "name": "data",
          "type": "bytes"
        }
      ],
      "name": "safeTransferFrom",
      "outputs": [],
      "stateMutability": "nonpayable",
      "type": "function"
    },
    {
      "inputs": [
        {
          "internalType": "address",
          "name": "operator",
          "type": "address"
        },
        {
          "internalType": "bool",
          "name": "approved",
          "type": "bool"
        }
      ],
      "name": "setApprovalForAll",
      "outputs": [],
      "stateMutability": "nonpayable",
      "type": "function"
    },
    {
      "inputs": [
        {
          "internalType": "uint256",
          "name": "_tokenId",
          "type": "uint256"
        },
        {
          "internalType": "string",
          "name": "_uri",
          "type": "string"
        }
      ],
      "name": "setTokenURI",
      "outputs": [],
      "stateMutability": "nonpayable",
      "type": "function"
    },
    {
      "inputs": [
        {
          "internalType": "bytes4",
          "name": "interfaceId",
          "type": "bytes4"
        }
      ],
      "name": "supportsInterface",
      "outputs": [
        {
          "internalType": "bool",
          "name": "",
          "type": "bool"
        }
      ],
      "stateMutability": "view",
      "type": "function"
    },
    {
      "inputs": [
        {
          "internalType": "address",
          "name": "_from",
          "type": "address"
        },
        {
          "internalType": "address",
          "name": "_to",
          "type": "address"
        },
        {
          "internalType": "uint256",
          "name": "_tokenId",
          "type": "uint256"
        },
        {
          "internalType": "uint256",
          "name": "_amount",
          "type": "uint256"
        }
      ],
      "name": "transferFrom",
      "outputs": [],
      "stateMutability": "nonpayable",
      "type": "function"
    },
    {
      "inputs": [
        {
          "internalType": "address",
          "name": "newOwner",
          "type": "address"
        }
      ],
      "name": "transferOwnership",
      "outputs": [],
      "stateMutability": "nonpayable",
      "type": "function"
    },
    {
      "inputs": [],
      "name": "unpause",
      "outputs": [],
      "stateMutability": "nonpayable",
      "type": "function"
    },
    {
      "inputs": [
        {
          "internalType": "uint256",
          "name": "_tokenId",
          "type": "uint256"
        }
      ],
      "name": "uri",
      "outputs": [
        {
          "internalType": "string",
          "name": "",
          "type": "string"
        }
      ],
      "stateMutability": "view",
      "type": "function"
    }
  ],
  "bytecode": "0x60806040523480156200001157600080fd5b506040805160208101909152600081526200002c816200004b565b5062000038336200005d565b6003805460ff60a01b1916905562000222565b600262000059828262000156565b5050565b600380546001600160a01b038381166001600160a01b0319831681179093556040519116919082907f8be0079c531659141344cd1fd0a4f28419497f9722a3daafe3b4186f6b6457e090600090a35050565b634e487b7160e01b600052604160045260246000fd5b600181811c90821680620000da57607f821691505b602082108103620000fb57634e487b7160e01b600052602260045260246000fd5b50919050565b601f82111562000151576000816000526020600020601f850160051c810160208610156200012c5750805b601f850160051c820191505b818110156200014d5782815560010162000138565b5050505b505050565b81516001600160401b03811115620001725762000172620000af565b6200018a81620001838454620000c5565b8462000101565b602080601f831160018114620001c25760008415620001a95750858301515b600019600386901b1c1916600185901b1785556200014d565b600085815260208120601f198616915b82811015620001f357888601518255948401946001909101908401620001d2565b5085821015620002125787850151600019600388901b60f8161c191681555b5050505050600190811b01905550565b611f7480620002326000396000f3fe608060405234801561001057600080fd5b50600436106101205760003560e01c8063715018a6116100ad578063bb7fde7111610071578063bb7fde7114610254578063e985e9c514610267578063f242432a146102a3578063f2fde38b146102b6578063fe99049a146102c957600080fd5b8063715018a6146102035780638456cb591461020b5780638da5cb5b14610213578063a22cb4651461022e578063a55784ef1461024157600080fd5b806317fad7fc116100f457806317fad7fc146101a35780632eb2c2d6146101b65780633f4ba83a146101c95780634e1273f4146101d15780635c975abb146101f157600080fd5b8062fdd58e1461012557806301ffc9a71461014b5780630e89341c1461016e578063162094c41461018e575b600080fd5b610138610133366004611346565b6102dc565b6040519081526020015b60405180910390f35b61015e610159366004611386565b610375565b6040519015158152602001610142565b61018161017c3660046113aa565b6103c5565b6040516101429190611409565b6101a161019c3660046114d1565b6104d8565b005b6101a16101b13660046115b0565b610505565b6101a16101c4366004611634565b61052f565b6101a161057b565b6101e46101df3660046116dd565b61058d565b60405161014291906117d9565b600354600160a01b900460ff1661015e565b6101a16106ae565b6101a16106c0565b6003546040516001600160a01b039091168152602001610142565b6101a161023c3660046117ec565b6106d0565b6101a161024f366004611828565b6106df565b6101a161026236600461193d565b6107ab565b61015e610275366004611991565b6001600160a01b03918216600090815260016020908152604080832093909416825291909152205460ff1690565b6101a16102b13660046119c4565b610852565b6101a16102c4366004611a28565b610897565b6101a16102d7366004611a43565b610910565b60006001600160a01b03831661034c5760405162461bcd60e51b815260206004820152602a60248201527f455243313135353a2061646472657373207a65726f206973206e6f742061207660448201526930b634b21037bbb732b960b11b60648201526084015b60405180910390fd5b506000818152602081815260408083206001600160a01b03861684529091529020545b92915050565b60006001600160e01b03198216636cdb3d1360e11b14806103a657506001600160e01b031982166303a24d0760e21b145b8061036f57506301ffc9a760e01b6001600160e01b031983161461036f565b60606103cf610934565b600082815260046020526040902080546103e890611a85565b90506000036104395760405162461bcd60e51b815260206004820152601f60248201527f4173736574206e6f74206d696e746564206f7220555249206e6f7420736574006044820152606401610343565b6000828152600460205260409020805461045290611a85565b80601f016020809104026020016040519081016040528092919081815260200182805461047e90611a85565b80156104cb5780601f106104a0576101008083540402835291602001916104cb565b820191906000526020600020905b8154815290600101906020018083116104ae57829003601f168201915b505050505090505b919050565b6104e0610981565b6104e8610934565b60008281526004602052604090206105008282611b07565b505050565b61050d610934565b610529848484846040518060200160405280600081525061052f565b50505050565b6001600160a01b03851633148061054b575061054b8533610275565b6105675760405162461bcd60e51b815260040161034390611bc6565b61057485858585856109db565b5050505050565b610583610981565b61058b610b70565b565b606081518351146105f25760405162461bcd60e51b815260206004820152602960248201527f455243313135353a206163636f756e747320616e6420696473206c656e677468604482015268040dad2e6dac2e8c6d60bb1b6064820152608401610343565b600083516001600160401b0381111561060d5761060d61141c565b604051908082528060200260200182016040528015610636578160200160208202803683370190505b50905060005b84518110156106a65761068185828151811061065a5761065a611c14565b602002602001015185838151811061067457610674611c14565b60200260200101516102dc565b82828151811061069357610693611c14565b602090810291909101015260010161063c565b509392505050565b6106b6610981565b61058b6000610bc5565b6106c8610981565b61058b610c17565b6106db338383610c5a565b5050565b6106e7610981565b6106ef610934565b80518351146107405760405162461bcd60e51b815260206004820152601c60248201527f49447320616e642055524973206c656e677468206d69736d61746368000000006044820152606401610343565b61075b84848460405180602001604052806000815250610d3a565b60005b8351811015610574576107a384828151811061077c5761077c611c14565b602002602001015183838151811061079657610796611c14565b60200260200101516104d8565b60010161075e565b6107b3610981565b6107bb610934565b600083815260046020526040902080546107d490611a85565b15905061082d5760405162461bcd60e51b815260206004820152602160248201527f417373657420616c7265616479206d696e7465642077697468207468697320696044820152601960fa1b6064820152608401610343565b61084884848460405180602001604052806000815250610e7a565b61052983826104d8565b6001600160a01b03851633148061086e575061086e8533610275565b61088a5760405162461bcd60e51b815260040161034390611bc6565b6105748585858585610f54565b61089f610981565b6001600160a01b0381166109045760405162461bcd60e51b815260206004820152602660248201527f4f776e61626c653a206e6577206f776e657220697320746865207a65726f206160448201526564647265737360d01b6064820152608401610343565b61090d81610bc5565b50565b610918610934565b6105298484848460405180602001604052806000815250610852565b600354600160a01b900460ff161561058b5760405162461bcd60e51b815260206004820152601060248201526f14185d5cd8589b194e881c185d5cd95960821b6044820152606401610343565b6003546001600160a01b0316331461058b5760405162461bcd60e51b815260206004820181905260248201527f4f776e61626c653a2063616c6c6572206973206e6f7420746865206f776e65726044820152606401610343565b81518351146109fc5760405162461bcd60e51b815260040161034390611c2a565b6001600160a01b038416610a225760405162461bcd60e51b815260040161034390611c72565b3360005b8451811015610b02576000858281518110610a4357610a43611c14565b602002602001015190506000858381518110610a6157610a61611c14565b602090810291909101810151600084815280835260408082206001600160a01b038e168352909352919091205490915081811015610ab15760405162461bcd60e51b815260040161034390611cb7565b6000838152602081815260408083206001600160a01b038e8116855292528083208585039055908b16825281208054849290610aee908490611d01565b909155505060019093019250610a26915050565b50846001600160a01b0316866001600160a01b0316826001600160a01b03167f4a39dc06d4c0dbc64b70af90fd698a233a518aa5d07e595d983b8c0526c8f7fb8787604051610b52929190611d22565b60405180910390a4610b6881878787878761107e565b505050505050565b610b786111d9565b6003805460ff60a01b191690557f5db9ee0a495bf2e6ff9c91a7834c1ba4fdd244a5e8aa4e537bd38aeae4b073aa335b6040516001600160a01b03909116815260200160405180910390a1565b600380546001600160a01b038381166001600160a01b0319831681179093556040519116919082907f8be0079c531659141344cd1fd0a4f28419497f9722a3daafe3b4186f6b6457e090600090a35050565b610c1f610934565b6003805460ff60a01b1916600160a01b1790557f62e78cea01bee320cd4e420270b5ea74000d11b0c9f74754ebdbfc544b05a258610ba83390565b816001600160a01b0316836001600160a01b031603610ccd5760405162461bcd60e51b815260206004820152602960248201527f455243313135353a2073657474696e6720617070726f76616c20737461747573604482015268103337b91039b2b63360b91b6064820152608401610343565b6001600160a01b03838116600081815260016020908152604080832094871680845294825291829020805460ff191686151590811790915591519182527f17307eab39ab6107e8899845ad3d59bd9653f200f220920489ca2b5937696c31910160405180910390a3505050565b6001600160a01b038416610d605760405162461bcd60e51b815260040161034390611d50565b8151835114610d815760405162461bcd60e51b815260040161034390611c2a565b3360005b8451811015610e1257838181518110610da057610da0611c14565b6020026020010151600080878481518110610dbd57610dbd611c14565b602002602001015181526020019081526020016000206000886001600160a01b03166001600160a01b031681526020019081526020016000206000828254610e059190611d01565b9091555050600101610d85565b50846001600160a01b031660006001600160a01b0316826001600160a01b03167f4a39dc06d4c0dbc64b70af90fd698a233a518aa5d07e595d983b8c0526c8f7fb8787604051610e63929190611d22565b60405180910390a46105748160008787878761107e565b6001600160a01b038416610ea05760405162461bcd60e51b815260040161034390611d50565b336000610eac85611229565b90506000610eb985611229565b90506000868152602081815260408083206001600160a01b038b16845290915281208054879290610eeb908490611d01565b909155505060408051878152602081018790526001600160a01b03808a1692600092918716917fc3d58168c5ae7397731d063d5bbf3d657854427343f4c083240f7aacaa2d0f62910160405180910390a4610f4b83600089898989611274565b50505050505050565b6001600160a01b038416610f7a5760405162461bcd60e51b815260040161034390611c72565b336000610f8685611229565b90506000610f9385611229565b90506000868152602081815260408083206001600160a01b038c16845290915290205485811015610fd65760405162461bcd60e51b815260040161034390611cb7565b6000878152602081815260408083206001600160a01b038d8116855292528083208985039055908a16825281208054889290611013908490611d01565b909155505060408051888152602081018890526001600160a01b03808b16928c821692918816917fc3d58168c5ae7397731d063d5bbf3d657854427343f4c083240f7aacaa2d0f62910160405180910390a4611073848a8a8a8a8a611274565b505050505050505050565b6001600160a01b0384163b15610b685760405163bc197c8160e01b81526001600160a01b0385169063bc197c81906110c29089908990889088908890600401611d91565b6020604051808303816000875af19250505080156110fd575060408051601f3d908101601f191682019092526110fa91810190611def565b60015b6111a957611109611e0c565b806308c379a003611142575061111d611e28565b806111285750611144565b8060405162461bcd60e51b81526004016103439190611409565b505b60405162461bcd60e51b815260206004820152603460248201527f455243313135353a207472616e7366657220746f206e6f6e2d455243313135356044820152732932b1b2b4bb32b91034b6b83632b6b2b73a32b960611b6064820152608401610343565b6001600160e01b0319811663bc197c8160e01b14610f4b5760405162461bcd60e51b815260040161034390611eb1565b600354600160a01b900460ff1661058b5760405162461bcd60e51b815260206004820152601460248201527314185d5cd8589b194e881b9bdd081c185d5cd95960621b6044820152606401610343565b6040805160018082528183019092526060916000919060208083019080368337019050509050828160008151811061126357611263611c14565b602090810291909101015292915050565b6001600160a01b0384163b15610b685760405163f23a6e6160e01b81526001600160a01b0385169063f23a6e61906112b89089908990889088908890600401611ef9565b6020604051808303816000875af19250505080156112f3575060408051601f3d908101601f191682019092526112f091810190611def565b60015b6112ff57611109611e0c565b6001600160e01b0319811663f23a6e6160e01b14610f4b5760405162461bcd60e51b815260040161034390611eb1565b80356001600160a01b03811681146104d357600080fd5b6000806040838503121561135957600080fd5b6113628361132f565b946020939093013593505050565b6001600160e01b03198116811461090d57600080fd5b60006020828403121561139857600080fd5b81356113a381611370565b9392505050565b6000602082840312156113bc57600080fd5b5035919050565b6000815180845260005b818110156113e9576020818501810151868301820152016113cd565b506000602082860101526020601f19601f83011685010191505092915050565b6020815260006113a360208301846113c3565b634e487b7160e01b600052604160045260246000fd5b601f8201601f191681016001600160401b03811182821017156114575761145761141c565b6040525050565b600082601f83011261146f57600080fd5b81356001600160401b038111156114885761148861141c565b60405161149f601f8301601f191660200182611432565b8181528460208386010111156114b457600080fd5b816020850160208301376000918101602001919091529392505050565b600080604083850312156114e457600080fd5b8235915060208301356001600160401b0381111561150157600080fd5b61150d8582860161145e565b9150509250929050565b60006001600160401b038211156115305761153061141c565b5060051b60200190565b600082601f83011261154b57600080fd5b8135602061155882611517565b6040516115658282611432565b80915083815260208101915060208460051b87010193508684111561158957600080fd5b602086015b848110156115a5578035835291830191830161158e565b509695505050505050565b600080600080608085870312156115c657600080fd5b6115cf8561132f565b93506115dd6020860161132f565b925060408501356001600160401b03808211156115f957600080fd5b6116058883890161153a565b9350606087013591508082111561161b57600080fd5b506116288782880161153a565b91505092959194509250565b600080600080600060a0868803121561164c57600080fd5b6116558661132f565b94506116636020870161132f565b935060408601356001600160401b038082111561167f57600080fd5b61168b89838a0161153a565b945060608801359150808211156116a157600080fd5b6116ad89838a0161153a565b935060808801359150808211156116c357600080fd5b506116d08882890161145e565b9150509295509295909350565b600080604083850312156116f057600080fd5b82356001600160401b038082111561170757600080fd5b818501915085601f83011261171b57600080fd5b8135602061172882611517565b6040516117358282611432565b83815260059390931b850182019282810191508984111561175557600080fd5b948201945b8386101561177a5761176b8661132f565b8252948201949082019061175a565b9650508601359250508082111561179057600080fd5b5061150d8582860161153a565b60008151808452602080850194506020840160005b838110156117ce578151875295820195908201906001016117b2565b509495945050505050565b6020815260006113a3602083018461179d565b600080604083850312156117ff57600080fd5b6118088361132f565b91506020830135801515811461181d57600080fd5b809150509250929050565b6000806000806080858703121561183e57600080fd5b6118478561132f565b93506020808601356001600160401b038082111561186457600080fd5b61187089838a0161153a565b9550604088013591508082111561188657600080fd5b61189289838a0161153a565b945060608801359150808211156118a857600080fd5b818801915088601f8301126118bc57600080fd5b81356118c781611517565b6040516118d48282611432565b82815260059290921b840185019185810191508b8311156118f457600080fd5b8585015b8381101561192c578035858111156119105760008081fd5b61191e8e89838a010161145e565b8452509186019186016118f8565b50989b979a50959850505050505050565b6000806000806080858703121561195357600080fd5b61195c8561132f565b9350602085013592506040850135915060608501356001600160401b0381111561198557600080fd5b6116288782880161145e565b600080604083850312156119a457600080fd5b6119ad8361132f565b91506119bb6020840161132f565b90509250929050565b600080600080600060a086880312156119dc57600080fd5b6119e58661132f565b94506119f36020870161132f565b9350604086013592506060860135915060808601356001600160401b03811115611a1c57600080fd5b6116d08882890161145e565b600060208284031215611a3a57600080fd5b6113a38261132f565b60008060008060808587031215611a5957600080fd5b611a628561132f565b9350611a706020860161132f565b93969395505050506040820135916060013590565b600181811c90821680611a9957607f821691505b602082108103611ab957634e487b7160e01b600052602260045260246000fd5b50919050565b601f821115610500576000816000526020600020601f850160051c81016020861015611ae85750805b601f850160051c820191505b81811015610b6857828155600101611af4565b81516001600160401b03811115611b2057611b2061141c565b611b3481611b2e8454611a85565b84611abf565b602080601f831160018114611b695760008415611b515750858301515b600019600386901b1c1916600185901b178555610b68565b600085815260208120601f198616915b82811015611b9857888601518255948401946001909101908401611b79565b5085821015611bb65787850151600019600388901b60f8161c191681555b5050505050600190811b01905550565b6020808252602e908201527f455243313135353a2063616c6c6572206973206e6f7420746f6b656e206f776e60408201526d195c881bdc88185c1c1c9bdd995960921b606082015260800190565b634e487b7160e01b600052603260045260246000fd5b60208082526028908201527f455243313135353a2069647320616e6420616d6f756e7473206c656e677468206040820152670dad2e6dac2e8c6d60c31b606082015260800190565b60208082526025908201527f455243313135353a207472616e7366657220746f20746865207a65726f206164604082015264647265737360d81b606082015260800190565b6020808252602a908201527f455243313135353a20696e73756666696369656e742062616c616e636520666f60408201526939103a3930b739b332b960b11b606082015260800190565b8082018082111561036f57634e487b7160e01b600052601160045260246000fd5b604081526000611d35604083018561179d565b8281036020840152611d47818561179d565b95945050505050565b60208082526021908201527f455243313135353a206d696e7420746f20746865207a65726f206164647265736040820152607360f81b606082015260800190565b6001600160a01b0386811682528516602082015260a060408201819052600090611dbd9083018661179d565b8281036060840152611dcf818661179d565b90508281036080840152611de381856113c3565b98975050505050505050565b600060208284031215611e0157600080fd5b81516113a381611370565b600060033d1115611e255760046000803e5060005160e01c5b90565b600060443d1015611e365790565b6040516003193d81016004833e81513d6001600160401b038160248401118184111715611e6557505050505090565b8285019150815181811115611e7d5750505050505090565b843d8701016020828501011115611e975750505050505090565b611ea660208286010187611432565b509095945050505050565b60208082526028908201527f455243313135353a204552433131353552656365697665722072656a656374656040820152676420746f6b656e7360c01b606082015260800190565b6001600160a01b03868116825285166020820152604081018490526060810183905260a060808201819052600090611f33908301846113c3565b97965050505050505056fea26469706673582212203c5f996070a0b8396f416b4fbc763b5ef9128a23848daee589b799d82e69b47864736f6c63430008170033",
  "linkReferences": {},
  "deployedLinkReferences": {}
}