{
  "_format": "hh-sol-artifact-1",
  "contractName": "AssetsNFT",
  "sourceName": "contracts/assetsMarket/AssetsNFT.sol",
  "abi": [
    {
      "inputs": [],
      "stateMutability": "nonpayable",
      "type": "constructor"
    },
    {
      "anonymous": false,
      "inputs": [
        {
          "indexed": true,
          "internalType": "address",
          "name": "account",
          "type": "address"
        },
        {
          "indexed": true,
          "internalType": "address",
          "name": "operator",
          "type": "address"
        },
        {
          "indexed": false,
          "internalType": "bool",
          "name": "approved",
          "type": "bool"
        }
      ],
      "name": "ApprovalForAll",
      "type": "event"
    },
    {
      "anonymous": false,
      "inputs": [
        {
          "indexed": true,
          "internalType": "address",
          "name": "previousOwner",
          "type": "address"
        },
        {
          "indexed": true,
          "internalType": "address",
          "name": "newOwner",
          "type": "address"
        }
      ],
      "name": "OwnershipTransferred",
      "type": "event"
    },
    {
      "anonymous": false,
      "inputs": [
        {
          "indexed": false,
          "internalType": "address",
          "name": "account",
          "type": "address"
        }
      ],
      "name": "Paused",
      "type": "event"
    },
    {
      "anonymous": false,
      "inputs": [
        {
          "indexed": true,
          "internalType": "address",
          "name": "operator",
          "type": "address"
        },
        {
          "indexed": true,
          "internalType": "address",
          "name": "from",
          "type": "address"
        },
        {
          "indexed": true,
          "internalType": "address",
          "name": "to",
          "type": "address"
        },
        {
          "indexed": false,
          "internalType": "uint256[]",
          "name": "ids",
          "type": "uint256[]"
        },
        {
          "indexed": false,
          "internalType": "uint256[]",
          "name": "values",
          "type": "uint256[]"
        }
      ],
      "name": "TransferBatch",
      "type": "event"
    },
    {
      "anonymous": false,
      "inputs": [
        {
          "indexed": true,
          "internalType": "address",
          "name": "operator",
          "type": "address"
        },
        {
          "indexed": true,
          "internalType": "address",
          "name": "from",
          "type": "address"
        },
        {
          "indexed": true,
          "internalType": "address",
          "name": "to",
          "type": "address"
        },
        {
          "indexed": false,
          "internalType": "uint256",
          "name": "id",
          "type": "uint256"
        },
        {
          "indexed": false,
          "internalType": "uint256",
          "name": "value",
          "type": "uint256"
        }
      ],
      "name": "TransferSingle",
      "type": "event"
    },
    {
      "anonymous": false,
      "inputs": [
        {
          "indexed": false,
          "internalType": "string",
          "name": "value",
          "type": "string"
        },
        {
          "indexed": true,
          "internalType": "uint256",
          "name": "id",
          "type": "uint256"
        }
      ],
      "name": "URI",
      "type": "event"
    },
    {
      "anonymous": false,
      "inputs": [
        {
          "indexed": false,
          "internalType": "address",
          "name": "account",
          "type": "address"
        }
      ],
      "name": "Unpaused",
      "type": "event"
    },
    {
      "inputs": [
        {
          "internalType": "address",
          "name": "account",
          "type": "address"
        },
        {
          "internalType": "uint256",
          "name": "id",
          "type": "uint256"
        }
      ],
      "name": "balanceOf",
      "outputs": [
        {
          "internalType": "uint256",
          "name": "",
          "type": "uint256"
        }
      ],
      "stateMutability": "view",
      "type": "function"
    },
    {
      "inputs": [
        {
          "internalType": "address[]",
          "name": "accounts",
          "type": "address[]"
        },
        {
          "internalType": "uint256[]",
          "name": "ids",
          "type": "uint256[]"
        }
      ],
      "name": "balanceOfBatch",
      "outputs": [
        {
          "internalType": "uint256[]",
          "name": "",
          "type": "uint256[]"
        }
      ],
      "stateMutability": "view",
      "type": "function"
    },
    {
      "inputs": [
        {
          "internalType": "address",
          "name": "_from",
          "type": "address"
        },
        {
          "internalType": "address",
          "name": "_to",
          "type": "address"
        },
        {
          "internalType": "uint256[]",
          "name": "_tokenIds",
          "type": "uint256[]"
        },
        {
          "internalType": "uint256[]",
          "name": "_amount",
          "type": "uint256[]"
        }
      ],
      "name": "batchTransferFrom",
      "outputs": [],
      "stateMutability": "nonpayable",
      "type": "function"
    },
    {
      "inputs": [
        {
          "internalType": "address",
          "name": "account",
          "type": "address"
        },
        {
          "internalType": "address",
          "name": "operator",
          "type": "address"
        }
      ],
      "name": "isApprovedForAll",
      "outputs": [
        {
          "internalType": "bool",
          "name": "",
          "type": "bool"
        }
      ],
      "stateMutability": "view",
      "type": "function"
    },
    {
      "inputs": [
        {
          "internalType": "address",
          "name": "_account",
          "type": "address"
        },
        {
          "internalType": "uint256",
          "name": "_tokenId",
          "type": "uint256"
        },
        {
          "internalType": "uint256",
          "name": "_amount",
          "type": "uint256"
        },
        {
          "internalType": "string",
          "name": "_uri",
          "type": "string"
        }
      ],
      "name": "mint",
      "outputs": [],
      "stateMutability": "nonpayable",
      "type": "function"
    },
    {
      "inputs": [
        {
          "internalType": "address",
          "name": "_to",
          "type": "address"
        },
        {
          "internalType": "uint256[]",
          "name": "_tokenIds",
          "type": "uint256[]"
        },
        {
          "internalType": "uint256[]",
          "name": "_amounts",
          "type": "uint256[]"
        },
        {
          "internalType": "string[]",
          "name": "_uris",
          "type": "string[]"
        }
      ],
      "name": "mintBatch",
      "outputs": [],
      "stateMutability": "nonpayable",
      "type": "function"
    },
    {
      "inputs": [],
      "name": "owner",
      "outputs": [
        {
          "internalType": "address",
          "name": "",
          "type": "address"
        }
      ],
      "stateMutability": "view",
      "type": "function"
    },
    {
      "inputs": [],
      "name": "pause",
      "outputs": [],
      "stateMutability": "nonpayable",
      "type": "function"
    },
    {
      "inputs": [],
      "name": "paused",
      "outputs": [
        {
          "internalType": "bool",
          "name": "",
          "type": "bool"
        }
      ],
      "stateMutability": "view",
      "type": "function"
    },
    {
      "inputs": [],
      "name": "renounceOwnership",
      "outputs": [],
      "stateMutability": "nonpayable",
      "type": "function"
    },
    {
      "inputs": [
        {
          "internalType": "address",
          "name": "from",
          "type": "address"
        },
        {
          "internalType": "address",
          "name": "to",
          "type": "address"
        },
        {
          "internalType": "uint256[]",
          "name": "ids",
          "type": "uint256[]"
        },
        {
          "internalType": "uint256[]",
          "name": "amounts",
          "type": "uint256[]"
        },
        {
          "internalType": "bytes",
          "name": "data",
          "type": "bytes"
        }
      ],
      "name": "safeBatchTransferFrom",
      "outputs": [],
      "stateMutability": "nonpayable",
      "type": "function"
    },
    {
      "inputs": [
        {
          "internalType": "address",
          "name": "from",
          "type": "address"
        },
        {
          "internalType": "address",
          "name": "to",
          "type": "address"
        },
        {
          "internalType": "uint256",
          "name": "id",
          "type": "uint256"
        },
        {
          "internalType": "uint256",
          "name": "amount",
          "type": "uint256"
        },
        {
          "internalType": "bytes",
          "name": "data",
          "type": "bytes"
        }
      ],
      "name": "safeTransferFrom",
      "outputs": [],
      "stateMutability": "nonpayable",
      "type": "function"
    },
    {
      "inputs": [
        {
          "internalType": "address",
          "name": "operator",
          "type": "address"
        },
        {
          "internalType": "bool",
          "name": "approved",
          "type": "bool"
        }
      ],
      "name": "setApprovalForAll",
      "outputs": [],
      "stateMutability": "nonpayable",
      "type": "function"
    },
    {
      "inputs": [
        {
          "internalType": "uint256",
          "name": "_tokenId",
          "type": "uint256"
        },
        {
          "internalType": "string",
          "name": "_uri",
          "type": "string"
        }
      ],
      "name": "setTokenURI",
      "outputs": [],
      "stateMutability": "nonpayable",
      "type": "function"
    },
    {
      "inputs": [
        {
          "internalType": "bytes4",
          "name": "interfaceId",
          "type": "bytes4"
        }
      ],
      "name": "supportsInterface",
      "outputs": [
        {
          "internalType": "bool",
          "name": "",
          "type": "bool"
        }
      ],
      "stateMutability": "view",
      "type": "function"
    },
    {
      "inputs": [
        {
          "internalType": "address",
          "name": "_from",
          "type": "address"
        },
        {
          "internalType": "address",
          "name": "_to",
          "type": "address"
        },
        {
          "internalType": "uint256",
          "name": "_tokenId",
          "type": "uint256"
        },
        {
          "internalType": "uint256",
          "name": "_amount",
          "type": "uint256"
        }
      ],
      "name": "transferFrom",
      "outputs": [],
      "stateMutability": "nonpayable",
      "type": "function"
    },
    {
      "inputs": [
        {
          "internalType": "address",
          "name": "newOwner",
          "type": "address"
        }
      ],
      "name": "transferOwnership",
      "outputs": [],
      "stateMutability": "nonpayable",
      "type": "function"
    },
    {
      "inputs": [],
      "name": "unpause",
      "outputs": [],
      "stateMutability": "nonpayable",
      "type": "function"
    },
    {
      "inputs": [
        {
          "internalType": "uint256",
          "name": "_tokenId",
          "type": "uint256"
        }
      ],
      "name": "uri",
      "outputs": [
        {
          "internalType": "string",
          "name": "",
          "type": "string"
        }
      ],
      "stateMutability": "view",
      "type": "function"
    }
  ],
  "bytecode": "0x60806040523480156200001157600080fd5b506040805160208101909152600081526200002c816200004b565b5062000038336200005d565b6003805460ff60a01b1916905562000220565b600262000059828262000154565b5050565b600380546001600160a01b038381166001600160a01b0319831681179093556040519116919082907f8be0079c531659141344cd1fd0a4f28419497f9722a3daafe3b4186f6b6457e090600090a35050565b634e487b7160e01b600052604160045260246000fd5b600181811c90821680620000da57607f821691505b602082108103620000fb57634e487b7160e01b600052602260045260246000fd5b50919050565b601f8211156200014f57600081815260208120601f850160051c810160208610156200012a5750805b601f850160051c820191505b818110156200014b5782815560010162000136565b5050505b505050565b81516001600160401b03811115620001705762000170620000af565b6200018881620001818454620000c5565b8462000101565b602080601f831160018114620001c05760008415620001a75750858301515b600019600386901b1c1916600185901b1785556200014b565b600085815260208120601f198616915b82811015620001f157888601518255948401946001909101908401620001d0565b5085821015620002105787850151600019600388901b60f8161c191681555b5050505050600190811b01905550565b611fb180620002306000396000f3fe608060405234801561001057600080fd5b50600436106101205760003560e01c8063715018a6116100ad578063bb7fde7111610071578063bb7fde7114610254578063e985e9c514610267578063f242432a146102a3578063f2fde38b146102b6578063fe99049a146102c957600080fd5b8063715018a6146102035780638456cb591461020b5780638da5cb5b14610213578063a22cb4651461022e578063a55784ef1461024157600080fd5b806317fad7fc116100f457806317fad7fc146101a35780632eb2c2d6146101b65780633f4ba83a146101c95780634e1273f4146101d15780635c975abb146101f157600080fd5b8062fdd58e1461012557806301ffc9a71461014b5780630e89341c1461016e578063162094c41461018e575b600080fd5b61013861013336600461136a565b6102dc565b6040519081526020015b60405180910390f35b61015e6101593660046113aa565b610375565b6040519015158152602001610142565b61018161017c3660046113ce565b6103c5565b604051610142919061142d565b6101a161019c3660046114f5565b6104d8565b005b6101a16101b13660046115cf565b610505565b6101a16101c4366004611653565b61052f565b6101a161057b565b6101e46101df3660046116fc565b61058d565b60405161014291906117f7565b600354600160a01b900460ff1661015e565b6101a16106b6565b6101a16106c8565b6003546040516001600160a01b039091168152602001610142565b6101a161023c36600461180a565b6106d8565b6101a161024f366004611846565b6106e7565b6101a161026236600461195b565b6107bd565b61015e6102753660046119af565b6001600160a01b03918216600090815260016020908152604080832093909416825291909152205460ff1690565b6101a16102b13660046119e2565b610864565b6101a16102c4366004611a46565b6108a9565b6101a16102d7366004611a61565b610922565b60006001600160a01b03831661034c5760405162461bcd60e51b815260206004820152602a60248201527f455243313135353a2061646472657373207a65726f206973206e6f742061207660448201526930b634b21037bbb732b960b11b60648201526084015b60405180910390fd5b506000818152602081815260408083206001600160a01b03861684529091529020545b92915050565b60006001600160e01b03198216636cdb3d1360e11b14806103a657506001600160e01b031982166303a24d0760e21b145b8061036f57506301ffc9a760e01b6001600160e01b031983161461036f565b60606103cf610946565b600082815260046020526040902080546103e890611aa3565b90506000036104395760405162461bcd60e51b815260206004820152601f60248201527f4173736574206e6f74206d696e746564206f7220555249206e6f7420736574006044820152606401610343565b6000828152600460205260409020805461045290611aa3565b80601f016020809104026020016040519081016040528092919081815260200182805461047e90611aa3565b80156104cb5780601f106104a0576101008083540402835291602001916104cb565b820191906000526020600020905b8154815290600101906020018083116104ae57829003601f168201915b505050505090505b919050565b6104e0610993565b6104e8610946565b60008281526004602052604090206105008282611b23565b505050565b61050d610946565b610529848484846040518060200160405280600081525061052f565b50505050565b6001600160a01b03851633148061054b575061054b8533610275565b6105675760405162461bcd60e51b815260040161034390611be2565b61057485858585856109ed565b5050505050565b610583610993565b61058b610b89565b565b606081518351146105f25760405162461bcd60e51b815260206004820152602960248201527f455243313135353a206163636f756e747320616e6420696473206c656e677468604482015268040dad2e6dac2e8c6d60bb1b6064820152608401610343565b600083516001600160401b0381111561060d5761060d611440565b604051908082528060200260200182016040528015610636578160200160208202803683370190505b50905060005b84518110156106ae5761068185828151811061065a5761065a611c30565b602002602001015185838151811061067457610674611c30565b60200260200101516102dc565b82828151811061069357610693611c30565b60209081029190910101526106a781611c5c565b905061063c565b509392505050565b6106be610993565b61058b6000610bde565b6106d0610993565b61058b610c30565b6106e3338383610c73565b5050565b6106ef610993565b6106f7610946565b80518351146107485760405162461bcd60e51b815260206004820152601c60248201527f49447320616e642055524973206c656e677468206d69736d61746368000000006044820152606401610343565b61076384848460405180602001604052806000815250610d53565b60005b8351811015610574576107ab84828151811061078457610784611c30565b602002602001015183838151811061079e5761079e611c30565b60200260200101516104d8565b806107b581611c5c565b915050610766565b6107c5610993565b6107cd610946565b600083815260046020526040902080546107e690611aa3565b15905061083f5760405162461bcd60e51b815260206004820152602160248201527f417373657420616c7265616479206d696e7465642077697468207468697320696044820152601960fa1b6064820152608401610343565b61085a84848460405180602001604052806000815250610e9e565b61052983826104d8565b6001600160a01b03851633148061088057506108808533610275565b61089c5760405162461bcd60e51b815260040161034390611be2565b6105748585858585610f78565b6108b1610993565b6001600160a01b0381166109165760405162461bcd60e51b815260206004820152602660248201527f4f776e61626c653a206e6577206f776e657220697320746865207a65726f206160448201526564647265737360d01b6064820152608401610343565b61091f81610bde565b50565b61092a610946565b6105298484848460405180602001604052806000815250610864565b600354600160a01b900460ff161561058b5760405162461bcd60e51b815260206004820152601060248201526f14185d5cd8589b194e881c185d5cd95960821b6044820152606401610343565b6003546001600160a01b0316331461058b5760405162461bcd60e51b815260206004820181905260248201527f4f776e61626c653a2063616c6c6572206973206e6f7420746865206f776e65726044820152606401610343565b8151835114610a0e5760405162461bcd60e51b815260040161034390611c75565b6001600160a01b038416610a345760405162461bcd60e51b815260040161034390611cbd565b3360005b8451811015610b1b576000858281518110610a5557610a55611c30565b602002602001015190506000858381518110610a7357610a73611c30565b602090810291909101810151600084815280835260408082206001600160a01b038e168352909352919091205490915081811015610ac35760405162461bcd60e51b815260040161034390611d02565b6000838152602081815260408083206001600160a01b038e8116855292528083208585039055908b16825281208054849290610b00908490611d4c565b9250508190555050505080610b1490611c5c565b9050610a38565b50846001600160a01b0316866001600160a01b0316826001600160a01b03167f4a39dc06d4c0dbc64b70af90fd698a233a518aa5d07e595d983b8c0526c8f7fb8787604051610b6b929190611d5f565b60405180910390a4610b818187878787876110a2565b505050505050565b610b916111fd565b6003805460ff60a01b191690557f5db9ee0a495bf2e6ff9c91a7834c1ba4fdd244a5e8aa4e537bd38aeae4b073aa335b6040516001600160a01b03909116815260200160405180910390a1565b600380546001600160a01b038381166001600160a01b0319831681179093556040519116919082907f8be0079c531659141344cd1fd0a4f28419497f9722a3daafe3b4186f6b6457e090600090a35050565b610c38610946565b6003805460ff60a01b1916600160a01b1790557f62e78cea01bee320cd4e420270b5ea74000d11b0c9f74754ebdbfc544b05a258610bc13390565b816001600160a01b0316836001600160a01b031603610ce65760405162461bcd60e51b815260206004820152602960248201527f455243313135353a2073657474696e6720617070726f76616c20737461747573604482015268103337b91039b2b63360b91b6064820152608401610343565b6001600160a01b03838116600081815260016020908152604080832094871680845294825291829020805460ff191686151590811790915591519182527f17307eab39ab6107e8899845ad3d59bd9653f200f220920489ca2b5937696c31910160405180910390a3505050565b6001600160a01b038416610d795760405162461bcd60e51b815260040161034390611d8d565b8151835114610d9a5760405162461bcd60e51b815260040161034390611c75565b3360005b8451811015610e3657838181518110610db957610db9611c30565b6020026020010151600080878481518110610dd657610dd6611c30565b602002602001015181526020019081526020016000206000886001600160a01b03166001600160a01b031681526020019081526020016000206000828254610e1e9190611d4c565b90915550819050610e2e81611c5c565b915050610d9e565b50846001600160a01b031660006001600160a01b0316826001600160a01b03167f4a39dc06d4c0dbc64b70af90fd698a233a518aa5d07e595d983b8c0526c8f7fb8787604051610e87929190611d5f565b60405180910390a4610574816000878787876110a2565b6001600160a01b038416610ec45760405162461bcd60e51b815260040161034390611d8d565b336000610ed08561124d565b90506000610edd8561124d565b90506000868152602081815260408083206001600160a01b038b16845290915281208054879290610f0f908490611d4c565b909155505060408051878152602081018790526001600160a01b03808a1692600092918716917fc3d58168c5ae7397731d063d5bbf3d657854427343f4c083240f7aacaa2d0f62910160405180910390a4610f6f83600089898989611298565b50505050505050565b6001600160a01b038416610f9e5760405162461bcd60e51b815260040161034390611cbd565b336000610faa8561124d565b90506000610fb78561124d565b90506000868152602081815260408083206001600160a01b038c16845290915290205485811015610ffa5760405162461bcd60e51b815260040161034390611d02565b6000878152602081815260408083206001600160a01b038d8116855292528083208985039055908a16825281208054889290611037908490611d4c565b909155505060408051888152602081018890526001600160a01b03808b16928c821692918816917fc3d58168c5ae7397731d063d5bbf3d657854427343f4c083240f7aacaa2d0f62910160405180910390a4611097848a8a8a8a8a611298565b505050505050505050565b6001600160a01b0384163b15610b815760405163bc197c8160e01b81526001600160a01b0385169063bc197c81906110e69089908990889088908890600401611dce565b6020604051808303816000875af1925050508015611121575060408051601f3d908101601f1916820190925261111e91810190611e2c565b60015b6111cd5761112d611e49565b806308c379a0036111665750611141611e65565b8061114c5750611168565b8060405162461bcd60e51b8152600401610343919061142d565b505b60405162461bcd60e51b815260206004820152603460248201527f455243313135353a207472616e7366657220746f206e6f6e2d455243313135356044820152732932b1b2b4bb32b91034b6b83632b6b2b73a32b960611b6064820152608401610343565b6001600160e01b0319811663bc197c8160e01b14610f6f5760405162461bcd60e51b815260040161034390611eee565b600354600160a01b900460ff1661058b5760405162461bcd60e51b815260206004820152601460248201527314185d5cd8589b194e881b9bdd081c185d5cd95960621b6044820152606401610343565b6040805160018082528183019092526060916000919060208083019080368337019050509050828160008151811061128757611287611c30565b602090810291909101015292915050565b6001600160a01b0384163b15610b815760405163f23a6e6160e01b81526001600160a01b0385169063f23a6e61906112dc9089908990889088908890600401611f36565b6020604051808303816000875af1925050508015611317575060408051601f3d908101601f1916820190925261131491810190611e2c565b60015b6113235761112d611e49565b6001600160e01b0319811663f23a6e6160e01b14610f6f5760405162461bcd60e51b815260040161034390611eee565b80356001600160a01b03811681146104d357600080fd5b6000806040838503121561137d57600080fd5b61138683611353565b946020939093013593505050565b6001600160e01b03198116811461091f57600080fd5b6000602082840312156113bc57600080fd5b81356113c781611394565b9392505050565b6000602082840312156113e057600080fd5b5035919050565b6000815180845260005b8181101561140d576020818501810151868301820152016113f1565b506000602082860101526020601f19601f83011685010191505092915050565b6020815260006113c760208301846113e7565b634e487b7160e01b600052604160045260246000fd5b601f8201601f191681016001600160401b038111828210171561147b5761147b611440565b6040525050565b600082601f83011261149357600080fd5b81356001600160401b038111156114ac576114ac611440565b6040516114c3601f8301601f191660200182611456565b8181528460208386010111156114d857600080fd5b816020850160208301376000918101602001919091529392505050565b6000806040838503121561150857600080fd5b8235915060208301356001600160401b0381111561152557600080fd5b61153185828601611482565b9150509250929050565b60006001600160401b0382111561155457611554611440565b5060051b60200190565b600082601f83011261156f57600080fd5b8135602061157c8261153b565b6040516115898282611456565b83815260059390931b85018201928281019150868411156115a957600080fd5b8286015b848110156115c457803583529183019183016115ad565b509695505050505050565b600080600080608085870312156115e557600080fd5b6115ee85611353565b93506115fc60208601611353565b925060408501356001600160401b038082111561161857600080fd5b6116248883890161155e565b9350606087013591508082111561163a57600080fd5b506116478782880161155e565b91505092959194509250565b600080600080600060a0868803121561166b57600080fd5b61167486611353565b945061168260208701611353565b935060408601356001600160401b038082111561169e57600080fd5b6116aa89838a0161155e565b945060608801359150808211156116c057600080fd5b6116cc89838a0161155e565b935060808801359150808211156116e257600080fd5b506116ef88828901611482565b9150509295509295909350565b6000806040838503121561170f57600080fd5b82356001600160401b038082111561172657600080fd5b818501915085601f83011261173a57600080fd5b813560206117478261153b565b6040516117548282611456565b83815260059390931b850182019282810191508984111561177457600080fd5b948201945b838610156117995761178a86611353565b82529482019490820190611779565b965050860135925050808211156117af57600080fd5b506115318582860161155e565b600081518084526020808501945080840160005b838110156117ec578151875295820195908201906001016117d0565b509495945050505050565b6020815260006113c760208301846117bc565b6000806040838503121561181d57600080fd5b61182683611353565b91506020830135801515811461183b57600080fd5b809150509250929050565b6000806000806080858703121561185c57600080fd5b61186585611353565b93506020808601356001600160401b038082111561188257600080fd5b61188e89838a0161155e565b955060408801359150808211156118a457600080fd5b6118b089838a0161155e565b945060608801359150808211156118c657600080fd5b818801915088601f8301126118da57600080fd5b81356118e58161153b565b6040516118f28282611456565b82815260059290921b840185019185810191508b83111561191257600080fd5b8585015b8381101561194a5780358581111561192e5760008081fd5b61193c8e89838a0101611482565b845250918601918601611916565b50989b979a50959850505050505050565b6000806000806080858703121561197157600080fd5b61197a85611353565b9350602085013592506040850135915060608501356001600160401b038111156119a357600080fd5b61164787828801611482565b600080604083850312156119c257600080fd5b6119cb83611353565b91506119d960208401611353565b90509250929050565b600080600080600060a086880312156119fa57600080fd5b611a0386611353565b9450611a1160208701611353565b9350604086013592506060860135915060808601356001600160401b03811115611a3a57600080fd5b6116ef88828901611482565b600060208284031215611a5857600080fd5b6113c782611353565b60008060008060808587031215611a7757600080fd5b611a8085611353565b9350611a8e60208601611353565b93969395505050506040820135916060013590565b600181811c90821680611ab757607f821691505b602082108103611ad757634e487b7160e01b600052602260045260246000fd5b50919050565b601f82111561050057600081815260208120601f850160051c81016020861015611b045750805b601f850160051c820191505b81811015610b8157828155600101611b10565b81516001600160401b03811115611b3c57611b3c611440565b611b5081611b4a8454611aa3565b84611add565b602080601f831160018114611b855760008415611b6d5750858301515b600019600386901b1c1916600185901b178555610b81565b600085815260208120601f198616915b82811015611bb457888601518255948401946001909101908401611b95565b5085821015611bd25787850151600019600388901b60f8161c191681555b5050505050600190811b01905550565b6020808252602e908201527f455243313135353a2063616c6c6572206973206e6f7420746f6b656e206f776e60408201526d195c881bdc88185c1c1c9bdd995960921b606082015260800190565b634e487b7160e01b600052603260045260246000fd5b634e487b7160e01b600052601160045260246000fd5b600060018201611c6e57611c6e611c46565b5060010190565b60208082526028908201527f455243313135353a2069647320616e6420616d6f756e7473206c656e677468206040820152670dad2e6dac2e8c6d60c31b606082015260800190565b60208082526025908201527f455243313135353a207472616e7366657220746f20746865207a65726f206164604082015264647265737360d81b606082015260800190565b6020808252602a908201527f455243313135353a20696e73756666696369656e742062616c616e636520666f60408201526939103a3930b739b332b960b11b606082015260800190565b8082018082111561036f5761036f611c46565b604081526000611d7260408301856117bc565b8281036020840152611d8481856117bc565b95945050505050565b60208082526021908201527f455243313135353a206d696e7420746f20746865207a65726f206164647265736040820152607360f81b606082015260800190565b6001600160a01b0386811682528516602082015260a060408201819052600090611dfa908301866117bc565b8281036060840152611e0c81866117bc565b90508281036080840152611e2081856113e7565b98975050505050505050565b600060208284031215611e3e57600080fd5b81516113c781611394565b600060033d1115611e625760046000803e5060005160e01c5b90565b600060443d1015611e735790565b6040516003193d81016004833e81513d6001600160401b038160248401118184111715611ea257505050505090565b8285019150815181811115611eba5750505050505090565b843d8701016020828501011115611ed45750505050505090565b611ee360208286010187611456565b509095945050505050565b60208082526028908201527f455243313135353a204552433131353552656365697665722072656a656374656040820152676420746f6b656e7360c01b606082015260800190565b6001600160a01b03868116825285166020820152604081018490526060810183905260a060808201819052600090611f70908301846113e7565b97965050505050505056fea2646970667358221220d78476cb3248f523aba3fe03a36547d203a821406cb8d4037f6c5bbed7a2c9de64736f6c63430008150033",
  "linkReferences": {},
  "deployedLinkReferences": {}
}