{
  "_format": "hh-sol-artifact-1",
  "contractName": "GoTLandsNFT",
  "sourceName": "contracts/GoTLandsNFT.sol",
  "abi": [
    {
      "inputs": [
        {
          "internalType": "string",
          "name": "_collectionName",
          "type": "string"
        }
      ],
      "stateMutability": "nonpayable",
      "type": "constructor"
    },
    {
      "anonymous": false,
      "inputs": [
        {
          "indexed": true,
          "internalType": "address",
          "name": "account",
          "type": "address"
        },
        {
          "indexed": true,
          "internalType": "address",
          "name": "operator",
          "type": "address"
        },
        {
          "indexed": false,
          "internalType": "bool",
          "name": "approved",
          "type": "bool"
        }
      ],
      "name": "ApprovalForAll",
      "type": "event"
    },
    {
      "anonymous": false,
      "inputs": [
        {
          "indexed": true,
          "internalType": "address",
          "name": "previousOwner",
          "type": "address"
        },
        {
          "indexed": true,
          "internalType": "address",
          "name": "newOwner",
          "type": "address"
        }
      ],
      "name": "OwnershipTransferred",
      "type": "event"
    },
    {
      "anonymous": false,
      "inputs": [
        {
          "indexed": true,
          "internalType": "address",
          "name": "operator",
          "type": "address"
        },
        {
          "indexed": true,
          "internalType": "address",
          "name": "from",
          "type": "address"
        },
        {
          "indexed": true,
          "internalType": "address",
          "name": "to",
          "type": "address"
        },
        {
          "indexed": false,
          "internalType": "uint256[]",
          "name": "ids",
          "type": "uint256[]"
        },
        {
          "indexed": false,
          "internalType": "uint256[]",
          "name": "values",
          "type": "uint256[]"
        }
      ],
      "name": "TransferBatch",
      "type": "event"
    },
    {
      "anonymous": false,
      "inputs": [
        {
          "indexed": true,
          "internalType": "address",
          "name": "operator",
          "type": "address"
        },
        {
          "indexed": true,
          "internalType": "address",
          "name": "from",
          "type": "address"
        },
        {
          "indexed": true,
          "internalType": "address",
          "name": "to",
          "type": "address"
        },
        {
          "indexed": false,
          "internalType": "uint256",
          "name": "id",
          "type": "uint256"
        },
        {
          "indexed": false,
          "internalType": "uint256",
          "name": "value",
          "type": "uint256"
        }
      ],
      "name": "TransferSingle",
      "type": "event"
    },
    {
      "anonymous": false,
      "inputs": [
        {
          "indexed": false,
          "internalType": "string",
          "name": "value",
          "type": "string"
        },
        {
          "indexed": true,
          "internalType": "uint256",
          "name": "id",
          "type": "uint256"
        }
      ],
      "name": "URI",
      "type": "event"
    },
    {
      "inputs": [],
      "name": "KINGS_LANDING",
      "outputs": [
        {
          "internalType": "uint256",
          "name": "",
          "type": "uint256"
        }
      ],
      "stateMutability": "view",
      "type": "function"
    },
    {
      "inputs": [],
      "name": "THE_IRON_ISLANDS",
      "outputs": [
        {
          "internalType": "uint256",
          "name": "",
          "type": "uint256"
        }
      ],
      "stateMutability": "view",
      "type": "function"
    },
    {
      "inputs": [],
      "name": "THE_NORTH",
      "outputs": [
        {
          "internalType": "uint256",
          "name": "",
          "type": "uint256"
        }
      ],
      "stateMutability": "view",
      "type": "function"
    },
    {
      "inputs": [],
      "name": "THE_REACH",
      "outputs": [
        {
          "internalType": "uint256",
          "name": "",
          "type": "uint256"
        }
      ],
      "stateMutability": "view",
      "type": "function"
    },
    {
      "inputs": [],
      "name": "THE_RIVERLANDS",
      "outputs": [
        {
          "internalType": "uint256",
          "name": "",
          "type": "uint256"
        }
      ],
      "stateMutability": "view",
      "type": "function"
    },
    {
      "inputs": [],
      "name": "THE_STORMLANDS",
      "outputs": [
        {
          "internalType": "uint256",
          "name": "",
          "type": "uint256"
        }
      ],
      "stateMutability": "view",
      "type": "function"
    },
    {
      "inputs": [],
      "name": "THE_VALE",
      "outputs": [
        {
          "internalType": "uint256",
          "name": "",
          "type": "uint256"
        }
      ],
      "stateMutability": "view",
      "type": "function"
    },
    {
      "inputs": [],
      "name": "THE_WESTERLANDS",
      "outputs": [
        {
          "internalType": "uint256",
          "name": "",
          "type": "uint256"
        }
      ],
      "stateMutability": "view",
      "type": "function"
    },
    {
      "inputs": [],
      "name": "WESTEROS",
      "outputs": [
        {
          "internalType": "uint256",
          "name": "",
          "type": "uint256"
        }
      ],
      "stateMutability": "view",
      "type": "function"
    },
    {
      "inputs": [
        {
          "internalType": "address",
          "name": "account",
          "type": "address"
        },
        {
          "internalType": "uint256",
          "name": "id",
          "type": "uint256"
        }
      ],
      "name": "balanceOf",
      "outputs": [
        {
          "internalType": "uint256",
          "name": "",
          "type": "uint256"
        }
      ],
      "stateMutability": "view",
      "type": "function"
    },
    {
      "inputs": [
        {
          "internalType": "address[]",
          "name": "accounts",
          "type": "address[]"
        },
        {
          "internalType": "uint256[]",
          "name": "ids",
          "type": "uint256[]"
        }
      ],
      "name": "balanceOfBatch",
      "outputs": [
        {
          "internalType": "uint256[]",
          "name": "",
          "type": "uint256[]"
        }
      ],
      "stateMutability": "view",
      "type": "function"
    },
    {
      "inputs": [
        {
          "internalType": "address",
          "name": "from",
          "type": "address"
        },
        {
          "internalType": "address",
          "name": "to",
          "type": "address"
        },
        {
          "internalType": "uint256[]",
          "name": "ids",
          "type": "uint256[]"
        },
        {
          "internalType": "uint256[]",
          "name": "amount",
          "type": "uint256[]"
        }
      ],
      "name": "batchTransferFrom",
      "outputs": [],
      "stateMutability": "nonpayable",
      "type": "function"
    },
    {
      "inputs": [],
      "name": "collectionName",
      "outputs": [
        {
          "internalType": "string",
          "name": "",
          "type": "string"
        }
      ],
      "stateMutability": "view",
      "type": "function"
    },
    {
      "inputs": [
        {
          "internalType": "address",
          "name": "account",
          "type": "address"
        },
        {
          "internalType": "address",
          "name": "operator",
          "type": "address"
        }
      ],
      "name": "isApprovedForAll",
      "outputs": [
        {
          "internalType": "bool",
          "name": "",
          "type": "bool"
        }
      ],
      "stateMutability": "view",
      "type": "function"
    },
    {
      "inputs": [
        {
          "internalType": "address",
          "name": "account",
          "type": "address"
        },
        {
          "internalType": "uint256",
          "name": "id",
          "type": "uint256"
        },
        {
          "internalType": "uint256",
          "name": "amount",
          "type": "uint256"
        }
      ],
      "name": "mint",
      "outputs": [],
      "stateMutability": "nonpayable",
      "type": "function"
    },
    {
      "inputs": [
        {
          "internalType": "address",
          "name": "to",
          "type": "address"
        },
        {
          "internalType": "uint256[]",
          "name": "ids",
          "type": "uint256[]"
        },
        {
          "internalType": "uint256[]",
          "name": "amounts",
          "type": "uint256[]"
        }
      ],
      "name": "mintBatch",
      "outputs": [],
      "stateMutability": "nonpayable",
      "type": "function"
    },
    {
      "inputs": [],
      "name": "owner",
      "outputs": [
        {
          "internalType": "address",
          "name": "",
          "type": "address"
        }
      ],
      "stateMutability": "view",
      "type": "function"
    },
    {
      "inputs": [
        {
          "internalType": "uint256",
          "name": "id",
          "type": "uint256"
        }
      ],
      "name": "ownerOf",
      "outputs": [
        {
          "internalType": "address",
          "name": "",
          "type": "address"
        }
      ],
      "stateMutability": "view",
      "type": "function"
    },
    {
      "inputs": [],
      "name": "renounceOwnership",
      "outputs": [],
      "stateMutability": "nonpayable",
      "type": "function"
    },
    {
      "inputs": [
        {
          "internalType": "address",
          "name": "from",
          "type": "address"
        },
        {
          "internalType": "address",
          "name": "to",
          "type": "address"
        },
        {
          "internalType": "uint256[]",
          "name": "ids",
          "type": "uint256[]"
        },
        {
          "internalType": "uint256[]",
          "name": "amounts",
          "type": "uint256[]"
        },
        {
          "internalType": "bytes",
          "name": "data",
          "type": "bytes"
        }
      ],
      "name": "safeBatchTransferFrom",
      "outputs": [],
      "stateMutability": "nonpayable",
      "type": "function"
    },
    {
      "inputs": [
        {
          "internalType": "address",
          "name": "from",
          "type": "address"
        },
        {
          "internalType": "address",
          "name": "to",
          "type": "address"
        },
        {
          "internalType": "uint256",
          "name": "id",
          "type": "uint256"
        },
        {
          "internalType": "uint256",
          "name": "amount",
          "type": "uint256"
        },
        {
          "internalType": "bytes",
          "name": "data",
          "type": "bytes"
        }
      ],
      "name": "safeTransferFrom",
      "outputs": [],
      "stateMutability": "nonpayable",
      "type": "function"
    },
    {
      "inputs": [
        {
          "internalType": "address",
          "name": "operator",
          "type": "address"
        },
        {
          "internalType": "bool",
          "name": "approved",
          "type": "bool"
        }
      ],
      "name": "setApprovalForAll",
      "outputs": [],
      "stateMutability": "nonpayable",
      "type": "function"
    },
    {
      "inputs": [
        {
          "internalType": "string",
          "name": "newURI",
          "type": "string"
        }
      ],
      "name": "setURI",
      "outputs": [],
      "stateMutability": "nonpayable",
      "type": "function"
    },
    {
      "inputs": [
        {
          "internalType": "bytes4",
          "name": "interfaceId",
          "type": "bytes4"
        }
      ],
      "name": "supportsInterface",
      "outputs": [
        {
          "internalType": "bool",
          "name": "",
          "type": "bool"
        }
      ],
      "stateMutability": "view",
      "type": "function"
    },
    {
      "inputs": [
        {
          "internalType": "address",
          "name": "from",
          "type": "address"
        },
        {
          "internalType": "address",
          "name": "to",
          "type": "address"
        },
        {
          "internalType": "uint256",
          "name": "id",
          "type": "uint256"
        },
        {
          "internalType": "uint256",
          "name": "amount",
          "type": "uint256"
        }
      ],
      "name": "transferFrom",
      "outputs": [],
      "stateMutability": "nonpayable",
      "type": "function"
    },
    {
      "inputs": [
        {
          "internalType": "address",
          "name": "newOwner",
          "type": "address"
        }
      ],
      "name": "transferOwnership",
      "outputs": [],
      "stateMutability": "nonpayable",
      "type": "function"
    },
    {
      "inputs": [
        {
          "internalType": "uint256",
          "name": "",
          "type": "uint256"
        }
      ],
      "name": "uri",
      "outputs": [
        {
          "internalType": "string",
          "name": "",
          "type": "string"
        }
      ],
      "stateMutability": "view",
      "type": "function"
    }
  ],
  "bytecode": "0x60806040523480156200001157600080fd5b506040516200274b3803806200274b8339810160408190526200003491620005cf565b6040518060600160405280602b815260200162002720602b91396200005981620001d0565b506200006533620001e2565b6004620000738282620006fc565b50620000993360006001604051806020016040528060008152506200023460201b60201c565b620000bf336001611388604051806020016040528060008152506200023460201b60201c565b620000e5336002614e20604051806020016040528060008152506200023460201b60201c565b6200010b33600361c350604051806020016040528060008152506200023460201b60201c565b6200013233600462013880604051806020016040528060008152506200023460201b60201c565b620001583360056107d0604051806020016040528060008152506200023460201b60201c565b6200017e336006617530604051806020016040528060008152506200023460201b60201c565b620001a4336007610bb8604051806020016040528060008152506200023460201b60201c565b620001c9336008600a604051806020016040528060008152506200023460201b60201c565b506200096f565b6002620001de8282620006fc565b5050565b600380546001600160a01b038381166001600160a01b0319831681179093556040519116919082907f8be0079c531659141344cd1fd0a4f28419497f9722a3daafe3b4186f6b6457e090600090a35050565b6001600160a01b0384166200029a5760405162461bcd60e51b815260206004820152602160248201527f455243313135353a206d696e7420746f20746865207a65726f206164647265736044820152607360f81b60648201526084015b60405180910390fd5b336000620002a88562000356565b90506000620002b78562000356565b90506000868152602081815260408083206001600160a01b038b16845290915281208054879290620002eb908490620007c8565b909155505060408051878152602081018790526001600160a01b03808a1692600092918716917fc3d58168c5ae7397731d063d5bbf3d657854427343f4c083240f7aacaa2d0f62910160405180910390a46200034d83600089898989620003ac565b50505050505050565b60408051600180825281830190925260609160009190602080830190803683370190505090508281600081518110620003935762000393620007f0565b602090810291909101015292915050565b505050505050565b6001600160a01b0384163b15620003a45760405163f23a6e6160e01b81526001600160a01b0385169063f23a6e6190620003f3908990899088908890889060040162000834565b6020604051808303816000875af192505050801562000431575060408051601f3d908101601f191682019092526200042e918101906200087b565b60015b620004f15762000440620008ae565b806308c379a00362000480575062000457620008cb565b8062000464575062000482565b8060405162461bcd60e51b81526004016200029191906200095a565b505b60405162461bcd60e51b815260206004820152603460248201527f455243313135353a207472616e7366657220746f206e6f6e2d4552433131353560448201527f526563656976657220696d706c656d656e746572000000000000000000000000606482015260840162000291565b6001600160e01b0319811663f23a6e6160e01b146200034d5760405162461bcd60e51b815260206004820152602860248201527f455243313135353a204552433131353552656365697665722072656a656374656044820152676420746f6b656e7360c01b606482015260840162000291565b634e487b7160e01b600052604160045260246000fd5b601f8201601f191681016001600160401b0381118282101715620005a257620005a262000564565b6040525050565b60005b83811015620005c6578181015183820152602001620005ac565b50506000910152565b600060208284031215620005e257600080fd5b81516001600160401b0380821115620005fa57600080fd5b818401915084601f8301126200060f57600080fd5b81518181111562000624576200062462000564565b60405191506200063f601f8201601f1916602001836200057a565b8082528560208285010111156200065557600080fd5b62000668816020840160208601620005a9565b50949350505050565b600181811c908216806200068657607f821691505b602082108103620006a757634e487b7160e01b600052602260045260246000fd5b50919050565b601f821115620006f757600081815260208120601f850160051c81016020861015620006d65750805b601f850160051c820191505b81811015620003a457828155600101620006e2565b505050565b81516001600160401b0381111562000718576200071862000564565b620007308162000729845462000671565b84620006ad565b602080601f8311600181146200076857600084156200074f5750858301515b600019600386901b1c1916600185901b178555620003a4565b600085815260208120601f198616915b82811015620007995788860151825594840194600190910190840162000778565b5085821015620007b85787850151600019600388901b60f8161c191681555b5050505050600190811b01905550565b80820180821115620007ea57634e487b7160e01b600052601160045260246000fd5b92915050565b634e487b7160e01b600052603260045260246000fd5b6000815180845262000820816020860160208601620005a9565b601f01601f19169290920160200192915050565b6001600160a01b03868116825285166020820152604081018490526060810183905260a060808201819052600090620008709083018462000806565b979650505050505050565b6000602082840312156200088e57600080fd5b81516001600160e01b031981168114620008a757600080fd5b9392505050565b600060033d1115620008c85760046000803e5060005160e01c5b90565b600060443d1015620008da5790565b6040516003193d81016004833e81513d6001600160401b0380831160248401831017156200090a57505050505090565b8285019150815181811115620009235750505050505090565b843d87010160208285010111156200093e5750505050505090565b6200094f602082860101876200057a565b509095945050505050565b602081526000620008a7602083018462000806565b611da1806200097f6000396000f3fe608060405234801561001057600080fd5b50600436106101a85760003560e01c80635db2a645116100f9578063ac51da1411610097578063e985e9c511610071578063e985e9c514610354578063f242432a14610390578063f2fde38b146103a3578063fe99049a146103b657600080fd5b8063ac51da1414610331578063d81d0a1514610339578063e5326ab11461034c57600080fd5b8063715018a6116100d3578063715018a6146102fd5780637285e2f7146103055780638da5cb5b1461030d578063a22cb4651461031e57600080fd5b80635db2a645146102ac5780636352211e146102b45780636d25c620146102f557600080fd5b806317fad7fc116101665780632eb2c2d6116101405780632eb2c2d6146102695780634e1273f41461027c57806350aec5671461029c57806357959809146102a457600080fd5b806317fad7fc1461024657806319387d3714610259578063236775fc1461026157600080fd5b8062fdd58e146101ad57806301ffc9a7146101d357806302fe5305146101f65780630e672f7c1461020b5780630e89341c14610213578063156e29f614610233575b600080fd5b6101c06101bb3660046111f4565b6103c9565b6040519081526020015b60405180910390f35b6101e66101e1366004611234565b610462565b60405190151581526020016101ca565b6102096102043660046112f9565b6104b2565b005b6101c0600181565b61022661022136600461134a565b6104c6565b6040516101ca91906113a9565b6102096102413660046113bc565b61055a565b610209610254366004611484565b6105ac565b6101c0600781565b6101c0600481565b610209610277366004611529565b6105ce565b61028f61028a3660046115d3565b61061a565b6040516101ca91906116d9565b6101c0600881565b6101c0600081565b6101c0600381565b6102dd6102c236600461134a565b6000908152600560205260409020546001600160a01b031690565b6040516001600160a01b0390911681526020016101ca565b6101c0600681565b610209610744565b6101c0600581565b6003546001600160a01b03166102dd565b61020961032c3660046116ec565b610758565b6101c0600281565b610209610347366004611728565b610767565b61022661078f565b6101e661036236600461179c565b6001600160a01b03918216600090815260016020908152604080832093909416825291909152205460ff1690565b61020961039e3660046117cf565b61081d565b6102096103b1366004611834565b610862565b6102096103c436600461184f565b6108d8565b60006001600160a01b0383166104395760405162461bcd60e51b815260206004820152602a60248201527f455243313135353a2061646472657373207a65726f206973206e6f742061207660448201526930b634b21037bbb732b960b11b60648201526084015b60405180910390fd5b506000818152602081815260408083206001600160a01b03861684529091529020545b92915050565b60006001600160e01b03198216636cdb3d1360e11b148061049357506001600160e01b031982166303a24d0760e21b145b8061045c57506301ffc9a760e01b6001600160e01b031983161461045c565b6104ba6108f4565b6104c38161094e565b50565b6060600280546104d590611891565b80601f016020809104026020016040519081016040528092919081815260200182805461050190611891565b801561054e5780601f106105235761010080835404028352916020019161054e565b820191906000526020600020905b81548152906001019060200180831161053157829003601f168201915b50505050509050919050565b6105626108f4565b61057d8383836040518060200160405280600081525061095a565b50600090815260056020526040902080546001600160a01b0319166001600160a01b0392909216919091179055565b6105c884848484604051806020016040528060008152506105ce565b50505050565b6001600160a01b0385163314806105ea57506105ea8533610362565b6106065760405162461bcd60e51b8152600401610430906118cb565b6106138585858585610a34565b5050505050565b6060815183511461067f5760405162461bcd60e51b815260206004820152602960248201527f455243313135353a206163636f756e747320616e6420696473206c656e677468604482015268040dad2e6dac2e8c6d60bb1b6064820152608401610430565b6000835167ffffffffffffffff81111561069b5761069b611258565b6040519080825280602002602001820160405280156106c4578160200160208202803683370190505b50905060005b845181101561073c5761070f8582815181106106e8576106e8611919565b602002602001015185838151811061070257610702611919565b60200260200101516103c9565b82828151811061072157610721611919565b602090810291909101015261073581611945565b90506106ca565b509392505050565b61074c6108f4565b6107566000610bd0565b565b610763338383610c22565b5050565b61076f6108f4565b61078a83838360405180602001604052806000815250610d02565b505050565b6004805461079c90611891565b80601f01602080910402602001604051908101604052809291908181526020018280546107c890611891565b80156108155780601f106107ea57610100808354040283529160200191610815565b820191906000526020600020905b8154815290600101906020018083116107f857829003601f168201915b505050505081565b6001600160a01b03851633148061083957506108398533610362565b6108555760405162461bcd60e51b8152600401610430906118cb565b6106138585858585610e4d565b61086a6108f4565b6001600160a01b0381166108cf5760405162461bcd60e51b815260206004820152602660248201527f4f776e61626c653a206e6577206f776e657220697320746865207a65726f206160448201526564647265737360d01b6064820152608401610430565b6104c381610bd0565b6105c8848484846040518060200160405280600081525061081d565b6003546001600160a01b031633146107565760405162461bcd60e51b815260206004820181905260248201527f4f776e61626c653a2063616c6c6572206973206e6f7420746865206f776e65726044820152606401610430565b600261076382826119a4565b6001600160a01b0384166109805760405162461bcd60e51b815260040161043090611a64565b33600061098c85610f77565b9050600061099985610f77565b90506000868152602081815260408083206001600160a01b038b168452909152812080548792906109cb908490611aa5565b909155505060408051878152602081018790526001600160a01b03808a1692600092918716917fc3d58168c5ae7397731d063d5bbf3d657854427343f4c083240f7aacaa2d0f62910160405180910390a4610a2b83600089898989610fc2565b50505050505050565b8151835114610a555760405162461bcd60e51b815260040161043090611ab8565b6001600160a01b038416610a7b5760405162461bcd60e51b815260040161043090611b00565b3360005b8451811015610b62576000858281518110610a9c57610a9c611919565b602002602001015190506000858381518110610aba57610aba611919565b602090810291909101810151600084815280835260408082206001600160a01b038e168352909352919091205490915081811015610b0a5760405162461bcd60e51b815260040161043090611b45565b6000838152602081815260408083206001600160a01b038e8116855292528083208585039055908b16825281208054849290610b47908490611aa5565b9250508190555050505080610b5b90611945565b9050610a7f565b50846001600160a01b0316866001600160a01b0316826001600160a01b03167f4a39dc06d4c0dbc64b70af90fd698a233a518aa5d07e595d983b8c0526c8f7fb8787604051610bb2929190611b8f565b60405180910390a4610bc881878787878761111d565b505050505050565b600380546001600160a01b038381166001600160a01b0319831681179093556040519116919082907f8be0079c531659141344cd1fd0a4f28419497f9722a3daafe3b4186f6b6457e090600090a35050565b816001600160a01b0316836001600160a01b031603610c955760405162461bcd60e51b815260206004820152602960248201527f455243313135353a2073657474696e6720617070726f76616c20737461747573604482015268103337b91039b2b63360b91b6064820152608401610430565b6001600160a01b03838116600081815260016020908152604080832094871680845294825291829020805460ff191686151590811790915591519182527f17307eab39ab6107e8899845ad3d59bd9653f200f220920489ca2b5937696c31910160405180910390a3505050565b6001600160a01b038416610d285760405162461bcd60e51b815260040161043090611a64565b8151835114610d495760405162461bcd60e51b815260040161043090611ab8565b3360005b8451811015610de557838181518110610d6857610d68611919565b6020026020010151600080878481518110610d8557610d85611919565b602002602001015181526020019081526020016000206000886001600160a01b03166001600160a01b031681526020019081526020016000206000828254610dcd9190611aa5565b90915550819050610ddd81611945565b915050610d4d565b50846001600160a01b031660006001600160a01b0316826001600160a01b03167f4a39dc06d4c0dbc64b70af90fd698a233a518aa5d07e595d983b8c0526c8f7fb8787604051610e36929190611b8f565b60405180910390a46106138160008787878761111d565b6001600160a01b038416610e735760405162461bcd60e51b815260040161043090611b00565b336000610e7f85610f77565b90506000610e8c85610f77565b90506000868152602081815260408083206001600160a01b038c16845290915290205485811015610ecf5760405162461bcd60e51b815260040161043090611b45565b6000878152602081815260408083206001600160a01b038d8116855292528083208985039055908a16825281208054889290610f0c908490611aa5565b909155505060408051888152602081018890526001600160a01b03808b16928c821692918816917fc3d58168c5ae7397731d063d5bbf3d657854427343f4c083240f7aacaa2d0f62910160405180910390a4610f6c848a8a8a8a8a610fc2565b505050505050505050565b60408051600180825281830190925260609160009190602080830190803683370190505090508281600081518110610fb157610fb1611919565b602090810291909101015292915050565b6001600160a01b0384163b15610bc85760405163f23a6e6160e01b81526001600160a01b0385169063f23a6e61906110069089908990889088908890600401611bbd565b6020604051808303816000875af1925050508015611041575060408051601f3d908101601f1916820190925261103e91810190611c02565b60015b6110ed5761104d611c1f565b806308c379a0036110865750611061611c3b565b8061106c5750611088565b8060405162461bcd60e51b815260040161043091906113a9565b505b60405162461bcd60e51b815260206004820152603460248201527f455243313135353a207472616e7366657220746f206e6f6e2d455243313135356044820152732932b1b2b4bb32b91034b6b83632b6b2b73a32b960611b6064820152608401610430565b6001600160e01b0319811663f23a6e6160e01b14610a2b5760405162461bcd60e51b815260040161043090611cc5565b6001600160a01b0384163b15610bc85760405163bc197c8160e01b81526001600160a01b0385169063bc197c81906111619089908990889088908890600401611d0d565b6020604051808303816000875af192505050801561119c575060408051601f3d908101601f1916820190925261119991810190611c02565b60015b6111a85761104d611c1f565b6001600160e01b0319811663bc197c8160e01b14610a2b5760405162461bcd60e51b815260040161043090611cc5565b80356001600160a01b03811681146111ef57600080fd5b919050565b6000806040838503121561120757600080fd5b611210836111d8565b946020939093013593505050565b6001600160e01b0319811681146104c357600080fd5b60006020828403121561124657600080fd5b81356112518161121e565b9392505050565b634e487b7160e01b600052604160045260246000fd5b601f8201601f1916810167ffffffffffffffff8111828210171561129457611294611258565b6040525050565b600067ffffffffffffffff8311156112b5576112b5611258565b6040516112cc601f8501601f19166020018261126e565b8091508381528484840111156112e157600080fd5b83836020830137600060208583010152509392505050565b60006020828403121561130b57600080fd5b813567ffffffffffffffff81111561132257600080fd5b8201601f8101841361133357600080fd5b6113428482356020840161129b565b949350505050565b60006020828403121561135c57600080fd5b5035919050565b6000815180845260005b818110156113895760208185018101518683018201520161136d565b506000602082860101526020601f19601f83011685010191505092915050565b6020815260006112516020830184611363565b6000806000606084860312156113d157600080fd5b6113da846111d8565b95602085013595506040909401359392505050565b600067ffffffffffffffff82111561140957611409611258565b5060051b60200190565b600082601f83011261142457600080fd5b81356020611431826113ef565b60405161143e828261126e565b83815260059390931b850182019282810191508684111561145e57600080fd5b8286015b848110156114795780358352918301918301611462565b509695505050505050565b6000806000806080858703121561149a57600080fd5b6114a3856111d8565b93506114b1602086016111d8565b9250604085013567ffffffffffffffff808211156114ce57600080fd5b6114da88838901611413565b935060608701359150808211156114f057600080fd5b506114fd87828801611413565b91505092959194509250565b600082601f83011261151a57600080fd5b6112518383356020850161129b565b600080600080600060a0868803121561154157600080fd5b61154a866111d8565b9450611558602087016111d8565b9350604086013567ffffffffffffffff8082111561157557600080fd5b61158189838a01611413565b9450606088013591508082111561159757600080fd5b6115a389838a01611413565b935060808801359150808211156115b957600080fd5b506115c688828901611509565b9150509295509295909350565b600080604083850312156115e657600080fd5b823567ffffffffffffffff808211156115fe57600080fd5b818501915085601f83011261161257600080fd5b8135602061161f826113ef565b60405161162c828261126e565b83815260059390931b850182019282810191508984111561164c57600080fd5b948201945b8386101561167157611662866111d8565b82529482019490820190611651565b9650508601359250508082111561168757600080fd5b5061169485828601611413565b9150509250929050565b600081518084526020808501945080840160005b838110156116ce578151875295820195908201906001016116b2565b509495945050505050565b602081526000611251602083018461169e565b600080604083850312156116ff57600080fd5b611708836111d8565b91506020830135801515811461171d57600080fd5b809150509250929050565b60008060006060848603121561173d57600080fd5b611746846111d8565b9250602084013567ffffffffffffffff8082111561176357600080fd5b61176f87838801611413565b9350604086013591508082111561178557600080fd5b5061179286828701611413565b9150509250925092565b600080604083850312156117af57600080fd5b6117b8836111d8565b91506117c6602084016111d8565b90509250929050565b600080600080600060a086880312156117e757600080fd5b6117f0866111d8565b94506117fe602087016111d8565b93506040860135925060608601359150608086013567ffffffffffffffff81111561182857600080fd5b6115c688828901611509565b60006020828403121561184657600080fd5b611251826111d8565b6000806000806080858703121561186557600080fd5b61186e856111d8565b935061187c602086016111d8565b93969395505050506040820135916060013590565b600181811c908216806118a557607f821691505b6020821081036118c557634e487b7160e01b600052602260045260246000fd5b50919050565b6020808252602e908201527f455243313135353a2063616c6c6572206973206e6f7420746f6b656e206f776e60408201526d195c881bdc88185c1c1c9bdd995960921b606082015260800190565b634e487b7160e01b600052603260045260246000fd5b634e487b7160e01b600052601160045260246000fd5b6000600182016119575761195761192f565b5060010190565b601f82111561078a57600081815260208120601f850160051c810160208610156119855750805b601f850160051c820191505b81811015610bc857828155600101611991565b815167ffffffffffffffff8111156119be576119be611258565b6119d2816119cc8454611891565b8461195e565b602080601f831160018114611a0757600084156119ef5750858301515b600019600386901b1c1916600185901b178555610bc8565b600085815260208120601f198616915b82811015611a3657888601518255948401946001909101908401611a17565b5085821015611a545787850151600019600388901b60f8161c191681555b5050505050600190811b01905550565b60208082526021908201527f455243313135353a206d696e7420746f20746865207a65726f206164647265736040820152607360f81b606082015260800190565b8082018082111561045c5761045c61192f565b60208082526028908201527f455243313135353a2069647320616e6420616d6f756e7473206c656e677468206040820152670dad2e6dac2e8c6d60c31b606082015260800190565b60208082526025908201527f455243313135353a207472616e7366657220746f20746865207a65726f206164604082015264647265737360d81b606082015260800190565b6020808252602a908201527f455243313135353a20696e73756666696369656e742062616c616e636520666f60408201526939103a3930b739b332b960b11b606082015260800190565b604081526000611ba2604083018561169e565b8281036020840152611bb4818561169e565b95945050505050565b6001600160a01b03868116825285166020820152604081018490526060810183905260a060808201819052600090611bf790830184611363565b979650505050505050565b600060208284031215611c1457600080fd5b81516112518161121e565b600060033d1115611c385760046000803e5060005160e01c5b90565b600060443d1015611c495790565b6040516003193d81016004833e81513d67ffffffffffffffff8160248401118184111715611c7957505050505090565b8285019150815181811115611c915750505050505090565b843d8701016020828501011115611cab5750505050505090565b611cba6020828601018761126e565b509095945050505050565b60208082526028908201527f455243313135353a204552433131353552656365697665722072656a656374656040820152676420746f6b656e7360c01b606082015260800190565b6001600160a01b0386811682528516602082015260a060408201819052600090611d399083018661169e565b8281036060840152611d4b818661169e565b90508281036080840152611d5f8185611363565b9897505050505050505056fea2646970667358221220f2f1fc7306b85b47373891a27545d8d9e7df32d5046fd642c1200dd98acb8ec264736f6c6343000815003368747470733a2f2f7765737465726f732e6578616d706c652f6170692f6c616e642f7b69647d2e6a736f6e",
  "linkReferences": {},
  "deployedLinkReferences": {}
}