{
  "_format": "hh-sol-artifact-1",
  "contractName": "GoTLandsNFT",
  "sourceName": "contracts/GoTLandsNFT.sol",
  "abi": [
    {
      "inputs": [],
      "stateMutability": "nonpayable",
      "type": "constructor"
    },
    {
      "anonymous": false,
      "inputs": [
        {
          "indexed": true,
          "internalType": "address",
          "name": "account",
          "type": "address"
        },
        {
          "indexed": true,
          "internalType": "address",
          "name": "operator",
          "type": "address"
        },
        {
          "indexed": false,
          "internalType": "bool",
          "name": "approved",
          "type": "bool"
        }
      ],
      "name": "ApprovalForAll",
      "type": "event"
    },
    {
      "anonymous": false,
      "inputs": [
        {
          "indexed": true,
          "internalType": "address",
          "name": "previousOwner",
          "type": "address"
        },
        {
          "indexed": true,
          "internalType": "address",
          "name": "newOwner",
          "type": "address"
        }
      ],
      "name": "OwnershipTransferred",
      "type": "event"
    },
    {
      "anonymous": false,
      "inputs": [
        {
          "indexed": true,
          "internalType": "address",
          "name": "operator",
          "type": "address"
        },
        {
          "indexed": true,
          "internalType": "address",
          "name": "from",
          "type": "address"
        },
        {
          "indexed": true,
          "internalType": "address",
          "name": "to",
          "type": "address"
        },
        {
          "indexed": false,
          "internalType": "uint256[]",
          "name": "ids",
          "type": "uint256[]"
        },
        {
          "indexed": false,
          "internalType": "uint256[]",
          "name": "values",
          "type": "uint256[]"
        }
      ],
      "name": "TransferBatch",
      "type": "event"
    },
    {
      "anonymous": false,
      "inputs": [
        {
          "indexed": true,
          "internalType": "address",
          "name": "operator",
          "type": "address"
        },
        {
          "indexed": true,
          "internalType": "address",
          "name": "from",
          "type": "address"
        },
        {
          "indexed": true,
          "internalType": "address",
          "name": "to",
          "type": "address"
        },
        {
          "indexed": false,
          "internalType": "uint256",
          "name": "id",
          "type": "uint256"
        },
        {
          "indexed": false,
          "internalType": "uint256",
          "name": "value",
          "type": "uint256"
        }
      ],
      "name": "TransferSingle",
      "type": "event"
    },
    {
      "anonymous": false,
      "inputs": [
        {
          "indexed": false,
          "internalType": "string",
          "name": "value",
          "type": "string"
        },
        {
          "indexed": true,
          "internalType": "uint256",
          "name": "id",
          "type": "uint256"
        }
      ],
      "name": "URI",
      "type": "event"
    },
    {
      "inputs": [],
      "name": "KINGS_LANDING",
      "outputs": [
        {
          "internalType": "uint256",
          "name": "",
          "type": "uint256"
        }
      ],
      "stateMutability": "view",
      "type": "function"
    },
    {
      "inputs": [],
      "name": "THE_IRON_ISLANDS",
      "outputs": [
        {
          "internalType": "uint256",
          "name": "",
          "type": "uint256"
        }
      ],
      "stateMutability": "view",
      "type": "function"
    },
    {
      "inputs": [],
      "name": "THE_NORTH",
      "outputs": [
        {
          "internalType": "uint256",
          "name": "",
          "type": "uint256"
        }
      ],
      "stateMutability": "view",
      "type": "function"
    },
    {
      "inputs": [],
      "name": "THE_REACH",
      "outputs": [
        {
          "internalType": "uint256",
          "name": "",
          "type": "uint256"
        }
      ],
      "stateMutability": "view",
      "type": "function"
    },
    {
      "inputs": [],
      "name": "THE_RIVERLANDS",
      "outputs": [
        {
          "internalType": "uint256",
          "name": "",
          "type": "uint256"
        }
      ],
      "stateMutability": "view",
      "type": "function"
    },
    {
      "inputs": [],
      "name": "THE_STORMLANDS",
      "outputs": [
        {
          "internalType": "uint256",
          "name": "",
          "type": "uint256"
        }
      ],
      "stateMutability": "view",
      "type": "function"
    },
    {
      "inputs": [],
      "name": "THE_VALE",
      "outputs": [
        {
          "internalType": "uint256",
          "name": "",
          "type": "uint256"
        }
      ],
      "stateMutability": "view",
      "type": "function"
    },
    {
      "inputs": [],
      "name": "THE_WESTERLANDS",
      "outputs": [
        {
          "internalType": "uint256",
          "name": "",
          "type": "uint256"
        }
      ],
      "stateMutability": "view",
      "type": "function"
    },
    {
      "inputs": [],
      "name": "WESTEROS",
      "outputs": [
        {
          "internalType": "uint256",
          "name": "",
          "type": "uint256"
        }
      ],
      "stateMutability": "view",
      "type": "function"
    },
    {
      "inputs": [
        {
          "internalType": "address",
          "name": "account",
          "type": "address"
        },
        {
          "internalType": "uint256",
          "name": "id",
          "type": "uint256"
        }
      ],
      "name": "balanceOf",
      "outputs": [
        {
          "internalType": "uint256",
          "name": "",
          "type": "uint256"
        }
      ],
      "stateMutability": "view",
      "type": "function"
    },
    {
      "inputs": [
        {
          "internalType": "address[]",
          "name": "accounts",
          "type": "address[]"
        },
        {
          "internalType": "uint256[]",
          "name": "ids",
          "type": "uint256[]"
        }
      ],
      "name": "balanceOfBatch",
      "outputs": [
        {
          "internalType": "uint256[]",
          "name": "",
          "type": "uint256[]"
        }
      ],
      "stateMutability": "view",
      "type": "function"
    },
    {
      "inputs": [
        {
          "internalType": "address",
          "name": "from",
          "type": "address"
        },
        {
          "internalType": "address",
          "name": "to",
          "type": "address"
        },
        {
          "internalType": "uint256[]",
          "name": "ids",
          "type": "uint256[]"
        },
        {
          "internalType": "uint256[]",
          "name": "amount",
          "type": "uint256[]"
        }
      ],
      "name": "batchTransferFrom",
      "outputs": [],
      "stateMutability": "nonpayable",
      "type": "function"
    },
    {
      "inputs": [
        {
          "internalType": "address",
          "name": "account",
          "type": "address"
        },
        {
          "internalType": "address",
          "name": "operator",
          "type": "address"
        }
      ],
      "name": "isApprovedForAll",
      "outputs": [
        {
          "internalType": "bool",
          "name": "",
          "type": "bool"
        }
      ],
      "stateMutability": "view",
      "type": "function"
    },
    {
      "inputs": [
        {
          "internalType": "address",
          "name": "account",
          "type": "address"
        },
        {
          "internalType": "uint256",
          "name": "id",
          "type": "uint256"
        },
        {
          "internalType": "uint256",
          "name": "amount",
          "type": "uint256"
        }
      ],
      "name": "mint",
      "outputs": [],
      "stateMutability": "nonpayable",
      "type": "function"
    },
    {
      "inputs": [
        {
          "internalType": "address",
          "name": "to",
          "type": "address"
        },
        {
          "internalType": "uint256[]",
          "name": "ids",
          "type": "uint256[]"
        },
        {
          "internalType": "uint256[]",
          "name": "amounts",
          "type": "uint256[]"
        }
      ],
      "name": "mintBatch",
      "outputs": [],
      "stateMutability": "nonpayable",
      "type": "function"
    },
    {
      "inputs": [],
      "name": "owner",
      "outputs": [
        {
          "internalType": "address",
          "name": "",
          "type": "address"
        }
      ],
      "stateMutability": "view",
      "type": "function"
    },
    {
      "inputs": [],
      "name": "renounceOwnership",
      "outputs": [],
      "stateMutability": "nonpayable",
      "type": "function"
    },
    {
      "inputs": [
        {
          "internalType": "address",
          "name": "from",
          "type": "address"
        },
        {
          "internalType": "address",
          "name": "to",
          "type": "address"
        },
        {
          "internalType": "uint256[]",
          "name": "ids",
          "type": "uint256[]"
        },
        {
          "internalType": "uint256[]",
          "name": "amounts",
          "type": "uint256[]"
        },
        {
          "internalType": "bytes",
          "name": "data",
          "type": "bytes"
        }
      ],
      "name": "safeBatchTransferFrom",
      "outputs": [],
      "stateMutability": "nonpayable",
      "type": "function"
    },
    {
      "inputs": [
        {
          "internalType": "address",
          "name": "from",
          "type": "address"
        },
        {
          "internalType": "address",
          "name": "to",
          "type": "address"
        },
        {
          "internalType": "uint256",
          "name": "id",
          "type": "uint256"
        },
        {
          "internalType": "uint256",
          "name": "amount",
          "type": "uint256"
        },
        {
          "internalType": "bytes",
          "name": "data",
          "type": "bytes"
        }
      ],
      "name": "safeTransferFrom",
      "outputs": [],
      "stateMutability": "nonpayable",
      "type": "function"
    },
    {
      "inputs": [
        {
          "internalType": "address",
          "name": "operator",
          "type": "address"
        },
        {
          "internalType": "bool",
          "name": "approved",
          "type": "bool"
        }
      ],
      "name": "setApprovalForAll",
      "outputs": [],
      "stateMutability": "nonpayable",
      "type": "function"
    },
    {
      "inputs": [
        {
          "internalType": "string",
          "name": "newURI",
          "type": "string"
        }
      ],
      "name": "setURI",
      "outputs": [],
      "stateMutability": "nonpayable",
      "type": "function"
    },
    {
      "inputs": [
        {
          "internalType": "bytes4",
          "name": "interfaceId",
          "type": "bytes4"
        }
      ],
      "name": "supportsInterface",
      "outputs": [
        {
          "internalType": "bool",
          "name": "",
          "type": "bool"
        }
      ],
      "stateMutability": "view",
      "type": "function"
    },
    {
      "inputs": [
        {
          "internalType": "address",
          "name": "from",
          "type": "address"
        },
        {
          "internalType": "address",
          "name": "to",
          "type": "address"
        },
        {
          "internalType": "uint256",
          "name": "id",
          "type": "uint256"
        },
        {
          "internalType": "uint256",
          "name": "amount",
          "type": "uint256"
        }
      ],
      "name": "transferFrom",
      "outputs": [],
      "stateMutability": "nonpayable",
      "type": "function"
    },
    {
      "inputs": [
        {
          "internalType": "address",
          "name": "newOwner",
          "type": "address"
        }
      ],
      "name": "transferOwnership",
      "outputs": [],
      "stateMutability": "nonpayable",
      "type": "function"
    },
    {
      "inputs": [
        {
          "internalType": "uint256",
          "name": "_tokenId",
          "type": "uint256"
        }
      ],
      "name": "uri",
      "outputs": [
        {
          "internalType": "string",
          "name": "",
          "type": "string"
        }
      ],
      "stateMutability": "pure",
      "type": "function"
    }
  ],
  "bytecode": "0x60806040523480156200001157600080fd5b506040518060a00160405280607281526020016200268a607291396200003781620000d8565b506200004333620000ea565b6200005233600060016200013c565b620000623360016113886200013c565b62000072336002614e206200013c565b6200008233600361c3506200013c565b62000093336004620138806200013c565b620000a33360056107d06200013c565b620000b33360066175306200013c565b620000c3336007610bb86200013c565b620000d2336008600a6200013c565b62000854565b6002620000e6828262000598565b5050565b600380546001600160a01b038381166001600160a01b0319831681179093556040519116919082907f8be0079c531659141344cd1fd0a4f28419497f9722a3daafe3b4186f6b6457e090600090a35050565b620001466200016e565b6200016983838360405180602001604052806000815250620001d060201b60201c565b505050565b6003546001600160a01b03163314620001ce5760405162461bcd60e51b815260206004820181905260248201527f4f776e61626c653a2063616c6c6572206973206e6f7420746865206f776e657260448201526064015b60405180910390fd5b565b6001600160a01b038416620002325760405162461bcd60e51b815260206004820152602160248201527f455243313135353a206d696e7420746f20746865207a65726f206164647265736044820152607360f81b6064820152608401620001c5565b3360006200024085620002ee565b905060006200024f85620002ee565b90506000868152602081815260408083206001600160a01b038b168452909152812080548792906200028390849062000664565b909155505060408051878152602081018790526001600160a01b03808a1692600092918716917fc3d58168c5ae7397731d063d5bbf3d657854427343f4c083240f7aacaa2d0f62910160405180910390a4620002e58360008989898962000344565b50505050505050565b604080516001808252818301909252606091600091906020808301908036833701905050905082816000815181106200032b576200032b6200068c565b602090810291909101015292915050565b505050505050565b6001600160a01b0384163b156200033c5760405163f23a6e6160e01b81526001600160a01b0385169063f23a6e61906200038b9089908990889088908890600401620006ea565b6020604051808303816000875af1925050508015620003c9575060408051601f3d908101601f19168201909252620003c69181019062000731565b60015b6200048957620003d862000764565b806308c379a003620004185750620003ef620007b0565b80620003fc57506200041a565b8060405162461bcd60e51b8152600401620001c591906200083f565b505b60405162461bcd60e51b815260206004820152603460248201527f455243313135353a207472616e7366657220746f206e6f6e2d4552433131353560448201527f526563656976657220696d706c656d656e7465720000000000000000000000006064820152608401620001c5565b6001600160e01b0319811663f23a6e6160e01b14620002e55760405162461bcd60e51b815260206004820152602860248201527f455243313135353a204552433131353552656365697665722072656a656374656044820152676420746f6b656e7360c01b6064820152608401620001c5565b634e487b7160e01b600052604160045260246000fd5b600181811c908216806200052757607f821691505b6020821081036200054857634e487b7160e01b600052602260045260246000fd5b50919050565b601f8211156200016957600081815260208120601f850160051c81016020861015620005775750805b601f850160051c820191505b818110156200033c5782815560010162000583565b81516001600160401b03811115620005b457620005b4620004fc565b620005cc81620005c5845462000512565b846200054e565b602080601f831160018114620006045760008415620005eb5750858301515b600019600386901b1c1916600185901b1785556200033c565b600085815260208120601f198616915b82811015620006355788860151825594840194600190910190840162000614565b5085821015620006545787850151600019600388901b60f8161c191681555b5050505050600190811b01905550565b808201808211156200068657634e487b7160e01b600052601160045260246000fd5b92915050565b634e487b7160e01b600052603260045260246000fd5b6000815180845260005b81811015620006ca57602081850181015186830182015201620006ac565b506000602082860101526020601f19601f83011685010191505092915050565b6001600160a01b03868116825285166020820152604081018490526060810183905260a0608082018190526000906200072690830184620006a2565b979650505050505050565b6000602082840312156200074457600080fd5b81516001600160e01b0319811681146200075d57600080fd5b9392505050565b600060033d11156200077e5760046000803e5060005160e01c5b90565b601f8201601f191681016001600160401b0381118282101715620007a957620007a9620004fc565b6040525050565b600060443d1015620007bf5790565b6040516003193d81016004833e81513d6001600160401b038083116024840183101715620007ef57505050505090565b8285019150815181811115620008085750505050505090565b843d8701016020828501011115620008235750505050505090565b620008346020828601018762000781565b509095945050505050565b6020815260006200075d6020830184620006a2565b611e2680620008646000396000f3fe608060405234801561001057600080fd5b50600436106101725760003560e01c806357959809116100de578063a22cb46511610097578063e985e9c511610071578063e985e9c5146102df578063f242432a1461031b578063f2fde38b1461032e578063fe99049a1461034157600080fd5b8063a22cb465146102b1578063ac51da14146102c4578063d81d0a15146102cc57600080fd5b8063579598091461026e5780635db2a645146102765780636d25c6201461027e578063715018a6146102865780637285e2f71461028e5780638da5cb5b1461029657600080fd5b806317fad7fc1161013057806317fad7fc1461021057806319387d3714610223578063236775fc1461022b5780632eb2c2d6146102335780634e1273f41461024657806350aec5671461026657600080fd5b8062fdd58e1461017757806301ffc9a71461019d57806302fe5305146101c05780630e672f7c146101d55780630e89341c146101dd578063156e29f6146101fd575b600080fd5b61018a6101853660046111c8565b610354565b6040519081526020015b60405180910390f35b6101b06101ab366004611208565b6103ed565b6040519015158152602001610194565b6101d36101ce3660046112cb565b61043d565b005b61018a600181565b6101f06101eb36600461131b565b610451565b6040516101949190611384565b6101d361020b366004611397565b610482565b6101d361021e36600461145e565b6104aa565b61018a600781565b61018a600481565b6101d3610241366004611502565b6104cc565b6102596102543660046115ab565b610518565b60405161019491906116b0565b61018a600881565b61018a600081565b61018a600381565b61018a600681565b6101d3610641565b61018a600581565b6003546040516001600160a01b039091168152602001610194565b6101d36102bf3660046116c3565b610655565b61018a600281565b6101d36102da3660046116ff565b610664565b6101b06102ed366004611772565b6001600160a01b03918216600090815260016020908152604080832093909416825291909152205460ff1690565b6101d36103293660046117a5565b610687565b6101d361033c366004611809565b6106cc565b6101d361034f366004611824565b610742565b60006001600160a01b0383166103c45760405162461bcd60e51b815260206004820152602a60248201527f455243313135353a2061646472657373207a65726f206973206e6f742061207660448201526930b634b21037bbb732b960b11b60648201526084015b60405180910390fd5b506000818152602081815260408083206001600160a01b03861684529091529020545b92915050565b60006001600160e01b03198216636cdb3d1360e11b148061041e57506001600160e01b031982166303a24d0760e21b145b806103e757506301ffc9a760e01b6001600160e01b03198316146103e7565b61044561075e565b61044e816107b8565b50565b606061045c826107c4565b60405160200161046c9190611866565b6040516020818303038152906040529050919050565b61048a61075e565b6104a583838360405180602001604052806000815250610856565b505050565b6104c684848484604051806020016040528060008152506104cc565b50505050565b6001600160a01b0385163314806104e857506104e885336102ed565b6105045760405162461bcd60e51b81526004016103bb90611918565b6105118585858585610930565b5050505050565b6060815183511461057d5760405162461bcd60e51b815260206004820152602960248201527f455243313135353a206163636f756e747320616e6420696473206c656e677468604482015268040dad2e6dac2e8c6d60bb1b60648201526084016103bb565b600083516001600160401b038111156105985761059861122c565b6040519080825280602002602001820160405280156105c1578160200160208202803683370190505b50905060005b84518110156106395761060c8582815181106105e5576105e5611966565b60200260200101518583815181106105ff576105ff611966565b6020026020010151610354565b82828151811061061e5761061e611966565b602090810291909101015261063281611992565b90506105c7565b509392505050565b61064961075e565b6106536000610acc565b565b610660338383610b1e565b5050565b61066c61075e565b6104a583838360405180602001604052806000815250610bfe565b6001600160a01b0385163314806106a357506106a385336102ed565b6106bf5760405162461bcd60e51b81526004016103bb90611918565b6105118585858585610d49565b6106d461075e565b6001600160a01b0381166107395760405162461bcd60e51b815260206004820152602660248201527f4f776e61626c653a206e6577206f776e657220697320746865207a65726f206160448201526564647265737360d01b60648201526084016103bb565b61044e81610acc565b6104c68484848460405180602001604052806000815250610687565b6003546001600160a01b031633146106535760405162461bcd60e51b815260206004820181905260248201527f4f776e61626c653a2063616c6c6572206973206e6f7420746865206f776e657260448201526064016103bb565b60026106608282611a2b565b606060006107d183610e73565b60010190506000816001600160401b038111156107f0576107f061122c565b6040519080825280601f01601f19166020018201604052801561081a576020820181803683370190505b5090508181016020015b600019016f181899199a1a9b1b9c1cb0b131b232b360811b600a86061a8153600a850494508461082457509392505050565b6001600160a01b03841661087c5760405162461bcd60e51b81526004016103bb90611aea565b33600061088885610f4b565b9050600061089585610f4b565b90506000868152602081815260408083206001600160a01b038b168452909152812080548792906108c7908490611b2b565b909155505060408051878152602081018790526001600160a01b03808a1692600092918716917fc3d58168c5ae7397731d063d5bbf3d657854427343f4c083240f7aacaa2d0f62910160405180910390a461092783600089898989610f96565b50505050505050565b81518351146109515760405162461bcd60e51b81526004016103bb90611b3e565b6001600160a01b0384166109775760405162461bcd60e51b81526004016103bb90611b86565b3360005b8451811015610a5e57600085828151811061099857610998611966565b6020026020010151905060008583815181106109b6576109b6611966565b602090810291909101810151600084815280835260408082206001600160a01b038e168352909352919091205490915081811015610a065760405162461bcd60e51b81526004016103bb90611bcb565b6000838152602081815260408083206001600160a01b038e8116855292528083208585039055908b16825281208054849290610a43908490611b2b565b9250508190555050505080610a5790611992565b905061097b565b50846001600160a01b0316866001600160a01b0316826001600160a01b03167f4a39dc06d4c0dbc64b70af90fd698a233a518aa5d07e595d983b8c0526c8f7fb8787604051610aae929190611c15565b60405180910390a4610ac48187878787876110f1565b505050505050565b600380546001600160a01b038381166001600160a01b0319831681179093556040519116919082907f8be0079c531659141344cd1fd0a4f28419497f9722a3daafe3b4186f6b6457e090600090a35050565b816001600160a01b0316836001600160a01b031603610b915760405162461bcd60e51b815260206004820152602960248201527f455243313135353a2073657474696e6720617070726f76616c20737461747573604482015268103337b91039b2b63360b91b60648201526084016103bb565b6001600160a01b03838116600081815260016020908152604080832094871680845294825291829020805460ff191686151590811790915591519182527f17307eab39ab6107e8899845ad3d59bd9653f200f220920489ca2b5937696c31910160405180910390a3505050565b6001600160a01b038416610c245760405162461bcd60e51b81526004016103bb90611aea565b8151835114610c455760405162461bcd60e51b81526004016103bb90611b3e565b3360005b8451811015610ce157838181518110610c6457610c64611966565b6020026020010151600080878481518110610c8157610c81611966565b602002602001015181526020019081526020016000206000886001600160a01b03166001600160a01b031681526020019081526020016000206000828254610cc99190611b2b565b90915550819050610cd981611992565b915050610c49565b50846001600160a01b031660006001600160a01b0316826001600160a01b03167f4a39dc06d4c0dbc64b70af90fd698a233a518aa5d07e595d983b8c0526c8f7fb8787604051610d32929190611c15565b60405180910390a4610511816000878787876110f1565b6001600160a01b038416610d6f5760405162461bcd60e51b81526004016103bb90611b86565b336000610d7b85610f4b565b90506000610d8885610f4b565b90506000868152602081815260408083206001600160a01b038c16845290915290205485811015610dcb5760405162461bcd60e51b81526004016103bb90611bcb565b6000878152602081815260408083206001600160a01b038d8116855292528083208985039055908a16825281208054889290610e08908490611b2b565b909155505060408051888152602081018890526001600160a01b03808b16928c821692918816917fc3d58168c5ae7397731d063d5bbf3d657854427343f4c083240f7aacaa2d0f62910160405180910390a4610e68848a8a8a8a8a610f96565b505050505050505050565b60008072184f03e93ff9f4daa797ed6e38ed64bf6a1f0160401b8310610eb25772184f03e93ff9f4daa797ed6e38ed64bf6a1f0160401b830492506040015b6d04ee2d6d415b85acef81000000008310610ede576d04ee2d6d415b85acef8100000000830492506020015b662386f26fc100008310610efc57662386f26fc10000830492506010015b6305f5e1008310610f14576305f5e100830492506008015b6127108310610f2857612710830492506004015b60648310610f3a576064830492506002015b600a83106103e75760010192915050565b60408051600180825281830190925260609160009190602080830190803683370190505090508281600081518110610f8557610f85611966565b602090810291909101015292915050565b6001600160a01b0384163b15610ac45760405163f23a6e6160e01b81526001600160a01b0385169063f23a6e6190610fda9089908990889088908890600401611c43565b6020604051808303816000875af1925050508015611015575060408051601f3d908101601f1916820190925261101291810190611c88565b60015b6110c157611021611ca5565b806308c379a00361105a5750611035611cc1565b80611040575061105c565b8060405162461bcd60e51b81526004016103bb9190611384565b505b60405162461bcd60e51b815260206004820152603460248201527f455243313135353a207472616e7366657220746f206e6f6e2d455243313135356044820152732932b1b2b4bb32b91034b6b83632b6b2b73a32b960611b60648201526084016103bb565b6001600160e01b0319811663f23a6e6160e01b146109275760405162461bcd60e51b81526004016103bb90611d4a565b6001600160a01b0384163b15610ac45760405163bc197c8160e01b81526001600160a01b0385169063bc197c81906111359089908990889088908890600401611d92565b6020604051808303816000875af1925050508015611170575060408051601f3d908101601f1916820190925261116d91810190611c88565b60015b61117c57611021611ca5565b6001600160e01b0319811663bc197c8160e01b146109275760405162461bcd60e51b81526004016103bb90611d4a565b80356001600160a01b03811681146111c357600080fd5b919050565b600080604083850312156111db57600080fd5b6111e4836111ac565b946020939093013593505050565b6001600160e01b03198116811461044e57600080fd5b60006020828403121561121a57600080fd5b8135611225816111f2565b9392505050565b634e487b7160e01b600052604160045260246000fd5b601f8201601f191681016001600160401b03811182821017156112675761126761122c565b6040525050565b60006001600160401b038311156112875761128761122c565b60405161129e601f8501601f191660200182611242565b8091508381528484840111156112b357600080fd5b83836020830137600060208583010152509392505050565b6000602082840312156112dd57600080fd5b81356001600160401b038111156112f357600080fd5b8201601f8101841361130457600080fd5b6113138482356020840161126e565b949350505050565b60006020828403121561132d57600080fd5b5035919050565b60005b8381101561134f578181015183820152602001611337565b50506000910152565b60008151808452611370816020860160208601611334565b601f01601f19169290920160200192915050565b6020815260006112256020830184611358565b6000806000606084860312156113ac57600080fd5b6113b5846111ac565b95602085013595506040909401359392505050565b60006001600160401b038211156113e3576113e361122c565b5060051b60200190565b600082601f8301126113fe57600080fd5b8135602061140b826113ca565b6040516114188282611242565b83815260059390931b850182019282810191508684111561143857600080fd5b8286015b84811015611453578035835291830191830161143c565b509695505050505050565b6000806000806080858703121561147457600080fd5b61147d856111ac565b935061148b602086016111ac565b925060408501356001600160401b03808211156114a757600080fd5b6114b3888389016113ed565b935060608701359150808211156114c957600080fd5b506114d6878288016113ed565b91505092959194509250565b600082601f8301126114f357600080fd5b6112258383356020850161126e565b600080600080600060a0868803121561151a57600080fd5b611523866111ac565b9450611531602087016111ac565b935060408601356001600160401b038082111561154d57600080fd5b61155989838a016113ed565b9450606088013591508082111561156f57600080fd5b61157b89838a016113ed565b9350608088013591508082111561159157600080fd5b5061159e888289016114e2565b9150509295509295909350565b600080604083850312156115be57600080fd5b82356001600160401b03808211156115d557600080fd5b818501915085601f8301126115e957600080fd5b813560206115f6826113ca565b6040516116038282611242565b83815260059390931b850182019282810191508984111561162357600080fd5b948201945b8386101561164857611639866111ac565b82529482019490820190611628565b9650508601359250508082111561165e57600080fd5b5061166b858286016113ed565b9150509250929050565b600081518084526020808501945080840160005b838110156116a557815187529582019590820190600101611689565b509495945050505050565b6020815260006112256020830184611675565b600080604083850312156116d657600080fd5b6116df836111ac565b9150602083013580151581146116f457600080fd5b809150509250929050565b60008060006060848603121561171457600080fd5b61171d846111ac565b925060208401356001600160401b038082111561173957600080fd5b611745878388016113ed565b9350604086013591508082111561175b57600080fd5b50611768868287016113ed565b9150509250925092565b6000806040838503121561178557600080fd5b61178e836111ac565b915061179c602084016111ac565b90509250929050565b600080600080600060a086880312156117bd57600080fd5b6117c6866111ac565b94506117d4602087016111ac565b9350604086013592506060860135915060808601356001600160401b038111156117fd57600080fd5b61159e888289016114e2565b60006020828403121561181b57600080fd5b611225826111ac565b6000806000806080858703121561183a57600080fd5b611843856111ac565b9350611851602086016111ac565b93969395505050506040820135916060013590565b7f68747470733a2f2f73617070686972652d72616e646f6d2d62616e6469636f6f81527f742d3137392e6d7970696e6174612e636c6f75642f697066732f516d5550433560208201527f7245653873595a6b5263617a6d6841746a6b7631576266477a7237366b6b5272604082015268625a674b475735332f60b81b6060820152600082516118fc816069850160208701611334565b64173539b7b760d91b6069939091019283015250606e01919050565b6020808252602e908201527f455243313135353a2063616c6c6572206973206e6f7420746f6b656e206f776e60408201526d195c881bdc88185c1c1c9bdd995960921b606082015260800190565b634e487b7160e01b600052603260045260246000fd5b634e487b7160e01b600052601160045260246000fd5b6000600182016119a4576119a461197c565b5060010190565b600181811c908216806119bf57607f821691505b6020821081036119df57634e487b7160e01b600052602260045260246000fd5b50919050565b601f8211156104a557600081815260208120601f850160051c81016020861015611a0c5750805b601f850160051c820191505b81811015610ac457828155600101611a18565b81516001600160401b03811115611a4457611a4461122c565b611a5881611a5284546119ab565b846119e5565b602080601f831160018114611a8d5760008415611a755750858301515b600019600386901b1c1916600185901b178555610ac4565b600085815260208120601f198616915b82811015611abc57888601518255948401946001909101908401611a9d565b5085821015611ada5787850151600019600388901b60f8161c191681555b5050505050600190811b01905550565b60208082526021908201527f455243313135353a206d696e7420746f20746865207a65726f206164647265736040820152607360f81b606082015260800190565b808201808211156103e7576103e761197c565b60208082526028908201527f455243313135353a2069647320616e6420616d6f756e7473206c656e677468206040820152670dad2e6dac2e8c6d60c31b606082015260800190565b60208082526025908201527f455243313135353a207472616e7366657220746f20746865207a65726f206164604082015264647265737360d81b606082015260800190565b6020808252602a908201527f455243313135353a20696e73756666696369656e742062616c616e636520666f60408201526939103a3930b739b332b960b11b606082015260800190565b604081526000611c286040830185611675565b8281036020840152611c3a8185611675565b95945050505050565b6001600160a01b03868116825285166020820152604081018490526060810183905260a060808201819052600090611c7d90830184611358565b979650505050505050565b600060208284031215611c9a57600080fd5b8151611225816111f2565b600060033d1115611cbe5760046000803e5060005160e01c5b90565b600060443d1015611ccf5790565b6040516003193d81016004833e81513d6001600160401b038160248401118184111715611cfe57505050505090565b8285019150815181811115611d165750505050505090565b843d8701016020828501011115611d305750505050505090565b611d3f60208286010187611242565b509095945050505050565b60208082526028908201527f455243313135353a204552433131353552656365697665722072656a656374656040820152676420746f6b656e7360c01b606082015260800190565b6001600160a01b0386811682528516602082015260a060408201819052600090611dbe90830186611675565b8281036060840152611dd08186611675565b90508281036080840152611de48185611358565b9897505050505050505056fea2646970667358221220c2689f515b9f6b04a19682e5aa9ab22ff97eded594a6aee21f7fa97dc4a5df7164736f6c6343000815003368747470733a2f2f73617070686972652d72616e646f6d2d62616e6469636f6f742d3137392e6d7970696e6174612e636c6f75642f697066732f516d555043357245653873595a6b5263617a6d6841746a6b7631576266477a7237366b6b5272625a674b475735332f7b69647d2e6a736f6e",
  "linkReferences": {},
  "deployedLinkReferences": {}
}