{"contracts/GoTLandsNFT.sol":{"GoTLandsNFT":{"abi":[{"inputs":[{"internalType":"string","name":"_collectionName","type":"string"}],"stateMutability":"nonpayable","type":"constructor"},{"anonymous":false,"inputs":[{"indexed":true,"internalType":"address","name":"account","type":"address"},{"indexed":true,"internalType":"address","name":"operator","type":"address"},{"indexed":false,"internalType":"bool","name":"approved","type":"bool"}],"name":"ApprovalForAll","type":"event"},{"anonymous":false,"inputs":[{"indexed":true,"internalType":"address","name":"previousOwner","type":"address"},{"indexed":true,"internalType":"address","name":"newOwner","type":"address"}],"name":"OwnershipTransferred","type":"event"},{"anonymous":false,"inputs":[{"indexed":true,"internalType":"address","name":"operator","type":"address"},{"indexed":true,"internalType":"address","name":"from","type":"address"},{"indexed":true,"internalType":"address","name":"to","type":"address"},{"indexed":false,"internalType":"uint256[]","name":"ids","type":"uint256[]"},{"indexed":false,"internalType":"uint256[]","name":"values","type":"uint256[]"}],"name":"TransferBatch","type":"event"},{"anonymous":false,"inputs":[{"indexed":true,"internalType":"address","name":"operator","type":"address"},{"indexed":true,"internalType":"address","name":"from","type":"address"},{"indexed":true,"internalType":"address","name":"to","type":"address"},{"indexed":false,"internalType":"uint256","name":"id","type":"uint256"},{"indexed":false,"internalType":"uint256","name":"value","type":"uint256"}],"name":"TransferSingle","type":"event"},{"anonymous":false,"inputs":[{"indexed":false,"internalType":"string","name":"value","type":"string"},{"indexed":true,"internalType":"uint256","name":"id","type":"uint256"}],"name":"URI","type":"event"},{"inputs":[],"name":"KINGS_LANDING","outputs":[{"internalType":"uint256","name":"","type":"uint256"}],"stateMutability":"view","type":"function"},{"inputs":[],"name":"THE_IRON_ISLANDS","outputs":[{"internalType":"uint256","name":"","type":"uint256"}],"stateMutability":"view","type":"function"},{"inputs":[],"name":"THE_NORTH","outputs":[{"internalType":"uint256","name":"","type":"uint256"}],"stateMutability":"view","type":"function"},{"inputs":[],"name":"THE_REACH","outputs":[{"internalType":"uint256","name":"","type":"uint256"}],"stateMutability":"view","type":"function"},{"inputs":[],"name":"THE_RIVERLANDS","outputs":[{"internalType":"uint256","name":"","type":"uint256"}],"stateMutability":"view","type":"function"},{"inputs":[],"name":"THE_STORMLANDS","outputs":[{"internalType":"uint256","name":"","type":"uint256"}],"stateMutability":"view","type":"function"},{"inputs":[],"name":"THE_VALE","outputs":[{"internalType":"uint256","name":"","type":"uint256"}],"stateMutability":"view","type":"function"},{"inputs":[],"name":"THE_WESTERLANDS","outputs":[{"internalType":"uint256","name":"","type":"uint256"}],"stateMutability":"view","type":"function"},{"inputs":[],"name":"WESTEROS","outputs":[{"internalType":"uint256","name":"","type":"uint256"}],"stateMutability":"view","type":"function"},{"inputs":[{"internalType":"address","name":"account","type":"address"},{"internalType":"uint256","name":"id","type":"uint256"}],"name":"balanceOf","outputs":[{"internalType":"uint256","name":"","type":"uint256"}],"stateMutability":"view","type":"function"},{"inputs":[{"internalType":"address[]","name":"accounts","type":"address[]"},{"internalType":"uint256[]","name":"ids","type":"uint256[]"}],"name":"balanceOfBatch","outputs":[{"internalType":"uint256[]","name":"","type":"uint256[]"}],"stateMutability":"view","type":"function"},{"inputs":[],"name":"collectionName","outputs":[{"internalType":"string","name":"","type":"string"}],"stateMutability":"view","type":"function"},{"inputs":[{"internalType":"address","name":"account","type":"address"},{"internalType":"address","name":"operator","type":"address"}],"name":"isApprovedForAll","outputs":[{"internalType":"bool","name":"","type":"bool"}],"stateMutability":"view","type":"function"},{"inputs":[{"internalType":"address","name":"account","type":"address"},{"internalType":"uint256","name":"id","type":"uint256"},{"internalType":"uint256","name":"amount","type":"uint256"}],"name":"mint","outputs":[],"stateMutability":"nonpayable","type":"function"},{"inputs":[{"internalType":"address","name":"to","type":"address"},{"internalType":"uint256[]","name":"ids","type":"uint256[]"},{"internalType":"uint256[]","name":"amounts","type":"uint256[]"}],"name":"mintBatch","outputs":[],"stateMutability":"nonpayable","type":"function"},{"inputs":[],"name":"owner","outputs":[{"internalType":"address","name":"","type":"address"}],"stateMutability":"view","type":"function"},{"inputs":[{"internalType":"uint256","name":"id","type":"uint256"}],"name":"ownerOf","outputs":[{"internalType":"address","name":"","type":"address"}],"stateMutability":"view","type":"function"},{"inputs":[],"name":"renounceOwnership","outputs":[],"stateMutability":"nonpayable","type":"function"},{"inputs":[{"internalType":"address","name":"from","type":"address"},{"internalType":"address","name":"to","type":"address"},{"internalType":"uint256[]","name":"ids","type":"uint256[]"},{"internalType":"uint256[]","name":"amount","type":"uint256[]"}],"name":"safeBatchTransfer","outputs":[],"stateMutability":"nonpayable","type":"function"},{"inputs":[{"internalType":"address","name":"from","type":"address"},{"internalType":"address","name":"to","type":"address"},{"internalType":"uint256[]","name":"ids","type":"uint256[]"},{"internalType":"uint256[]","name":"amounts","type":"uint256[]"},{"internalType":"bytes","name":"data","type":"bytes"}],"name":"safeBatchTransferFrom","outputs":[],"stateMutability":"nonpayable","type":"function"},{"inputs":[{"internalType":"address","name":"from","type":"address"},{"internalType":"address","name":"to","type":"address"},{"internalType":"uint256","name":"id","type":"uint256"},{"internalType":"uint256","name":"amount","type":"uint256"}],"name":"safeTransfer","outputs":[],"stateMutability":"nonpayable","type":"function"},{"inputs":[{"internalType":"address","name":"from","type":"address"},{"internalType":"address","name":"to","type":"address"},{"internalType":"uint256","name":"id","type":"uint256"},{"internalType":"uint256","name":"amount","type":"uint256"},{"internalType":"bytes","name":"data","type":"bytes"}],"name":"safeTransferFrom","outputs":[],"stateMutability":"nonpayable","type":"function"},{"inputs":[{"internalType":"address","name":"operator","type":"address"},{"internalType":"bool","name":"approved","type":"bool"}],"name":"setApprovalForAll","outputs":[],"stateMutability":"nonpayable","type":"function"},{"inputs":[{"internalType":"string","name":"newURI","type":"string"}],"name":"setURI","outputs":[],"stateMutability":"nonpayable","type":"function"},{"inputs":[{"internalType":"bytes4","name":"interfaceId","type":"bytes4"}],"name":"supportsInterface","outputs":[{"internalType":"bool","name":"","type":"bool"}],"stateMutability":"view","type":"function"},{"inputs":[{"internalType":"address","name":"newOwner","type":"address"}],"name":"transferOwnership","outputs":[],"stateMutability":"nonpayable","type":"function"},{"inputs":[{"internalType":"uint256","name":"","type":"uint256"}],"name":"uri","outputs":[{"internalType":"string","name":"","type":"string"}],"stateMutability":"view","type":"function"}],"evm":{"bytecode":{"linkReferences":{},"object":"60806040523480156200001157600080fd5b5060405162002753380380620027538339810160408190526200003491620005cf565b6040518060600160405280602b815260200162002728602b91396200005981620001d0565b506200006533620001e2565b6004620000738282620006fc565b50620000993360006001604051806020016040528060008152506200023460201b60201c565b620000bf336001611388604051806020016040528060008152506200023460201b60201c565b620000e5336002614e20604051806020016040528060008152506200023460201b60201c565b6200010b33600361c350604051806020016040528060008152506200023460201b60201c565b6200013233600462013880604051806020016040528060008152506200023460201b60201c565b620001583360056107d0604051806020016040528060008152506200023460201b60201c565b6200017e336006617530604051806020016040528060008152506200023460201b60201c565b620001a4336007610bb8604051806020016040528060008152506200023460201b60201c565b620001c9336008600a604051806020016040528060008152506200023460201b60201c565b506200096f565b6002620001de8282620006fc565b5050565b600380546001600160a01b038381166001600160a01b0319831681179093556040519116919082907f8be0079c531659141344cd1fd0a4f28419497f9722a3daafe3b4186f6b6457e090600090a35050565b6001600160a01b0384166200029a5760405162461bcd60e51b815260206004820152602160248201527f455243313135353a206d696e7420746f20746865207a65726f206164647265736044820152607360f81b60648201526084015b60405180910390fd5b336000620002a88562000356565b90506000620002b78562000356565b90506000868152602081815260408083206001600160a01b038b16845290915281208054879290620002eb908490620007c8565b909155505060408051878152602081018790526001600160a01b03808a1692600092918716917fc3d58168c5ae7397731d063d5bbf3d657854427343f4c083240f7aacaa2d0f62910160405180910390a46200034d83600089898989620003ac565b50505050505050565b60408051600180825281830190925260609160009190602080830190803683370190505090508281600081518110620003935762000393620007f0565b602090810291909101015292915050565b505050505050565b6001600160a01b0384163b15620003a45760405163f23a6e6160e01b81526001600160a01b0385169063f23a6e6190620003f3908990899088908890889060040162000834565b6020604051808303816000875af192505050801562000431575060408051601f3d908101601f191682019092526200042e918101906200087b565b60015b620004f15762000440620008ae565b806308c379a00362000480575062000457620008cb565b8062000464575062000482565b8060405162461bcd60e51b81526004016200029191906200095a565b505b60405162461bcd60e51b815260206004820152603460248201527f455243313135353a207472616e7366657220746f206e6f6e2d4552433131353560448201527f526563656976657220696d706c656d656e746572000000000000000000000000606482015260840162000291565b6001600160e01b0319811663f23a6e6160e01b146200034d5760405162461bcd60e51b815260206004820152602860248201527f455243313135353a204552433131353552656365697665722072656a656374656044820152676420746f6b656e7360c01b606482015260840162000291565b634e487b7160e01b600052604160045260246000fd5b601f8201601f191681016001600160401b0381118282101715620005a257620005a262000564565b6040525050565b60005b83811015620005c6578181015183820152602001620005ac565b50506000910152565b600060208284031215620005e257600080fd5b81516001600160401b0380821115620005fa57600080fd5b818401915084601f8301126200060f57600080fd5b81518181111562000624576200062462000564565b60405191506200063f601f8201601f1916602001836200057a565b8082528560208285010111156200065557600080fd5b62000668816020840160208601620005a9565b50949350505050565b600181811c908216806200068657607f821691505b602082108103620006a757634e487b7160e01b600052602260045260246000fd5b50919050565b601f821115620006f757600081815260208120601f850160051c81016020861015620006d65750805b601f850160051c820191505b81811015620003a457828155600101620006e2565b505050565b81516001600160401b0381111562000718576200071862000564565b620007308162000729845462000671565b84620006ad565b602080601f8311600181146200076857600084156200074f5750858301515b600019600386901b1c1916600185901b178555620003a4565b600085815260208120601f198616915b82811015620007995788860151825594840194600190910190840162000778565b5085821015620007b85787850151600019600388901b60f8161c191681555b5050505050600190811b01905550565b80820180821115620007ea57634e487b7160e01b600052601160045260246000fd5b92915050565b634e487b7160e01b600052603260045260246000fd5b6000815180845262000820816020860160208601620005a9565b601f01601f19169290920160200192915050565b6001600160a01b03868116825285166020820152604081018490526060810183905260a060808201819052600090620008709083018462000806565b979650505050505050565b6000602082840312156200088e57600080fd5b81516001600160e01b031981168114620008a757600080fd5b9392505050565b600060033d1115620008c85760046000803e5060005160e01c5b90565b600060443d1015620008da5790565b6040516003193d81016004833e81513d6001600160401b0380831160248401831017156200090a57505050505090565b8285019150815181811115620009235750505050505090565b843d87010160208285010111156200093e5750505050505090565b6200094f602082860101876200057a565b509095945050505050565b602081526000620008a7602083018462000806565b611da9806200097f6000396000f3fe608060405234801561001057600080fd5b50600436106101a85760003560e01c80635db2a645116100f9578063ac51da1411610097578063e985e9c511610071578063e985e9c514610354578063f242432a14610390578063f2fde38b146103a3578063f8f39e30146103b657600080fd5b8063ac51da1414610331578063d81d0a1514610339578063e5326ab11461034c57600080fd5b8063715018a6116100d3578063715018a6146102fd5780637285e2f7146103055780638da5cb5b1461030d578063a22cb4651461031e57600080fd5b80635db2a645146102ac5780636352211e146102b45780636d25c620146102f557600080fd5b8063156e29f6116101665780632eb2c2d6116101405780632eb2c2d6146102695780634e1273f41461027c57806350aec5671461029c57806357959809146102a457600080fd5b8063156e29f61461024657806319387d3714610259578063236775fc1461026157600080fd5b8062fdd58e146101ad57806301ffc9a7146101d357806302fe5305146101f65780630e672f7c1461020b5780630e89341c1461021357806313cdd29d14610233575b600080fd5b6101c06101bb3660046111fc565b6103c9565b6040519081526020015b60405180910390f35b6101e66101e136600461123c565b610462565b60405190151581526020016101ca565b610209610204366004611301565b6104b2565b005b6101c0600181565b610226610221366004611352565b6104c6565b6040516101ca91906113b1565b610209610241366004611459565b61055a565b6102096102543660046114de565b61057c565b6101c0600781565b6101c0600481565b610209610277366004611531565b6105ce565b61028f61028a3660046115db565b61061a565b6040516101ca91906116e1565b6101c0600881565b6101c0600081565b6101c0600381565b6102dd6102c2366004611352565b6000908152600560205260409020546001600160a01b031690565b6040516001600160a01b0390911681526020016101ca565b6101c0600681565b610209610744565b6101c0600581565b6003546001600160a01b03166102dd565b61020961032c3660046116f4565b610758565b6101c0600281565b610209610347366004611730565b610767565b61022661078f565b6101e66103623660046117a4565b6001600160a01b03918216600090815260016020908152604080832093909416825291909152205460ff1690565b61020961039e3660046117d7565b61081d565b6102096103b136600461183c565b610862565b6102096103c4366004611857565b6108d8565b60006001600160a01b0383166104395760405162461bcd60e51b815260206004820152602a60248201527f455243313135353a2061646472657373207a65726f206973206e6f742061207660448201526930b634b21037bbb732b960b11b60648201526084015b60405180910390fd5b506000818152602081815260408083206001600160a01b03861684529091529020545b92915050565b60006001600160e01b03198216636cdb3d1360e11b148061049357506001600160e01b031982166303a24d0760e21b145b8061045c57506301ffc9a760e01b6001600160e01b031983161461045c565b6104ba6108fc565b6104c381610956565b50565b6060600280546104d590611899565b80601f016020809104026020016040519081016040528092919081815260200182805461050190611899565b801561054e5780601f106105235761010080835404028352916020019161054e565b820191906000526020600020905b81548152906001019060200180831161053157829003601f168201915b50505050509050919050565b61057684848484604051806020016040528060008152506105ce565b50505050565b6105846108fc565b61059f83838360405180602001604052806000815250610962565b50600090815260056020526040902080546001600160a01b0319166001600160a01b0392909216919091179055565b6001600160a01b0385163314806105ea57506105ea8533610362565b6106065760405162461bcd60e51b8152600401610430906118d3565b6106138585858585610a3c565b5050505050565b6060815183511461067f5760405162461bcd60e51b815260206004820152602960248201527f455243313135353a206163636f756e747320616e6420696473206c656e677468604482015268040dad2e6dac2e8c6d60bb1b6064820152608401610430565b6000835167ffffffffffffffff81111561069b5761069b611260565b6040519080825280602002602001820160405280156106c4578160200160208202803683370190505b50905060005b845181101561073c5761070f8582815181106106e8576106e8611921565b602002602001015185838151811061070257610702611921565b60200260200101516103c9565b82828151811061072157610721611921565b60209081029190910101526107358161194d565b90506106ca565b509392505050565b61074c6108fc565b6107566000610bd8565b565b610763338383610c2a565b5050565b61076f6108fc565b61078a83838360405180602001604052806000815250610d0a565b505050565b6004805461079c90611899565b80601f01602080910402602001604051908101604052809291908181526020018280546107c890611899565b80156108155780601f106107ea57610100808354040283529160200191610815565b820191906000526020600020905b8154815290600101906020018083116107f857829003601f168201915b505050505081565b6001600160a01b03851633148061083957506108398533610362565b6108555760405162461bcd60e51b8152600401610430906118d3565b6106138585858585610e55565b61086a6108fc565b6001600160a01b0381166108cf5760405162461bcd60e51b815260206004820152602660248201527f4f776e61626c653a206e6577206f776e657220697320746865207a65726f206160448201526564647265737360d01b6064820152608401610430565b6104c381610bd8565b6108e06108fc565b610576848484846040518060200160405280600081525061081d565b6003546001600160a01b031633146107565760405162461bcd60e51b815260206004820181905260248201527f4f776e61626c653a2063616c6c6572206973206e6f7420746865206f776e65726044820152606401610430565b600261076382826119ac565b6001600160a01b0384166109885760405162461bcd60e51b815260040161043090611a6c565b33600061099485610f7f565b905060006109a185610f7f565b90506000868152602081815260408083206001600160a01b038b168452909152812080548792906109d3908490611aad565b909155505060408051878152602081018790526001600160a01b03808a1692600092918716917fc3d58168c5ae7397731d063d5bbf3d657854427343f4c083240f7aacaa2d0f62910160405180910390a4610a3383600089898989610fca565b50505050505050565b8151835114610a5d5760405162461bcd60e51b815260040161043090611ac0565b6001600160a01b038416610a835760405162461bcd60e51b815260040161043090611b08565b3360005b8451811015610b6a576000858281518110610aa457610aa4611921565b602002602001015190506000858381518110610ac257610ac2611921565b602090810291909101810151600084815280835260408082206001600160a01b038e168352909352919091205490915081811015610b125760405162461bcd60e51b815260040161043090611b4d565b6000838152602081815260408083206001600160a01b038e8116855292528083208585039055908b16825281208054849290610b4f908490611aad565b9250508190555050505080610b639061194d565b9050610a87565b50846001600160a01b0316866001600160a01b0316826001600160a01b03167f4a39dc06d4c0dbc64b70af90fd698a233a518aa5d07e595d983b8c0526c8f7fb8787604051610bba929190611b97565b60405180910390a4610bd0818787878787611125565b505050505050565b600380546001600160a01b038381166001600160a01b0319831681179093556040519116919082907f8be0079c531659141344cd1fd0a4f28419497f9722a3daafe3b4186f6b6457e090600090a35050565b816001600160a01b0316836001600160a01b031603610c9d5760405162461bcd60e51b815260206004820152602960248201527f455243313135353a2073657474696e6720617070726f76616c20737461747573604482015268103337b91039b2b63360b91b6064820152608401610430565b6001600160a01b03838116600081815260016020908152604080832094871680845294825291829020805460ff191686151590811790915591519182527f17307eab39ab6107e8899845ad3d59bd9653f200f220920489ca2b5937696c31910160405180910390a3505050565b6001600160a01b038416610d305760405162461bcd60e51b815260040161043090611a6c565b8151835114610d515760405162461bcd60e51b815260040161043090611ac0565b3360005b8451811015610ded57838181518110610d7057610d70611921565b6020026020010151600080878481518110610d8d57610d8d611921565b602002602001015181526020019081526020016000206000886001600160a01b03166001600160a01b031681526020019081526020016000206000828254610dd59190611aad565b90915550819050610de58161194d565b915050610d55565b50846001600160a01b031660006001600160a01b0316826001600160a01b03167f4a39dc06d4c0dbc64b70af90fd698a233a518aa5d07e595d983b8c0526c8f7fb8787604051610e3e929190611b97565b60405180910390a461061381600087878787611125565b6001600160a01b038416610e7b5760405162461bcd60e51b815260040161043090611b08565b336000610e8785610f7f565b90506000610e9485610f7f565b90506000868152602081815260408083206001600160a01b038c16845290915290205485811015610ed75760405162461bcd60e51b815260040161043090611b4d565b6000878152602081815260408083206001600160a01b038d8116855292528083208985039055908a16825281208054889290610f14908490611aad565b909155505060408051888152602081018890526001600160a01b03808b16928c821692918816917fc3d58168c5ae7397731d063d5bbf3d657854427343f4c083240f7aacaa2d0f62910160405180910390a4610f74848a8a8a8a8a610fca565b505050505050505050565b60408051600180825281830190925260609160009190602080830190803683370190505090508281600081518110610fb957610fb9611921565b602090810291909101015292915050565b6001600160a01b0384163b15610bd05760405163f23a6e6160e01b81526001600160a01b0385169063f23a6e619061100e9089908990889088908890600401611bc5565b6020604051808303816000875af1925050508015611049575060408051601f3d908101601f1916820190925261104691810190611c0a565b60015b6110f557611055611c27565b806308c379a00361108e5750611069611c43565b806110745750611090565b8060405162461bcd60e51b815260040161043091906113b1565b505b60405162461bcd60e51b815260206004820152603460248201527f455243313135353a207472616e7366657220746f206e6f6e2d455243313135356044820152732932b1b2b4bb32b91034b6b83632b6b2b73a32b960611b6064820152608401610430565b6001600160e01b0319811663f23a6e6160e01b14610a335760405162461bcd60e51b815260040161043090611ccd565b6001600160a01b0384163b15610bd05760405163bc197c8160e01b81526001600160a01b0385169063bc197c81906111699089908990889088908890600401611d15565b6020604051808303816000875af19250505080156111a4575060408051601f3d908101601f191682019092526111a191810190611c0a565b60015b6111b057611055611c27565b6001600160e01b0319811663bc197c8160e01b14610a335760405162461bcd60e51b815260040161043090611ccd565b80356001600160a01b03811681146111f757600080fd5b919050565b6000806040838503121561120f57600080fd5b611218836111e0565b946020939093013593505050565b6001600160e01b0319811681146104c357600080fd5b60006020828403121561124e57600080fd5b813561125981611226565b9392505050565b634e487b7160e01b600052604160045260246000fd5b601f8201601f1916810167ffffffffffffffff8111828210171561129c5761129c611260565b6040525050565b600067ffffffffffffffff8311156112bd576112bd611260565b6040516112d4601f8501601f191660200182611276565b8091508381528484840111156112e957600080fd5b83836020830137600060208583010152509392505050565b60006020828403121561131357600080fd5b813567ffffffffffffffff81111561132a57600080fd5b8201601f8101841361133b57600080fd5b61134a848235602084016112a3565b949350505050565b60006020828403121561136457600080fd5b5035919050565b6000815180845260005b8181101561139157602081850181015186830182015201611375565b506000602082860101526020601f19601f83011685010191505092915050565b602081526000611259602083018461136b565b600067ffffffffffffffff8211156113de576113de611260565b5060051b60200190565b600082601f8301126113f957600080fd5b81356020611406826113c4565b6040516114138282611276565b83815260059390931b850182019282810191508684111561143357600080fd5b8286015b8481101561144e5780358352918301918301611437565b509695505050505050565b6000806000806080858703121561146f57600080fd5b611478856111e0565b9350611486602086016111e0565b9250604085013567ffffffffffffffff808211156114a357600080fd5b6114af888389016113e8565b935060608701359150808211156114c557600080fd5b506114d2878288016113e8565b91505092959194509250565b6000806000606084860312156114f357600080fd5b6114fc846111e0565b95602085013595506040909401359392505050565b600082601f83011261152257600080fd5b611259838335602085016112a3565b600080600080600060a0868803121561154957600080fd5b611552866111e0565b9450611560602087016111e0565b9350604086013567ffffffffffffffff8082111561157d57600080fd5b61158989838a016113e8565b9450606088013591508082111561159f57600080fd5b6115ab89838a016113e8565b935060808801359150808211156115c157600080fd5b506115ce88828901611511565b9150509295509295909350565b600080604083850312156115ee57600080fd5b823567ffffffffffffffff8082111561160657600080fd5b818501915085601f83011261161a57600080fd5b81356020611627826113c4565b6040516116348282611276565b83815260059390931b850182019282810191508984111561165457600080fd5b948201945b838610156116795761166a866111e0565b82529482019490820190611659565b9650508601359250508082111561168f57600080fd5b5061169c858286016113e8565b9150509250929050565b600081518084526020808501945080840160005b838110156116d6578151875295820195908201906001016116ba565b509495945050505050565b60208152600061125960208301846116a6565b6000806040838503121561170757600080fd5b611710836111e0565b91506020830135801515811461172557600080fd5b809150509250929050565b60008060006060848603121561174557600080fd5b61174e846111e0565b9250602084013567ffffffffffffffff8082111561176b57600080fd5b611777878388016113e8565b9350604086013591508082111561178d57600080fd5b5061179a868287016113e8565b9150509250925092565b600080604083850312156117b757600080fd5b6117c0836111e0565b91506117ce602084016111e0565b90509250929050565b600080600080600060a086880312156117ef57600080fd5b6117f8866111e0565b9450611806602087016111e0565b93506040860135925060608601359150608086013567ffffffffffffffff81111561183057600080fd5b6115ce88828901611511565b60006020828403121561184e57600080fd5b611259826111e0565b6000806000806080858703121561186d57600080fd5b611876856111e0565b9350611884602086016111e0565b93969395505050506040820135916060013590565b600181811c908216806118ad57607f821691505b6020821081036118cd57634e487b7160e01b600052602260045260246000fd5b50919050565b6020808252602e908201527f455243313135353a2063616c6c6572206973206e6f7420746f6b656e206f776e60408201526d195c881bdc88185c1c1c9bdd995960921b606082015260800190565b634e487b7160e01b600052603260045260246000fd5b634e487b7160e01b600052601160045260246000fd5b60006001820161195f5761195f611937565b5060010190565b601f82111561078a57600081815260208120601f850160051c8101602086101561198d5750805b601f850160051c820191505b81811015610bd057828155600101611999565b815167ffffffffffffffff8111156119c6576119c6611260565b6119da816119d48454611899565b84611966565b602080601f831160018114611a0f57600084156119f75750858301515b600019600386901b1c1916600185901b178555610bd0565b600085815260208120601f198616915b82811015611a3e57888601518255948401946001909101908401611a1f565b5085821015611a5c5787850151600019600388901b60f8161c191681555b5050505050600190811b01905550565b60208082526021908201527f455243313135353a206d696e7420746f20746865207a65726f206164647265736040820152607360f81b606082015260800190565b8082018082111561045c5761045c611937565b60208082526028908201527f455243313135353a2069647320616e6420616d6f756e7473206c656e677468206040820152670dad2e6dac2e8c6d60c31b606082015260800190565b60208082526025908201527f455243313135353a207472616e7366657220746f20746865207a65726f206164604082015264647265737360d81b606082015260800190565b6020808252602a908201527f455243313135353a20696e73756666696369656e742062616c616e636520666f60408201526939103a3930b739b332b960b11b606082015260800190565b604081526000611baa60408301856116a6565b8281036020840152611bbc81856116a6565b95945050505050565b6001600160a01b03868116825285166020820152604081018490526060810183905260a060808201819052600090611bff9083018461136b565b979650505050505050565b600060208284031215611c1c57600080fd5b815161125981611226565b600060033d1115611c405760046000803e5060005160e01c5b90565b600060443d1015611c515790565b6040516003193d81016004833e81513d67ffffffffffffffff8160248401118184111715611c8157505050505090565b8285019150815181811115611c995750505050505090565b843d8701016020828501011115611cb35750505050505090565b611cc260208286010187611276565b509095945050505050565b60208082526028908201527f455243313135353a204552433131353552656365697665722072656a656374656040820152676420746f6b656e7360c01b606082015260800190565b6001600160a01b0386811682528516602082015260a060408201819052600090611d41908301866116a6565b8281036060840152611d5381866116a6565b90508281036080840152611d67818561136b565b9897505050505050505056fea2646970667358221220a2ac6db3b853862cecb7c0dbbc9e1b9171571cff3bcb196e8711953a3cc54d5d64736f6c6343000815003368747470733a2f2f7765737465726f732e6578616d706c652f6170692f6c616e642f7b69647d2e6a736f6e","opcodes":"PUSH1 0x80 PUSH1 0x40 MSTORE CALLVALUE DUP1 ISZERO PUSH3 0x11 JUMPI PUSH1 0x0 DUP1 REVERT JUMPDEST POP PUSH1 0x40 MLOAD PUSH3 0x2753 CODESIZE SUB DUP1 PUSH3 0x2753 DUP4 CODECOPY DUP2 ADD PUSH1 0x40 DUP2 SWAP1 MSTORE PUSH3 0x34 SWAP2 PUSH3 0x5CF JUMP JUMPDEST PUSH1 0x40 MLOAD DUP1 PUSH1 0x60 ADD PUSH1 0x40 MSTORE DUP1 PUSH1 0x2B DUP2 MSTORE PUSH1 0x20 ADD PUSH3 0x2728 PUSH1 0x2B SWAP2 CODECOPY PUSH3 0x59 DUP2 PUSH3 0x1D0 JUMP JUMPDEST POP PUSH3 0x65 CALLER PUSH3 0x1E2 JUMP JUMPDEST PUSH1 0x4 PUSH3 0x73 DUP3 DUP3 PUSH3 0x6FC JUMP JUMPDEST POP PUSH3 0x99 CALLER PUSH1 0x0 PUSH1 0x1 PUSH1 0x40 MLOAD DUP1 PUSH1 0x20 ADD PUSH1 0x40 MSTORE DUP1 PUSH1 0x0 DUP2 MSTORE POP PUSH3 0x234 PUSH1 0x20 SHL PUSH1 0x20 SHR JUMP JUMPDEST PUSH3 0xBF CALLER PUSH1 0x1 PUSH2 0x1388 PUSH1 0x40 MLOAD DUP1 PUSH1 0x20 ADD PUSH1 0x40 MSTORE DUP1 PUSH1 0x0 DUP2 MSTORE POP PUSH3 0x234 PUSH1 0x20 SHL PUSH1 0x20 SHR JUMP JUMPDEST PUSH3 0xE5 CALLER PUSH1 0x2 PUSH2 0x4E20 PUSH1 0x40 MLOAD DUP1 PUSH1 0x20 ADD PUSH1 0x40 MSTORE DUP1 PUSH1 0x0 DUP2 MSTORE POP PUSH3 0x234 PUSH1 0x20 SHL PUSH1 0x20 SHR JUMP JUMPDEST PUSH3 0x10B CALLER PUSH1 0x3 PUSH2 0xC350 PUSH1 0x40 MLOAD DUP1 PUSH1 0x20 ADD PUSH1 0x40 MSTORE DUP1 PUSH1 0x0 DUP2 MSTORE POP PUSH3 0x234 PUSH1 0x20 SHL PUSH1 0x20 SHR JUMP JUMPDEST PUSH3 0x132 CALLER PUSH1 0x4 PUSH3 0x13880 PUSH1 0x40 MLOAD DUP1 PUSH1 0x20 ADD PUSH1 0x40 MSTORE DUP1 PUSH1 0x0 DUP2 MSTORE POP PUSH3 0x234 PUSH1 0x20 SHL PUSH1 0x20 SHR JUMP JUMPDEST PUSH3 0x158 CALLER PUSH1 0x5 PUSH2 0x7D0 PUSH1 0x40 MLOAD DUP1 PUSH1 0x20 ADD PUSH1 0x40 MSTORE DUP1 PUSH1 0x0 DUP2 MSTORE POP PUSH3 0x234 PUSH1 0x20 SHL PUSH1 0x20 SHR JUMP JUMPDEST PUSH3 0x17E CALLER PUSH1 0x6 PUSH2 0x7530 PUSH1 0x40 MLOAD DUP1 PUSH1 0x20 ADD PUSH1 0x40 MSTORE DUP1 PUSH1 0x0 DUP2 MSTORE POP PUSH3 0x234 PUSH1 0x20 SHL PUSH1 0x20 SHR JUMP JUMPDEST PUSH3 0x1A4 CALLER PUSH1 0x7 PUSH2 0xBB8 PUSH1 0x40 MLOAD DUP1 PUSH1 0x20 ADD PUSH1 0x40 MSTORE DUP1 PUSH1 0x0 DUP2 MSTORE POP PUSH3 0x234 PUSH1 0x20 SHL PUSH1 0x20 SHR JUMP JUMPDEST PUSH3 0x1C9 CALLER PUSH1 0x8 PUSH1 0xA PUSH1 0x40 MLOAD DUP1 PUSH1 0x20 ADD PUSH1 0x40 MSTORE DUP1 PUSH1 0x0 DUP2 MSTORE POP PUSH3 0x234 PUSH1 0x20 SHL PUSH1 0x20 SHR JUMP JUMPDEST POP PUSH3 0x96F JUMP JUMPDEST PUSH1 0x2 PUSH3 0x1DE DUP3 DUP3 PUSH3 0x6FC JUMP JUMPDEST POP POP JUMP JUMPDEST PUSH1 0x3 DUP1 SLOAD PUSH1 0x1 PUSH1 0x1 PUSH1 0xA0 SHL SUB DUP4 DUP2 AND PUSH1 0x1 PUSH1 0x1 PUSH1 0xA0 SHL SUB NOT DUP4 AND DUP2 OR SWAP1 SWAP4 SSTORE PUSH1 0x40 MLOAD SWAP2 AND SWAP2 SWAP1 DUP3 SWAP1 PUSH32 0x8BE0079C531659141344CD1FD0A4F28419497F9722A3DAAFE3B4186F6B6457E0 SWAP1 PUSH1 0x0 SWAP1 LOG3 POP POP JUMP JUMPDEST PUSH1 0x1 PUSH1 0x1 PUSH1 0xA0 SHL SUB DUP5 AND PUSH3 0x29A JUMPI PUSH1 0x40 MLOAD PUSH3 0x461BCD PUSH1 0xE5 SHL DUP2 MSTORE PUSH1 0x20 PUSH1 0x4 DUP3 ADD MSTORE PUSH1 0x21 PUSH1 0x24 DUP3 ADD MSTORE PUSH32 0x455243313135353A206D696E7420746F20746865207A65726F20616464726573 PUSH1 0x44 DUP3 ADD MSTORE PUSH1 0x73 PUSH1 0xF8 SHL PUSH1 0x64 DUP3 ADD MSTORE PUSH1 0x84 ADD JUMPDEST PUSH1 0x40 MLOAD DUP1 SWAP2 SUB SWAP1 REVERT JUMPDEST CALLER PUSH1 0x0 PUSH3 0x2A8 DUP6 PUSH3 0x356 JUMP JUMPDEST SWAP1 POP PUSH1 0x0 PUSH3 0x2B7 DUP6 PUSH3 0x356 JUMP JUMPDEST SWAP1 POP PUSH1 0x0 DUP7 DUP2 MSTORE PUSH1 0x20 DUP2 DUP2 MSTORE PUSH1 0x40 DUP1 DUP4 KECCAK256 PUSH1 0x1 PUSH1 0x1 PUSH1 0xA0 SHL SUB DUP12 AND DUP5 MSTORE SWAP1 SWAP2 MSTORE DUP2 KECCAK256 DUP1 SLOAD DUP8 SWAP3 SWAP1 PUSH3 0x2EB SWAP1 DUP5 SWAP1 PUSH3 0x7C8 JUMP JUMPDEST SWAP1 SWAP2 SSTORE POP POP PUSH1 0x40 DUP1 MLOAD DUP8 DUP2 MSTORE PUSH1 0x20 DUP2 ADD DUP8 SWAP1 MSTORE PUSH1 0x1 PUSH1 0x1 PUSH1 0xA0 SHL SUB DUP1 DUP11 AND SWAP3 PUSH1 0x0 SWAP3 SWAP2 DUP8 AND SWAP2 PUSH32 0xC3D58168C5AE7397731D063D5BBF3D657854427343F4C083240F7AACAA2D0F62 SWAP2 ADD PUSH1 0x40 MLOAD DUP1 SWAP2 SUB SWAP1 LOG4 PUSH3 0x34D DUP4 PUSH1 0x0 DUP10 DUP10 DUP10 DUP10 PUSH3 0x3AC JUMP JUMPDEST POP POP POP POP POP POP POP JUMP JUMPDEST PUSH1 0x40 DUP1 MLOAD PUSH1 0x1 DUP1 DUP3 MSTORE DUP2 DUP4 ADD SWAP1 SWAP3 MSTORE PUSH1 0x60 SWAP2 PUSH1 0x0 SWAP2 SWAP1 PUSH1 0x20 DUP1 DUP4 ADD SWAP1 DUP1 CALLDATASIZE DUP4 CALLDATACOPY ADD SWAP1 POP POP SWAP1 POP DUP3 DUP2 PUSH1 0x0 DUP2 MLOAD DUP2 LT PUSH3 0x393 JUMPI PUSH3 0x393 PUSH3 0x7F0 JUMP JUMPDEST PUSH1 0x20 SWAP1 DUP2 MUL SWAP2 SWAP1 SWAP2 ADD ADD MSTORE SWAP3 SWAP2 POP POP JUMP JUMPDEST POP POP POP POP POP POP JUMP JUMPDEST PUSH1 0x1 PUSH1 0x1 PUSH1 0xA0 SHL SUB DUP5 AND EXTCODESIZE ISZERO PUSH3 0x3A4 JUMPI PUSH1 0x40 MLOAD PUSH4 0xF23A6E61 PUSH1 0xE0 SHL DUP2 MSTORE PUSH1 0x1 PUSH1 0x1 PUSH1 0xA0 SHL SUB DUP6 AND SWAP1 PUSH4 0xF23A6E61 SWAP1 PUSH3 0x3F3 SWAP1 DUP10 SWAP1 DUP10 SWAP1 DUP9 SWAP1 DUP9 SWAP1 DUP9 SWAP1 PUSH1 0x4 ADD PUSH3 0x834 JUMP JUMPDEST PUSH1 0x20 PUSH1 0x40 MLOAD DUP1 DUP4 SUB DUP2 PUSH1 0x0 DUP8 GAS CALL SWAP3 POP POP POP DUP1 ISZERO PUSH3 0x431 JUMPI POP PUSH1 0x40 DUP1 MLOAD PUSH1 0x1F RETURNDATASIZE SWAP1 DUP2 ADD PUSH1 0x1F NOT AND DUP3 ADD SWAP1 SWAP3 MSTORE PUSH3 0x42E SWAP2 DUP2 ADD SWAP1 PUSH3 0x87B JUMP JUMPDEST PUSH1 0x1 JUMPDEST PUSH3 0x4F1 JUMPI PUSH3 0x440 PUSH3 0x8AE JUMP JUMPDEST DUP1 PUSH4 0x8C379A0 SUB PUSH3 0x480 JUMPI POP PUSH3 0x457 PUSH3 0x8CB JUMP JUMPDEST DUP1 PUSH3 0x464 JUMPI POP PUSH3 0x482 JUMP JUMPDEST DUP1 PUSH1 0x40 MLOAD PUSH3 0x461BCD PUSH1 0xE5 SHL DUP2 MSTORE PUSH1 0x4 ADD PUSH3 0x291 SWAP2 SWAP1 PUSH3 0x95A JUMP JUMPDEST POP JUMPDEST PUSH1 0x40 MLOAD PUSH3 0x461BCD PUSH1 0xE5 SHL DUP2 MSTORE PUSH1 0x20 PUSH1 0x4 DUP3 ADD MSTORE PUSH1 0x34 PUSH1 0x24 DUP3 ADD MSTORE PUSH32 0x455243313135353A207472616E7366657220746F206E6F6E2D45524331313535 PUSH1 0x44 DUP3 ADD MSTORE PUSH32 0x526563656976657220696D706C656D656E746572000000000000000000000000 PUSH1 0x64 DUP3 ADD MSTORE PUSH1 0x84 ADD PUSH3 0x291 JUMP JUMPDEST PUSH1 0x1 PUSH1 0x1 PUSH1 0xE0 SHL SUB NOT DUP2 AND PUSH4 0xF23A6E61 PUSH1 0xE0 SHL EQ PUSH3 0x34D JUMPI PUSH1 0x40 MLOAD PUSH3 0x461BCD PUSH1 0xE5 SHL DUP2 MSTORE PUSH1 0x20 PUSH1 0x4 DUP3 ADD MSTORE PUSH1 0x28 PUSH1 0x24 DUP3 ADD MSTORE PUSH32 0x455243313135353A204552433131353552656365697665722072656A65637465 PUSH1 0x44 DUP3 ADD MSTORE PUSH8 0x6420746F6B656E73 PUSH1 0xC0 SHL PUSH1 0x64 DUP3 ADD MSTORE PUSH1 0x84 ADD PUSH3 0x291 JUMP JUMPDEST PUSH4 0x4E487B71 PUSH1 0xE0 SHL PUSH1 0x0 MSTORE PUSH1 0x41 PUSH1 0x4 MSTORE PUSH1 0x24 PUSH1 0x0 REVERT JUMPDEST PUSH1 0x1F DUP3 ADD PUSH1 0x1F NOT AND DUP2 ADD PUSH1 0x1 PUSH1 0x1 PUSH1 0x40 SHL SUB DUP2 GT DUP3 DUP3 LT OR ISZERO PUSH3 0x5A2 JUMPI PUSH3 0x5A2 PUSH3 0x564 JUMP JUMPDEST PUSH1 0x40 MSTORE POP POP JUMP JUMPDEST PUSH1 0x0 JUMPDEST DUP4 DUP2 LT ISZERO PUSH3 0x5C6 JUMPI DUP2 DUP2 ADD MLOAD DUP4 DUP3 ADD MSTORE PUSH1 0x20 ADD PUSH3 0x5AC JUMP JUMPDEST POP POP PUSH1 0x0 SWAP2 ADD MSTORE JUMP JUMPDEST PUSH1 0x0 PUSH1 0x20 DUP3 DUP5 SUB SLT ISZERO PUSH3 0x5E2 JUMPI PUSH1 0x0 DUP1 REVERT JUMPDEST DUP2 MLOAD PUSH1 0x1 PUSH1 0x1 PUSH1 0x40 SHL SUB DUP1 DUP3 GT ISZERO PUSH3 0x5FA JUMPI PUSH1 0x0 DUP1 REVERT JUMPDEST DUP2 DUP5 ADD SWAP2 POP DUP5 PUSH1 0x1F DUP4 ADD SLT PUSH3 0x60F JUMPI PUSH1 0x0 DUP1 REVERT JUMPDEST DUP2 MLOAD DUP2 DUP2 GT ISZERO PUSH3 0x624 JUMPI PUSH3 0x624 PUSH3 0x564 JUMP JUMPDEST PUSH1 0x40 MLOAD SWAP2 POP PUSH3 0x63F PUSH1 0x1F DUP3 ADD PUSH1 0x1F NOT AND PUSH1 0x20 ADD DUP4 PUSH3 0x57A JUMP JUMPDEST DUP1 DUP3 MSTORE DUP6 PUSH1 0x20 DUP3 DUP6 ADD ADD GT ISZERO PUSH3 0x655 JUMPI PUSH1 0x0 DUP1 REVERT JUMPDEST PUSH3 0x668 DUP2 PUSH1 0x20 DUP5 ADD PUSH1 0x20 DUP7 ADD PUSH3 0x5A9 JUMP JUMPDEST POP SWAP5 SWAP4 POP POP POP POP JUMP JUMPDEST PUSH1 0x1 DUP2 DUP2 SHR SWAP1 DUP3 AND DUP1 PUSH3 0x686 JUMPI PUSH1 0x7F DUP3 AND SWAP2 POP JUMPDEST PUSH1 0x20 DUP3 LT DUP2 SUB PUSH3 0x6A7 JUMPI PUSH4 0x4E487B71 PUSH1 0xE0 SHL PUSH1 0x0 MSTORE PUSH1 0x22 PUSH1 0x4 MSTORE PUSH1 0x24 PUSH1 0x0 REVERT JUMPDEST POP SWAP2 SWAP1 POP JUMP JUMPDEST PUSH1 0x1F DUP3 GT ISZERO PUSH3 0x6F7 JUMPI PUSH1 0x0 DUP2 DUP2 MSTORE PUSH1 0x20 DUP2 KECCAK256 PUSH1 0x1F DUP6 ADD PUSH1 0x5 SHR DUP2 ADD PUSH1 0x20 DUP7 LT ISZERO PUSH3 0x6D6 JUMPI POP DUP1 JUMPDEST PUSH1 0x1F DUP6 ADD PUSH1 0x5 SHR DUP3 ADD SWAP2 POP JUMPDEST DUP2 DUP2 LT ISZERO PUSH3 0x3A4 JUMPI DUP3 DUP2 SSTORE PUSH1 0x1 ADD PUSH3 0x6E2 JUMP JUMPDEST POP POP POP JUMP JUMPDEST DUP2 MLOAD PUSH1 0x1 PUSH1 0x1 PUSH1 0x40 SHL SUB DUP2 GT ISZERO PUSH3 0x718 JUMPI PUSH3 0x718 PUSH3 0x564 JUMP JUMPDEST PUSH3 0x730 DUP2 PUSH3 0x729 DUP5 SLOAD PUSH3 0x671 JUMP JUMPDEST DUP5 PUSH3 0x6AD JUMP JUMPDEST PUSH1 0x20 DUP1 PUSH1 0x1F DUP4 GT PUSH1 0x1 DUP2 EQ PUSH3 0x768 JUMPI PUSH1 0x0 DUP5 ISZERO PUSH3 0x74F JUMPI POP DUP6 DUP4 ADD MLOAD JUMPDEST PUSH1 0x0 NOT PUSH1 0x3 DUP7 SWAP1 SHL SHR NOT AND PUSH1 0x1 DUP6 SWAP1 SHL OR DUP6 SSTORE PUSH3 0x3A4 JUMP JUMPDEST PUSH1 0x0 DUP6 DUP2 MSTORE PUSH1 0x20 DUP2 KECCAK256 PUSH1 0x1F NOT DUP7 AND SWAP2 JUMPDEST DUP3 DUP2 LT ISZERO PUSH3 0x799 JUMPI DUP9 DUP7 ADD MLOAD DUP3 SSTORE SWAP5 DUP5 ADD SWAP5 PUSH1 0x1 SWAP1 SWAP2 ADD SWAP1 DUP5 ADD PUSH3 0x778 JUMP JUMPDEST POP DUP6 DUP3 LT ISZERO PUSH3 0x7B8 JUMPI DUP8 DUP6 ADD MLOAD PUSH1 0x0 NOT PUSH1 0x3 DUP9 SWAP1 SHL PUSH1 0xF8 AND SHR NOT AND DUP2 SSTORE JUMPDEST POP POP POP POP POP PUSH1 0x1 SWAP1 DUP2 SHL ADD SWAP1 SSTORE POP JUMP JUMPDEST DUP1 DUP3 ADD DUP1 DUP3 GT ISZERO PUSH3 0x7EA JUMPI PUSH4 0x4E487B71 PUSH1 0xE0 SHL PUSH1 0x0 MSTORE PUSH1 0x11 PUSH1 0x4 MSTORE PUSH1 0x24 PUSH1 0x0 REVERT JUMPDEST SWAP3 SWAP2 POP POP JUMP JUMPDEST PUSH4 0x4E487B71 PUSH1 0xE0 SHL PUSH1 0x0 MSTORE PUSH1 0x32 PUSH1 0x4 MSTORE PUSH1 0x24 PUSH1 0x0 REVERT JUMPDEST PUSH1 0x0 DUP2 MLOAD DUP1 DUP5 MSTORE PUSH3 0x820 DUP2 PUSH1 0x20 DUP7 ADD PUSH1 0x20 DUP7 ADD PUSH3 0x5A9 JUMP JUMPDEST PUSH1 0x1F ADD PUSH1 0x1F NOT AND SWAP3 SWAP1 SWAP3 ADD PUSH1 0x20 ADD SWAP3 SWAP2 POP POP JUMP JUMPDEST PUSH1 0x1 PUSH1 0x1 PUSH1 0xA0 SHL SUB DUP7 DUP2 AND DUP3 MSTORE DUP6 AND PUSH1 0x20 DUP3 ADD MSTORE PUSH1 0x40 DUP2 ADD DUP5 SWAP1 MSTORE PUSH1 0x60 DUP2 ADD DUP4 SWAP1 MSTORE PUSH1 0xA0 PUSH1 0x80 DUP3 ADD DUP2 SWAP1 MSTORE PUSH1 0x0 SWAP1 PUSH3 0x870 SWAP1 DUP4 ADD DUP5 PUSH3 0x806 JUMP JUMPDEST SWAP8 SWAP7 POP POP POP POP POP POP POP JUMP JUMPDEST PUSH1 0x0 PUSH1 0x20 DUP3 DUP5 SUB SLT ISZERO PUSH3 0x88E JUMPI PUSH1 0x0 DUP1 REVERT JUMPDEST DUP2 MLOAD PUSH1 0x1 PUSH1 0x1 PUSH1 0xE0 SHL SUB NOT DUP2 AND DUP2 EQ PUSH3 0x8A7 JUMPI PUSH1 0x0 DUP1 REVERT JUMPDEST SWAP4 SWAP3 POP POP POP JUMP JUMPDEST PUSH1 0x0 PUSH1 0x3 RETURNDATASIZE GT ISZERO PUSH3 0x8C8 JUMPI PUSH1 0x4 PUSH1 0x0 DUP1 RETURNDATACOPY POP PUSH1 0x0 MLOAD PUSH1 0xE0 SHR JUMPDEST SWAP1 JUMP JUMPDEST PUSH1 0x0 PUSH1 0x44 RETURNDATASIZE LT ISZERO PUSH3 0x8DA JUMPI SWAP1 JUMP JUMPDEST PUSH1 0x40 MLOAD PUSH1 0x3 NOT RETURNDATASIZE DUP2 ADD PUSH1 0x4 DUP4 RETURNDATACOPY DUP2 MLOAD RETURNDATASIZE PUSH1 0x1 PUSH1 0x1 PUSH1 0x40 SHL SUB DUP1 DUP4 GT PUSH1 0x24 DUP5 ADD DUP4 LT OR ISZERO PUSH3 0x90A JUMPI POP POP POP POP POP SWAP1 JUMP JUMPDEST DUP3 DUP6 ADD SWAP2 POP DUP2 MLOAD DUP2 DUP2 GT ISZERO PUSH3 0x923 JUMPI POP POP POP POP POP POP SWAP1 JUMP JUMPDEST DUP5 RETURNDATASIZE DUP8 ADD ADD PUSH1 0x20 DUP3 DUP6 ADD ADD GT ISZERO PUSH3 0x93E JUMPI POP POP POP POP POP POP SWAP1 JUMP JUMPDEST PUSH3 0x94F PUSH1 0x20 DUP3 DUP7 ADD ADD DUP8 PUSH3 0x57A JUMP JUMPDEST POP SWAP1 SWAP6 SWAP5 POP POP POP POP POP JUMP JUMPDEST PUSH1 0x20 DUP2 MSTORE PUSH1 0x0 PUSH3 0x8A7 PUSH1 0x20 DUP4 ADD DUP5 PUSH3 0x806 JUMP JUMPDEST PUSH2 0x1DA9 DUP1 PUSH3 0x97F PUSH1 0x0 CODECOPY PUSH1 0x0 RETURN INVALID PUSH1 0x80 PUSH1 0x40 MSTORE CALLVALUE DUP1 ISZERO PUSH2 0x10 JUMPI PUSH1 0x0 DUP1 REVERT JUMPDEST POP PUSH1 0x4 CALLDATASIZE LT PUSH2 0x1A8 JUMPI PUSH1 0x0 CALLDATALOAD PUSH1 0xE0 SHR DUP1 PUSH4 0x5DB2A645 GT PUSH2 0xF9 JUMPI DUP1 PUSH4 0xAC51DA14 GT PUSH2 0x97 JUMPI DUP1 PUSH4 0xE985E9C5 GT PUSH2 0x71 JUMPI DUP1 PUSH4 0xE985E9C5 EQ PUSH2 0x354 JUMPI DUP1 PUSH4 0xF242432A EQ PUSH2 0x390 JUMPI DUP1 PUSH4 0xF2FDE38B EQ PUSH2 0x3A3 JUMPI DUP1 PUSH4 0xF8F39E30 EQ PUSH2 0x3B6 JUMPI PUSH1 0x0 DUP1 REVERT JUMPDEST DUP1 PUSH4 0xAC51DA14 EQ PUSH2 0x331 JUMPI DUP1 PUSH4 0xD81D0A15 EQ PUSH2 0x339 JUMPI DUP1 PUSH4 0xE5326AB1 EQ PUSH2 0x34C JUMPI PUSH1 0x0 DUP1 REVERT JUMPDEST DUP1 PUSH4 0x715018A6 GT PUSH2 0xD3 JUMPI DUP1 PUSH4 0x715018A6 EQ PUSH2 0x2FD JUMPI DUP1 PUSH4 0x7285E2F7 EQ PUSH2 0x305 JUMPI DUP1 PUSH4 0x8DA5CB5B EQ PUSH2 0x30D JUMPI DUP1 PUSH4 0xA22CB465 EQ PUSH2 0x31E JUMPI PUSH1 0x0 DUP1 REVERT JUMPDEST DUP1 PUSH4 0x5DB2A645 EQ PUSH2 0x2AC JUMPI DUP1 PUSH4 0x6352211E EQ PUSH2 0x2B4 JUMPI DUP1 PUSH4 0x6D25C620 EQ PUSH2 0x2F5 JUMPI PUSH1 0x0 DUP1 REVERT JUMPDEST DUP1 PUSH4 0x156E29F6 GT PUSH2 0x166 JUMPI DUP1 PUSH4 0x2EB2C2D6 GT PUSH2 0x140 JUMPI DUP1 PUSH4 0x2EB2C2D6 EQ PUSH2 0x269 JUMPI DUP1 PUSH4 0x4E1273F4 EQ PUSH2 0x27C JUMPI DUP1 PUSH4 0x50AEC567 EQ PUSH2 0x29C JUMPI DUP1 PUSH4 0x57959809 EQ PUSH2 0x2A4 JUMPI PUSH1 0x0 DUP1 REVERT JUMPDEST DUP1 PUSH4 0x156E29F6 EQ PUSH2 0x246 JUMPI DUP1 PUSH4 0x19387D37 EQ PUSH2 0x259 JUMPI DUP1 PUSH4 0x236775FC EQ PUSH2 0x261 JUMPI PUSH1 0x0 DUP1 REVERT JUMPDEST DUP1 PUSH3 0xFDD58E EQ PUSH2 0x1AD JUMPI DUP1 PUSH4 0x1FFC9A7 EQ PUSH2 0x1D3 JUMPI DUP1 PUSH4 0x2FE5305 EQ PUSH2 0x1F6 JUMPI DUP1 PUSH4 0xE672F7C EQ PUSH2 0x20B JUMPI DUP1 PUSH4 0xE89341C EQ PUSH2 0x213 JUMPI DUP1 PUSH4 0x13CDD29D EQ PUSH2 0x233 JUMPI JUMPDEST PUSH1 0x0 DUP1 REVERT JUMPDEST PUSH2 0x1C0 PUSH2 0x1BB CALLDATASIZE PUSH1 0x4 PUSH2 0x11FC JUMP JUMPDEST PUSH2 0x3C9 JUMP JUMPDEST PUSH1 0x40 MLOAD SWAP1 DUP2 MSTORE PUSH1 0x20 ADD JUMPDEST PUSH1 0x40 MLOAD DUP1 SWAP2 SUB SWAP1 RETURN JUMPDEST PUSH2 0x1E6 PUSH2 0x1E1 CALLDATASIZE PUSH1 0x4 PUSH2 0x123C JUMP JUMPDEST PUSH2 0x462 JUMP JUMPDEST PUSH1 0x40 MLOAD SWAP1 ISZERO ISZERO DUP2 MSTORE PUSH1 0x20 ADD PUSH2 0x1CA JUMP JUMPDEST PUSH2 0x209 PUSH2 0x204 CALLDATASIZE PUSH1 0x4 PUSH2 0x1301 JUMP JUMPDEST PUSH2 0x4B2 JUMP JUMPDEST STOP JUMPDEST PUSH2 0x1C0 PUSH1 0x1 DUP2 JUMP JUMPDEST PUSH2 0x226 PUSH2 0x221 CALLDATASIZE PUSH1 0x4 PUSH2 0x1352 JUMP JUMPDEST PUSH2 0x4C6 JUMP JUMPDEST PUSH1 0x40 MLOAD PUSH2 0x1CA SWAP2 SWAP1 PUSH2 0x13B1 JUMP JUMPDEST PUSH2 0x209 PUSH2 0x241 CALLDATASIZE PUSH1 0x4 PUSH2 0x1459 JUMP JUMPDEST PUSH2 0x55A JUMP JUMPDEST PUSH2 0x209 PUSH2 0x254 CALLDATASIZE PUSH1 0x4 PUSH2 0x14DE JUMP JUMPDEST PUSH2 0x57C JUMP JUMPDEST PUSH2 0x1C0 PUSH1 0x7 DUP2 JUMP JUMPDEST PUSH2 0x1C0 PUSH1 0x4 DUP2 JUMP JUMPDEST PUSH2 0x209 PUSH2 0x277 CALLDATASIZE PUSH1 0x4 PUSH2 0x1531 JUMP JUMPDEST PUSH2 0x5CE JUMP JUMPDEST PUSH2 0x28F PUSH2 0x28A CALLDATASIZE PUSH1 0x4 PUSH2 0x15DB JUMP JUMPDEST PUSH2 0x61A JUMP JUMPDEST PUSH1 0x40 MLOAD PUSH2 0x1CA SWAP2 SWAP1 PUSH2 0x16E1 JUMP JUMPDEST PUSH2 0x1C0 PUSH1 0x8 DUP2 JUMP JUMPDEST PUSH2 0x1C0 PUSH1 0x0 DUP2 JUMP JUMPDEST PUSH2 0x1C0 PUSH1 0x3 DUP2 JUMP JUMPDEST PUSH2 0x2DD PUSH2 0x2C2 CALLDATASIZE PUSH1 0x4 PUSH2 0x1352 JUMP JUMPDEST PUSH1 0x0 SWAP1 DUP2 MSTORE PUSH1 0x5 PUSH1 0x20 MSTORE PUSH1 0x40 SWAP1 KECCAK256 SLOAD PUSH1 0x1 PUSH1 0x1 PUSH1 0xA0 SHL SUB AND SWAP1 JUMP JUMPDEST PUSH1 0x40 MLOAD PUSH1 0x1 PUSH1 0x1 PUSH1 0xA0 SHL SUB SWAP1 SWAP2 AND DUP2 MSTORE PUSH1 0x20 ADD PUSH2 0x1CA JUMP JUMPDEST PUSH2 0x1C0 PUSH1 0x6 DUP2 JUMP JUMPDEST PUSH2 0x209 PUSH2 0x744 JUMP JUMPDEST PUSH2 0x1C0 PUSH1 0x5 DUP2 JUMP JUMPDEST PUSH1 0x3 SLOAD PUSH1 0x1 PUSH1 0x1 PUSH1 0xA0 SHL SUB AND PUSH2 0x2DD JUMP JUMPDEST PUSH2 0x209 PUSH2 0x32C CALLDATASIZE PUSH1 0x4 PUSH2 0x16F4 JUMP JUMPDEST PUSH2 0x758 JUMP JUMPDEST PUSH2 0x1C0 PUSH1 0x2 DUP2 JUMP JUMPDEST PUSH2 0x209 PUSH2 0x347 CALLDATASIZE PUSH1 0x4 PUSH2 0x1730 JUMP JUMPDEST PUSH2 0x767 JUMP JUMPDEST PUSH2 0x226 PUSH2 0x78F JUMP JUMPDEST PUSH2 0x1E6 PUSH2 0x362 CALLDATASIZE PUSH1 0x4 PUSH2 0x17A4 JUMP JUMPDEST PUSH1 0x1 PUSH1 0x1 PUSH1 0xA0 SHL SUB SWAP2 DUP3 AND PUSH1 0x0 SWAP1 DUP2 MSTORE PUSH1 0x1 PUSH1 0x20 SWAP1 DUP2 MSTORE PUSH1 0x40 DUP1 DUP4 KECCAK256 SWAP4 SWAP1 SWAP5 AND DUP3 MSTORE SWAP2 SWAP1 SWAP2 MSTORE KECCAK256 SLOAD PUSH1 0xFF AND SWAP1 JUMP JUMPDEST PUSH2 0x209 PUSH2 0x39E CALLDATASIZE PUSH1 0x4 PUSH2 0x17D7 JUMP JUMPDEST PUSH2 0x81D JUMP JUMPDEST PUSH2 0x209 PUSH2 0x3B1 CALLDATASIZE PUSH1 0x4 PUSH2 0x183C JUMP JUMPDEST PUSH2 0x862 JUMP JUMPDEST PUSH2 0x209 PUSH2 0x3C4 CALLDATASIZE PUSH1 0x4 PUSH2 0x1857 JUMP JUMPDEST PUSH2 0x8D8 JUMP JUMPDEST PUSH1 0x0 PUSH1 0x1 PUSH1 0x1 PUSH1 0xA0 SHL SUB DUP4 AND PUSH2 0x439 JUMPI PUSH1 0x40 MLOAD PUSH3 0x461BCD PUSH1 0xE5 SHL DUP2 MSTORE PUSH1 0x20 PUSH1 0x4 DUP3 ADD MSTORE PUSH1 0x2A PUSH1 0x24 DUP3 ADD MSTORE PUSH32 0x455243313135353A2061646472657373207A65726F206973206E6F7420612076 PUSH1 0x44 DUP3 ADD MSTORE PUSH10 0x30B634B21037BBB732B9 PUSH1 0xB1 SHL PUSH1 0x64 DUP3 ADD MSTORE PUSH1 0x84 ADD JUMPDEST PUSH1 0x40 MLOAD DUP1 SWAP2 SUB SWAP1 REVERT JUMPDEST POP PUSH1 0x0 DUP2 DUP2 MSTORE PUSH1 0x20 DUP2 DUP2 MSTORE PUSH1 0x40 DUP1 DUP4 KECCAK256 PUSH1 0x1 PUSH1 0x1 PUSH1 0xA0 SHL SUB DUP7 AND DUP5 MSTORE SWAP1 SWAP2 MSTORE SWAP1 KECCAK256 SLOAD JUMPDEST SWAP3 SWAP2 POP POP JUMP JUMPDEST PUSH1 0x0 PUSH1 0x1 PUSH1 0x1 PUSH1 0xE0 SHL SUB NOT DUP3 AND PUSH4 0x6CDB3D13 PUSH1 0xE1 SHL EQ DUP1 PUSH2 0x493 JUMPI POP PUSH1 0x1 PUSH1 0x1 PUSH1 0xE0 SHL SUB NOT DUP3 AND PUSH4 0x3A24D07 PUSH1 0xE2 SHL EQ JUMPDEST DUP1 PUSH2 0x45C JUMPI POP PUSH4 0x1FFC9A7 PUSH1 0xE0 SHL PUSH1 0x1 PUSH1 0x1 PUSH1 0xE0 SHL SUB NOT DUP4 AND EQ PUSH2 0x45C JUMP JUMPDEST PUSH2 0x4BA PUSH2 0x8FC JUMP JUMPDEST PUSH2 0x4C3 DUP2 PUSH2 0x956 JUMP JUMPDEST POP JUMP JUMPDEST PUSH1 0x60 PUSH1 0x2 DUP1 SLOAD PUSH2 0x4D5 SWAP1 PUSH2 0x1899 JUMP JUMPDEST DUP1 PUSH1 0x1F ADD PUSH1 0x20 DUP1 SWAP2 DIV MUL PUSH1 0x20 ADD PUSH1 0x40 MLOAD SWAP1 DUP2 ADD PUSH1 0x40 MSTORE DUP1 SWAP3 SWAP2 SWAP1 DUP2 DUP2 MSTORE PUSH1 0x20 ADD DUP3 DUP1 SLOAD PUSH2 0x501 SWAP1 PUSH2 0x1899 JUMP JUMPDEST DUP1 ISZERO PUSH2 0x54E JUMPI DUP1 PUSH1 0x1F LT PUSH2 0x523 JUMPI PUSH2 0x100 DUP1 DUP4 SLOAD DIV MUL DUP4 MSTORE SWAP2 PUSH1 0x20 ADD SWAP2 PUSH2 0x54E JUMP JUMPDEST DUP3 ADD SWAP2 SWAP1 PUSH1 0x0 MSTORE PUSH1 0x20 PUSH1 0x0 KECCAK256 SWAP1 JUMPDEST DUP2 SLOAD DUP2 MSTORE SWAP1 PUSH1 0x1 ADD SWAP1 PUSH1 0x20 ADD DUP1 DUP4 GT PUSH2 0x531 JUMPI DUP3 SWAP1 SUB PUSH1 0x1F AND DUP3 ADD SWAP2 JUMPDEST POP POP POP POP POP SWAP1 POP SWAP2 SWAP1 POP JUMP JUMPDEST PUSH2 0x576 DUP5 DUP5 DUP5 DUP5 PUSH1 0x40 MLOAD DUP1 PUSH1 0x20 ADD PUSH1 0x40 MSTORE DUP1 PUSH1 0x0 DUP2 MSTORE POP PUSH2 0x5CE JUMP JUMPDEST POP POP POP POP JUMP JUMPDEST PUSH2 0x584 PUSH2 0x8FC JUMP JUMPDEST PUSH2 0x59F DUP4 DUP4 DUP4 PUSH1 0x40 MLOAD DUP1 PUSH1 0x20 ADD PUSH1 0x40 MSTORE DUP1 PUSH1 0x0 DUP2 MSTORE POP PUSH2 0x962 JUMP JUMPDEST POP PUSH1 0x0 SWAP1 DUP2 MSTORE PUSH1 0x5 PUSH1 0x20 MSTORE PUSH1 0x40 SWAP1 KECCAK256 DUP1 SLOAD PUSH1 0x1 PUSH1 0x1 PUSH1 0xA0 SHL SUB NOT AND PUSH1 0x1 PUSH1 0x1 PUSH1 0xA0 SHL SUB SWAP3 SWAP1 SWAP3 AND SWAP2 SWAP1 SWAP2 OR SWAP1 SSTORE JUMP JUMPDEST PUSH1 0x1 PUSH1 0x1 PUSH1 0xA0 SHL SUB DUP6 AND CALLER EQ DUP1 PUSH2 0x5EA JUMPI POP PUSH2 0x5EA DUP6 CALLER PUSH2 0x362 JUMP JUMPDEST PUSH2 0x606 JUMPI PUSH1 0x40 MLOAD PUSH3 0x461BCD PUSH1 0xE5 SHL DUP2 MSTORE PUSH1 0x4 ADD PUSH2 0x430 SWAP1 PUSH2 0x18D3 JUMP JUMPDEST PUSH2 0x613 DUP6 DUP6 DUP6 DUP6 DUP6 PUSH2 0xA3C JUMP JUMPDEST POP POP POP POP POP JUMP JUMPDEST PUSH1 0x60 DUP2 MLOAD DUP4 MLOAD EQ PUSH2 0x67F JUMPI PUSH1 0x40 MLOAD PUSH3 0x461BCD PUSH1 0xE5 SHL DUP2 MSTORE PUSH1 0x20 PUSH1 0x4 DUP3 ADD MSTORE PUSH1 0x29 PUSH1 0x24 DUP3 ADD MSTORE PUSH32 0x455243313135353A206163636F756E747320616E6420696473206C656E677468 PUSH1 0x44 DUP3 ADD MSTORE PUSH9 0x40DAD2E6DAC2E8C6D PUSH1 0xBB SHL PUSH1 0x64 DUP3 ADD MSTORE PUSH1 0x84 ADD PUSH2 0x430 JUMP JUMPDEST PUSH1 0x0 DUP4 MLOAD PUSH8 0xFFFFFFFFFFFFFFFF DUP2 GT ISZERO PUSH2 0x69B JUMPI PUSH2 0x69B PUSH2 0x1260 JUMP JUMPDEST PUSH1 0x40 MLOAD SWAP1 DUP1 DUP3 MSTORE DUP1 PUSH1 0x20 MUL PUSH1 0x20 ADD DUP3 ADD PUSH1 0x40 MSTORE DUP1 ISZERO PUSH2 0x6C4 JUMPI DUP2 PUSH1 0x20 ADD PUSH1 0x20 DUP3 MUL DUP1 CALLDATASIZE DUP4 CALLDATACOPY ADD SWAP1 POP JUMPDEST POP SWAP1 POP PUSH1 0x0 JUMPDEST DUP5 MLOAD DUP2 LT ISZERO PUSH2 0x73C JUMPI PUSH2 0x70F DUP6 DUP3 DUP2 MLOAD DUP2 LT PUSH2 0x6E8 JUMPI PUSH2 0x6E8 PUSH2 0x1921 JUMP JUMPDEST PUSH1 0x20 MUL PUSH1 0x20 ADD ADD MLOAD DUP6 DUP4 DUP2 MLOAD DUP2 LT PUSH2 0x702 JUMPI PUSH2 0x702 PUSH2 0x1921 JUMP JUMPDEST PUSH1 0x20 MUL PUSH1 0x20 ADD ADD MLOAD PUSH2 0x3C9 JUMP JUMPDEST DUP3 DUP3 DUP2 MLOAD DUP2 LT PUSH2 0x721 JUMPI PUSH2 0x721 PUSH2 0x1921 JUMP JUMPDEST PUSH1 0x20 SWAP1 DUP2 MUL SWAP2 SWAP1 SWAP2 ADD ADD MSTORE PUSH2 0x735 DUP2 PUSH2 0x194D JUMP JUMPDEST SWAP1 POP PUSH2 0x6CA JUMP JUMPDEST POP SWAP4 SWAP3 POP POP POP JUMP JUMPDEST PUSH2 0x74C PUSH2 0x8FC JUMP JUMPDEST PUSH2 0x756 PUSH1 0x0 PUSH2 0xBD8 JUMP JUMPDEST JUMP JUMPDEST PUSH2 0x763 CALLER DUP4 DUP4 PUSH2 0xC2A JUMP JUMPDEST POP POP JUMP JUMPDEST PUSH2 0x76F PUSH2 0x8FC JUMP JUMPDEST PUSH2 0x78A DUP4 DUP4 DUP4 PUSH1 0x40 MLOAD DUP1 PUSH1 0x20 ADD PUSH1 0x40 MSTORE DUP1 PUSH1 0x0 DUP2 MSTORE POP PUSH2 0xD0A JUMP JUMPDEST POP POP POP JUMP JUMPDEST PUSH1 0x4 DUP1 SLOAD PUSH2 0x79C SWAP1 PUSH2 0x1899 JUMP JUMPDEST DUP1 PUSH1 0x1F ADD PUSH1 0x20 DUP1 SWAP2 DIV MUL PUSH1 0x20 ADD PUSH1 0x40 MLOAD SWAP1 DUP2 ADD PUSH1 0x40 MSTORE DUP1 SWAP3 SWAP2 SWAP1 DUP2 DUP2 MSTORE PUSH1 0x20 ADD DUP3 DUP1 SLOAD PUSH2 0x7C8 SWAP1 PUSH2 0x1899 JUMP JUMPDEST DUP1 ISZERO PUSH2 0x815 JUMPI DUP1 PUSH1 0x1F LT PUSH2 0x7EA JUMPI PUSH2 0x100 DUP1 DUP4 SLOAD DIV MUL DUP4 MSTORE SWAP2 PUSH1 0x20 ADD SWAP2 PUSH2 0x815 JUMP JUMPDEST DUP3 ADD SWAP2 SWAP1 PUSH1 0x0 MSTORE PUSH1 0x20 PUSH1 0x0 KECCAK256 SWAP1 JUMPDEST DUP2 SLOAD DUP2 MSTORE SWAP1 PUSH1 0x1 ADD SWAP1 PUSH1 0x20 ADD DUP1 DUP4 GT PUSH2 0x7F8 JUMPI DUP3 SWAP1 SUB PUSH1 0x1F AND DUP3 ADD SWAP2 JUMPDEST POP POP POP POP POP DUP2 JUMP JUMPDEST PUSH1 0x1 PUSH1 0x1 PUSH1 0xA0 SHL SUB DUP6 AND CALLER EQ DUP1 PUSH2 0x839 JUMPI POP PUSH2 0x839 DUP6 CALLER PUSH2 0x362 JUMP JUMPDEST PUSH2 0x855 JUMPI PUSH1 0x40 MLOAD PUSH3 0x461BCD PUSH1 0xE5 SHL DUP2 MSTORE PUSH1 0x4 ADD PUSH2 0x430 SWAP1 PUSH2 0x18D3 JUMP JUMPDEST PUSH2 0x613 DUP6 DUP6 DUP6 DUP6 DUP6 PUSH2 0xE55 JUMP JUMPDEST PUSH2 0x86A PUSH2 0x8FC JUMP JUMPDEST PUSH1 0x1 PUSH1 0x1 PUSH1 0xA0 SHL SUB DUP2 AND PUSH2 0x8CF JUMPI PUSH1 0x40 MLOAD PUSH3 0x461BCD PUSH1 0xE5 SHL DUP2 MSTORE PUSH1 0x20 PUSH1 0x4 DUP3 ADD MSTORE PUSH1 0x26 PUSH1 0x24 DUP3 ADD MSTORE PUSH32 0x4F776E61626C653A206E6577206F776E657220697320746865207A65726F2061 PUSH1 0x44 DUP3 ADD MSTORE PUSH6 0x646472657373 PUSH1 0xD0 SHL PUSH1 0x64 DUP3 ADD MSTORE PUSH1 0x84 ADD PUSH2 0x430 JUMP JUMPDEST PUSH2 0x4C3 DUP2 PUSH2 0xBD8 JUMP JUMPDEST PUSH2 0x8E0 PUSH2 0x8FC JUMP JUMPDEST PUSH2 0x576 DUP5 DUP5 DUP5 DUP5 PUSH1 0x40 MLOAD DUP1 PUSH1 0x20 ADD PUSH1 0x40 MSTORE DUP1 PUSH1 0x0 DUP2 MSTORE POP PUSH2 0x81D JUMP JUMPDEST PUSH1 0x3 SLOAD PUSH1 0x1 PUSH1 0x1 PUSH1 0xA0 SHL SUB AND CALLER EQ PUSH2 0x756 JUMPI PUSH1 0x40 MLOAD PUSH3 0x461BCD PUSH1 0xE5 SHL DUP2 MSTORE PUSH1 0x20 PUSH1 0x4 DUP3 ADD DUP2 SWAP1 MSTORE PUSH1 0x24 DUP3 ADD MSTORE PUSH32 0x4F776E61626C653A2063616C6C6572206973206E6F7420746865206F776E6572 PUSH1 0x44 DUP3 ADD MSTORE PUSH1 0x64 ADD PUSH2 0x430 JUMP JUMPDEST PUSH1 0x2 PUSH2 0x763 DUP3 DUP3 PUSH2 0x19AC JUMP JUMPDEST PUSH1 0x1 PUSH1 0x1 PUSH1 0xA0 SHL SUB DUP5 AND PUSH2 0x988 JUMPI PUSH1 0x40 MLOAD PUSH3 0x461BCD PUSH1 0xE5 SHL DUP2 MSTORE PUSH1 0x4 ADD PUSH2 0x430 SWAP1 PUSH2 0x1A6C JUMP JUMPDEST CALLER PUSH1 0x0 PUSH2 0x994 DUP6 PUSH2 0xF7F JUMP JUMPDEST SWAP1 POP PUSH1 0x0 PUSH2 0x9A1 DUP6 PUSH2 0xF7F JUMP JUMPDEST SWAP1 POP PUSH1 0x0 DUP7 DUP2 MSTORE PUSH1 0x20 DUP2 DUP2 MSTORE PUSH1 0x40 DUP1 DUP4 KECCAK256 PUSH1 0x1 PUSH1 0x1 PUSH1 0xA0 SHL SUB DUP12 AND DUP5 MSTORE SWAP1 SWAP2 MSTORE DUP2 KECCAK256 DUP1 SLOAD DUP8 SWAP3 SWAP1 PUSH2 0x9D3 SWAP1 DUP5 SWAP1 PUSH2 0x1AAD JUMP JUMPDEST SWAP1 SWAP2 SSTORE POP POP PUSH1 0x40 DUP1 MLOAD DUP8 DUP2 MSTORE PUSH1 0x20 DUP2 ADD DUP8 SWAP1 MSTORE PUSH1 0x1 PUSH1 0x1 PUSH1 0xA0 SHL SUB DUP1 DUP11 AND SWAP3 PUSH1 0x0 SWAP3 SWAP2 DUP8 AND SWAP2 PUSH32 0xC3D58168C5AE7397731D063D5BBF3D657854427343F4C083240F7AACAA2D0F62 SWAP2 ADD PUSH1 0x40 MLOAD DUP1 SWAP2 SUB SWAP1 LOG4 PUSH2 0xA33 DUP4 PUSH1 0x0 DUP10 DUP10 DUP10 DUP10 PUSH2 0xFCA JUMP JUMPDEST POP POP POP POP POP POP POP JUMP JUMPDEST DUP2 MLOAD DUP4 MLOAD EQ PUSH2 0xA5D JUMPI PUSH1 0x40 MLOAD PUSH3 0x461BCD PUSH1 0xE5 SHL DUP2 MSTORE PUSH1 0x4 ADD PUSH2 0x430 SWAP1 PUSH2 0x1AC0 JUMP JUMPDEST PUSH1 0x1 PUSH1 0x1 PUSH1 0xA0 SHL SUB DUP5 AND PUSH2 0xA83 JUMPI PUSH1 0x40 MLOAD PUSH3 0x461BCD PUSH1 0xE5 SHL DUP2 MSTORE PUSH1 0x4 ADD PUSH2 0x430 SWAP1 PUSH2 0x1B08 JUMP JUMPDEST CALLER PUSH1 0x0 JUMPDEST DUP5 MLOAD DUP2 LT ISZERO PUSH2 0xB6A JUMPI PUSH1 0x0 DUP6 DUP3 DUP2 MLOAD DUP2 LT PUSH2 0xAA4 JUMPI PUSH2 0xAA4 PUSH2 0x1921 JUMP JUMPDEST PUSH1 0x20 MUL PUSH1 0x20 ADD ADD MLOAD SWAP1 POP PUSH1 0x0 DUP6 DUP4 DUP2 MLOAD DUP2 LT PUSH2 0xAC2 JUMPI PUSH2 0xAC2 PUSH2 0x1921 JUMP JUMPDEST PUSH1 0x20 SWAP1 DUP2 MUL SWAP2 SWAP1 SWAP2 ADD DUP2 ADD MLOAD PUSH1 0x0 DUP5 DUP2 MSTORE DUP1 DUP4 MSTORE PUSH1 0x40 DUP1 DUP3 KECCAK256 PUSH1 0x1 PUSH1 0x1 PUSH1 0xA0 SHL SUB DUP15 AND DUP4 MSTORE SWAP1 SWAP4 MSTORE SWAP2 SWAP1 SWAP2 KECCAK256 SLOAD SWAP1 SWAP2 POP DUP2 DUP2 LT ISZERO PUSH2 0xB12 JUMPI PUSH1 0x40 MLOAD PUSH3 0x461BCD PUSH1 0xE5 SHL DUP2 MSTORE PUSH1 0x4 ADD PUSH2 0x430 SWAP1 PUSH2 0x1B4D JUMP JUMPDEST PUSH1 0x0 DUP4 DUP2 MSTORE PUSH1 0x20 DUP2 DUP2 MSTORE PUSH1 0x40 DUP1 DUP4 KECCAK256 PUSH1 0x1 PUSH1 0x1 PUSH1 0xA0 SHL SUB DUP15 DUP2 AND DUP6 MSTORE SWAP3 MSTORE DUP1 DUP4 KECCAK256 DUP6 DUP6 SUB SWAP1 SSTORE SWAP1 DUP12 AND DUP3 MSTORE DUP2 KECCAK256 DUP1 SLOAD DUP5 SWAP3 SWAP1 PUSH2 0xB4F SWAP1 DUP5 SWAP1 PUSH2 0x1AAD JUMP JUMPDEST SWAP3 POP POP DUP2 SWAP1 SSTORE POP POP POP POP DUP1 PUSH2 0xB63 SWAP1 PUSH2 0x194D JUMP JUMPDEST SWAP1 POP PUSH2 0xA87 JUMP JUMPDEST POP DUP5 PUSH1 0x1 PUSH1 0x1 PUSH1 0xA0 SHL SUB AND DUP7 PUSH1 0x1 PUSH1 0x1 PUSH1 0xA0 SHL SUB AND DUP3 PUSH1 0x1 PUSH1 0x1 PUSH1 0xA0 SHL SUB AND PUSH32 0x4A39DC06D4C0DBC64B70AF90FD698A233A518AA5D07E595D983B8C0526C8F7FB DUP8 DUP8 PUSH1 0x40 MLOAD PUSH2 0xBBA SWAP3 SWAP2 SWAP1 PUSH2 0x1B97 JUMP JUMPDEST PUSH1 0x40 MLOAD DUP1 SWAP2 SUB SWAP1 LOG4 PUSH2 0xBD0 DUP2 DUP8 DUP8 DUP8 DUP8 DUP8 PUSH2 0x1125 JUMP JUMPDEST POP POP POP POP POP POP JUMP JUMPDEST PUSH1 0x3 DUP1 SLOAD PUSH1 0x1 PUSH1 0x1 PUSH1 0xA0 SHL SUB DUP4 DUP2 AND PUSH1 0x1 PUSH1 0x1 PUSH1 0xA0 SHL SUB NOT DUP4 AND DUP2 OR SWAP1 SWAP4 SSTORE PUSH1 0x40 MLOAD SWAP2 AND SWAP2 SWAP1 DUP3 SWAP1 PUSH32 0x8BE0079C531659141344CD1FD0A4F28419497F9722A3DAAFE3B4186F6B6457E0 SWAP1 PUSH1 0x0 SWAP1 LOG3 POP POP JUMP JUMPDEST DUP2 PUSH1 0x1 PUSH1 0x1 PUSH1 0xA0 SHL SUB AND DUP4 PUSH1 0x1 PUSH1 0x1 PUSH1 0xA0 SHL SUB AND SUB PUSH2 0xC9D JUMPI PUSH1 0x40 MLOAD PUSH3 0x461BCD PUSH1 0xE5 SHL DUP2 MSTORE PUSH1 0x20 PUSH1 0x4 DUP3 ADD MSTORE PUSH1 0x29 PUSH1 0x24 DUP3 ADD MSTORE PUSH32 0x455243313135353A2073657474696E6720617070726F76616C20737461747573 PUSH1 0x44 DUP3 ADD MSTORE PUSH9 0x103337B91039B2B633 PUSH1 0xB9 SHL PUSH1 0x64 DUP3 ADD MSTORE PUSH1 0x84 ADD PUSH2 0x430 JUMP JUMPDEST PUSH1 0x1 PUSH1 0x1 PUSH1 0xA0 SHL SUB DUP4 DUP2 AND PUSH1 0x0 DUP2 DUP2 MSTORE PUSH1 0x1 PUSH1 0x20 SWAP1 DUP2 MSTORE PUSH1 0x40 DUP1 DUP4 KECCAK256 SWAP5 DUP8 AND DUP1 DUP5 MSTORE SWAP5 DUP3 MSTORE SWAP2 DUP3 SWAP1 KECCAK256 DUP1 SLOAD PUSH1 0xFF NOT AND DUP7 ISZERO ISZERO SWAP1 DUP2 OR SWAP1 SWAP2 SSTORE SWAP2 MLOAD SWAP2 DUP3 MSTORE PUSH32 0x17307EAB39AB6107E8899845AD3D59BD9653F200F220920489CA2B5937696C31 SWAP2 ADD PUSH1 0x40 MLOAD DUP1 SWAP2 SUB SWAP1 LOG3 POP POP POP JUMP JUMPDEST PUSH1 0x1 PUSH1 0x1 PUSH1 0xA0 SHL SUB DUP5 AND PUSH2 0xD30 JUMPI PUSH1 0x40 MLOAD PUSH3 0x461BCD PUSH1 0xE5 SHL DUP2 MSTORE PUSH1 0x4 ADD PUSH2 0x430 SWAP1 PUSH2 0x1A6C JUMP JUMPDEST DUP2 MLOAD DUP4 MLOAD EQ PUSH2 0xD51 JUMPI PUSH1 0x40 MLOAD PUSH3 0x461BCD PUSH1 0xE5 SHL DUP2 MSTORE PUSH1 0x4 ADD PUSH2 0x430 SWAP1 PUSH2 0x1AC0 JUMP JUMPDEST CALLER PUSH1 0x0 JUMPDEST DUP5 MLOAD DUP2 LT ISZERO PUSH2 0xDED JUMPI DUP4 DUP2 DUP2 MLOAD DUP2 LT PUSH2 0xD70 JUMPI PUSH2 0xD70 PUSH2 0x1921 JUMP JUMPDEST PUSH1 0x20 MUL PUSH1 0x20 ADD ADD MLOAD PUSH1 0x0 DUP1 DUP8 DUP5 DUP2 MLOAD DUP2 LT PUSH2 0xD8D JUMPI PUSH2 0xD8D PUSH2 0x1921 JUMP JUMPDEST PUSH1 0x20 MUL PUSH1 0x20 ADD ADD MLOAD DUP2 MSTORE PUSH1 0x20 ADD SWAP1 DUP2 MSTORE PUSH1 0x20 ADD PUSH1 0x0 KECCAK256 PUSH1 0x0 DUP9 PUSH1 0x1 PUSH1 0x1 PUSH1 0xA0 SHL SUB AND PUSH1 0x1 PUSH1 0x1 PUSH1 0xA0 SHL SUB AND DUP2 MSTORE PUSH1 0x20 ADD SWAP1 DUP2 MSTORE PUSH1 0x20 ADD PUSH1 0x0 KECCAK256 PUSH1 0x0 DUP3 DUP3 SLOAD PUSH2 0xDD5 SWAP2 SWAP1 PUSH2 0x1AAD JUMP JUMPDEST SWAP1 SWAP2 SSTORE POP DUP2 SWAP1 POP PUSH2 0xDE5 DUP2 PUSH2 0x194D JUMP JUMPDEST SWAP2 POP POP PUSH2 0xD55 JUMP JUMPDEST POP DUP5 PUSH1 0x1 PUSH1 0x1 PUSH1 0xA0 SHL SUB AND PUSH1 0x0 PUSH1 0x1 PUSH1 0x1 PUSH1 0xA0 SHL SUB AND DUP3 PUSH1 0x1 PUSH1 0x1 PUSH1 0xA0 SHL SUB AND PUSH32 0x4A39DC06D4C0DBC64B70AF90FD698A233A518AA5D07E595D983B8C0526C8F7FB DUP8 DUP8 PUSH1 0x40 MLOAD PUSH2 0xE3E SWAP3 SWAP2 SWAP1 PUSH2 0x1B97 JUMP JUMPDEST PUSH1 0x40 MLOAD DUP1 SWAP2 SUB SWAP1 LOG4 PUSH2 0x613 DUP2 PUSH1 0x0 DUP8 DUP8 DUP8 DUP8 PUSH2 0x1125 JUMP JUMPDEST PUSH1 0x1 PUSH1 0x1 PUSH1 0xA0 SHL SUB DUP5 AND PUSH2 0xE7B JUMPI PUSH1 0x40 MLOAD PUSH3 0x461BCD PUSH1 0xE5 SHL DUP2 MSTORE PUSH1 0x4 ADD PUSH2 0x430 SWAP1 PUSH2 0x1B08 JUMP JUMPDEST CALLER PUSH1 0x0 PUSH2 0xE87 DUP6 PUSH2 0xF7F JUMP JUMPDEST SWAP1 POP PUSH1 0x0 PUSH2 0xE94 DUP6 PUSH2 0xF7F JUMP JUMPDEST SWAP1 POP PUSH1 0x0 DUP7 DUP2 MSTORE PUSH1 0x20 DUP2 DUP2 MSTORE PUSH1 0x40 DUP1 DUP4 KECCAK256 PUSH1 0x1 PUSH1 0x1 PUSH1 0xA0 SHL SUB DUP13 AND DUP5 MSTORE SWAP1 SWAP2 MSTORE SWAP1 KECCAK256 SLOAD DUP6 DUP2 LT ISZERO PUSH2 0xED7 JUMPI PUSH1 0x40 MLOAD PUSH3 0x461BCD PUSH1 0xE5 SHL DUP2 MSTORE PUSH1 0x4 ADD PUSH2 0x430 SWAP1 PUSH2 0x1B4D JUMP JUMPDEST PUSH1 0x0 DUP8 DUP2 MSTORE PUSH1 0x20 DUP2 DUP2 MSTORE PUSH1 0x40 DUP1 DUP4 KECCAK256 PUSH1 0x1 PUSH1 0x1 PUSH1 0xA0 SHL SUB DUP14 DUP2 AND DUP6 MSTORE SWAP3 MSTORE DUP1 DUP4 KECCAK256 DUP10 DUP6 SUB SWAP1 SSTORE SWAP1 DUP11 AND DUP3 MSTORE DUP2 KECCAK256 DUP1 SLOAD DUP9 SWAP3 SWAP1 PUSH2 0xF14 SWAP1 DUP5 SWAP1 PUSH2 0x1AAD JUMP JUMPDEST SWAP1 SWAP2 SSTORE POP POP PUSH1 0x40 DUP1 MLOAD DUP9 DUP2 MSTORE PUSH1 0x20 DUP2 ADD DUP9 SWAP1 MSTORE PUSH1 0x1 PUSH1 0x1 PUSH1 0xA0 SHL SUB DUP1 DUP12 AND SWAP3 DUP13 DUP3 AND SWAP3 SWAP2 DUP9 AND SWAP2 PUSH32 0xC3D58168C5AE7397731D063D5BBF3D657854427343F4C083240F7AACAA2D0F62 SWAP2 ADD PUSH1 0x40 MLOAD DUP1 SWAP2 SUB SWAP1 LOG4 PUSH2 0xF74 DUP5 DUP11 DUP11 DUP11 DUP11 DUP11 PUSH2 0xFCA JUMP JUMPDEST POP POP POP POP POP POP POP POP POP JUMP JUMPDEST PUSH1 0x40 DUP1 MLOAD PUSH1 0x1 DUP1 DUP3 MSTORE DUP2 DUP4 ADD SWAP1 SWAP3 MSTORE PUSH1 0x60 SWAP2 PUSH1 0x0 SWAP2 SWAP1 PUSH1 0x20 DUP1 DUP4 ADD SWAP1 DUP1 CALLDATASIZE DUP4 CALLDATACOPY ADD SWAP1 POP POP SWAP1 POP DUP3 DUP2 PUSH1 0x0 DUP2 MLOAD DUP2 LT PUSH2 0xFB9 JUMPI PUSH2 0xFB9 PUSH2 0x1921 JUMP JUMPDEST PUSH1 0x20 SWAP1 DUP2 MUL SWAP2 SWAP1 SWAP2 ADD ADD MSTORE SWAP3 SWAP2 POP POP JUMP JUMPDEST PUSH1 0x1 PUSH1 0x1 PUSH1 0xA0 SHL SUB DUP5 AND EXTCODESIZE ISZERO PUSH2 0xBD0 JUMPI PUSH1 0x40 MLOAD PUSH4 0xF23A6E61 PUSH1 0xE0 SHL DUP2 MSTORE PUSH1 0x1 PUSH1 0x1 PUSH1 0xA0 SHL SUB DUP6 AND SWAP1 PUSH4 0xF23A6E61 SWAP1 PUSH2 0x100E SWAP1 DUP10 SWAP1 DUP10 SWAP1 DUP9 SWAP1 DUP9 SWAP1 DUP9 SWAP1 PUSH1 0x4 ADD PUSH2 0x1BC5 JUMP JUMPDEST PUSH1 0x20 PUSH1 0x40 MLOAD DUP1 DUP4 SUB DUP2 PUSH1 0x0 DUP8 GAS CALL SWAP3 POP POP POP DUP1 ISZERO PUSH2 0x1049 JUMPI POP PUSH1 0x40 DUP1 MLOAD PUSH1 0x1F RETURNDATASIZE SWAP1 DUP2 ADD PUSH1 0x1F NOT AND DUP3 ADD SWAP1 SWAP3 MSTORE PUSH2 0x1046 SWAP2 DUP2 ADD SWAP1 PUSH2 0x1C0A JUMP JUMPDEST PUSH1 0x1 JUMPDEST PUSH2 0x10F5 JUMPI PUSH2 0x1055 PUSH2 0x1C27 JUMP JUMPDEST DUP1 PUSH4 0x8C379A0 SUB PUSH2 0x108E JUMPI POP PUSH2 0x1069 PUSH2 0x1C43 JUMP JUMPDEST DUP1 PUSH2 0x1074 JUMPI POP PUSH2 0x1090 JUMP JUMPDEST DUP1 PUSH1 0x40 MLOAD PUSH3 0x461BCD PUSH1 0xE5 SHL DUP2 MSTORE PUSH1 0x4 ADD PUSH2 0x430 SWAP2 SWAP1 PUSH2 0x13B1 JUMP JUMPDEST POP JUMPDEST PUSH1 0x40 MLOAD PUSH3 0x461BCD PUSH1 0xE5 SHL DUP2 MSTORE PUSH1 0x20 PUSH1 0x4 DUP3 ADD MSTORE PUSH1 0x34 PUSH1 0x24 DUP3 ADD MSTORE PUSH32 0x455243313135353A207472616E7366657220746F206E6F6E2D45524331313535 PUSH1 0x44 DUP3 ADD MSTORE PUSH20 0x2932B1B2B4BB32B91034B6B83632B6B2B73A32B9 PUSH1 0x61 SHL PUSH1 0x64 DUP3 ADD MSTORE PUSH1 0x84 ADD PUSH2 0x430 JUMP JUMPDEST PUSH1 0x1 PUSH1 0x1 PUSH1 0xE0 SHL SUB NOT DUP2 AND PUSH4 0xF23A6E61 PUSH1 0xE0 SHL EQ PUSH2 0xA33 JUMPI PUSH1 0x40 MLOAD PUSH3 0x461BCD PUSH1 0xE5 SHL DUP2 MSTORE PUSH1 0x4 ADD PUSH2 0x430 SWAP1 PUSH2 0x1CCD JUMP JUMPDEST PUSH1 0x1 PUSH1 0x1 PUSH1 0xA0 SHL SUB DUP5 AND EXTCODESIZE ISZERO PUSH2 0xBD0 JUMPI PUSH1 0x40 MLOAD PUSH4 0xBC197C81 PUSH1 0xE0 SHL DUP2 MSTORE PUSH1 0x1 PUSH1 0x1 PUSH1 0xA0 SHL SUB DUP6 AND SWAP1 PUSH4 0xBC197C81 SWAP1 PUSH2 0x1169 SWAP1 DUP10 SWAP1 DUP10 SWAP1 DUP9 SWAP1 DUP9 SWAP1 DUP9 SWAP1 PUSH1 0x4 ADD PUSH2 0x1D15 JUMP JUMPDEST PUSH1 0x20 PUSH1 0x40 MLOAD DUP1 DUP4 SUB DUP2 PUSH1 0x0 DUP8 GAS CALL SWAP3 POP POP POP DUP1 ISZERO PUSH2 0x11A4 JUMPI POP PUSH1 0x40 DUP1 MLOAD PUSH1 0x1F RETURNDATASIZE SWAP1 DUP2 ADD PUSH1 0x1F NOT AND DUP3 ADD SWAP1 SWAP3 MSTORE PUSH2 0x11A1 SWAP2 DUP2 ADD SWAP1 PUSH2 0x1C0A JUMP JUMPDEST PUSH1 0x1 JUMPDEST PUSH2 0x11B0 JUMPI PUSH2 0x1055 PUSH2 0x1C27 JUMP JUMPDEST PUSH1 0x1 PUSH1 0x1 PUSH1 0xE0 SHL SUB NOT DUP2 AND PUSH4 0xBC197C81 PUSH1 0xE0 SHL EQ PUSH2 0xA33 JUMPI PUSH1 0x40 MLOAD PUSH3 0x461BCD PUSH1 0xE5 SHL DUP2 MSTORE PUSH1 0x4 ADD PUSH2 0x430 SWAP1 PUSH2 0x1CCD JUMP JUMPDEST DUP1 CALLDATALOAD PUSH1 0x1 PUSH1 0x1 PUSH1 0xA0 SHL SUB DUP2 AND DUP2 EQ PUSH2 0x11F7 JUMPI PUSH1 0x0 DUP1 REVERT JUMPDEST SWAP2 SWAP1 POP JUMP JUMPDEST PUSH1 0x0 DUP1 PUSH1 0x40 DUP4 DUP6 SUB SLT ISZERO PUSH2 0x120F JUMPI PUSH1 0x0 DUP1 REVERT JUMPDEST PUSH2 0x1218 DUP4 PUSH2 0x11E0 JUMP JUMPDEST SWAP5 PUSH1 0x20 SWAP4 SWAP1 SWAP4 ADD CALLDATALOAD SWAP4 POP POP POP JUMP JUMPDEST PUSH1 0x1 PUSH1 0x1 PUSH1 0xE0 SHL SUB NOT DUP2 AND DUP2 EQ PUSH2 0x4C3 JUMPI PUSH1 0x0 DUP1 REVERT JUMPDEST PUSH1 0x0 PUSH1 0x20 DUP3 DUP5 SUB SLT ISZERO PUSH2 0x124E JUMPI PUSH1 0x0 DUP1 REVERT JUMPDEST DUP2 CALLDATALOAD PUSH2 0x1259 DUP2 PUSH2 0x1226 JUMP JUMPDEST SWAP4 SWAP3 POP POP POP JUMP JUMPDEST PUSH4 0x4E487B71 PUSH1 0xE0 SHL PUSH1 0x0 MSTORE PUSH1 0x41 PUSH1 0x4 MSTORE PUSH1 0x24 PUSH1 0x0 REVERT JUMPDEST PUSH1 0x1F DUP3 ADD PUSH1 0x1F NOT AND DUP2 ADD PUSH8 0xFFFFFFFFFFFFFFFF DUP2 GT DUP3 DUP3 LT OR ISZERO PUSH2 0x129C JUMPI PUSH2 0x129C PUSH2 0x1260 JUMP JUMPDEST PUSH1 0x40 MSTORE POP POP JUMP JUMPDEST PUSH1 0x0 PUSH8 0xFFFFFFFFFFFFFFFF DUP4 GT ISZERO PUSH2 0x12BD JUMPI PUSH2 0x12BD PUSH2 0x1260 JUMP JUMPDEST PUSH1 0x40 MLOAD PUSH2 0x12D4 PUSH1 0x1F DUP6 ADD PUSH1 0x1F NOT AND PUSH1 0x20 ADD DUP3 PUSH2 0x1276 JUMP JUMPDEST DUP1 SWAP2 POP DUP4 DUP2 MSTORE DUP5 DUP5 DUP5 ADD GT ISZERO PUSH2 0x12E9 JUMPI PUSH1 0x0 DUP1 REVERT JUMPDEST DUP4 DUP4 PUSH1 0x20 DUP4 ADD CALLDATACOPY PUSH1 0x0 PUSH1 0x20 DUP6 DUP4 ADD ADD MSTORE POP SWAP4 SWAP3 POP POP POP JUMP JUMPDEST PUSH1 0x0 PUSH1 0x20 DUP3 DUP5 SUB SLT ISZERO PUSH2 0x1313 JUMPI PUSH1 0x0 DUP1 REVERT JUMPDEST DUP2 CALLDATALOAD PUSH8 0xFFFFFFFFFFFFFFFF DUP2 GT ISZERO PUSH2 0x132A JUMPI PUSH1 0x0 DUP1 REVERT JUMPDEST DUP3 ADD PUSH1 0x1F DUP2 ADD DUP5 SGT PUSH2 0x133B JUMPI PUSH1 0x0 DUP1 REVERT JUMPDEST PUSH2 0x134A DUP5 DUP3 CALLDATALOAD PUSH1 0x20 DUP5 ADD PUSH2 0x12A3 JUMP JUMPDEST SWAP5 SWAP4 POP POP POP POP JUMP JUMPDEST PUSH1 0x0 PUSH1 0x20 DUP3 DUP5 SUB SLT ISZERO PUSH2 0x1364 JUMPI PUSH1 0x0 DUP1 REVERT JUMPDEST POP CALLDATALOAD SWAP2 SWAP1 POP JUMP JUMPDEST PUSH1 0x0 DUP2 MLOAD DUP1 DUP5 MSTORE PUSH1 0x0 JUMPDEST DUP2 DUP2 LT ISZERO PUSH2 0x1391 JUMPI PUSH1 0x20 DUP2 DUP6 ADD DUP2 ADD MLOAD DUP7 DUP4 ADD DUP3 ADD MSTORE ADD PUSH2 0x1375 JUMP JUMPDEST POP PUSH1 0x0 PUSH1 0x20 DUP3 DUP7 ADD ADD MSTORE PUSH1 0x20 PUSH1 0x1F NOT PUSH1 0x1F DUP4 ADD AND DUP6 ADD ADD SWAP2 POP POP SWAP3 SWAP2 POP POP JUMP JUMPDEST PUSH1 0x20 DUP2 MSTORE PUSH1 0x0 PUSH2 0x1259 PUSH1 0x20 DUP4 ADD DUP5 PUSH2 0x136B JUMP JUMPDEST PUSH1 0x0 PUSH8 0xFFFFFFFFFFFFFFFF DUP3 GT ISZERO PUSH2 0x13DE JUMPI PUSH2 0x13DE PUSH2 0x1260 JUMP JUMPDEST POP PUSH1 0x5 SHL PUSH1 0x20 ADD SWAP1 JUMP JUMPDEST PUSH1 0x0 DUP3 PUSH1 0x1F DUP4 ADD SLT PUSH2 0x13F9 JUMPI PUSH1 0x0 DUP1 REVERT JUMPDEST DUP2 CALLDATALOAD PUSH1 0x20 PUSH2 0x1406 DUP3 PUSH2 0x13C4 JUMP JUMPDEST PUSH1 0x40 MLOAD PUSH2 0x1413 DUP3 DUP3 PUSH2 0x1276 JUMP JUMPDEST DUP4 DUP2 MSTORE PUSH1 0x5 SWAP4 SWAP1 SWAP4 SHL DUP6 ADD DUP3 ADD SWAP3 DUP3 DUP2 ADD SWAP2 POP DUP7 DUP5 GT ISZERO PUSH2 0x1433 JUMPI PUSH1 0x0 DUP1 REVERT JUMPDEST DUP3 DUP7 ADD JUMPDEST DUP5 DUP2 LT ISZERO PUSH2 0x144E JUMPI DUP1 CALLDATALOAD DUP4 MSTORE SWAP2 DUP4 ADD SWAP2 DUP4 ADD PUSH2 0x1437 JUMP JUMPDEST POP SWAP7 SWAP6 POP POP POP POP POP POP JUMP JUMPDEST PUSH1 0x0 DUP1 PUSH1 0x0 DUP1 PUSH1 0x80 DUP6 DUP8 SUB SLT ISZERO PUSH2 0x146F JUMPI PUSH1 0x0 DUP1 REVERT JUMPDEST PUSH2 0x1478 DUP6 PUSH2 0x11E0 JUMP JUMPDEST SWAP4 POP PUSH2 0x1486 PUSH1 0x20 DUP7 ADD PUSH2 0x11E0 JUMP JUMPDEST SWAP3 POP PUSH1 0x40 DUP6 ADD CALLDATALOAD PUSH8 0xFFFFFFFFFFFFFFFF DUP1 DUP3 GT ISZERO PUSH2 0x14A3 JUMPI PUSH1 0x0 DUP1 REVERT JUMPDEST PUSH2 0x14AF DUP9 DUP4 DUP10 ADD PUSH2 0x13E8 JUMP JUMPDEST SWAP4 POP PUSH1 0x60 DUP8 ADD CALLDATALOAD SWAP2 POP DUP1 DUP3 GT ISZERO PUSH2 0x14C5 JUMPI PUSH1 0x0 DUP1 REVERT JUMPDEST POP PUSH2 0x14D2 DUP8 DUP3 DUP9 ADD PUSH2 0x13E8 JUMP JUMPDEST SWAP2 POP POP SWAP3 SWAP6 SWAP2 SWAP5 POP SWAP3 POP JUMP JUMPDEST PUSH1 0x0 DUP1 PUSH1 0x0 PUSH1 0x60 DUP5 DUP7 SUB SLT ISZERO PUSH2 0x14F3 JUMPI PUSH1 0x0 DUP1 REVERT JUMPDEST PUSH2 0x14FC DUP5 PUSH2 0x11E0 JUMP JUMPDEST SWAP6 PUSH1 0x20 DUP6 ADD CALLDATALOAD SWAP6 POP PUSH1 0x40 SWAP1 SWAP5 ADD CALLDATALOAD SWAP4 SWAP3 POP POP POP JUMP JUMPDEST PUSH1 0x0 DUP3 PUSH1 0x1F DUP4 ADD SLT PUSH2 0x1522 JUMPI PUSH1 0x0 DUP1 REVERT JUMPDEST PUSH2 0x1259 DUP4 DUP4 CALLDATALOAD PUSH1 0x20 DUP6 ADD PUSH2 0x12A3 JUMP JUMPDEST PUSH1 0x0 DUP1 PUSH1 0x0 DUP1 PUSH1 0x0 PUSH1 0xA0 DUP7 DUP9 SUB SLT ISZERO PUSH2 0x1549 JUMPI PUSH1 0x0 DUP1 REVERT JUMPDEST PUSH2 0x1552 DUP7 PUSH2 0x11E0 JUMP JUMPDEST SWAP5 POP PUSH2 0x1560 PUSH1 0x20 DUP8 ADD PUSH2 0x11E0 JUMP JUMPDEST SWAP4 POP PUSH1 0x40 DUP7 ADD CALLDATALOAD PUSH8 0xFFFFFFFFFFFFFFFF DUP1 DUP3 GT ISZERO PUSH2 0x157D JUMPI PUSH1 0x0 DUP1 REVERT JUMPDEST PUSH2 0x1589 DUP10 DUP4 DUP11 ADD PUSH2 0x13E8 JUMP JUMPDEST SWAP5 POP PUSH1 0x60 DUP9 ADD CALLDATALOAD SWAP2 POP DUP1 DUP3 GT ISZERO PUSH2 0x159F JUMPI PUSH1 0x0 DUP1 REVERT JUMPDEST PUSH2 0x15AB DUP10 DUP4 DUP11 ADD PUSH2 0x13E8 JUMP JUMPDEST SWAP4 POP PUSH1 0x80 DUP9 ADD CALLDATALOAD SWAP2 POP DUP1 DUP3 GT ISZERO PUSH2 0x15C1 JUMPI PUSH1 0x0 DUP1 REVERT JUMPDEST POP PUSH2 0x15CE DUP9 DUP3 DUP10 ADD PUSH2 0x1511 JUMP JUMPDEST SWAP2 POP POP SWAP3 SWAP6 POP SWAP3 SWAP6 SWAP1 SWAP4 POP JUMP JUMPDEST PUSH1 0x0 DUP1 PUSH1 0x40 DUP4 DUP6 SUB SLT ISZERO PUSH2 0x15EE JUMPI PUSH1 0x0 DUP1 REVERT JUMPDEST DUP3 CALLDATALOAD PUSH8 0xFFFFFFFFFFFFFFFF DUP1 DUP3 GT ISZERO PUSH2 0x1606 JUMPI PUSH1 0x0 DUP1 REVERT JUMPDEST DUP2 DUP6 ADD SWAP2 POP DUP6 PUSH1 0x1F DUP4 ADD SLT PUSH2 0x161A JUMPI PUSH1 0x0 DUP1 REVERT JUMPDEST DUP2 CALLDATALOAD PUSH1 0x20 PUSH2 0x1627 DUP3 PUSH2 0x13C4 JUMP JUMPDEST PUSH1 0x40 MLOAD PUSH2 0x1634 DUP3 DUP3 PUSH2 0x1276 JUMP JUMPDEST DUP4 DUP2 MSTORE PUSH1 0x5 SWAP4 SWAP1 SWAP4 SHL DUP6 ADD DUP3 ADD SWAP3 DUP3 DUP2 ADD SWAP2 POP DUP10 DUP5 GT ISZERO PUSH2 0x1654 JUMPI PUSH1 0x0 DUP1 REVERT JUMPDEST SWAP5 DUP3 ADD SWAP5 JUMPDEST DUP4 DUP7 LT ISZERO PUSH2 0x1679 JUMPI PUSH2 0x166A DUP7 PUSH2 0x11E0 JUMP JUMPDEST DUP3 MSTORE SWAP5 DUP3 ADD SWAP5 SWAP1 DUP3 ADD SWAP1 PUSH2 0x1659 JUMP JUMPDEST SWAP7 POP POP DUP7 ADD CALLDATALOAD SWAP3 POP POP DUP1 DUP3 GT ISZERO PUSH2 0x168F JUMPI PUSH1 0x0 DUP1 REVERT JUMPDEST POP PUSH2 0x169C DUP6 DUP3 DUP7 ADD PUSH2 0x13E8 JUMP JUMPDEST SWAP2 POP POP SWAP3 POP SWAP3 SWAP1 POP JUMP JUMPDEST PUSH1 0x0 DUP2 MLOAD DUP1 DUP5 MSTORE PUSH1 0x20 DUP1 DUP6 ADD SWAP5 POP DUP1 DUP5 ADD PUSH1 0x0 JUMPDEST DUP4 DUP2 LT ISZERO PUSH2 0x16D6 JUMPI DUP2 MLOAD DUP8 MSTORE SWAP6 DUP3 ADD SWAP6 SWAP1 DUP3 ADD SWAP1 PUSH1 0x1 ADD PUSH2 0x16BA JUMP JUMPDEST POP SWAP5 SWAP6 SWAP5 POP POP POP POP POP JUMP JUMPDEST PUSH1 0x20 DUP2 MSTORE PUSH1 0x0 PUSH2 0x1259 PUSH1 0x20 DUP4 ADD DUP5 PUSH2 0x16A6 JUMP JUMPDEST PUSH1 0x0 DUP1 PUSH1 0x40 DUP4 DUP6 SUB SLT ISZERO PUSH2 0x1707 JUMPI PUSH1 0x0 DUP1 REVERT JUMPDEST PUSH2 0x1710 DUP4 PUSH2 0x11E0 JUMP JUMPDEST SWAP2 POP PUSH1 0x20 DUP4 ADD CALLDATALOAD DUP1 ISZERO ISZERO DUP2 EQ PUSH2 0x1725 JUMPI PUSH1 0x0 DUP1 REVERT JUMPDEST DUP1 SWAP2 POP POP SWAP3 POP SWAP3 SWAP1 POP JUMP JUMPDEST PUSH1 0x0 DUP1 PUSH1 0x0 PUSH1 0x60 DUP5 DUP7 SUB SLT ISZERO PUSH2 0x1745 JUMPI PUSH1 0x0 DUP1 REVERT JUMPDEST PUSH2 0x174E DUP5 PUSH2 0x11E0 JUMP JUMPDEST SWAP3 POP PUSH1 0x20 DUP5 ADD CALLDATALOAD PUSH8 0xFFFFFFFFFFFFFFFF DUP1 DUP3 GT ISZERO PUSH2 0x176B JUMPI PUSH1 0x0 DUP1 REVERT JUMPDEST PUSH2 0x1777 DUP8 DUP4 DUP9 ADD PUSH2 0x13E8 JUMP JUMPDEST SWAP4 POP PUSH1 0x40 DUP7 ADD CALLDATALOAD SWAP2 POP DUP1 DUP3 GT ISZERO PUSH2 0x178D JUMPI PUSH1 0x0 DUP1 REVERT JUMPDEST POP PUSH2 0x179A DUP7 DUP3 DUP8 ADD PUSH2 0x13E8 JUMP JUMPDEST SWAP2 POP POP SWAP3 POP SWAP3 POP SWAP3 JUMP JUMPDEST PUSH1 0x0 DUP1 PUSH1 0x40 DUP4 DUP6 SUB SLT ISZERO PUSH2 0x17B7 JUMPI PUSH1 0x0 DUP1 REVERT JUMPDEST PUSH2 0x17C0 DUP4 PUSH2 0x11E0 JUMP JUMPDEST SWAP2 POP PUSH2 0x17CE PUSH1 0x20 DUP5 ADD PUSH2 0x11E0 JUMP JUMPDEST SWAP1 POP SWAP3 POP SWAP3 SWAP1 POP JUMP JUMPDEST PUSH1 0x0 DUP1 PUSH1 0x0 DUP1 PUSH1 0x0 PUSH1 0xA0 DUP7 DUP9 SUB SLT ISZERO PUSH2 0x17EF JUMPI PUSH1 0x0 DUP1 REVERT JUMPDEST PUSH2 0x17F8 DUP7 PUSH2 0x11E0 JUMP JUMPDEST SWAP5 POP PUSH2 0x1806 PUSH1 0x20 DUP8 ADD PUSH2 0x11E0 JUMP JUMPDEST SWAP4 POP PUSH1 0x40 DUP7 ADD CALLDATALOAD SWAP3 POP PUSH1 0x60 DUP7 ADD CALLDATALOAD SWAP2 POP PUSH1 0x80 DUP7 ADD CALLDATALOAD PUSH8 0xFFFFFFFFFFFFFFFF DUP2 GT ISZERO PUSH2 0x1830 JUMPI PUSH1 0x0 DUP1 REVERT JUMPDEST PUSH2 0x15CE DUP9 DUP3 DUP10 ADD PUSH2 0x1511 JUMP JUMPDEST PUSH1 0x0 PUSH1 0x20 DUP3 DUP5 SUB SLT ISZERO PUSH2 0x184E JUMPI PUSH1 0x0 DUP1 REVERT JUMPDEST PUSH2 0x1259 DUP3 PUSH2 0x11E0 JUMP JUMPDEST PUSH1 0x0 DUP1 PUSH1 0x0 DUP1 PUSH1 0x80 DUP6 DUP8 SUB SLT ISZERO PUSH2 0x186D JUMPI PUSH1 0x0 DUP1 REVERT JUMPDEST PUSH2 0x1876 DUP6 PUSH2 0x11E0 JUMP JUMPDEST SWAP4 POP PUSH2 0x1884 PUSH1 0x20 DUP7 ADD PUSH2 0x11E0 JUMP JUMPDEST SWAP4 SWAP7 SWAP4 SWAP6 POP POP POP POP PUSH1 0x40 DUP3 ADD CALLDATALOAD SWAP2 PUSH1 0x60 ADD CALLDATALOAD SWAP1 JUMP JUMPDEST PUSH1 0x1 DUP2 DUP2 SHR SWAP1 DUP3 AND DUP1 PUSH2 0x18AD JUMPI PUSH1 0x7F DUP3 AND SWAP2 POP JUMPDEST PUSH1 0x20 DUP3 LT DUP2 SUB PUSH2 0x18CD JUMPI PUSH4 0x4E487B71 PUSH1 0xE0 SHL PUSH1 0x0 MSTORE PUSH1 0x22 PUSH1 0x4 MSTORE PUSH1 0x24 PUSH1 0x0 REVERT JUMPDEST POP SWAP2 SWAP1 POP JUMP JUMPDEST PUSH1 0x20 DUP1 DUP3 MSTORE PUSH1 0x2E SWAP1 DUP3 ADD MSTORE PUSH32 0x455243313135353A2063616C6C6572206973206E6F7420746F6B656E206F776E PUSH1 0x40 DUP3 ADD MSTORE PUSH14 0x195C881BDC88185C1C1C9BDD9959 PUSH1 0x92 SHL PUSH1 0x60 DUP3 ADD MSTORE PUSH1 0x80 ADD SWAP1 JUMP JUMPDEST PUSH4 0x4E487B71 PUSH1 0xE0 SHL PUSH1 0x0 MSTORE PUSH1 0x32 PUSH1 0x4 MSTORE PUSH1 0x24 PUSH1 0x0 REVERT JUMPDEST PUSH4 0x4E487B71 PUSH1 0xE0 SHL PUSH1 0x0 MSTORE PUSH1 0x11 PUSH1 0x4 MSTORE PUSH1 0x24 PUSH1 0x0 REVERT JUMPDEST PUSH1 0x0 PUSH1 0x1 DUP3 ADD PUSH2 0x195F JUMPI PUSH2 0x195F PUSH2 0x1937 JUMP JUMPDEST POP PUSH1 0x1 ADD SWAP1 JUMP JUMPDEST PUSH1 0x1F DUP3 GT ISZERO PUSH2 0x78A JUMPI PUSH1 0x0 DUP2 DUP2 MSTORE PUSH1 0x20 DUP2 KECCAK256 PUSH1 0x1F DUP6 ADD PUSH1 0x5 SHR DUP2 ADD PUSH1 0x20 DUP7 LT ISZERO PUSH2 0x198D JUMPI POP DUP1 JUMPDEST PUSH1 0x1F DUP6 ADD PUSH1 0x5 SHR DUP3 ADD SWAP2 POP JUMPDEST DUP2 DUP2 LT ISZERO PUSH2 0xBD0 JUMPI DUP3 DUP2 SSTORE PUSH1 0x1 ADD PUSH2 0x1999 JUMP JUMPDEST DUP2 MLOAD PUSH8 0xFFFFFFFFFFFFFFFF DUP2 GT ISZERO PUSH2 0x19C6 JUMPI PUSH2 0x19C6 PUSH2 0x1260 JUMP JUMPDEST PUSH2 0x19DA DUP2 PUSH2 0x19D4 DUP5 SLOAD PUSH2 0x1899 JUMP JUMPDEST DUP5 PUSH2 0x1966 JUMP JUMPDEST PUSH1 0x20 DUP1 PUSH1 0x1F DUP4 GT PUSH1 0x1 DUP2 EQ PUSH2 0x1A0F JUMPI PUSH1 0x0 DUP5 ISZERO PUSH2 0x19F7 JUMPI POP DUP6 DUP4 ADD MLOAD JUMPDEST PUSH1 0x0 NOT PUSH1 0x3 DUP7 SWAP1 SHL SHR NOT AND PUSH1 0x1 DUP6 SWAP1 SHL OR DUP6 SSTORE PUSH2 0xBD0 JUMP JUMPDEST PUSH1 0x0 DUP6 DUP2 MSTORE PUSH1 0x20 DUP2 KECCAK256 PUSH1 0x1F NOT DUP7 AND SWAP2 JUMPDEST DUP3 DUP2 LT ISZERO PUSH2 0x1A3E JUMPI DUP9 DUP7 ADD MLOAD DUP3 SSTORE SWAP5 DUP5 ADD SWAP5 PUSH1 0x1 SWAP1 SWAP2 ADD SWAP1 DUP5 ADD PUSH2 0x1A1F JUMP JUMPDEST POP DUP6 DUP3 LT ISZERO PUSH2 0x1A5C JUMPI DUP8 DUP6 ADD MLOAD PUSH1 0x0 NOT PUSH1 0x3 DUP9 SWAP1 SHL PUSH1 0xF8 AND SHR NOT AND DUP2 SSTORE JUMPDEST POP POP POP POP POP PUSH1 0x1 SWAP1 DUP2 SHL ADD SWAP1 SSTORE POP JUMP JUMPDEST PUSH1 0x20 DUP1 DUP3 MSTORE PUSH1 0x21 SWAP1 DUP3 ADD MSTORE PUSH32 0x455243313135353A206D696E7420746F20746865207A65726F20616464726573 PUSH1 0x40 DUP3 ADD MSTORE PUSH1 0x73 PUSH1 0xF8 SHL PUSH1 0x60 DUP3 ADD MSTORE PUSH1 0x80 ADD SWAP1 JUMP JUMPDEST DUP1 DUP3 ADD DUP1 DUP3 GT ISZERO PUSH2 0x45C JUMPI PUSH2 0x45C PUSH2 0x1937 JUMP JUMPDEST PUSH1 0x20 DUP1 DUP3 MSTORE PUSH1 0x28 SWAP1 DUP3 ADD MSTORE PUSH32 0x455243313135353A2069647320616E6420616D6F756E7473206C656E67746820 PUSH1 0x40 DUP3 ADD MSTORE PUSH8 0xDAD2E6DAC2E8C6D PUSH1 0xC3 SHL PUSH1 0x60 DUP3 ADD MSTORE PUSH1 0x80 ADD SWAP1 JUMP JUMPDEST PUSH1 0x20 DUP1 DUP3 MSTORE PUSH1 0x25 SWAP1 DUP3 ADD MSTORE PUSH32 0x455243313135353A207472616E7366657220746F20746865207A65726F206164 PUSH1 0x40 DUP3 ADD MSTORE PUSH5 0x6472657373 PUSH1 0xD8 SHL PUSH1 0x60 DUP3 ADD MSTORE PUSH1 0x80 ADD SWAP1 JUMP JUMPDEST PUSH1 0x20 DUP1 DUP3 MSTORE PUSH1 0x2A SWAP1 DUP3 ADD MSTORE PUSH32 0x455243313135353A20696E73756666696369656E742062616C616E636520666F PUSH1 0x40 DUP3 ADD MSTORE PUSH10 0x39103A3930B739B332B9 PUSH1 0xB1 SHL PUSH1 0x60 DUP3 ADD MSTORE PUSH1 0x80 ADD SWAP1 JUMP JUMPDEST PUSH1 0x40 DUP2 MSTORE PUSH1 0x0 PUSH2 0x1BAA PUSH1 0x40 DUP4 ADD DUP6 PUSH2 0x16A6 JUMP JUMPDEST DUP3 DUP2 SUB PUSH1 0x20 DUP5 ADD MSTORE PUSH2 0x1BBC DUP2 DUP6 PUSH2 0x16A6 JUMP JUMPDEST SWAP6 SWAP5 POP POP POP POP POP JUMP JUMPDEST PUSH1 0x1 PUSH1 0x1 PUSH1 0xA0 SHL SUB DUP7 DUP2 AND DUP3 MSTORE DUP6 AND PUSH1 0x20 DUP3 ADD MSTORE PUSH1 0x40 DUP2 ADD DUP5 SWAP1 MSTORE PUSH1 0x60 DUP2 ADD DUP4 SWAP1 MSTORE PUSH1 0xA0 PUSH1 0x80 DUP3 ADD DUP2 SWAP1 MSTORE PUSH1 0x0 SWAP1 PUSH2 0x1BFF SWAP1 DUP4 ADD DUP5 PUSH2 0x136B JUMP JUMPDEST SWAP8 SWAP7 POP POP POP POP POP POP POP JUMP JUMPDEST PUSH1 0x0 PUSH1 0x20 DUP3 DUP5 SUB SLT ISZERO PUSH2 0x1C1C JUMPI PUSH1 0x0 DUP1 REVERT JUMPDEST DUP2 MLOAD PUSH2 0x1259 DUP2 PUSH2 0x1226 JUMP JUMPDEST PUSH1 0x0 PUSH1 0x3 RETURNDATASIZE GT ISZERO PUSH2 0x1C40 JUMPI PUSH1 0x4 PUSH1 0x0 DUP1 RETURNDATACOPY POP PUSH1 0x0 MLOAD PUSH1 0xE0 SHR JUMPDEST SWAP1 JUMP JUMPDEST PUSH1 0x0 PUSH1 0x44 RETURNDATASIZE LT ISZERO PUSH2 0x1C51 JUMPI SWAP1 JUMP JUMPDEST PUSH1 0x40 MLOAD PUSH1 0x3 NOT RETURNDATASIZE DUP2 ADD PUSH1 0x4 DUP4 RETURNDATACOPY DUP2 MLOAD RETURNDATASIZE PUSH8 0xFFFFFFFFFFFFFFFF DUP2 PUSH1 0x24 DUP5 ADD GT DUP2 DUP5 GT OR ISZERO PUSH2 0x1C81 JUMPI POP POP POP POP POP SWAP1 JUMP JUMPDEST DUP3 DUP6 ADD SWAP2 POP DUP2 MLOAD DUP2 DUP2 GT ISZERO PUSH2 0x1C99 JUMPI POP POP POP POP POP POP SWAP1 JUMP JUMPDEST DUP5 RETURNDATASIZE DUP8 ADD ADD PUSH1 0x20 DUP3 DUP6 ADD ADD GT ISZERO PUSH2 0x1CB3 JUMPI POP POP POP POP POP POP SWAP1 JUMP JUMPDEST PUSH2 0x1CC2 PUSH1 0x20 DUP3 DUP7 ADD ADD DUP8 PUSH2 0x1276 JUMP JUMPDEST POP SWAP1 SWAP6 SWAP5 POP POP POP POP POP JUMP JUMPDEST PUSH1 0x20 DUP1 DUP3 MSTORE PUSH1 0x28 SWAP1 DUP3 ADD MSTORE PUSH32 0x455243313135353A204552433131353552656365697665722072656A65637465 PUSH1 0x40 DUP3 ADD MSTORE PUSH8 0x6420746F6B656E73 PUSH1 0xC0 SHL PUSH1 0x60 DUP3 ADD MSTORE PUSH1 0x80 ADD SWAP1 JUMP JUMPDEST PUSH1 0x1 PUSH1 0x1 PUSH1 0xA0 SHL SUB DUP7 DUP2 AND DUP3 MSTORE DUP6 AND PUSH1 0x20 DUP3 ADD MSTORE PUSH1 0xA0 PUSH1 0x40 DUP3 ADD DUP2 SWAP1 MSTORE PUSH1 0x0 SWAP1 PUSH2 0x1D41 SWAP1 DUP4 ADD DUP7 PUSH2 0x16A6 JUMP JUMPDEST DUP3 DUP2 SUB PUSH1 0x60 DUP5 ADD MSTORE PUSH2 0x1D53 DUP2 DUP7 PUSH2 0x16A6 JUMP JUMPDEST SWAP1 POP DUP3 DUP2 SUB PUSH1 0x80 DUP5 ADD MSTORE PUSH2 0x1D67 DUP2 DUP6 PUSH2 0x136B JUMP JUMPDEST SWAP9 SWAP8 POP POP POP POP POP POP POP POP JUMP INVALID LOG2 PUSH5 0x6970667358 0x22 SLT KECCAK256 LOG2 0xAC PUSH14 0xB3B853862CECB7C0DBBC9E1B9171 JUMPI SHR SELFDESTRUCT EXTCODESIZE 0xCB NOT PUSH15 0x8711953A3CC54D5D64736F6C634300 ADDMOD ISZERO STOP CALLER PUSH9 0x747470733A2F2F7765 PUSH20 0x7465726F732E6578616D706C652F6170692F6C61 PUSH15 0x642F7B69647D2E6A736F6E00000000 "},"methodIdentifiers":{"KINGS_LANDING()":"50aec567","THE_IRON_ISLANDS()":"5db2a645","THE_NORTH()":"0e672f7c","THE_REACH()":"19387d37","THE_RIVERLANDS()":"236775fc","THE_STORMLANDS()":"6d25c620","THE_VALE()":"ac51da14","THE_WESTERLANDS()":"7285e2f7","WESTEROS()":"57959809","balanceOf(address,uint256)":"00fdd58e","balanceOfBatch(address[],uint256[])":"4e1273f4","collectionName()":"e5326ab1","isApprovedForAll(address,address)":"e985e9c5","mint(address,uint256,uint256)":"156e29f6","mintBatch(address,uint256[],uint256[])":"d81d0a15","owner()":"8da5cb5b","ownerOf(uint256)":"6352211e","renounceOwnership()":"715018a6","safeBatchTransfer(address,address,uint256[],uint256[])":"13cdd29d","safeBatchTransferFrom(address,address,uint256[],uint256[],bytes)":"2eb2c2d6","safeTransfer(address,address,uint256,uint256)":"f8f39e30","safeTransferFrom(address,address,uint256,uint256,bytes)":"f242432a","setApprovalForAll(address,bool)":"a22cb465","setURI(string)":"02fe5305","supportsInterface(bytes4)":"01ffc9a7","transferOwnership(address)":"f2fde38b","uri(uint256)":"0e89341c"}}}}}