{"contracts/NFTAuctionMarketplace.sol":{"NFTAuctionMarketplace":{"abi":[{"inputs":[{"internalType":"address","name":"_nftContractAddress","type":"address"},{"internalType":"address","name":"_siliquaCoinContractAddress","type":"address"},{"internalType":"uint256","name":"_commissionPercentage","type":"uint256"}],"stateMutability":"nonpayable","type":"constructor"},{"anonymous":false,"inputs":[{"indexed":true,"internalType":"uint256","name":"tokenId","type":"uint256"},{"indexed":false,"internalType":"uint256","name":"startingPrice","type":"uint256"},{"indexed":false,"internalType":"uint256","name":"auctionEndTime","type":"uint256"}],"name":"AuctionCreated","type":"event"},{"anonymous":false,"inputs":[{"indexed":true,"internalType":"uint256","name":"tokenId","type":"uint256"},{"indexed":true,"internalType":"address","name":"winner","type":"address"},{"indexed":false,"internalType":"uint256","name":"winningBid","type":"uint256"}],"name":"AuctionEnded","type":"event"},{"anonymous":false,"inputs":[{"indexed":true,"internalType":"uint256","name":"tokenId","type":"uint256"},{"indexed":true,"internalType":"address","name":"bidder","type":"address"},{"indexed":false,"internalType":"uint256","name":"bidAmount","type":"uint256"}],"name":"BidPlaced","type":"event"},{"anonymous":false,"inputs":[{"indexed":true,"internalType":"address","name":"previousOwner","type":"address"},{"indexed":true,"internalType":"address","name":"newOwner","type":"address"}],"name":"OwnershipTransferred","type":"event"},{"inputs":[{"internalType":"address","name":"seller","type":"address"}],"name":"approveSeller","outputs":[],"stateMutability":"nonpayable","type":"function"},{"inputs":[{"internalType":"uint256","name":"","type":"uint256"}],"name":"auctions","outputs":[{"internalType":"address","name":"seller","type":"address"},{"internalType":"uint256","name":"tokenId","type":"uint256"},{"internalType":"uint256","name":"startingPrice","type":"uint256"},{"internalType":"uint256","name":"highestBid","type":"uint256"},{"internalType":"address","name":"highestBidder","type":"address"},{"internalType":"uint256","name":"auctionEndTime","type":"uint256"},{"internalType":"bool","name":"ended","type":"bool"}],"stateMutability":"view","type":"function"},{"inputs":[],"name":"commissionPercentage","outputs":[{"internalType":"uint256","name":"","type":"uint256"}],"stateMutability":"view","type":"function"},{"inputs":[{"internalType":"uint256","name":"tokenId","type":"uint256"},{"internalType":"uint256","name":"startingPrice","type":"uint256"},{"internalType":"uint256","name":"duration","type":"uint256"}],"name":"createAuction","outputs":[],"stateMutability":"nonpayable","type":"function"},{"inputs":[{"internalType":"uint256","name":"tokenId","type":"uint256"}],"name":"endAuction","outputs":[],"stateMutability":"nonpayable","type":"function"},{"inputs":[],"name":"nextListingId","outputs":[{"internalType":"uint256","name":"","type":"uint256"}],"stateMutability":"view","type":"function"},{"inputs":[],"name":"nftToken","outputs":[{"internalType":"contract GoTLandsNFT","name":"","type":"address"}],"stateMutability":"view","type":"function"},{"inputs":[],"name":"owner","outputs":[{"internalType":"address","name":"","type":"address"}],"stateMutability":"view","type":"function"},{"inputs":[{"internalType":"uint256","name":"tokenId","type":"uint256"},{"internalType":"uint256","name":"bidAmount","type":"uint256"}],"name":"placeBid","outputs":[],"stateMutability":"nonpayable","type":"function"},{"inputs":[],"name":"renounceOwnership","outputs":[],"stateMutability":"nonpayable","type":"function"},{"inputs":[{"internalType":"address","name":"seller","type":"address"}],"name":"revokeSellerApproval","outputs":[],"stateMutability":"nonpayable","type":"function"},{"inputs":[{"internalType":"address","name":"_nftContractAddress","type":"address"}],"name":"setNFTContract","outputs":[],"stateMutability":"nonpayable","type":"function"},{"inputs":[{"internalType":"address","name":"_siliquaCoinAddress","type":"address"}],"name":"setSiliquaCoin","outputs":[],"stateMutability":"nonpayable","type":"function"},{"inputs":[],"name":"token","outputs":[{"internalType":"contract IERC20","name":"","type":"address"}],"stateMutability":"view","type":"function"},{"inputs":[],"name":"totalCommissionEarned","outputs":[{"internalType":"uint256","name":"","type":"uint256"}],"stateMutability":"view","type":"function"},{"inputs":[{"internalType":"address","name":"newOwner","type":"address"}],"name":"transferOwnership","outputs":[],"stateMutability":"nonpayable","type":"function"},{"inputs":[{"internalType":"uint256","name":"_newCommissionPercentage","type":"uint256"}],"name":"updateCommissionPercentage","outputs":[],"stateMutability":"nonpayable","type":"function"}],"evm":{"bytecode":{"linkReferences":{},"object":"6080604052600060065534801561001557600080fd5b50604051611127380380611127833981016040819052610034916100e1565b61003d33610075565b600180546001600160a01b039485166001600160a01b031991821617909155600280549390941692169190911790915560035561011d565b600080546001600160a01b038381166001600160a01b0319831681178455604051919092169283917f8be0079c531659141344cd1fd0a4f28419497f9722a3daafe3b4186f6b6457e09190a35050565b80516001600160a01b03811681146100dc57600080fd5b919050565b6000806000606084860312156100f657600080fd5b6100ff846100c5565b925061010d602085016100c5565b9150604084015190509250925092565b610ffb8061012c6000396000f3fe608060405234801561001057600080fd5b506004361061010b5760003560e01c8063aaccf1ec116100a2578063cda4beef11610071578063cda4beef1461028c578063d06fcba81461029f578063d575fe64146102b2578063f2fde38b146102bb578063fc0c546a146102ce57600080fd5b8063aaccf1ec14610246578063b226a9661461025d578063b9a2de3a14610270578063c73cdd231461028357600080fd5b8063715018a6116100de578063715018a6146101f35780638ce2199e146101fb5780638da5cb5b1461020e578063a7ccabdf1461023357600080fd5b806313bc2b4914610110578063571a26a01461012557806357c90de5146101cd5780635ec5d856146101e0575b600080fd5b61012361011e366004610e57565b6102e1565b005b610181610133366004610e7b565b600560208190526000918252604090912080546001820154600283015460038401546004850154958501546006909501546001600160a01b0394851696939592949193909116919060ff1687565b604080516001600160a01b03988916815260208101979097528601949094526060850192909252909316608083015260a082019290925290151560c082015260e0015b60405180910390f35b6101236101db366004610e94565b61030b565b6101236101ee366004610e57565b61058f565b610123610602565b610123610209366004610e7b565b610616565b6000546001600160a01b03165b6040516001600160a01b0390911681526020016101c4565b610123610241366004610e57565b610674565b61024f60065481565b6040519081526020016101c4565b61012361026b366004610e57565b61069e565b61012361027e366004610e7b565b6106df565b61024f60045481565b61012361029a366004610eb6565b610a73565b60015461021b906001600160a01b031681565b61024f60035481565b6101236102c9366004610e57565b610d1f565b60025461021b906001600160a01b031681565b6102e9610d98565b600280546001600160a01b0319166001600160a01b0392909216919091179055565b6000828152600560205260409020600681015460ff161561036b5760405162461bcd60e51b8152602060048201526015602482015274105d58dd1a5bdb88185b1c9958591e48195b991959605a1b60448201526064015b60405180910390fd5b806005015442106103b25760405162461bcd60e51b8152602060048201526011602482015270105d58dd1a5bdb881a185cc8195b991959607a1b6044820152606401610362565b806003015482116104245760405162461bcd60e51b815260206004820152603660248201527f42696420616d6f756e74206d75737420626520686967686572207468616e20746044820152751a194818dd5c9c995b9d081a1a59da195cdd08189a5960521b6064820152608401610362565b60048101546001600160a01b0316156104bb57600254600482810154600384015460405163a9059cbb60e01b81526001600160a01b039283169381019390935260248301529091169063a9059cbb906044016020604051808303816000875af1158015610495573d6000803e3d6000fd5b505050506040513d601f19601f820116820180604052508101906104b99190610ee2565b505b6002546040516323b872dd60e01b8152336004820152306024820152604481018490526001600160a01b03909116906323b872dd906064016020604051808303816000875af1158015610512573d6000803e3d6000fd5b505050506040513d601f19601f820116820180604052508101906105369190610ee2565b50600381018290556004810180546001600160a01b0319163390811790915560405183815284907f0e54eff26401bf69b81b26f60bd85ef47f5d85275c1d268d84f68d6897431c479060200160405180910390a3505050565b610597610d98565b6001805460405163a22cb46560e01b81526001600160a01b038481166004830152602482019390935291169063a22cb465906044015b600060405180830381600087803b1580156105e757600080fd5b505af11580156105fb573d6000803e3d6000fd5b5050505050565b61060a610d98565b6106146000610df2565b565b61061e610d98565b606481111561066f5760405162461bcd60e51b815260206004820152601d60248201527f496e76616c696420636f6d6d697373696f6e2070657263656e746167650000006044820152606401610362565b600355565b61067c610d98565b600180546001600160a01b0319166001600160a01b0392909216919091179055565b6106a6610d98565b60015460405163a22cb46560e01b81526001600160a01b038381166004830152600060248301529091169063a22cb465906044016105cd565b6106e7610d98565b6000818152600560205260409020600681015460ff16156107425760405162461bcd60e51b8152602060048201526015602482015274105d58dd1a5bdb88185b1c9958591e48195b991959605a1b6044820152606401610362565b80600501544210156107965760405162461bcd60e51b815260206004820152601960248201527f41756374696f6e20686173206e6f742079657420656e646564000000000000006044820152606401610362565b60068101805460ff1916600117905560048101546001600160a01b0316156109cd576000606460035483600301546107ce9190610f1a565b6107d89190610f37565b905060008183600301546107ec9190610f59565b60025460048501549192506001600160a01b03908116916323b872dd911661081c6000546001600160a01b031690565b6040516001600160e01b031960e085901b1681526001600160a01b03928316600482015291166024820152604481018590526064016020604051808303816000875af1158015610870573d6000803e3d6000fd5b505050506040513d601f19601f820116820180604052508101906108949190610ee2565b50600254835460405163a9059cbb60e01b81526001600160a01b0391821660048201526024810184905291169063a9059cbb906044016020604051808303816000875af11580156108e9573d6000803e3d6000fd5b505050506040513d601f19601f8201168201806040525081019061090d9190610ee2565b5060018054600480860154604051637f4c824d60e11b81526001600160a01b039384169463fe99049a9461094a943094909116928b929101610f6c565b600060405180830381600087803b15801561096457600080fd5b505af1158015610978573d6000803e3d6000fd5b50505050600483015460038401546040519081526001600160a01b039091169085907fd2aa34a4fdbbc6dff6a3e56f46e0f3ae2a31d7785ff3487aa5c95c642acea5019060200160405180910390a350505050565b600180548254604051637f4c824d60e11b81526001600160a01b039283169363fe99049a93610a059330939116918891600401610f6c565b600060405180830381600087803b158015610a1f57600080fd5b505af1158015610a33573d6000803e3d6000fd5b5050604051600080825292508491507fd2aa34a4fdbbc6dff6a3e56f46e0f3ae2a31d7785ff3487aa5c95c642acea5019060200160405180910390a35050565b6001546040516331a9108f60e11b81526004810185905233916001600160a01b031690636352211e90602401602060405180830381865afa158015610abc573d6000803e3d6000fd5b505050506040513d601f19601f82011682018060405250810190610ae09190610f95565b6001600160a01b031614610b365760405162461bcd60e51b815260206004820152601860248201527f596f7520646f6e2774206f776e207468697320746f6b656e00000000000000006044820152606401610362565b60008381526005602052604090206006015460ff1615610ba65760405162461bcd60e51b815260206004820152602560248201527f41756374696f6e20666f72207468697320746f6b656e20616c72656164792065604482015264786973747360d81b6064820152608401610362565b6040805160e08101825233815260208101859052908101839052606081018390526000608082015260a08101610bdc8342610fb2565b8152600060209182018190528581526005808352604091829020845181546001600160a01b03199081166001600160a01b0392831617835594860151600180840191909155868501516002840155606087015160038401556080870151600480850180549098169184169190911790965560a08701519383019390935560c0909501516006909101805460ff191691151591909117905580549151637f4c824d60e11b8152919093169263fe99049a92610c9c92339230928a9201610f6c565b600060405180830381600087803b158015610cb657600080fd5b505af1158015610cca573d6000803e3d6000fd5b505050600084815260056020818152604092839020909101548251868152918201528592507fd6eddd1118d71820909c1197aa966dbc15ed6f508554252169cc3d5ccac756ca910160405180910390a2505050565b610d27610d98565b6001600160a01b038116610d8c5760405162461bcd60e51b815260206004820152602660248201527f4f776e61626c653a206e6577206f776e657220697320746865207a65726f206160448201526564647265737360d01b6064820152608401610362565b610d9581610df2565b50565b6000546001600160a01b031633146106145760405162461bcd60e51b815260206004820181905260248201527f4f776e61626c653a2063616c6c6572206973206e6f7420746865206f776e65726044820152606401610362565b600080546001600160a01b038381166001600160a01b0319831681178455604051919092169283917f8be0079c531659141344cd1fd0a4f28419497f9722a3daafe3b4186f6b6457e09190a35050565b6001600160a01b0381168114610d9557600080fd5b600060208284031215610e6957600080fd5b8135610e7481610e42565b9392505050565b600060208284031215610e8d57600080fd5b5035919050565b60008060408385031215610ea757600080fd5b50508035926020909101359150565b600080600060608486031215610ecb57600080fd5b505081359360208301359350604090920135919050565b600060208284031215610ef457600080fd5b81518015158114610e7457600080fd5b634e487b7160e01b600052601160045260246000fd5b8082028115828204841417610f3157610f31610f04565b92915050565b600082610f5457634e487b7160e01b600052601260045260246000fd5b500490565b81810381811115610f3157610f31610f04565b6001600160a01b0394851681529290931660208301526040820152606081019190915260800190565b600060208284031215610fa757600080fd5b8151610e7481610e42565b80820180821115610f3157610f31610f0456fea2646970667358221220605d3e4211ade9902708d9a2153d08f5ee1308884f587a348b72b535df3f4c4164736f6c63430008150033","opcodes":"PUSH1 0x80 PUSH1 0x40 MSTORE PUSH1 0x0 PUSH1 0x6 SSTORE CALLVALUE DUP1 ISZERO PUSH2 0x15 JUMPI PUSH1 0x0 DUP1 REVERT JUMPDEST POP PUSH1 0x40 MLOAD PUSH2 0x1127 CODESIZE SUB DUP1 PUSH2 0x1127 DUP4 CODECOPY DUP2 ADD PUSH1 0x40 DUP2 SWAP1 MSTORE PUSH2 0x34 SWAP2 PUSH2 0xE1 JUMP JUMPDEST PUSH2 0x3D CALLER PUSH2 0x75 JUMP JUMPDEST PUSH1 0x1 DUP1 SLOAD PUSH1 0x1 PUSH1 0x1 PUSH1 0xA0 SHL SUB SWAP5 DUP6 AND PUSH1 0x1 PUSH1 0x1 PUSH1 0xA0 SHL SUB NOT SWAP2 DUP3 AND OR SWAP1 SWAP2 SSTORE PUSH1 0x2 DUP1 SLOAD SWAP4 SWAP1 SWAP5 AND SWAP3 AND SWAP2 SWAP1 SWAP2 OR SWAP1 SWAP2 SSTORE PUSH1 0x3 SSTORE PUSH2 0x11D JUMP JUMPDEST PUSH1 0x0 DUP1 SLOAD PUSH1 0x1 PUSH1 0x1 PUSH1 0xA0 SHL SUB DUP4 DUP2 AND PUSH1 0x1 PUSH1 0x1 PUSH1 0xA0 SHL SUB NOT DUP4 AND DUP2 OR DUP5 SSTORE PUSH1 0x40 MLOAD SWAP2 SWAP1 SWAP3 AND SWAP3 DUP4 SWAP2 PUSH32 0x8BE0079C531659141344CD1FD0A4F28419497F9722A3DAAFE3B4186F6B6457E0 SWAP2 SWAP1 LOG3 POP POP JUMP JUMPDEST DUP1 MLOAD PUSH1 0x1 PUSH1 0x1 PUSH1 0xA0 SHL SUB DUP2 AND DUP2 EQ PUSH2 0xDC JUMPI PUSH1 0x0 DUP1 REVERT JUMPDEST SWAP2 SWAP1 POP JUMP JUMPDEST PUSH1 0x0 DUP1 PUSH1 0x0 PUSH1 0x60 DUP5 DUP7 SUB SLT ISZERO PUSH2 0xF6 JUMPI PUSH1 0x0 DUP1 REVERT JUMPDEST PUSH2 0xFF DUP5 PUSH2 0xC5 JUMP JUMPDEST SWAP3 POP PUSH2 0x10D PUSH1 0x20 DUP6 ADD PUSH2 0xC5 JUMP JUMPDEST SWAP2 POP PUSH1 0x40 DUP5 ADD MLOAD SWAP1 POP SWAP3 POP SWAP3 POP SWAP3 JUMP JUMPDEST PUSH2 0xFFB DUP1 PUSH2 0x12C PUSH1 0x0 CODECOPY PUSH1 0x0 RETURN INVALID PUSH1 0x80 PUSH1 0x40 MSTORE CALLVALUE DUP1 ISZERO PUSH2 0x10 JUMPI PUSH1 0x0 DUP1 REVERT JUMPDEST POP PUSH1 0x4 CALLDATASIZE LT PUSH2 0x10B JUMPI PUSH1 0x0 CALLDATALOAD PUSH1 0xE0 SHR DUP1 PUSH4 0xAACCF1EC GT PUSH2 0xA2 JUMPI DUP1 PUSH4 0xCDA4BEEF GT PUSH2 0x71 JUMPI DUP1 PUSH4 0xCDA4BEEF EQ PUSH2 0x28C JUMPI DUP1 PUSH4 0xD06FCBA8 EQ PUSH2 0x29F JUMPI DUP1 PUSH4 0xD575FE64 EQ PUSH2 0x2B2 JUMPI DUP1 PUSH4 0xF2FDE38B EQ PUSH2 0x2BB JUMPI DUP1 PUSH4 0xFC0C546A EQ PUSH2 0x2CE JUMPI PUSH1 0x0 DUP1 REVERT JUMPDEST DUP1 PUSH4 0xAACCF1EC EQ PUSH2 0x246 JUMPI DUP1 PUSH4 0xB226A966 EQ PUSH2 0x25D JUMPI DUP1 PUSH4 0xB9A2DE3A EQ PUSH2 0x270 JUMPI DUP1 PUSH4 0xC73CDD23 EQ PUSH2 0x283 JUMPI PUSH1 0x0 DUP1 REVERT JUMPDEST DUP1 PUSH4 0x715018A6 GT PUSH2 0xDE JUMPI DUP1 PUSH4 0x715018A6 EQ PUSH2 0x1F3 JUMPI DUP1 PUSH4 0x8CE2199E EQ PUSH2 0x1FB JUMPI DUP1 PUSH4 0x8DA5CB5B EQ PUSH2 0x20E JUMPI DUP1 PUSH4 0xA7CCABDF EQ PUSH2 0x233 JUMPI PUSH1 0x0 DUP1 REVERT JUMPDEST DUP1 PUSH4 0x13BC2B49 EQ PUSH2 0x110 JUMPI DUP1 PUSH4 0x571A26A0 EQ PUSH2 0x125 JUMPI DUP1 PUSH4 0x57C90DE5 EQ PUSH2 0x1CD JUMPI DUP1 PUSH4 0x5EC5D856 EQ PUSH2 0x1E0 JUMPI JUMPDEST PUSH1 0x0 DUP1 REVERT JUMPDEST PUSH2 0x123 PUSH2 0x11E CALLDATASIZE PUSH1 0x4 PUSH2 0xE57 JUMP JUMPDEST PUSH2 0x2E1 JUMP JUMPDEST STOP JUMPDEST PUSH2 0x181 PUSH2 0x133 CALLDATASIZE PUSH1 0x4 PUSH2 0xE7B JUMP JUMPDEST PUSH1 0x5 PUSH1 0x20 DUP2 SWAP1 MSTORE PUSH1 0x0 SWAP2 DUP3 MSTORE PUSH1 0x40 SWAP1 SWAP2 KECCAK256 DUP1 SLOAD PUSH1 0x1 DUP3 ADD SLOAD PUSH1 0x2 DUP4 ADD SLOAD PUSH1 0x3 DUP5 ADD SLOAD PUSH1 0x4 DUP6 ADD SLOAD SWAP6 DUP6 ADD SLOAD PUSH1 0x6 SWAP1 SWAP6 ADD SLOAD PUSH1 0x1 PUSH1 0x1 PUSH1 0xA0 SHL SUB SWAP5 DUP6 AND SWAP7 SWAP4 SWAP6 SWAP3 SWAP5 SWAP2 SWAP4 SWAP1 SWAP2 AND SWAP2 SWAP1 PUSH1 0xFF AND DUP8 JUMP JUMPDEST PUSH1 0x40 DUP1 MLOAD PUSH1 0x1 PUSH1 0x1 PUSH1 0xA0 SHL SUB SWAP9 DUP10 AND DUP2 MSTORE PUSH1 0x20 DUP2 ADD SWAP8 SWAP1 SWAP8 MSTORE DUP7 ADD SWAP5 SWAP1 SWAP5 MSTORE PUSH1 0x60 DUP6 ADD SWAP3 SWAP1 SWAP3 MSTORE SWAP1 SWAP4 AND PUSH1 0x80 DUP4 ADD MSTORE PUSH1 0xA0 DUP3 ADD SWAP3 SWAP1 SWAP3 MSTORE SWAP1 ISZERO ISZERO PUSH1 0xC0 DUP3 ADD MSTORE PUSH1 0xE0 ADD JUMPDEST PUSH1 0x40 MLOAD DUP1 SWAP2 SUB SWAP1 RETURN JUMPDEST PUSH2 0x123 PUSH2 0x1DB CALLDATASIZE PUSH1 0x4 PUSH2 0xE94 JUMP JUMPDEST PUSH2 0x30B JUMP JUMPDEST PUSH2 0x123 PUSH2 0x1EE CALLDATASIZE PUSH1 0x4 PUSH2 0xE57 JUMP JUMPDEST PUSH2 0x58F JUMP JUMPDEST PUSH2 0x123 PUSH2 0x602 JUMP JUMPDEST PUSH2 0x123 PUSH2 0x209 CALLDATASIZE PUSH1 0x4 PUSH2 0xE7B JUMP JUMPDEST PUSH2 0x616 JUMP JUMPDEST PUSH1 0x0 SLOAD PUSH1 0x1 PUSH1 0x1 PUSH1 0xA0 SHL SUB AND JUMPDEST PUSH1 0x40 MLOAD PUSH1 0x1 PUSH1 0x1 PUSH1 0xA0 SHL SUB SWAP1 SWAP2 AND DUP2 MSTORE PUSH1 0x20 ADD PUSH2 0x1C4 JUMP JUMPDEST PUSH2 0x123 PUSH2 0x241 CALLDATASIZE PUSH1 0x4 PUSH2 0xE57 JUMP JUMPDEST PUSH2 0x674 JUMP JUMPDEST PUSH2 0x24F PUSH1 0x6 SLOAD DUP2 JUMP JUMPDEST PUSH1 0x40 MLOAD SWAP1 DUP2 MSTORE PUSH1 0x20 ADD PUSH2 0x1C4 JUMP JUMPDEST PUSH2 0x123 PUSH2 0x26B CALLDATASIZE PUSH1 0x4 PUSH2 0xE57 JUMP JUMPDEST PUSH2 0x69E JUMP JUMPDEST PUSH2 0x123 PUSH2 0x27E CALLDATASIZE PUSH1 0x4 PUSH2 0xE7B JUMP JUMPDEST PUSH2 0x6DF JUMP JUMPDEST PUSH2 0x24F PUSH1 0x4 SLOAD DUP2 JUMP JUMPDEST PUSH2 0x123 PUSH2 0x29A CALLDATASIZE PUSH1 0x4 PUSH2 0xEB6 JUMP JUMPDEST PUSH2 0xA73 JUMP JUMPDEST PUSH1 0x1 SLOAD PUSH2 0x21B SWAP1 PUSH1 0x1 PUSH1 0x1 PUSH1 0xA0 SHL SUB AND DUP2 JUMP JUMPDEST PUSH2 0x24F PUSH1 0x3 SLOAD DUP2 JUMP JUMPDEST PUSH2 0x123 PUSH2 0x2C9 CALLDATASIZE PUSH1 0x4 PUSH2 0xE57 JUMP JUMPDEST PUSH2 0xD1F JUMP JUMPDEST PUSH1 0x2 SLOAD PUSH2 0x21B SWAP1 PUSH1 0x1 PUSH1 0x1 PUSH1 0xA0 SHL SUB AND DUP2 JUMP JUMPDEST PUSH2 0x2E9 PUSH2 0xD98 JUMP JUMPDEST PUSH1 0x2 DUP1 SLOAD PUSH1 0x1 PUSH1 0x1 PUSH1 0xA0 SHL SUB NOT AND PUSH1 0x1 PUSH1 0x1 PUSH1 0xA0 SHL SUB SWAP3 SWAP1 SWAP3 AND SWAP2 SWAP1 SWAP2 OR SWAP1 SSTORE JUMP JUMPDEST PUSH1 0x0 DUP3 DUP2 MSTORE PUSH1 0x5 PUSH1 0x20 MSTORE PUSH1 0x40 SWAP1 KECCAK256 PUSH1 0x6 DUP2 ADD SLOAD PUSH1 0xFF AND ISZERO PUSH2 0x36B JUMPI PUSH1 0x40 MLOAD PUSH3 0x461BCD PUSH1 0xE5 SHL DUP2 MSTORE PUSH1 0x20 PUSH1 0x4 DUP3 ADD MSTORE PUSH1 0x15 PUSH1 0x24 DUP3 ADD MSTORE PUSH21 0x105D58DD1A5BDB88185B1C9958591E48195B991959 PUSH1 0x5A SHL PUSH1 0x44 DUP3 ADD MSTORE PUSH1 0x64 ADD JUMPDEST PUSH1 0x40 MLOAD DUP1 SWAP2 SUB SWAP1 REVERT JUMPDEST DUP1 PUSH1 0x5 ADD SLOAD TIMESTAMP LT PUSH2 0x3B2 JUMPI PUSH1 0x40 MLOAD PUSH3 0x461BCD PUSH1 0xE5 SHL DUP2 MSTORE PUSH1 0x20 PUSH1 0x4 DUP3 ADD MSTORE PUSH1 0x11 PUSH1 0x24 DUP3 ADD MSTORE PUSH17 0x105D58DD1A5BDB881A185CC8195B991959 PUSH1 0x7A SHL PUSH1 0x44 DUP3 ADD MSTORE PUSH1 0x64 ADD PUSH2 0x362 JUMP JUMPDEST DUP1 PUSH1 0x3 ADD SLOAD DUP3 GT PUSH2 0x424 JUMPI PUSH1 0x40 MLOAD PUSH3 0x461BCD PUSH1 0xE5 SHL DUP2 MSTORE PUSH1 0x20 PUSH1 0x4 DUP3 ADD MSTORE PUSH1 0x36 PUSH1 0x24 DUP3 ADD MSTORE PUSH32 0x42696420616D6F756E74206D75737420626520686967686572207468616E2074 PUSH1 0x44 DUP3 ADD MSTORE PUSH22 0x1A194818DD5C9C995B9D081A1A59DA195CDD08189A59 PUSH1 0x52 SHL PUSH1 0x64 DUP3 ADD MSTORE PUSH1 0x84 ADD PUSH2 0x362 JUMP JUMPDEST PUSH1 0x4 DUP2 ADD SLOAD PUSH1 0x1 PUSH1 0x1 PUSH1 0xA0 SHL SUB AND ISZERO PUSH2 0x4BB JUMPI PUSH1 0x2 SLOAD PUSH1 0x4 DUP3 DUP2 ADD SLOAD PUSH1 0x3 DUP5 ADD SLOAD PUSH1 0x40 MLOAD PUSH4 0xA9059CBB PUSH1 0xE0 SHL DUP2 MSTORE PUSH1 0x1 PUSH1 0x1 PUSH1 0xA0 SHL SUB SWAP3 DUP4 AND SWAP4 DUP2 ADD SWAP4 SWAP1 SWAP4 MSTORE PUSH1 0x24 DUP4 ADD MSTORE SWAP1 SWAP2 AND SWAP1 PUSH4 0xA9059CBB SWAP1 PUSH1 0x44 ADD PUSH1 0x20 PUSH1 0x40 MLOAD DUP1 DUP4 SUB DUP2 PUSH1 0x0 DUP8 GAS CALL ISZERO DUP1 ISZERO PUSH2 0x495 JUMPI RETURNDATASIZE PUSH1 0x0 DUP1 RETURNDATACOPY RETURNDATASIZE PUSH1 0x0 REVERT JUMPDEST POP POP POP POP PUSH1 0x40 MLOAD RETURNDATASIZE PUSH1 0x1F NOT PUSH1 0x1F DUP3 ADD AND DUP3 ADD DUP1 PUSH1 0x40 MSTORE POP DUP2 ADD SWAP1 PUSH2 0x4B9 SWAP2 SWAP1 PUSH2 0xEE2 JUMP JUMPDEST POP JUMPDEST PUSH1 0x2 SLOAD PUSH1 0x40 MLOAD PUSH4 0x23B872DD PUSH1 0xE0 SHL DUP2 MSTORE CALLER PUSH1 0x4 DUP3 ADD MSTORE ADDRESS PUSH1 0x24 DUP3 ADD MSTORE PUSH1 0x44 DUP2 ADD DUP5 SWAP1 MSTORE PUSH1 0x1 PUSH1 0x1 PUSH1 0xA0 SHL SUB SWAP1 SWAP2 AND SWAP1 PUSH4 0x23B872DD SWAP1 PUSH1 0x64 ADD PUSH1 0x20 PUSH1 0x40 MLOAD DUP1 DUP4 SUB DUP2 PUSH1 0x0 DUP8 GAS CALL ISZERO DUP1 ISZERO PUSH2 0x512 JUMPI RETURNDATASIZE PUSH1 0x0 DUP1 RETURNDATACOPY RETURNDATASIZE PUSH1 0x0 REVERT JUMPDEST POP POP POP POP PUSH1 0x40 MLOAD RETURNDATASIZE PUSH1 0x1F NOT PUSH1 0x1F DUP3 ADD AND DUP3 ADD DUP1 PUSH1 0x40 MSTORE POP DUP2 ADD SWAP1 PUSH2 0x536 SWAP2 SWAP1 PUSH2 0xEE2 JUMP JUMPDEST POP PUSH1 0x3 DUP2 ADD DUP3 SWAP1 SSTORE PUSH1 0x4 DUP2 ADD DUP1 SLOAD PUSH1 0x1 PUSH1 0x1 PUSH1 0xA0 SHL SUB NOT AND CALLER SWAP1 DUP2 OR SWAP1 SWAP2 SSTORE PUSH1 0x40 MLOAD DUP4 DUP2 MSTORE DUP5 SWAP1 PUSH32 0xE54EFF26401BF69B81B26F60BD85EF47F5D85275C1D268D84F68D6897431C47 SWAP1 PUSH1 0x20 ADD PUSH1 0x40 MLOAD DUP1 SWAP2 SUB SWAP1 LOG3 POP POP POP JUMP JUMPDEST PUSH2 0x597 PUSH2 0xD98 JUMP JUMPDEST PUSH1 0x1 DUP1 SLOAD PUSH1 0x40 MLOAD PUSH4 0xA22CB465 PUSH1 0xE0 SHL DUP2 MSTORE PUSH1 0x1 PUSH1 0x1 PUSH1 0xA0 SHL SUB DUP5 DUP2 AND PUSH1 0x4 DUP4 ADD MSTORE PUSH1 0x24 DUP3 ADD SWAP4 SWAP1 SWAP4 MSTORE SWAP2 AND SWAP1 PUSH4 0xA22CB465 SWAP1 PUSH1 0x44 ADD JUMPDEST PUSH1 0x0 PUSH1 0x40 MLOAD DUP1 DUP4 SUB DUP2 PUSH1 0x0 DUP8 DUP1 EXTCODESIZE ISZERO DUP1 ISZERO PUSH2 0x5E7 JUMPI PUSH1 0x0 DUP1 REVERT JUMPDEST POP GAS CALL ISZERO DUP1 ISZERO PUSH2 0x5FB JUMPI RETURNDATASIZE PUSH1 0x0 DUP1 RETURNDATACOPY RETURNDATASIZE PUSH1 0x0 REVERT JUMPDEST POP POP POP POP POP JUMP JUMPDEST PUSH2 0x60A PUSH2 0xD98 JUMP JUMPDEST PUSH2 0x614 PUSH1 0x0 PUSH2 0xDF2 JUMP JUMPDEST JUMP JUMPDEST PUSH2 0x61E PUSH2 0xD98 JUMP JUMPDEST PUSH1 0x64 DUP2 GT ISZERO PUSH2 0x66F JUMPI PUSH1 0x40 MLOAD PUSH3 0x461BCD PUSH1 0xE5 SHL DUP2 MSTORE PUSH1 0x20 PUSH1 0x4 DUP3 ADD MSTORE PUSH1 0x1D PUSH1 0x24 DUP3 ADD MSTORE PUSH32 0x496E76616C696420636F6D6D697373696F6E2070657263656E74616765000000 PUSH1 0x44 DUP3 ADD MSTORE PUSH1 0x64 ADD PUSH2 0x362 JUMP JUMPDEST PUSH1 0x3 SSTORE JUMP JUMPDEST PUSH2 0x67C PUSH2 0xD98 JUMP JUMPDEST PUSH1 0x1 DUP1 SLOAD PUSH1 0x1 PUSH1 0x1 PUSH1 0xA0 SHL SUB NOT AND PUSH1 0x1 PUSH1 0x1 PUSH1 0xA0 SHL SUB SWAP3 SWAP1 SWAP3 AND SWAP2 SWAP1 SWAP2 OR SWAP1 SSTORE JUMP JUMPDEST PUSH2 0x6A6 PUSH2 0xD98 JUMP JUMPDEST PUSH1 0x1 SLOAD PUSH1 0x40 MLOAD PUSH4 0xA22CB465 PUSH1 0xE0 SHL DUP2 MSTORE PUSH1 0x1 PUSH1 0x1 PUSH1 0xA0 SHL SUB DUP4 DUP2 AND PUSH1 0x4 DUP4 ADD MSTORE PUSH1 0x0 PUSH1 0x24 DUP4 ADD MSTORE SWAP1 SWAP2 AND SWAP1 PUSH4 0xA22CB465 SWAP1 PUSH1 0x44 ADD PUSH2 0x5CD JUMP JUMPDEST PUSH2 0x6E7 PUSH2 0xD98 JUMP JUMPDEST PUSH1 0x0 DUP2 DUP2 MSTORE PUSH1 0x5 PUSH1 0x20 MSTORE PUSH1 0x40 SWAP1 KECCAK256 PUSH1 0x6 DUP2 ADD SLOAD PUSH1 0xFF AND ISZERO PUSH2 0x742 JUMPI PUSH1 0x40 MLOAD PUSH3 0x461BCD PUSH1 0xE5 SHL DUP2 MSTORE PUSH1 0x20 PUSH1 0x4 DUP3 ADD MSTORE PUSH1 0x15 PUSH1 0x24 DUP3 ADD MSTORE PUSH21 0x105D58DD1A5BDB88185B1C9958591E48195B991959 PUSH1 0x5A SHL PUSH1 0x44 DUP3 ADD MSTORE PUSH1 0x64 ADD PUSH2 0x362 JUMP JUMPDEST DUP1 PUSH1 0x5 ADD SLOAD TIMESTAMP LT ISZERO PUSH2 0x796 JUMPI PUSH1 0x40 MLOAD PUSH3 0x461BCD PUSH1 0xE5 SHL DUP2 MSTORE PUSH1 0x20 PUSH1 0x4 DUP3 ADD MSTORE PUSH1 0x19 PUSH1 0x24 DUP3 ADD MSTORE PUSH32 0x41756374696F6E20686173206E6F742079657420656E64656400000000000000 PUSH1 0x44 DUP3 ADD MSTORE PUSH1 0x64 ADD PUSH2 0x362 JUMP JUMPDEST PUSH1 0x6 DUP2 ADD DUP1 SLOAD PUSH1 0xFF NOT AND PUSH1 0x1 OR SWAP1 SSTORE PUSH1 0x4 DUP2 ADD SLOAD PUSH1 0x1 PUSH1 0x1 PUSH1 0xA0 SHL SUB AND ISZERO PUSH2 0x9CD JUMPI PUSH1 0x0 PUSH1 0x64 PUSH1 0x3 SLOAD DUP4 PUSH1 0x3 ADD SLOAD PUSH2 0x7CE SWAP2 SWAP1 PUSH2 0xF1A JUMP JUMPDEST PUSH2 0x7D8 SWAP2 SWAP1 PUSH2 0xF37 JUMP JUMPDEST SWAP1 POP PUSH1 0x0 DUP2 DUP4 PUSH1 0x3 ADD SLOAD PUSH2 0x7EC SWAP2 SWAP1 PUSH2 0xF59 JUMP JUMPDEST PUSH1 0x2 SLOAD PUSH1 0x4 DUP6 ADD SLOAD SWAP2 SWAP3 POP PUSH1 0x1 PUSH1 0x1 PUSH1 0xA0 SHL SUB SWAP1 DUP2 AND SWAP2 PUSH4 0x23B872DD SWAP2 AND PUSH2 0x81C PUSH1 0x0 SLOAD PUSH1 0x1 PUSH1 0x1 PUSH1 0xA0 SHL SUB AND SWAP1 JUMP JUMPDEST PUSH1 0x40 MLOAD PUSH1 0x1 PUSH1 0x1 PUSH1 0xE0 SHL SUB NOT PUSH1 0xE0 DUP6 SWAP1 SHL AND DUP2 MSTORE PUSH1 0x1 PUSH1 0x1 PUSH1 0xA0 SHL SUB SWAP3 DUP4 AND PUSH1 0x4 DUP3 ADD MSTORE SWAP2 AND PUSH1 0x24 DUP3 ADD MSTORE PUSH1 0x44 DUP2 ADD DUP6 SWAP1 MSTORE PUSH1 0x64 ADD PUSH1 0x20 PUSH1 0x40 MLOAD DUP1 DUP4 SUB DUP2 PUSH1 0x0 DUP8 GAS CALL ISZERO DUP1 ISZERO PUSH2 0x870 JUMPI RETURNDATASIZE PUSH1 0x0 DUP1 RETURNDATACOPY RETURNDATASIZE PUSH1 0x0 REVERT JUMPDEST POP POP POP POP PUSH1 0x40 MLOAD RETURNDATASIZE PUSH1 0x1F NOT PUSH1 0x1F DUP3 ADD AND DUP3 ADD DUP1 PUSH1 0x40 MSTORE POP DUP2 ADD SWAP1 PUSH2 0x894 SWAP2 SWAP1 PUSH2 0xEE2 JUMP JUMPDEST POP PUSH1 0x2 SLOAD DUP4 SLOAD PUSH1 0x40 MLOAD PUSH4 0xA9059CBB PUSH1 0xE0 SHL DUP2 MSTORE PUSH1 0x1 PUSH1 0x1 PUSH1 0xA0 SHL SUB SWAP2 DUP3 AND PUSH1 0x4 DUP3 ADD MSTORE PUSH1 0x24 DUP2 ADD DUP5 SWAP1 MSTORE SWAP2 AND SWAP1 PUSH4 0xA9059CBB SWAP1 PUSH1 0x44 ADD PUSH1 0x20 PUSH1 0x40 MLOAD DUP1 DUP4 SUB DUP2 PUSH1 0x0 DUP8 GAS CALL ISZERO DUP1 ISZERO PUSH2 0x8E9 JUMPI RETURNDATASIZE PUSH1 0x0 DUP1 RETURNDATACOPY RETURNDATASIZE PUSH1 0x0 REVERT JUMPDEST POP POP POP POP PUSH1 0x40 MLOAD RETURNDATASIZE PUSH1 0x1F NOT PUSH1 0x1F DUP3 ADD AND DUP3 ADD DUP1 PUSH1 0x40 MSTORE POP DUP2 ADD SWAP1 PUSH2 0x90D SWAP2 SWAP1 PUSH2 0xEE2 JUMP JUMPDEST POP PUSH1 0x1 DUP1 SLOAD PUSH1 0x4 DUP1 DUP7 ADD SLOAD PUSH1 0x40 MLOAD PUSH4 0x7F4C824D PUSH1 0xE1 SHL DUP2 MSTORE PUSH1 0x1 PUSH1 0x1 PUSH1 0xA0 SHL SUB SWAP4 DUP5 AND SWAP5 PUSH4 0xFE99049A SWAP5 PUSH2 0x94A SWAP5 ADDRESS SWAP5 SWAP1 SWAP2 AND SWAP3 DUP12 SWAP3 SWAP2 ADD PUSH2 0xF6C JUMP JUMPDEST PUSH1 0x0 PUSH1 0x40 MLOAD DUP1 DUP4 SUB DUP2 PUSH1 0x0 DUP8 DUP1 EXTCODESIZE ISZERO DUP1 ISZERO PUSH2 0x964 JUMPI PUSH1 0x0 DUP1 REVERT JUMPDEST POP GAS CALL ISZERO DUP1 ISZERO PUSH2 0x978 JUMPI RETURNDATASIZE PUSH1 0x0 DUP1 RETURNDATACOPY RETURNDATASIZE PUSH1 0x0 REVERT JUMPDEST POP POP POP POP PUSH1 0x4 DUP4 ADD SLOAD PUSH1 0x3 DUP5 ADD SLOAD PUSH1 0x40 MLOAD SWAP1 DUP2 MSTORE PUSH1 0x1 PUSH1 0x1 PUSH1 0xA0 SHL SUB SWAP1 SWAP2 AND SWAP1 DUP6 SWAP1 PUSH32 0xD2AA34A4FDBBC6DFF6A3E56F46E0F3AE2A31D7785FF3487AA5C95C642ACEA501 SWAP1 PUSH1 0x20 ADD PUSH1 0x40 MLOAD DUP1 SWAP2 SUB SWAP1 LOG3 POP POP POP POP JUMP JUMPDEST PUSH1 0x1 DUP1 SLOAD DUP3 SLOAD PUSH1 0x40 MLOAD PUSH4 0x7F4C824D PUSH1 0xE1 SHL DUP2 MSTORE PUSH1 0x1 PUSH1 0x1 PUSH1 0xA0 SHL SUB SWAP3 DUP4 AND SWAP4 PUSH4 0xFE99049A SWAP4 PUSH2 0xA05 SWAP4 ADDRESS SWAP4 SWAP2 AND SWAP2 DUP9 SWAP2 PUSH1 0x4 ADD PUSH2 0xF6C JUMP JUMPDEST PUSH1 0x0 PUSH1 0x40 MLOAD DUP1 DUP4 SUB DUP2 PUSH1 0x0 DUP8 DUP1 EXTCODESIZE ISZERO DUP1 ISZERO PUSH2 0xA1F JUMPI PUSH1 0x0 DUP1 REVERT JUMPDEST POP GAS CALL ISZERO DUP1 ISZERO PUSH2 0xA33 JUMPI RETURNDATASIZE PUSH1 0x0 DUP1 RETURNDATACOPY RETURNDATASIZE PUSH1 0x0 REVERT JUMPDEST POP POP PUSH1 0x40 MLOAD PUSH1 0x0 DUP1 DUP3 MSTORE SWAP3 POP DUP5 SWAP2 POP PUSH32 0xD2AA34A4FDBBC6DFF6A3E56F46E0F3AE2A31D7785FF3487AA5C95C642ACEA501 SWAP1 PUSH1 0x20 ADD PUSH1 0x40 MLOAD DUP1 SWAP2 SUB SWAP1 LOG3 POP POP JUMP JUMPDEST PUSH1 0x1 SLOAD PUSH1 0x40 MLOAD PUSH4 0x31A9108F PUSH1 0xE1 SHL DUP2 MSTORE PUSH1 0x4 DUP2 ADD DUP6 SWAP1 MSTORE CALLER SWAP2 PUSH1 0x1 PUSH1 0x1 PUSH1 0xA0 SHL SUB AND SWAP1 PUSH4 0x6352211E SWAP1 PUSH1 0x24 ADD PUSH1 0x20 PUSH1 0x40 MLOAD DUP1 DUP4 SUB DUP2 DUP7 GAS STATICCALL ISZERO DUP1 ISZERO PUSH2 0xABC JUMPI RETURNDATASIZE PUSH1 0x0 DUP1 RETURNDATACOPY RETURNDATASIZE PUSH1 0x0 REVERT JUMPDEST POP POP POP POP PUSH1 0x40 MLOAD RETURNDATASIZE PUSH1 0x1F NOT PUSH1 0x1F DUP3 ADD AND DUP3 ADD DUP1 PUSH1 0x40 MSTORE POP DUP2 ADD SWAP1 PUSH2 0xAE0 SWAP2 SWAP1 PUSH2 0xF95 JUMP JUMPDEST PUSH1 0x1 PUSH1 0x1 PUSH1 0xA0 SHL SUB AND EQ PUSH2 0xB36 JUMPI PUSH1 0x40 MLOAD PUSH3 0x461BCD PUSH1 0xE5 SHL DUP2 MSTORE PUSH1 0x20 PUSH1 0x4 DUP3 ADD MSTORE PUSH1 0x18 PUSH1 0x24 DUP3 ADD MSTORE PUSH32 0x596F7520646F6E2774206F776E207468697320746F6B656E0000000000000000 PUSH1 0x44 DUP3 ADD MSTORE PUSH1 0x64 ADD PUSH2 0x362 JUMP JUMPDEST PUSH1 0x0 DUP4 DUP2 MSTORE PUSH1 0x5 PUSH1 0x20 MSTORE PUSH1 0x40 SWAP1 KECCAK256 PUSH1 0x6 ADD SLOAD PUSH1 0xFF AND ISZERO PUSH2 0xBA6 JUMPI PUSH1 0x40 MLOAD PUSH3 0x461BCD PUSH1 0xE5 SHL DUP2 MSTORE PUSH1 0x20 PUSH1 0x4 DUP3 ADD MSTORE PUSH1 0x25 PUSH1 0x24 DUP3 ADD MSTORE PUSH32 0x41756374696F6E20666F72207468697320746F6B656E20616C72656164792065 PUSH1 0x44 DUP3 ADD MSTORE PUSH5 0x7869737473 PUSH1 0xD8 SHL PUSH1 0x64 DUP3 ADD MSTORE PUSH1 0x84 ADD PUSH2 0x362 JUMP JUMPDEST PUSH1 0x40 DUP1 MLOAD PUSH1 0xE0 DUP2 ADD DUP3 MSTORE CALLER DUP2 MSTORE PUSH1 0x20 DUP2 ADD DUP6 SWAP1 MSTORE SWAP1 DUP2 ADD DUP4 SWAP1 MSTORE PUSH1 0x60 DUP2 ADD DUP4 SWAP1 MSTORE PUSH1 0x0 PUSH1 0x80 DUP3 ADD MSTORE PUSH1 0xA0 DUP2 ADD PUSH2 0xBDC DUP4 TIMESTAMP PUSH2 0xFB2 JUMP JUMPDEST DUP2 MSTORE PUSH1 0x0 PUSH1 0x20 SWAP2 DUP3 ADD DUP2 SWAP1 MSTORE DUP6 DUP2 MSTORE PUSH1 0x5 DUP1 DUP4 MSTORE PUSH1 0x40 SWAP2 DUP3 SWAP1 KECCAK256 DUP5 MLOAD DUP2 SLOAD PUSH1 0x1 PUSH1 0x1 PUSH1 0xA0 SHL SUB NOT SWAP1 DUP2 AND PUSH1 0x1 PUSH1 0x1 PUSH1 0xA0 SHL SUB SWAP3 DUP4 AND OR DUP4 SSTORE SWAP5 DUP7 ADD MLOAD PUSH1 0x1 DUP1 DUP5 ADD SWAP2 SWAP1 SWAP2 SSTORE DUP7 DUP6 ADD MLOAD PUSH1 0x2 DUP5 ADD SSTORE PUSH1 0x60 DUP8 ADD MLOAD PUSH1 0x3 DUP5 ADD SSTORE PUSH1 0x80 DUP8 ADD MLOAD PUSH1 0x4 DUP1 DUP6 ADD DUP1 SLOAD SWAP1 SWAP9 AND SWAP2 DUP5 AND SWAP2 SWAP1 SWAP2 OR SWAP1 SWAP7 SSTORE PUSH1 0xA0 DUP8 ADD MLOAD SWAP4 DUP4 ADD SWAP4 SWAP1 SWAP4 SSTORE PUSH1 0xC0 SWAP1 SWAP6 ADD MLOAD PUSH1 0x6 SWAP1 SWAP2 ADD DUP1 SLOAD PUSH1 0xFF NOT AND SWAP2 ISZERO ISZERO SWAP2 SWAP1 SWAP2 OR SWAP1 SSTORE DUP1 SLOAD SWAP2 MLOAD PUSH4 0x7F4C824D PUSH1 0xE1 SHL DUP2 MSTORE SWAP2 SWAP1 SWAP4 AND SWAP3 PUSH4 0xFE99049A SWAP3 PUSH2 0xC9C SWAP3 CALLER SWAP3 ADDRESS SWAP3 DUP11 SWAP3 ADD PUSH2 0xF6C JUMP JUMPDEST PUSH1 0x0 PUSH1 0x40 MLOAD DUP1 DUP4 SUB DUP2 PUSH1 0x0 DUP8 DUP1 EXTCODESIZE ISZERO DUP1 ISZERO PUSH2 0xCB6 JUMPI PUSH1 0x0 DUP1 REVERT JUMPDEST POP GAS CALL ISZERO DUP1 ISZERO PUSH2 0xCCA JUMPI RETURNDATASIZE PUSH1 0x0 DUP1 RETURNDATACOPY RETURNDATASIZE PUSH1 0x0 REVERT JUMPDEST POP POP POP PUSH1 0x0 DUP5 DUP2 MSTORE PUSH1 0x5 PUSH1 0x20 DUP2 DUP2 MSTORE PUSH1 0x40 SWAP3 DUP4 SWAP1 KECCAK256 SWAP1 SWAP2 ADD SLOAD DUP3 MLOAD DUP7 DUP2 MSTORE SWAP2 DUP3 ADD MSTORE DUP6 SWAP3 POP PUSH32 0xD6EDDD1118D71820909C1197AA966DBC15ED6F508554252169CC3D5CCAC756CA SWAP2 ADD PUSH1 0x40 MLOAD DUP1 SWAP2 SUB SWAP1 LOG2 POP POP POP JUMP JUMPDEST PUSH2 0xD27 PUSH2 0xD98 JUMP JUMPDEST PUSH1 0x1 PUSH1 0x1 PUSH1 0xA0 SHL SUB DUP2 AND PUSH2 0xD8C JUMPI PUSH1 0x40 MLOAD PUSH3 0x461BCD PUSH1 0xE5 SHL DUP2 MSTORE PUSH1 0x20 PUSH1 0x4 DUP3 ADD MSTORE PUSH1 0x26 PUSH1 0x24 DUP3 ADD MSTORE PUSH32 0x4F776E61626C653A206E6577206F776E657220697320746865207A65726F2061 PUSH1 0x44 DUP3 ADD MSTORE PUSH6 0x646472657373 PUSH1 0xD0 SHL PUSH1 0x64 DUP3 ADD MSTORE PUSH1 0x84 ADD PUSH2 0x362 JUMP JUMPDEST PUSH2 0xD95 DUP2 PUSH2 0xDF2 JUMP JUMPDEST POP JUMP JUMPDEST PUSH1 0x0 SLOAD PUSH1 0x1 PUSH1 0x1 PUSH1 0xA0 SHL SUB AND CALLER EQ PUSH2 0x614 JUMPI PUSH1 0x40 MLOAD PUSH3 0x461BCD PUSH1 0xE5 SHL DUP2 MSTORE PUSH1 0x20 PUSH1 0x4 DUP3 ADD DUP2 SWAP1 MSTORE PUSH1 0x24 DUP3 ADD MSTORE PUSH32 0x4F776E61626C653A2063616C6C6572206973206E6F7420746865206F776E6572 PUSH1 0x44 DUP3 ADD MSTORE PUSH1 0x64 ADD PUSH2 0x362 JUMP JUMPDEST PUSH1 0x0 DUP1 SLOAD PUSH1 0x1 PUSH1 0x1 PUSH1 0xA0 SHL SUB DUP4 DUP2 AND PUSH1 0x1 PUSH1 0x1 PUSH1 0xA0 SHL SUB NOT DUP4 AND DUP2 OR DUP5 SSTORE PUSH1 0x40 MLOAD SWAP2 SWAP1 SWAP3 AND SWAP3 DUP4 SWAP2 PUSH32 0x8BE0079C531659141344CD1FD0A4F28419497F9722A3DAAFE3B4186F6B6457E0 SWAP2 SWAP1 LOG3 POP POP JUMP JUMPDEST PUSH1 0x1 PUSH1 0x1 PUSH1 0xA0 SHL SUB DUP2 AND DUP2 EQ PUSH2 0xD95 JUMPI PUSH1 0x0 DUP1 REVERT JUMPDEST PUSH1 0x0 PUSH1 0x20 DUP3 DUP5 SUB SLT ISZERO PUSH2 0xE69 JUMPI PUSH1 0x0 DUP1 REVERT JUMPDEST DUP2 CALLDATALOAD PUSH2 0xE74 DUP2 PUSH2 0xE42 JUMP JUMPDEST SWAP4 SWAP3 POP POP POP JUMP JUMPDEST PUSH1 0x0 PUSH1 0x20 DUP3 DUP5 SUB SLT ISZERO PUSH2 0xE8D JUMPI PUSH1 0x0 DUP1 REVERT JUMPDEST POP CALLDATALOAD SWAP2 SWAP1 POP JUMP JUMPDEST PUSH1 0x0 DUP1 PUSH1 0x40 DUP4 DUP6 SUB SLT ISZERO PUSH2 0xEA7 JUMPI PUSH1 0x0 DUP1 REVERT JUMPDEST POP POP DUP1 CALLDATALOAD SWAP3 PUSH1 0x20 SWAP1 SWAP2 ADD CALLDATALOAD SWAP2 POP JUMP JUMPDEST PUSH1 0x0 DUP1 PUSH1 0x0 PUSH1 0x60 DUP5 DUP7 SUB SLT ISZERO PUSH2 0xECB JUMPI PUSH1 0x0 DUP1 REVERT JUMPDEST POP POP DUP2 CALLDATALOAD SWAP4 PUSH1 0x20 DUP4 ADD CALLDATALOAD SWAP4 POP PUSH1 0x40 SWAP1 SWAP3 ADD CALLDATALOAD SWAP2 SWAP1 POP JUMP JUMPDEST PUSH1 0x0 PUSH1 0x20 DUP3 DUP5 SUB SLT ISZERO PUSH2 0xEF4 JUMPI PUSH1 0x0 DUP1 REVERT JUMPDEST DUP2 MLOAD DUP1 ISZERO ISZERO DUP2 EQ PUSH2 0xE74 JUMPI PUSH1 0x0 DUP1 REVERT JUMPDEST PUSH4 0x4E487B71 PUSH1 0xE0 SHL PUSH1 0x0 MSTORE PUSH1 0x11 PUSH1 0x4 MSTORE PUSH1 0x24 PUSH1 0x0 REVERT JUMPDEST DUP1 DUP3 MUL DUP2 ISZERO DUP3 DUP3 DIV DUP5 EQ OR PUSH2 0xF31 JUMPI PUSH2 0xF31 PUSH2 0xF04 JUMP JUMPDEST SWAP3 SWAP2 POP POP JUMP JUMPDEST PUSH1 0x0 DUP3 PUSH2 0xF54 JUMPI PUSH4 0x4E487B71 PUSH1 0xE0 SHL PUSH1 0x0 MSTORE PUSH1 0x12 PUSH1 0x4 MSTORE PUSH1 0x24 PUSH1 0x0 REVERT JUMPDEST POP DIV SWAP1 JUMP JUMPDEST DUP2 DUP2 SUB DUP2 DUP2 GT ISZERO PUSH2 0xF31 JUMPI PUSH2 0xF31 PUSH2 0xF04 JUMP JUMPDEST PUSH1 0x1 PUSH1 0x1 PUSH1 0xA0 SHL SUB SWAP5 DUP6 AND DUP2 MSTORE SWAP3 SWAP1 SWAP4 AND PUSH1 0x20 DUP4 ADD MSTORE PUSH1 0x40 DUP3 ADD MSTORE PUSH1 0x60 DUP2 ADD SWAP2 SWAP1 SWAP2 MSTORE PUSH1 0x80 ADD SWAP1 JUMP JUMPDEST PUSH1 0x0 PUSH1 0x20 DUP3 DUP5 SUB SLT ISZERO PUSH2 0xFA7 JUMPI PUSH1 0x0 DUP1 REVERT JUMPDEST DUP2 MLOAD PUSH2 0xE74 DUP2 PUSH2 0xE42 JUMP JUMPDEST DUP1 DUP3 ADD DUP1 DUP3 GT ISZERO PUSH2 0xF31 JUMPI PUSH2 0xF31 PUSH2 0xF04 JUMP INVALID LOG2 PUSH5 0x6970667358 0x22 SLT KECCAK256 PUSH1 0x5D RETURNDATACOPY TIMESTAMP GT 0xAD 0xE9 SWAP1 0x27 ADDMOD 0xD9 LOG2 ISZERO RETURNDATASIZE ADDMOD CREATE2 0xEE SGT ADDMOD DUP9 0x4F PC PUSH27 0x348B72B535DF3F4C4164736F6C6343000815003300000000000000 "},"methodIdentifiers":{"approveSeller(address)":"5ec5d856","auctions(uint256)":"571a26a0","commissionPercentage()":"d575fe64","createAuction(uint256,uint256,uint256)":"cda4beef","endAuction(uint256)":"b9a2de3a","nextListingId()":"aaccf1ec","nftToken()":"d06fcba8","owner()":"8da5cb5b","placeBid(uint256,uint256)":"57c90de5","renounceOwnership()":"715018a6","revokeSellerApproval(address)":"b226a966","setNFTContract(address)":"a7ccabdf","setSiliquaCoin(address)":"13bc2b49","token()":"fc0c546a","totalCommissionEarned()":"c73cdd23","transferOwnership(address)":"f2fde38b","updateCommissionPercentage(uint256)":"8ce2199e"}}}}}