{"contracts/NFTMarketplace.sol":{"NFTMarketplace":{"abi":[{"inputs":[{"internalType":"address","name":"_siliquaCoinAddress","type":"address"},{"internalType":"address","name":"_nftContractAddress","type":"address"},{"internalType":"uint256","name":"_commissionPercentage","type":"uint256"}],"stateMutability":"nonpayable","type":"constructor"},{"anonymous":false,"inputs":[{"indexed":false,"internalType":"uint256","name":"newCommissionPercentage","type":"uint256"}],"name":"CommissionPercentageUpdated","type":"event"},{"anonymous":false,"inputs":[{"indexed":true,"internalType":"address","name":"newNFTContractAddress","type":"address"}],"name":"NFTContractUpdated","type":"event"},{"anonymous":false,"inputs":[{"indexed":true,"internalType":"uint256","name":"listingId","type":"uint256"},{"indexed":true,"internalType":"address","name":"seller","type":"address"},{"indexed":true,"internalType":"uint256","name":"tokenId","type":"uint256"},{"indexed":false,"internalType":"uint256","name":"amount","type":"uint256"},{"indexed":false,"internalType":"uint256","name":"price","type":"uint256"},{"indexed":false,"internalType":"string","name":"status","type":"string"}],"name":"NFTListed","type":"event"},{"anonymous":false,"inputs":[{"indexed":true,"internalType":"uint256","name":"listingId","type":"uint256"},{"indexed":true,"internalType":"address","name":"seller","type":"address"},{"indexed":true,"internalType":"uint256","name":"tokenId","type":"uint256"},{"indexed":false,"internalType":"uint256","name":"amount","type":"uint256"},{"indexed":false,"internalType":"uint256","name":"price","type":"uint256"},{"indexed":false,"internalType":"string","name":"status","type":"string"}],"name":"NFTListingCancelled","type":"event"},{"anonymous":false,"inputs":[{"indexed":true,"internalType":"uint256","name":"listingId","type":"uint256"},{"indexed":true,"internalType":"address","name":"buyer","type":"address"},{"indexed":true,"internalType":"address","name":"seller","type":"address"},{"indexed":false,"internalType":"uint256","name":"tokenId","type":"uint256"},{"indexed":false,"internalType":"uint256","name":"amount","type":"uint256"},{"indexed":false,"internalType":"uint256","name":"price","type":"uint256"},{"indexed":false,"internalType":"string","name":"status","type":"string"}],"name":"NFTPurchased","type":"event"},{"anonymous":false,"inputs":[{"indexed":true,"internalType":"address","name":"previousOwner","type":"address"},{"indexed":true,"internalType":"address","name":"newOwner","type":"address"}],"name":"OwnershipTransferred","type":"event"},{"anonymous":false,"inputs":[{"indexed":true,"internalType":"address","name":"newSiliquaCoinAddress","type":"address"}],"name":"SiliquaCoinUpdated","type":"event"},{"inputs":[{"internalType":"address","name":"seller","type":"address"}],"name":"approveSeller","outputs":[],"stateMutability":"nonpayable","type":"function"},{"inputs":[{"internalType":"uint256","name":"_listingId","type":"uint256"}],"name":"cancelListing","outputs":[],"stateMutability":"nonpayable","type":"function"},{"inputs":[],"name":"commissionPercentage","outputs":[{"internalType":"uint256","name":"","type":"uint256"}],"stateMutability":"view","type":"function"},{"inputs":[],"name":"getActiveListings","outputs":[{"components":[{"internalType":"uint256","name":"listingId","type":"uint256"},{"internalType":"address","name":"seller","type":"address"},{"internalType":"uint256","name":"tokenId","type":"uint256"},{"internalType":"uint256","name":"amount","type":"uint256"},{"internalType":"uint256","name":"price","type":"uint256"},{"internalType":"bool","name":"isActive","type":"bool"}],"internalType":"struct NFTMarketplace.Listing[]","name":"activeListings","type":"tuple[]"}],"stateMutability":"view","type":"function"},{"inputs":[{"internalType":"uint256","name":"_tokenId","type":"uint256"},{"internalType":"uint256","name":"_amount","type":"uint256"},{"internalType":"uint256","name":"_price","type":"uint256"}],"name":"listNFT","outputs":[],"stateMutability":"nonpayable","type":"function"},{"inputs":[],"name":"listingId","outputs":[{"internalType":"uint256","name":"","type":"uint256"}],"stateMutability":"view","type":"function"},{"inputs":[{"internalType":"uint256","name":"","type":"uint256"}],"name":"listings","outputs":[{"internalType":"uint256","name":"listingId","type":"uint256"},{"internalType":"address","name":"seller","type":"address"},{"internalType":"uint256","name":"tokenId","type":"uint256"},{"internalType":"uint256","name":"amount","type":"uint256"},{"internalType":"uint256","name":"price","type":"uint256"},{"internalType":"bool","name":"isActive","type":"bool"}],"stateMutability":"view","type":"function"},{"inputs":[],"name":"nftToken","outputs":[{"internalType":"contract GoTLandsNFT","name":"","type":"address"}],"stateMutability":"view","type":"function"},{"inputs":[{"internalType":"address","name":"","type":"address"},{"internalType":"address","name":"","type":"address"},{"internalType":"uint256[]","name":"","type":"uint256[]"},{"internalType":"uint256[]","name":"","type":"uint256[]"},{"internalType":"bytes","name":"","type":"bytes"}],"name":"onERC1155BatchReceived","outputs":[{"internalType":"bytes4","name":"","type":"bytes4"}],"stateMutability":"nonpayable","type":"function"},{"inputs":[{"internalType":"address","name":"","type":"address"},{"internalType":"address","name":"","type":"address"},{"internalType":"uint256","name":"","type":"uint256"},{"internalType":"uint256","name":"","type":"uint256"},{"internalType":"bytes","name":"","type":"bytes"}],"name":"onERC1155Received","outputs":[{"internalType":"bytes4","name":"","type":"bytes4"}],"stateMutability":"nonpayable","type":"function"},{"inputs":[],"name":"owner","outputs":[{"internalType":"address","name":"","type":"address"}],"stateMutability":"view","type":"function"},{"inputs":[{"internalType":"uint256","name":"_listingId","type":"uint256"}],"name":"purchaseNFT","outputs":[],"stateMutability":"nonpayable","type":"function"},{"inputs":[],"name":"renounceOwnership","outputs":[],"stateMutability":"nonpayable","type":"function"},{"inputs":[{"internalType":"address","name":"seller","type":"address"}],"name":"revokeSellerApproval","outputs":[],"stateMutability":"nonpayable","type":"function"},{"inputs":[{"internalType":"address","name":"_nftContractAddress","type":"address"}],"name":"setNFTContract","outputs":[],"stateMutability":"nonpayable","type":"function"},{"inputs":[{"internalType":"address","name":"_siliquaCoinAddress","type":"address"}],"name":"siliquaCoinContract","outputs":[],"stateMutability":"nonpayable","type":"function"},{"inputs":[{"internalType":"bytes4","name":"interfaceId","type":"bytes4"}],"name":"supportsInterface","outputs":[{"internalType":"bool","name":"","type":"bool"}],"stateMutability":"view","type":"function"},{"inputs":[],"name":"token","outputs":[{"internalType":"contract SiliquaCoin","name":"","type":"address"}],"stateMutability":"view","type":"function"},{"inputs":[],"name":"totalCommissionEarned","outputs":[{"internalType":"uint256","name":"","type":"uint256"}],"stateMutability":"view","type":"function"},{"inputs":[{"internalType":"address","name":"newOwner","type":"address"}],"name":"transferOwnership","outputs":[],"stateMutability":"nonpayable","type":"function"},{"inputs":[{"internalType":"uint256","name":"_newCommissionPercentage","type":"uint256"}],"name":"updateCommissionPercentage","outputs":[],"stateMutability":"nonpayable","type":"function"}],"evm":{"bytecode":{"linkReferences":{},"object":"608060405260006007553480156200001657600080fd5b5060405162001789380380620017898339810160408190526200003991620000ed565b620000443362000080565b60018055600280546001600160a01b039384166001600160a01b031991821617909155600380549490931693169290921790556004556200012e565b600080546001600160a01b038381166001600160a01b0319831681178455604051919092169283917f8be0079c531659141344cd1fd0a4f28419497f9722a3daafe3b4186f6b6457e09190a35050565b80516001600160a01b0381168114620000e857600080fd5b919050565b6000806000606084860312156200010357600080fd5b6200010e84620000d0565b92506200011e60208501620000d0565b9150604084015190509250925092565b61164b806200013e6000396000f3fe608060405234801561001057600080fd5b50600436106101375760003560e01c8063a7ccabdf116100b8578063d06fcba81161007c578063d06fcba814610298578063d575fe64146102ab578063de74e57b146102b4578063f23a6e611461033b578063f2fde38b1461035a578063fc0c546a1461036d57600080fd5b8063a7ccabdf1461021e578063b0136c8d14610231578063b226a96614610244578063bc197c8114610257578063c73cdd231461028f57600080fd5b8063715018a6116100ff578063715018a6146101b257806387c35bc0146101ba5780638ce2199e146101cf5780638da5cb5b146101e25780639405dfdd1461020757600080fd5b806301ffc9a71461013c578063150bde031461016457806329c9fcda14610179578063305a67a81461018c5780635ec5d8561461019f575b600080fd5b61014f61014a36600461118a565b610380565b60405190151581526020015b60405180910390f35b6101776101723660046111bb565b6103b7565b005b6101776101873660046111e9565b6106a6565b61017761019a3660046111bb565b6106f8565b6101776101ad3660046111e9565b610906565b610177610978565b6101c261098c565b60405161015b9190611206565b6101776101dd3660046111bb565b610b39565b6000546001600160a01b03165b6040516001600160a01b03909116815260200161015b565b61021060075481565b60405190815260200161015b565b61017761022c3660046111e9565b610bcd565b61017761023f366004611289565b610c1f565b6101776102523660046111e9565b610fd0565b6102766102653660046113ec565b63bc197c8160e01b95945050505050565b6040516001600160e01b0319909116815260200161015b565b61021060055481565b6002546101ef906001600160a01b031681565b61021060045481565b6103046102c23660046111bb565b60066020526000908152604090208054600182015460028301546003840154600485015460059095015493946001600160a01b03909316939192909160ff1686565b604080519687526001600160a01b0390951660208701529385019290925260608401526080830152151560a082015260c00161015b565b61027661034936600461149a565b63f23a6e6160e01b95945050505050565b6101776103683660046111e9565b611011565b6003546101ef906001600160a01b031681565b60006001600160e01b03198216630271189760e51b14806103b157506301ffc9a760e01b6001600160e01b03198316145b92915050565b6103bf611087565b60075481106104085760405162461bcd60e51b815260206004820152601060248201526f125108191bd95cdb89dd08195e1a5cdd60821b60448201526064015b60405180910390fd5b6000818152600660205260409020600581015460ff166104625760405162461bcd60e51b81526020600482015260156024820152744c697374696e67206973206e6f742061637469766560581b60448201526064016103ff565b6000606460045483600401546104789190611519565b6104829190611530565b6003546001840154600480860154604051632142170760e11b815233928101929092526001600160a01b039283166024830152604482015292935016906342842e0e906064016020604051808303816000875af11580156104e7573d6000803e3d6000fd5b505050506040513d601f19601f8201168201806040525081019061050b9190611552565b5060035460405163423f6cef60e01b8152306004820152602481018390526001600160a01b039091169063423f6cef906044016020604051808303816000875af115801561055d573d6000803e3d6000fd5b505050506040513d601f19601f820116820180604052508101906105819190611552565b5080600560008282546105949190611574565b909155505060028054908301546003840154604051637f4c824d60e11b81526001600160a01b039093169263fe99049a926105d792309233929190600401611587565b600060405180830381600087803b1580156105f157600080fd5b505af1158015610605573d6000803e3d6000fd5b5050505060058201805460ff19169055600182015460028301546003840154600485015460408051938452602084019290925282820152608060608301819052600990830152681c1d5c98da185cd95960ba1b60a0830152516001600160a01b0390921691339186917f0a06a6f449435029a2c06dbea66356ac3f4f0584a73ff7f22ef368c144a012a79181900360c00190a450506106a360018055565b50565b6106ae6110e0565b600380546001600160a01b0319166001600160a01b0383169081179091556040517f6eee81a43bf9442f55a05941b6e18df1a7bcf02125d1e7b93ba7342aa72ef20e90600090a250565b610700611087565b60075481106107465760405162461bcd60e51b8152602060048201526012602482015271125b9d985b1a59081b1a5cdd1a5b99c8125160721b60448201526064016103ff565b600081815260066020526040902060018101546001600160a01b031633146107bf5760405162461bcd60e51b815260206004820152602660248201527f4f6e6c79207468652073656c6c65722063616e2063616e63656c20746865206c604482015265697374696e6760d01b60648201526084016103ff565b600581015460ff1661080b5760405162461bcd60e51b81526020600482015260156024820152744c697374696e67206973206e6f742061637469766560581b60448201526064016103ff565b60028054908201546003830154604051637f4c824d60e11b81526001600160a01b039093169263fe99049a9261084992309233929190600401611587565b600060405180830381600087803b15801561086357600080fd5b505af1158015610877573d6000803e3d6000fd5b50505060058201805460ff1916905550600281015460038201546004830154604051339286927f6d0ecfb1e9c08e774b62b396633297074ab554950a2f8ece9cd32392582c39a0926108f492919091825260208201526060604082018190526009908201526818d85b98d95b1b195960ba1b608082015260a00190565b60405180910390a4506106a360018055565b61090e6110e0565b60025460405163a22cb46560e01b81526001600160a01b038381166004830152600160248301529091169063a22cb465906044015b600060405180830381600087803b15801561095d57600080fd5b505af1158015610971573d6000803e3d6000fd5b5050505050565b6109806110e0565b61098a600061113a565b565b60606000805b6007548110156109d65760008181526006602052604090206005015460ff16156109c457816109c0816115b0565b9250505b806109ce816115b0565b915050610992565b508067ffffffffffffffff8111156109f0576109f06112b5565b604051908082528060200260200182016040528015610a6557816020015b610a526040518060c001604052806000815260200160006001600160a01b031681526020016000815260200160008152602001600081526020016000151581525090565b815260200190600190039081610a0e5790505b5091506000805b600754811015610b335760008181526006602052604090206005015460ff1615610b2157600081815260066020908152604091829020825160c0810184528154815260018201546001600160a01b031692810192909252600281015492820192909252600382015460608201526004820154608082015260059091015460ff16151560a08201528451859084908110610b0757610b076115c9565b60200260200101819052508180610b1d906115b0565b9250505b80610b2b816115b0565b915050610a6c565b50505090565b610b416110e0565b6064811115610b925760405162461bcd60e51b815260206004820152601d60248201527f496e76616c696420636f6d6d697373696f6e2070657263656e7461676500000060448201526064016103ff565b60048190556040518181527f7e3665a83046ac3c4ec146cf309edab9d75086c48761909ce868f5c65743f4f19060200160405180910390a150565b610bd56110e0565b600280546001600160a01b0319166001600160a01b0383169081179091556040517ff2610996d245d9b77e4ff84c2174eea0b76fb44c422218404f66e28816d78fb990600090a250565b610c27611087565b6002546040516331a9108f60e11b81526004810185905233916001600160a01b031690636352211e90602401602060405180830381865afa158015610c70573d6000803e3d6000fd5b505050506040513d601f19601f82011682018060405250810190610c9491906115df565b6001600160a01b031614610cea5760405162461bcd60e51b815260206004820152601860248201527f596f7520646f6e2774206f776e207468697320746f6b656e000000000000000060448201526064016103ff565b600254604051627eeac760e11b81523360048201526024810185905283916001600160a01b03169062fdd58e90604401602060405180830381865afa158015610d37573d6000803e3d6000fd5b505050506040513d601f19601f82011682018060405250810190610d5b91906115fc565b1015610da05760405162461bcd60e51b8152602060048201526014602482015273496e73756666696369656e742062616c616e636560601b60448201526064016103ff565b6000606460045483610db29190611519565b610dbc9190611530565b600354604051632142170760e11b8152336004820152306024820152604481018390529192506001600160a01b0316906342842e0e906064016020604051808303816000875af1158015610e14573d6000803e3d6000fd5b505050506040513d601f19601f82011682018060405250810190610e389190611552565b50600254604051637f4c824d60e11b81526001600160a01b039091169063fe99049a90610e6f903390309089908990600401611587565b600060405180830381600087803b158015610e8957600080fd5b505af1158015610e9d573d6000803e3d6000fd5b505050508060056000828254610eb39190611574565b90915550506040805160c081018252600780548083523360208085018281528587018b815260608088018c81526080808a018d8152600160a0808d0182815260009b8c526006808b529b8f90209d518e559751918d0180546001600160a01b0319166001600160a01b0390931692909217909155945160028c0155915160038b0155905160048a015592516005909801805460ff191698151598909817909755945487518b81529283018a905296820186905294810192909252651b1a5cdd195960d21b938201939093528793917f17e0f11c4bcec098f0fa71675a26636c8b4d923dfc6b337aff247d171ddb1df5910160405180910390a460078054906000610fbc836115b0565b919050555050610fcb60018055565b505050565b610fd86110e0565b60025460405163a22cb46560e01b81526001600160a01b038381166004830152600060248301529091169063a22cb46590604401610943565b6110196110e0565b6001600160a01b03811661107e5760405162461bcd60e51b815260206004820152602660248201527f4f776e61626c653a206e6577206f776e657220697320746865207a65726f206160448201526564647265737360d01b60648201526084016103ff565b6106a38161113a565b6002600154036110d95760405162461bcd60e51b815260206004820152601f60248201527f5265656e7472616e637947756172643a207265656e7472616e742063616c6c0060448201526064016103ff565b6002600155565b6000546001600160a01b0316331461098a5760405162461bcd60e51b815260206004820181905260248201527f4f776e61626c653a2063616c6c6572206973206e6f7420746865206f776e657260448201526064016103ff565b600080546001600160a01b038381166001600160a01b0319831681178455604051919092169283917f8be0079c531659141344cd1fd0a4f28419497f9722a3daafe3b4186f6b6457e09190a35050565b60006020828403121561119c57600080fd5b81356001600160e01b0319811681146111b457600080fd5b9392505050565b6000602082840312156111cd57600080fd5b5035919050565b6001600160a01b03811681146106a357600080fd5b6000602082840312156111fb57600080fd5b81356111b4816111d4565b602080825282518282018190526000919060409081850190868401855b8281101561127c57815180518552868101516001600160a01b0316878601528581015186860152606080820151908601526080808201519086015260a09081015115159085015260c09093019290850190600101611223565b5091979650505050505050565b60008060006060848603121561129e57600080fd5b505081359360208301359350604090920135919050565b634e487b7160e01b600052604160045260246000fd5b604051601f8201601f1916810167ffffffffffffffff811182821017156112f4576112f46112b5565b604052919050565b600082601f83011261130d57600080fd5b8135602067ffffffffffffffff821115611329576113296112b5565b8160051b6113388282016112cb565b928352848101820192828101908785111561135257600080fd5b83870192505b8483101561137157823582529183019190830190611358565b979650505050505050565b600082601f83011261138d57600080fd5b813567ffffffffffffffff8111156113a7576113a76112b5565b6113ba601f8201601f19166020016112cb565b8181528460208386010111156113cf57600080fd5b816020850160208301376000918101602001919091529392505050565b600080600080600060a0868803121561140457600080fd5b853561140f816111d4565b9450602086013561141f816111d4565b9350604086013567ffffffffffffffff8082111561143c57600080fd5b61144889838a016112fc565b9450606088013591508082111561145e57600080fd5b61146a89838a016112fc565b9350608088013591508082111561148057600080fd5b5061148d8882890161137c565b9150509295509295909350565b600080600080600060a086880312156114b257600080fd5b85356114bd816111d4565b945060208601356114cd816111d4565b93506040860135925060608601359150608086013567ffffffffffffffff8111156114f757600080fd5b61148d8882890161137c565b634e487b7160e01b600052601160045260246000fd5b80820281158282048414176103b1576103b1611503565b60008261154d57634e487b7160e01b600052601260045260246000fd5b500490565b60006020828403121561156457600080fd5b815180151581146111b457600080fd5b808201808211156103b1576103b1611503565b6001600160a01b0394851681529290931660208301526040820152606081019190915260800190565b6000600182016115c2576115c2611503565b5060010190565b634e487b7160e01b600052603260045260246000fd5b6000602082840312156115f157600080fd5b81516111b4816111d4565b60006020828403121561160e57600080fd5b505191905056fea2646970667358221220bbc438dd2eace247464eebf8110e8b0f964952e5bfe712076354486cdf06553b64736f6c63430008150033","opcodes":"PUSH1 0x80 PUSH1 0x40 MSTORE PUSH1 0x0 PUSH1 0x7 SSTORE CALLVALUE DUP1 ISZERO PUSH3 0x16 JUMPI PUSH1 0x0 DUP1 REVERT JUMPDEST POP PUSH1 0x40 MLOAD PUSH3 0x1789 CODESIZE SUB DUP1 PUSH3 0x1789 DUP4 CODECOPY DUP2 ADD PUSH1 0x40 DUP2 SWAP1 MSTORE PUSH3 0x39 SWAP2 PUSH3 0xED JUMP JUMPDEST PUSH3 0x44 CALLER PUSH3 0x80 JUMP JUMPDEST PUSH1 0x1 DUP1 SSTORE PUSH1 0x2 DUP1 SLOAD PUSH1 0x1 PUSH1 0x1 PUSH1 0xA0 SHL SUB SWAP4 DUP5 AND PUSH1 0x1 PUSH1 0x1 PUSH1 0xA0 SHL SUB NOT SWAP2 DUP3 AND OR SWAP1 SWAP2 SSTORE PUSH1 0x3 DUP1 SLOAD SWAP5 SWAP1 SWAP4 AND SWAP4 AND SWAP3 SWAP1 SWAP3 OR SWAP1 SSTORE PUSH1 0x4 SSTORE PUSH3 0x12E JUMP JUMPDEST PUSH1 0x0 DUP1 SLOAD PUSH1 0x1 PUSH1 0x1 PUSH1 0xA0 SHL SUB DUP4 DUP2 AND PUSH1 0x1 PUSH1 0x1 PUSH1 0xA0 SHL SUB NOT DUP4 AND DUP2 OR DUP5 SSTORE PUSH1 0x40 MLOAD SWAP2 SWAP1 SWAP3 AND SWAP3 DUP4 SWAP2 PUSH32 0x8BE0079C531659141344CD1FD0A4F28419497F9722A3DAAFE3B4186F6B6457E0 SWAP2 SWAP1 LOG3 POP POP JUMP JUMPDEST DUP1 MLOAD PUSH1 0x1 PUSH1 0x1 PUSH1 0xA0 SHL SUB DUP2 AND DUP2 EQ PUSH3 0xE8 JUMPI PUSH1 0x0 DUP1 REVERT JUMPDEST SWAP2 SWAP1 POP JUMP JUMPDEST PUSH1 0x0 DUP1 PUSH1 0x0 PUSH1 0x60 DUP5 DUP7 SUB SLT ISZERO PUSH3 0x103 JUMPI PUSH1 0x0 DUP1 REVERT JUMPDEST PUSH3 0x10E DUP5 PUSH3 0xD0 JUMP JUMPDEST SWAP3 POP PUSH3 0x11E PUSH1 0x20 DUP6 ADD PUSH3 0xD0 JUMP JUMPDEST SWAP2 POP PUSH1 0x40 DUP5 ADD MLOAD SWAP1 POP SWAP3 POP SWAP3 POP SWAP3 JUMP JUMPDEST PUSH2 0x164B DUP1 PUSH3 0x13E PUSH1 0x0 CODECOPY PUSH1 0x0 RETURN INVALID PUSH1 0x80 PUSH1 0x40 MSTORE CALLVALUE DUP1 ISZERO PUSH2 0x10 JUMPI PUSH1 0x0 DUP1 REVERT JUMPDEST POP PUSH1 0x4 CALLDATASIZE LT PUSH2 0x137 JUMPI PUSH1 0x0 CALLDATALOAD PUSH1 0xE0 SHR DUP1 PUSH4 0xA7CCABDF GT PUSH2 0xB8 JUMPI DUP1 PUSH4 0xD06FCBA8 GT PUSH2 0x7C JUMPI DUP1 PUSH4 0xD06FCBA8 EQ PUSH2 0x298 JUMPI DUP1 PUSH4 0xD575FE64 EQ PUSH2 0x2AB JUMPI DUP1 PUSH4 0xDE74E57B EQ PUSH2 0x2B4 JUMPI DUP1 PUSH4 0xF23A6E61 EQ PUSH2 0x33B JUMPI DUP1 PUSH4 0xF2FDE38B EQ PUSH2 0x35A JUMPI DUP1 PUSH4 0xFC0C546A EQ PUSH2 0x36D JUMPI PUSH1 0x0 DUP1 REVERT JUMPDEST DUP1 PUSH4 0xA7CCABDF EQ PUSH2 0x21E JUMPI DUP1 PUSH4 0xB0136C8D EQ PUSH2 0x231 JUMPI DUP1 PUSH4 0xB226A966 EQ PUSH2 0x244 JUMPI DUP1 PUSH4 0xBC197C81 EQ PUSH2 0x257 JUMPI DUP1 PUSH4 0xC73CDD23 EQ PUSH2 0x28F JUMPI PUSH1 0x0 DUP1 REVERT JUMPDEST DUP1 PUSH4 0x715018A6 GT PUSH2 0xFF JUMPI DUP1 PUSH4 0x715018A6 EQ PUSH2 0x1B2 JUMPI DUP1 PUSH4 0x87C35BC0 EQ PUSH2 0x1BA JUMPI DUP1 PUSH4 0x8CE2199E EQ PUSH2 0x1CF JUMPI DUP1 PUSH4 0x8DA5CB5B EQ PUSH2 0x1E2 JUMPI DUP1 PUSH4 0x9405DFDD EQ PUSH2 0x207 JUMPI PUSH1 0x0 DUP1 REVERT JUMPDEST DUP1 PUSH4 0x1FFC9A7 EQ PUSH2 0x13C JUMPI DUP1 PUSH4 0x150BDE03 EQ PUSH2 0x164 JUMPI DUP1 PUSH4 0x29C9FCDA EQ PUSH2 0x179 JUMPI DUP1 PUSH4 0x305A67A8 EQ PUSH2 0x18C JUMPI DUP1 PUSH4 0x5EC5D856 EQ PUSH2 0x19F JUMPI JUMPDEST PUSH1 0x0 DUP1 REVERT JUMPDEST PUSH2 0x14F PUSH2 0x14A CALLDATASIZE PUSH1 0x4 PUSH2 0x118A JUMP JUMPDEST PUSH2 0x380 JUMP JUMPDEST PUSH1 0x40 MLOAD SWAP1 ISZERO ISZERO DUP2 MSTORE PUSH1 0x20 ADD JUMPDEST PUSH1 0x40 MLOAD DUP1 SWAP2 SUB SWAP1 RETURN JUMPDEST PUSH2 0x177 PUSH2 0x172 CALLDATASIZE PUSH1 0x4 PUSH2 0x11BB JUMP JUMPDEST PUSH2 0x3B7 JUMP JUMPDEST STOP JUMPDEST PUSH2 0x177 PUSH2 0x187 CALLDATASIZE PUSH1 0x4 PUSH2 0x11E9 JUMP JUMPDEST PUSH2 0x6A6 JUMP JUMPDEST PUSH2 0x177 PUSH2 0x19A CALLDATASIZE PUSH1 0x4 PUSH2 0x11BB JUMP JUMPDEST PUSH2 0x6F8 JUMP JUMPDEST PUSH2 0x177 PUSH2 0x1AD CALLDATASIZE PUSH1 0x4 PUSH2 0x11E9 JUMP JUMPDEST PUSH2 0x906 JUMP JUMPDEST PUSH2 0x177 PUSH2 0x978 JUMP JUMPDEST PUSH2 0x1C2 PUSH2 0x98C JUMP JUMPDEST PUSH1 0x40 MLOAD PUSH2 0x15B SWAP2 SWAP1 PUSH2 0x1206 JUMP JUMPDEST PUSH2 0x177 PUSH2 0x1DD CALLDATASIZE PUSH1 0x4 PUSH2 0x11BB JUMP JUMPDEST PUSH2 0xB39 JUMP JUMPDEST PUSH1 0x0 SLOAD PUSH1 0x1 PUSH1 0x1 PUSH1 0xA0 SHL SUB AND JUMPDEST PUSH1 0x40 MLOAD PUSH1 0x1 PUSH1 0x1 PUSH1 0xA0 SHL SUB SWAP1 SWAP2 AND DUP2 MSTORE PUSH1 0x20 ADD PUSH2 0x15B JUMP JUMPDEST PUSH2 0x210 PUSH1 0x7 SLOAD DUP2 JUMP JUMPDEST PUSH1 0x40 MLOAD SWAP1 DUP2 MSTORE PUSH1 0x20 ADD PUSH2 0x15B JUMP JUMPDEST PUSH2 0x177 PUSH2 0x22C CALLDATASIZE PUSH1 0x4 PUSH2 0x11E9 JUMP JUMPDEST PUSH2 0xBCD JUMP JUMPDEST PUSH2 0x177 PUSH2 0x23F CALLDATASIZE PUSH1 0x4 PUSH2 0x1289 JUMP JUMPDEST PUSH2 0xC1F JUMP JUMPDEST PUSH2 0x177 PUSH2 0x252 CALLDATASIZE PUSH1 0x4 PUSH2 0x11E9 JUMP JUMPDEST PUSH2 0xFD0 JUMP JUMPDEST PUSH2 0x276 PUSH2 0x265 CALLDATASIZE PUSH1 0x4 PUSH2 0x13EC JUMP JUMPDEST PUSH4 0xBC197C81 PUSH1 0xE0 SHL SWAP6 SWAP5 POP POP POP POP POP JUMP JUMPDEST PUSH1 0x40 MLOAD PUSH1 0x1 PUSH1 0x1 PUSH1 0xE0 SHL SUB NOT SWAP1 SWAP2 AND DUP2 MSTORE PUSH1 0x20 ADD PUSH2 0x15B JUMP JUMPDEST PUSH2 0x210 PUSH1 0x5 SLOAD DUP2 JUMP JUMPDEST PUSH1 0x2 SLOAD PUSH2 0x1EF SWAP1 PUSH1 0x1 PUSH1 0x1 PUSH1 0xA0 SHL SUB AND DUP2 JUMP JUMPDEST PUSH2 0x210 PUSH1 0x4 SLOAD DUP2 JUMP JUMPDEST PUSH2 0x304 PUSH2 0x2C2 CALLDATASIZE PUSH1 0x4 PUSH2 0x11BB JUMP JUMPDEST PUSH1 0x6 PUSH1 0x20 MSTORE PUSH1 0x0 SWAP1 DUP2 MSTORE PUSH1 0x40 SWAP1 KECCAK256 DUP1 SLOAD PUSH1 0x1 DUP3 ADD SLOAD PUSH1 0x2 DUP4 ADD SLOAD PUSH1 0x3 DUP5 ADD SLOAD PUSH1 0x4 DUP6 ADD SLOAD PUSH1 0x5 SWAP1 SWAP6 ADD SLOAD SWAP4 SWAP5 PUSH1 0x1 PUSH1 0x1 PUSH1 0xA0 SHL SUB SWAP1 SWAP4 AND SWAP4 SWAP2 SWAP3 SWAP1 SWAP2 PUSH1 0xFF AND DUP7 JUMP JUMPDEST PUSH1 0x40 DUP1 MLOAD SWAP7 DUP8 MSTORE PUSH1 0x1 PUSH1 0x1 PUSH1 0xA0 SHL SUB SWAP1 SWAP6 AND PUSH1 0x20 DUP8 ADD MSTORE SWAP4 DUP6 ADD SWAP3 SWAP1 SWAP3 MSTORE PUSH1 0x60 DUP5 ADD MSTORE PUSH1 0x80 DUP4 ADD MSTORE ISZERO ISZERO PUSH1 0xA0 DUP3 ADD MSTORE PUSH1 0xC0 ADD PUSH2 0x15B JUMP JUMPDEST PUSH2 0x276 PUSH2 0x349 CALLDATASIZE PUSH1 0x4 PUSH2 0x149A JUMP JUMPDEST PUSH4 0xF23A6E61 PUSH1 0xE0 SHL SWAP6 SWAP5 POP POP POP POP POP JUMP JUMPDEST PUSH2 0x177 PUSH2 0x368 CALLDATASIZE PUSH1 0x4 PUSH2 0x11E9 JUMP JUMPDEST PUSH2 0x1011 JUMP JUMPDEST PUSH1 0x3 SLOAD PUSH2 0x1EF SWAP1 PUSH1 0x1 PUSH1 0x1 PUSH1 0xA0 SHL SUB AND DUP2 JUMP JUMPDEST PUSH1 0x0 PUSH1 0x1 PUSH1 0x1 PUSH1 0xE0 SHL SUB NOT DUP3 AND PUSH4 0x2711897 PUSH1 0xE5 SHL EQ DUP1 PUSH2 0x3B1 JUMPI POP PUSH4 0x1FFC9A7 PUSH1 0xE0 SHL PUSH1 0x1 PUSH1 0x1 PUSH1 0xE0 SHL SUB NOT DUP4 AND EQ JUMPDEST SWAP3 SWAP2 POP POP JUMP JUMPDEST PUSH2 0x3BF PUSH2 0x1087 JUMP JUMPDEST PUSH1 0x7 SLOAD DUP2 LT PUSH2 0x408 JUMPI PUSH1 0x40 MLOAD PUSH3 0x461BCD PUSH1 0xE5 SHL DUP2 MSTORE PUSH1 0x20 PUSH1 0x4 DUP3 ADD MSTORE PUSH1 0x10 PUSH1 0x24 DUP3 ADD MSTORE PUSH16 0x125108191BD95CDB89DD08195E1A5CDD PUSH1 0x82 SHL PUSH1 0x44 DUP3 ADD MSTORE PUSH1 0x64 ADD JUMPDEST PUSH1 0x40 MLOAD DUP1 SWAP2 SUB SWAP1 REVERT JUMPDEST PUSH1 0x0 DUP2 DUP2 MSTORE PUSH1 0x6 PUSH1 0x20 MSTORE PUSH1 0x40 SWAP1 KECCAK256 PUSH1 0x5 DUP2 ADD SLOAD PUSH1 0xFF AND PUSH2 0x462 JUMPI PUSH1 0x40 MLOAD PUSH3 0x461BCD PUSH1 0xE5 SHL DUP2 MSTORE PUSH1 0x20 PUSH1 0x4 DUP3 ADD MSTORE PUSH1 0x15 PUSH1 0x24 DUP3 ADD MSTORE PUSH21 0x4C697374696E67206973206E6F7420616374697665 PUSH1 0x58 SHL PUSH1 0x44 DUP3 ADD MSTORE PUSH1 0x64 ADD PUSH2 0x3FF JUMP JUMPDEST PUSH1 0x0 PUSH1 0x64 PUSH1 0x4 SLOAD DUP4 PUSH1 0x4 ADD SLOAD PUSH2 0x478 SWAP2 SWAP1 PUSH2 0x1519 JUMP JUMPDEST PUSH2 0x482 SWAP2 SWAP1 PUSH2 0x1530 JUMP JUMPDEST PUSH1 0x3 SLOAD PUSH1 0x1 DUP5 ADD SLOAD PUSH1 0x4 DUP1 DUP7 ADD SLOAD PUSH1 0x40 MLOAD PUSH4 0x21421707 PUSH1 0xE1 SHL DUP2 MSTORE CALLER SWAP3 DUP2 ADD SWAP3 SWAP1 SWAP3 MSTORE PUSH1 0x1 PUSH1 0x1 PUSH1 0xA0 SHL SUB SWAP3 DUP4 AND PUSH1 0x24 DUP4 ADD MSTORE PUSH1 0x44 DUP3 ADD MSTORE SWAP3 SWAP4 POP AND SWAP1 PUSH4 0x42842E0E SWAP1 PUSH1 0x64 ADD PUSH1 0x20 PUSH1 0x40 MLOAD DUP1 DUP4 SUB DUP2 PUSH1 0x0 DUP8 GAS CALL ISZERO DUP1 ISZERO PUSH2 0x4E7 JUMPI RETURNDATASIZE PUSH1 0x0 DUP1 RETURNDATACOPY RETURNDATASIZE PUSH1 0x0 REVERT JUMPDEST POP POP POP POP PUSH1 0x40 MLOAD RETURNDATASIZE PUSH1 0x1F NOT PUSH1 0x1F DUP3 ADD AND DUP3 ADD DUP1 PUSH1 0x40 MSTORE POP DUP2 ADD SWAP1 PUSH2 0x50B SWAP2 SWAP1 PUSH2 0x1552 JUMP JUMPDEST POP PUSH1 0x3 SLOAD PUSH1 0x40 MLOAD PUSH4 0x423F6CEF PUSH1 0xE0 SHL DUP2 MSTORE ADDRESS PUSH1 0x4 DUP3 ADD MSTORE PUSH1 0x24 DUP2 ADD DUP4 SWAP1 MSTORE PUSH1 0x1 PUSH1 0x1 PUSH1 0xA0 SHL SUB SWAP1 SWAP2 AND SWAP1 PUSH4 0x423F6CEF SWAP1 PUSH1 0x44 ADD PUSH1 0x20 PUSH1 0x40 MLOAD DUP1 DUP4 SUB DUP2 PUSH1 0x0 DUP8 GAS CALL ISZERO DUP1 ISZERO PUSH2 0x55D JUMPI RETURNDATASIZE PUSH1 0x0 DUP1 RETURNDATACOPY RETURNDATASIZE PUSH1 0x0 REVERT JUMPDEST POP POP POP POP PUSH1 0x40 MLOAD RETURNDATASIZE PUSH1 0x1F NOT PUSH1 0x1F DUP3 ADD AND DUP3 ADD DUP1 PUSH1 0x40 MSTORE POP DUP2 ADD SWAP1 PUSH2 0x581 SWAP2 SWAP1 PUSH2 0x1552 JUMP JUMPDEST POP DUP1 PUSH1 0x5 PUSH1 0x0 DUP3 DUP3 SLOAD PUSH2 0x594 SWAP2 SWAP1 PUSH2 0x1574 JUMP JUMPDEST SWAP1 SWAP2 SSTORE POP POP PUSH1 0x2 DUP1 SLOAD SWAP1 DUP4 ADD SLOAD PUSH1 0x3 DUP5 ADD SLOAD PUSH1 0x40 MLOAD PUSH4 0x7F4C824D PUSH1 0xE1 SHL DUP2 MSTORE PUSH1 0x1 PUSH1 0x1 PUSH1 0xA0 SHL SUB SWAP1 SWAP4 AND SWAP3 PUSH4 0xFE99049A SWAP3 PUSH2 0x5D7 SWAP3 ADDRESS SWAP3 CALLER SWAP3 SWAP2 SWAP1 PUSH1 0x4 ADD PUSH2 0x1587 JUMP JUMPDEST PUSH1 0x0 PUSH1 0x40 MLOAD DUP1 DUP4 SUB DUP2 PUSH1 0x0 DUP8 DUP1 EXTCODESIZE ISZERO DUP1 ISZERO PUSH2 0x5F1 JUMPI PUSH1 0x0 DUP1 REVERT JUMPDEST POP GAS CALL ISZERO DUP1 ISZERO PUSH2 0x605 JUMPI RETURNDATASIZE PUSH1 0x0 DUP1 RETURNDATACOPY RETURNDATASIZE PUSH1 0x0 REVERT JUMPDEST POP POP POP POP PUSH1 0x5 DUP3 ADD DUP1 SLOAD PUSH1 0xFF NOT AND SWAP1 SSTORE PUSH1 0x1 DUP3 ADD SLOAD PUSH1 0x2 DUP4 ADD SLOAD PUSH1 0x3 DUP5 ADD SLOAD PUSH1 0x4 DUP6 ADD SLOAD PUSH1 0x40 DUP1 MLOAD SWAP4 DUP5 MSTORE PUSH1 0x20 DUP5 ADD SWAP3 SWAP1 SWAP3 MSTORE DUP3 DUP3 ADD MSTORE PUSH1 0x80 PUSH1 0x60 DUP4 ADD DUP2 SWAP1 MSTORE PUSH1 0x9 SWAP1 DUP4 ADD MSTORE PUSH9 0x1C1D5C98DA185CD959 PUSH1 0xBA SHL PUSH1 0xA0 DUP4 ADD MSTORE MLOAD PUSH1 0x1 PUSH1 0x1 PUSH1 0xA0 SHL SUB SWAP1 SWAP3 AND SWAP2 CALLER SWAP2 DUP7 SWAP2 PUSH32 0xA06A6F449435029A2C06DBEA66356AC3F4F0584A73FF7F22EF368C144A012A7 SWAP2 DUP2 SWAP1 SUB PUSH1 0xC0 ADD SWAP1 LOG4 POP POP PUSH2 0x6A3 PUSH1 0x1 DUP1 SSTORE JUMP JUMPDEST POP JUMP JUMPDEST PUSH2 0x6AE PUSH2 0x10E0 JUMP JUMPDEST PUSH1 0x3 DUP1 SLOAD PUSH1 0x1 PUSH1 0x1 PUSH1 0xA0 SHL SUB NOT AND PUSH1 0x1 PUSH1 0x1 PUSH1 0xA0 SHL SUB DUP4 AND SWAP1 DUP2 OR SWAP1 SWAP2 SSTORE PUSH1 0x40 MLOAD PUSH32 0x6EEE81A43BF9442F55A05941B6E18DF1A7BCF02125D1E7B93BA7342AA72EF20E SWAP1 PUSH1 0x0 SWAP1 LOG2 POP JUMP JUMPDEST PUSH2 0x700 PUSH2 0x1087 JUMP JUMPDEST PUSH1 0x7 SLOAD DUP2 LT PUSH2 0x746 JUMPI PUSH1 0x40 MLOAD PUSH3 0x461BCD PUSH1 0xE5 SHL DUP2 MSTORE PUSH1 0x20 PUSH1 0x4 DUP3 ADD MSTORE PUSH1 0x12 PUSH1 0x24 DUP3 ADD MSTORE PUSH18 0x125B9D985B1A59081B1A5CDD1A5B99C81251 PUSH1 0x72 SHL PUSH1 0x44 DUP3 ADD MSTORE PUSH1 0x64 ADD PUSH2 0x3FF JUMP JUMPDEST PUSH1 0x0 DUP2 DUP2 MSTORE PUSH1 0x6 PUSH1 0x20 MSTORE PUSH1 0x40 SWAP1 KECCAK256 PUSH1 0x1 DUP2 ADD SLOAD PUSH1 0x1 PUSH1 0x1 PUSH1 0xA0 SHL SUB AND CALLER EQ PUSH2 0x7BF JUMPI PUSH1 0x40 MLOAD PUSH3 0x461BCD PUSH1 0xE5 SHL DUP2 MSTORE PUSH1 0x20 PUSH1 0x4 DUP3 ADD MSTORE PUSH1 0x26 PUSH1 0x24 DUP3 ADD MSTORE PUSH32 0x4F6E6C79207468652073656C6C65722063616E2063616E63656C20746865206C PUSH1 0x44 DUP3 ADD MSTORE PUSH6 0x697374696E67 PUSH1 0xD0 SHL PUSH1 0x64 DUP3 ADD MSTORE PUSH1 0x84 ADD PUSH2 0x3FF JUMP JUMPDEST PUSH1 0x5 DUP2 ADD SLOAD PUSH1 0xFF AND PUSH2 0x80B JUMPI PUSH1 0x40 MLOAD PUSH3 0x461BCD PUSH1 0xE5 SHL DUP2 MSTORE PUSH1 0x20 PUSH1 0x4 DUP3 ADD MSTORE PUSH1 0x15 PUSH1 0x24 DUP3 ADD MSTORE PUSH21 0x4C697374696E67206973206E6F7420616374697665 PUSH1 0x58 SHL PUSH1 0x44 DUP3 ADD MSTORE PUSH1 0x64 ADD PUSH2 0x3FF JUMP JUMPDEST PUSH1 0x2 DUP1 SLOAD SWAP1 DUP3 ADD SLOAD PUSH1 0x3 DUP4 ADD SLOAD PUSH1 0x40 MLOAD PUSH4 0x7F4C824D PUSH1 0xE1 SHL DUP2 MSTORE PUSH1 0x1 PUSH1 0x1 PUSH1 0xA0 SHL SUB SWAP1 SWAP4 AND SWAP3 PUSH4 0xFE99049A SWAP3 PUSH2 0x849 SWAP3 ADDRESS SWAP3 CALLER SWAP3 SWAP2 SWAP1 PUSH1 0x4 ADD PUSH2 0x1587 JUMP JUMPDEST PUSH1 0x0 PUSH1 0x40 MLOAD DUP1 DUP4 SUB DUP2 PUSH1 0x0 DUP8 DUP1 EXTCODESIZE ISZERO DUP1 ISZERO PUSH2 0x863 JUMPI PUSH1 0x0 DUP1 REVERT JUMPDEST POP GAS CALL ISZERO DUP1 ISZERO PUSH2 0x877 JUMPI RETURNDATASIZE PUSH1 0x0 DUP1 RETURNDATACOPY RETURNDATASIZE PUSH1 0x0 REVERT JUMPDEST POP POP POP PUSH1 0x5 DUP3 ADD DUP1 SLOAD PUSH1 0xFF NOT AND SWAP1 SSTORE POP PUSH1 0x2 DUP2 ADD SLOAD PUSH1 0x3 DUP3 ADD SLOAD PUSH1 0x4 DUP4 ADD SLOAD PUSH1 0x40 MLOAD CALLER SWAP3 DUP7 SWAP3 PUSH32 0x6D0ECFB1E9C08E774B62B396633297074AB554950A2F8ECE9CD32392582C39A0 SWAP3 PUSH2 0x8F4 SWAP3 SWAP2 SWAP1 SWAP2 DUP3 MSTORE PUSH1 0x20 DUP3 ADD MSTORE PUSH1 0x60 PUSH1 0x40 DUP3 ADD DUP2 SWAP1 MSTORE PUSH1 0x9 SWAP1 DUP3 ADD MSTORE PUSH9 0x18D85B98D95B1B1959 PUSH1 0xBA SHL PUSH1 0x80 DUP3 ADD MSTORE PUSH1 0xA0 ADD SWAP1 JUMP JUMPDEST PUSH1 0x40 MLOAD DUP1 SWAP2 SUB SWAP1 LOG4 POP PUSH2 0x6A3 PUSH1 0x1 DUP1 SSTORE JUMP JUMPDEST PUSH2 0x90E PUSH2 0x10E0 JUMP JUMPDEST PUSH1 0x2 SLOAD PUSH1 0x40 MLOAD PUSH4 0xA22CB465 PUSH1 0xE0 SHL DUP2 MSTORE PUSH1 0x1 PUSH1 0x1 PUSH1 0xA0 SHL SUB DUP4 DUP2 AND PUSH1 0x4 DUP4 ADD MSTORE PUSH1 0x1 PUSH1 0x24 DUP4 ADD MSTORE SWAP1 SWAP2 AND SWAP1 PUSH4 0xA22CB465 SWAP1 PUSH1 0x44 ADD JUMPDEST PUSH1 0x0 PUSH1 0x40 MLOAD DUP1 DUP4 SUB DUP2 PUSH1 0x0 DUP8 DUP1 EXTCODESIZE ISZERO DUP1 ISZERO PUSH2 0x95D JUMPI PUSH1 0x0 DUP1 REVERT JUMPDEST POP GAS CALL ISZERO DUP1 ISZERO PUSH2 0x971 JUMPI RETURNDATASIZE PUSH1 0x0 DUP1 RETURNDATACOPY RETURNDATASIZE PUSH1 0x0 REVERT JUMPDEST POP POP POP POP POP JUMP JUMPDEST PUSH2 0x980 PUSH2 0x10E0 JUMP JUMPDEST PUSH2 0x98A PUSH1 0x0 PUSH2 0x113A JUMP JUMPDEST JUMP JUMPDEST PUSH1 0x60 PUSH1 0x0 DUP1 JUMPDEST PUSH1 0x7 SLOAD DUP2 LT ISZERO PUSH2 0x9D6 JUMPI PUSH1 0x0 DUP2 DUP2 MSTORE PUSH1 0x6 PUSH1 0x20 MSTORE PUSH1 0x40 SWAP1 KECCAK256 PUSH1 0x5 ADD SLOAD PUSH1 0xFF AND ISZERO PUSH2 0x9C4 JUMPI DUP2 PUSH2 0x9C0 DUP2 PUSH2 0x15B0 JUMP JUMPDEST SWAP3 POP POP JUMPDEST DUP1 PUSH2 0x9CE DUP2 PUSH2 0x15B0 JUMP JUMPDEST SWAP2 POP POP PUSH2 0x992 JUMP JUMPDEST POP DUP1 PUSH8 0xFFFFFFFFFFFFFFFF DUP2 GT ISZERO PUSH2 0x9F0 JUMPI PUSH2 0x9F0 PUSH2 0x12B5 JUMP JUMPDEST PUSH1 0x40 MLOAD SWAP1 DUP1 DUP3 MSTORE DUP1 PUSH1 0x20 MUL PUSH1 0x20 ADD DUP3 ADD PUSH1 0x40 MSTORE DUP1 ISZERO PUSH2 0xA65 JUMPI DUP2 PUSH1 0x20 ADD JUMPDEST PUSH2 0xA52 PUSH1 0x40 MLOAD DUP1 PUSH1 0xC0 ADD PUSH1 0x40 MSTORE DUP1 PUSH1 0x0 DUP2 MSTORE PUSH1 0x20 ADD PUSH1 0x0 PUSH1 0x1 PUSH1 0x1 PUSH1 0xA0 SHL SUB AND DUP2 MSTORE PUSH1 0x20 ADD PUSH1 0x0 DUP2 MSTORE PUSH1 0x20 ADD PUSH1 0x0 DUP2 MSTORE PUSH1 0x20 ADD PUSH1 0x0 DUP2 MSTORE PUSH1 0x20 ADD PUSH1 0x0 ISZERO ISZERO DUP2 MSTORE POP SWAP1 JUMP JUMPDEST DUP2 MSTORE PUSH1 0x20 ADD SWAP1 PUSH1 0x1 SWAP1 SUB SWAP1 DUP2 PUSH2 0xA0E JUMPI SWAP1 POP JUMPDEST POP SWAP2 POP PUSH1 0x0 DUP1 JUMPDEST PUSH1 0x7 SLOAD DUP2 LT ISZERO PUSH2 0xB33 JUMPI PUSH1 0x0 DUP2 DUP2 MSTORE PUSH1 0x6 PUSH1 0x20 MSTORE PUSH1 0x40 SWAP1 KECCAK256 PUSH1 0x5 ADD SLOAD PUSH1 0xFF AND ISZERO PUSH2 0xB21 JUMPI PUSH1 0x0 DUP2 DUP2 MSTORE PUSH1 0x6 PUSH1 0x20 SWAP1 DUP2 MSTORE PUSH1 0x40 SWAP2 DUP3 SWAP1 KECCAK256 DUP3 MLOAD PUSH1 0xC0 DUP2 ADD DUP5 MSTORE DUP2 SLOAD DUP2 MSTORE PUSH1 0x1 DUP3 ADD SLOAD PUSH1 0x1 PUSH1 0x1 PUSH1 0xA0 SHL SUB AND SWAP3 DUP2 ADD SWAP3 SWAP1 SWAP3 MSTORE PUSH1 0x2 DUP2 ADD SLOAD SWAP3 DUP3 ADD SWAP3 SWAP1 SWAP3 MSTORE PUSH1 0x3 DUP3 ADD SLOAD PUSH1 0x60 DUP3 ADD MSTORE PUSH1 0x4 DUP3 ADD SLOAD PUSH1 0x80 DUP3 ADD MSTORE PUSH1 0x5 SWAP1 SWAP2 ADD SLOAD PUSH1 0xFF AND ISZERO ISZERO PUSH1 0xA0 DUP3 ADD MSTORE DUP5 MLOAD DUP6 SWAP1 DUP5 SWAP1 DUP2 LT PUSH2 0xB07 JUMPI PUSH2 0xB07 PUSH2 0x15C9 JUMP JUMPDEST PUSH1 0x20 MUL PUSH1 0x20 ADD ADD DUP2 SWAP1 MSTORE POP DUP2 DUP1 PUSH2 0xB1D SWAP1 PUSH2 0x15B0 JUMP JUMPDEST SWAP3 POP POP JUMPDEST DUP1 PUSH2 0xB2B DUP2 PUSH2 0x15B0 JUMP JUMPDEST SWAP2 POP POP PUSH2 0xA6C JUMP JUMPDEST POP POP POP SWAP1 JUMP JUMPDEST PUSH2 0xB41 PUSH2 0x10E0 JUMP JUMPDEST PUSH1 0x64 DUP2 GT ISZERO PUSH2 0xB92 JUMPI PUSH1 0x40 MLOAD PUSH3 0x461BCD PUSH1 0xE5 SHL DUP2 MSTORE PUSH1 0x20 PUSH1 0x4 DUP3 ADD MSTORE PUSH1 0x1D PUSH1 0x24 DUP3 ADD MSTORE PUSH32 0x496E76616C696420636F6D6D697373696F6E2070657263656E74616765000000 PUSH1 0x44 DUP3 ADD MSTORE PUSH1 0x64 ADD PUSH2 0x3FF JUMP JUMPDEST PUSH1 0x4 DUP2 SWAP1 SSTORE PUSH1 0x40 MLOAD DUP2 DUP2 MSTORE PUSH32 0x7E3665A83046AC3C4EC146CF309EDAB9D75086C48761909CE868F5C65743F4F1 SWAP1 PUSH1 0x20 ADD PUSH1 0x40 MLOAD DUP1 SWAP2 SUB SWAP1 LOG1 POP JUMP JUMPDEST PUSH2 0xBD5 PUSH2 0x10E0 JUMP JUMPDEST PUSH1 0x2 DUP1 SLOAD PUSH1 0x1 PUSH1 0x1 PUSH1 0xA0 SHL SUB NOT AND PUSH1 0x1 PUSH1 0x1 PUSH1 0xA0 SHL SUB DUP4 AND SWAP1 DUP2 OR SWAP1 SWAP2 SSTORE PUSH1 0x40 MLOAD PUSH32 0xF2610996D245D9B77E4FF84C2174EEA0B76FB44C422218404F66E28816D78FB9 SWAP1 PUSH1 0x0 SWAP1 LOG2 POP JUMP JUMPDEST PUSH2 0xC27 PUSH2 0x1087 JUMP JUMPDEST PUSH1 0x2 SLOAD PUSH1 0x40 MLOAD PUSH4 0x31A9108F PUSH1 0xE1 SHL DUP2 MSTORE PUSH1 0x4 DUP2 ADD DUP6 SWAP1 MSTORE CALLER SWAP2 PUSH1 0x1 PUSH1 0x1 PUSH1 0xA0 SHL SUB AND SWAP1 PUSH4 0x6352211E SWAP1 PUSH1 0x24 ADD PUSH1 0x20 PUSH1 0x40 MLOAD DUP1 DUP4 SUB DUP2 DUP7 GAS STATICCALL ISZERO DUP1 ISZERO PUSH2 0xC70 JUMPI RETURNDATASIZE PUSH1 0x0 DUP1 RETURNDATACOPY RETURNDATASIZE PUSH1 0x0 REVERT JUMPDEST POP POP POP POP PUSH1 0x40 MLOAD RETURNDATASIZE PUSH1 0x1F NOT PUSH1 0x1F DUP3 ADD AND DUP3 ADD DUP1 PUSH1 0x40 MSTORE POP DUP2 ADD SWAP1 PUSH2 0xC94 SWAP2 SWAP1 PUSH2 0x15DF JUMP JUMPDEST PUSH1 0x1 PUSH1 0x1 PUSH1 0xA0 SHL SUB AND EQ PUSH2 0xCEA JUMPI PUSH1 0x40 MLOAD PUSH3 0x461BCD PUSH1 0xE5 SHL DUP2 MSTORE PUSH1 0x20 PUSH1 0x4 DUP3 ADD MSTORE PUSH1 0x18 PUSH1 0x24 DUP3 ADD MSTORE PUSH32 0x596F7520646F6E2774206F776E207468697320746F6B656E0000000000000000 PUSH1 0x44 DUP3 ADD MSTORE PUSH1 0x64 ADD PUSH2 0x3FF JUMP JUMPDEST PUSH1 0x2 SLOAD PUSH1 0x40 MLOAD PUSH3 0x7EEAC7 PUSH1 0xE1 SHL DUP2 MSTORE CALLER PUSH1 0x4 DUP3 ADD MSTORE PUSH1 0x24 DUP2 ADD DUP6 SWAP1 MSTORE DUP4 SWAP2 PUSH1 0x1 PUSH1 0x1 PUSH1 0xA0 SHL SUB AND SWAP1 PUSH3 0xFDD58E SWAP1 PUSH1 0x44 ADD PUSH1 0x20 PUSH1 0x40 MLOAD DUP1 DUP4 SUB DUP2 DUP7 GAS STATICCALL ISZERO DUP1 ISZERO PUSH2 0xD37 JUMPI RETURNDATASIZE PUSH1 0x0 DUP1 RETURNDATACOPY RETURNDATASIZE PUSH1 0x0 REVERT JUMPDEST POP POP POP POP PUSH1 0x40 MLOAD RETURNDATASIZE PUSH1 0x1F NOT PUSH1 0x1F DUP3 ADD AND DUP3 ADD DUP1 PUSH1 0x40 MSTORE POP DUP2 ADD SWAP1 PUSH2 0xD5B SWAP2 SWAP1 PUSH2 0x15FC JUMP JUMPDEST LT ISZERO PUSH2 0xDA0 JUMPI PUSH1 0x40 MLOAD PUSH3 0x461BCD PUSH1 0xE5 SHL DUP2 MSTORE PUSH1 0x20 PUSH1 0x4 DUP3 ADD MSTORE PUSH1 0x14 PUSH1 0x24 DUP3 ADD MSTORE PUSH20 0x496E73756666696369656E742062616C616E6365 PUSH1 0x60 SHL PUSH1 0x44 DUP3 ADD MSTORE PUSH1 0x64 ADD PUSH2 0x3FF JUMP JUMPDEST PUSH1 0x0 PUSH1 0x64 PUSH1 0x4 SLOAD DUP4 PUSH2 0xDB2 SWAP2 SWAP1 PUSH2 0x1519 JUMP JUMPDEST PUSH2 0xDBC SWAP2 SWAP1 PUSH2 0x1530 JUMP JUMPDEST PUSH1 0x3 SLOAD PUSH1 0x40 MLOAD PUSH4 0x21421707 PUSH1 0xE1 SHL DUP2 MSTORE CALLER PUSH1 0x4 DUP3 ADD MSTORE ADDRESS PUSH1 0x24 DUP3 ADD MSTORE PUSH1 0x44 DUP2 ADD DUP4 SWAP1 MSTORE SWAP2 SWAP3 POP PUSH1 0x1 PUSH1 0x1 PUSH1 0xA0 SHL SUB AND SWAP1 PUSH4 0x42842E0E SWAP1 PUSH1 0x64 ADD PUSH1 0x20 PUSH1 0x40 MLOAD DUP1 DUP4 SUB DUP2 PUSH1 0x0 DUP8 GAS CALL ISZERO DUP1 ISZERO PUSH2 0xE14 JUMPI RETURNDATASIZE PUSH1 0x0 DUP1 RETURNDATACOPY RETURNDATASIZE PUSH1 0x0 REVERT JUMPDEST POP POP POP POP PUSH1 0x40 MLOAD RETURNDATASIZE PUSH1 0x1F NOT PUSH1 0x1F DUP3 ADD AND DUP3 ADD DUP1 PUSH1 0x40 MSTORE POP DUP2 ADD SWAP1 PUSH2 0xE38 SWAP2 SWAP1 PUSH2 0x1552 JUMP JUMPDEST POP PUSH1 0x2 SLOAD PUSH1 0x40 MLOAD PUSH4 0x7F4C824D PUSH1 0xE1 SHL DUP2 MSTORE PUSH1 0x1 PUSH1 0x1 PUSH1 0xA0 SHL SUB SWAP1 SWAP2 AND SWAP1 PUSH4 0xFE99049A SWAP1 PUSH2 0xE6F SWAP1 CALLER SWAP1 ADDRESS SWAP1 DUP10 SWAP1 DUP10 SWAP1 PUSH1 0x4 ADD PUSH2 0x1587 JUMP JUMPDEST PUSH1 0x0 PUSH1 0x40 MLOAD DUP1 DUP4 SUB DUP2 PUSH1 0x0 DUP8 DUP1 EXTCODESIZE ISZERO DUP1 ISZERO PUSH2 0xE89 JUMPI PUSH1 0x0 DUP1 REVERT JUMPDEST POP GAS CALL ISZERO DUP1 ISZERO PUSH2 0xE9D JUMPI RETURNDATASIZE PUSH1 0x0 DUP1 RETURNDATACOPY RETURNDATASIZE PUSH1 0x0 REVERT JUMPDEST POP POP POP POP DUP1 PUSH1 0x5 PUSH1 0x0 DUP3 DUP3 SLOAD PUSH2 0xEB3 SWAP2 SWAP1 PUSH2 0x1574 JUMP JUMPDEST SWAP1 SWAP2 SSTORE POP POP PUSH1 0x40 DUP1 MLOAD PUSH1 0xC0 DUP2 ADD DUP3 MSTORE PUSH1 0x7 DUP1 SLOAD DUP1 DUP4 MSTORE CALLER PUSH1 0x20 DUP1 DUP6 ADD DUP3 DUP2 MSTORE DUP6 DUP8 ADD DUP12 DUP2 MSTORE PUSH1 0x60 DUP1 DUP9 ADD DUP13 DUP2 MSTORE PUSH1 0x80 DUP1 DUP11 ADD DUP14 DUP2 MSTORE PUSH1 0x1 PUSH1 0xA0 DUP1 DUP14 ADD DUP3 DUP2 MSTORE PUSH1 0x0 SWAP12 DUP13 MSTORE PUSH1 0x6 DUP1 DUP12 MSTORE SWAP12 DUP16 SWAP1 KECCAK256 SWAP14 MLOAD DUP15 SSTORE SWAP8 MLOAD SWAP2 DUP14 ADD DUP1 SLOAD PUSH1 0x1 PUSH1 0x1 PUSH1 0xA0 SHL SUB NOT AND PUSH1 0x1 PUSH1 0x1 PUSH1 0xA0 SHL SUB SWAP1 SWAP4 AND SWAP3 SWAP1 SWAP3 OR SWAP1 SWAP2 SSTORE SWAP5 MLOAD PUSH1 0x2 DUP13 ADD SSTORE SWAP2 MLOAD PUSH1 0x3 DUP12 ADD SSTORE SWAP1 MLOAD PUSH1 0x4 DUP11 ADD SSTORE SWAP3 MLOAD PUSH1 0x5 SWAP1 SWAP9 ADD DUP1 SLOAD PUSH1 0xFF NOT AND SWAP9 ISZERO ISZERO SWAP9 SWAP1 SWAP9 OR SWAP1 SWAP8 SSTORE SWAP5 SLOAD DUP8 MLOAD DUP12 DUP2 MSTORE SWAP3 DUP4 ADD DUP11 SWAP1 MSTORE SWAP7 DUP3 ADD DUP7 SWAP1 MSTORE SWAP5 DUP2 ADD SWAP3 SWAP1 SWAP3 MSTORE PUSH6 0x1B1A5CDD1959 PUSH1 0xD2 SHL SWAP4 DUP3 ADD SWAP4 SWAP1 SWAP4 MSTORE DUP8 SWAP4 SWAP2 PUSH32 0x17E0F11C4BCEC098F0FA71675A26636C8B4D923DFC6B337AFF247D171DDB1DF5 SWAP2 ADD PUSH1 0x40 MLOAD DUP1 SWAP2 SUB SWAP1 LOG4 PUSH1 0x7 DUP1 SLOAD SWAP1 PUSH1 0x0 PUSH2 0xFBC DUP4 PUSH2 0x15B0 JUMP JUMPDEST SWAP2 SWAP1 POP SSTORE POP POP PUSH2 0xFCB PUSH1 0x1 DUP1 SSTORE JUMP JUMPDEST POP POP POP JUMP JUMPDEST PUSH2 0xFD8 PUSH2 0x10E0 JUMP JUMPDEST PUSH1 0x2 SLOAD PUSH1 0x40 MLOAD PUSH4 0xA22CB465 PUSH1 0xE0 SHL DUP2 MSTORE PUSH1 0x1 PUSH1 0x1 PUSH1 0xA0 SHL SUB DUP4 DUP2 AND PUSH1 0x4 DUP4 ADD MSTORE PUSH1 0x0 PUSH1 0x24 DUP4 ADD MSTORE SWAP1 SWAP2 AND SWAP1 PUSH4 0xA22CB465 SWAP1 PUSH1 0x44 ADD PUSH2 0x943 JUMP JUMPDEST PUSH2 0x1019 PUSH2 0x10E0 JUMP JUMPDEST PUSH1 0x1 PUSH1 0x1 PUSH1 0xA0 SHL SUB DUP2 AND PUSH2 0x107E JUMPI PUSH1 0x40 MLOAD PUSH3 0x461BCD PUSH1 0xE5 SHL DUP2 MSTORE PUSH1 0x20 PUSH1 0x4 DUP3 ADD MSTORE PUSH1 0x26 PUSH1 0x24 DUP3 ADD MSTORE PUSH32 0x4F776E61626C653A206E6577206F776E657220697320746865207A65726F2061 PUSH1 0x44 DUP3 ADD MSTORE PUSH6 0x646472657373 PUSH1 0xD0 SHL PUSH1 0x64 DUP3 ADD MSTORE PUSH1 0x84 ADD PUSH2 0x3FF JUMP JUMPDEST PUSH2 0x6A3 DUP2 PUSH2 0x113A JUMP JUMPDEST PUSH1 0x2 PUSH1 0x1 SLOAD SUB PUSH2 0x10D9 JUMPI PUSH1 0x40 MLOAD PUSH3 0x461BCD PUSH1 0xE5 SHL DUP2 MSTORE PUSH1 0x20 PUSH1 0x4 DUP3 ADD MSTORE PUSH1 0x1F PUSH1 0x24 DUP3 ADD MSTORE PUSH32 0x5265656E7472616E637947756172643A207265656E7472616E742063616C6C00 PUSH1 0x44 DUP3 ADD MSTORE PUSH1 0x64 ADD PUSH2 0x3FF JUMP JUMPDEST PUSH1 0x2 PUSH1 0x1 SSTORE JUMP JUMPDEST PUSH1 0x0 SLOAD PUSH1 0x1 PUSH1 0x1 PUSH1 0xA0 SHL SUB AND CALLER EQ PUSH2 0x98A JUMPI PUSH1 0x40 MLOAD PUSH3 0x461BCD PUSH1 0xE5 SHL DUP2 MSTORE PUSH1 0x20 PUSH1 0x4 DUP3 ADD DUP2 SWAP1 MSTORE PUSH1 0x24 DUP3 ADD MSTORE PUSH32 0x4F776E61626C653A2063616C6C6572206973206E6F7420746865206F776E6572 PUSH1 0x44 DUP3 ADD MSTORE PUSH1 0x64 ADD PUSH2 0x3FF JUMP JUMPDEST PUSH1 0x0 DUP1 SLOAD PUSH1 0x1 PUSH1 0x1 PUSH1 0xA0 SHL SUB DUP4 DUP2 AND PUSH1 0x1 PUSH1 0x1 PUSH1 0xA0 SHL SUB NOT DUP4 AND DUP2 OR DUP5 SSTORE PUSH1 0x40 MLOAD SWAP2 SWAP1 SWAP3 AND SWAP3 DUP4 SWAP2 PUSH32 0x8BE0079C531659141344CD1FD0A4F28419497F9722A3DAAFE3B4186F6B6457E0 SWAP2 SWAP1 LOG3 POP POP JUMP JUMPDEST PUSH1 0x0 PUSH1 0x20 DUP3 DUP5 SUB SLT ISZERO PUSH2 0x119C JUMPI PUSH1 0x0 DUP1 REVERT JUMPDEST DUP2 CALLDATALOAD PUSH1 0x1 PUSH1 0x1 PUSH1 0xE0 SHL SUB NOT DUP2 AND DUP2 EQ PUSH2 0x11B4 JUMPI PUSH1 0x0 DUP1 REVERT JUMPDEST SWAP4 SWAP3 POP POP POP JUMP JUMPDEST PUSH1 0x0 PUSH1 0x20 DUP3 DUP5 SUB SLT ISZERO PUSH2 0x11CD JUMPI PUSH1 0x0 DUP1 REVERT JUMPDEST POP CALLDATALOAD SWAP2 SWAP1 POP JUMP JUMPDEST PUSH1 0x1 PUSH1 0x1 PUSH1 0xA0 SHL SUB DUP2 AND DUP2 EQ PUSH2 0x6A3 JUMPI PUSH1 0x0 DUP1 REVERT JUMPDEST PUSH1 0x0 PUSH1 0x20 DUP3 DUP5 SUB SLT ISZERO PUSH2 0x11FB JUMPI PUSH1 0x0 DUP1 REVERT JUMPDEST DUP2 CALLDATALOAD PUSH2 0x11B4 DUP2 PUSH2 0x11D4 JUMP JUMPDEST PUSH1 0x20 DUP1 DUP3 MSTORE DUP3 MLOAD DUP3 DUP3 ADD DUP2 SWAP1 MSTORE PUSH1 0x0 SWAP2 SWAP1 PUSH1 0x40 SWAP1 DUP2 DUP6 ADD SWAP1 DUP7 DUP5 ADD DUP6 JUMPDEST DUP3 DUP2 LT ISZERO PUSH2 0x127C JUMPI DUP2 MLOAD DUP1 MLOAD DUP6 MSTORE DUP7 DUP2 ADD MLOAD PUSH1 0x1 PUSH1 0x1 PUSH1 0xA0 SHL SUB AND DUP8 DUP7 ADD MSTORE DUP6 DUP2 ADD MLOAD DUP7 DUP7 ADD MSTORE PUSH1 0x60 DUP1 DUP3 ADD MLOAD SWAP1 DUP7 ADD MSTORE PUSH1 0x80 DUP1 DUP3 ADD MLOAD SWAP1 DUP7 ADD MSTORE PUSH1 0xA0 SWAP1 DUP2 ADD MLOAD ISZERO ISZERO SWAP1 DUP6 ADD MSTORE PUSH1 0xC0 SWAP1 SWAP4 ADD SWAP3 SWAP1 DUP6 ADD SWAP1 PUSH1 0x1 ADD PUSH2 0x1223 JUMP JUMPDEST POP SWAP2 SWAP8 SWAP7 POP POP POP POP POP POP POP JUMP JUMPDEST PUSH1 0x0 DUP1 PUSH1 0x0 PUSH1 0x60 DUP5 DUP7 SUB SLT ISZERO PUSH2 0x129E JUMPI PUSH1 0x0 DUP1 REVERT JUMPDEST POP POP DUP2 CALLDATALOAD SWAP4 PUSH1 0x20 DUP4 ADD CALLDATALOAD SWAP4 POP PUSH1 0x40 SWAP1 SWAP3 ADD CALLDATALOAD SWAP2 SWAP1 POP JUMP JUMPDEST PUSH4 0x4E487B71 PUSH1 0xE0 SHL PUSH1 0x0 MSTORE PUSH1 0x41 PUSH1 0x4 MSTORE PUSH1 0x24 PUSH1 0x0 REVERT JUMPDEST PUSH1 0x40 MLOAD PUSH1 0x1F DUP3 ADD PUSH1 0x1F NOT AND DUP2 ADD PUSH8 0xFFFFFFFFFFFFFFFF DUP2 GT DUP3 DUP3 LT OR ISZERO PUSH2 0x12F4 JUMPI PUSH2 0x12F4 PUSH2 0x12B5 JUMP JUMPDEST PUSH1 0x40 MSTORE SWAP2 SWAP1 POP JUMP JUMPDEST PUSH1 0x0 DUP3 PUSH1 0x1F DUP4 ADD SLT PUSH2 0x130D JUMPI PUSH1 0x0 DUP1 REVERT JUMPDEST DUP2 CALLDATALOAD PUSH1 0x20 PUSH8 0xFFFFFFFFFFFFFFFF DUP3 GT ISZERO PUSH2 0x1329 JUMPI PUSH2 0x1329 PUSH2 0x12B5 JUMP JUMPDEST DUP2 PUSH1 0x5 SHL PUSH2 0x1338 DUP3 DUP3 ADD PUSH2 0x12CB JUMP JUMPDEST SWAP3 DUP4 MSTORE DUP5 DUP2 ADD DUP3 ADD SWAP3 DUP3 DUP2 ADD SWAP1 DUP8 DUP6 GT ISZERO PUSH2 0x1352 JUMPI PUSH1 0x0 DUP1 REVERT JUMPDEST DUP4 DUP8 ADD SWAP3 POP JUMPDEST DUP5 DUP4 LT ISZERO PUSH2 0x1371 JUMPI DUP3 CALLDATALOAD DUP3 MSTORE SWAP2 DUP4 ADD SWAP2 SWAP1 DUP4 ADD SWAP1 PUSH2 0x1358 JUMP JUMPDEST SWAP8 SWAP7 POP POP POP POP POP POP POP JUMP JUMPDEST PUSH1 0x0 DUP3 PUSH1 0x1F DUP4 ADD SLT PUSH2 0x138D JUMPI PUSH1 0x0 DUP1 REVERT JUMPDEST DUP2 CALLDATALOAD PUSH8 0xFFFFFFFFFFFFFFFF DUP2 GT ISZERO PUSH2 0x13A7 JUMPI PUSH2 0x13A7 PUSH2 0x12B5 JUMP JUMPDEST PUSH2 0x13BA PUSH1 0x1F DUP3 ADD PUSH1 0x1F NOT AND PUSH1 0x20 ADD PUSH2 0x12CB JUMP JUMPDEST DUP2 DUP2 MSTORE DUP5 PUSH1 0x20 DUP4 DUP7 ADD ADD GT ISZERO PUSH2 0x13CF JUMPI PUSH1 0x0 DUP1 REVERT JUMPDEST DUP2 PUSH1 0x20 DUP6 ADD PUSH1 0x20 DUP4 ADD CALLDATACOPY PUSH1 0x0 SWAP2 DUP2 ADD PUSH1 0x20 ADD SWAP2 SWAP1 SWAP2 MSTORE SWAP4 SWAP3 POP POP POP JUMP JUMPDEST PUSH1 0x0 DUP1 PUSH1 0x0 DUP1 PUSH1 0x0 PUSH1 0xA0 DUP7 DUP9 SUB SLT ISZERO PUSH2 0x1404 JUMPI PUSH1 0x0 DUP1 REVERT JUMPDEST DUP6 CALLDATALOAD PUSH2 0x140F DUP2 PUSH2 0x11D4 JUMP JUMPDEST SWAP5 POP PUSH1 0x20 DUP7 ADD CALLDATALOAD PUSH2 0x141F DUP2 PUSH2 0x11D4 JUMP JUMPDEST SWAP4 POP PUSH1 0x40 DUP7 ADD CALLDATALOAD PUSH8 0xFFFFFFFFFFFFFFFF DUP1 DUP3 GT ISZERO PUSH2 0x143C JUMPI PUSH1 0x0 DUP1 REVERT JUMPDEST PUSH2 0x1448 DUP10 DUP4 DUP11 ADD PUSH2 0x12FC JUMP JUMPDEST SWAP5 POP PUSH1 0x60 DUP9 ADD CALLDATALOAD SWAP2 POP DUP1 DUP3 GT ISZERO PUSH2 0x145E JUMPI PUSH1 0x0 DUP1 REVERT JUMPDEST PUSH2 0x146A DUP10 DUP4 DUP11 ADD PUSH2 0x12FC JUMP JUMPDEST SWAP4 POP PUSH1 0x80 DUP9 ADD CALLDATALOAD SWAP2 POP DUP1 DUP3 GT ISZERO PUSH2 0x1480 JUMPI PUSH1 0x0 DUP1 REVERT JUMPDEST POP PUSH2 0x148D DUP9 DUP3 DUP10 ADD PUSH2 0x137C JUMP JUMPDEST SWAP2 POP POP SWAP3 SWAP6 POP SWAP3 SWAP6 SWAP1 SWAP4 POP JUMP JUMPDEST PUSH1 0x0 DUP1 PUSH1 0x0 DUP1 PUSH1 0x0 PUSH1 0xA0 DUP7 DUP9 SUB SLT ISZERO PUSH2 0x14B2 JUMPI PUSH1 0x0 DUP1 REVERT JUMPDEST DUP6 CALLDATALOAD PUSH2 0x14BD DUP2 PUSH2 0x11D4 JUMP JUMPDEST SWAP5 POP PUSH1 0x20 DUP7 ADD CALLDATALOAD PUSH2 0x14CD DUP2 PUSH2 0x11D4 JUMP JUMPDEST SWAP4 POP PUSH1 0x40 DUP7 ADD CALLDATALOAD SWAP3 POP PUSH1 0x60 DUP7 ADD CALLDATALOAD SWAP2 POP PUSH1 0x80 DUP7 ADD CALLDATALOAD PUSH8 0xFFFFFFFFFFFFFFFF DUP2 GT ISZERO PUSH2 0x14F7 JUMPI PUSH1 0x0 DUP1 REVERT JUMPDEST PUSH2 0x148D DUP9 DUP3 DUP10 ADD PUSH2 0x137C JUMP JUMPDEST PUSH4 0x4E487B71 PUSH1 0xE0 SHL PUSH1 0x0 MSTORE PUSH1 0x11 PUSH1 0x4 MSTORE PUSH1 0x24 PUSH1 0x0 REVERT JUMPDEST DUP1 DUP3 MUL DUP2 ISZERO DUP3 DUP3 DIV DUP5 EQ OR PUSH2 0x3B1 JUMPI PUSH2 0x3B1 PUSH2 0x1503 JUMP JUMPDEST PUSH1 0x0 DUP3 PUSH2 0x154D JUMPI PUSH4 0x4E487B71 PUSH1 0xE0 SHL PUSH1 0x0 MSTORE PUSH1 0x12 PUSH1 0x4 MSTORE PUSH1 0x24 PUSH1 0x0 REVERT JUMPDEST POP DIV SWAP1 JUMP JUMPDEST PUSH1 0x0 PUSH1 0x20 DUP3 DUP5 SUB SLT ISZERO PUSH2 0x1564 JUMPI PUSH1 0x0 DUP1 REVERT JUMPDEST DUP2 MLOAD DUP1 ISZERO ISZERO DUP2 EQ PUSH2 0x11B4 JUMPI PUSH1 0x0 DUP1 REVERT JUMPDEST DUP1 DUP3 ADD DUP1 DUP3 GT ISZERO PUSH2 0x3B1 JUMPI PUSH2 0x3B1 PUSH2 0x1503 JUMP JUMPDEST PUSH1 0x1 PUSH1 0x1 PUSH1 0xA0 SHL SUB SWAP5 DUP6 AND DUP2 MSTORE SWAP3 SWAP1 SWAP4 AND PUSH1 0x20 DUP4 ADD MSTORE PUSH1 0x40 DUP3 ADD MSTORE PUSH1 0x60 DUP2 ADD SWAP2 SWAP1 SWAP2 MSTORE PUSH1 0x80 ADD SWAP1 JUMP JUMPDEST PUSH1 0x0 PUSH1 0x1 DUP3 ADD PUSH2 0x15C2 JUMPI PUSH2 0x15C2 PUSH2 0x1503 JUMP JUMPDEST POP PUSH1 0x1 ADD SWAP1 JUMP JUMPDEST PUSH4 0x4E487B71 PUSH1 0xE0 SHL PUSH1 0x0 MSTORE PUSH1 0x32 PUSH1 0x4 MSTORE PUSH1 0x24 PUSH1 0x0 REVERT JUMPDEST PUSH1 0x0 PUSH1 0x20 DUP3 DUP5 SUB SLT ISZERO PUSH2 0x15F1 JUMPI PUSH1 0x0 DUP1 REVERT JUMPDEST DUP2 MLOAD PUSH2 0x11B4 DUP2 PUSH2 0x11D4 JUMP JUMPDEST PUSH1 0x0 PUSH1 0x20 DUP3 DUP5 SUB SLT ISZERO PUSH2 0x160E JUMPI PUSH1 0x0 DUP1 REVERT JUMPDEST POP MLOAD SWAP2 SWAP1 POP JUMP INVALID LOG2 PUSH5 0x6970667358 0x22 SLT KECCAK256 0xBB 0xC4 CODESIZE 0xDD 0x2E 0xAC 0xE2 SELFBALANCE CHAINID 0x4E 0xEB 0xF8 GT 0xE DUP12 0xF SWAP7 0x49 MSTORE 0xE5 0xBF 0xE7 SLT SMOD PUSH4 0x54486CDF MOD SSTORE EXTCODESIZE PUSH5 0x736F6C6343 STOP ADDMOD ISZERO STOP CALLER "},"methodIdentifiers":{"approveSeller(address)":"5ec5d856","cancelListing(uint256)":"305a67a8","commissionPercentage()":"d575fe64","getActiveListings()":"87c35bc0","listNFT(uint256,uint256,uint256)":"b0136c8d","listingId()":"9405dfdd","listings(uint256)":"de74e57b","nftToken()":"d06fcba8","onERC1155BatchReceived(address,address,uint256[],uint256[],bytes)":"bc197c81","onERC1155Received(address,address,uint256,uint256,bytes)":"f23a6e61","owner()":"8da5cb5b","purchaseNFT(uint256)":"150bde03","renounceOwnership()":"715018a6","revokeSellerApproval(address)":"b226a966","setNFTContract(address)":"a7ccabdf","siliquaCoinContract(address)":"29c9fcda","supportsInterface(bytes4)":"01ffc9a7","token()":"fc0c546a","totalCommissionEarned()":"c73cdd23","transferOwnership(address)":"f2fde38b","updateCommissionPercentage(uint256)":"8ce2199e"}}}}}