{
  "_format": "hh-sol-artifact-1",
  "contractName": "AvatarAuctionMarketplace",
  "sourceName": "contracts/avatarMarket/NFTAuctionMarketplace.sol",
  "abi": [
    {
      "inputs": [
        {
          "internalType": "address",
          "name": "_nftContractAddress",
          "type": "address"
        },
        {
          "internalType": "address",
          "name": "_siliquaCoinContractAddress",
          "type": "address"
        },
        {
          "internalType": "uint256",
          "name": "_commissionPercentage",
          "type": "uint256"
        }
      ],
      "stateMutability": "nonpayable",
      "type": "constructor"
    },
    {
      "anonymous": false,
      "inputs": [
        {
          "indexed": true,
          "internalType": "uint256",
          "name": "auctionId",
          "type": "uint256"
        },
        {
          "indexed": false,
          "internalType": "address",
          "name": "seller",
          "type": "address"
        },
        {
          "indexed": false,
          "internalType": "uint256",
          "name": "tokenId",
          "type": "uint256"
        },
        {
          "indexed": false,
          "internalType": "uint256",
          "name": "startingPrice",
          "type": "uint256"
        },
        {
          "indexed": false,
          "internalType": "uint256",
          "name": "duration",
          "type": "uint256"
        }
      ],
      "name": "AuctionCreated",
      "type": "event"
    },
    {
      "anonymous": false,
      "inputs": [
        {
          "indexed": true,
          "internalType": "uint256",
          "name": "auctionId",
          "type": "uint256"
        },
        {
          "indexed": true,
          "internalType": "address",
          "name": "winner",
          "type": "address"
        },
        {
          "indexed": false,
          "internalType": "uint256",
          "name": "winningBid",
          "type": "uint256"
        }
      ],
      "name": "AuctionEnded",
      "type": "event"
    },
    {
      "anonymous": false,
      "inputs": [
        {
          "indexed": true,
          "internalType": "uint256",
          "name": "auctionId",
          "type": "uint256"
        },
        {
          "indexed": true,
          "internalType": "address",
          "name": "bidder",
          "type": "address"
        },
        {
          "indexed": false,
          "internalType": "uint256",
          "name": "bidAmount",
          "type": "uint256"
        }
      ],
      "name": "BidPlaced",
      "type": "event"
    },
    {
      "anonymous": false,
      "inputs": [
        {
          "indexed": true,
          "internalType": "address",
          "name": "previousOwner",
          "type": "address"
        },
        {
          "indexed": true,
          "internalType": "address",
          "name": "newOwner",
          "type": "address"
        }
      ],
      "name": "OwnershipTransferred",
      "type": "event"
    },
    {
      "anonymous": false,
      "inputs": [
        {
          "indexed": false,
          "internalType": "address",
          "name": "account",
          "type": "address"
        }
      ],
      "name": "Paused",
      "type": "event"
    },
    {
      "anonymous": false,
      "inputs": [
        {
          "indexed": false,
          "internalType": "address",
          "name": "account",
          "type": "address"
        }
      ],
      "name": "Unpaused",
      "type": "event"
    },
    {
      "inputs": [],
      "name": "auctionId",
      "outputs": [
        {
          "internalType": "uint256",
          "name": "",
          "type": "uint256"
        }
      ],
      "stateMutability": "view",
      "type": "function"
    },
    {
      "inputs": [
        {
          "internalType": "uint256",
          "name": "",
          "type": "uint256"
        }
      ],
      "name": "auctions",
      "outputs": [
        {
          "internalType": "uint256",
          "name": "auctionId",
          "type": "uint256"
        },
        {
          "internalType": "address",
          "name": "seller",
          "type": "address"
        },
        {
          "internalType": "uint256",
          "name": "tokenId",
          "type": "uint256"
        },
        {
          "internalType": "uint256",
          "name": "startingPrice",
          "type": "uint256"
        },
        {
          "internalType": "uint256",
          "name": "highestBid",
          "type": "uint256"
        },
        {
          "internalType": "address",
          "name": "highestBidder",
          "type": "address"
        },
        {
          "internalType": "uint256",
          "name": "auctionEndTime",
          "type": "uint256"
        },
        {
          "internalType": "bool",
          "name": "ended",
          "type": "bool"
        }
      ],
      "stateMutability": "view",
      "type": "function"
    },
    {
      "inputs": [],
      "name": "commissionPercentage",
      "outputs": [
        {
          "internalType": "uint256",
          "name": "",
          "type": "uint256"
        }
      ],
      "stateMutability": "view",
      "type": "function"
    },
    {
      "inputs": [
        {
          "internalType": "uint256",
          "name": "_tokenId",
          "type": "uint256"
        },
        {
          "internalType": "uint256",
          "name": "_startingPrice",
          "type": "uint256"
        },
        {
          "internalType": "uint256",
          "name": "_duration",
          "type": "uint256"
        }
      ],
      "name": "createAuction",
      "outputs": [],
      "stateMutability": "nonpayable",
      "type": "function"
    },
    {
      "inputs": [
        {
          "internalType": "uint256",
          "name": "_auctionId",
          "type": "uint256"
        }
      ],
      "name": "endAuction",
      "outputs": [],
      "stateMutability": "nonpayable",
      "type": "function"
    },
    {
      "inputs": [],
      "name": "nftToken",
      "outputs": [
        {
          "internalType": "contract AvatarNFT",
          "name": "",
          "type": "address"
        }
      ],
      "stateMutability": "view",
      "type": "function"
    },
    {
      "inputs": [
        {
          "internalType": "address",
          "name": "",
          "type": "address"
        },
        {
          "internalType": "address",
          "name": "",
          "type": "address"
        },
        {
          "internalType": "uint256[]",
          "name": "",
          "type": "uint256[]"
        },
        {
          "internalType": "uint256[]",
          "name": "",
          "type": "uint256[]"
        },
        {
          "internalType": "bytes",
          "name": "",
          "type": "bytes"
        }
      ],
      "name": "onERC1155BatchReceived",
      "outputs": [
        {
          "internalType": "bytes4",
          "name": "",
          "type": "bytes4"
        }
      ],
      "stateMutability": "nonpayable",
      "type": "function"
    },
    {
      "inputs": [
        {
          "internalType": "address",
          "name": "",
          "type": "address"
        },
        {
          "internalType": "address",
          "name": "",
          "type": "address"
        },
        {
          "internalType": "uint256",
          "name": "",
          "type": "uint256"
        },
        {
          "internalType": "uint256",
          "name": "",
          "type": "uint256"
        },
        {
          "internalType": "bytes",
          "name": "",
          "type": "bytes"
        }
      ],
      "name": "onERC1155Received",
      "outputs": [
        {
          "internalType": "bytes4",
          "name": "",
          "type": "bytes4"
        }
      ],
      "stateMutability": "nonpayable",
      "type": "function"
    },
    {
      "inputs": [],
      "name": "owner",
      "outputs": [
        {
          "internalType": "address",
          "name": "",
          "type": "address"
        }
      ],
      "stateMutability": "view",
      "type": "function"
    },
    {
      "inputs": [],
      "name": "pause",
      "outputs": [],
      "stateMutability": "nonpayable",
      "type": "function"
    },
    {
      "inputs": [],
      "name": "paused",
      "outputs": [
        {
          "internalType": "bool",
          "name": "",
          "type": "bool"
        }
      ],
      "stateMutability": "view",
      "type": "function"
    },
    {
      "inputs": [
        {
          "internalType": "uint256",
          "name": "_auctionId",
          "type": "uint256"
        }
      ],
      "name": "placeBid",
      "outputs": [],
      "stateMutability": "payable",
      "type": "function"
    },
    {
      "inputs": [],
      "name": "renounceOwnership",
      "outputs": [],
      "stateMutability": "nonpayable",
      "type": "function"
    },
    {
      "inputs": [
        {
          "internalType": "address",
          "name": "_nftContractAddress",
          "type": "address"
        }
      ],
      "name": "setNFTContract",
      "outputs": [],
      "stateMutability": "nonpayable",
      "type": "function"
    },
    {
      "inputs": [
        {
          "internalType": "address",
          "name": "_siliquaCoinAddress",
          "type": "address"
        }
      ],
      "name": "setSiliquaCoin",
      "outputs": [],
      "stateMutability": "nonpayable",
      "type": "function"
    },
    {
      "inputs": [
        {
          "internalType": "bytes4",
          "name": "interfaceId",
          "type": "bytes4"
        }
      ],
      "name": "supportsInterface",
      "outputs": [
        {
          "internalType": "bool",
          "name": "",
          "type": "bool"
        }
      ],
      "stateMutability": "view",
      "type": "function"
    },
    {
      "inputs": [],
      "name": "token",
      "outputs": [
        {
          "internalType": "contract ISiliquaCoin",
          "name": "",
          "type": "address"
        }
      ],
      "stateMutability": "view",
      "type": "function"
    },
    {
      "inputs": [],
      "name": "totalCommissionEarned",
      "outputs": [
        {
          "internalType": "uint256",
          "name": "",
          "type": "uint256"
        }
      ],
      "stateMutability": "view",
      "type": "function"
    },
    {
      "inputs": [
        {
          "internalType": "address",
          "name": "newOwner",
          "type": "address"
        }
      ],
      "name": "transferOwnership",
      "outputs": [],
      "stateMutability": "nonpayable",
      "type": "function"
    },
    {
      "inputs": [],
      "name": "unpause",
      "outputs": [],
      "stateMutability": "nonpayable",
      "type": "function"
    },
    {
      "inputs": [
        {
          "internalType": "uint256",
          "name": "_newCommissionPercentage",
          "type": "uint256"
        }
      ],
      "name": "updateCommissionPercentage",
      "outputs": [],
      "stateMutability": "nonpayable",
      "type": "function"
    }
  ],
  "bytecode": "0x608060405260006007553480156200001657600080fd5b5060405162001617380380620016178339810160408190526200003991620000f7565b62000044336200008a565b60018055600280546001600160a81b0319166101006001600160a01b0395861602179055600380546001600160a01b031916929093169190911790915560045562000138565b600080546001600160a01b038381166001600160a01b0319831681178455604051919092169283917f8be0079c531659141344cd1fd0a4f28419497f9722a3daafe3b4186f6b6457e09190a35050565b80516001600160a01b0381168114620000f257600080fd5b919050565b6000806000606084860312156200010d57600080fd5b6200011884620000da565b92506200012860208501620000da565b9150604084015190509250925092565b6114cf80620001486000396000f3fe60806040526004361061012a5760003560e01c80639979ef45116100ab578063cda4beef1161006f578063cda4beef146103bc578063d06fcba8146103dc578063d575fe6414610401578063f23a6e6114610417578063f2fde38b14610443578063fc0c546a1461046357600080fd5b80639979ef451461030e578063a7ccabdf14610321578063b9a2de3a14610341578063bc197c8114610361578063c73cdd23146103a657600080fd5b80635c975abb116100f25780635c975abb1461027a578063715018a6146102925780638456cb59146102a75780638ce2199e146102bc5780638da5cb5b146102dc57600080fd5b806301ffc9a71461012f57806310782f8f1461016457806313bc2b49146101885780633f4ba83a146101aa578063571a26a0146101bf575b600080fd5b34801561013b57600080fd5b5061014f61014a3660046110ef565b610483565b60405190151581526020015b60405180910390f35b34801561017057600080fd5b5061017a60075481565b60405190815260200161015b565b34801561019457600080fd5b506101a86101a3366004611135565b6104ba565b005b3480156101b657600080fd5b506101a86104ec565b3480156101cb57600080fd5b5061022d6101da366004611152565b60066020819052600091825260409091208054600182015460028301546003840154600485015460058601549686015460079096015494966001600160a01b039485169693959294919391169160ff1688565b604080519889526001600160a01b0397881660208a01528801959095526060870193909352608086019190915290921660a084015260c0830191909152151560e08201526101000161015b565b34801561028657600080fd5b5060025460ff1661014f565b34801561029e57600080fd5b506101a86104fe565b3480156102b357600080fd5b506101a8610510565b3480156102c857600080fd5b506101a86102d7366004611152565b610520565b3480156102e857600080fd5b506000546001600160a01b03165b6040516001600160a01b03909116815260200161015b565b6101a861031c366004611152565b61058b565b34801561032d57600080fd5b506101a861033c366004611135565b610768565b34801561034d57600080fd5b506101a861035c366004611152565b6107a0565b34801561036d57600080fd5b5061038d61037c3660046112a2565b63bc197c8160e01b95945050505050565b6040516001600160e01b0319909116815260200161015b565b3480156103b257600080fd5b5061017a60055481565b3480156103c857600080fd5b506101a86103d7366004611350565b610ba6565b3480156103e857600080fd5b506002546102f69061010090046001600160a01b031681565b34801561040d57600080fd5b5061017a60045481565b34801561042357600080fd5b5061038d61043236600461137c565b63f23a6e6160e01b95945050505050565b34801561044f57600080fd5b506101a861045e366004611135565b610e58565b34801561046f57600080fd5b506003546102f6906001600160a01b031681565b60006001600160e01b03198216630271189760e51b14806104b457506301ffc9a760e01b6001600160e01b03198316145b92915050565b6104c2610ece565b6104ca610f28565b600380546001600160a01b0319166001600160a01b0392909216919091179055565b6104f4610ece565b6104fc610f6e565b565b610506610ece565b6104fc6000610fc0565b610518610ece565b6104fc611010565b610528610ece565b610530610f28565b60648111156105865760405162461bcd60e51b815260206004820152601d60248201527f496e76616c696420636f6d6d697373696f6e2070657263656e7461676500000060448201526064015b60405180910390fd5b600455565b61059361104d565b61059b610f28565b6000818152600660205260409020600781015460ff16156105f65760405162461bcd60e51b8152602060048201526015602482015274105d58dd1a5bdb88185b1c9958591e48195b991959605a1b604482015260640161057d565b8060060154421061063d5760405162461bcd60e51b8152602060048201526011602482015270105d58dd1a5bdb881a185cc8195b991959607a1b604482015260640161057d565b806004015434116106af5760405162461bcd60e51b815260206004820152603660248201527f42696420616d6f756e74206d75737420626520686967686572207468616e20746044820152751a194818dd5c9c995b9d081a1a59da195cdd08189a5960521b606482015260840161057d565b60058101546001600160a01b03161561070457600581015460048201546040516001600160a01b039092169181156108fc0291906000818181858888f19350505050158015610702573d6000803e3d6000fd5b505b34600482018190556005820180546001600160a01b03191633908117909155825460405192835290917f0e54eff26401bf69b81b26f60bd85ef47f5d85275c1d268d84f68d6897431c47906020015b60405180910390a35061076560018055565b50565b610770610ece565b610778610f28565b600280546001600160a01b0390921661010002610100600160a81b0319909216919091179055565b6107a8610ece565b6107b061104d565b6107b8610f28565b6000818152600660205260409020600781015460ff16156108135760405162461bcd60e51b8152602060048201526015602482015274105d58dd1a5bdb88185b1c9958591e48195b991959605a1b604482015260640161057d565b80600601544210156108675760405162461bcd60e51b815260206004820152601960248201527f41756374696f6e20686173206e6f742079657420656e64656400000000000000604482015260640161057d565b60078101805460ff1916600117905560058101546001600160a01b031615610ae85760006064600454836004015461089f91906113fb565b6108a99190611412565b905080600560008282546108bd9190611434565b909155505060048201546000906108d5908390611447565b60018401546040519192506001600160a01b03169082156108fc029083906000818181858888f19350505050158015610912573d6000803e3d6000fd5b5060028054600585015491850154604051632142170760e11b81523060048201526001600160a01b0393841660248201526044810191909152610100909104909116906342842e0e90606401600060405180830381600087803b15801561097857600080fd5b505af115801561098c573d6000803e3d6000fd5b5050600354600586015460405163423f6cef60e01b81526001600160a01b039182166004820152670de0b6b3a764000060248201529116925063423f6cef91506044016020604051808303816000875af11580156109ee573d6000803e3d6000fd5b505050506040513d601f19601f82011682018060405250810190610a12919061145a565b50600354600184015460405163423f6cef60e01b81526001600160a01b039182166004820152670de0b6b3a7640000602482015291169063423f6cef906044016020604051808303816000875af1158015610a71573d6000803e3d6000fd5b505050506040513d601f19601f82011682018060405250810190610a95919061145a565b506005830154835460048501546040519081526001600160a01b03909216917fd2aa34a4fdbbc6dff6a3e56f46e0f3ae2a31d7785ff3487aa5c95c642acea5019060200160405180910390a35050610b9c565b60028054600183015491830154604051632142170760e11b81523060048201526001600160a01b0393841660248201526044810191909152610100909104909116906342842e0e90606401600060405180830381600087803b158015610b4d57600080fd5b505af1158015610b61573d6000803e3d6000fd5b50508254604051600080825293509091507fd2aa34a4fdbbc6dff6a3e56f46e0f3ae2a31d7785ff3487aa5c95c642acea50190602001610753565b5061076560018055565b610bae610f28565b6002546040516331a9108f60e11b815260048101859052339161010090046001600160a01b031690636352211e90602401602060405180830381865afa158015610bfc573d6000803e3d6000fd5b505050506040513d601f19601f82011682018060405250810190610c20919061147c565b6001600160a01b031614610c6c5760405162461bcd60e51b815260206004820152601360248201527213db9b1e481bdddb995c8818d85b881cd95b1b606a1b604482015260640161057d565b60008111610cbc5760405162461bcd60e51b815260206004820152601f60248201527f4475726174696f6e206d7573742062652067726561746572207468616e203000604482015260640161057d565b604080516101008101825260075481523360208201529081018490526060810183905260808101839052600060a082015260c08101610cfb8342611434565b815260006020918201819052600780548252600680845260409283902085518155938501516001850180546001600160a01b03199081166001600160a01b03938416179091558685015160028088019190915560608801516003880155608088015160048089019190915560a08901516005890180549094169085161790925560c08801519387019390935560e09096015194909201805460ff191694151594909417909355915490516323b872dd60e01b8152339381019390935230602484015260448301869052610100900416906323b872dd90606401600060405180830381600087803b158015610dee57600080fd5b505af1158015610e02573d6000803e3d6000fd5b50506007546040805133815260208101889052908101869052606081018590529092507f05f9bf100dd0ca9f37f08e0526690286d357ed7d6c5a4ac29730440b6e2dfd62915060800160405180910390a2505050565b610e60610ece565b6001600160a01b038116610ec55760405162461bcd60e51b815260206004820152602660248201527f4f776e61626c653a206e6577206f776e657220697320746865207a65726f206160448201526564647265737360d01b606482015260840161057d565b61076581610fc0565b6000546001600160a01b031633146104fc5760405162461bcd60e51b815260206004820181905260248201527f4f776e61626c653a2063616c6c6572206973206e6f7420746865206f776e6572604482015260640161057d565b60025460ff16156104fc5760405162461bcd60e51b815260206004820152601060248201526f14185d5cd8589b194e881c185d5cd95960821b604482015260640161057d565b610f766110a6565b6002805460ff191690557f5db9ee0a495bf2e6ff9c91a7834c1ba4fdd244a5e8aa4e537bd38aeae4b073aa335b6040516001600160a01b03909116815260200160405180910390a1565b600080546001600160a01b038381166001600160a01b0319831681178455604051919092169283917f8be0079c531659141344cd1fd0a4f28419497f9722a3daafe3b4186f6b6457e09190a35050565b611018610f28565b6002805460ff191660011790557f62e78cea01bee320cd4e420270b5ea74000d11b0c9f74754ebdbfc544b05a258610fa33390565b60026001540361109f5760405162461bcd60e51b815260206004820152601f60248201527f5265656e7472616e637947756172643a207265656e7472616e742063616c6c00604482015260640161057d565b6002600155565b60025460ff166104fc5760405162461bcd60e51b815260206004820152601460248201527314185d5cd8589b194e881b9bdd081c185d5cd95960621b604482015260640161057d565b60006020828403121561110157600080fd5b81356001600160e01b03198116811461111957600080fd5b9392505050565b6001600160a01b038116811461076557600080fd5b60006020828403121561114757600080fd5b813561111981611120565b60006020828403121561116457600080fd5b5035919050565b634e487b7160e01b600052604160045260246000fd5b604051601f8201601f1916810167ffffffffffffffff811182821017156111aa576111aa61116b565b604052919050565b600082601f8301126111c357600080fd5b8135602067ffffffffffffffff8211156111df576111df61116b565b8160051b6111ee828201611181565b928352848101820192828101908785111561120857600080fd5b83870192505b848310156112275782358252918301919083019061120e565b979650505050505050565b600082601f83011261124357600080fd5b813567ffffffffffffffff81111561125d5761125d61116b565b611270601f8201601f1916602001611181565b81815284602083860101111561128557600080fd5b816020850160208301376000918101602001919091529392505050565b600080600080600060a086880312156112ba57600080fd5b85356112c581611120565b945060208601356112d581611120565b9350604086013567ffffffffffffffff808211156112f257600080fd5b6112fe89838a016111b2565b9450606088013591508082111561131457600080fd5b61132089838a016111b2565b9350608088013591508082111561133657600080fd5b5061134388828901611232565b9150509295509295909350565b60008060006060848603121561136557600080fd5b505081359360208301359350604090920135919050565b600080600080600060a0868803121561139457600080fd5b853561139f81611120565b945060208601356113af81611120565b93506040860135925060608601359150608086013567ffffffffffffffff8111156113d957600080fd5b61134388828901611232565b634e487b7160e01b600052601160045260246000fd5b80820281158282048414176104b4576104b46113e5565b60008261142f57634e487b7160e01b600052601260045260246000fd5b500490565b808201808211156104b4576104b46113e5565b818103818111156104b4576104b46113e5565b60006020828403121561146c57600080fd5b8151801515811461111957600080fd5b60006020828403121561148e57600080fd5b81516111198161112056fea2646970667358221220ee4ce6a23746d67e84bd9c75f8f88385a2fd96ad062c4f5c1a13d8b82a63ec6a64736f6c63430008150033",
  "linkReferences": {},
  "deployedLinkReferences": {}
}