{
  "_format": "hh-sol-artifact-1",
  "contractName": "HorseRacingEvent",
  "sourceName": "contracts/racing/HorseRacingEvent.sol",
  "abi": [
    {
      "inputs": [
        {
          "internalType": "address",
          "name": "_horsesNFTAddress",
          "type": "address"
        }
      ],
      "stateMutability": "nonpayable",
      "type": "constructor"
    },
    {
      "anonymous": false,
      "inputs": [
        {
          "indexed": false,
          "internalType": "uint256",
          "name": "raceId",
          "type": "uint256"
        },
        {
          "indexed": false,
          "internalType": "address",
          "name": "horseOwner",
          "type": "address"
        },
        {
          "indexed": false,
          "internalType": "uint256",
          "name": "horseId",
          "type": "uint256"
        }
      ],
      "name": "HorseEnteredRace",
      "type": "event"
    },
    {
      "anonymous": false,
      "inputs": [
        {
          "indexed": false,
          "internalType": "uint256",
          "name": "raceId",
          "type": "uint256"
        },
        {
          "indexed": false,
          "internalType": "address",
          "name": "horseOwner",
          "type": "address"
        },
        {
          "indexed": false,
          "internalType": "uint256",
          "name": "horseId",
          "type": "uint256"
        }
      ],
      "name": "HorseWithdrawn",
      "type": "event"
    },
    {
      "anonymous": false,
      "inputs": [
        {
          "indexed": true,
          "internalType": "address",
          "name": "previousOwner",
          "type": "address"
        },
        {
          "indexed": true,
          "internalType": "address",
          "name": "newOwner",
          "type": "address"
        }
      ],
      "name": "OwnershipTransferred",
      "type": "event"
    },
    {
      "anonymous": false,
      "inputs": [
        {
          "indexed": false,
          "internalType": "address",
          "name": "account",
          "type": "address"
        }
      ],
      "name": "Paused",
      "type": "event"
    },
    {
      "anonymous": false,
      "inputs": [
        {
          "indexed": false,
          "internalType": "uint256",
          "name": "raceId",
          "type": "uint256"
        },
        {
          "indexed": false,
          "internalType": "uint256",
          "name": "entryFee",
          "type": "uint256"
        },
        {
          "indexed": false,
          "internalType": "uint256",
          "name": "numWinners",
          "type": "uint256"
        },
        {
          "indexed": false,
          "internalType": "uint256[]",
          "name": "prizeDistribution",
          "type": "uint256[]"
        }
      ],
      "name": "RaceCreated",
      "type": "event"
    },
    {
      "anonymous": false,
      "inputs": [
        {
          "indexed": false,
          "internalType": "uint256",
          "name": "raceId",
          "type": "uint256"
        },
        {
          "indexed": false,
          "internalType": "uint256[]",
          "name": "winningHorseId",
          "type": "uint256[]"
        }
      ],
      "name": "RaceEnded",
      "type": "event"
    },
    {
      "anonymous": false,
      "inputs": [
        {
          "indexed": false,
          "internalType": "uint256",
          "name": "raceId",
          "type": "uint256"
        }
      ],
      "name": "RaceStarted",
      "type": "event"
    },
    {
      "anonymous": false,
      "inputs": [
        {
          "indexed": false,
          "internalType": "address",
          "name": "account",
          "type": "address"
        }
      ],
      "name": "Unpaused",
      "type": "event"
    },
    {
      "inputs": [
        {
          "internalType": "uint256",
          "name": "entryFee",
          "type": "uint256"
        },
        {
          "internalType": "uint256[]",
          "name": "prizeDistribution",
          "type": "uint256[]"
        }
      ],
      "name": "createRace",
      "outputs": [],
      "stateMutability": "nonpayable",
      "type": "function"
    },
    {
      "inputs": [
        {
          "internalType": "uint256",
          "name": "raceId",
          "type": "uint256"
        },
        {
          "internalType": "uint256[]",
          "name": "winningHorseIds",
          "type": "uint256[]"
        }
      ],
      "name": "endRace",
      "outputs": [],
      "stateMutability": "nonpayable",
      "type": "function"
    },
    {
      "inputs": [
        {
          "internalType": "uint256",
          "name": "raceId",
          "type": "uint256"
        },
        {
          "internalType": "uint256",
          "name": "horseId",
          "type": "uint256"
        }
      ],
      "name": "enterHorseInRace",
      "outputs": [],
      "stateMutability": "payable",
      "type": "function"
    },
    {
      "inputs": [
        {
          "internalType": "uint256",
          "name": "raceId",
          "type": "uint256"
        }
      ],
      "name": "getRaceResults",
      "outputs": [
        {
          "internalType": "uint256[]",
          "name": "",
          "type": "uint256[]"
        }
      ],
      "stateMutability": "view",
      "type": "function"
    },
    {
      "inputs": [
        {
          "internalType": "uint256",
          "name": "raceId",
          "type": "uint256"
        }
      ],
      "name": "getRaceStatus",
      "outputs": [
        {
          "internalType": "bool",
          "name": "active",
          "type": "bool"
        }
      ],
      "stateMutability": "view",
      "type": "function"
    },
    {
      "inputs": [],
      "name": "horsesNFTContract",
      "outputs": [
        {
          "internalType": "contract HorsesNFT",
          "name": "",
          "type": "address"
        }
      ],
      "stateMutability": "view",
      "type": "function"
    },
    {
      "inputs": [
        {
          "internalType": "uint256",
          "name": "raceId",
          "type": "uint256"
        }
      ],
      "name": "isEndedRace",
      "outputs": [
        {
          "internalType": "bool",
          "name": "active",
          "type": "bool"
        }
      ],
      "stateMutability": "view",
      "type": "function"
    },
    {
      "inputs": [],
      "name": "owner",
      "outputs": [
        {
          "internalType": "address",
          "name": "",
          "type": "address"
        }
      ],
      "stateMutability": "view",
      "type": "function"
    },
    {
      "inputs": [],
      "name": "pause",
      "outputs": [],
      "stateMutability": "nonpayable",
      "type": "function"
    },
    {
      "inputs": [],
      "name": "paused",
      "outputs": [
        {
          "internalType": "bool",
          "name": "",
          "type": "bool"
        }
      ],
      "stateMutability": "view",
      "type": "function"
    },
    {
      "inputs": [
        {
          "internalType": "uint256",
          "name": "",
          "type": "uint256"
        }
      ],
      "name": "races",
      "outputs": [
        {
          "internalType": "uint256",
          "name": "raceId",
          "type": "uint256"
        },
        {
          "internalType": "uint256",
          "name": "entryFee",
          "type": "uint256"
        },
        {
          "internalType": "uint256",
          "name": "totalPrizePool",
          "type": "uint256"
        },
        {
          "internalType": "uint256",
          "name": "numWinners",
          "type": "uint256"
        },
        {
          "internalType": "uint256",
          "name": "minParticipants",
          "type": "uint256"
        },
        {
          "internalType": "bool",
          "name": "active",
          "type": "bool"
        },
        {
          "internalType": "bool",
          "name": "started",
          "type": "bool"
        },
        {
          "internalType": "bool",
          "name": "ended",
          "type": "bool"
        }
      ],
      "stateMutability": "view",
      "type": "function"
    },
    {
      "inputs": [],
      "name": "renounceOwnership",
      "outputs": [],
      "stateMutability": "nonpayable",
      "type": "function"
    },
    {
      "inputs": [
        {
          "internalType": "uint256",
          "name": "raceId",
          "type": "uint256"
        }
      ],
      "name": "startRace",
      "outputs": [],
      "stateMutability": "nonpayable",
      "type": "function"
    },
    {
      "inputs": [
        {
          "internalType": "address",
          "name": "newOwner",
          "type": "address"
        }
      ],
      "name": "transferOwnership",
      "outputs": [],
      "stateMutability": "nonpayable",
      "type": "function"
    },
    {
      "inputs": [],
      "name": "unpause",
      "outputs": [],
      "stateMutability": "nonpayable",
      "type": "function"
    }
  ],
  "bytecode": "0x608060405234801561001057600080fd5b5060405161148b38038061148b83398101604081905261002f916100ba565b6100383361006a565b6000805460ff60a01b19169055600180546001600160a01b0319166001600160a01b03929092169190911790556100ea565b600080546001600160a01b038381166001600160a01b0319831681178455604051919092169283917f8be0079c531659141344cd1fd0a4f28419497f9722a3daafe3b4186f6b6457e09190a35050565b6000602082840312156100cc57600080fd5b81516001600160a01b03811681146100e357600080fd5b9392505050565b611392806100f96000396000f3fe6080604052600436106100e85760003560e01c8063715018a61161008a5780638fa03b48116100595780638fa03b48146102e2578063f2fde38b14610302578063f76bdb1a14610322578063fa47723a1461034f57600080fd5b8063715018a6146101f05780637bbc469e146102055780638456cb59146102af5780638da5cb5b146102c457600080fd5b8063287b12f1116100c6578063287b12f11461017c578063315aa38c1461019c5780633f4ba83a146101bc5780635c975abb146101d157600080fd5b80630116538f146100ed5780631316b05d1461012257806324d822bf1461015a575b600080fd5b3480156100f957600080fd5b5061010d610108366004611081565b610362565b60405190151581526020015b60405180910390f35b34801561012e57600080fd5b50600154610142906001600160a01b031681565b6040516001600160a01b039091168152602001610119565b34801561016657600080fd5b5061017a610175366004611081565b6103eb565b005b34801561018857600080fd5b5061010d610197366004611081565b6104d5565b3480156101a857600080fd5b5061017a6101b73660046110b0565b610545565b3480156101c857600080fd5b5061017a61079f565b3480156101dd57600080fd5b50600054600160a01b900460ff1661010d565b3480156101fc57600080fd5b5061017a6107b1565b34801561021157600080fd5b5061026e610220366004611081565b600360208190526000918252604090912080546001820154600283015493830154600584015460069094015492949193919290919060ff808216916101008104821691620100009091041688565b6040805198895260208901979097529587019490945260608601929092526080850152151560a0840152151560c0830152151560e082015261010001610119565b3480156102bb57600080fd5b5061017a6107c3565b3480156102d057600080fd5b506000546001600160a01b0316610142565b3480156102ee57600080fd5b5061017a6102fd3660046110b0565b6107d3565b34801561030e57600080fd5b5061017a61031d36600461118f565b610ad7565b34801561032e57600080fd5b5061034261033d366004611081565b610b50565b60405161011991906111e7565b61017a61035d3660046111fa565b610c1d565b600061036c610dc5565b60025482106103b85760405162461bcd60e51b8152602060048201526013602482015272149858d948191bd95cc81b9bdd08195e1a5cdd606a1b60448201526064015b60405180910390fd5b6000828152600360205260409020600681015460ff1680156103e457506006810154610100900460ff16155b9392505050565b6103f3610e12565b6103fb610dc5565b600081815260036020526040902061041282610362565b61042e5760405162461bcd60e51b81526004016103af9061121c565b6005810154600882015410156104865760405162461bcd60e51b815260206004820152601760248201527f4e6f7420656e6f756768207061727469636970616e747300000000000000000060448201526064016103af565b60068101805461ff0019166101001790556040517fd8a537561d247cabc83980738b2fd3771513f9b3a4b696b3fead967d36efe7da906104c99084815260200190565b60405180910390a15050565b60006104df610dc5565b60025482106105265760405162461bcd60e51b8152602060048201526013602482015272149858d948191bd95cc81b9bdd08195e1a5cdd606a1b60448201526064016103af565b5060009081526003602052604090206006015462010000900460ff1690565b61054d610e12565b610555610dc5565b60008281526003602052604090206006810154610100900460ff166105af5760405162461bcd60e51b815260206004820152601060248201526f149858d9481b9bdd081cdd185c9d195960821b60448201526064016103af565b80600301548251146106035760405162461bcd60e51b815260206004820152601b60248201527f496e636f7272656374206e756d626572206f662077696e6e657273000000000060448201526064016103af565b60068101805462ffffff191662010000179055815161062b9060078301906020850190611021565b5060006064826002015460506106419190611274565b61064b919061128b565b905060005b826003015481101561075f5760006064846004018381548110610675576106756112ad565b90600052602060002001548461068b9190611274565b610695919061128b565b905060006106bb8684815181106106ae576106ae6112ad565b6020026020010151610e6c565b90506001600160a01b0381166107135760405162461bcd60e51b815260206004820152601860248201527f57696e6e6572206e6f7420666f756e6420696e2072616365000000000000000060448201526064016103af565b6040516001600160a01b0382169083156108fc029084906000818181858888f19350505050158015610749573d6000803e3d6000fd5b5050508080610757906112c3565b915050610650565b507f7aed510e5c2fdcd342c5cef991b106a3986e8d20d22e489ae5c9a0d18d59715284846040516107919291906112dc565b60405180910390a150505050565b6107a7610e12565b6107af610ee9565b565b6107b9610e12565b6107af6000610f3e565b6107cb610e12565b6107af610f8e565b6107db610e12565b6107e3610dc5565b8051600090815b835181101561082c57838181518110610805576108056112ad565b60200260200101518361081891906112fd565b925080610824816112c3565b9150506107ea565b50606482111561087e5760405162461bcd60e51b815260206004820152601f60248201527f546f74616c20646973747269627574696f6e206578636565647320313030250060448201526064016103af565b60648210156108d95760405162461bcd60e51b815260206004820152602160248201527f546f74616c20646973747269627574696f6e206c657373207468616e203130306044820152602560f81b60648201526084016103af565b60058111156109225760405162461bcd60e51b815260206004820152601560248201527413585e080d481dda5b9b995c9cc8185b1b1bddd959605a1b60448201526064016103af565b600061092d60025490565b9050604051806101600160405280828152602001868152602001600081526020018381526020018581526020018360036109679190611274565b8152600160208083019190915260006040808401829052606084018290528051828152808401825260808501528051828152928301905260a09092019150905260008281526003602081815260409283902084518155848201516001820155928401516002840155606084015191830191909155608083015180516109f29260048501920190611021565b5060a0820151600582015560c082015160068201805460e08501516101008087015161ffff1990931694151561ff001916949094179015159093029290921762ff0000191662010000921515929092029190911790556101208201518051610a64916007840191602090910190611021565b506101408201518051610a81916008840191602090910190611021565b509050507fd353319d8f5cef7e55b32e749160eb2a2d9ee2076bea05ff3a44c760c392910581868487604051610aba9493929190611310565b60405180910390a1610ad0600280546001019055565b5050505050565b610adf610e12565b6001600160a01b038116610b445760405162461bcd60e51b815260206004820152602660248201527f4f776e61626c653a206e6577206f776e657220697320746865207a65726f206160448201526564647265737360d01b60648201526084016103af565b610b4d81610f3e565b50565b6060610b5a610dc5565b60008281526003602052604090206006015462010000900460ff16610bba5760405162461bcd60e51b8152602060048201526016602482015275149858d9481a185cc81b9bdd08195b991959081e595d60521b60448201526064016103af565b60008281526003602090815260409182902060070180548351818402810184019094528084529091830182828015610c1157602002820191906000526020600020905b815481526020019060010190808311610bfd575b50505050509050919050565b610c25610dc5565b6000828152600360205260409020610c3c83610362565b610c585760405162461bcd60e51b81526004016103af9061121c565b33610c6283610e6c565b6001600160a01b031614610cae5760405162461bcd60e51b81526020600482015260136024820152722737ba103a3432903437b939b29037bbb732b960691b60448201526064016103af565b80600101543414610cf75760405162461bcd60e51b8152602060048201526013602482015272496e636f727265637420656e7472792066656560681b60448201526064016103af565b6008810154601411610d4b5760405162461bcd60e51b815260206004820152601960248201527f4d6178207061727469636970616e74732065786365656465640000000000000060448201526064016103af565b34816002016000828254610d5f91906112fd565b909155505060088101805460018101825560009182526020918290200183905560408051858152339281019290925281018390527f9ce334b4c8b04bea9c08533da5d64964ae1e53e1c9152c5749044adad3f62b289060600160405180910390a1505050565b600054600160a01b900460ff16156107af5760405162461bcd60e51b815260206004820152601060248201526f14185d5cd8589b194e881c185d5cd95960821b60448201526064016103af565b6000546001600160a01b031633146107af5760405162461bcd60e51b815260206004820181905260248201527f4f776e61626c653a2063616c6c6572206973206e6f7420746865206f776e657260448201526064016103af565b6000610e76610dc5565b6001546040516331a9108f60e11b8152600481018490526001600160a01b0390911690636352211e90602401602060405180830381865afa158015610ebf573d6000803e3d6000fd5b505050506040513d601f19601f82011682018060405250810190610ee3919061133f565b92915050565b610ef1610fd1565b6000805460ff60a01b191690557f5db9ee0a495bf2e6ff9c91a7834c1ba4fdd244a5e8aa4e537bd38aeae4b073aa335b6040516001600160a01b03909116815260200160405180910390a1565b600080546001600160a01b038381166001600160a01b0319831681178455604051919092169283917f8be0079c531659141344cd1fd0a4f28419497f9722a3daafe3b4186f6b6457e09190a35050565b610f96610dc5565b6000805460ff60a01b1916600160a01b1790557f62e78cea01bee320cd4e420270b5ea74000d11b0c9f74754ebdbfc544b05a258610f213390565b600054600160a01b900460ff166107af5760405162461bcd60e51b815260206004820152601460248201527314185d5cd8589b194e881b9bdd081c185d5cd95960621b60448201526064016103af565b82805482825590600052602060002090810192821561105c579160200282015b8281111561105c578251825591602001919060010190611041565b5061106892915061106c565b5090565b5b80821115611068576000815560010161106d565b60006020828403121561109357600080fd5b5035919050565b634e487b7160e01b600052604160045260246000fd5b600080604083850312156110c357600080fd5b8235915060208084013567ffffffffffffffff808211156110e357600080fd5b818601915086601f8301126110f757600080fd5b8135818111156111095761110961109a565b8060051b604051601f19603f8301168101818110858211171561112e5761112e61109a565b60405291825284820192508381018501918983111561114c57600080fd5b938501935b8285101561116a57843584529385019392850192611151565b8096505050505050509250929050565b6001600160a01b0381168114610b4d57600080fd5b6000602082840312156111a157600080fd5b81356103e48161117a565b600081518084526020808501945080840160005b838110156111dc578151875295820195908201906001016111c0565b509495945050505050565b6020815260006103e460208301846111ac565b6000806040838503121561120d57600080fd5b50508035926020909101359150565b60208082526022908201527f52616365206e6f7420616374697665206f7220616c7265616479207374617274604082015261195960f21b606082015260800190565b634e487b7160e01b600052601160045260246000fd5b8082028115828204841417610ee357610ee361125e565b6000826112a857634e487b7160e01b600052601260045260246000fd5b500490565b634e487b7160e01b600052603260045260246000fd5b6000600182016112d5576112d561125e565b5060010190565b8281526040602082015260006112f560408301846111ac565b949350505050565b80820180821115610ee357610ee361125e565b84815283602082015282604082015260806060820152600061133560808301846111ac565b9695505050505050565b60006020828403121561135157600080fd5b81516103e48161117a56fea26469706673582212207be8ddc146f8c85d1f16353d96f70449b4052a1bd04b1b858b223c0ad65ed5fc64736f6c63430008150033",
  "linkReferences": {},
  "deployedLinkReferences": {}
}