{
  "_format": "hh-sol-artifact-1",
  "contractName": "HorseRacingEvent",
  "sourceName": "contracts/racing/HorseRacingEvent.sol",
  "abi": [
    {
      "inputs": [
        {
          "internalType": "address",
          "name": "_horsesNFTAddress",
          "type": "address"
        }
      ],
      "stateMutability": "nonpayable",
      "type": "constructor"
    },
    {
      "anonymous": false,
      "inputs": [
        {
          "indexed": false,
          "internalType": "uint256",
          "name": "raceId",
          "type": "uint256"
        },
        {
          "indexed": false,
          "internalType": "address",
          "name": "horseOwner",
          "type": "address"
        },
        {
          "indexed": false,
          "internalType": "uint256",
          "name": "horseId",
          "type": "uint256"
        }
      ],
      "name": "HorseEnteredRace",
      "type": "event"
    },
    {
      "anonymous": false,
      "inputs": [
        {
          "indexed": false,
          "internalType": "uint256",
          "name": "raceId",
          "type": "uint256"
        },
        {
          "indexed": false,
          "internalType": "address",
          "name": "horseOwner",
          "type": "address"
        },
        {
          "indexed": false,
          "internalType": "uint256",
          "name": "horseId",
          "type": "uint256"
        }
      ],
      "name": "HorseWithdrawn",
      "type": "event"
    },
    {
      "anonymous": false,
      "inputs": [
        {
          "indexed": true,
          "internalType": "address",
          "name": "previousOwner",
          "type": "address"
        },
        {
          "indexed": true,
          "internalType": "address",
          "name": "newOwner",
          "type": "address"
        }
      ],
      "name": "OwnershipTransferred",
      "type": "event"
    },
    {
      "anonymous": false,
      "inputs": [
        {
          "indexed": false,
          "internalType": "uint256",
          "name": "raceId",
          "type": "uint256"
        },
        {
          "indexed": false,
          "internalType": "uint256",
          "name": "entryFee",
          "type": "uint256"
        },
        {
          "indexed": false,
          "internalType": "uint256",
          "name": "numWinners",
          "type": "uint256"
        },
        {
          "indexed": false,
          "internalType": "uint256[]",
          "name": "prizeDistribution",
          "type": "uint256[]"
        }
      ],
      "name": "RaceCreated",
      "type": "event"
    },
    {
      "anonymous": false,
      "inputs": [
        {
          "indexed": false,
          "internalType": "uint256",
          "name": "raceId",
          "type": "uint256"
        },
        {
          "indexed": false,
          "internalType": "uint256[]",
          "name": "winningHorseId",
          "type": "uint256[]"
        }
      ],
      "name": "RaceEnded",
      "type": "event"
    },
    {
      "anonymous": false,
      "inputs": [
        {
          "indexed": false,
          "internalType": "uint256",
          "name": "raceId",
          "type": "uint256"
        }
      ],
      "name": "RaceStarted",
      "type": "event"
    },
    {
      "inputs": [
        {
          "internalType": "uint256",
          "name": "entryFee",
          "type": "uint256"
        },
        {
          "internalType": "uint256[]",
          "name": "prizeDistribution",
          "type": "uint256[]"
        }
      ],
      "name": "createRace",
      "outputs": [],
      "stateMutability": "nonpayable",
      "type": "function"
    },
    {
      "inputs": [
        {
          "internalType": "uint256",
          "name": "raceId",
          "type": "uint256"
        },
        {
          "internalType": "uint256[]",
          "name": "winningHorseIds",
          "type": "uint256[]"
        }
      ],
      "name": "endRace",
      "outputs": [],
      "stateMutability": "nonpayable",
      "type": "function"
    },
    {
      "inputs": [
        {
          "internalType": "uint256",
          "name": "raceId",
          "type": "uint256"
        },
        {
          "internalType": "uint256",
          "name": "horseId",
          "type": "uint256"
        }
      ],
      "name": "enterHorseInRace",
      "outputs": [],
      "stateMutability": "payable",
      "type": "function"
    },
    {
      "inputs": [
        {
          "internalType": "uint256",
          "name": "raceId",
          "type": "uint256"
        }
      ],
      "name": "getRaceResults",
      "outputs": [
        {
          "internalType": "uint256[]",
          "name": "",
          "type": "uint256[]"
        }
      ],
      "stateMutability": "view",
      "type": "function"
    },
    {
      "inputs": [
        {
          "internalType": "uint256",
          "name": "raceId",
          "type": "uint256"
        }
      ],
      "name": "getRaceStatus",
      "outputs": [
        {
          "internalType": "bool",
          "name": "active",
          "type": "bool"
        }
      ],
      "stateMutability": "view",
      "type": "function"
    },
    {
      "inputs": [],
      "name": "horsesNFTContract",
      "outputs": [
        {
          "internalType": "contract HorsesNFT",
          "name": "",
          "type": "address"
        }
      ],
      "stateMutability": "view",
      "type": "function"
    },
    {
      "inputs": [
        {
          "internalType": "uint256",
          "name": "raceId",
          "type": "uint256"
        }
      ],
      "name": "isEndedRace",
      "outputs": [
        {
          "internalType": "bool",
          "name": "active",
          "type": "bool"
        }
      ],
      "stateMutability": "view",
      "type": "function"
    },
    {
      "inputs": [],
      "name": "owner",
      "outputs": [
        {
          "internalType": "address",
          "name": "",
          "type": "address"
        }
      ],
      "stateMutability": "view",
      "type": "function"
    },
    {
      "inputs": [
        {
          "internalType": "uint256",
          "name": "",
          "type": "uint256"
        }
      ],
      "name": "races",
      "outputs": [
        {
          "internalType": "uint256",
          "name": "raceId",
          "type": "uint256"
        },
        {
          "internalType": "uint256",
          "name": "entryFee",
          "type": "uint256"
        },
        {
          "internalType": "uint256",
          "name": "totalPrizePool",
          "type": "uint256"
        },
        {
          "internalType": "uint256",
          "name": "numWinners",
          "type": "uint256"
        },
        {
          "internalType": "uint256",
          "name": "minParticipants",
          "type": "uint256"
        },
        {
          "internalType": "bool",
          "name": "active",
          "type": "bool"
        },
        {
          "internalType": "bool",
          "name": "started",
          "type": "bool"
        },
        {
          "internalType": "bool",
          "name": "ended",
          "type": "bool"
        }
      ],
      "stateMutability": "view",
      "type": "function"
    },
    {
      "inputs": [],
      "name": "renounceOwnership",
      "outputs": [],
      "stateMutability": "nonpayable",
      "type": "function"
    },
    {
      "inputs": [
        {
          "internalType": "uint256",
          "name": "raceId",
          "type": "uint256"
        }
      ],
      "name": "startRace",
      "outputs": [],
      "stateMutability": "nonpayable",
      "type": "function"
    },
    {
      "inputs": [
        {
          "internalType": "address",
          "name": "newOwner",
          "type": "address"
        }
      ],
      "name": "transferOwnership",
      "outputs": [],
      "stateMutability": "nonpayable",
      "type": "function"
    }
  ],
  "bytecode": "0x608060405234801561001057600080fd5b5060405161126b38038061126b83398101604081905261002f916100ad565b6100383361005d565b600180546001600160a01b0319166001600160a01b03929092169190911790556100dd565b600080546001600160a01b038381166001600160a01b0319831681178455604051919092169283917f8be0079c531659141344cd1fd0a4f28419497f9722a3daafe3b4186f6b6457e09190a35050565b6000602082840312156100bf57600080fd5b81516001600160a01b03811681146100d657600080fd5b9392505050565b61117f806100ec6000396000f3fe6080604052600436106100a75760003560e01c80637bbc469e116100645780637bbc469e146101905780638da5cb5b1461023a5780638fa03b4814610258578063f2fde38b14610278578063f76bdb1a14610298578063fa47723a146102c557600080fd5b80630116538f146100ac5780631316b05d146100e157806324d822bf14610119578063287b12f11461013b578063315aa38c1461015b578063715018a61461017b575b600080fd5b3480156100b857600080fd5b506100cc6100c7366004610e6e565b6102d8565b60405190151581526020015b60405180910390f35b3480156100ed57600080fd5b50600154610101906001600160a01b031681565b6040516001600160a01b0390911681526020016100d8565b34801561012557600080fd5b50610139610134366004610e6e565b61035f565b005b34801561014757600080fd5b506100cc610156366004610e6e565b610441565b34801561016757600080fd5b50610139610176366004610e9d565b6104af565b34801561018757600080fd5b50610139610701565b34801561019c57600080fd5b506101f96101ab366004610e6e565b600360208190526000918252604090912080546001820154600283015493830154600584015460069094015492949193919290919060ff808216916101008104821691620100009091041688565b6040805198895260208901979097529587019490945260608601929092526080850152151560a0840152151560c0830152151560e0820152610100016100d8565b34801561024657600080fd5b506000546001600160a01b0316610101565b34801561026457600080fd5b50610139610273366004610e9d565b610715565b34801561028457600080fd5b50610139610293366004610f7c565b610a11565b3480156102a457600080fd5b506102b86102b3366004610e6e565b610a8a565b6040516100d89190610fd4565b6101396102d3366004610fe7565b610b50565b60006102e360025490565b821061032c5760405162461bcd60e51b8152602060048201526013602482015272149858d948191bd95cc81b9bdd08195e1a5cdd606a1b60448201526064015b60405180910390fd5b6000828152600360205260409020600681015460ff16801561035857506006810154610100900460ff16155b9392505050565b610367610cf0565b600081815260036020526040902061037e826102d8565b61039a5760405162461bcd60e51b815260040161032390611009565b6005810154600882015410156103f25760405162461bcd60e51b815260206004820152601760248201527f4e6f7420656e6f756768207061727469636970616e74730000000000000000006044820152606401610323565b60068101805461ff0019166101001790556040517fd8a537561d247cabc83980738b2fd3771513f9b3a4b696b3fead967d36efe7da906104359084815260200190565b60405180910390a15050565b600061044c60025490565b82106104905760405162461bcd60e51b8152602060048201526013602482015272149858d948191bd95cc81b9bdd08195e1a5cdd606a1b6044820152606401610323565b5060009081526003602052604090206006015462010000900460ff1690565b6104b7610cf0565b60008281526003602052604090206006810154610100900460ff166105115760405162461bcd60e51b815260206004820152601060248201526f149858d9481b9bdd081cdd185c9d195960821b6044820152606401610323565b80600301548251146105655760405162461bcd60e51b815260206004820152601b60248201527f496e636f7272656374206e756d626572206f662077696e6e65727300000000006044820152606401610323565b60068101805462ffffff191662010000179055815161058d9060078301906020850190610e0e565b5060006064826002015460506105a39190611061565b6105ad9190611078565b905060005b82600301548110156106c157600060648460040183815481106105d7576105d761109a565b9060005260206000200154846105ed9190611061565b6105f79190611078565b9050600061061d8684815181106106105761061061109a565b6020026020010151610d4a565b90506001600160a01b0381166106755760405162461bcd60e51b815260206004820152601860248201527f57696e6e6572206e6f7420666f756e6420696e207261636500000000000000006044820152606401610323565b6040516001600160a01b0382169083156108fc029084906000818181858888f193505050501580156106ab573d6000803e3d6000fd5b50505080806106b9906110b0565b9150506105b2565b507f7aed510e5c2fdcd342c5cef991b106a3986e8d20d22e489ae5c9a0d18d59715284846040516106f39291906110c9565b60405180910390a150505050565b610709610cf0565b6107136000610dbe565b565b61071d610cf0565b8051600090815b83518110156107665783818151811061073f5761073f61109a565b60200260200101518361075291906110ea565b92508061075e816110b0565b915050610724565b5060648211156107b85760405162461bcd60e51b815260206004820152601f60248201527f546f74616c20646973747269627574696f6e20657863656564732031303025006044820152606401610323565b60648210156108135760405162461bcd60e51b815260206004820152602160248201527f546f74616c20646973747269627574696f6e206c657373207468616e203130306044820152602560f81b6064820152608401610323565b600581111561085c5760405162461bcd60e51b815260206004820152601560248201527413585e080d481dda5b9b995c9cc8185b1b1bddd959605a1b6044820152606401610323565b600061086760025490565b9050604051806101600160405280828152602001868152602001600081526020018381526020018581526020018360036108a19190611061565b8152600160208083019190915260006040808401829052606084018290528051828152808401825260808501528051828152928301905260a090920191509052600082815260036020818152604092839020845181558482015160018201559284015160028401556060840151918301919091556080830151805161092c9260048501920190610e0e565b5060a0820151600582015560c082015160068201805460e08501516101008087015161ffff1990931694151561ff001916949094179015159093029290921762ff000019166201000092151592909202919091179055610120820151805161099e916007840191602090910190610e0e565b5061014082015180516109bb916008840191602090910190610e0e565b509050507fd353319d8f5cef7e55b32e749160eb2a2d9ee2076bea05ff3a44c760c3929105818684876040516109f494939291906110fd565b60405180910390a1610a0a600280546001019055565b5050505050565b610a19610cf0565b6001600160a01b038116610a7e5760405162461bcd60e51b815260206004820152602660248201527f4f776e61626c653a206e6577206f776e657220697320746865207a65726f206160448201526564647265737360d01b6064820152608401610323565b610a8781610dbe565b50565b60008181526003602052604090206006015460609062010000900460ff16610aed5760405162461bcd60e51b8152602060048201526016602482015275149858d9481a185cc81b9bdd08195b991959081e595d60521b6044820152606401610323565b60008281526003602090815260409182902060070180548351818402810184019094528084529091830182828015610b4457602002820191906000526020600020905b815481526020019060010190808311610b30575b50505050509050919050565b6000828152600360205260409020610b67836102d8565b610b835760405162461bcd60e51b815260040161032390611009565b33610b8d83610d4a565b6001600160a01b031614610bd95760405162461bcd60e51b81526020600482015260136024820152722737ba103a3432903437b939b29037bbb732b960691b6044820152606401610323565b80600101543414610c225760405162461bcd60e51b8152602060048201526013602482015272496e636f727265637420656e7472792066656560681b6044820152606401610323565b6008810154601411610c765760405162461bcd60e51b815260206004820152601960248201527f4d6178207061727469636970616e7473206578636565646564000000000000006044820152606401610323565b34816002016000828254610c8a91906110ea565b909155505060088101805460018101825560009182526020918290200183905560408051858152339281019290925281018390527f9ce334b4c8b04bea9c08533da5d64964ae1e53e1c9152c5749044adad3f62b289060600160405180910390a1505050565b6000546001600160a01b031633146107135760405162461bcd60e51b815260206004820181905260248201527f4f776e61626c653a2063616c6c6572206973206e6f7420746865206f776e65726044820152606401610323565b6001546040516331a9108f60e11b8152600481018390526000916001600160a01b031690636352211e90602401602060405180830381865afa158015610d94573d6000803e3d6000fd5b505050506040513d601f19601f82011682018060405250810190610db8919061112c565b92915050565b600080546001600160a01b038381166001600160a01b0319831681178455604051919092169283917f8be0079c531659141344cd1fd0a4f28419497f9722a3daafe3b4186f6b6457e09190a35050565b828054828255906000526020600020908101928215610e49579160200282015b82811115610e49578251825591602001919060010190610e2e565b50610e55929150610e59565b5090565b5b80821115610e555760008155600101610e5a565b600060208284031215610e8057600080fd5b5035919050565b634e487b7160e01b600052604160045260246000fd5b60008060408385031215610eb057600080fd5b8235915060208084013567ffffffffffffffff80821115610ed057600080fd5b818601915086601f830112610ee457600080fd5b813581811115610ef657610ef6610e87565b8060051b604051601f19603f83011681018181108582111715610f1b57610f1b610e87565b604052918252848201925083810185019189831115610f3957600080fd5b938501935b82851015610f5757843584529385019392850192610f3e565b8096505050505050509250929050565b6001600160a01b0381168114610a8757600080fd5b600060208284031215610f8e57600080fd5b813561035881610f67565b600081518084526020808501945080840160005b83811015610fc957815187529582019590820190600101610fad565b509495945050505050565b6020815260006103586020830184610f99565b60008060408385031215610ffa57600080fd5b50508035926020909101359150565b60208082526022908201527f52616365206e6f7420616374697665206f7220616c7265616479207374617274604082015261195960f21b606082015260800190565b634e487b7160e01b600052601160045260246000fd5b8082028115828204841417610db857610db861104b565b60008261109557634e487b7160e01b600052601260045260246000fd5b500490565b634e487b7160e01b600052603260045260246000fd5b6000600182016110c2576110c261104b565b5060010190565b8281526040602082015260006110e26040830184610f99565b949350505050565b80820180821115610db857610db861104b565b8481528360208201528260408201526080606082015260006111226080830184610f99565b9695505050505050565b60006020828403121561113e57600080fd5b815161035881610f6756fea2646970667358221220de3417859e5f38b9883a9f3cddf4b09a46b7afe9023bf9556a75cf5d319bf10664736f6c63430008150033",
  "linkReferences": {},
  "deployedLinkReferences": {}
}