{
  "_format": "hh-sol-artifact-1",
  "contractName": "HorseRacingEvent",
  "sourceName": "contracts/racing/HorseRacingEvent.sol",
  "abi": [
    {
      "inputs": [
        {
          "internalType": "address",
          "name": "_horsesNFTAddress",
          "type": "address"
        }
      ],
      "stateMutability": "nonpayable",
      "type": "constructor"
    },
    {
      "anonymous": false,
      "inputs": [
        {
          "indexed": false,
          "internalType": "uint256",
          "name": "raceId",
          "type": "uint256"
        },
        {
          "indexed": false,
          "internalType": "address",
          "name": "horseOwner",
          "type": "address"
        },
        {
          "indexed": false,
          "internalType": "uint256",
          "name": "horseId",
          "type": "uint256"
        }
      ],
      "name": "HorseEnteredRace",
      "type": "event"
    },
    {
      "anonymous": false,
      "inputs": [
        {
          "indexed": false,
          "internalType": "uint256",
          "name": "raceId",
          "type": "uint256"
        },
        {
          "indexed": false,
          "internalType": "address",
          "name": "horseOwner",
          "type": "address"
        },
        {
          "indexed": false,
          "internalType": "uint256",
          "name": "horseId",
          "type": "uint256"
        }
      ],
      "name": "HorseWithdrawn",
      "type": "event"
    },
    {
      "anonymous": false,
      "inputs": [
        {
          "indexed": true,
          "internalType": "address",
          "name": "previousOwner",
          "type": "address"
        },
        {
          "indexed": true,
          "internalType": "address",
          "name": "newOwner",
          "type": "address"
        }
      ],
      "name": "OwnershipTransferred",
      "type": "event"
    },
    {
      "anonymous": false,
      "inputs": [
        {
          "indexed": false,
          "internalType": "uint256",
          "name": "raceId",
          "type": "uint256"
        },
        {
          "indexed": false,
          "internalType": "uint256",
          "name": "entryFee",
          "type": "uint256"
        },
        {
          "indexed": false,
          "internalType": "uint256",
          "name": "numWinners",
          "type": "uint256"
        },
        {
          "indexed": false,
          "internalType": "uint256[]",
          "name": "prizeDistribution",
          "type": "uint256[]"
        }
      ],
      "name": "RaceCreated",
      "type": "event"
    },
    {
      "anonymous": false,
      "inputs": [
        {
          "indexed": false,
          "internalType": "uint256",
          "name": "raceId",
          "type": "uint256"
        },
        {
          "indexed": false,
          "internalType": "uint256[]",
          "name": "winningHorseId",
          "type": "uint256[]"
        }
      ],
      "name": "RaceEnded",
      "type": "event"
    },
    {
      "anonymous": false,
      "inputs": [
        {
          "indexed": false,
          "internalType": "uint256",
          "name": "raceId",
          "type": "uint256"
        }
      ],
      "name": "RaceStarted",
      "type": "event"
    },
    {
      "inputs": [
        {
          "internalType": "uint256",
          "name": "entryFee",
          "type": "uint256"
        },
        {
          "internalType": "uint256[]",
          "name": "prizeDistribution",
          "type": "uint256[]"
        }
      ],
      "name": "createRace",
      "outputs": [],
      "stateMutability": "nonpayable",
      "type": "function"
    },
    {
      "inputs": [
        {
          "internalType": "uint256",
          "name": "raceId",
          "type": "uint256"
        },
        {
          "internalType": "uint256[]",
          "name": "winningHorseIds",
          "type": "uint256[]"
        }
      ],
      "name": "endRace",
      "outputs": [],
      "stateMutability": "nonpayable",
      "type": "function"
    },
    {
      "inputs": [
        {
          "internalType": "uint256",
          "name": "raceId",
          "type": "uint256"
        },
        {
          "internalType": "uint256",
          "name": "horseId",
          "type": "uint256"
        }
      ],
      "name": "enterHorseInRace",
      "outputs": [],
      "stateMutability": "payable",
      "type": "function"
    },
    {
      "inputs": [
        {
          "internalType": "uint256",
          "name": "raceId",
          "type": "uint256"
        }
      ],
      "name": "getIsActiveRace",
      "outputs": [
        {
          "internalType": "bool",
          "name": "raceActive",
          "type": "bool"
        }
      ],
      "stateMutability": "view",
      "type": "function"
    },
    {
      "inputs": [
        {
          "internalType": "uint256",
          "name": "horseId",
          "type": "uint256"
        }
      ],
      "name": "getOwnerOfHorse",
      "outputs": [
        {
          "internalType": "address",
          "name": "",
          "type": "address"
        }
      ],
      "stateMutability": "view",
      "type": "function"
    },
    {
      "inputs": [
        {
          "internalType": "uint256",
          "name": "raceId",
          "type": "uint256"
        }
      ],
      "name": "getRaceResults",
      "outputs": [
        {
          "internalType": "uint256[]",
          "name": "",
          "type": "uint256[]"
        }
      ],
      "stateMutability": "view",
      "type": "function"
    },
    {
      "inputs": [
        {
          "internalType": "uint256",
          "name": "raceId",
          "type": "uint256"
        }
      ],
      "name": "getTotalPrizePoolRace",
      "outputs": [
        {
          "internalType": "uint256",
          "name": "totalPrizePool",
          "type": "uint256"
        }
      ],
      "stateMutability": "view",
      "type": "function"
    },
    {
      "inputs": [],
      "name": "horsesNFTContract",
      "outputs": [
        {
          "internalType": "contract HorsesNFT",
          "name": "",
          "type": "address"
        }
      ],
      "stateMutability": "view",
      "type": "function"
    },
    {
      "inputs": [],
      "name": "owner",
      "outputs": [
        {
          "internalType": "address",
          "name": "",
          "type": "address"
        }
      ],
      "stateMutability": "view",
      "type": "function"
    },
    {
      "inputs": [
        {
          "internalType": "uint256",
          "name": "",
          "type": "uint256"
        }
      ],
      "name": "races",
      "outputs": [
        {
          "internalType": "uint256",
          "name": "raceId",
          "type": "uint256"
        },
        {
          "internalType": "uint256",
          "name": "entryFee",
          "type": "uint256"
        },
        {
          "internalType": "uint256",
          "name": "totalPrizePool",
          "type": "uint256"
        },
        {
          "internalType": "uint256",
          "name": "numWinners",
          "type": "uint256"
        },
        {
          "internalType": "uint256",
          "name": "minParticipants",
          "type": "uint256"
        },
        {
          "internalType": "bool",
          "name": "raceActive",
          "type": "bool"
        },
        {
          "internalType": "bool",
          "name": "raceStarted",
          "type": "bool"
        }
      ],
      "stateMutability": "view",
      "type": "function"
    },
    {
      "inputs": [],
      "name": "renounceOwnership",
      "outputs": [],
      "stateMutability": "nonpayable",
      "type": "function"
    },
    {
      "inputs": [
        {
          "internalType": "uint256",
          "name": "raceId",
          "type": "uint256"
        }
      ],
      "name": "startRace",
      "outputs": [],
      "stateMutability": "nonpayable",
      "type": "function"
    },
    {
      "inputs": [
        {
          "internalType": "address",
          "name": "newOwner",
          "type": "address"
        }
      ],
      "name": "transferOwnership",
      "outputs": [],
      "stateMutability": "nonpayable",
      "type": "function"
    }
  ],
  "bytecode": "0x608060405234801561001057600080fd5b5060405161128138038061128183398101604081905261002f916100ad565b6100383361005d565b600180546001600160a01b0319166001600160a01b03929092169190911790556100dd565b600080546001600160a01b038381166001600160a01b0319831681178455604051919092169283917f8be0079c531659141344cd1fd0a4f28419497f9722a3daafe3b4186f6b6457e09190a35050565b6000602082840312156100bf57600080fd5b81516001600160a01b03811681146100d657600080fd5b9392505050565b611195806100ec6000396000f3fe6080604052600436106100c25760003560e01c80637bbc469e1161007f578063924c855a11610059578063924c855a1461027f578063f2fde38b146102af578063f76bdb1a146102cf578063fa47723a146102fc57600080fd5b80637bbc469e146101a95780638da5cb5b146102415780638fa03b481461025f57600080fd5b806308b0aca0146100c75780631316b05d1461010457806324d822bf14610124578063315aa38c146101465780633bb5ac0814610166578063715018a614610194575b600080fd5b3480156100d357600080fd5b506100e76100e2366004610e7d565b61030f565b6040516001600160a01b0390911681526020015b60405180910390f35b34801561011057600080fd5b506001546100e7906001600160a01b031681565b34801561013057600080fd5b5061014461013f366004610e7d565b610383565b005b34801561015257600080fd5b50610144610161366004610eac565b610483565b34801561017257600080fd5b50610186610181366004610e7d565b6106cf565b6040519081526020016100fb565b3480156101a057600080fd5b50610144610734565b3480156101b557600080fd5b506102086101c4366004610e7d565b600360208190526000918252604090912080546001820154600283015493830154600584015460069094015492949193919290919060ff8082169161010090041687565b6040805197885260208801969096529486019390935260608501919091526080840152151560a0830152151560c082015260e0016100fb565b34801561024d57600080fd5b506000546001600160a01b03166100e7565b34801561026b57600080fd5b5061014461027a366004610eac565b610748565b34801561028b57600080fd5b5061029f61029a366004610e7d565b610a1d565b60405190151581526020016100fb565b3480156102bb57600080fd5b506101446102ca366004610f8b565b610a85565b3480156102db57600080fd5b506102ef6102ea366004610e7d565b610afe565b6040516100fb9190610fea565b61014461030a366004610ffd565b610bbe565b6001546040516331a9108f60e11b8152600481018390526000916001600160a01b031690636352211e90602401602060405180830381865afa158015610359573d6000803e3d6000fd5b505050506040513d601f19601f8201168201806040525081019061037d919061101f565b92915050565b61038b610d73565b6000818152600360205260409020600681015460ff1680156103b757506006810154610100900460ff16155b6103dc5760405162461bcd60e51b81526004016103d39061103c565b60405180910390fd5b6005810154600882015410156104345760405162461bcd60e51b815260206004820152601760248201527f4e6f7420656e6f756768207061727469636970616e747300000000000000000060448201526064016103d3565b60068101805461ff0019166101001790556040517fd8a537561d247cabc83980738b2fd3771513f9b3a4b696b3fead967d36efe7da906104779084815260200190565b60405180910390a15050565b61048b610d73565b60008281526003602052604090206006810154610100900460ff166104e55760405162461bcd60e51b815260206004820152601060248201526f149858d9481b9bdd081cdd185c9d195960821b60448201526064016103d3565b80600301548251146105395760405162461bcd60e51b815260206004820152601b60248201527f496e636f7272656374206e756d626572206f662077696e6e657273000000000060448201526064016103d3565b60068101805461ffff19169055815161055b9060078301906020850190610e1d565b5060006064826002015460506105719190611094565b61057b91906110ab565b905060005b826003015481101561068f57600060648460040183815481106105a5576105a56110cd565b9060005260206000200154846105bb9190611094565b6105c591906110ab565b905060006105eb8684815181106105de576105de6110cd565b602002602001015161030f565b90506001600160a01b0381166106435760405162461bcd60e51b815260206004820152601860248201527f57696e6e6572206e6f7420666f756e6420696e2072616365000000000000000060448201526064016103d3565b6040516001600160a01b0382169083156108fc029084906000818181858888f19350505050158015610679573d6000803e3d6000fd5b5050508080610687906110e3565b915050610580565b507f7aed510e5c2fdcd342c5cef991b106a3986e8d20d22e489ae5c9a0d18d59715284846040516106c19291906110fc565b60405180910390a150505050565b60006106da60025490565b821061071e5760405162461bcd60e51b8152602060048201526013602482015272149858d948191bd95cc81b9bdd08195e1a5cdd606a1b60448201526064016103d3565b5060009081526003602052604090206002015490565b61073c610d73565b6107466000610dcd565b565b610750610d73565b8051600090815b835181101561079957838181518110610772576107726110cd565b602002602001015183610785919061111d565b925080610791816110e3565b915050610757565b5060648211156107eb5760405162461bcd60e51b815260206004820152601f60248201527f546f74616c20646973747269627574696f6e206578636565647320313030250060448201526064016103d3565b60648210156108465760405162461bcd60e51b815260206004820152602160248201527f546f74616c20646973747269627574696f6e206c657373207468616e203130306044820152602560f81b60648201526084016103d3565b600581111561088f5760405162461bcd60e51b815260206004820152601560248201527413585e080d481dda5b9b995c9cc8185b1b1bddd959605a1b60448201526064016103d3565b600061089a60025490565b9050604051806101400160405280828152602001868152602001600081526020018381526020018581526020018360036108d49190611094565b81526001602080830191909152600060408084018290528051828152808401825260608501528051828152928301905260809092019150905260008281526003602081815260409283902084518155848201516001820155928401516002840155606084015191830191909155608083015180516109589260048501920190610e1d565b5060a0820151600582015560c082015160068201805460e085015161ffff1990911692151561ff00191692909217610100921515830217905582015180516109aa916007840191602090910190610e1d565b5061012082015180516109c7916008840191602090910190610e1d565b509050507fd353319d8f5cef7e55b32e749160eb2a2d9ee2076bea05ff3a44c760c392910581868487604051610a009493929190611130565b60405180910390a1610a16600280546001019055565b5050505050565b6000610a2860025490565b8210610a6c5760405162461bcd60e51b8152602060048201526013602482015272149858d948191bd95cc81b9bdd08195e1a5cdd606a1b60448201526064016103d3565b5060009081526003602052604090206006015460ff1690565b610a8d610d73565b6001600160a01b038116610af25760405162461bcd60e51b815260206004820152602660248201527f4f776e61626c653a206e6577206f776e657220697320746865207a65726f206160448201526564647265737360d01b60648201526084016103d3565b610afb81610dcd565b50565b60008181526003602052604090206006015460609060ff16610b5b5760405162461bcd60e51b8152602060048201526016602482015275149858d9481a185cc81b9bdd08195b991959081e595d60521b60448201526064016103d3565b60008281526003602090815260409182902060070180548351818402810184019094528084529091830182828015610bb257602002820191906000526020600020905b815481526020019060010190808311610b9e575b50505050509050919050565b6000828152600360205260409020600681015460ff168015610bea57506006810154610100900460ff16155b610c065760405162461bcd60e51b81526004016103d39061103c565b33610c108361030f565b6001600160a01b031614610c5c5760405162461bcd60e51b81526020600482015260136024820152722737ba103a3432903437b939b29037bbb732b960691b60448201526064016103d3565b80600101543414610ca55760405162461bcd60e51b8152602060048201526013602482015272496e636f727265637420656e7472792066656560681b60448201526064016103d3565b6008810154601411610cf95760405162461bcd60e51b815260206004820152601960248201527f4d6178207061727469636970616e74732065786365656465640000000000000060448201526064016103d3565b34816002016000828254610d0d919061111d565b909155505060088101805460018101825560009182526020918290200183905560408051858152339281019290925281018390527f9ce334b4c8b04bea9c08533da5d64964ae1e53e1c9152c5749044adad3f62b289060600160405180910390a1505050565b6000546001600160a01b031633146107465760405162461bcd60e51b815260206004820181905260248201527f4f776e61626c653a2063616c6c6572206973206e6f7420746865206f776e657260448201526064016103d3565b600080546001600160a01b038381166001600160a01b0319831681178455604051919092169283917f8be0079c531659141344cd1fd0a4f28419497f9722a3daafe3b4186f6b6457e09190a35050565b828054828255906000526020600020908101928215610e58579160200282015b82811115610e58578251825591602001919060010190610e3d565b50610e64929150610e68565b5090565b5b80821115610e645760008155600101610e69565b600060208284031215610e8f57600080fd5b5035919050565b634e487b7160e01b600052604160045260246000fd5b60008060408385031215610ebf57600080fd5b8235915060208084013567ffffffffffffffff80821115610edf57600080fd5b818601915086601f830112610ef357600080fd5b813581811115610f0557610f05610e96565b8060051b604051601f19603f83011681018181108582111715610f2a57610f2a610e96565b604052918252848201925083810185019189831115610f4857600080fd5b938501935b82851015610f6657843584529385019392850192610f4d565b8096505050505050509250929050565b6001600160a01b0381168114610afb57600080fd5b600060208284031215610f9d57600080fd5b8135610fa881610f76565b9392505050565b600081518084526020808501945080840160005b83811015610fdf57815187529582019590820190600101610fc3565b509495945050505050565b602081526000610fa86020830184610faf565b6000806040838503121561101057600080fd5b50508035926020909101359150565b60006020828403121561103157600080fd5b8151610fa881610f76565b60208082526022908201527f52616365206e6f7420616374697665206f7220616c7265616479207374617274604082015261195960f21b606082015260800190565b634e487b7160e01b600052601160045260246000fd5b808202811582820484141761037d5761037d61107e565b6000826110c857634e487b7160e01b600052601260045260246000fd5b500490565b634e487b7160e01b600052603260045260246000fd5b6000600182016110f5576110f561107e565b5060010190565b8281526040602082015260006111156040830184610faf565b949350505050565b8082018082111561037d5761037d61107e565b8481528360208201528260408201526080606082015260006111556080830184610faf565b969550505050505056fea26469706673582212208e857bb8f67f04941a34d6d7f79d108650bda8a8d6de4982e97b355cea78361464736f6c63430008150033",
  "linkReferences": {},
  "deployedLinkReferences": {}
}