{
  "_format": "hh-sol-artifact-1",
  "contractName": "AvatarMarketplace",
  "sourceName": "contracts/horsesMarket/NFTMarketplace.sol",
  "abi": [
    {
      "inputs": [
        {
          "internalType": "address",
          "name": "_siliquaCoinAddress",
          "type": "address"
        },
        {
          "internalType": "address",
          "name": "_nftContractAddress",
          "type": "address"
        },
        {
          "internalType": "uint256",
          "name": "_commissionPercentage",
          "type": "uint256"
        }
      ],
      "stateMutability": "nonpayable",
      "type": "constructor"
    },
    {
      "anonymous": false,
      "inputs": [
        {
          "indexed": false,
          "internalType": "uint256",
          "name": "newCommissionPercentage",
          "type": "uint256"
        }
      ],
      "name": "CommissionPercentageUpdated",
      "type": "event"
    },
    {
      "anonymous": false,
      "inputs": [
        {
          "indexed": true,
          "internalType": "address",
          "name": "newNFTContractAddress",
          "type": "address"
        }
      ],
      "name": "NFTContractUpdated",
      "type": "event"
    },
    {
      "anonymous": false,
      "inputs": [
        {
          "indexed": true,
          "internalType": "uint256",
          "name": "listingId",
          "type": "uint256"
        },
        {
          "indexed": true,
          "internalType": "address",
          "name": "seller",
          "type": "address"
        },
        {
          "indexed": true,
          "internalType": "uint256",
          "name": "tokenId",
          "type": "uint256"
        },
        {
          "indexed": false,
          "internalType": "uint256",
          "name": "amount",
          "type": "uint256"
        },
        {
          "indexed": false,
          "internalType": "uint256",
          "name": "price",
          "type": "uint256"
        },
        {
          "indexed": false,
          "internalType": "string",
          "name": "status",
          "type": "string"
        }
      ],
      "name": "NFTListed",
      "type": "event"
    },
    {
      "anonymous": false,
      "inputs": [
        {
          "indexed": true,
          "internalType": "uint256",
          "name": "listingId",
          "type": "uint256"
        },
        {
          "indexed": true,
          "internalType": "address",
          "name": "seller",
          "type": "address"
        },
        {
          "indexed": true,
          "internalType": "uint256",
          "name": "tokenId",
          "type": "uint256"
        },
        {
          "indexed": false,
          "internalType": "uint256",
          "name": "amount",
          "type": "uint256"
        },
        {
          "indexed": false,
          "internalType": "uint256",
          "name": "price",
          "type": "uint256"
        },
        {
          "indexed": false,
          "internalType": "string",
          "name": "status",
          "type": "string"
        }
      ],
      "name": "NFTListingCancelled",
      "type": "event"
    },
    {
      "anonymous": false,
      "inputs": [
        {
          "indexed": true,
          "internalType": "uint256",
          "name": "listingId",
          "type": "uint256"
        },
        {
          "indexed": true,
          "internalType": "address",
          "name": "buyer",
          "type": "address"
        },
        {
          "indexed": true,
          "internalType": "address",
          "name": "seller",
          "type": "address"
        },
        {
          "indexed": false,
          "internalType": "uint256",
          "name": "tokenId",
          "type": "uint256"
        },
        {
          "indexed": false,
          "internalType": "uint256",
          "name": "amount",
          "type": "uint256"
        },
        {
          "indexed": false,
          "internalType": "uint256",
          "name": "price",
          "type": "uint256"
        },
        {
          "indexed": false,
          "internalType": "string",
          "name": "status",
          "type": "string"
        }
      ],
      "name": "NFTPurchased",
      "type": "event"
    },
    {
      "anonymous": false,
      "inputs": [
        {
          "indexed": true,
          "internalType": "address",
          "name": "previousOwner",
          "type": "address"
        },
        {
          "indexed": true,
          "internalType": "address",
          "name": "newOwner",
          "type": "address"
        }
      ],
      "name": "OwnershipTransferred",
      "type": "event"
    },
    {
      "anonymous": false,
      "inputs": [
        {
          "indexed": false,
          "internalType": "address",
          "name": "account",
          "type": "address"
        }
      ],
      "name": "Paused",
      "type": "event"
    },
    {
      "anonymous": false,
      "inputs": [
        {
          "indexed": true,
          "internalType": "address",
          "name": "newSiliquaCoinAddress",
          "type": "address"
        }
      ],
      "name": "SiliquaCoinUpdated",
      "type": "event"
    },
    {
      "anonymous": false,
      "inputs": [
        {
          "indexed": false,
          "internalType": "address",
          "name": "account",
          "type": "address"
        }
      ],
      "name": "Unpaused",
      "type": "event"
    },
    {
      "inputs": [
        {
          "internalType": "address",
          "name": "_seller",
          "type": "address"
        }
      ],
      "name": "approveSeller",
      "outputs": [],
      "stateMutability": "nonpayable",
      "type": "function"
    },
    {
      "inputs": [
        {
          "internalType": "uint256",
          "name": "_listingId",
          "type": "uint256"
        }
      ],
      "name": "cancelListing",
      "outputs": [],
      "stateMutability": "nonpayable",
      "type": "function"
    },
    {
      "inputs": [],
      "name": "commissionPercentage",
      "outputs": [
        {
          "internalType": "uint256",
          "name": "",
          "type": "uint256"
        }
      ],
      "stateMutability": "view",
      "type": "function"
    },
    {
      "inputs": [],
      "name": "getActiveListings",
      "outputs": [
        {
          "components": [
            {
              "internalType": "uint256",
              "name": "listingId",
              "type": "uint256"
            },
            {
              "internalType": "address",
              "name": "seller",
              "type": "address"
            },
            {
              "internalType": "uint256",
              "name": "tokenId",
              "type": "uint256"
            },
            {
              "internalType": "uint256",
              "name": "amount",
              "type": "uint256"
            },
            {
              "internalType": "uint256",
              "name": "price",
              "type": "uint256"
            },
            {
              "internalType": "bool",
              "name": "isActive",
              "type": "bool"
            }
          ],
          "internalType": "struct AvatarMarketplace.Listing[]",
          "name": "activeListings",
          "type": "tuple[]"
        }
      ],
      "stateMutability": "view",
      "type": "function"
    },
    {
      "inputs": [
        {
          "internalType": "uint256",
          "name": "_tokenId",
          "type": "uint256"
        },
        {
          "internalType": "uint256",
          "name": "_amount",
          "type": "uint256"
        },
        {
          "internalType": "uint256",
          "name": "_price",
          "type": "uint256"
        }
      ],
      "name": "listNFT",
      "outputs": [],
      "stateMutability": "nonpayable",
      "type": "function"
    },
    {
      "inputs": [],
      "name": "listingId",
      "outputs": [
        {
          "internalType": "uint256",
          "name": "",
          "type": "uint256"
        }
      ],
      "stateMutability": "view",
      "type": "function"
    },
    {
      "inputs": [
        {
          "internalType": "uint256",
          "name": "",
          "type": "uint256"
        }
      ],
      "name": "listings",
      "outputs": [
        {
          "internalType": "uint256",
          "name": "listingId",
          "type": "uint256"
        },
        {
          "internalType": "address",
          "name": "seller",
          "type": "address"
        },
        {
          "internalType": "uint256",
          "name": "tokenId",
          "type": "uint256"
        },
        {
          "internalType": "uint256",
          "name": "amount",
          "type": "uint256"
        },
        {
          "internalType": "uint256",
          "name": "price",
          "type": "uint256"
        },
        {
          "internalType": "bool",
          "name": "isActive",
          "type": "bool"
        }
      ],
      "stateMutability": "view",
      "type": "function"
    },
    {
      "inputs": [],
      "name": "nftToken",
      "outputs": [
        {
          "internalType": "contract AvatarNFT",
          "name": "",
          "type": "address"
        }
      ],
      "stateMutability": "view",
      "type": "function"
    },
    {
      "inputs": [
        {
          "internalType": "address",
          "name": "",
          "type": "address"
        },
        {
          "internalType": "address",
          "name": "",
          "type": "address"
        },
        {
          "internalType": "uint256[]",
          "name": "",
          "type": "uint256[]"
        },
        {
          "internalType": "uint256[]",
          "name": "",
          "type": "uint256[]"
        },
        {
          "internalType": "bytes",
          "name": "",
          "type": "bytes"
        }
      ],
      "name": "onERC1155BatchReceived",
      "outputs": [
        {
          "internalType": "bytes4",
          "name": "",
          "type": "bytes4"
        }
      ],
      "stateMutability": "nonpayable",
      "type": "function"
    },
    {
      "inputs": [
        {
          "internalType": "address",
          "name": "",
          "type": "address"
        },
        {
          "internalType": "address",
          "name": "",
          "type": "address"
        },
        {
          "internalType": "uint256",
          "name": "",
          "type": "uint256"
        },
        {
          "internalType": "uint256",
          "name": "",
          "type": "uint256"
        },
        {
          "internalType": "bytes",
          "name": "",
          "type": "bytes"
        }
      ],
      "name": "onERC1155Received",
      "outputs": [
        {
          "internalType": "bytes4",
          "name": "",
          "type": "bytes4"
        }
      ],
      "stateMutability": "nonpayable",
      "type": "function"
    },
    {
      "inputs": [],
      "name": "owner",
      "outputs": [
        {
          "internalType": "address",
          "name": "",
          "type": "address"
        }
      ],
      "stateMutability": "view",
      "type": "function"
    },
    {
      "inputs": [],
      "name": "pause",
      "outputs": [],
      "stateMutability": "nonpayable",
      "type": "function"
    },
    {
      "inputs": [],
      "name": "paused",
      "outputs": [
        {
          "internalType": "bool",
          "name": "",
          "type": "bool"
        }
      ],
      "stateMutability": "view",
      "type": "function"
    },
    {
      "inputs": [
        {
          "internalType": "uint256",
          "name": "_listingId",
          "type": "uint256"
        }
      ],
      "name": "purchaseNFT",
      "outputs": [],
      "stateMutability": "nonpayable",
      "type": "function"
    },
    {
      "inputs": [],
      "name": "renounceOwnership",
      "outputs": [],
      "stateMutability": "nonpayable",
      "type": "function"
    },
    {
      "inputs": [
        {
          "internalType": "address",
          "name": "_seller",
          "type": "address"
        }
      ],
      "name": "revokeSellerApproval",
      "outputs": [],
      "stateMutability": "nonpayable",
      "type": "function"
    },
    {
      "inputs": [
        {
          "internalType": "address",
          "name": "_nftContractAddress",
          "type": "address"
        }
      ],
      "name": "setNFTContract",
      "outputs": [],
      "stateMutability": "nonpayable",
      "type": "function"
    },
    {
      "inputs": [
        {
          "internalType": "address",
          "name": "_siliquaCoinAddress",
          "type": "address"
        }
      ],
      "name": "setSiliquaCoin",
      "outputs": [],
      "stateMutability": "nonpayable",
      "type": "function"
    },
    {
      "inputs": [
        {
          "internalType": "bytes4",
          "name": "interfaceId",
          "type": "bytes4"
        }
      ],
      "name": "supportsInterface",
      "outputs": [
        {
          "internalType": "bool",
          "name": "",
          "type": "bool"
        }
      ],
      "stateMutability": "view",
      "type": "function"
    },
    {
      "inputs": [],
      "name": "token",
      "outputs": [
        {
          "internalType": "contract ISiliquaCoin",
          "name": "",
          "type": "address"
        }
      ],
      "stateMutability": "view",
      "type": "function"
    },
    {
      "inputs": [],
      "name": "totalCommissionEarned",
      "outputs": [
        {
          "internalType": "uint256",
          "name": "",
          "type": "uint256"
        }
      ],
      "stateMutability": "view",
      "type": "function"
    },
    {
      "inputs": [
        {
          "internalType": "address",
          "name": "newOwner",
          "type": "address"
        }
      ],
      "name": "transferOwnership",
      "outputs": [],
      "stateMutability": "nonpayable",
      "type": "function"
    },
    {
      "inputs": [],
      "name": "unpause",
      "outputs": [],
      "stateMutability": "nonpayable",
      "type": "function"
    },
    {
      "inputs": [
        {
          "internalType": "uint256",
          "name": "_newCommissionPercentage",
          "type": "uint256"
        }
      ],
      "name": "updateCommissionPercentage",
      "outputs": [],
      "stateMutability": "nonpayable",
      "type": "function"
    }
  ],
  "bytecode": "0x608060405260006007553480156200001657600080fd5b5060405162001877380380620018778339810160408190526200003991620000f6565b620000443362000089565b60018055600280546001600160a81b0319166101006001600160a01b0394851602179055600380546001600160a01b0319169390921692909217905560045562000137565b600080546001600160a01b038381166001600160a01b0319831681178455604051919092169283917f8be0079c531659141344cd1fd0a4f28419497f9722a3daafe3b4186f6b6457e09190a35050565b80516001600160a01b0381168114620000f157600080fd5b919050565b6000806000606084860312156200010c57600080fd5b6200011784620000d9565b92506200012760208501620000d9565b9150604084015190509250925092565b61173080620001476000396000f3fe608060405234801561001057600080fd5b50600436106101585760003560e01c80639405dfdd116100c3578063d06fcba81161007c578063d06fcba8146102d4578063d575fe64146102ec578063de74e57b146102f5578063f23a6e611461037c578063f2fde38b1461039b578063fc0c546a146103ae57600080fd5b80639405dfdd14610243578063a7ccabdf1461025a578063b0136c8d1461026d578063b226a96614610280578063bc197c8114610293578063c73cdd23146102cb57600080fd5b80635ec5d856116101155780635ec5d856146101d3578063715018a6146101e65780638456cb59146101ee57806387c35bc0146101f65780638ce2199e1461020b5780638da5cb5b1461021e57600080fd5b806301ffc9a71461015d57806313bc2b4914610185578063150bde031461019a578063305a67a8146101ad5780633f4ba83a146101c05780635c975abb146101c8575b600080fd5b61017061016b366004611294565b6103c1565b60405190151581526020015b60405180910390f35b6101986101933660046112e1565b6103f8565b005b6101986101a83660046112fc565b610452565b6101986101bb3660046112fc565b610740565b610198610953565b60025460ff16610170565b6101986101e13660046112e1565b610965565b6101986109e5565b6101986109f7565b6101fe610a07565b60405161017c9190611315565b6101986102193660046112fc565b610bbc565b6000546001600160a01b03165b6040516001600160a01b03909116815260200161017c565b61024c60075481565b60405190815260200161017c565b6101986102683660046112e1565b610c58565b61019861027b366004611398565b610cba565b61019861028e3660046112e1565b610fae565b6102b26102a13660046114fb565b63bc197c8160e01b95945050505050565b6040516001600160e01b0319909116815260200161017c565b61024c60055481565b60025461022b9061010090046001600160a01b031681565b61024c60045481565b6103456103033660046112fc565b60066020526000908152604090208054600182015460028301546003840154600485015460059095015493946001600160a01b03909316939192909160ff1686565b604080519687526001600160a01b0390951660208701529385019290925260608401526080830152151560a082015260c00161017c565b6102b261038a3660046115a5565b63f23a6e6160e01b95945050505050565b6101986103a93660046112e1565b610ffd565b60035461022b906001600160a01b031681565b60006001600160e01b03198216630271189760e51b14806103f257506301ffc9a760e01b6001600160e01b03198316145b92915050565b610400611073565b6104086110cd565b600380546001600160a01b0319166001600160a01b0383169081179091556040517f6eee81a43bf9442f55a05941b6e18df1a7bcf02125d1e7b93ba7342aa72ef20e90600090a250565b61045a611113565b6104626110cd565b60075481106104ab5760405162461bcd60e51b815260206004820152601060248201526f125108191bd95cdb89dd08195e1a5cdd60821b60448201526064015b60405180910390fd5b6000818152600660205260409020600581015460ff166105055760405162461bcd60e51b81526020600482015260156024820152744c697374696e67206973206e6f742061637469766560581b60448201526064016104a2565b60006064600454836004015461051b9190611620565b6105259190611637565b6003546001840154600480860154604051632142170760e11b81529495506001600160a01b03938416946342842e0e946105659433949116929101611659565b6020604051808303816000875af1158015610584573d6000803e3d6000fd5b505050506040513d601f19601f820116820180604052508101906105a8919061167d565b5060035460405163423f6cef60e01b8152306004820152602481018390526001600160a01b039091169063423f6cef906044016020604051808303816000875af11580156105fa573d6000803e3d6000fd5b505050506040513d601f19601f8201168201806040525081019061061e919061167d565b508060056000828254610631919061169f565b909155505060028054908301546040516323b872dd60e01b81526101009092046001600160a01b0316916323b872dd916106719130913391600401611659565b600060405180830381600087803b15801561068b57600080fd5b505af115801561069f573d6000803e3d6000fd5b5050505060058201805460ff19169055600182015460028301546003840154600485015460408051938452602084019290925282820152608060608301819052600990830152681c1d5c98da185cd95960ba1b60a0830152516001600160a01b0390921691339186917f0a06a6f449435029a2c06dbea66356ac3f4f0584a73ff7f22ef368c144a012a79181900360c00190a4505061073d60018055565b50565b610748611113565b6107506110cd565b60075481106107965760405162461bcd60e51b8152602060048201526012602482015271125b9d985b1a59081b1a5cdd1a5b99c8125160721b60448201526064016104a2565b600081815260066020526040902060018101546001600160a01b0316331461080f5760405162461bcd60e51b815260206004820152602660248201527f4f6e6c79207468652073656c6c65722063616e2063616e63656c20746865206c604482015265697374696e6760d01b60648201526084016104a2565b600581015460ff1661085b5760405162461bcd60e51b81526020600482015260156024820152744c697374696e67206973206e6f742061637469766560581b60448201526064016104a2565b60028054908201546040516323b872dd60e01b81526101009092046001600160a01b0316916323b872dd916108969130913391600401611659565b600060405180830381600087803b1580156108b057600080fd5b505af11580156108c4573d6000803e3d6000fd5b50505060058201805460ff1916905550600281015460038201546004830154604051339286927f6d0ecfb1e9c08e774b62b396633297074ab554950a2f8ece9cd32392582c39a09261094192919091825260208201526060604082018190526009908201526818d85b98d95b1b195960ba1b608082015260a00190565b60405180910390a45061073d60018055565b61095b611073565b61096361116c565b565b61096d611073565b6109756110cd565b60025460405163a22cb46560e01b81526001600160a01b038381166004830152600160248301526101009092049091169063a22cb465906044015b600060405180830381600087803b1580156109ca57600080fd5b505af11580156109de573d6000803e3d6000fd5b5050505050565b6109ed611073565b61096360006111be565b6109ff611073565b61096361120e565b6060610a116110cd565b6000805b600754811015610a595760008181526006602052604090206005015460ff1615610a475781610a43816116b2565b9250505b80610a51816116b2565b915050610a15565b508067ffffffffffffffff811115610a7357610a736113c4565b604051908082528060200260200182016040528015610ae857816020015b610ad56040518060c001604052806000815260200160006001600160a01b031681526020016000815260200160008152602001600081526020016000151581525090565b815260200190600190039081610a915790505b5091506000805b600754811015610bb65760008181526006602052604090206005015460ff1615610ba457600081815260066020908152604091829020825160c0810184528154815260018201546001600160a01b031692810192909252600281015492820192909252600382015460608201526004820154608082015260059091015460ff16151560a08201528451859084908110610b8a57610b8a6116cb565b60200260200101819052508180610ba0906116b2565b9250505b80610bae816116b2565b915050610aef565b50505090565b610bc4611073565b610bcc6110cd565b6064811115610c1d5760405162461bcd60e51b815260206004820152601d60248201527f496e76616c696420636f6d6d697373696f6e2070657263656e7461676500000060448201526064016104a2565b60048190556040518181527f7e3665a83046ac3c4ec146cf309edab9d75086c48761909ce868f5c65743f4f19060200160405180910390a150565b610c60611073565b610c686110cd565b60028054610100600160a81b0319166101006001600160a01b038416908102919091179091556040517ff2610996d245d9b77e4ff84c2174eea0b76fb44c422218404f66e28816d78fb990600090a250565b610cc2611113565b610cca6110cd565b6002546040516370a0823160e01b8152336004820152839161010090046001600160a01b0316906370a0823190602401602060405180830381865afa158015610d17573d6000803e3d6000fd5b505050506040513d601f19601f82011682018060405250810190610d3b91906116e1565b1015610d805760405162461bcd60e51b8152602060048201526014602482015273496e73756666696369656e742062616c616e636560601b60448201526064016104a2565b6000606460045483610d929190611620565b610d9c9190611637565b600354604051632142170760e11b81529192506001600160a01b0316906342842e0e90610dd190339030908690600401611659565b6020604051808303816000875af1158015610df0573d6000803e3d6000fd5b505050506040513d601f19601f82011682018060405250810190610e14919061167d565b506002546040516323b872dd60e01b81526101009091046001600160a01b0316906323b872dd90610e4d90339030908990600401611659565b600060405180830381600087803b158015610e6757600080fd5b505af1158015610e7b573d6000803e3d6000fd5b505050508060056000828254610e91919061169f565b90915550506040805160c081018252600780548083523360208085018281528587018b815260608088018c81526080808a018d8152600160a0808d0182815260009b8c526006808b529b8f90209d518e559751918d0180546001600160a01b0319166001600160a01b0390931692909217909155945160028c0155915160038b0155905160048a015592516005909801805460ff191698151598909817909755945487518b81529283018a905296820186905294810192909252651b1a5cdd195960d21b938201939093528793917f17e0f11c4bcec098f0fa71675a26636c8b4d923dfc6b337aff247d171ddb1df5910160405180910390a460078054906000610f9a836116b2565b919050555050610fa960018055565b505050565b610fb6611073565b610fbe6110cd565b60025460405163a22cb46560e01b81526001600160a01b038381166004830152600060248301526101009092049091169063a22cb465906044016109b0565b611005611073565b6001600160a01b03811661106a5760405162461bcd60e51b815260206004820152602660248201527f4f776e61626c653a206e6577206f776e657220697320746865207a65726f206160448201526564647265737360d01b60648201526084016104a2565b61073d816111be565b6000546001600160a01b031633146109635760405162461bcd60e51b815260206004820181905260248201527f4f776e61626c653a2063616c6c6572206973206e6f7420746865206f776e657260448201526064016104a2565b60025460ff16156109635760405162461bcd60e51b815260206004820152601060248201526f14185d5cd8589b194e881c185d5cd95960821b60448201526064016104a2565b6002600154036111655760405162461bcd60e51b815260206004820152601f60248201527f5265656e7472616e637947756172643a207265656e7472616e742063616c6c0060448201526064016104a2565b6002600155565b61117461124b565b6002805460ff191690557f5db9ee0a495bf2e6ff9c91a7834c1ba4fdd244a5e8aa4e537bd38aeae4b073aa335b6040516001600160a01b03909116815260200160405180910390a1565b600080546001600160a01b038381166001600160a01b0319831681178455604051919092169283917f8be0079c531659141344cd1fd0a4f28419497f9722a3daafe3b4186f6b6457e09190a35050565b6112166110cd565b6002805460ff191660011790557f62e78cea01bee320cd4e420270b5ea74000d11b0c9f74754ebdbfc544b05a2586111a13390565b60025460ff166109635760405162461bcd60e51b815260206004820152601460248201527314185d5cd8589b194e881b9bdd081c185d5cd95960621b60448201526064016104a2565b6000602082840312156112a657600080fd5b81356001600160e01b0319811681146112be57600080fd5b9392505050565b80356001600160a01b03811681146112dc57600080fd5b919050565b6000602082840312156112f357600080fd5b6112be826112c5565b60006020828403121561130e57600080fd5b5035919050565b602080825282518282018190526000919060409081850190868401855b8281101561138b57815180518552868101516001600160a01b0316878601528581015186860152606080820151908601526080808201519086015260a09081015115159085015260c09093019290850190600101611332565b5091979650505050505050565b6000806000606084860312156113ad57600080fd5b505081359360208301359350604090920135919050565b634e487b7160e01b600052604160045260246000fd5b604051601f8201601f1916810167ffffffffffffffff81118282101715611403576114036113c4565b604052919050565b600082601f83011261141c57600080fd5b8135602067ffffffffffffffff821115611438576114386113c4565b8160051b6114478282016113da565b928352848101820192828101908785111561146157600080fd5b83870192505b8483101561148057823582529183019190830190611467565b979650505050505050565b600082601f83011261149c57600080fd5b813567ffffffffffffffff8111156114b6576114b66113c4565b6114c9601f8201601f19166020016113da565b8181528460208386010111156114de57600080fd5b816020850160208301376000918101602001919091529392505050565b600080600080600060a0868803121561151357600080fd5b61151c866112c5565b945061152a602087016112c5565b9350604086013567ffffffffffffffff8082111561154757600080fd5b61155389838a0161140b565b9450606088013591508082111561156957600080fd5b61157589838a0161140b565b9350608088013591508082111561158b57600080fd5b506115988882890161148b565b9150509295509295909350565b600080600080600060a086880312156115bd57600080fd5b6115c6866112c5565b94506115d4602087016112c5565b93506040860135925060608601359150608086013567ffffffffffffffff8111156115fe57600080fd5b6115988882890161148b565b634e487b7160e01b600052601160045260246000fd5b80820281158282048414176103f2576103f261160a565b60008261165457634e487b7160e01b600052601260045260246000fd5b500490565b6001600160a01b039384168152919092166020820152604081019190915260600190565b60006020828403121561168f57600080fd5b815180151581146112be57600080fd5b808201808211156103f2576103f261160a565b6000600182016116c4576116c461160a565b5060010190565b634e487b7160e01b600052603260045260246000fd5b6000602082840312156116f357600080fd5b505191905056fea2646970667358221220c27a844b8652e6dc0d9e1900609740a40db647d061f3f23af9362c01e2cf551164736f6c63430008150033",
  "linkReferences": {},
  "deployedLinkReferences": {}
}