{
  "_format": "hh-sol-artifact-1",
  "contractName": "HorsesAssetsNFT",
  "sourceName": "contracts/assetsMarket/HorsesAssetsNFT.sol",
  "abi": [
    {
      "inputs": [],
      "stateMutability": "nonpayable",
      "type": "constructor"
    },
    {
      "anonymous": false,
      "inputs": [
        {
          "indexed": true,
          "internalType": "address",
          "name": "account",
          "type": "address"
        },
        {
          "indexed": true,
          "internalType": "address",
          "name": "operator",
          "type": "address"
        },
        {
          "indexed": false,
          "internalType": "bool",
          "name": "approved",
          "type": "bool"
        }
      ],
      "name": "ApprovalForAll",
      "type": "event"
    },
    {
      "anonymous": false,
      "inputs": [
        {
          "indexed": true,
          "internalType": "address",
          "name": "previousOwner",
          "type": "address"
        },
        {
          "indexed": true,
          "internalType": "address",
          "name": "newOwner",
          "type": "address"
        }
      ],
      "name": "OwnershipTransferred",
      "type": "event"
    },
    {
      "anonymous": false,
      "inputs": [
        {
          "indexed": true,
          "internalType": "address",
          "name": "operator",
          "type": "address"
        },
        {
          "indexed": true,
          "internalType": "address",
          "name": "from",
          "type": "address"
        },
        {
          "indexed": true,
          "internalType": "address",
          "name": "to",
          "type": "address"
        },
        {
          "indexed": false,
          "internalType": "uint256[]",
          "name": "ids",
          "type": "uint256[]"
        },
        {
          "indexed": false,
          "internalType": "uint256[]",
          "name": "values",
          "type": "uint256[]"
        }
      ],
      "name": "TransferBatch",
      "type": "event"
    },
    {
      "anonymous": false,
      "inputs": [
        {
          "indexed": true,
          "internalType": "address",
          "name": "operator",
          "type": "address"
        },
        {
          "indexed": true,
          "internalType": "address",
          "name": "from",
          "type": "address"
        },
        {
          "indexed": true,
          "internalType": "address",
          "name": "to",
          "type": "address"
        },
        {
          "indexed": false,
          "internalType": "uint256",
          "name": "id",
          "type": "uint256"
        },
        {
          "indexed": false,
          "internalType": "uint256",
          "name": "value",
          "type": "uint256"
        }
      ],
      "name": "TransferSingle",
      "type": "event"
    },
    {
      "anonymous": false,
      "inputs": [
        {
          "indexed": false,
          "internalType": "string",
          "name": "value",
          "type": "string"
        },
        {
          "indexed": true,
          "internalType": "uint256",
          "name": "id",
          "type": "uint256"
        }
      ],
      "name": "URI",
      "type": "event"
    },
    {
      "inputs": [
        {
          "internalType": "address",
          "name": "account",
          "type": "address"
        },
        {
          "internalType": "uint256",
          "name": "id",
          "type": "uint256"
        }
      ],
      "name": "balanceOf",
      "outputs": [
        {
          "internalType": "uint256",
          "name": "",
          "type": "uint256"
        }
      ],
      "stateMutability": "view",
      "type": "function"
    },
    {
      "inputs": [
        {
          "internalType": "address[]",
          "name": "accounts",
          "type": "address[]"
        },
        {
          "internalType": "uint256[]",
          "name": "ids",
          "type": "uint256[]"
        }
      ],
      "name": "balanceOfBatch",
      "outputs": [
        {
          "internalType": "uint256[]",
          "name": "",
          "type": "uint256[]"
        }
      ],
      "stateMutability": "view",
      "type": "function"
    },
    {
      "inputs": [
        {
          "internalType": "address",
          "name": "from",
          "type": "address"
        },
        {
          "internalType": "address",
          "name": "to",
          "type": "address"
        },
        {
          "internalType": "uint256[]",
          "name": "tokenIds",
          "type": "uint256[]"
        },
        {
          "internalType": "uint256[]",
          "name": "amount",
          "type": "uint256[]"
        }
      ],
      "name": "batchTransferFrom",
      "outputs": [],
      "stateMutability": "nonpayable",
      "type": "function"
    },
    {
      "inputs": [
        {
          "internalType": "address",
          "name": "account",
          "type": "address"
        },
        {
          "internalType": "address",
          "name": "operator",
          "type": "address"
        }
      ],
      "name": "isApprovedForAll",
      "outputs": [
        {
          "internalType": "bool",
          "name": "",
          "type": "bool"
        }
      ],
      "stateMutability": "view",
      "type": "function"
    },
    {
      "inputs": [
        {
          "internalType": "address",
          "name": "account",
          "type": "address"
        },
        {
          "internalType": "uint256",
          "name": "tokenId",
          "type": "uint256"
        },
        {
          "internalType": "uint256",
          "name": "amount",
          "type": "uint256"
        },
        {
          "internalType": "string",
          "name": "newURI",
          "type": "string"
        }
      ],
      "name": "mint",
      "outputs": [],
      "stateMutability": "nonpayable",
      "type": "function"
    },
    {
      "inputs": [
        {
          "internalType": "address",
          "name": "to",
          "type": "address"
        },
        {
          "internalType": "uint256[]",
          "name": "tokenIds",
          "type": "uint256[]"
        },
        {
          "internalType": "uint256[]",
          "name": "amounts",
          "type": "uint256[]"
        },
        {
          "internalType": "string[]",
          "name": "uris",
          "type": "string[]"
        }
      ],
      "name": "mintBatch",
      "outputs": [],
      "stateMutability": "nonpayable",
      "type": "function"
    },
    {
      "inputs": [],
      "name": "owner",
      "outputs": [
        {
          "internalType": "address",
          "name": "",
          "type": "address"
        }
      ],
      "stateMutability": "view",
      "type": "function"
    },
    {
      "inputs": [],
      "name": "renounceOwnership",
      "outputs": [],
      "stateMutability": "nonpayable",
      "type": "function"
    },
    {
      "inputs": [
        {
          "internalType": "address",
          "name": "from",
          "type": "address"
        },
        {
          "internalType": "address",
          "name": "to",
          "type": "address"
        },
        {
          "internalType": "uint256[]",
          "name": "ids",
          "type": "uint256[]"
        },
        {
          "internalType": "uint256[]",
          "name": "amounts",
          "type": "uint256[]"
        },
        {
          "internalType": "bytes",
          "name": "data",
          "type": "bytes"
        }
      ],
      "name": "safeBatchTransferFrom",
      "outputs": [],
      "stateMutability": "nonpayable",
      "type": "function"
    },
    {
      "inputs": [
        {
          "internalType": "address",
          "name": "from",
          "type": "address"
        },
        {
          "internalType": "address",
          "name": "to",
          "type": "address"
        },
        {
          "internalType": "uint256",
          "name": "id",
          "type": "uint256"
        },
        {
          "internalType": "uint256",
          "name": "amount",
          "type": "uint256"
        },
        {
          "internalType": "bytes",
          "name": "data",
          "type": "bytes"
        }
      ],
      "name": "safeTransferFrom",
      "outputs": [],
      "stateMutability": "nonpayable",
      "type": "function"
    },
    {
      "inputs": [
        {
          "internalType": "address",
          "name": "operator",
          "type": "address"
        },
        {
          "internalType": "bool",
          "name": "approved",
          "type": "bool"
        }
      ],
      "name": "setApprovalForAll",
      "outputs": [],
      "stateMutability": "nonpayable",
      "type": "function"
    },
    {
      "inputs": [
        {
          "internalType": "uint256",
          "name": "tokenId",
          "type": "uint256"
        },
        {
          "internalType": "string",
          "name": "newURI",
          "type": "string"
        }
      ],
      "name": "setTokenURI",
      "outputs": [],
      "stateMutability": "nonpayable",
      "type": "function"
    },
    {
      "inputs": [
        {
          "internalType": "bytes4",
          "name": "interfaceId",
          "type": "bytes4"
        }
      ],
      "name": "supportsInterface",
      "outputs": [
        {
          "internalType": "bool",
          "name": "",
          "type": "bool"
        }
      ],
      "stateMutability": "view",
      "type": "function"
    },
    {
      "inputs": [
        {
          "internalType": "address",
          "name": "from",
          "type": "address"
        },
        {
          "internalType": "address",
          "name": "to",
          "type": "address"
        },
        {
          "internalType": "uint256",
          "name": "tokenId",
          "type": "uint256"
        },
        {
          "internalType": "uint256",
          "name": "amount",
          "type": "uint256"
        }
      ],
      "name": "transferFrom",
      "outputs": [],
      "stateMutability": "nonpayable",
      "type": "function"
    },
    {
      "inputs": [
        {
          "internalType": "address",
          "name": "newOwner",
          "type": "address"
        }
      ],
      "name": "transferOwnership",
      "outputs": [],
      "stateMutability": "nonpayable",
      "type": "function"
    },
    {
      "inputs": [
        {
          "internalType": "uint256",
          "name": "tokenId",
          "type": "uint256"
        }
      ],
      "name": "uri",
      "outputs": [
        {
          "internalType": "string",
          "name": "",
          "type": "string"
        }
      ],
      "stateMutability": "view",
      "type": "function"
    }
  ],
  "bytecode": "0x60806040523480156200001157600080fd5b506040805160208101909152600081526200002c816200003e565b50620000383362000050565b62000213565b60026200004c828262000147565b5050565b600380546001600160a01b038381166001600160a01b0319831681179093556040519116919082907f8be0079c531659141344cd1fd0a4f28419497f9722a3daafe3b4186f6b6457e090600090a35050565b634e487b7160e01b600052604160045260246000fd5b600181811c90821680620000cd57607f821691505b602082108103620000ee57634e487b7160e01b600052602260045260246000fd5b50919050565b601f8211156200014257600081815260208120601f850160051c810160208610156200011d5750805b601f850160051c820191505b818110156200013e5782815560010162000129565b5050505b505050565b81516001600160401b03811115620001635762000163620000a2565b6200017b81620001748454620000b8565b84620000f4565b602080601f831160018114620001b357600084156200019a5750858301515b600019600386901b1c1916600185901b1785556200013e565b600085815260208120601f198616915b82811015620001e457888601518255948401946001909101908401620001c3565b5085821015620002035787850151600019600388901b60f8161c191681555b5050505050600190811b01905550565b611def80620002236000396000f3fe608060405234801561001057600080fd5b50600436106100ff5760003560e01c80638da5cb5b11610097578063e985e9c511610066578063e985e9c514610224578063f242432a14610260578063f2fde38b14610273578063fe99049a1461028657600080fd5b80638da5cb5b146101d0578063a22cb465146101eb578063a55784ef146101fe578063bb7fde711461021157600080fd5b806317fad7fc116100d357806317fad7fc146101825780632eb2c2d6146101955780634e1273f4146101a8578063715018a6146101c857600080fd5b8062fdd58e1461010457806301ffc9a71461012a5780630e89341c1461014d578063162094c41461016d575b600080fd5b6101176101123660046111a8565b610299565b6040519081526020015b60405180910390f35b61013d6101383660046111e8565b610332565b6040519015158152602001610121565b61016061015b36600461120c565b610382565b604051610121919061126b565b61018061017b366004611333565b61048e565b005b61018061019036600461140d565b6104b3565b6101806101a3366004611491565b6104d5565b6101bb6101b636600461153a565b610521565b6040516101219190611635565b61018061064a565b6003546040516001600160a01b039091168152602001610121565b6101806101f9366004611648565b61065e565b61018061020c366004611684565b61066d565b61018061021f366004611799565b61073b565b61013d6102323660046117ed565b6001600160a01b03918216600090815260016020908152604080832093909416825291909152205460ff1690565b61018061026e366004611820565b6107da565b610180610281366004611884565b61081f565b61018061029436600461189f565b610898565b60006001600160a01b0383166103095760405162461bcd60e51b815260206004820152602a60248201527f455243313135353a2061646472657373207a65726f206973206e6f742061207660448201526930b634b21037bbb732b960b11b60648201526084015b60405180910390fd5b506000818152602081815260408083206001600160a01b03861684529091529020545b92915050565b60006001600160e01b03198216636cdb3d1360e11b148061036357506001600160e01b031982166303a24d0760e21b145b8061032c57506301ffc9a760e01b6001600160e01b031983161461032c565b600081815260046020526040902080546060919061039f906118e1565b90506000036103f05760405162461bcd60e51b815260206004820152601f60248201527f4173736574206e6f74206d696e746564206f7220555249206e6f7420736574006044820152606401610300565b60008281526004602052604090208054610409906118e1565b80601f0160208091040260200160405190810160405280929190818152602001828054610435906118e1565b80156104825780601f1061045757610100808354040283529160200191610482565b820191906000526020600020905b81548152906001019060200180831161046557829003601f168201915b50505050509050919050565b6104966108b4565b60008281526004602052604090206104ae8282611961565b505050565b6104cf84848484604051806020016040528060008152506104d5565b50505050565b6001600160a01b0385163314806104f157506104f18533610232565b61050d5760405162461bcd60e51b815260040161030090611a20565b61051a858585858561090e565b5050505050565b606081518351146105865760405162461bcd60e51b815260206004820152602960248201527f455243313135353a206163636f756e747320616e6420696473206c656e677468604482015268040dad2e6dac2e8c6d60bb1b6064820152608401610300565b600083516001600160401b038111156105a1576105a161127e565b6040519080825280602002602001820160405280156105ca578160200160208202803683370190505b50905060005b8451811015610642576106158582815181106105ee576105ee611a6e565b602002602001015185838151811061060857610608611a6e565b6020026020010151610299565b82828151811061062757610627611a6e565b602090810291909101015261063b81611a9a565b90506105d0565b509392505050565b6106526108b4565b61065c6000610aaa565b565b610669338383610afc565b5050565b6106756108b4565b80518351146106c65760405162461bcd60e51b815260206004820152601c60248201527f49447320616e642055524973206c656e677468206d69736d61746368000000006044820152606401610300565b6106e184848460405180602001604052806000815250610bdc565b60005b835181101561051a5761072984828151811061070257610702611a6e565b602002602001015183838151811061071c5761071c611a6e565b602002602001015161048e565b8061073381611a9a565b9150506106e4565b6107436108b4565b6000838152600460205260409020805461075c906118e1565b1590506107b55760405162461bcd60e51b815260206004820152602160248201527f417373657420616c7265616479206d696e7465642077697468207468697320696044820152601960fa1b6064820152608401610300565b6107d084848460405180602001604052806000815250610d27565b6104cf838261048e565b6001600160a01b0385163314806107f657506107f68533610232565b6108125760405162461bcd60e51b815260040161030090611a20565b61051a8585858585610e01565b6108276108b4565b6001600160a01b03811661088c5760405162461bcd60e51b815260206004820152602660248201527f4f776e61626c653a206e6577206f776e657220697320746865207a65726f206160448201526564647265737360d01b6064820152608401610300565b61089581610aaa565b50565b6104cf84848484604051806020016040528060008152506107da565b6003546001600160a01b0316331461065c5760405162461bcd60e51b815260206004820181905260248201527f4f776e61626c653a2063616c6c6572206973206e6f7420746865206f776e65726044820152606401610300565b815183511461092f5760405162461bcd60e51b815260040161030090611ab3565b6001600160a01b0384166109555760405162461bcd60e51b815260040161030090611afb565b3360005b8451811015610a3c57600085828151811061097657610976611a6e565b60200260200101519050600085838151811061099457610994611a6e565b602090810291909101810151600084815280835260408082206001600160a01b038e1683529093529190912054909150818110156109e45760405162461bcd60e51b815260040161030090611b40565b6000838152602081815260408083206001600160a01b038e8116855292528083208585039055908b16825281208054849290610a21908490611b8a565b9250508190555050505080610a3590611a9a565b9050610959565b50846001600160a01b0316866001600160a01b0316826001600160a01b03167f4a39dc06d4c0dbc64b70af90fd698a233a518aa5d07e595d983b8c0526c8f7fb8787604051610a8c929190611b9d565b60405180910390a4610aa2818787878787610f2b565b505050505050565b600380546001600160a01b038381166001600160a01b0319831681179093556040519116919082907f8be0079c531659141344cd1fd0a4f28419497f9722a3daafe3b4186f6b6457e090600090a35050565b816001600160a01b0316836001600160a01b031603610b6f5760405162461bcd60e51b815260206004820152602960248201527f455243313135353a2073657474696e6720617070726f76616c20737461747573604482015268103337b91039b2b63360b91b6064820152608401610300565b6001600160a01b03838116600081815260016020908152604080832094871680845294825291829020805460ff191686151590811790915591519182527f17307eab39ab6107e8899845ad3d59bd9653f200f220920489ca2b5937696c31910160405180910390a3505050565b6001600160a01b038416610c025760405162461bcd60e51b815260040161030090611bcb565b8151835114610c235760405162461bcd60e51b815260040161030090611ab3565b3360005b8451811015610cbf57838181518110610c4257610c42611a6e565b6020026020010151600080878481518110610c5f57610c5f611a6e565b602002602001015181526020019081526020016000206000886001600160a01b03166001600160a01b031681526020019081526020016000206000828254610ca79190611b8a565b90915550819050610cb781611a9a565b915050610c27565b50846001600160a01b031660006001600160a01b0316826001600160a01b03167f4a39dc06d4c0dbc64b70af90fd698a233a518aa5d07e595d983b8c0526c8f7fb8787604051610d10929190611b9d565b60405180910390a461051a81600087878787610f2b565b6001600160a01b038416610d4d5760405162461bcd60e51b815260040161030090611bcb565b336000610d5985611086565b90506000610d6685611086565b90506000868152602081815260408083206001600160a01b038b16845290915281208054879290610d98908490611b8a565b909155505060408051878152602081018790526001600160a01b03808a1692600092918716917fc3d58168c5ae7397731d063d5bbf3d657854427343f4c083240f7aacaa2d0f62910160405180910390a4610df8836000898989896110d1565b50505050505050565b6001600160a01b038416610e275760405162461bcd60e51b815260040161030090611afb565b336000610e3385611086565b90506000610e4085611086565b90506000868152602081815260408083206001600160a01b038c16845290915290205485811015610e835760405162461bcd60e51b815260040161030090611b40565b6000878152602081815260408083206001600160a01b038d8116855292528083208985039055908a16825281208054889290610ec0908490611b8a565b909155505060408051888152602081018890526001600160a01b03808b16928c821692918816917fc3d58168c5ae7397731d063d5bbf3d657854427343f4c083240f7aacaa2d0f62910160405180910390a4610f20848a8a8a8a8a6110d1565b505050505050505050565b6001600160a01b0384163b15610aa25760405163bc197c8160e01b81526001600160a01b0385169063bc197c8190610f6f9089908990889088908890600401611c0c565b6020604051808303816000875af1925050508015610faa575060408051601f3d908101601f19168201909252610fa791810190611c6a565b60015b61105657610fb6611c87565b806308c379a003610fef5750610fca611ca3565b80610fd55750610ff1565b8060405162461bcd60e51b8152600401610300919061126b565b505b60405162461bcd60e51b815260206004820152603460248201527f455243313135353a207472616e7366657220746f206e6f6e2d455243313135356044820152732932b1b2b4bb32b91034b6b83632b6b2b73a32b960611b6064820152608401610300565b6001600160e01b0319811663bc197c8160e01b14610df85760405162461bcd60e51b815260040161030090611d2c565b604080516001808252818301909252606091600091906020808301908036833701905050905082816000815181106110c0576110c0611a6e565b602090810291909101015292915050565b6001600160a01b0384163b15610aa25760405163f23a6e6160e01b81526001600160a01b0385169063f23a6e61906111159089908990889088908890600401611d74565b6020604051808303816000875af1925050508015611150575060408051601f3d908101601f1916820190925261114d91810190611c6a565b60015b61115c57610fb6611c87565b6001600160e01b0319811663f23a6e6160e01b14610df85760405162461bcd60e51b815260040161030090611d2c565b80356001600160a01b03811681146111a357600080fd5b919050565b600080604083850312156111bb57600080fd5b6111c48361118c565b946020939093013593505050565b6001600160e01b03198116811461089557600080fd5b6000602082840312156111fa57600080fd5b8135611205816111d2565b9392505050565b60006020828403121561121e57600080fd5b5035919050565b6000815180845260005b8181101561124b5760208185018101518683018201520161122f565b506000602082860101526020601f19601f83011685010191505092915050565b6020815260006112056020830184611225565b634e487b7160e01b600052604160045260246000fd5b601f8201601f191681016001600160401b03811182821017156112b9576112b961127e565b6040525050565b600082601f8301126112d157600080fd5b81356001600160401b038111156112ea576112ea61127e565b604051611301601f8301601f191660200182611294565b81815284602083860101111561131657600080fd5b816020850160208301376000918101602001919091529392505050565b6000806040838503121561134657600080fd5b8235915060208301356001600160401b0381111561136357600080fd5b61136f858286016112c0565b9150509250929050565b60006001600160401b038211156113925761139261127e565b5060051b60200190565b600082601f8301126113ad57600080fd5b813560206113ba82611379565b6040516113c78282611294565b83815260059390931b85018201928281019150868411156113e757600080fd5b8286015b8481101561140257803583529183019183016113eb565b509695505050505050565b6000806000806080858703121561142357600080fd5b61142c8561118c565b935061143a6020860161118c565b925060408501356001600160401b038082111561145657600080fd5b6114628883890161139c565b9350606087013591508082111561147857600080fd5b506114858782880161139c565b91505092959194509250565b600080600080600060a086880312156114a957600080fd5b6114b28661118c565b94506114c06020870161118c565b935060408601356001600160401b03808211156114dc57600080fd5b6114e889838a0161139c565b945060608801359150808211156114fe57600080fd5b61150a89838a0161139c565b9350608088013591508082111561152057600080fd5b5061152d888289016112c0565b9150509295509295909350565b6000806040838503121561154d57600080fd5b82356001600160401b038082111561156457600080fd5b818501915085601f83011261157857600080fd5b8135602061158582611379565b6040516115928282611294565b83815260059390931b85018201928281019150898411156115b257600080fd5b948201945b838610156115d7576115c88661118c565b825294820194908201906115b7565b965050860135925050808211156115ed57600080fd5b5061136f8582860161139c565b600081518084526020808501945080840160005b8381101561162a5781518752958201959082019060010161160e565b509495945050505050565b60208152600061120560208301846115fa565b6000806040838503121561165b57600080fd5b6116648361118c565b91506020830135801515811461167957600080fd5b809150509250929050565b6000806000806080858703121561169a57600080fd5b6116a38561118c565b93506020808601356001600160401b03808211156116c057600080fd5b6116cc89838a0161139c565b955060408801359150808211156116e257600080fd5b6116ee89838a0161139c565b9450606088013591508082111561170457600080fd5b818801915088601f83011261171857600080fd5b813561172381611379565b6040516117308282611294565b82815260059290921b840185019185810191508b83111561175057600080fd5b8585015b838110156117885780358581111561176c5760008081fd5b61177a8e89838a01016112c0565b845250918601918601611754565b50989b979a50959850505050505050565b600080600080608085870312156117af57600080fd5b6117b88561118c565b9350602085013592506040850135915060608501356001600160401b038111156117e157600080fd5b611485878288016112c0565b6000806040838503121561180057600080fd5b6118098361118c565b91506118176020840161118c565b90509250929050565b600080600080600060a0868803121561183857600080fd5b6118418661118c565b945061184f6020870161118c565b9350604086013592506060860135915060808601356001600160401b0381111561187857600080fd5b61152d888289016112c0565b60006020828403121561189657600080fd5b6112058261118c565b600080600080608085870312156118b557600080fd5b6118be8561118c565b93506118cc6020860161118c565b93969395505050506040820135916060013590565b600181811c908216806118f557607f821691505b60208210810361191557634e487b7160e01b600052602260045260246000fd5b50919050565b601f8211156104ae57600081815260208120601f850160051c810160208610156119425750805b601f850160051c820191505b81811015610aa25782815560010161194e565b81516001600160401b0381111561197a5761197a61127e565b61198e8161198884546118e1565b8461191b565b602080601f8311600181146119c357600084156119ab5750858301515b600019600386901b1c1916600185901b178555610aa2565b600085815260208120601f198616915b828110156119f2578886015182559484019460019091019084016119d3565b5085821015611a105787850151600019600388901b60f8161c191681555b5050505050600190811b01905550565b6020808252602e908201527f455243313135353a2063616c6c6572206973206e6f7420746f6b656e206f776e60408201526d195c881bdc88185c1c1c9bdd995960921b606082015260800190565b634e487b7160e01b600052603260045260246000fd5b634e487b7160e01b600052601160045260246000fd5b600060018201611aac57611aac611a84565b5060010190565b60208082526028908201527f455243313135353a2069647320616e6420616d6f756e7473206c656e677468206040820152670dad2e6dac2e8c6d60c31b606082015260800190565b60208082526025908201527f455243313135353a207472616e7366657220746f20746865207a65726f206164604082015264647265737360d81b606082015260800190565b6020808252602a908201527f455243313135353a20696e73756666696369656e742062616c616e636520666f60408201526939103a3930b739b332b960b11b606082015260800190565b8082018082111561032c5761032c611a84565b604081526000611bb060408301856115fa565b8281036020840152611bc281856115fa565b95945050505050565b60208082526021908201527f455243313135353a206d696e7420746f20746865207a65726f206164647265736040820152607360f81b606082015260800190565b6001600160a01b0386811682528516602082015260a060408201819052600090611c38908301866115fa565b8281036060840152611c4a81866115fa565b90508281036080840152611c5e8185611225565b98975050505050505050565b600060208284031215611c7c57600080fd5b8151611205816111d2565b600060033d1115611ca05760046000803e5060005160e01c5b90565b600060443d1015611cb15790565b6040516003193d81016004833e81513d6001600160401b038160248401118184111715611ce057505050505090565b8285019150815181811115611cf85750505050505090565b843d8701016020828501011115611d125750505050505090565b611d2160208286010187611294565b509095945050505050565b60208082526028908201527f455243313135353a204552433131353552656365697665722072656a656374656040820152676420746f6b656e7360c01b606082015260800190565b6001600160a01b03868116825285166020820152604081018490526060810183905260a060808201819052600090611dae90830184611225565b97965050505050505056fea2646970667358221220bf6cab28ce2b0ee6e66c180ae8f07239ff7035361752be42bd2dcd5bb1f3d49d64736f6c63430008150033",
  "linkReferences": {},
  "deployedLinkReferences": {}
}