{
  "_format": "hh-sol-artifact-1",
  "contractName": "SiliquaCoin",
  "sourceName": "contracts/SiliquaCoin.sol",
  "abi": [
    {
      "inputs": [
        {
          "internalType": "string",
          "name": "name",
          "type": "string"
        },
        {
          "internalType": "string",
          "name": "symbol",
          "type": "string"
        },
        {
          "internalType": "uint256",
          "name": "initialSupply",
          "type": "uint256"
        }
      ],
      "stateMutability": "nonpayable",
      "type": "constructor"
    },
    {
      "anonymous": false,
      "inputs": [
        {
          "indexed": true,
          "internalType": "address",
          "name": "owner",
          "type": "address"
        },
        {
          "indexed": true,
          "internalType": "address",
          "name": "spender",
          "type": "address"
        },
        {
          "indexed": false,
          "internalType": "uint256",
          "name": "value",
          "type": "uint256"
        }
      ],
      "name": "Approval",
      "type": "event"
    },
    {
      "anonymous": false,
      "inputs": [
        {
          "indexed": true,
          "internalType": "address",
          "name": "previousOwner",
          "type": "address"
        },
        {
          "indexed": true,
          "internalType": "address",
          "name": "newOwner",
          "type": "address"
        }
      ],
      "name": "OwnershipTransferred",
      "type": "event"
    },
    {
      "anonymous": false,
      "inputs": [
        {
          "indexed": false,
          "internalType": "address",
          "name": "account",
          "type": "address"
        }
      ],
      "name": "Paused",
      "type": "event"
    },
    {
      "anonymous": false,
      "inputs": [
        {
          "indexed": true,
          "internalType": "address",
          "name": "buyer",
          "type": "address"
        },
        {
          "indexed": false,
          "internalType": "uint256",
          "name": "ethAmount",
          "type": "uint256"
        },
        {
          "indexed": false,
          "internalType": "uint256",
          "name": "tokenAmount",
          "type": "uint256"
        }
      ],
      "name": "TokensPurchased",
      "type": "event"
    },
    {
      "anonymous": false,
      "inputs": [
        {
          "indexed": true,
          "internalType": "address",
          "name": "from",
          "type": "address"
        },
        {
          "indexed": true,
          "internalType": "address",
          "name": "to",
          "type": "address"
        },
        {
          "indexed": false,
          "internalType": "uint256",
          "name": "value",
          "type": "uint256"
        }
      ],
      "name": "Transfer",
      "type": "event"
    },
    {
      "anonymous": false,
      "inputs": [
        {
          "indexed": false,
          "internalType": "address",
          "name": "account",
          "type": "address"
        }
      ],
      "name": "Unpaused",
      "type": "event"
    },
    {
      "inputs": [],
      "name": "TOKEN_TO_ETH_RATE",
      "outputs": [
        {
          "internalType": "uint256",
          "name": "",
          "type": "uint256"
        }
      ],
      "stateMutability": "view",
      "type": "function"
    },
    {
      "inputs": [
        {
          "internalType": "address",
          "name": "owner",
          "type": "address"
        },
        {
          "internalType": "address",
          "name": "spender",
          "type": "address"
        }
      ],
      "name": "allowance",
      "outputs": [
        {
          "internalType": "uint256",
          "name": "",
          "type": "uint256"
        }
      ],
      "stateMutability": "view",
      "type": "function"
    },
    {
      "inputs": [
        {
          "internalType": "address",
          "name": "spender",
          "type": "address"
        },
        {
          "internalType": "uint256",
          "name": "amount",
          "type": "uint256"
        }
      ],
      "name": "approve",
      "outputs": [
        {
          "internalType": "bool",
          "name": "",
          "type": "bool"
        }
      ],
      "stateMutability": "nonpayable",
      "type": "function"
    },
    {
      "inputs": [
        {
          "internalType": "address",
          "name": "account",
          "type": "address"
        }
      ],
      "name": "balanceOf",
      "outputs": [
        {
          "internalType": "uint256",
          "name": "",
          "type": "uint256"
        }
      ],
      "stateMutability": "view",
      "type": "function"
    },
    {
      "inputs": [
        {
          "internalType": "uint256",
          "name": "amount",
          "type": "uint256"
        }
      ],
      "name": "burn",
      "outputs": [],
      "stateMutability": "nonpayable",
      "type": "function"
    },
    {
      "inputs": [
        {
          "internalType": "address",
          "name": "account",
          "type": "address"
        },
        {
          "internalType": "uint256",
          "name": "amount",
          "type": "uint256"
        }
      ],
      "name": "burnFrom",
      "outputs": [],
      "stateMutability": "nonpayable",
      "type": "function"
    },
    {
      "inputs": [],
      "name": "claimTokens",
      "outputs": [],
      "stateMutability": "nonpayable",
      "type": "function"
    },
    {
      "inputs": [],
      "name": "decimals",
      "outputs": [
        {
          "internalType": "uint8",
          "name": "",
          "type": "uint8"
        }
      ],
      "stateMutability": "view",
      "type": "function"
    },
    {
      "inputs": [
        {
          "internalType": "address",
          "name": "spender",
          "type": "address"
        },
        {
          "internalType": "uint256",
          "name": "subtractedValue",
          "type": "uint256"
        }
      ],
      "name": "decreaseAllowance",
      "outputs": [
        {
          "internalType": "bool",
          "name": "",
          "type": "bool"
        }
      ],
      "stateMutability": "nonpayable",
      "type": "function"
    },
    {
      "inputs": [
        {
          "internalType": "address",
          "name": "spender",
          "type": "address"
        },
        {
          "internalType": "uint256",
          "name": "addedValue",
          "type": "uint256"
        }
      ],
      "name": "increaseAllowance",
      "outputs": [
        {
          "internalType": "bool",
          "name": "",
          "type": "bool"
        }
      ],
      "stateMutability": "nonpayable",
      "type": "function"
    },
    {
      "inputs": [
        {
          "internalType": "address",
          "name": "",
          "type": "address"
        }
      ],
      "name": "lastClaimedTimestamp",
      "outputs": [
        {
          "internalType": "uint256",
          "name": "",
          "type": "uint256"
        }
      ],
      "stateMutability": "view",
      "type": "function"
    },
    {
      "inputs": [
        {
          "internalType": "address",
          "name": "to",
          "type": "address"
        },
        {
          "internalType": "uint256",
          "name": "amount",
          "type": "uint256"
        }
      ],
      "name": "mint",
      "outputs": [],
      "stateMutability": "nonpayable",
      "type": "function"
    },
    {
      "inputs": [],
      "name": "name",
      "outputs": [
        {
          "internalType": "string",
          "name": "",
          "type": "string"
        }
      ],
      "stateMutability": "view",
      "type": "function"
    },
    {
      "inputs": [],
      "name": "owner",
      "outputs": [
        {
          "internalType": "address",
          "name": "",
          "type": "address"
        }
      ],
      "stateMutability": "view",
      "type": "function"
    },
    {
      "inputs": [],
      "name": "pause",
      "outputs": [],
      "stateMutability": "nonpayable",
      "type": "function"
    },
    {
      "inputs": [],
      "name": "paused",
      "outputs": [
        {
          "internalType": "bool",
          "name": "",
          "type": "bool"
        }
      ],
      "stateMutability": "view",
      "type": "function"
    },
    {
      "inputs": [],
      "name": "renounceOwnership",
      "outputs": [],
      "stateMutability": "nonpayable",
      "type": "function"
    },
    {
      "inputs": [
        {
          "internalType": "address",
          "name": "to",
          "type": "address"
        },
        {
          "internalType": "uint256",
          "name": "amount",
          "type": "uint256"
        }
      ],
      "name": "safeTransfer",
      "outputs": [
        {
          "internalType": "bool",
          "name": "",
          "type": "bool"
        }
      ],
      "stateMutability": "nonpayable",
      "type": "function"
    },
    {
      "inputs": [
        {
          "internalType": "address",
          "name": "from",
          "type": "address"
        },
        {
          "internalType": "address",
          "name": "to",
          "type": "address"
        },
        {
          "internalType": "uint256",
          "name": "amount",
          "type": "uint256"
        }
      ],
      "name": "safeTransferFrom",
      "outputs": [
        {
          "internalType": "bool",
          "name": "",
          "type": "bool"
        }
      ],
      "stateMutability": "nonpayable",
      "type": "function"
    },
    {
      "inputs": [],
      "name": "symbol",
      "outputs": [
        {
          "internalType": "string",
          "name": "",
          "type": "string"
        }
      ],
      "stateMutability": "view",
      "type": "function"
    },
    {
      "inputs": [],
      "name": "totalSupply",
      "outputs": [
        {
          "internalType": "uint256",
          "name": "",
          "type": "uint256"
        }
      ],
      "stateMutability": "view",
      "type": "function"
    },
    {
      "inputs": [
        {
          "internalType": "address",
          "name": "to",
          "type": "address"
        },
        {
          "internalType": "uint256",
          "name": "amount",
          "type": "uint256"
        }
      ],
      "name": "transfer",
      "outputs": [
        {
          "internalType": "bool",
          "name": "",
          "type": "bool"
        }
      ],
      "stateMutability": "nonpayable",
      "type": "function"
    },
    {
      "inputs": [
        {
          "internalType": "address",
          "name": "from",
          "type": "address"
        },
        {
          "internalType": "address",
          "name": "to",
          "type": "address"
        },
        {
          "internalType": "uint256",
          "name": "amount",
          "type": "uint256"
        }
      ],
      "name": "transferFrom",
      "outputs": [
        {
          "internalType": "bool",
          "name": "",
          "type": "bool"
        }
      ],
      "stateMutability": "nonpayable",
      "type": "function"
    },
    {
      "inputs": [
        {
          "internalType": "address",
          "name": "newOwner",
          "type": "address"
        }
      ],
      "name": "transferOwnership",
      "outputs": [],
      "stateMutability": "nonpayable",
      "type": "function"
    },
    {
      "inputs": [],
      "name": "unpause",
      "outputs": [],
      "stateMutability": "nonpayable",
      "type": "function"
    },
    {
      "stateMutability": "payable",
      "type": "receive"
    }
  ],
  "bytecode": "0x60806040523480156200001157600080fd5b50604051620016f9380380620016f9833981016040819052620000349162000278565b8282600362000044838262000379565b50600462000053828262000379565b505050620000706200006a6200009260201b60201c565b62000096565b6005805460ff60a01b19169055620000893382620000e8565b5050506200046d565b3390565b600580546001600160a01b038381166001600160a01b0319831681179093556040519116919082907f8be0079c531659141344cd1fd0a4f28419497f9722a3daafe3b4186f6b6457e090600090a35050565b6001600160a01b038216620001435760405162461bcd60e51b815260206004820152601f60248201527f45524332303a206d696e7420746f20746865207a65726f206164647265737300604482015260640160405180910390fd5b806002600082825462000157919062000445565b90915550506001600160a01b038216600081815260208181526040808320805486019055518481527fddf252ad1be2c89b69c2b068fc378daa952ba7f163c4a11628f55a4df523b3ef910160405180910390a35050565b505050565b634e487b7160e01b600052604160045260246000fd5b600082601f830112620001db57600080fd5b81516001600160401b0380821115620001f857620001f8620001b3565b604051601f8301601f19908116603f01168101908282118183101715620002235762000223620001b3565b816040528381526020925086838588010111156200024057600080fd5b600091505b8382101562000264578582018301518183018401529082019062000245565b600093810190920192909252949350505050565b6000806000606084860312156200028e57600080fd5b83516001600160401b0380821115620002a657600080fd5b620002b487838801620001c9565b94506020860151915080821115620002cb57600080fd5b50620002da86828701620001c9565b925050604084015190509250925092565b600181811c908216806200030057607f821691505b6020821081036200032157634e487b7160e01b600052602260045260246000fd5b50919050565b601f821115620001ae57600081815260208120601f850160051c81016020861015620003505750805b601f850160051c820191505b8181101562000371578281556001016200035c565b505050505050565b81516001600160401b03811115620003955762000395620001b3565b620003ad81620003a68454620002eb565b8462000327565b602080601f831160018114620003e55760008415620003cc5750858301515b600019600386901b1c1916600185901b17855562000371565b600085815260208120601f198616915b828110156200041657888601518255948401946001909101908401620003f5565b5085821015620004355787850151600019600388901b60f8161c191681555b5050505050600190811b01905550565b808201808211156200046757634e487b7160e01b600052601160045260246000fd5b92915050565b61127c806200047d6000396000f3fe60806040526004361061016a5760003560e01c806342966c68116100d15780638456cb591161008a578063a457c2d711610064578063a457c2d714610475578063a9059cbb14610495578063dd62ed3e146104b5578063f2fde38b146104d557600080fd5b80638456cb59146104235780638da5cb5b1461043857806395d89b411461046057600080fd5b806342966c681461036457806348c54b9d146103845780635c975abb1461039957806370a08231146103b8578063715018a6146103ee57806379cc67901461040357600080fd5b8063375379f311610123578063375379f3146102b757806339509351146102cd5780633f4ba83a146102ed57806340c10f1914610304578063423f6cef1461032457806342842e0e1461034457600080fd5b806302ee0efb146101d457806306fdde0314610214578063095ea7b31461023657806318160ddd1461026657806323b872dd1461027b578063313ce5671461029b57600080fd5b366101cf576101776104f5565b3460006101866103e883610fb1565b90506101923382610549565b604080518381526020810183905233917f8fafebcaf9d154343dad25669bfa277f4fbacd7ac6b0c4fed522580e040a0f33910160405180910390a2005b600080fd5b3480156101e057600080fd5b506102016101ef366004610fe4565b60066020526000908152604090205481565b6040519081526020015b60405180910390f35b34801561022057600080fd5b50610229610609565b60405161020b9190611006565b34801561024257600080fd5b50610256610251366004611054565b61069b565b604051901515815260200161020b565b34801561027257600080fd5b50600254610201565b34801561028757600080fd5b5061025661029636600461107e565b6106b5565b3480156102a757600080fd5b506040516012815260200161020b565b3480156102c357600080fd5b506102016103e881565b3480156102d957600080fd5b506102566102e8366004611054565b6106d9565b3480156102f957600080fd5b506103026106fb565b005b34801561031057600080fd5b5061030261031f366004611054565b61070b565b34801561033057600080fd5b5061025661033f366004611054565b610725565b34801561035057600080fd5b5061025661035f36600461107e565b610743565b34801561037057600080fd5b5061030261037f3660046110ba565b610758565b34801561039057600080fd5b50610302610765565b3480156103a557600080fd5b50600554600160a01b900460ff16610256565b3480156103c457600080fd5b506102016103d3366004610fe4565b6001600160a01b031660009081526020819052604090205490565b3480156103fa57600080fd5b50610302610823565b34801561040f57600080fd5b5061030261041e366004611054565b610835565b34801561042f57600080fd5b5061030261084a565b34801561044457600080fd5b506005546040516001600160a01b03909116815260200161020b565b34801561046c57600080fd5b5061022961085a565b34801561048157600080fd5b50610256610490366004611054565b610869565b3480156104a157600080fd5b506102566104b0366004611054565b6108e4565b3480156104c157600080fd5b506102016104d03660046110d3565b6108f2565b3480156104e157600080fd5b506103026104f0366004610fe4565b61091d565b600554600160a01b900460ff16156105475760405162461bcd60e51b815260206004820152601060248201526f14185d5cd8589b194e881c185d5cd95960821b60448201526064015b60405180910390fd5b565b6001600160a01b03821661059f5760405162461bcd60e51b815260206004820152601f60248201527f45524332303a206d696e7420746f20746865207a65726f206164647265737300604482015260640161053e565b80600260008282546105b19190611106565b90915550506001600160a01b038216600081815260208181526040808320805486019055518481527fddf252ad1be2c89b69c2b068fc378daa952ba7f163c4a11628f55a4df523b3ef910160405180910390a35b5050565b60606003805461061890611119565b80601f016020809104026020016040519081016040528092919081815260200182805461064490611119565b80156106915780601f1061066657610100808354040283529160200191610691565b820191906000526020600020905b81548152906001019060200180831161067457829003601f168201915b5050505050905090565b6000336106a9818585610993565b60019150505b92915050565b6000336106c3858285610ab7565b6106ce858585610b31565b506001949350505050565b6000336106a98185856106ec83836108f2565b6106f69190611106565b610993565b610703610cd5565b610547610d2f565b610713610cd5565b61071b6104f5565b6106058282610549565b600061072f6104f5565b61073983836108e4565b5060019392505050565b600061074d6104f5565b6106ce8484846106b5565b6107623382610d84565b50565b61076d6104f5565b600061077b6012600a611237565b610786906001610fb1565b33600090815260066020526040902054909150620151809042906107ab908390611106565b11156108035760405162461bcd60e51b815260206004820152602160248201527f596f752063616e20636c61696d20746f6b656e73206f6e6365207065722064616044820152607960f81b606482015260840161053e565b61080d3383610549565b5050336000908152600660205260409020429055565b61082b610cd5565b6105476000610eb6565b610840823383610ab7565b6106058282610d84565b610852610cd5565b610547610f08565b60606004805461061890611119565b6000338161087782866108f2565b9050838110156108d75760405162461bcd60e51b815260206004820152602560248201527f45524332303a2064656372656173656420616c6c6f77616e63652062656c6f77604482015264207a65726f60d81b606482015260840161053e565b6106ce8286868403610993565b6000336106a9818585610b31565b6001600160a01b03918216600090815260016020908152604080832093909416825291909152205490565b610925610cd5565b6001600160a01b03811661098a5760405162461bcd60e51b815260206004820152602660248201527f4f776e61626c653a206e6577206f776e657220697320746865207a65726f206160448201526564647265737360d01b606482015260840161053e565b61076281610eb6565b6001600160a01b0383166109f55760405162461bcd60e51b8152602060048201526024808201527f45524332303a20617070726f76652066726f6d20746865207a65726f206164646044820152637265737360e01b606482015260840161053e565b6001600160a01b038216610a565760405162461bcd60e51b815260206004820152602260248201527f45524332303a20617070726f766520746f20746865207a65726f206164647265604482015261737360f01b606482015260840161053e565b6001600160a01b0383811660008181526001602090815260408083209487168084529482529182902085905590518481527f8c5be1e5ebec7d5bd14f71427d1e84f3dd0314c0f7b2291e5b200ac8c7c3b925910160405180910390a3505050565b6000610ac384846108f2565b90506000198114610b2b5781811015610b1e5760405162461bcd60e51b815260206004820152601d60248201527f45524332303a20696e73756666696369656e7420616c6c6f77616e6365000000604482015260640161053e565b610b2b8484848403610993565b50505050565b6001600160a01b038316610b955760405162461bcd60e51b815260206004820152602560248201527f45524332303a207472616e736665722066726f6d20746865207a65726f206164604482015264647265737360d81b606482015260840161053e565b6001600160a01b038216610bf75760405162461bcd60e51b815260206004820152602360248201527f45524332303a207472616e7366657220746f20746865207a65726f206164647260448201526265737360e81b606482015260840161053e565b6001600160a01b03831660009081526020819052604090205481811015610c6f5760405162461bcd60e51b815260206004820152602660248201527f45524332303a207472616e7366657220616d6f756e7420657863656564732062604482015265616c616e636560d01b606482015260840161053e565b6001600160a01b03848116600081815260208181526040808320878703905593871680835291849020805487019055925185815290927fddf252ad1be2c89b69c2b068fc378daa952ba7f163c4a11628f55a4df523b3ef910160405180910390a3610b2b565b6005546001600160a01b031633146105475760405162461bcd60e51b815260206004820181905260248201527f4f776e61626c653a2063616c6c6572206973206e6f7420746865206f776e6572604482015260640161053e565b610d37610f4b565b6005805460ff60a01b191690557f5db9ee0a495bf2e6ff9c91a7834c1ba4fdd244a5e8aa4e537bd38aeae4b073aa335b6040516001600160a01b03909116815260200160405180910390a1565b6001600160a01b038216610de45760405162461bcd60e51b815260206004820152602160248201527f45524332303a206275726e2066726f6d20746865207a65726f206164647265736044820152607360f81b606482015260840161053e565b6001600160a01b03821660009081526020819052604090205481811015610e585760405162461bcd60e51b815260206004820152602260248201527f45524332303a206275726e20616d6f756e7420657863656564732062616c616e604482015261636560f01b606482015260840161053e565b6001600160a01b0383166000818152602081815260408083208686039055600280548790039055518581529192917fddf252ad1be2c89b69c2b068fc378daa952ba7f163c4a11628f55a4df523b3ef910160405180910390a3505050565b600580546001600160a01b038381166001600160a01b0319831681179093556040519116919082907f8be0079c531659141344cd1fd0a4f28419497f9722a3daafe3b4186f6b6457e090600090a35050565b610f106104f5565b6005805460ff60a01b1916600160a01b1790557f62e78cea01bee320cd4e420270b5ea74000d11b0c9f74754ebdbfc544b05a258610d673390565b600554600160a01b900460ff166105475760405162461bcd60e51b815260206004820152601460248201527314185d5cd8589b194e881b9bdd081c185d5cd95960621b604482015260640161053e565b634e487b7160e01b600052601160045260246000fd5b80820281158282048414176106af576106af610f9b565b80356001600160a01b0381168114610fdf57600080fd5b919050565b600060208284031215610ff657600080fd5b610fff82610fc8565b9392505050565b600060208083528351808285015260005b8181101561103357858101830151858201604001528201611017565b506000604082860101526040601f19601f8301168501019250505092915050565b6000806040838503121561106757600080fd5b61107083610fc8565b946020939093013593505050565b60008060006060848603121561109357600080fd5b61109c84610fc8565b92506110aa60208501610fc8565b9150604084013590509250925092565b6000602082840312156110cc57600080fd5b5035919050565b600080604083850312156110e657600080fd5b6110ef83610fc8565b91506110fd60208401610fc8565b90509250929050565b808201808211156106af576106af610f9b565b600181811c9082168061112d57607f821691505b60208210810361114d57634e487b7160e01b600052602260045260246000fd5b50919050565b600181815b8085111561118e57816000190482111561117457611174610f9b565b8085161561118157918102915b93841c9390800290611158565b509250929050565b6000826111a5575060016106af565b816111b2575060006106af565b81600181146111c857600281146111d2576111ee565b60019150506106af565b60ff8411156111e3576111e3610f9b565b50506001821b6106af565b5060208310610133831016604e8410600b8410161715611211575081810a6106af565b61121b8383611153565b806000190482111561122f5761122f610f9b565b029392505050565b6000610fff60ff84168361119656fea2646970667358221220e0a7ac8ff4dcd1a505c38d94aab53ce022248d97f69403f73c30121e44b2004764736f6c63430008150033",
  "linkReferences": {},
  "deployedLinkReferences": {}
}