{
  "_format": "hh-sol-artifact-1",
  "contractName": "SiliquaCoin",
  "sourceName": "contracts/SiliquaCoin.sol",
  "abi": [
    {
      "inputs": [
        {
          "internalType": "string",
          "name": "name",
          "type": "string"
        },
        {
          "internalType": "string",
          "name": "symbol",
          "type": "string"
        },
        {
          "internalType": "uint256",
          "name": "initialSupply",
          "type": "uint256"
        }
      ],
      "stateMutability": "nonpayable",
      "type": "constructor"
    },
    {
      "anonymous": false,
      "inputs": [
        {
          "indexed": true,
          "internalType": "address",
          "name": "owner",
          "type": "address"
        },
        {
          "indexed": true,
          "internalType": "address",
          "name": "spender",
          "type": "address"
        },
        {
          "indexed": false,
          "internalType": "uint256",
          "name": "value",
          "type": "uint256"
        }
      ],
      "name": "Approval",
      "type": "event"
    },
    {
      "anonymous": false,
      "inputs": [
        {
          "indexed": true,
          "internalType": "address",
          "name": "previousOwner",
          "type": "address"
        },
        {
          "indexed": true,
          "internalType": "address",
          "name": "newOwner",
          "type": "address"
        }
      ],
      "name": "OwnershipTransferred",
      "type": "event"
    },
    {
      "anonymous": false,
      "inputs": [
        {
          "indexed": false,
          "internalType": "address",
          "name": "account",
          "type": "address"
        }
      ],
      "name": "Paused",
      "type": "event"
    },
    {
      "anonymous": false,
      "inputs": [
        {
          "indexed": false,
          "internalType": "uint256",
          "name": "proposalId",
          "type": "uint256"
        },
        {
          "indexed": false,
          "internalType": "string",
          "name": "description",
          "type": "string"
        }
      ],
      "name": "ProposalCreated",
      "type": "event"
    },
    {
      "anonymous": false,
      "inputs": [
        {
          "indexed": false,
          "internalType": "uint256",
          "name": "proposalId",
          "type": "uint256"
        },
        {
          "indexed": false,
          "internalType": "bool",
          "name": "result",
          "type": "bool"
        }
      ],
      "name": "ProposalExecuted",
      "type": "event"
    },
    {
      "anonymous": false,
      "inputs": [
        {
          "indexed": true,
          "internalType": "address",
          "name": "buyer",
          "type": "address"
        },
        {
          "indexed": false,
          "internalType": "uint256",
          "name": "ethAmount",
          "type": "uint256"
        },
        {
          "indexed": false,
          "internalType": "uint256",
          "name": "tokenAmount",
          "type": "uint256"
        }
      ],
      "name": "TokensPurchased",
      "type": "event"
    },
    {
      "anonymous": false,
      "inputs": [
        {
          "indexed": true,
          "internalType": "address",
          "name": "from",
          "type": "address"
        },
        {
          "indexed": true,
          "internalType": "address",
          "name": "to",
          "type": "address"
        },
        {
          "indexed": false,
          "internalType": "uint256",
          "name": "value",
          "type": "uint256"
        }
      ],
      "name": "Transfer",
      "type": "event"
    },
    {
      "anonymous": false,
      "inputs": [
        {
          "indexed": false,
          "internalType": "address",
          "name": "account",
          "type": "address"
        }
      ],
      "name": "Unpaused",
      "type": "event"
    },
    {
      "anonymous": false,
      "inputs": [
        {
          "indexed": true,
          "internalType": "address",
          "name": "voter",
          "type": "address"
        },
        {
          "indexed": false,
          "internalType": "uint256",
          "name": "proposalId",
          "type": "uint256"
        },
        {
          "indexed": false,
          "internalType": "bool",
          "name": "vote",
          "type": "bool"
        }
      ],
      "name": "Voted",
      "type": "event"
    },
    {
      "inputs": [],
      "name": "MIN_TOKENS_TO_PROPOSE",
      "outputs": [
        {
          "internalType": "uint256",
          "name": "",
          "type": "uint256"
        }
      ],
      "stateMutability": "view",
      "type": "function"
    },
    {
      "inputs": [],
      "name": "TOKEN_TO_ETH_RATE",
      "outputs": [
        {
          "internalType": "uint256",
          "name": "",
          "type": "uint256"
        }
      ],
      "stateMutability": "view",
      "type": "function"
    },
    {
      "inputs": [],
      "name": "VOTING_PERIOD",
      "outputs": [
        {
          "internalType": "uint256",
          "name": "",
          "type": "uint256"
        }
      ],
      "stateMutability": "view",
      "type": "function"
    },
    {
      "inputs": [
        {
          "internalType": "address",
          "name": "owner",
          "type": "address"
        },
        {
          "internalType": "address",
          "name": "spender",
          "type": "address"
        }
      ],
      "name": "allowance",
      "outputs": [
        {
          "internalType": "uint256",
          "name": "",
          "type": "uint256"
        }
      ],
      "stateMutability": "view",
      "type": "function"
    },
    {
      "inputs": [
        {
          "internalType": "address",
          "name": "spender",
          "type": "address"
        },
        {
          "internalType": "uint256",
          "name": "amount",
          "type": "uint256"
        }
      ],
      "name": "approve",
      "outputs": [
        {
          "internalType": "bool",
          "name": "",
          "type": "bool"
        }
      ],
      "stateMutability": "nonpayable",
      "type": "function"
    },
    {
      "inputs": [
        {
          "internalType": "address",
          "name": "account",
          "type": "address"
        }
      ],
      "name": "balanceOf",
      "outputs": [
        {
          "internalType": "uint256",
          "name": "",
          "type": "uint256"
        }
      ],
      "stateMutability": "view",
      "type": "function"
    },
    {
      "inputs": [
        {
          "internalType": "uint256",
          "name": "amount",
          "type": "uint256"
        }
      ],
      "name": "burn",
      "outputs": [],
      "stateMutability": "nonpayable",
      "type": "function"
    },
    {
      "inputs": [
        {
          "internalType": "address",
          "name": "account",
          "type": "address"
        },
        {
          "internalType": "uint256",
          "name": "amount",
          "type": "uint256"
        }
      ],
      "name": "burnFrom",
      "outputs": [],
      "stateMutability": "nonpayable",
      "type": "function"
    },
    {
      "inputs": [],
      "name": "claimTokens",
      "outputs": [],
      "stateMutability": "nonpayable",
      "type": "function"
    },
    {
      "inputs": [
        {
          "internalType": "string",
          "name": "_description",
          "type": "string"
        }
      ],
      "name": "createProposal",
      "outputs": [],
      "stateMutability": "nonpayable",
      "type": "function"
    },
    {
      "inputs": [],
      "name": "decimals",
      "outputs": [
        {
          "internalType": "uint8",
          "name": "",
          "type": "uint8"
        }
      ],
      "stateMutability": "view",
      "type": "function"
    },
    {
      "inputs": [
        {
          "internalType": "address",
          "name": "spender",
          "type": "address"
        },
        {
          "internalType": "uint256",
          "name": "subtractedValue",
          "type": "uint256"
        }
      ],
      "name": "decreaseAllowance",
      "outputs": [
        {
          "internalType": "bool",
          "name": "",
          "type": "bool"
        }
      ],
      "stateMutability": "nonpayable",
      "type": "function"
    },
    {
      "inputs": [
        {
          "internalType": "uint256",
          "name": "_proposalId",
          "type": "uint256"
        }
      ],
      "name": "executeProposal",
      "outputs": [],
      "stateMutability": "nonpayable",
      "type": "function"
    },
    {
      "inputs": [
        {
          "internalType": "address",
          "name": "spender",
          "type": "address"
        },
        {
          "internalType": "uint256",
          "name": "addedValue",
          "type": "uint256"
        }
      ],
      "name": "increaseAllowance",
      "outputs": [
        {
          "internalType": "bool",
          "name": "",
          "type": "bool"
        }
      ],
      "stateMutability": "nonpayable",
      "type": "function"
    },
    {
      "inputs": [
        {
          "internalType": "address",
          "name": "",
          "type": "address"
        }
      ],
      "name": "lastClaimedTimestamp",
      "outputs": [
        {
          "internalType": "uint256",
          "name": "",
          "type": "uint256"
        }
      ],
      "stateMutability": "view",
      "type": "function"
    },
    {
      "inputs": [
        {
          "internalType": "address",
          "name": "to",
          "type": "address"
        },
        {
          "internalType": "uint256",
          "name": "amount",
          "type": "uint256"
        }
      ],
      "name": "mint",
      "outputs": [],
      "stateMutability": "nonpayable",
      "type": "function"
    },
    {
      "inputs": [],
      "name": "name",
      "outputs": [
        {
          "internalType": "string",
          "name": "",
          "type": "string"
        }
      ],
      "stateMutability": "view",
      "type": "function"
    },
    {
      "inputs": [],
      "name": "nextProposalId",
      "outputs": [
        {
          "internalType": "uint256",
          "name": "",
          "type": "uint256"
        }
      ],
      "stateMutability": "view",
      "type": "function"
    },
    {
      "inputs": [],
      "name": "owner",
      "outputs": [
        {
          "internalType": "address",
          "name": "",
          "type": "address"
        }
      ],
      "stateMutability": "view",
      "type": "function"
    },
    {
      "inputs": [],
      "name": "pause",
      "outputs": [],
      "stateMutability": "nonpayable",
      "type": "function"
    },
    {
      "inputs": [],
      "name": "paused",
      "outputs": [
        {
          "internalType": "bool",
          "name": "",
          "type": "bool"
        }
      ],
      "stateMutability": "view",
      "type": "function"
    },
    {
      "inputs": [
        {
          "internalType": "uint256",
          "name": "",
          "type": "uint256"
        }
      ],
      "name": "proposals",
      "outputs": [
        {
          "internalType": "string",
          "name": "description",
          "type": "string"
        },
        {
          "internalType": "uint256",
          "name": "deadline",
          "type": "uint256"
        },
        {
          "internalType": "uint256",
          "name": "yesVotes",
          "type": "uint256"
        },
        {
          "internalType": "uint256",
          "name": "noVotes",
          "type": "uint256"
        },
        {
          "internalType": "bool",
          "name": "executed",
          "type": "bool"
        }
      ],
      "stateMutability": "view",
      "type": "function"
    },
    {
      "inputs": [],
      "name": "renounceOwnership",
      "outputs": [],
      "stateMutability": "nonpayable",
      "type": "function"
    },
    {
      "inputs": [
        {
          "internalType": "address",
          "name": "to",
          "type": "address"
        },
        {
          "internalType": "uint256",
          "name": "amount",
          "type": "uint256"
        }
      ],
      "name": "safeTransfer",
      "outputs": [
        {
          "internalType": "bool",
          "name": "",
          "type": "bool"
        }
      ],
      "stateMutability": "nonpayable",
      "type": "function"
    },
    {
      "inputs": [
        {
          "internalType": "address",
          "name": "from",
          "type": "address"
        },
        {
          "internalType": "address",
          "name": "to",
          "type": "address"
        },
        {
          "internalType": "uint256",
          "name": "amount",
          "type": "uint256"
        }
      ],
      "name": "safeTransferFrom",
      "outputs": [
        {
          "internalType": "bool",
          "name": "",
          "type": "bool"
        }
      ],
      "stateMutability": "nonpayable",
      "type": "function"
    },
    {
      "inputs": [],
      "name": "symbol",
      "outputs": [
        {
          "internalType": "string",
          "name": "",
          "type": "string"
        }
      ],
      "stateMutability": "view",
      "type": "function"
    },
    {
      "inputs": [],
      "name": "totalSupply",
      "outputs": [
        {
          "internalType": "uint256",
          "name": "",
          "type": "uint256"
        }
      ],
      "stateMutability": "view",
      "type": "function"
    },
    {
      "inputs": [
        {
          "internalType": "address",
          "name": "to",
          "type": "address"
        },
        {
          "internalType": "uint256",
          "name": "amount",
          "type": "uint256"
        }
      ],
      "name": "transfer",
      "outputs": [
        {
          "internalType": "bool",
          "name": "",
          "type": "bool"
        }
      ],
      "stateMutability": "nonpayable",
      "type": "function"
    },
    {
      "inputs": [
        {
          "internalType": "address",
          "name": "from",
          "type": "address"
        },
        {
          "internalType": "address",
          "name": "to",
          "type": "address"
        },
        {
          "internalType": "uint256",
          "name": "amount",
          "type": "uint256"
        }
      ],
      "name": "transferFrom",
      "outputs": [
        {
          "internalType": "bool",
          "name": "",
          "type": "bool"
        }
      ],
      "stateMutability": "nonpayable",
      "type": "function"
    },
    {
      "inputs": [
        {
          "internalType": "address",
          "name": "newOwner",
          "type": "address"
        }
      ],
      "name": "transferOwnership",
      "outputs": [],
      "stateMutability": "nonpayable",
      "type": "function"
    },
    {
      "inputs": [],
      "name": "unpause",
      "outputs": [],
      "stateMutability": "nonpayable",
      "type": "function"
    },
    {
      "inputs": [
        {
          "internalType": "uint256",
          "name": "_proposalId",
          "type": "uint256"
        },
        {
          "internalType": "bool",
          "name": "_vote",
          "type": "bool"
        }
      ],
      "name": "voteOnProposal",
      "outputs": [],
      "stateMutability": "nonpayable",
      "type": "function"
    },
    {
      "stateMutability": "payable",
      "type": "receive"
    }
  ],
  "bytecode": "0x60806040523480156200001157600080fd5b5060405162001f6438038062001f6483398101604081905262000034916200027d565b8282600362000044838262000380565b50600462000053828262000380565b505050620000706200006a6200009460201b60201c565b62000098565b60016006556007805460ff191690556200008b3382620000ea565b50505062000474565b3390565b600580546001600160a01b038381166001600160a01b0319831681179093556040519116919082907f8be0079c531659141344cd1fd0a4f28419497f9722a3daafe3b4186f6b6457e090600090a35050565b6001600160a01b038216620001455760405162461bcd60e51b815260206004820152601f60248201527f45524332303a206d696e7420746f20746865207a65726f206164647265737300604482015260640160405180910390fd5b80600260008282546200015991906200044c565b90915550506001600160a01b038216600081815260208181526040808320805486019055518481527fddf252ad1be2c89b69c2b068fc378daa952ba7f163c4a11628f55a4df523b3ef910160405180910390a35050565b505050565b634e487b7160e01b600052604160045260246000fd5b600082601f830112620001dd57600080fd5b81516001600160401b0380821115620001fa57620001fa620001b5565b604051601f8301601f19908116603f01168101908282118183101715620002255762000225620001b5565b81604052838152602092508660208588010111156200024357600080fd5b600091505b8382101562000267578582018301518183018401529082019062000248565b6000602085830101528094505050505092915050565b6000806000606084860312156200029357600080fd5b83516001600160401b0380821115620002ab57600080fd5b620002b987838801620001cb565b94506020860151915080821115620002d057600080fd5b50620002df86828701620001cb565b925050604084015190509250925092565b600181811c908216806200030557607f821691505b6020821081036200032657634e487b7160e01b600052602260045260246000fd5b50919050565b601f821115620001b0576000816000526020600020601f850160051c81016020861015620003575750805b601f850160051c820191505b81811015620003785782815560010162000363565b505050505050565b81516001600160401b038111156200039c576200039c620001b5565b620003b481620003ad8454620002f0565b846200032c565b602080601f831160018114620003ec5760008415620003d35750858301515b600019600386901b1c1916600185901b17855562000378565b600085815260208120601f198616915b828110156200041d57888601518255948401946001909101908401620003fc565b50858210156200043c5787850151600019600388901b60f8161c191681555b5050505050600190811b01905550565b808201808211156200046e57634e487b7160e01b600052601160045260246000fd5b92915050565b611ae080620004846000396000f3fe6080604052600436106101e75760003560e01c806342966c68116101025780638da5cb5b11610095578063b1610d7e11610064578063b1610d7e146105e8578063b6de6d1f146105ff578063dd62ed3e1461061c578063f2fde38b1461063c57600080fd5b80638da5cb5b1461056b57806395d89b4114610593578063a457c2d7146105a8578063a9059cbb146105c857600080fd5b806370a08231116100d157806370a08231146104eb578063715018a61461052157806379cc6790146105365780638456cb591461055657600080fd5b806342966c681461047e57806348c54b9d1461049e57806349c2a1a6146104b35780635c975abb146104d357600080fd5b80632ab09d141161017a5780633f4ba83a116101495780633f4ba83a1461040957806340c10f191461041e578063423f6cef1461043e57806342842e0e1461045e57600080fd5b80632ab09d14146103a1578063313ce567146103b7578063375379f3146103d357806339509351146103e957600080fd5b80630d61b519116101b65780630d61b5191461032c5780631614665c1461034c57806318160ddd1461036c57806323b872dd1461038157600080fd5b8063013cf08b1461026557806302ee0efb1461029f57806306fdde03146102da578063095ea7b3146102fc57600080fd5b36610260576101f461065c565b6101fc6106ba565b34600061020b6103e88361158b565b90506102173382610702565b604080518381526020810183905233917f8fafebcaf9d154343dad25669bfa277f4fbacd7ac6b0c4fed522580e040a0f33910160405180910390a2505061025e6001600655565b005b600080fd5b34801561027157600080fd5b506102856102803660046115a2565b6107c2565b604051610296959493929190611601565b60405180910390f35b3480156102ab57600080fd5b506102cc6102ba366004611656565b60086020526000908152604090205481565b604051908152602001610296565b3480156102e657600080fd5b506102ef61087c565b6040516102969190611678565b34801561030857600080fd5b5061031c61031736600461168b565b61090e565b6040519015158152602001610296565b34801561033857600080fd5b5061025e6103473660046115a2565b610928565b34801561035857600080fd5b5061025e6103673660046116b5565b610a57565b34801561037857600080fd5b506002546102cc565b34801561038d57600080fd5b5061031c61039c3660046116ea565b610bb9565b3480156103ad57600080fd5b506102cc600a5481565b3480156103c357600080fd5b5060405160128152602001610296565b3480156103df57600080fd5b506102cc6103e881565b3480156103f557600080fd5b5061031c61040436600461168b565b610bdd565b34801561041557600080fd5b5061025e610bff565b34801561042a57600080fd5b5061025e61043936600461168b565b610c0f565b34801561044a57600080fd5b5061031c61045936600461168b565b610c29565b34801561046a57600080fd5b5061031c6104793660046116ea565b610c47565b34801561048a57600080fd5b5061025e6104993660046115a2565b610c5c565b3480156104aa57600080fd5b5061025e610c69565b3480156104bf57600080fd5b5061025e6104ce36600461173c565b610d27565b3480156104df57600080fd5b5060075460ff1661031c565b3480156104f757600080fd5b506102cc610506366004611656565b6001600160a01b031660009081526020819052604090205490565b34801561052d57600080fd5b5061025e610e08565b34801561054257600080fd5b5061025e61055136600461168b565b610e1a565b34801561056257600080fd5b5061025e610e2f565b34801561057757600080fd5b506005546040516001600160a01b039091168152602001610296565b34801561059f57600080fd5b506102ef610e3f565b3480156105b457600080fd5b5061031c6105c336600461168b565b610e4e565b3480156105d457600080fd5b5061031c6105e336600461168b565b610ec9565b3480156105f457600080fd5b506102cc62093a8081565b34801561060b57600080fd5b506102cc68056bc75e2d6310000081565b34801561062857600080fd5b506102cc6106373660046117ed565b610ed7565b34801561064857600080fd5b5061025e610657366004611656565b610f02565b6002600654036106b35760405162461bcd60e51b815260206004820152601f60248201527f5265656e7472616e637947756172643a207265656e7472616e742063616c6c0060448201526064015b60405180910390fd5b6002600655565b60075460ff16156107005760405162461bcd60e51b815260206004820152601060248201526f14185d5cd8589b194e881c185d5cd95960821b60448201526064016106aa565b565b6001600160a01b0382166107585760405162461bcd60e51b815260206004820152601f60248201527f45524332303a206d696e7420746f20746865207a65726f20616464726573730060448201526064016106aa565b806002600082825461076a9190611820565b90915550506001600160a01b038216600081815260208181526040808320805486019055518481527fddf252ad1be2c89b69c2b068fc378daa952ba7f163c4a11628f55a4df523b3ef910160405180910390a35b5050565b6009602052600090815260409020805481906107dd90611833565b80601f016020809104026020016040519081016040528092919081815260200182805461080990611833565b80156108565780601f1061082b57610100808354040283529160200191610856565b820191906000526020600020905b81548152906001019060200180831161083957829003601f168201915b505050506001830154600284015460038501546005909501549394919390925060ff1685565b60606003805461088b90611833565b80601f01602080910402602001604051908101604052809291908181526020018280546108b790611833565b80156109045780601f106108d957610100808354040283529160200191610904565b820191906000526020600020905b8154815290600101906020018083116108e757829003601f168201915b5050505050905090565b60003361091c818585610f7d565b60019150505b92915050565b6000818152600960205260409020600181015442101561097c5760405162461bcd60e51b815260206004820152600f60248201526e2b37ba34b733903737ba1037bb32b960891b60448201526064016106aa565b600581015460ff16156109c45760405162461bcd60e51b815260206004820152601060248201526f105b1c9958591e48195e1958dd5d195960821b60448201526064016106aa565b60058101805460ff19166001179055600381015460028201541115610a215760408051838152600160208201527f948f4a9cd986f1118c3fbd459f7a22b23c0693e1ca3ef06a6a8be5aa7d39cc0391015b60405180910390a15050565b60408051838152600060208201527f948f4a9cd986f1118c3fbd459f7a22b23c0693e1ca3ef06a6a8be5aa7d39cc039101610a15565b600082815260096020526040902060018101544210610aad5760405162461bcd60e51b81526020600482015260126024820152712b37ba34b733903832b934b7b21037bb32b960711b60448201526064016106aa565b33600090815260048201602052604090205460ff1615610aff5760405162461bcd60e51b815260206004820152600d60248201526c105b1c9958591e481d9bdd1959609a1b60448201526064016106aa565b3360009081526004820160205260409020805460ff191660011790558115610b4f5733600090815260208190526040902054816002016000828254610b449190611820565b90915550610b789050565b33600090815260208190526040902054816003016000828254610b729190611820565b90915550505b60408051848152831515602082015233917f749addf8eadeff63c43be59c27331be5c6d4fc9e82bbfbcf162321c9b35a95b4910160405180910390a2505050565b600033610bc78582856110a1565b610bd285858561111b565b506001949350505050565b60003361091c818585610bf08383610ed7565b610bfa9190611820565b610f7d565b610c076112bf565b610700611319565b610c176112bf565b610c1f6106ba565b6107be8282610702565b6000610c336106ba565b610c3d8383610ec9565b5060019392505050565b6000610c516106ba565b610bd2848484610bb9565b610c66338261136b565b50565b610c716106ba565b6000610c7f6012600a611951565b610c8a90600161158b565b3360009081526008602052604090205490915062015180904290610caf908390611820565b1115610d075760405162461bcd60e51b815260206004820152602160248201527f596f752063616e20636c61696d20746f6b656e73206f6e6365207065722064616044820152607960f81b60648201526084016106aa565b610d113383610702565b5050336000908152600860205260409020429055565b3360009081526020819052604090205468056bc75e2d631000001115610d855760405162461bcd60e51b8152602060048201526013602482015272496e73756666696369656e7420746f6b656e7360681b60448201526064016106aa565b600a54600090815260096020526040902080610da183826119b0565b50610daf62093a8042611820565b6001820155600a546040517f9c770c289ab5bf7e57cb1d23c8ceae993aea46eb64847072fd3d78ca60d3e43291610de7918590611a70565b60405180910390a1600a8054906000610dff83611a91565b91905055505050565b610e106112bf565b610700600061149d565b610e258233836110a1565b6107be828261136b565b610e376112bf565b6107006114ef565b60606004805461088b90611833565b60003381610e5c8286610ed7565b905083811015610ebc5760405162461bcd60e51b815260206004820152602560248201527f45524332303a2064656372656173656420616c6c6f77616e63652062656c6f77604482015264207a65726f60d81b60648201526084016106aa565b610bd28286868403610f7d565b60003361091c81858561111b565b6001600160a01b03918216600090815260016020908152604080832093909416825291909152205490565b610f0a6112bf565b6001600160a01b038116610f6f5760405162461bcd60e51b815260206004820152602660248201527f4f776e61626c653a206e6577206f776e657220697320746865207a65726f206160448201526564647265737360d01b60648201526084016106aa565b610c668161149d565b505050565b6001600160a01b038316610fdf5760405162461bcd60e51b8152602060048201526024808201527f45524332303a20617070726f76652066726f6d20746865207a65726f206164646044820152637265737360e01b60648201526084016106aa565b6001600160a01b0382166110405760405162461bcd60e51b815260206004820152602260248201527f45524332303a20617070726f766520746f20746865207a65726f206164647265604482015261737360f01b60648201526084016106aa565b6001600160a01b0383811660008181526001602090815260408083209487168084529482529182902085905590518481527f8c5be1e5ebec7d5bd14f71427d1e84f3dd0314c0f7b2291e5b200ac8c7c3b925910160405180910390a3505050565b60006110ad8484610ed7565b9050600019811461111557818110156111085760405162461bcd60e51b815260206004820152601d60248201527f45524332303a20696e73756666696369656e7420616c6c6f77616e636500000060448201526064016106aa565b6111158484848403610f7d565b50505050565b6001600160a01b03831661117f5760405162461bcd60e51b815260206004820152602560248201527f45524332303a207472616e736665722066726f6d20746865207a65726f206164604482015264647265737360d81b60648201526084016106aa565b6001600160a01b0382166111e15760405162461bcd60e51b815260206004820152602360248201527f45524332303a207472616e7366657220746f20746865207a65726f206164647260448201526265737360e81b60648201526084016106aa565b6001600160a01b038316600090815260208190526040902054818110156112595760405162461bcd60e51b815260206004820152602660248201527f45524332303a207472616e7366657220616d6f756e7420657863656564732062604482015265616c616e636560d01b60648201526084016106aa565b6001600160a01b03848116600081815260208181526040808320878703905593871680835291849020805487019055925185815290927fddf252ad1be2c89b69c2b068fc378daa952ba7f163c4a11628f55a4df523b3ef910160405180910390a3611115565b6005546001600160a01b031633146107005760405162461bcd60e51b815260206004820181905260248201527f4f776e61626c653a2063616c6c6572206973206e6f7420746865206f776e657260448201526064016106aa565b61132161152c565b6007805460ff191690557f5db9ee0a495bf2e6ff9c91a7834c1ba4fdd244a5e8aa4e537bd38aeae4b073aa335b6040516001600160a01b03909116815260200160405180910390a1565b6001600160a01b0382166113cb5760405162461bcd60e51b815260206004820152602160248201527f45524332303a206275726e2066726f6d20746865207a65726f206164647265736044820152607360f81b60648201526084016106aa565b6001600160a01b0382166000908152602081905260409020548181101561143f5760405162461bcd60e51b815260206004820152602260248201527f45524332303a206275726e20616d6f756e7420657863656564732062616c616e604482015261636560f01b60648201526084016106aa565b6001600160a01b0383166000818152602081815260408083208686039055600280548790039055518581529192917fddf252ad1be2c89b69c2b068fc378daa952ba7f163c4a11628f55a4df523b3ef910160405180910390a3505050565b600580546001600160a01b038381166001600160a01b0319831681179093556040519116919082907f8be0079c531659141344cd1fd0a4f28419497f9722a3daafe3b4186f6b6457e090600090a35050565b6114f76106ba565b6007805460ff191660011790557f62e78cea01bee320cd4e420270b5ea74000d11b0c9f74754ebdbfc544b05a25861134e3390565b60075460ff166107005760405162461bcd60e51b815260206004820152601460248201527314185d5cd8589b194e881b9bdd081c185d5cd95960621b60448201526064016106aa565b634e487b7160e01b600052601160045260246000fd5b808202811582820484141761092257610922611575565b6000602082840312156115b457600080fd5b5035919050565b6000815180845260005b818110156115e1576020818501810151868301820152016115c5565b506000602082860101526020601f19601f83011685010191505092915050565b60a08152600061161460a08301886115bb565b905085602083015284604083015283606083015282151560808301529695505050505050565b80356001600160a01b038116811461165157600080fd5b919050565b60006020828403121561166857600080fd5b6116718261163a565b9392505050565b60208152600061167160208301846115bb565b6000806040838503121561169e57600080fd5b6116a78361163a565b946020939093013593505050565b600080604083850312156116c857600080fd5b82359150602083013580151581146116df57600080fd5b809150509250929050565b6000806000606084860312156116ff57600080fd5b6117088461163a565b92506117166020850161163a565b9150604084013590509250925092565b634e487b7160e01b600052604160045260246000fd5b60006020828403121561174e57600080fd5b813567ffffffffffffffff8082111561176657600080fd5b818401915084601f83011261177a57600080fd5b81358181111561178c5761178c611726565b604051601f8201601f19908116603f011681019083821181831017156117b4576117b4611726565b816040528281528760208487010111156117cd57600080fd5b826020860160208301376000928101602001929092525095945050505050565b6000806040838503121561180057600080fd5b6118098361163a565b91506118176020840161163a565b90509250929050565b8082018082111561092257610922611575565b600181811c9082168061184757607f821691505b60208210810361186757634e487b7160e01b600052602260045260246000fd5b50919050565b600181815b808511156118a857816000190482111561188e5761188e611575565b8085161561189b57918102915b93841c9390800290611872565b509250929050565b6000826118bf57506001610922565b816118cc57506000610922565b81600181146118e257600281146118ec57611908565b6001915050610922565b60ff8411156118fd576118fd611575565b50506001821b610922565b5060208310610133831016604e8410600b841016171561192b575081810a610922565b611935838361186d565b806000190482111561194957611949611575565b029392505050565b600061167160ff8416836118b0565b601f821115610f78576000816000526020600020601f850160051c810160208610156119895750805b601f850160051c820191505b818110156119a857828155600101611995565b505050505050565b815167ffffffffffffffff8111156119ca576119ca611726565b6119de816119d88454611833565b84611960565b602080601f831160018114611a1357600084156119fb5750858301515b600019600386901b1c1916600185901b1785556119a8565b600085815260208120601f198616915b82811015611a4257888601518255948401946001909101908401611a23565b5085821015611a605787850151600019600388901b60f8161c191681555b5050505050600190811b01905550565b828152604060208201526000611a8960408301846115bb565b949350505050565b600060018201611aa357611aa3611575565b506001019056fea2646970667358221220dac2a188fb1c1c8ad39978bc7162f8afdf0dea064f40366296c7f16b8244544e64736f6c63430008170033",
  "linkReferences": {},
  "deployedLinkReferences": {}
}