{
  "_format": "hh-sol-artifact-1",
  "contractName": "AvatarAuctionMarketplace",
  "sourceName": "contracts/horsesMarket/NFTAuctionMarketplace.sol",
  "abi": [
    {
      "inputs": [
        {
          "internalType": "address",
          "name": "_nftContractAddress",
          "type": "address"
        },
        {
          "internalType": "address",
          "name": "_siliquaCoinContractAddress",
          "type": "address"
        },
        {
          "internalType": "uint256",
          "name": "_commissionPercentage",
          "type": "uint256"
        }
      ],
      "stateMutability": "nonpayable",
      "type": "constructor"
    },
    {
      "anonymous": false,
      "inputs": [
        {
          "indexed": true,
          "internalType": "uint256",
          "name": "auctionId",
          "type": "uint256"
        },
        {
          "indexed": false,
          "internalType": "address",
          "name": "seller",
          "type": "address"
        },
        {
          "indexed": false,
          "internalType": "uint256",
          "name": "tokenId",
          "type": "uint256"
        },
        {
          "indexed": false,
          "internalType": "uint256",
          "name": "amount",
          "type": "uint256"
        },
        {
          "indexed": false,
          "internalType": "uint256",
          "name": "startingPrice",
          "type": "uint256"
        },
        {
          "indexed": false,
          "internalType": "uint256",
          "name": "duration",
          "type": "uint256"
        }
      ],
      "name": "AuctionCreated",
      "type": "event"
    },
    {
      "anonymous": false,
      "inputs": [
        {
          "indexed": true,
          "internalType": "uint256",
          "name": "auctionId",
          "type": "uint256"
        },
        {
          "indexed": true,
          "internalType": "address",
          "name": "winner",
          "type": "address"
        },
        {
          "indexed": false,
          "internalType": "uint256",
          "name": "winningBid",
          "type": "uint256"
        }
      ],
      "name": "AuctionEnded",
      "type": "event"
    },
    {
      "anonymous": false,
      "inputs": [
        {
          "indexed": true,
          "internalType": "uint256",
          "name": "auctionId",
          "type": "uint256"
        },
        {
          "indexed": true,
          "internalType": "address",
          "name": "bidder",
          "type": "address"
        },
        {
          "indexed": false,
          "internalType": "uint256",
          "name": "bidAmount",
          "type": "uint256"
        }
      ],
      "name": "BidPlaced",
      "type": "event"
    },
    {
      "anonymous": false,
      "inputs": [
        {
          "indexed": true,
          "internalType": "address",
          "name": "previousOwner",
          "type": "address"
        },
        {
          "indexed": true,
          "internalType": "address",
          "name": "newOwner",
          "type": "address"
        }
      ],
      "name": "OwnershipTransferred",
      "type": "event"
    },
    {
      "anonymous": false,
      "inputs": [
        {
          "indexed": false,
          "internalType": "address",
          "name": "account",
          "type": "address"
        }
      ],
      "name": "Paused",
      "type": "event"
    },
    {
      "anonymous": false,
      "inputs": [
        {
          "indexed": false,
          "internalType": "address",
          "name": "account",
          "type": "address"
        }
      ],
      "name": "Unpaused",
      "type": "event"
    },
    {
      "inputs": [
        {
          "internalType": "address",
          "name": "_seller",
          "type": "address"
        }
      ],
      "name": "approveSeller",
      "outputs": [],
      "stateMutability": "nonpayable",
      "type": "function"
    },
    {
      "inputs": [],
      "name": "auctionId",
      "outputs": [
        {
          "internalType": "uint256",
          "name": "",
          "type": "uint256"
        }
      ],
      "stateMutability": "view",
      "type": "function"
    },
    {
      "inputs": [
        {
          "internalType": "uint256",
          "name": "",
          "type": "uint256"
        }
      ],
      "name": "auctions",
      "outputs": [
        {
          "internalType": "uint256",
          "name": "auctionId",
          "type": "uint256"
        },
        {
          "internalType": "address",
          "name": "seller",
          "type": "address"
        },
        {
          "internalType": "uint256",
          "name": "tokenId",
          "type": "uint256"
        },
        {
          "internalType": "uint256",
          "name": "amount",
          "type": "uint256"
        },
        {
          "internalType": "uint256",
          "name": "startingPrice",
          "type": "uint256"
        },
        {
          "internalType": "uint256",
          "name": "highestBid",
          "type": "uint256"
        },
        {
          "internalType": "address",
          "name": "highestBidder",
          "type": "address"
        },
        {
          "internalType": "uint256",
          "name": "auctionEndTime",
          "type": "uint256"
        },
        {
          "internalType": "bool",
          "name": "ended",
          "type": "bool"
        }
      ],
      "stateMutability": "view",
      "type": "function"
    },
    {
      "inputs": [],
      "name": "commissionPercentage",
      "outputs": [
        {
          "internalType": "uint256",
          "name": "",
          "type": "uint256"
        }
      ],
      "stateMutability": "view",
      "type": "function"
    },
    {
      "inputs": [
        {
          "internalType": "uint256",
          "name": "_tokenId",
          "type": "uint256"
        },
        {
          "internalType": "uint256",
          "name": "_amount",
          "type": "uint256"
        },
        {
          "internalType": "uint256",
          "name": "_startingPrice",
          "type": "uint256"
        },
        {
          "internalType": "uint256",
          "name": "_duration",
          "type": "uint256"
        }
      ],
      "name": "createAuction",
      "outputs": [],
      "stateMutability": "nonpayable",
      "type": "function"
    },
    {
      "inputs": [
        {
          "internalType": "uint256",
          "name": "_auctionId",
          "type": "uint256"
        }
      ],
      "name": "endAuction",
      "outputs": [],
      "stateMutability": "nonpayable",
      "type": "function"
    },
    {
      "inputs": [],
      "name": "nftToken",
      "outputs": [
        {
          "internalType": "contract AvatarNFT",
          "name": "",
          "type": "address"
        }
      ],
      "stateMutability": "view",
      "type": "function"
    },
    {
      "inputs": [
        {
          "internalType": "address",
          "name": "",
          "type": "address"
        },
        {
          "internalType": "address",
          "name": "",
          "type": "address"
        },
        {
          "internalType": "uint256[]",
          "name": "",
          "type": "uint256[]"
        },
        {
          "internalType": "uint256[]",
          "name": "",
          "type": "uint256[]"
        },
        {
          "internalType": "bytes",
          "name": "",
          "type": "bytes"
        }
      ],
      "name": "onERC1155BatchReceived",
      "outputs": [
        {
          "internalType": "bytes4",
          "name": "",
          "type": "bytes4"
        }
      ],
      "stateMutability": "nonpayable",
      "type": "function"
    },
    {
      "inputs": [
        {
          "internalType": "address",
          "name": "",
          "type": "address"
        },
        {
          "internalType": "address",
          "name": "",
          "type": "address"
        },
        {
          "internalType": "uint256",
          "name": "",
          "type": "uint256"
        },
        {
          "internalType": "uint256",
          "name": "",
          "type": "uint256"
        },
        {
          "internalType": "bytes",
          "name": "",
          "type": "bytes"
        }
      ],
      "name": "onERC1155Received",
      "outputs": [
        {
          "internalType": "bytes4",
          "name": "",
          "type": "bytes4"
        }
      ],
      "stateMutability": "nonpayable",
      "type": "function"
    },
    {
      "inputs": [],
      "name": "owner",
      "outputs": [
        {
          "internalType": "address",
          "name": "",
          "type": "address"
        }
      ],
      "stateMutability": "view",
      "type": "function"
    },
    {
      "inputs": [],
      "name": "pause",
      "outputs": [],
      "stateMutability": "nonpayable",
      "type": "function"
    },
    {
      "inputs": [],
      "name": "paused",
      "outputs": [
        {
          "internalType": "bool",
          "name": "",
          "type": "bool"
        }
      ],
      "stateMutability": "view",
      "type": "function"
    },
    {
      "inputs": [
        {
          "internalType": "uint256",
          "name": "_auctionId",
          "type": "uint256"
        },
        {
          "internalType": "uint256",
          "name": "_bidAmount",
          "type": "uint256"
        }
      ],
      "name": "placeBid",
      "outputs": [],
      "stateMutability": "nonpayable",
      "type": "function"
    },
    {
      "inputs": [],
      "name": "renounceOwnership",
      "outputs": [],
      "stateMutability": "nonpayable",
      "type": "function"
    },
    {
      "inputs": [
        {
          "internalType": "address",
          "name": "_seller",
          "type": "address"
        }
      ],
      "name": "revokeSellerApproval",
      "outputs": [],
      "stateMutability": "nonpayable",
      "type": "function"
    },
    {
      "inputs": [
        {
          "internalType": "address",
          "name": "_nftContractAddress",
          "type": "address"
        }
      ],
      "name": "setNFTContract",
      "outputs": [],
      "stateMutability": "nonpayable",
      "type": "function"
    },
    {
      "inputs": [
        {
          "internalType": "address",
          "name": "_siliquaCoinAddress",
          "type": "address"
        }
      ],
      "name": "setSiliquaCoin",
      "outputs": [],
      "stateMutability": "nonpayable",
      "type": "function"
    },
    {
      "inputs": [
        {
          "internalType": "bytes4",
          "name": "interfaceId",
          "type": "bytes4"
        }
      ],
      "name": "supportsInterface",
      "outputs": [
        {
          "internalType": "bool",
          "name": "",
          "type": "bool"
        }
      ],
      "stateMutability": "view",
      "type": "function"
    },
    {
      "inputs": [],
      "name": "token",
      "outputs": [
        {
          "internalType": "contract ISiliquaCoin",
          "name": "",
          "type": "address"
        }
      ],
      "stateMutability": "view",
      "type": "function"
    },
    {
      "inputs": [],
      "name": "totalCommissionEarned",
      "outputs": [
        {
          "internalType": "uint256",
          "name": "",
          "type": "uint256"
        }
      ],
      "stateMutability": "view",
      "type": "function"
    },
    {
      "inputs": [
        {
          "internalType": "address",
          "name": "newOwner",
          "type": "address"
        }
      ],
      "name": "transferOwnership",
      "outputs": [],
      "stateMutability": "nonpayable",
      "type": "function"
    },
    {
      "inputs": [],
      "name": "unpause",
      "outputs": [],
      "stateMutability": "nonpayable",
      "type": "function"
    },
    {
      "inputs": [
        {
          "internalType": "uint256",
          "name": "_newCommissionPercentage",
          "type": "uint256"
        }
      ],
      "name": "updateCommissionPercentage",
      "outputs": [],
      "stateMutability": "nonpayable",
      "type": "function"
    }
  ],
  "bytecode": "0x608060405260006006553480156200001657600080fd5b5060405162001599380380620015998339810160408190526200003991620000f7565b62000044336200008a565b6000805460ff60a01b19169055600180546001600160a01b039485166001600160a01b031991821617909155600280549390941692169190911790915560035562000138565b600080546001600160a01b038381166001600160a01b0319831681178455604051919092169283917f8be0079c531659141344cd1fd0a4f28419497f9722a3daafe3b4186f6b6457e09190a35050565b80516001600160a01b0381168114620000f257600080fd5b919050565b6000806000606084860312156200010d57600080fd5b6200011884620000da565b92506200012860208501620000da565b9150604084015190509250925092565b61145180620001486000396000f3fe608060405234801561001057600080fd5b506004361061014d5760003560e01c80638ce2199e116100c3578063c73cdd231161007c578063c73cdd231461036e578063d06fcba814610377578063d575fe641461038a578063f23a6e6114610393578063f2fde38b146103b2578063fc0c546a146103c557600080fd5b80638ce2199e146102c55780638da5cb5b146102d8578063a7ccabdf146102fd578063b226a96614610310578063b9a2de3a14610323578063bc197c811461033657600080fd5b8063571a26a011610115578063571a26a0146101c157806357c90de51461027d5780635c975abb146102905780635ec5d856146102a2578063715018a6146102b55780638456cb59146102bd57600080fd5b806301ffc9a71461015257806310782f8f1461017a57806313bc2b49146101915780633f4ba83a146101a6578063431f21da146101ae575b600080fd5b61016561016036600461102c565b6103d8565b60405190151581526020015b60405180910390f35b61018360065481565b604051908152602001610171565b6101a461019f366004611079565b61040f565b005b6101a4610441565b6101a46101bc366004611094565b610453565b61022a6101cf3660046110c6565b600560208190526000918252604090912080546001820154600283015460038401546004850154958501546006860154600787015460089097015495976001600160a01b039586169794969395909492939116919060ff1689565b60408051998a526001600160a01b0398891660208b01528901969096526060880194909452608087019290925260a086015290921660c084015260e0830191909152151561010082015261012001610171565b6101a461028b3660046110df565b6106b9565b600054600160a01b900460ff16610165565b6101a46102b0366004611079565b61093b565b6101a46109b6565b6101a46109c8565b6101a46102d33660046110c6565b6109d8565b6000546001600160a01b03165b6040516001600160a01b039091168152602001610171565b6101a461030b366004611079565b610a3e565b6101a461031e366004611079565b610a70565b6101a46103313660046110c6565b610ab9565b610355610344366004611238565b63bc197c8160e01b95945050505050565b6040516001600160e01b03199091168152602001610171565b61018360045481565b6001546102e5906001600160a01b031681565b61018360035481565b6103556103a13660046112e2565b63f23a6e6160e01b95945050505050565b6101a46103c0366004611079565b610dd4565b6002546102e5906001600160a01b031681565b60006001600160e01b03198216630271189760e51b148061040957506301ffc9a760e01b6001600160e01b03198316145b92915050565b610417610e4d565b61041f610ea7565b600280546001600160a01b0319166001600160a01b0392909216919091179055565b610449610e4d565b610451610ef4565b565b61045b610ea7565b6001546040516370a0823160e01b815233600482015284916001600160a01b0316906370a0823190602401602060405180830381865afa1580156104a3573d6000803e3d6000fd5b505050506040513d601f19601f820116820180604052508101906104c79190611347565b10156105115760405162461bcd60e51b8152602060048201526014602482015273496e73756666696369656e742062616c616e636560601b60448201526064015b60405180910390fd5b60408051610120810182526006548152336020820152908101859052606081018490526080810183905260a08101839052600060c082015260e081016105578342611376565b81526000602091820181905260068054825260058084526040928390208551815593850151600180860180546001600160a01b03199081166001600160a01b039485161790915587860151600288015560608801516003880155608088015160048089019190915560a08901519488019490945560c088015194870180549091169483169490941790935560e08601516007860155610100909501516008909401805460ff1916941515949094179093555490516323b872dd60e01b81529216916323b872dd9161062e91339130918a9101611389565b600060405180830381600087803b15801561064857600080fd5b505af115801561065c573d6000803e3d6000fd5b5050600654604080513381526020810189905290810187905260608101869052608081018590529092507e09646912aaa7019ad837e57cc5c0613299c8432f5268d4450ab8673fe0fa03915060a00160405180910390a250505050565b6106c1610ea7565b6000828152600560205260409020600881015460ff161561071c5760405162461bcd60e51b8152602060048201526015602482015274105d58dd1a5bdb88185b1c9958591e48195b991959605a1b6044820152606401610508565b806007015442106107635760405162461bcd60e51b8152602060048201526011602482015270105d58dd1a5bdb881a185cc8195b991959607a1b6044820152606401610508565b806005015482116107d55760405162461bcd60e51b815260206004820152603660248201527f42696420616d6f756e74206d75737420626520686967686572207468616e20746044820152751a194818dd5c9c995b9d081a1a59da195cdd08189a5960521b6064820152608401610508565b60068101546001600160a01b03161561086b576002546006820154600583015460405163423f6cef60e01b81526001600160a01b039283166004820152602481019190915291169063423f6cef906044016020604051808303816000875af1158015610845573d6000803e3d6000fd5b505050506040513d601f19601f8201168201806040525081019061086991906113ad565b505b600254604051632142170760e11b81526001600160a01b03909116906342842e0e9061089f90339030908790600401611389565b6020604051808303816000875af11580156108be573d6000803e3d6000fd5b505050506040513d601f19601f820116820180604052508101906108e291906113ad565b50600581018290556006810180546001600160a01b0319163390811790915581546040518481527f0e54eff26401bf69b81b26f60bd85ef47f5d85275c1d268d84f68d6897431c479060200160405180910390a3505050565b610943610e4d565b61094b610ea7565b6001805460405163a22cb46560e01b81526001600160a01b038481166004830152602482019390935291169063a22cb465906044015b600060405180830381600087803b15801561099b57600080fd5b505af11580156109af573d6000803e3d6000fd5b5050505050565b6109be610e4d565b6104516000610f49565b6109d0610e4d565b610451610f99565b6109e0610e4d565b6109e8610ea7565b6064811115610a395760405162461bcd60e51b815260206004820152601d60248201527f496e76616c696420636f6d6d697373696f6e2070657263656e746167650000006044820152606401610508565b600355565b610a46610e4d565b610a4e610ea7565b600180546001600160a01b0319166001600160a01b0392909216919091179055565b610a78610e4d565b610a80610ea7565b60015460405163a22cb46560e01b81526001600160a01b038381166004830152600060248301529091169063a22cb46590604401610981565b610ac1610e4d565b610ac9610ea7565b6000818152600560205260409020600881015460ff1615610b245760405162461bcd60e51b8152602060048201526015602482015274105d58dd1a5bdb88185b1c9958591e48195b991959605a1b6044820152606401610508565b8060070154421015610b785760405162461bcd60e51b815260206004820152601960248201527f41756374696f6e20686173206e6f742079657420656e646564000000000000006044820152606401610508565b60088101805460ff1916600117905560068101546001600160a01b031615610d2557600060646003548360050154610bb091906113cf565b610bba91906113e6565b90506000818360050154610bce9190611408565b600254600185015460405163423f6cef60e01b81526001600160a01b03918216600482015260248101849052929350169063423f6cef906044016020604051808303816000875af1158015610c27573d6000803e3d6000fd5b505050506040513d601f19601f82011682018060405250810190610c4b91906113ad565b508160046000828254610c5e9190611376565b9091555050600154600684015460028501546040516323b872dd60e01b81526001600160a01b03938416936323b872dd93610ca29330939290911691600401611389565b600060405180830381600087803b158015610cbc57600080fd5b505af1158015610cd0573d6000803e3d6000fd5b505050506006830154835460058501546040519081526001600160a01b03909216917fd2aa34a4fdbbc6dff6a3e56f46e0f3ae2a31d7785ff3487aa5c95c642acea5019060200160405180910390a350505050565b600180549082015460028301546040516323b872dd60e01b81526001600160a01b03938416936323b872dd93610d649330939290911691600401611389565b600060405180830381600087803b158015610d7e57600080fd5b505af1158015610d92573d6000803e3d6000fd5b50508254604051600080825293509091507fd2aa34a4fdbbc6dff6a3e56f46e0f3ae2a31d7785ff3487aa5c95c642acea5019060200160405180910390a35050565b610ddc610e4d565b6001600160a01b038116610e415760405162461bcd60e51b815260206004820152602660248201527f4f776e61626c653a206e6577206f776e657220697320746865207a65726f206160448201526564647265737360d01b6064820152608401610508565b610e4a81610f49565b50565b6000546001600160a01b031633146104515760405162461bcd60e51b815260206004820181905260248201527f4f776e61626c653a2063616c6c6572206973206e6f7420746865206f776e65726044820152606401610508565b600054600160a01b900460ff16156104515760405162461bcd60e51b815260206004820152601060248201526f14185d5cd8589b194e881c185d5cd95960821b6044820152606401610508565b610efc610fdc565b6000805460ff60a01b191690557f5db9ee0a495bf2e6ff9c91a7834c1ba4fdd244a5e8aa4e537bd38aeae4b073aa335b6040516001600160a01b03909116815260200160405180910390a1565b600080546001600160a01b038381166001600160a01b0319831681178455604051919092169283917f8be0079c531659141344cd1fd0a4f28419497f9722a3daafe3b4186f6b6457e09190a35050565b610fa1610ea7565b6000805460ff60a01b1916600160a01b1790557f62e78cea01bee320cd4e420270b5ea74000d11b0c9f74754ebdbfc544b05a258610f2c3390565b600054600160a01b900460ff166104515760405162461bcd60e51b815260206004820152601460248201527314185d5cd8589b194e881b9bdd081c185d5cd95960621b6044820152606401610508565b60006020828403121561103e57600080fd5b81356001600160e01b03198116811461105657600080fd5b9392505050565b80356001600160a01b038116811461107457600080fd5b919050565b60006020828403121561108b57600080fd5b6110568261105d565b600080600080608085870312156110aa57600080fd5b5050823594602084013594506040840135936060013592509050565b6000602082840312156110d857600080fd5b5035919050565b600080604083850312156110f257600080fd5b50508035926020909101359150565b634e487b7160e01b600052604160045260246000fd5b604051601f8201601f1916810167ffffffffffffffff8111828210171561114057611140611101565b604052919050565b600082601f83011261115957600080fd5b8135602067ffffffffffffffff82111561117557611175611101565b8160051b611184828201611117565b928352848101820192828101908785111561119e57600080fd5b83870192505b848310156111bd578235825291830191908301906111a4565b979650505050505050565b600082601f8301126111d957600080fd5b813567ffffffffffffffff8111156111f3576111f3611101565b611206601f8201601f1916602001611117565b81815284602083860101111561121b57600080fd5b816020850160208301376000918101602001919091529392505050565b600080600080600060a0868803121561125057600080fd5b6112598661105d565b94506112676020870161105d565b9350604086013567ffffffffffffffff8082111561128457600080fd5b61129089838a01611148565b945060608801359150808211156112a657600080fd5b6112b289838a01611148565b935060808801359150808211156112c857600080fd5b506112d5888289016111c8565b9150509295509295909350565b600080600080600060a086880312156112fa57600080fd5b6113038661105d565b94506113116020870161105d565b93506040860135925060608601359150608086013567ffffffffffffffff81111561133b57600080fd5b6112d5888289016111c8565b60006020828403121561135957600080fd5b5051919050565b634e487b7160e01b600052601160045260246000fd5b8082018082111561040957610409611360565b6001600160a01b039384168152919092166020820152604081019190915260600190565b6000602082840312156113bf57600080fd5b8151801515811461105657600080fd5b808202811582820484141761040957610409611360565b60008261140357634e487b7160e01b600052601260045260246000fd5b500490565b818103818111156104095761040961136056fea264697066735822122061c59e4c7ccde736211f63fccd24b0072fd5133632b4a7304ac657fd1029939e64736f6c63430008150033",
  "linkReferences": {},
  "deployedLinkReferences": {}
}