{
  "_format": "hh-sol-artifact-1",
  "contractName": "AssetsMarketplace",
  "sourceName": "contracts/assetsMarket/NFTMarketplace.sol",
  "abi": [
    {
      "inputs": [
        {
          "internalType": "address",
          "name": "_siliquaCoinAddress",
          "type": "address"
        },
        {
          "internalType": "address",
          "name": "_nftContractAddress",
          "type": "address"
        },
        {
          "internalType": "uint256",
          "name": "_commissionPercentage",
          "type": "uint256"
        }
      ],
      "stateMutability": "nonpayable",
      "type": "constructor"
    },
    {
      "anonymous": false,
      "inputs": [
        {
          "indexed": false,
          "internalType": "uint256",
          "name": "newCommissionPercentage",
          "type": "uint256"
        }
      ],
      "name": "CommissionPercentageUpdated",
      "type": "event"
    },
    {
      "anonymous": false,
      "inputs": [
        {
          "indexed": true,
          "internalType": "address",
          "name": "newNFTContractAddress",
          "type": "address"
        }
      ],
      "name": "NFTContractUpdated",
      "type": "event"
    },
    {
      "anonymous": false,
      "inputs": [
        {
          "indexed": true,
          "internalType": "uint256",
          "name": "listingId",
          "type": "uint256"
        },
        {
          "indexed": true,
          "internalType": "address",
          "name": "seller",
          "type": "address"
        },
        {
          "indexed": true,
          "internalType": "uint256",
          "name": "tokenId",
          "type": "uint256"
        },
        {
          "indexed": false,
          "internalType": "uint256",
          "name": "amount",
          "type": "uint256"
        },
        {
          "indexed": false,
          "internalType": "uint256",
          "name": "price",
          "type": "uint256"
        },
        {
          "indexed": false,
          "internalType": "string",
          "name": "status",
          "type": "string"
        }
      ],
      "name": "NFTListed",
      "type": "event"
    },
    {
      "anonymous": false,
      "inputs": [
        {
          "indexed": true,
          "internalType": "uint256",
          "name": "listingId",
          "type": "uint256"
        },
        {
          "indexed": true,
          "internalType": "address",
          "name": "seller",
          "type": "address"
        },
        {
          "indexed": true,
          "internalType": "uint256",
          "name": "tokenId",
          "type": "uint256"
        },
        {
          "indexed": false,
          "internalType": "uint256",
          "name": "amount",
          "type": "uint256"
        },
        {
          "indexed": false,
          "internalType": "uint256",
          "name": "price",
          "type": "uint256"
        },
        {
          "indexed": false,
          "internalType": "string",
          "name": "status",
          "type": "string"
        }
      ],
      "name": "NFTListingCancelled",
      "type": "event"
    },
    {
      "anonymous": false,
      "inputs": [
        {
          "indexed": true,
          "internalType": "uint256",
          "name": "listingId",
          "type": "uint256"
        },
        {
          "indexed": true,
          "internalType": "address",
          "name": "buyer",
          "type": "address"
        },
        {
          "indexed": true,
          "internalType": "address",
          "name": "seller",
          "type": "address"
        },
        {
          "indexed": false,
          "internalType": "uint256",
          "name": "tokenId",
          "type": "uint256"
        },
        {
          "indexed": false,
          "internalType": "uint256",
          "name": "amount",
          "type": "uint256"
        },
        {
          "indexed": false,
          "internalType": "uint256",
          "name": "price",
          "type": "uint256"
        },
        {
          "indexed": false,
          "internalType": "string",
          "name": "status",
          "type": "string"
        }
      ],
      "name": "NFTPurchased",
      "type": "event"
    },
    {
      "anonymous": false,
      "inputs": [
        {
          "indexed": true,
          "internalType": "address",
          "name": "previousOwner",
          "type": "address"
        },
        {
          "indexed": true,
          "internalType": "address",
          "name": "newOwner",
          "type": "address"
        }
      ],
      "name": "OwnershipTransferred",
      "type": "event"
    },
    {
      "anonymous": false,
      "inputs": [
        {
          "indexed": false,
          "internalType": "address",
          "name": "account",
          "type": "address"
        }
      ],
      "name": "Paused",
      "type": "event"
    },
    {
      "anonymous": false,
      "inputs": [
        {
          "indexed": true,
          "internalType": "address",
          "name": "newSiliquaCoinAddress",
          "type": "address"
        }
      ],
      "name": "SiliquaCoinUpdated",
      "type": "event"
    },
    {
      "anonymous": false,
      "inputs": [
        {
          "indexed": false,
          "internalType": "address",
          "name": "account",
          "type": "address"
        }
      ],
      "name": "Unpaused",
      "type": "event"
    },
    {
      "inputs": [
        {
          "internalType": "uint256",
          "name": "_listingId",
          "type": "uint256"
        }
      ],
      "name": "cancelListing",
      "outputs": [],
      "stateMutability": "nonpayable",
      "type": "function"
    },
    {
      "inputs": [],
      "name": "commissionPercentage",
      "outputs": [
        {
          "internalType": "uint256",
          "name": "",
          "type": "uint256"
        }
      ],
      "stateMutability": "view",
      "type": "function"
    },
    {
      "inputs": [],
      "name": "getActiveListings",
      "outputs": [
        {
          "components": [
            {
              "internalType": "uint256",
              "name": "listingId",
              "type": "uint256"
            },
            {
              "internalType": "address",
              "name": "seller",
              "type": "address"
            },
            {
              "internalType": "uint256",
              "name": "tokenId",
              "type": "uint256"
            },
            {
              "internalType": "uint256",
              "name": "amount",
              "type": "uint256"
            },
            {
              "internalType": "uint256",
              "name": "price",
              "type": "uint256"
            },
            {
              "internalType": "bool",
              "name": "isActive",
              "type": "bool"
            }
          ],
          "internalType": "struct AssetsMarketplace.Listing[]",
          "name": "activeListings",
          "type": "tuple[]"
        }
      ],
      "stateMutability": "view",
      "type": "function"
    },
    {
      "inputs": [
        {
          "internalType": "uint256",
          "name": "_tokenId",
          "type": "uint256"
        },
        {
          "internalType": "uint256",
          "name": "_amount",
          "type": "uint256"
        },
        {
          "internalType": "uint256",
          "name": "_price",
          "type": "uint256"
        }
      ],
      "name": "listNFT",
      "outputs": [],
      "stateMutability": "nonpayable",
      "type": "function"
    },
    {
      "inputs": [],
      "name": "listingId",
      "outputs": [
        {
          "internalType": "uint256",
          "name": "",
          "type": "uint256"
        }
      ],
      "stateMutability": "view",
      "type": "function"
    },
    {
      "inputs": [
        {
          "internalType": "uint256",
          "name": "",
          "type": "uint256"
        }
      ],
      "name": "listings",
      "outputs": [
        {
          "internalType": "uint256",
          "name": "listingId",
          "type": "uint256"
        },
        {
          "internalType": "address",
          "name": "seller",
          "type": "address"
        },
        {
          "internalType": "uint256",
          "name": "tokenId",
          "type": "uint256"
        },
        {
          "internalType": "uint256",
          "name": "amount",
          "type": "uint256"
        },
        {
          "internalType": "uint256",
          "name": "price",
          "type": "uint256"
        },
        {
          "internalType": "bool",
          "name": "isActive",
          "type": "bool"
        }
      ],
      "stateMutability": "view",
      "type": "function"
    },
    {
      "inputs": [],
      "name": "nftToken",
      "outputs": [
        {
          "internalType": "contract AssetsNFT",
          "name": "",
          "type": "address"
        }
      ],
      "stateMutability": "view",
      "type": "function"
    },
    {
      "inputs": [
        {
          "internalType": "address",
          "name": "",
          "type": "address"
        },
        {
          "internalType": "address",
          "name": "",
          "type": "address"
        },
        {
          "internalType": "uint256[]",
          "name": "",
          "type": "uint256[]"
        },
        {
          "internalType": "uint256[]",
          "name": "",
          "type": "uint256[]"
        },
        {
          "internalType": "bytes",
          "name": "",
          "type": "bytes"
        }
      ],
      "name": "onERC1155BatchReceived",
      "outputs": [
        {
          "internalType": "bytes4",
          "name": "",
          "type": "bytes4"
        }
      ],
      "stateMutability": "nonpayable",
      "type": "function"
    },
    {
      "inputs": [
        {
          "internalType": "address",
          "name": "",
          "type": "address"
        },
        {
          "internalType": "address",
          "name": "",
          "type": "address"
        },
        {
          "internalType": "uint256",
          "name": "",
          "type": "uint256"
        },
        {
          "internalType": "uint256",
          "name": "",
          "type": "uint256"
        },
        {
          "internalType": "bytes",
          "name": "",
          "type": "bytes"
        }
      ],
      "name": "onERC1155Received",
      "outputs": [
        {
          "internalType": "bytes4",
          "name": "",
          "type": "bytes4"
        }
      ],
      "stateMutability": "nonpayable",
      "type": "function"
    },
    {
      "inputs": [],
      "name": "owner",
      "outputs": [
        {
          "internalType": "address",
          "name": "",
          "type": "address"
        }
      ],
      "stateMutability": "view",
      "type": "function"
    },
    {
      "inputs": [],
      "name": "pause",
      "outputs": [],
      "stateMutability": "nonpayable",
      "type": "function"
    },
    {
      "inputs": [],
      "name": "paused",
      "outputs": [
        {
          "internalType": "bool",
          "name": "",
          "type": "bool"
        }
      ],
      "stateMutability": "view",
      "type": "function"
    },
    {
      "inputs": [
        {
          "internalType": "uint256",
          "name": "_listingId",
          "type": "uint256"
        }
      ],
      "name": "purchaseNFT",
      "outputs": [],
      "stateMutability": "payable",
      "type": "function"
    },
    {
      "inputs": [],
      "name": "renounceOwnership",
      "outputs": [],
      "stateMutability": "nonpayable",
      "type": "function"
    },
    {
      "inputs": [
        {
          "internalType": "address",
          "name": "_nftContractAddress",
          "type": "address"
        }
      ],
      "name": "setNFTContract",
      "outputs": [],
      "stateMutability": "nonpayable",
      "type": "function"
    },
    {
      "inputs": [
        {
          "internalType": "address",
          "name": "_siliquaCoinAddress",
          "type": "address"
        }
      ],
      "name": "setSiliquaCoin",
      "outputs": [],
      "stateMutability": "nonpayable",
      "type": "function"
    },
    {
      "inputs": [
        {
          "internalType": "bytes4",
          "name": "interfaceId",
          "type": "bytes4"
        }
      ],
      "name": "supportsInterface",
      "outputs": [
        {
          "internalType": "bool",
          "name": "",
          "type": "bool"
        }
      ],
      "stateMutability": "view",
      "type": "function"
    },
    {
      "inputs": [],
      "name": "token",
      "outputs": [
        {
          "internalType": "contract ISiliquaCoin",
          "name": "",
          "type": "address"
        }
      ],
      "stateMutability": "view",
      "type": "function"
    },
    {
      "inputs": [],
      "name": "totalCommissionEarned",
      "outputs": [
        {
          "internalType": "uint256",
          "name": "",
          "type": "uint256"
        }
      ],
      "stateMutability": "view",
      "type": "function"
    },
    {
      "inputs": [
        {
          "internalType": "address",
          "name": "newOwner",
          "type": "address"
        }
      ],
      "name": "transferOwnership",
      "outputs": [],
      "stateMutability": "nonpayable",
      "type": "function"
    },
    {
      "inputs": [],
      "name": "unpause",
      "outputs": [],
      "stateMutability": "nonpayable",
      "type": "function"
    },
    {
      "inputs": [
        {
          "internalType": "uint256",
          "name": "_newCommissionPercentage",
          "type": "uint256"
        }
      ],
      "name": "updateCommissionPercentage",
      "outputs": [],
      "stateMutability": "nonpayable",
      "type": "function"
    }
  ],
  "bytecode": "0x608060405260006007553480156200001657600080fd5b5060405162001820380380620018208339810160408190526200003991620000f6565b620000443362000089565b60018055600280546001600160a81b0319166101006001600160a01b0394851602179055600380546001600160a01b0319169390921692909217905560045562000137565b600080546001600160a01b038381166001600160a01b0319831681178455604051919092169283917f8be0079c531659141344cd1fd0a4f28419497f9722a3daafe3b4186f6b6457e09190a35050565b80516001600160a01b0381168114620000f157600080fd5b919050565b6000806000606084860312156200010c57600080fd5b6200011784620000d9565b92506200012760208501620000d9565b9150604084015190509250925092565b6116d980620001476000396000f3fe6080604052600436106101355760003560e01c80639405dfdd116100ab578063d06fcba81161006f578063d06fcba81461034e578063d575fe6414610373578063de74e57b14610389578063f23a6e611461041d578063f2fde38b14610449578063fc0c546a1461046957600080fd5b80639405dfdd1461028f578063a7ccabdf146102b3578063b0136c8d146102d3578063bc197c81146102f3578063c73cdd231461033857600080fd5b80635c975abb116100fd5780635c975abb146101d9578063715018a6146101f15780638456cb591461020657806387c35bc01461021b5780638ce2199e1461023d5780638da5cb5b1461025d57600080fd5b806301ffc9a71461013a57806313bc2b491461016f578063150bde0314610191578063305a67a8146101a45780633f4ba83a146101c4575b600080fd5b34801561014657600080fd5b5061015a61015536600461124e565b610489565b60405190151581526020015b60405180910390f35b34801561017b57600080fd5b5061018f61018a36600461129b565b6104c0565b005b61018f61019f3660046112b6565b61051a565b3480156101b057600080fd5b5061018f6101bf3660046112b6565b6108f1565b3480156101d057600080fd5b5061018f610a89565b3480156101e557600080fd5b5060025460ff1661015a565b3480156101fd57600080fd5b5061018f610a9b565b34801561021257600080fd5b5061018f610aad565b34801561022757600080fd5b50610230610abd565b60405161016691906112cf565b34801561024957600080fd5b5061018f6102583660046112b6565b610c72565b34801561026957600080fd5b506000546001600160a01b03165b6040516001600160a01b039091168152602001610166565b34801561029b57600080fd5b506102a560075481565b604051908152602001610166565b3480156102bf57600080fd5b5061018f6102ce36600461129b565b610d0e565b3480156102df57600080fd5b5061018f6102ee366004611352565b610d70565b3480156102ff57600080fd5b5061031f61030e3660046114b5565b63bc197c8160e01b95945050505050565b6040516001600160e01b03199091168152602001610166565b34801561034457600080fd5b506102a560055481565b34801561035a57600080fd5b506002546102779061010090046001600160a01b031681565b34801561037f57600080fd5b506102a560045481565b34801561039557600080fd5b506103e66103a43660046112b6565b60066020526000908152604090208054600182015460028301546003840154600485015460059095015493946001600160a01b03909316939192909160ff1686565b604080519687526001600160a01b0390951660208701529385019290925260608401526080830152151560a082015260c001610166565b34801561042957600080fd5b5061031f61043836600461155f565b63f23a6e6160e01b95945050505050565b34801561045557600080fd5b5061018f61046436600461129b565b610fb7565b34801561047557600080fd5b50600354610277906001600160a01b031681565b60006001600160e01b03198216630271189760e51b14806104ba57506301ffc9a760e01b6001600160e01b03198316145b92915050565b6104c861102d565b6104d0611087565b600380546001600160a01b0319166001600160a01b0383169081179091556040517f6eee81a43bf9442f55a05941b6e18df1a7bcf02125d1e7b93ba7342aa72ef20e90600090a250565b6105226110cd565b61052a611087565b60075481106105735760405162461bcd60e51b815260206004820152601060248201526f125108191bd95cdb89dd08195e1a5cdd60821b60448201526064015b60405180910390fd5b6000818152600660205260409020600581015460ff166105cd5760405162461bcd60e51b81526020600482015260156024820152744c697374696e67206973206e6f742061637469766560581b604482015260640161056a565b806004015434146106125760405162461bcd60e51b815260206004820152600f60248201526e496e636f727265637420707269636560881b604482015260640161056a565b60006064600454836004015461062891906115da565b61063291906115f1565b905080600560008282546106469190611613565b9091555050600080546040516001600160a01b039091169183156108fc02918491818181858888f19350505050158015610684573d6000803e3d6000fd5b5060008183600401546106979190611626565b60018401546040519192506001600160a01b03169082156108fc029083906000818181858888f193505050501580156106d4573d6000803e3d6000fd5b5060028054908401546003850154604051637f4c824d60e11b8152306004820152336024820152604481019290925260648201526101009091046001600160a01b03169063fe99049a90608401600060405180830381600087803b15801561073b57600080fd5b505af115801561074f573d6000803e3d6000fd5b505060035460405163423f6cef60e01b8152336004820152670de0b6b3a764000060248201526001600160a01b03909116925063423f6cef91506044016020604051808303816000875af11580156107ab573d6000803e3d6000fd5b505050506040513d601f19601f820116820180604052508101906107cf9190611639565b50600354600184015460405163423f6cef60e01b81526001600160a01b039182166004820152670de0b6b3a7640000602482015291169063423f6cef906044016020604051808303816000875af115801561082e573d6000803e3d6000fd5b505050506040513d601f19601f820116820180604052508101906108529190611639565b5060058301805460ff19169055600183015460028401546003850154600486015460408051938452602084019290925282820152608060608301819052600990830152681c1d5c98da185cd95960ba1b60a0830152516001600160a01b0390921691339187917f0a06a6f449435029a2c06dbea66356ac3f4f0584a73ff7f22ef368c144a012a79181900360c00190a45050506108ee60018055565b50565b6108f9611087565b600754811061093f5760405162461bcd60e51b8152602060048201526012602482015271125b9d985b1a59081b1a5cdd1a5b99c8125160721b604482015260640161056a565b600081815260066020526040902060018101546001600160a01b031633146109b85760405162461bcd60e51b815260206004820152602660248201527f4f6e6c79207468652073656c6c65722063616e2063616e63656c20746865206c604482015265697374696e6760d01b606482015260840161056a565b600581015460ff16610a045760405162461bcd60e51b81526020600482015260156024820152744c697374696e67206973206e6f742061637469766560581b604482015260640161056a565b60058101805460ff19169055600281015460038201546004830154604051339286927f6d0ecfb1e9c08e774b62b396633297074ab554950a2f8ece9cd32392582c39a092610a7d92919091825260208201526060604082018190526009908201526818d85b98d95b1b195960ba1b608082015260a00190565b60405180910390a45050565b610a9161102d565b610a99611126565b565b610aa361102d565b610a996000611178565b610ab561102d565b610a996111c8565b6060610ac7611087565b6000805b600754811015610b0f5760008181526006602052604090206005015460ff1615610afd5781610af98161165b565b9250505b80610b078161165b565b915050610acb565b508067ffffffffffffffff811115610b2957610b2961137e565b604051908082528060200260200182016040528015610b9e57816020015b610b8b6040518060c001604052806000815260200160006001600160a01b031681526020016000815260200160008152602001600081526020016000151581525090565b815260200190600190039081610b475790505b5091506000805b600754811015610c6c5760008181526006602052604090206005015460ff1615610c5a57600081815260066020908152604091829020825160c0810184528154815260018201546001600160a01b031692810192909252600281015492820192909252600382015460608201526004820154608082015260059091015460ff16151560a08201528451859084908110610c4057610c40611674565b60200260200101819052508180610c569061165b565b9250505b80610c648161165b565b915050610ba5565b50505090565b610c7a61102d565b610c82611087565b6064811115610cd35760405162461bcd60e51b815260206004820152601d60248201527f496e76616c696420636f6d6d697373696f6e2070657263656e74616765000000604482015260640161056a565b60048190556040518181527f7e3665a83046ac3c4ec146cf309edab9d75086c48761909ce868f5c65743f4f19060200160405180910390a150565b610d1661102d565b610d1e611087565b60028054610100600160a81b0319166101006001600160a01b038416908102919091179091556040517ff2610996d245d9b77e4ff84c2174eea0b76fb44c422218404f66e28816d78fb990600090a250565b610d78611087565b600254604051627eeac760e11b815233600482015260248101859052839161010090046001600160a01b03169062fdd58e90604401602060405180830381865afa158015610dca573d6000803e3d6000fd5b505050506040513d601f19601f82011682018060405250810190610dee919061168a565b1015610e335760405162461bcd60e51b8152602060048201526014602482015273496e73756666696369656e742062616c616e636560601b604482015260640161056a565b600254604051637f4c824d60e11b815233600482015230602482015260448101859052606481018490526101009091046001600160a01b03169063fe99049a90608401600060405180830381600087803b158015610e9057600080fd5b505af1158015610ea4573d6000803e3d6000fd5b50506040805160c081018252600780548083523360208085018281528587018c815260608088018d81526080808a018e8152600160a0808d0182815260009b8c526006808b529b8f90209d518e559751918d0180546001600160a01b0319166001600160a01b0390931692909217909155945160028c0155915160038b0155905160048a015592516005909801805460ff191698151598909817909755945487518c81529283018b905296820186905294810192909252651b1a5cdd195960d21b938201939093528895509193507f17e0f11c4bcec098f0fa71675a26636c8b4d923dfc6b337aff247d171ddb1df5910160405180910390a460078054906000610fad8361165b565b9190505550505050565b610fbf61102d565b6001600160a01b0381166110245760405162461bcd60e51b815260206004820152602660248201527f4f776e61626c653a206e6577206f776e657220697320746865207a65726f206160448201526564647265737360d01b606482015260840161056a565b6108ee81611178565b6000546001600160a01b03163314610a995760405162461bcd60e51b815260206004820181905260248201527f4f776e61626c653a2063616c6c6572206973206e6f7420746865206f776e6572604482015260640161056a565b60025460ff1615610a995760405162461bcd60e51b815260206004820152601060248201526f14185d5cd8589b194e881c185d5cd95960821b604482015260640161056a565b60026001540361111f5760405162461bcd60e51b815260206004820152601f60248201527f5265656e7472616e637947756172643a207265656e7472616e742063616c6c00604482015260640161056a565b6002600155565b61112e611205565b6002805460ff191690557f5db9ee0a495bf2e6ff9c91a7834c1ba4fdd244a5e8aa4e537bd38aeae4b073aa335b6040516001600160a01b03909116815260200160405180910390a1565b600080546001600160a01b038381166001600160a01b0319831681178455604051919092169283917f8be0079c531659141344cd1fd0a4f28419497f9722a3daafe3b4186f6b6457e09190a35050565b6111d0611087565b6002805460ff191660011790557f62e78cea01bee320cd4e420270b5ea74000d11b0c9f74754ebdbfc544b05a25861115b3390565b60025460ff16610a995760405162461bcd60e51b815260206004820152601460248201527314185d5cd8589b194e881b9bdd081c185d5cd95960621b604482015260640161056a565b60006020828403121561126057600080fd5b81356001600160e01b03198116811461127857600080fd5b9392505050565b80356001600160a01b038116811461129657600080fd5b919050565b6000602082840312156112ad57600080fd5b6112788261127f565b6000602082840312156112c857600080fd5b5035919050565b602080825282518282018190526000919060409081850190868401855b8281101561134557815180518552868101516001600160a01b0316878601528581015186860152606080820151908601526080808201519086015260a09081015115159085015260c090930192908501906001016112ec565b5091979650505050505050565b60008060006060848603121561136757600080fd5b505081359360208301359350604090920135919050565b634e487b7160e01b600052604160045260246000fd5b604051601f8201601f1916810167ffffffffffffffff811182821017156113bd576113bd61137e565b604052919050565b600082601f8301126113d657600080fd5b8135602067ffffffffffffffff8211156113f2576113f261137e565b8160051b611401828201611394565b928352848101820192828101908785111561141b57600080fd5b83870192505b8483101561143a57823582529183019190830190611421565b979650505050505050565b600082601f83011261145657600080fd5b813567ffffffffffffffff8111156114705761147061137e565b611483601f8201601f1916602001611394565b81815284602083860101111561149857600080fd5b816020850160208301376000918101602001919091529392505050565b600080600080600060a086880312156114cd57600080fd5b6114d68661127f565b94506114e46020870161127f565b9350604086013567ffffffffffffffff8082111561150157600080fd5b61150d89838a016113c5565b9450606088013591508082111561152357600080fd5b61152f89838a016113c5565b9350608088013591508082111561154557600080fd5b5061155288828901611445565b9150509295509295909350565b600080600080600060a0868803121561157757600080fd5b6115808661127f565b945061158e6020870161127f565b93506040860135925060608601359150608086013567ffffffffffffffff8111156115b857600080fd5b61155288828901611445565b634e487b7160e01b600052601160045260246000fd5b80820281158282048414176104ba576104ba6115c4565b60008261160e57634e487b7160e01b600052601260045260246000fd5b500490565b808201808211156104ba576104ba6115c4565b818103818111156104ba576104ba6115c4565b60006020828403121561164b57600080fd5b8151801515811461127857600080fd5b60006001820161166d5761166d6115c4565b5060010190565b634e487b7160e01b600052603260045260246000fd5b60006020828403121561169c57600080fd5b505191905056fea26469706673582212208b8cd86519d28ab9a21857d0ba3e6e409c3dd8dc3d294be4f4dac97c74f3548964736f6c63430008150033",
  "linkReferences": {},
  "deployedLinkReferences": {}
}