{
  "_format": "hh-sol-artifact-1",
  "contractName": "AssetsMarketplace",
  "sourceName": "contracts/assetsMarket/NFTMarketplace.sol",
  "abi": [
    {
      "inputs": [
        {
          "internalType": "address",
          "name": "_nftContractAddress",
          "type": "address"
        },
        {
          "internalType": "uint256",
          "name": "_commissionPercentage",
          "type": "uint256"
        }
      ],
      "stateMutability": "nonpayable",
      "type": "constructor"
    },
    {
      "anonymous": false,
      "inputs": [
        {
          "indexed": true,
          "internalType": "address",
          "name": "account",
          "type": "address"
        },
        {
          "indexed": false,
          "internalType": "uint256[]",
          "name": "tokenIds",
          "type": "uint256[]"
        },
        {
          "indexed": false,
          "internalType": "uint256[]",
          "name": "amounts",
          "type": "uint256[]"
        },
        {
          "indexed": false,
          "internalType": "uint256",
          "name": "price",
          "type": "uint256"
        }
      ],
      "name": "BundleMinted",
      "type": "event"
    },
    {
      "anonymous": false,
      "inputs": [
        {
          "indexed": true,
          "internalType": "uint256",
          "name": "listingId",
          "type": "uint256"
        },
        {
          "indexed": false,
          "internalType": "string",
          "name": "status",
          "type": "string"
        }
      ],
      "name": "ListingUpdated",
      "type": "event"
    },
    {
      "anonymous": false,
      "inputs": [
        {
          "indexed": true,
          "internalType": "address",
          "name": "previousOwner",
          "type": "address"
        },
        {
          "indexed": true,
          "internalType": "address",
          "name": "newOwner",
          "type": "address"
        }
      ],
      "name": "OwnershipTransferred",
      "type": "event"
    },
    {
      "anonymous": false,
      "inputs": [
        {
          "indexed": false,
          "internalType": "address",
          "name": "account",
          "type": "address"
        }
      ],
      "name": "Paused",
      "type": "event"
    },
    {
      "anonymous": false,
      "inputs": [
        {
          "indexed": true,
          "internalType": "address",
          "name": "account",
          "type": "address"
        },
        {
          "indexed": false,
          "internalType": "uint256",
          "name": "tokenId",
          "type": "uint256"
        },
        {
          "indexed": false,
          "internalType": "uint256",
          "name": "amount",
          "type": "uint256"
        },
        {
          "indexed": false,
          "internalType": "uint256",
          "name": "price",
          "type": "uint256"
        }
      ],
      "name": "SingleMinted",
      "type": "event"
    },
    {
      "anonymous": false,
      "inputs": [
        {
          "indexed": false,
          "internalType": "address",
          "name": "account",
          "type": "address"
        }
      ],
      "name": "Unpaused",
      "type": "event"
    },
    {
      "inputs": [],
      "name": "bundlePrice",
      "outputs": [
        {
          "internalType": "uint256",
          "name": "",
          "type": "uint256"
        }
      ],
      "stateMutability": "view",
      "type": "function"
    },
    {
      "inputs": [
        {
          "internalType": "uint256",
          "name": "listingId",
          "type": "uint256"
        }
      ],
      "name": "cancelListing",
      "outputs": [],
      "stateMutability": "nonpayable",
      "type": "function"
    },
    {
      "inputs": [],
      "name": "commissionPercentage",
      "outputs": [
        {
          "internalType": "uint256",
          "name": "",
          "type": "uint256"
        }
      ],
      "stateMutability": "view",
      "type": "function"
    },
    {
      "inputs": [],
      "name": "getActiveListings",
      "outputs": [
        {
          "components": [
            {
              "internalType": "uint256",
              "name": "listingId",
              "type": "uint256"
            },
            {
              "internalType": "address",
              "name": "seller",
              "type": "address"
            },
            {
              "internalType": "uint256",
              "name": "tokenId",
              "type": "uint256"
            },
            {
              "internalType": "uint256",
              "name": "amount",
              "type": "uint256"
            },
            {
              "internalType": "uint256",
              "name": "price",
              "type": "uint256"
            },
            {
              "internalType": "bool",
              "name": "isActive",
              "type": "bool"
            }
          ],
          "internalType": "struct AssetsMarketplace.Listing[]",
          "name": "",
          "type": "tuple[]"
        }
      ],
      "stateMutability": "view",
      "type": "function"
    },
    {
      "inputs": [
        {
          "internalType": "uint256",
          "name": "listingId",
          "type": "uint256"
        }
      ],
      "name": "getListingById",
      "outputs": [
        {
          "internalType": "uint256",
          "name": "",
          "type": "uint256"
        },
        {
          "internalType": "address",
          "name": "",
          "type": "address"
        },
        {
          "internalType": "uint256",
          "name": "",
          "type": "uint256"
        },
        {
          "internalType": "uint256",
          "name": "",
          "type": "uint256"
        },
        {
          "internalType": "uint256",
          "name": "",
          "type": "uint256"
        },
        {
          "internalType": "bool",
          "name": "",
          "type": "bool"
        }
      ],
      "stateMutability": "view",
      "type": "function"
    },
    {
      "inputs": [
        {
          "internalType": "uint256",
          "name": "tokenId",
          "type": "uint256"
        },
        {
          "internalType": "uint256",
          "name": "amount",
          "type": "uint256"
        },
        {
          "internalType": "uint256",
          "name": "price",
          "type": "uint256"
        }
      ],
      "name": "listNFT",
      "outputs": [],
      "stateMutability": "nonpayable",
      "type": "function"
    },
    {
      "inputs": [
        {
          "internalType": "uint256",
          "name": "",
          "type": "uint256"
        }
      ],
      "name": "listings",
      "outputs": [
        {
          "internalType": "uint256",
          "name": "listingId",
          "type": "uint256"
        },
        {
          "internalType": "address",
          "name": "seller",
          "type": "address"
        },
        {
          "internalType": "uint256",
          "name": "tokenId",
          "type": "uint256"
        },
        {
          "internalType": "uint256",
          "name": "amount",
          "type": "uint256"
        },
        {
          "internalType": "uint256",
          "name": "price",
          "type": "uint256"
        },
        {
          "internalType": "bool",
          "name": "isActive",
          "type": "bool"
        }
      ],
      "stateMutability": "view",
      "type": "function"
    },
    {
      "inputs": [],
      "name": "nftToken",
      "outputs": [
        {
          "internalType": "contract AssetsNFT",
          "name": "",
          "type": "address"
        }
      ],
      "stateMutability": "view",
      "type": "function"
    },
    {
      "inputs": [
        {
          "internalType": "address",
          "name": "",
          "type": "address"
        },
        {
          "internalType": "address",
          "name": "",
          "type": "address"
        },
        {
          "internalType": "uint256[]",
          "name": "",
          "type": "uint256[]"
        },
        {
          "internalType": "uint256[]",
          "name": "",
          "type": "uint256[]"
        },
        {
          "internalType": "bytes",
          "name": "",
          "type": "bytes"
        }
      ],
      "name": "onERC1155BatchReceived",
      "outputs": [
        {
          "internalType": "bytes4",
          "name": "",
          "type": "bytes4"
        }
      ],
      "stateMutability": "nonpayable",
      "type": "function"
    },
    {
      "inputs": [
        {
          "internalType": "address",
          "name": "",
          "type": "address"
        },
        {
          "internalType": "address",
          "name": "",
          "type": "address"
        },
        {
          "internalType": "uint256",
          "name": "",
          "type": "uint256"
        },
        {
          "internalType": "uint256",
          "name": "",
          "type": "uint256"
        },
        {
          "internalType": "bytes",
          "name": "",
          "type": "bytes"
        }
      ],
      "name": "onERC1155Received",
      "outputs": [
        {
          "internalType": "bytes4",
          "name": "",
          "type": "bytes4"
        }
      ],
      "stateMutability": "nonpayable",
      "type": "function"
    },
    {
      "inputs": [],
      "name": "owner",
      "outputs": [
        {
          "internalType": "address",
          "name": "",
          "type": "address"
        }
      ],
      "stateMutability": "view",
      "type": "function"
    },
    {
      "inputs": [],
      "name": "pause",
      "outputs": [],
      "stateMutability": "nonpayable",
      "type": "function"
    },
    {
      "inputs": [],
      "name": "paused",
      "outputs": [
        {
          "internalType": "bool",
          "name": "",
          "type": "bool"
        }
      ],
      "stateMutability": "view",
      "type": "function"
    },
    {
      "inputs": [],
      "name": "purchaseBundleNFT",
      "outputs": [],
      "stateMutability": "payable",
      "type": "function"
    },
    {
      "inputs": [
        {
          "internalType": "uint256",
          "name": "listingId",
          "type": "uint256"
        }
      ],
      "name": "purchaseNFT",
      "outputs": [],
      "stateMutability": "payable",
      "type": "function"
    },
    {
      "inputs": [
        {
          "internalType": "uint256",
          "name": "tokenId",
          "type": "uint256"
        }
      ],
      "name": "purchaseSingleNFT",
      "outputs": [],
      "stateMutability": "payable",
      "type": "function"
    },
    {
      "inputs": [],
      "name": "renounceOwnership",
      "outputs": [],
      "stateMutability": "nonpayable",
      "type": "function"
    },
    {
      "inputs": [
        {
          "internalType": "bytes4",
          "name": "interfaceId",
          "type": "bytes4"
        }
      ],
      "name": "supportsInterface",
      "outputs": [
        {
          "internalType": "bool",
          "name": "",
          "type": "bool"
        }
      ],
      "stateMutability": "view",
      "type": "function"
    },
    {
      "inputs": [],
      "name": "totalCommissionEarned",
      "outputs": [
        {
          "internalType": "uint256",
          "name": "",
          "type": "uint256"
        }
      ],
      "stateMutability": "view",
      "type": "function"
    },
    {
      "inputs": [
        {
          "internalType": "address",
          "name": "newOwner",
          "type": "address"
        }
      ],
      "name": "transferOwnership",
      "outputs": [],
      "stateMutability": "nonpayable",
      "type": "function"
    },
    {
      "inputs": [],
      "name": "unpause",
      "outputs": [],
      "stateMutability": "nonpayable",
      "type": "function"
    },
    {
      "inputs": [
        {
          "internalType": "uint256",
          "name": "newPrice",
          "type": "uint256"
        }
      ],
      "name": "updateBundlePrice",
      "outputs": [],
      "stateMutability": "nonpayable",
      "type": "function"
    },
    {
      "inputs": [
        {
          "internalType": "uint256",
          "name": "newPercentage",
          "type": "uint256"
        }
      ],
      "name": "updateCommissionPercentage",
      "outputs": [],
      "stateMutability": "nonpayable",
      "type": "function"
    },
    {
      "inputs": [
        {
          "internalType": "address",
          "name": "newContract",
          "type": "address"
        }
      ],
      "name": "updateNFTContract",
      "outputs": [],
      "stateMutability": "nonpayable",
      "type": "function"
    },
    {
      "inputs": [
        {
          "internalType": "uint256",
          "name": "amount",
          "type": "uint256"
        }
      ],
      "name": "withdrawFunds",
      "outputs": [],
      "stateMutability": "nonpayable",
      "type": "function"
    }
  ],
  "bytecode": "0x60806040526001600655662386f26fc1000060075534801561002057600080fd5b50604051611a8c380380611a8c83398101604081905261003f916100ca565b6100483361007a565b60018055600280546001600160a01b03909316610100026001600160a81b031990931692909217909155600355610104565b600080546001600160a01b038381166001600160a01b0319831681178455604051919092169283917f8be0079c531659141344cd1fd0a4f28419497f9722a3daafe3b4186f6b6457e09190a35050565b600080604083850312156100dd57600080fd5b82516001600160a01b03811681146100f457600080fd5b6020939093015192949293505050565b611979806101136000396000f3fe6080604052600436106101665760003560e01c80638456cb59116100d1578063bc197c811161008a578063d575fe6411610064578063d575fe64146104a0578063de74e57b146104b6578063f23a6e6114610513578063f2fde38b1461053f57600080fd5b8063bc197c8114610420578063c73cdd2314610465578063d06fcba81461047b57600080fd5b80638456cb591461035357806387c35bc0146103685780638ce2199e1461038a5780638da5cb5b146103aa5780638dca9e1a146103dc578063b0136c8d1461040057600080fd5b80635995aa6d116101235780635995aa6d146102cb5780635c975abb146102d3578063715018a6146102eb57806378627f2b1461030057806378d48369146103205780637d610c531461033357600080fd5b806301ffc9a71461016b578063150bde03146101a0578063155dd5ee146101b5578063305a67a8146101d55780633f4ba83a146101f55780634f85310f1461020a575b600080fd5b34801561017757600080fd5b5061018b61018636600461140a565b61055f565b60405190151581526020015b60405180910390f35b6101b36101ae36600461143b565b610596565b005b3480156101c157600080fd5b506101b36101d036600461143b565b610839565b3480156101e157600080fd5b506101b36101f036600461143b565b610872565b34801561020157600080fd5b506101b36109d1565b34801561021657600080fd5b5061029461022536600461143b565b600090815260056020818152604092839020835160c081018552815480825260018301546001600160a01b03169382018490526002830154958201869052600383015460608301819052600484015460808401819052939095015460ff16151560a09092018290529592949392565b604080519687526001600160a01b0390951660208701529385019290925260608401526080830152151560a082015260c001610197565b6101b36109e3565b3480156102df57600080fd5b5060025460ff1661018b565b3480156102f757600080fd5b506101b3610bd3565b34801561030c57600080fd5b506101b361031b366004611470565b610be5565b6101b361032e36600461143b565b610c15565b34801561033f57600080fd5b506101b361034e36600461143b565b610d27565b34801561035f57600080fd5b506101b3610d34565b34801561037457600080fd5b5061037d610d44565b604051610197919061148b565b34801561039657600080fd5b506101b36103a536600461143b565b610eae565b3480156103b657600080fd5b506000546001600160a01b03165b6040516001600160a01b039091168152602001610197565b3480156103e857600080fd5b506103f260075481565b604051908152602001610197565b34801561040c57600080fd5b506101b361041b36600461150e565b610f02565b34801561042c57600080fd5b5061044c61043b366004611671565b63bc197c8160e01b95945050505050565b6040516001600160e01b03199091168152602001610197565b34801561047157600080fd5b506103f260045481565b34801561048757600080fd5b506002546103c49061010090046001600160a01b031681565b3480156104ac57600080fd5b506103f260035481565b3480156104c257600080fd5b506102946104d136600461143b565b600560208190526000918252604090912080546001820154600283015460038401546004850154949095015492946001600160a01b0390921693909260ff1686565b34801561051f57600080fd5b5061044c61052e36600461171b565b63f23a6e6160e01b95945050505050565b34801561054b57600080fd5b506101b361055a366004611470565b61112c565b60006001600160e01b03198216630271189760e51b148061059057506301ffc9a760e01b6001600160e01b03198316145b92915050565b61059e6111a2565b6105a66111fb565b600081815260056020526040902060018101546001600160a01b031661060c5760405162461bcd60e51b8152602060048201526016602482015275131a5cdd1a5b99c8191bd95cc81b9bdd08195e1a5cdd60521b60448201526064015b60405180910390fd5b600581015460ff166106535760405162461bcd60e51b815260206004820152601060248201526f496e616374697665206c697374696e6760801b6044820152606401610603565b806004015434146106985760405162461bcd60e51b815260206004820152600f60248201526e496e636f727265637420707269636560881b6044820152606401610603565b60006064600354346106aa9190611796565b6106b491906117c3565b905080600460008282546106c891906117d7565b9091555050600080546040516001600160a01b039091169183156108fc02918491818181858888f19350505050158015610706573d6000803e3d6000fd5b50600182015460048301546001600160a01b03909116906108fc9061072c9084906117ea565b6040518115909202916000818181858888f19350505050158015610754573d6000803e3d6000fd5b5060028054908301546003840154604051637921219560e11b81526101009093046001600160a01b03169263f242432a92610797923092339291906004016117fd565b600060405180830381600087803b1580156107b157600080fd5b505af11580156107c5573d6000803e3d6000fd5b50505060058301805460ff191690555060405183907fd2c26bd2d67a46bf4538eeac1c4c99a4ed72c0db5072804c3e656e12fff35d9190610823906020808252600990820152681c1d5c98da185cd95960ba1b604082015260600190565b60405180910390a2505061083660018055565b50565b610841611241565b604051339082156108fc029083906000818181858888f1935050505015801561086e573d6000803e3d6000fd5b5050565b61087a6111fb565b600081815260056020526040902060018101546001600160a01b03166108db5760405162461bcd60e51b8152602060048201526016602482015275131a5cdd1a5b99c8191bd95cc81b9bdd08195e1a5cdd60521b6044820152606401610603565b60018101546001600160a01b031633146109245760405162461bcd60e51b815260206004820152600a6024820152692737ba1039b2b63632b960b11b6044820152606401610603565b600581015460ff1661096b5760405162461bcd60e51b815260206004820152601060248201526f416c726561647920696e61637469766560801b6044820152606401610603565b60058101805460ff1916905560405182907fd2c26bd2d67a46bf4538eeac1c4c99a4ed72c0db5072804c3e656e12fff35d91906109c59060208082526009908201526818d85b98d95b1b195960ba1b604082015260600190565b60405180910390a25050565b6109d9611241565b6109e161129b565b565b6109eb6111fb565b6007543414610a3c5760405162461bcd60e51b815260206004820152601a60248201527f496e636f72726563742076616c756520666f722062756e646c650000000000006044820152606401610603565b60408051600580825260c082019092526000916020820160a080368337505060408051600580825260c0820190925292935060009291506020820160a08036833701905050905060005b6005811015610b2957604080514260208201526bffffffffffffffffffffffff193360601b169181019190915260548101829052612710906074016040516020818303038152906040528051906020012060001c610ae49190611835565b838281518110610af657610af6611849565b6020026020010181815250506001828281518110610b1657610b16611849565b6020908102919091010152600101610a86565b5060025460405163d81d0a1560e01b81526101009091046001600160a01b03169063d81d0a1590610b629033908690869060040161189b565b600060405180830381600087803b158015610b7c57600080fd5b505af1158015610b90573d6000803e3d6000fd5b50505050336001600160a01b03167f2b4ebc224819d6a442e194746a6afefca1c9c36b6fc73dd54e4c1460337103ef83836007546040516109c5939291906118db565b610bdb611241565b6109e160006112ed565b610bed611241565b600280546001600160a01b0390921661010002610100600160a81b0319909216919091179055565b610c1d6111fb565b6007543414610c6e5760405162461bcd60e51b815260206004820152601e60248201527f496e636f72726563742076616c756520666f722073696e676c65204e465400006044820152606401610603565b600254604051630ab714fb60e11b815233600482015260248101839052600160448201526101009091046001600160a01b03169063156e29f690606401600060405180830381600087803b158015610cc557600080fd5b505af1158015610cd9573d6000803e3d6000fd5b50506007546040805185815260016020820152908101919091523392507f3ad43782c18e44bb39991036fe365f588f135dc86ae448c9843e80613ae0d016915060600160405180910390a250565b610d2f611241565b600755565b610d3c611241565b6109e161133d565b60606000610d5061137a565b905060008167ffffffffffffffff811115610d6d57610d6d61153a565b604051908082528060200260200182016040528015610de257816020015b610dcf6040518060c001604052806000815260200160006001600160a01b031681526020016000815260200160008152602001600081526020016000151581525090565b815260200190600190039081610d8b5790505b509050600060015b600654811015610ea5576000818152600560208190526040909120015460ff1615610e9d57600081815260056020818152604092839020835160c0810185528154815260018201546001600160a01b031692810192909252600281015493820193909352600383015460608201526004830154608082015291015460ff16151560a08201528351849084908110610e8357610e83611849565b60200260200101819052508180610e9990611911565b9250505b600101610dea565b50909392505050565b610eb6611241565b6064811115610efd5760405162461bcd60e51b81526020600482015260136024820152720a0cae4c6cadce8c2ceca40e8dede40d0d2ced606b1b6044820152606401610603565b600355565b610f0a6111fb565b600254604051627eeac760e11b815233600482015260248101859052839161010090046001600160a01b03169062fdd58e90604401602060405180830381865afa158015610f5c573d6000803e3d6000fd5b505050506040513d601f19601f82011682018060405250810190610f80919061192a565b1015610fc55760405162461bcd60e51b8152602060048201526014602482015273496e73756666696369656e742062616c616e636560601b6044820152606401610603565b600254604051637921219560e11b81526101009091046001600160a01b03169063f242432a90610fff9033903090889088906004016117fd565b600060405180830381600087803b15801561101957600080fd5b505af115801561102d573d6000803e3d6000fd5b50506040805160c081018252600680548083523360208085019182528486018b815260608087018c8152608088018c8152600160a08a0181815260009889526005808852988c90209a518b559651908a0180546001600160a01b0319166001600160a01b039092169190911790559251600289015551600388015590516004870155915194909201805460ff1916941515949094179093558154845182815291820192909252651b1a5cdd195960d21b9381019390935293507fd2c26bd2d67a46bf4538eeac1c4c99a4ed72c0db5072804c3e656e12fff35d9192500160405180910390a26006805490600061112283611911565b9190505550505050565b611134611241565b6001600160a01b0381166111995760405162461bcd60e51b815260206004820152602660248201527f4f776e61626c653a206e6577206f776e657220697320746865207a65726f206160448201526564647265737360d01b6064820152608401610603565b610836816112ed565b6002600154036111f45760405162461bcd60e51b815260206004820152601f60248201527f5265656e7472616e637947756172643a207265656e7472616e742063616c6c006044820152606401610603565b6002600155565b60025460ff16156109e15760405162461bcd60e51b815260206004820152601060248201526f14185d5cd8589b194e881c185d5cd95960821b6044820152606401610603565b6000546001600160a01b031633146109e15760405162461bcd60e51b815260206004820181905260248201527f4f776e61626c653a2063616c6c6572206973206e6f7420746865206f776e65726044820152606401610603565b6112a36113c1565b6002805460ff191690557f5db9ee0a495bf2e6ff9c91a7834c1ba4fdd244a5e8aa4e537bd38aeae4b073aa335b6040516001600160a01b03909116815260200160405180910390a1565b600080546001600160a01b038381166001600160a01b0319831681178455604051919092169283917f8be0079c531659141344cd1fd0a4f28419497f9722a3daafe3b4186f6b6457e09190a35050565b6113456111fb565b6002805460ff191660011790557f62e78cea01bee320cd4e420270b5ea74000d11b0c9f74754ebdbfc544b05a2586112d03390565b60008060015b6006548110156113bb576000818152600560208190526040909120015460ff16156113b357816113af81611911565b9250505b600101611380565b50919050565b60025460ff166109e15760405162461bcd60e51b815260206004820152601460248201527314185d5cd8589b194e881b9bdd081c185d5cd95960621b6044820152606401610603565b60006020828403121561141c57600080fd5b81356001600160e01b03198116811461143457600080fd5b9392505050565b60006020828403121561144d57600080fd5b5035919050565b80356001600160a01b038116811461146b57600080fd5b919050565b60006020828403121561148257600080fd5b61143482611454565b602080825282518282018190526000919060409081850190868401855b8281101561150157815180518552868101516001600160a01b0316878601528581015186860152606080820151908601526080808201519086015260a09081015115159085015260c090930192908501906001016114a8565b5091979650505050505050565b60008060006060848603121561152357600080fd5b505081359360208301359350604090920135919050565b634e487b7160e01b600052604160045260246000fd5b604051601f8201601f1916810167ffffffffffffffff811182821017156115795761157961153a565b604052919050565b600082601f83011261159257600080fd5b8135602067ffffffffffffffff8211156115ae576115ae61153a565b8160051b6115bd828201611550565b92835284810182019282810190878511156115d757600080fd5b83870192505b848310156115f6578235825291830191908301906115dd565b979650505050505050565b600082601f83011261161257600080fd5b813567ffffffffffffffff81111561162c5761162c61153a565b61163f601f8201601f1916602001611550565b81815284602083860101111561165457600080fd5b816020850160208301376000918101602001919091529392505050565b600080600080600060a0868803121561168957600080fd5b61169286611454565b94506116a060208701611454565b9350604086013567ffffffffffffffff808211156116bd57600080fd5b6116c989838a01611581565b945060608801359150808211156116df57600080fd5b6116eb89838a01611581565b9350608088013591508082111561170157600080fd5b5061170e88828901611601565b9150509295509295909350565b600080600080600060a0868803121561173357600080fd5b61173c86611454565b945061174a60208701611454565b93506040860135925060608601359150608086013567ffffffffffffffff81111561177457600080fd5b61170e88828901611601565b634e487b7160e01b600052601160045260246000fd5b808202811582820484141761059057610590611780565b634e487b7160e01b600052601260045260246000fd5b6000826117d2576117d26117ad565b500490565b8082018082111561059057610590611780565b8181038181111561059057610590611780565b6001600160a01b0394851681529290931660208301526040820152606081019190915260a06080820181905260009082015260c00190565b600082611844576118446117ad565b500690565b634e487b7160e01b600052603260045260246000fd5b60008151808452602080850194506020840160005b8381101561189057815187529582019590820190600101611874565b509495945050505050565b6001600160a01b03841681526060602082018190526000906118bf9083018561185f565b82810360408401526118d1818561185f565b9695505050505050565b6060815260006118ee606083018661185f565b8281036020840152611900818661185f565b915050826040830152949350505050565b60006001820161192357611923611780565b5060010190565b60006020828403121561193c57600080fd5b505191905056fea26469706673582212201d9704cf5de2d314519e7fc017d545993b82032ecdd1ddd1685efcd794eff5a964736f6c63430008170033",
  "linkReferences": {},
  "deployedLinkReferences": {}
}