{
  "_format": "hh-sol-artifact-1",
  "contractName": "ArtNFT",
  "sourceName": "contracts/ArtNFT.sol",
  "abi": [
    {
      "inputs": [],
      "stateMutability": "nonpayable",
      "type": "constructor"
    },
    {
      "anonymous": false,
      "inputs": [
        {
          "indexed": true,
          "internalType": "address",
          "name": "owner",
          "type": "address"
        },
        {
          "indexed": true,
          "internalType": "address",
          "name": "approved",
          "type": "address"
        },
        {
          "indexed": true,
          "internalType": "uint256",
          "name": "tokenId",
          "type": "uint256"
        }
      ],
      "name": "Approval",
      "type": "event"
    },
    {
      "anonymous": false,
      "inputs": [
        {
          "indexed": true,
          "internalType": "address",
          "name": "owner",
          "type": "address"
        },
        {
          "indexed": true,
          "internalType": "address",
          "name": "operator",
          "type": "address"
        },
        {
          "indexed": false,
          "internalType": "bool",
          "name": "approved",
          "type": "bool"
        }
      ],
      "name": "ApprovalForAll",
      "type": "event"
    },
    {
      "anonymous": false,
      "inputs": [
        {
          "indexed": false,
          "internalType": "uint256",
          "name": "_fromTokenId",
          "type": "uint256"
        },
        {
          "indexed": false,
          "internalType": "uint256",
          "name": "_toTokenId",
          "type": "uint256"
        }
      ],
      "name": "BatchMetadataUpdate",
      "type": "event"
    },
    {
      "anonymous": false,
      "inputs": [
        {
          "indexed": false,
          "internalType": "uint256",
          "name": "_tokenId",
          "type": "uint256"
        }
      ],
      "name": "MetadataUpdate",
      "type": "event"
    },
    {
      "anonymous": false,
      "inputs": [
        {
          "indexed": true,
          "internalType": "address",
          "name": "previousOwner",
          "type": "address"
        },
        {
          "indexed": true,
          "internalType": "address",
          "name": "newOwner",
          "type": "address"
        }
      ],
      "name": "OwnershipTransferred",
      "type": "event"
    },
    {
      "anonymous": false,
      "inputs": [
        {
          "indexed": true,
          "internalType": "address",
          "name": "from",
          "type": "address"
        },
        {
          "indexed": true,
          "internalType": "address",
          "name": "to",
          "type": "address"
        },
        {
          "indexed": true,
          "internalType": "uint256",
          "name": "tokenId",
          "type": "uint256"
        }
      ],
      "name": "Transfer",
      "type": "event"
    },
    {
      "inputs": [
        {
          "internalType": "address",
          "name": "to",
          "type": "address"
        },
        {
          "internalType": "uint256",
          "name": "tokenId",
          "type": "uint256"
        }
      ],
      "name": "approve",
      "outputs": [],
      "stateMutability": "nonpayable",
      "type": "function"
    },
    {
      "inputs": [
        {
          "internalType": "address",
          "name": "owner",
          "type": "address"
        }
      ],
      "name": "balanceOf",
      "outputs": [
        {
          "internalType": "uint256",
          "name": "",
          "type": "uint256"
        }
      ],
      "stateMutability": "view",
      "type": "function"
    },
    {
      "inputs": [
        {
          "internalType": "uint256",
          "name": "tokenId",
          "type": "uint256"
        }
      ],
      "name": "burn",
      "outputs": [],
      "stateMutability": "nonpayable",
      "type": "function"
    },
    {
      "inputs": [
        {
          "internalType": "uint256",
          "name": "tokenId",
          "type": "uint256"
        }
      ],
      "name": "getApproved",
      "outputs": [
        {
          "internalType": "address",
          "name": "",
          "type": "address"
        }
      ],
      "stateMutability": "view",
      "type": "function"
    },
    {
      "inputs": [
        {
          "internalType": "address",
          "name": "owner",
          "type": "address"
        },
        {
          "internalType": "address",
          "name": "operator",
          "type": "address"
        }
      ],
      "name": "isApprovedForAll",
      "outputs": [
        {
          "internalType": "bool",
          "name": "",
          "type": "bool"
        }
      ],
      "stateMutability": "view",
      "type": "function"
    },
    {
      "inputs": [],
      "name": "name",
      "outputs": [
        {
          "internalType": "string",
          "name": "",
          "type": "string"
        }
      ],
      "stateMutability": "view",
      "type": "function"
    },
    {
      "inputs": [],
      "name": "owner",
      "outputs": [
        {
          "internalType": "address",
          "name": "",
          "type": "address"
        }
      ],
      "stateMutability": "view",
      "type": "function"
    },
    {
      "inputs": [
        {
          "internalType": "uint256",
          "name": "tokenId",
          "type": "uint256"
        }
      ],
      "name": "ownerOf",
      "outputs": [
        {
          "internalType": "address",
          "name": "",
          "type": "address"
        }
      ],
      "stateMutability": "view",
      "type": "function"
    },
    {
      "inputs": [],
      "name": "renounceOwnership",
      "outputs": [],
      "stateMutability": "nonpayable",
      "type": "function"
    },
    {
      "inputs": [
        {
          "internalType": "address",
          "name": "to",
          "type": "address"
        },
        {
          "internalType": "uint256",
          "name": "tokenId",
          "type": "uint256"
        },
        {
          "internalType": "string",
          "name": "uri",
          "type": "string"
        }
      ],
      "name": "safeMint",
      "outputs": [],
      "stateMutability": "nonpayable",
      "type": "function"
    },
    {
      "inputs": [
        {
          "internalType": "address",
          "name": "from",
          "type": "address"
        },
        {
          "internalType": "address",
          "name": "to",
          "type": "address"
        },
        {
          "internalType": "uint256",
          "name": "tokenId",
          "type": "uint256"
        }
      ],
      "name": "safeTransferFrom",
      "outputs": [],
      "stateMutability": "nonpayable",
      "type": "function"
    },
    {
      "inputs": [
        {
          "internalType": "address",
          "name": "from",
          "type": "address"
        },
        {
          "internalType": "address",
          "name": "to",
          "type": "address"
        },
        {
          "internalType": "uint256",
          "name": "tokenId",
          "type": "uint256"
        },
        {
          "internalType": "bytes",
          "name": "data",
          "type": "bytes"
        }
      ],
      "name": "safeTransferFrom",
      "outputs": [],
      "stateMutability": "nonpayable",
      "type": "function"
    },
    {
      "inputs": [
        {
          "internalType": "address",
          "name": "operator",
          "type": "address"
        },
        {
          "internalType": "bool",
          "name": "approved",
          "type": "bool"
        }
      ],
      "name": "setApprovalForAll",
      "outputs": [],
      "stateMutability": "nonpayable",
      "type": "function"
    },
    {
      "inputs": [
        {
          "internalType": "bytes4",
          "name": "interfaceId",
          "type": "bytes4"
        }
      ],
      "name": "supportsInterface",
      "outputs": [
        {
          "internalType": "bool",
          "name": "",
          "type": "bool"
        }
      ],
      "stateMutability": "view",
      "type": "function"
    },
    {
      "inputs": [],
      "name": "symbol",
      "outputs": [
        {
          "internalType": "string",
          "name": "",
          "type": "string"
        }
      ],
      "stateMutability": "view",
      "type": "function"
    },
    {
      "inputs": [
        {
          "internalType": "uint256",
          "name": "tokenId",
          "type": "uint256"
        }
      ],
      "name": "tokenURI",
      "outputs": [
        {
          "internalType": "string",
          "name": "",
          "type": "string"
        }
      ],
      "stateMutability": "view",
      "type": "function"
    },
    {
      "inputs": [
        {
          "internalType": "address",
          "name": "from",
          "type": "address"
        },
        {
          "internalType": "address",
          "name": "to",
          "type": "address"
        },
        {
          "internalType": "uint256",
          "name": "tokenId",
          "type": "uint256"
        }
      ],
      "name": "transferFrom",
      "outputs": [],
      "stateMutability": "nonpayable",
      "type": "function"
    },
    {
      "inputs": [
        {
          "internalType": "address",
          "name": "newOwner",
          "type": "address"
        }
      ],
      "name": "transferOwnership",
      "outputs": [],
      "stateMutability": "nonpayable",
      "type": "function"
    }
  ],
  "bytecode": "0x60806040523480156200001157600080fd5b5060405180604001604052806006815260200165105c9d13919560d21b8152506040518060400160405280600381526020016210549560ea1b81525081600090816200005e91906200018b565b5060016200006d82826200018b565b5050506200008a620000846200009060201b60201c565b62000094565b62000257565b3390565b600780546001600160a01b038381166001600160a01b0319831681179093556040519116919082907f8be0079c531659141344cd1fd0a4f28419497f9722a3daafe3b4186f6b6457e090600090a35050565b634e487b7160e01b600052604160045260246000fd5b600181811c908216806200011157607f821691505b6020821081036200013257634e487b7160e01b600052602260045260246000fd5b50919050565b601f8211156200018657600081815260208120601f850160051c81016020861015620001615750805b601f850160051c820191505b8181101562000182578281556001016200016d565b5050505b505050565b81516001600160401b03811115620001a757620001a7620000e6565b620001bf81620001b88454620000fc565b8462000138565b602080601f831160018114620001f75760008415620001de5750858301515b600019600386901b1c1916600185901b17855562000182565b600085815260208120601f198616915b82811015620002285788860151825594840194600190910190840162000207565b5085821015620002475787850151600019600388901b60f8161c191681555b5050505050600190811b01905550565b6119ba80620002676000396000f3fe608060405234801561001057600080fd5b50600436106101165760003560e01c8063715018a6116100a2578063b88d4fde11610071578063b88d4fde14610239578063c87b56dd1461024c578063cd279c7c1461025f578063e985e9c514610272578063f2fde38b146102ae57600080fd5b8063715018a6146102055780638da5cb5b1461020d57806395d89b411461021e578063a22cb4651461022657600080fd5b806323b872dd116100e957806323b872dd1461019857806342842e0e146101ab57806342966c68146101be5780636352211e146101d157806370a08231146101e457600080fd5b806301ffc9a71461011b57806306fdde0314610143578063081812fc14610158578063095ea7b314610183575b600080fd5b61012e6101293660046113b7565b6102c1565b60405190151581526020015b60405180910390f35b61014b6102d2565b60405161013a9190611424565b61016b610166366004611437565b610364565b6040516001600160a01b03909116815260200161013a565b61019661019136600461146c565b61038b565b005b6101966101a6366004611496565b6104a5565b6101966101b9366004611496565b6104d7565b6101966101cc366004611437565b6104f2565b61016b6101df366004611437565b610523565b6101f76101f23660046114d2565b610583565b60405190815260200161013a565b610196610609565b6007546001600160a01b031661016b565b61014b61061d565b6101966102343660046114ed565b61062c565b6101966102473660046115b5565b61063b565b61014b61025a366004611437565b610673565b61019661026d366004611631565b61067e565b61012e61028036600461169c565b6001600160a01b03918216600090815260056020908152604080832093909416825291909152205460ff1690565b6101966102bc3660046114d2565b61069a565b60006102cc82610710565b92915050565b6060600080546102e1906116cf565b80601f016020809104026020016040519081016040528092919081815260200182805461030d906116cf565b801561035a5780601f1061032f5761010080835404028352916020019161035a565b820191906000526020600020905b81548152906001019060200180831161033d57829003601f168201915b5050505050905090565b600061036f82610735565b506000908152600460205260409020546001600160a01b031690565b600061039682610523565b9050806001600160a01b0316836001600160a01b0316036104085760405162461bcd60e51b815260206004820152602160248201527f4552433732313a20617070726f76616c20746f2063757272656e74206f776e656044820152603960f91b60648201526084015b60405180910390fd5b336001600160a01b038216148061042457506104248133610280565b6104965760405162461bcd60e51b815260206004820152603d60248201527f4552433732313a20617070726f76652063616c6c6572206973206e6f7420746f60448201527f6b656e206f776e6572206f7220617070726f76656420666f7220616c6c00000060648201526084016103ff565b6104a08383610794565b505050565b6104b0335b82610802565b6104cc5760405162461bcd60e51b81526004016103ff90611709565b6104a0838383610881565b6104a08383836040518060200160405280600081525061063b565b6104fb336104aa565b6105175760405162461bcd60e51b81526004016103ff90611709565b610520816109e5565b50565b6000818152600260205260408120546001600160a01b0316806102cc5760405162461bcd60e51b8152602060048201526018602482015277115490cdcc8c4e881a5b9d985b1a59081d1bdad95b88125160421b60448201526064016103ff565b60006001600160a01b0382166105ed5760405162461bcd60e51b815260206004820152602960248201527f4552433732313a2061646472657373207a65726f206973206e6f7420612076616044820152683634b21037bbb732b960b91b60648201526084016103ff565b506001600160a01b031660009081526003602052604090205490565b6106116109f6565b61061b6000610a50565b565b6060600180546102e1906116cf565b610637338383610aa2565b5050565b6106453383610802565b6106615760405162461bcd60e51b81526004016103ff90611709565b61066d84848484610b70565b50505050565b60606102cc82610ba3565b6106866109f6565b6106908383610cab565b6104a08282610cc5565b6106a26109f6565b6001600160a01b0381166107075760405162461bcd60e51b815260206004820152602660248201527f4f776e61626c653a206e6577206f776e657220697320746865207a65726f206160448201526564647265737360d01b60648201526084016103ff565b61052081610a50565b60006001600160e01b03198216632483248360e11b14806102cc57506102cc82610d90565b6000818152600260205260409020546001600160a01b03166105205760405162461bcd60e51b8152602060048201526018602482015277115490cdcc8c4e881a5b9d985b1a59081d1bdad95b88125160421b60448201526064016103ff565b600081815260046020526040902080546001600160a01b0319166001600160a01b03841690811790915581906107c982610523565b6001600160a01b03167f8c5be1e5ebec7d5bd14f71427d1e84f3dd0314c0f7b2291e5b200ac8c7c3b92560405160405180910390a45050565b60008061080e83610523565b9050806001600160a01b0316846001600160a01b0316148061085557506001600160a01b0380821660009081526005602090815260408083209388168352929052205460ff165b806108795750836001600160a01b031661086e84610364565b6001600160a01b0316145b949350505050565b826001600160a01b031661089482610523565b6001600160a01b0316146108ba5760405162461bcd60e51b81526004016103ff90611756565b6001600160a01b03821661091c5760405162461bcd60e51b8152602060048201526024808201527f4552433732313a207472616e7366657220746f20746865207a65726f206164646044820152637265737360e01b60648201526084016103ff565b826001600160a01b031661092f82610523565b6001600160a01b0316146109555760405162461bcd60e51b81526004016103ff90611756565b600081815260046020908152604080832080546001600160a01b03199081169091556001600160a01b0387811680865260038552838620805460001901905590871680865283862080546001019055868652600290945282852080549092168417909155905184937fddf252ad1be2c89b69c2b068fc378daa952ba7f163c4a11628f55a4df523b3ef91a4505050565b6109ed6109f6565b61052081610de0565b6007546001600160a01b0316331461061b5760405162461bcd60e51b815260206004820181905260248201527f4f776e61626c653a2063616c6c6572206973206e6f7420746865206f776e657260448201526064016103ff565b600780546001600160a01b038381166001600160a01b0319831681179093556040519116919082907f8be0079c531659141344cd1fd0a4f28419497f9722a3daafe3b4186f6b6457e090600090a35050565b816001600160a01b0316836001600160a01b031603610b035760405162461bcd60e51b815260206004820152601960248201527f4552433732313a20617070726f766520746f2063616c6c65720000000000000060448201526064016103ff565b6001600160a01b03838116600081815260056020908152604080832094871680845294825291829020805460ff191686151590811790915591519182527f17307eab39ab6107e8899845ad3d59bd9653f200f220920489ca2b5937696c31910160405180910390a3505050565b610b7b848484610881565b610b8784848484610e20565b61066d5760405162461bcd60e51b81526004016103ff9061179b565b6060610bae82610735565b60008281526006602052604081208054610bc7906116cf565b80601f0160208091040260200160405190810160405280929190818152602001828054610bf3906116cf565b8015610c405780601f10610c1557610100808354040283529160200191610c40565b820191906000526020600020905b815481529060010190602001808311610c2357829003601f168201915b505050505090506000610c5e60408051602081019091526000815290565b90508051600003610c70575092915050565b815115610ca2578082604051602001610c8a9291906117ed565b60405160208183030381529060405292505050919050565b61087984610f21565b610637828260405180602001604052806000815250610f95565b6000828152600260205260409020546001600160a01b0316610d405760405162461bcd60e51b815260206004820152602e60248201527f45524337323155524953746f726167653a2055524920736574206f66206e6f6e60448201526d32bc34b9ba32b73a103a37b5b2b760911b60648201526084016103ff565b6000828152600660205260409020610d58828261186a565b506040518281527ff8e1a15aba9398e019f0b49df1a4fde98ee17ae345cb5f6b5e2c27f5033e8ce79060200160405180910390a15050565b60006001600160e01b031982166380ac58cd60e01b1480610dc157506001600160e01b03198216635b5e139f60e01b145b806102cc57506301ffc9a760e01b6001600160e01b03198316146102cc565b610de981610fc8565b60008181526006602052604090208054610e02906116cf565b15905061052057600081815260066020526040812061052091611353565b60006001600160a01b0384163b15610f1657604051630a85bd0160e11b81526001600160a01b0385169063150b7a0290610e6490339089908890889060040161192a565b6020604051808303816000875af1925050508015610e9f575060408051601f3d908101601f19168201909252610e9c91810190611967565b60015b610efc573d808015610ecd576040519150601f19603f3d011682016040523d82523d6000602084013e610ed2565b606091505b508051600003610ef45760405162461bcd60e51b81526004016103ff9061179b565b805181602001fd5b6001600160e01b031916630a85bd0160e11b149050610879565b506001949350505050565b6060610f2c82610735565b6000610f4360408051602081019091526000815290565b90506000815111610f635760405180602001604052806000815250610f8e565b80610f6d8461105d565b604051602001610f7e9291906117ed565b6040516020818303038152906040525b9392505050565b610f9f83836110f0565b610fac6000848484610e20565b6104a05760405162461bcd60e51b81526004016103ff9061179b565b6000610fd382610523565b9050610fde82610523565b600083815260046020908152604080832080546001600160a01b03199081169091556001600160a01b0385168085526003845282852080546000190190558785526002909352818420805490911690555192935084927fddf252ad1be2c89b69c2b068fc378daa952ba7f163c4a11628f55a4df523b3ef908390a45050565b6060600061106a8361127b565b600101905060008167ffffffffffffffff81111561108a5761108a611529565b6040519080825280601f01601f1916602001820160405280156110b4576020820181803683370190505b5090508181016020015b600019016f181899199a1a9b1b9c1cb0b131b232b360811b600a86061a8153600a85049450846110be57509392505050565b6001600160a01b0382166111465760405162461bcd60e51b815260206004820181905260248201527f4552433732313a206d696e7420746f20746865207a65726f206164647265737360448201526064016103ff565b6000818152600260205260409020546001600160a01b0316156111ab5760405162461bcd60e51b815260206004820152601c60248201527f4552433732313a20746f6b656e20616c7265616479206d696e7465640000000060448201526064016103ff565b6000818152600260205260409020546001600160a01b0316156112105760405162461bcd60e51b815260206004820152601c60248201527f4552433732313a20746f6b656e20616c7265616479206d696e7465640000000060448201526064016103ff565b6001600160a01b038216600081815260036020908152604080832080546001019055848352600290915280822080546001600160a01b0319168417905551839291907fddf252ad1be2c89b69c2b068fc378daa952ba7f163c4a11628f55a4df523b3ef908290a45050565b60008072184f03e93ff9f4daa797ed6e38ed64bf6a1f0160401b83106112ba5772184f03e93ff9f4daa797ed6e38ed64bf6a1f0160401b830492506040015b6d04ee2d6d415b85acef810000000083106112e6576d04ee2d6d415b85acef8100000000830492506020015b662386f26fc10000831061130457662386f26fc10000830492506010015b6305f5e100831061131c576305f5e100830492506008015b612710831061133057612710830492506004015b60648310611342576064830492506002015b600a83106102cc5760010192915050565b50805461135f906116cf565b6000825580601f1061136f575050565b601f01602090049060005260206000209081019061052091905b8082111561139d5760008155600101611389565b5090565b6001600160e01b03198116811461052057600080fd5b6000602082840312156113c957600080fd5b8135610f8e816113a1565b60005b838110156113ef5781810151838201526020016113d7565b50506000910152565b600081518084526114108160208601602086016113d4565b601f01601f19169290920160200192915050565b602081526000610f8e60208301846113f8565b60006020828403121561144957600080fd5b5035919050565b80356001600160a01b038116811461146757600080fd5b919050565b6000806040838503121561147f57600080fd5b61148883611450565b946020939093013593505050565b6000806000606084860312156114ab57600080fd5b6114b484611450565b92506114c260208501611450565b9150604084013590509250925092565b6000602082840312156114e457600080fd5b610f8e82611450565b6000806040838503121561150057600080fd5b61150983611450565b91506020830135801515811461151e57600080fd5b809150509250929050565b634e487b7160e01b600052604160045260246000fd5b600067ffffffffffffffff8084111561155a5761155a611529565b604051601f8501601f19908116603f0116810190828211818310171561158257611582611529565b8160405280935085815286868601111561159b57600080fd5b858560208301376000602087830101525050509392505050565b600080600080608085870312156115cb57600080fd5b6115d485611450565b93506115e260208601611450565b925060408501359150606085013567ffffffffffffffff81111561160557600080fd5b8501601f8101871361161657600080fd5b6116258782356020840161153f565b91505092959194509250565b60008060006060848603121561164657600080fd5b61164f84611450565b925060208401359150604084013567ffffffffffffffff81111561167257600080fd5b8401601f8101861361168357600080fd5b6116928682356020840161153f565b9150509250925092565b600080604083850312156116af57600080fd5b6116b883611450565b91506116c660208401611450565b90509250929050565b600181811c908216806116e357607f821691505b60208210810361170357634e487b7160e01b600052602260045260246000fd5b50919050565b6020808252602d908201527f4552433732313a2063616c6c6572206973206e6f7420746f6b656e206f776e6560408201526c1c881bdc88185c1c1c9bdd9959609a1b606082015260800190565b60208082526025908201527f4552433732313a207472616e736665722066726f6d20696e636f72726563742060408201526437bbb732b960d91b606082015260800190565b60208082526032908201527f4552433732313a207472616e7366657220746f206e6f6e20455243373231526560408201527131b2b4bb32b91034b6b83632b6b2b73a32b960711b606082015260800190565b600083516117ff8184602088016113d4565b8351908301906118138183602088016113d4565b01949350505050565b601f8211156104a057600081815260208120601f850160051c810160208610156118435750805b601f850160051c820191505b818110156118625782815560010161184f565b505050505050565b815167ffffffffffffffff81111561188457611884611529565b6118988161189284546116cf565b8461181c565b602080601f8311600181146118cd57600084156118b55750858301515b600019600386901b1c1916600185901b178555611862565b600085815260208120601f198616915b828110156118fc578886015182559484019460019091019084016118dd565b508582101561191a5787850151600019600388901b60f8161c191681555b5050505050600190811b01905550565b6001600160a01b038581168252841660208201526040810183905260806060820181905260009061195d908301846113f8565b9695505050505050565b60006020828403121561197957600080fd5b8151610f8e816113a156fea2646970667358221220eaa9b44302ac30e71c3dc037e8bbde29e4f89824ffbf86eb22bf664e06198a5064736f6c63430008150033",
  "linkReferences": {},
  "deployedLinkReferences": {}
}