{
  "_format": "hh-sol-artifact-1",
  "contractName": "SiliquaCoin",
  "sourceName": "contracts/SiliquaCoin.sol",
  "abi": [
    {
      "inputs": [
        {
          "internalType": "string",
          "name": "name",
          "type": "string"
        },
        {
          "internalType": "string",
          "name": "symbol",
          "type": "string"
        },
        {
          "internalType": "uint256",
          "name": "initialSupply",
          "type": "uint256"
        }
      ],
      "stateMutability": "nonpayable",
      "type": "constructor"
    },
    {
      "anonymous": false,
      "inputs": [
        {
          "indexed": true,
          "internalType": "address",
          "name": "owner",
          "type": "address"
        },
        {
          "indexed": true,
          "internalType": "address",
          "name": "spender",
          "type": "address"
        },
        {
          "indexed": false,
          "internalType": "uint256",
          "name": "value",
          "type": "uint256"
        }
      ],
      "name": "Approval",
      "type": "event"
    },
    {
      "anonymous": false,
      "inputs": [
        {
          "indexed": true,
          "internalType": "address",
          "name": "previousOwner",
          "type": "address"
        },
        {
          "indexed": true,
          "internalType": "address",
          "name": "newOwner",
          "type": "address"
        }
      ],
      "name": "OwnershipTransferred",
      "type": "event"
    },
    {
      "anonymous": false,
      "inputs": [
        {
          "indexed": true,
          "internalType": "address",
          "name": "buyer",
          "type": "address"
        },
        {
          "indexed": false,
          "internalType": "uint256",
          "name": "ethAmount",
          "type": "uint256"
        },
        {
          "indexed": false,
          "internalType": "uint256",
          "name": "tokenAmount",
          "type": "uint256"
        }
      ],
      "name": "TokensPurchased",
      "type": "event"
    },
    {
      "anonymous": false,
      "inputs": [
        {
          "indexed": true,
          "internalType": "address",
          "name": "from",
          "type": "address"
        },
        {
          "indexed": true,
          "internalType": "address",
          "name": "to",
          "type": "address"
        },
        {
          "indexed": false,
          "internalType": "uint256",
          "name": "value",
          "type": "uint256"
        }
      ],
      "name": "Transfer",
      "type": "event"
    },
    {
      "inputs": [],
      "name": "TOKEN_TO_ETH_RATE",
      "outputs": [
        {
          "internalType": "uint256",
          "name": "",
          "type": "uint256"
        }
      ],
      "stateMutability": "view",
      "type": "function"
    },
    {
      "inputs": [
        {
          "internalType": "address",
          "name": "owner",
          "type": "address"
        },
        {
          "internalType": "address",
          "name": "spender",
          "type": "address"
        }
      ],
      "name": "allowance",
      "outputs": [
        {
          "internalType": "uint256",
          "name": "",
          "type": "uint256"
        }
      ],
      "stateMutability": "view",
      "type": "function"
    },
    {
      "inputs": [
        {
          "internalType": "address",
          "name": "spender",
          "type": "address"
        },
        {
          "internalType": "uint256",
          "name": "amount",
          "type": "uint256"
        }
      ],
      "name": "approve",
      "outputs": [
        {
          "internalType": "bool",
          "name": "",
          "type": "bool"
        }
      ],
      "stateMutability": "nonpayable",
      "type": "function"
    },
    {
      "inputs": [
        {
          "internalType": "address",
          "name": "account",
          "type": "address"
        }
      ],
      "name": "balanceOf",
      "outputs": [
        {
          "internalType": "uint256",
          "name": "",
          "type": "uint256"
        }
      ],
      "stateMutability": "view",
      "type": "function"
    },
    {
      "inputs": [
        {
          "internalType": "uint256",
          "name": "amount",
          "type": "uint256"
        }
      ],
      "name": "burn",
      "outputs": [],
      "stateMutability": "nonpayable",
      "type": "function"
    },
    {
      "inputs": [
        {
          "internalType": "address",
          "name": "account",
          "type": "address"
        },
        {
          "internalType": "uint256",
          "name": "amount",
          "type": "uint256"
        }
      ],
      "name": "burnFrom",
      "outputs": [],
      "stateMutability": "nonpayable",
      "type": "function"
    },
    {
      "inputs": [],
      "name": "claimTokens",
      "outputs": [],
      "stateMutability": "nonpayable",
      "type": "function"
    },
    {
      "inputs": [],
      "name": "decimals",
      "outputs": [
        {
          "internalType": "uint8",
          "name": "",
          "type": "uint8"
        }
      ],
      "stateMutability": "view",
      "type": "function"
    },
    {
      "inputs": [
        {
          "internalType": "address",
          "name": "spender",
          "type": "address"
        },
        {
          "internalType": "uint256",
          "name": "subtractedValue",
          "type": "uint256"
        }
      ],
      "name": "decreaseAllowance",
      "outputs": [
        {
          "internalType": "bool",
          "name": "",
          "type": "bool"
        }
      ],
      "stateMutability": "nonpayable",
      "type": "function"
    },
    {
      "inputs": [
        {
          "internalType": "address",
          "name": "spender",
          "type": "address"
        },
        {
          "internalType": "uint256",
          "name": "addedValue",
          "type": "uint256"
        }
      ],
      "name": "increaseAllowance",
      "outputs": [
        {
          "internalType": "bool",
          "name": "",
          "type": "bool"
        }
      ],
      "stateMutability": "nonpayable",
      "type": "function"
    },
    {
      "inputs": [
        {
          "internalType": "address",
          "name": "",
          "type": "address"
        }
      ],
      "name": "lastClaimedTimestamp",
      "outputs": [
        {
          "internalType": "uint256",
          "name": "",
          "type": "uint256"
        }
      ],
      "stateMutability": "view",
      "type": "function"
    },
    {
      "inputs": [
        {
          "internalType": "address",
          "name": "to",
          "type": "address"
        },
        {
          "internalType": "uint256",
          "name": "amount",
          "type": "uint256"
        }
      ],
      "name": "mint",
      "outputs": [],
      "stateMutability": "nonpayable",
      "type": "function"
    },
    {
      "inputs": [],
      "name": "name",
      "outputs": [
        {
          "internalType": "string",
          "name": "",
          "type": "string"
        }
      ],
      "stateMutability": "view",
      "type": "function"
    },
    {
      "inputs": [],
      "name": "owner",
      "outputs": [
        {
          "internalType": "address",
          "name": "",
          "type": "address"
        }
      ],
      "stateMutability": "view",
      "type": "function"
    },
    {
      "inputs": [],
      "name": "renounceOwnership",
      "outputs": [],
      "stateMutability": "nonpayable",
      "type": "function"
    },
    {
      "inputs": [],
      "name": "symbol",
      "outputs": [
        {
          "internalType": "string",
          "name": "",
          "type": "string"
        }
      ],
      "stateMutability": "view",
      "type": "function"
    },
    {
      "inputs": [],
      "name": "totalSupply",
      "outputs": [
        {
          "internalType": "uint256",
          "name": "",
          "type": "uint256"
        }
      ],
      "stateMutability": "view",
      "type": "function"
    },
    {
      "inputs": [
        {
          "internalType": "address",
          "name": "to",
          "type": "address"
        },
        {
          "internalType": "uint256",
          "name": "amount",
          "type": "uint256"
        }
      ],
      "name": "transfer",
      "outputs": [
        {
          "internalType": "bool",
          "name": "",
          "type": "bool"
        }
      ],
      "stateMutability": "nonpayable",
      "type": "function"
    },
    {
      "inputs": [
        {
          "internalType": "address",
          "name": "from",
          "type": "address"
        },
        {
          "internalType": "address",
          "name": "to",
          "type": "address"
        },
        {
          "internalType": "uint256",
          "name": "amount",
          "type": "uint256"
        }
      ],
      "name": "transferFrom",
      "outputs": [
        {
          "internalType": "bool",
          "name": "",
          "type": "bool"
        }
      ],
      "stateMutability": "nonpayable",
      "type": "function"
    },
    {
      "inputs": [
        {
          "internalType": "address",
          "name": "newOwner",
          "type": "address"
        }
      ],
      "name": "transferOwnership",
      "outputs": [],
      "stateMutability": "nonpayable",
      "type": "function"
    },
    {
      "stateMutability": "payable",
      "type": "receive"
    }
  ],
  "bytecode": "0x60806040523480156200001157600080fd5b50604051620017e2380380620017e283398101604081905262000034916200026b565b828260036200004483826200036c565b5060046200005382826200036c565b505050620000706200006a6200008560201b60201c565b62000089565b6200007c3382620000db565b50505062000460565b3390565b600580546001600160a01b038381166001600160a01b0319831681179093556040519116919082907f8be0079c531659141344cd1fd0a4f28419497f9722a3daafe3b4186f6b6457e090600090a35050565b6001600160a01b038216620001365760405162461bcd60e51b815260206004820152601f60248201527f45524332303a206d696e7420746f20746865207a65726f206164647265737300604482015260640160405180910390fd5b80600260008282546200014a919062000438565b90915550506001600160a01b038216600081815260208181526040808320805486019055518481527fddf252ad1be2c89b69c2b068fc378daa952ba7f163c4a11628f55a4df523b3ef910160405180910390a35050565b505050565b634e487b7160e01b600052604160045260246000fd5b600082601f830112620001ce57600080fd5b81516001600160401b0380821115620001eb57620001eb620001a6565b604051601f8301601f19908116603f01168101908282118183101715620002165762000216620001a6565b816040528381526020925086838588010111156200023357600080fd5b600091505b8382101562000257578582018301518183018401529082019062000238565b600093810190920192909252949350505050565b6000806000606084860312156200028157600080fd5b83516001600160401b03808211156200029957600080fd5b620002a787838801620001bc565b94506020860151915080821115620002be57600080fd5b50620002cd86828701620001bc565b925050604084015190509250925092565b600181811c90821680620002f357607f821691505b6020821081036200031457634e487b7160e01b600052602260045260246000fd5b50919050565b601f821115620001a157600081815260208120601f850160051c81016020861015620003435750805b601f850160051c820191505b8181101562000364578281556001016200034f565b505050505050565b81516001600160401b03811115620003885762000388620001a6565b620003a081620003998454620002de565b846200031a565b602080601f831160018114620003d85760008415620003bf5750858301515b600019600386901b1c1916600185901b17855562000364565b600085815260208120601f198616915b828110156200040957888601518255948401946001909101908401620003e8565b5085821015620004285787850151600019600388901b60f8161c191681555b5050505050600190811b01905550565b808201808211156200045a57634e487b7160e01b600052601160045260246000fd5b92915050565b61137280620004706000396000f3fe6080604052600436106101235760003560e01c806348c54b9d116100a057806395d89b411161006457806395d89b4114610394578063a457c2d7146103a9578063a9059cbb146103c9578063dd62ed3e146103e9578063f2fde38b1461040957600080fd5b806348c54b9d146102ec57806370a0823114610301578063715018a61461033757806379cc67901461034c5780638da5cb5b1461036c57600080fd5b8063313ce567116100e7578063313ce56714610252578063375379f31461026e578063395093511461028a57806340c10f19146102aa57806342966c68146102cc57600080fd5b806302ee0efb1461018b57806306fdde03146101cb578063095ea7b3146101ed57806318160ddd1461021d57806323b872dd1461023257600080fd5b366101865734600061013d6706f05b59d3b2000083611060565b90506101493382610429565b604080518381526020810183905233917f8fafebcaf9d154343dad25669bfa277f4fbacd7ac6b0c4fed522580e040a0f33910160405180910390a2005b600080fd5b34801561019757600080fd5b506101b86101a6366004611093565b60066020526000908152604090205481565b6040519081526020015b60405180910390f35b3480156101d757600080fd5b506101e06104ee565b6040516101c291906110d9565b3480156101f957600080fd5b5061020d61020836600461110c565b610580565b60405190151581526020016101c2565b34801561022957600080fd5b506002546101b8565b34801561023e57600080fd5b5061020d61024d366004611136565b61059a565b34801561025e57600080fd5b50604051601281526020016101c2565b34801561027a57600080fd5b506101b86706f05b59d3b2000081565b34801561029657600080fd5b5061020d6102a536600461110c565b6105be565b3480156102b657600080fd5b506102ca6102c536600461110c565b6105e0565b005b3480156102d857600080fd5b506102ca6102e7366004611172565b6105f2565b3480156102f857600080fd5b506102ca6105ff565b34801561030d57600080fd5b506101b861031c366004611093565b6001600160a01b031660009081526020819052604090205490565b34801561034357600080fd5b506102ca61070c565b34801561035857600080fd5b506102ca61036736600461110c565b610720565b34801561037857600080fd5b506005546040516001600160a01b0390911681526020016101c2565b3480156103a057600080fd5b506101e0610735565b3480156103b557600080fd5b5061020d6103c436600461110c565b610744565b3480156103d557600080fd5b5061020d6103e436600461110c565b6107bf565b3480156103f557600080fd5b506101b861040436600461118b565b6107cd565b34801561041557600080fd5b506102ca610424366004611093565b6107f8565b6001600160a01b0382166104845760405162461bcd60e51b815260206004820152601f60248201527f45524332303a206d696e7420746f20746865207a65726f20616464726573730060448201526064015b60405180910390fd5b806002600082825461049691906111be565b90915550506001600160a01b038216600081815260208181526040808320805486019055518481527fddf252ad1be2c89b69c2b068fc378daa952ba7f163c4a11628f55a4df523b3ef910160405180910390a35b5050565b6060600380546104fd906111d1565b80601f0160208091040260200160405190810160405280929190818152602001828054610529906111d1565b80156105765780601f1061054b57610100808354040283529160200191610576565b820191906000526020600020905b81548152906001019060200180831161055957829003601f168201915b5050505050905090565b60003361058e818585610873565b60019150505b92915050565b6000336105a8858285610997565b6105b3858585610a11565b506001949350505050565b60003361058e8185856105d183836107cd565b6105db91906111be565b610873565b6105e8610bb5565b6104ea8282610429565b6105fc3382610c0f565b50565b600061060d6012600a6112ef565b610618906064611060565b336000908152600660205260409020549091506201518090429061063d9083906111be565b11156106955760405162461bcd60e51b815260206004820152602160248201527f596f752063616e20636c61696d20746f6b656e73206f6e6365207065722064616044820152607960f81b606482015260840161047b565b306000908152602081905260409020548211156106eb5760405162461bcd60e51b8152602060048201526014602482015273466175636574206f7574206f6620746f6b656e7360601b604482015260640161047b565b6106f6303384610d41565b5050336000908152600660205260409020429055565b610714610bb5565b61071e6000610d93565b565b61072b823383610997565b6104ea8282610c0f565b6060600480546104fd906111d1565b6000338161075282866107cd565b9050838110156107b25760405162461bcd60e51b815260206004820152602560248201527f45524332303a2064656372656173656420616c6c6f77616e63652062656c6f77604482015264207a65726f60d81b606482015260840161047b565b6105b38286868403610873565b60003361058e818585610a11565b6001600160a01b03918216600090815260016020908152604080832093909416825291909152205490565b610800610bb5565b6001600160a01b0381166108655760405162461bcd60e51b815260206004820152602660248201527f4f776e61626c653a206e6577206f776e657220697320746865207a65726f206160448201526564647265737360d01b606482015260840161047b565b6105fc81610d93565b505050565b6001600160a01b0383166108d55760405162461bcd60e51b8152602060048201526024808201527f45524332303a20617070726f76652066726f6d20746865207a65726f206164646044820152637265737360e01b606482015260840161047b565b6001600160a01b0382166109365760405162461bcd60e51b815260206004820152602260248201527f45524332303a20617070726f766520746f20746865207a65726f206164647265604482015261737360f01b606482015260840161047b565b6001600160a01b0383811660008181526001602090815260408083209487168084529482529182902085905590518481527f8c5be1e5ebec7d5bd14f71427d1e84f3dd0314c0f7b2291e5b200ac8c7c3b925910160405180910390a3505050565b60006109a384846107cd565b90506000198114610a0b57818110156109fe5760405162461bcd60e51b815260206004820152601d60248201527f45524332303a20696e73756666696369656e7420616c6c6f77616e6365000000604482015260640161047b565b610a0b8484848403610873565b50505050565b6001600160a01b038316610a755760405162461bcd60e51b815260206004820152602560248201527f45524332303a207472616e736665722066726f6d20746865207a65726f206164604482015264647265737360d81b606482015260840161047b565b6001600160a01b038216610ad75760405162461bcd60e51b815260206004820152602360248201527f45524332303a207472616e7366657220746f20746865207a65726f206164647260448201526265737360e81b606482015260840161047b565b6001600160a01b03831660009081526020819052604090205481811015610b4f5760405162461bcd60e51b815260206004820152602660248201527f45524332303a207472616e7366657220616d6f756e7420657863656564732062604482015265616c616e636560d01b606482015260840161047b565b6001600160a01b03848116600081815260208181526040808320878703905593871680835291849020805487019055925185815290927fddf252ad1be2c89b69c2b068fc378daa952ba7f163c4a11628f55a4df523b3ef910160405180910390a3610a0b565b6005546001600160a01b0316331461071e5760405162461bcd60e51b815260206004820181905260248201527f4f776e61626c653a2063616c6c6572206973206e6f7420746865206f776e6572604482015260640161047b565b6001600160a01b038216610c6f5760405162461bcd60e51b815260206004820152602160248201527f45524332303a206275726e2066726f6d20746865207a65726f206164647265736044820152607360f81b606482015260840161047b565b6001600160a01b03821660009081526020819052604090205481811015610ce35760405162461bcd60e51b815260206004820152602260248201527f45524332303a206275726e20616d6f756e7420657863656564732062616c616e604482015261636560f01b606482015260840161047b565b6001600160a01b0383166000818152602081815260408083208686039055600280548790039055518581529192917fddf252ad1be2c89b69c2b068fc378daa952ba7f163c4a11628f55a4df523b3ef910160405180910390a3505050565b604080516001600160a01b038416602482015260448082018490528251808303909101815260649091019091526020810180516001600160e01b031663a9059cbb60e01b17905261086e908490610de5565b600580546001600160a01b038381166001600160a01b0319831681179093556040519116919082907f8be0079c531659141344cd1fd0a4f28419497f9722a3daafe3b4186f6b6457e090600090a35050565b6000610e3a826040518060400160405280602081526020017f5361666545524332303a206c6f772d6c6576656c2063616c6c206661696c6564815250856001600160a01b0316610eba9092919063ffffffff16565b9050805160001480610e5b575080806020019051810190610e5b91906112fe565b61086e5760405162461bcd60e51b815260206004820152602a60248201527f5361666545524332303a204552433230206f7065726174696f6e20646964206e6044820152691bdd081cdd58d8d9595960b21b606482015260840161047b565b6060610ec98484600085610ed1565b949350505050565b606082471015610f325760405162461bcd60e51b815260206004820152602660248201527f416464726573733a20696e73756666696369656e742062616c616e636520666f6044820152651c8818d85b1b60d21b606482015260840161047b565b600080866001600160a01b03168587604051610f4e9190611320565b60006040518083038185875af1925050503d8060008114610f8b576040519150601f19603f3d011682016040523d82523d6000602084013e610f90565b606091505b5091509150610fa187838387610fac565b979650505050505050565b6060831561101b578251600003611014576001600160a01b0385163b6110145760405162461bcd60e51b815260206004820152601d60248201527f416464726573733a2063616c6c20746f206e6f6e2d636f6e7472616374000000604482015260640161047b565b5081610ec9565b610ec983838151156110305781518083602001fd5b8060405162461bcd60e51b815260040161047b91906110d9565b634e487b7160e01b600052601160045260246000fd5b80820281158282048414176105945761059461104a565b80356001600160a01b038116811461108e57600080fd5b919050565b6000602082840312156110a557600080fd5b6110ae82611077565b9392505050565b60005b838110156110d05781810151838201526020016110b8565b50506000910152565b60208152600082518060208401526110f88160408501602087016110b5565b601f01601f19169190910160400192915050565b6000806040838503121561111f57600080fd5b61112883611077565b946020939093013593505050565b60008060006060848603121561114b57600080fd5b61115484611077565b925061116260208501611077565b9150604084013590509250925092565b60006020828403121561118457600080fd5b5035919050565b6000806040838503121561119e57600080fd5b6111a783611077565b91506111b560208401611077565b90509250929050565b808201808211156105945761059461104a565b600181811c908216806111e557607f821691505b60208210810361120557634e487b7160e01b600052602260045260246000fd5b50919050565b600181815b8085111561124657816000190482111561122c5761122c61104a565b8085161561123957918102915b93841c9390800290611210565b509250929050565b60008261125d57506001610594565b8161126a57506000610594565b8160018114611280576002811461128a576112a6565b6001915050610594565b60ff84111561129b5761129b61104a565b50506001821b610594565b5060208310610133831016604e8410600b84101617156112c9575081810a610594565b6112d3838361120b565b80600019048211156112e7576112e761104a565b029392505050565b60006110ae60ff84168361124e565b60006020828403121561131057600080fd5b815180151581146110ae57600080fd5b600082516113328184602087016110b5565b919091019291505056fea2646970667358221220ee1037b59f5a6d38afe9a39a3057990ce7563584688d797dffb1e5734e192edc64736f6c63430008150033",
  "linkReferences": {},
  "deployedLinkReferences": {}
}