{
  "_format": "hh-sol-artifact-1",
  "contractName": "NFTMarketplace",
  "sourceName": "contracts/NFTMarketplace.sol",
  "abi": [
    {
      "inputs": [
        {
          "internalType": "address",
          "name": "_nftContractAddress",
          "type": "address"
        },
        {
          "internalType": "address",
          "name": "_siliquaCoinContractAddress",
          "type": "address"
        },
        {
          "internalType": "uint256",
          "name": "_commissionPercentage",
          "type": "uint256"
        }
      ],
      "stateMutability": "nonpayable",
      "type": "constructor"
    },
    {
      "anonymous": false,
      "inputs": [
        {
          "indexed": true,
          "internalType": "uint256",
          "name": "listingId",
          "type": "uint256"
        },
        {
          "indexed": true,
          "internalType": "address",
          "name": "seller",
          "type": "address"
        },
        {
          "indexed": true,
          "internalType": "uint256",
          "name": "tokenId",
          "type": "uint256"
        },
        {
          "indexed": false,
          "internalType": "uint256",
          "name": "amount",
          "type": "uint256"
        },
        {
          "indexed": false,
          "internalType": "uint256",
          "name": "price",
          "type": "uint256"
        },
        {
          "indexed": false,
          "internalType": "string",
          "name": "status",
          "type": "string"
        }
      ],
      "name": "NFTListed",
      "type": "event"
    },
    {
      "anonymous": false,
      "inputs": [
        {
          "indexed": true,
          "internalType": "uint256",
          "name": "listingId",
          "type": "uint256"
        },
        {
          "indexed": true,
          "internalType": "address",
          "name": "seller",
          "type": "address"
        },
        {
          "indexed": true,
          "internalType": "uint256",
          "name": "tokenId",
          "type": "uint256"
        },
        {
          "indexed": false,
          "internalType": "uint256",
          "name": "amount",
          "type": "uint256"
        },
        {
          "indexed": false,
          "internalType": "uint256",
          "name": "price",
          "type": "uint256"
        },
        {
          "indexed": false,
          "internalType": "string",
          "name": "status",
          "type": "string"
        }
      ],
      "name": "NFTListingCancelled",
      "type": "event"
    },
    {
      "anonymous": false,
      "inputs": [
        {
          "indexed": true,
          "internalType": "uint256",
          "name": "listingId",
          "type": "uint256"
        },
        {
          "indexed": true,
          "internalType": "address",
          "name": "buyer",
          "type": "address"
        },
        {
          "indexed": true,
          "internalType": "address",
          "name": "seller",
          "type": "address"
        },
        {
          "indexed": false,
          "internalType": "uint256",
          "name": "tokenId",
          "type": "uint256"
        },
        {
          "indexed": false,
          "internalType": "uint256",
          "name": "amount",
          "type": "uint256"
        },
        {
          "indexed": false,
          "internalType": "uint256",
          "name": "price",
          "type": "uint256"
        },
        {
          "indexed": false,
          "internalType": "string",
          "name": "status",
          "type": "string"
        }
      ],
      "name": "NFTPurchased",
      "type": "event"
    },
    {
      "anonymous": false,
      "inputs": [
        {
          "indexed": true,
          "internalType": "address",
          "name": "previousOwner",
          "type": "address"
        },
        {
          "indexed": true,
          "internalType": "address",
          "name": "newOwner",
          "type": "address"
        }
      ],
      "name": "OwnershipTransferred",
      "type": "event"
    },
    {
      "inputs": [
        {
          "internalType": "uint256",
          "name": "_listingId",
          "type": "uint256"
        }
      ],
      "name": "cancelListing",
      "outputs": [],
      "stateMutability": "nonpayable",
      "type": "function"
    },
    {
      "inputs": [],
      "name": "commissionPercentage",
      "outputs": [
        {
          "internalType": "uint256",
          "name": "",
          "type": "uint256"
        }
      ],
      "stateMutability": "view",
      "type": "function"
    },
    {
      "inputs": [],
      "name": "getActiveListings",
      "outputs": [
        {
          "components": [
            {
              "internalType": "uint256",
              "name": "listingId",
              "type": "uint256"
            },
            {
              "internalType": "address",
              "name": "seller",
              "type": "address"
            },
            {
              "internalType": "uint256",
              "name": "tokenId",
              "type": "uint256"
            },
            {
              "internalType": "uint256",
              "name": "amount",
              "type": "uint256"
            },
            {
              "internalType": "uint256",
              "name": "price",
              "type": "uint256"
            },
            {
              "internalType": "bool",
              "name": "isActive",
              "type": "bool"
            }
          ],
          "internalType": "struct NFTMarketplace.Listing[]",
          "name": "activeListings",
          "type": "tuple[]"
        }
      ],
      "stateMutability": "view",
      "type": "function"
    },
    {
      "inputs": [
        {
          "internalType": "uint256",
          "name": "_tokenId",
          "type": "uint256"
        },
        {
          "internalType": "uint256",
          "name": "_amount",
          "type": "uint256"
        },
        {
          "internalType": "uint256",
          "name": "_price",
          "type": "uint256"
        }
      ],
      "name": "listNFT",
      "outputs": [],
      "stateMutability": "nonpayable",
      "type": "function"
    },
    {
      "inputs": [
        {
          "internalType": "uint256",
          "name": "",
          "type": "uint256"
        }
      ],
      "name": "listings",
      "outputs": [
        {
          "internalType": "uint256",
          "name": "listingId",
          "type": "uint256"
        },
        {
          "internalType": "address",
          "name": "seller",
          "type": "address"
        },
        {
          "internalType": "uint256",
          "name": "tokenId",
          "type": "uint256"
        },
        {
          "internalType": "uint256",
          "name": "amount",
          "type": "uint256"
        },
        {
          "internalType": "uint256",
          "name": "price",
          "type": "uint256"
        },
        {
          "internalType": "bool",
          "name": "isActive",
          "type": "bool"
        }
      ],
      "stateMutability": "view",
      "type": "function"
    },
    {
      "inputs": [],
      "name": "nextListingId",
      "outputs": [
        {
          "internalType": "uint256",
          "name": "",
          "type": "uint256"
        }
      ],
      "stateMutability": "view",
      "type": "function"
    },
    {
      "inputs": [],
      "name": "nftContract",
      "outputs": [
        {
          "internalType": "contract GoTLandsNFT",
          "name": "",
          "type": "address"
        }
      ],
      "stateMutability": "view",
      "type": "function"
    },
    {
      "inputs": [],
      "name": "owner",
      "outputs": [
        {
          "internalType": "address",
          "name": "",
          "type": "address"
        }
      ],
      "stateMutability": "view",
      "type": "function"
    },
    {
      "inputs": [
        {
          "internalType": "uint256",
          "name": "_listingId",
          "type": "uint256"
        }
      ],
      "name": "purchaseNFT",
      "outputs": [],
      "stateMutability": "nonpayable",
      "type": "function"
    },
    {
      "inputs": [],
      "name": "renounceOwnership",
      "outputs": [],
      "stateMutability": "nonpayable",
      "type": "function"
    },
    {
      "inputs": [
        {
          "internalType": "address",
          "name": "_nftContractAddress",
          "type": "address"
        }
      ],
      "name": "setNFTContract",
      "outputs": [],
      "stateMutability": "nonpayable",
      "type": "function"
    },
    {
      "inputs": [
        {
          "internalType": "address",
          "name": "_siliquaCoinAddress",
          "type": "address"
        }
      ],
      "name": "setSiliquaCoin",
      "outputs": [],
      "stateMutability": "nonpayable",
      "type": "function"
    },
    {
      "inputs": [],
      "name": "siliquaCoinContract",
      "outputs": [
        {
          "internalType": "contract IERC20",
          "name": "",
          "type": "address"
        }
      ],
      "stateMutability": "view",
      "type": "function"
    },
    {
      "inputs": [],
      "name": "totalCommissionEarned",
      "outputs": [
        {
          "internalType": "uint256",
          "name": "",
          "type": "uint256"
        }
      ],
      "stateMutability": "view",
      "type": "function"
    },
    {
      "inputs": [
        {
          "internalType": "address",
          "name": "newOwner",
          "type": "address"
        }
      ],
      "name": "transferOwnership",
      "outputs": [],
      "stateMutability": "nonpayable",
      "type": "function"
    },
    {
      "inputs": [
        {
          "internalType": "uint256",
          "name": "_newCommissionPercentage",
          "type": "uint256"
        }
      ],
      "name": "updateCommissionPercentage",
      "outputs": [],
      "stateMutability": "nonpayable",
      "type": "function"
    }
  ],
  "bytecode": "0x60806040523480156200001157600080fd5b50604051620015ce380380620015ce8339810160408190526200003491620000e9565b6200003f336200007c565b60018055600280546001600160a01b039485166001600160a01b03199182161790915560038054939094169216919091179091556004556200012a565b600080546001600160a01b038381166001600160a01b0319831681178455604051919092169283917f8be0079c531659141344cd1fd0a4f28419497f9722a3daafe3b4186f6b6457e09190a35050565b80516001600160a01b0381168114620000e457600080fd5b919050565b600080600060608486031215620000ff57600080fd5b6200010a84620000cc565b92506200011a60208501620000cc565b9150604084015190509250925092565b611494806200013a6000396000f3fe608060405234801561001057600080fd5b50600436106101005760003560e01c8063a7ccabdf11610097578063d56d229d11610066578063d56d229d146101f7578063d575fe641461020a578063de74e57b14610213578063f2fde38b1461029a57600080fd5b8063a7ccabdf146101b1578063aaccf1ec146101c4578063b0136c8d146101db578063c73cdd23146101ee57600080fd5b8063715018a6116100d3578063715018a61461017057806387c35bc0146101785780638ce2199e1461018d5780638da5cb5b146101a057600080fd5b806313bc2b4914610105578063150bde031461011a5780631bc1e08f1461012d578063305a67a81461015d575b600080fd5b6101186101133660046111be565b6102ad565b005b6101186101283660046111e2565b6102d7565b600354610140906001600160a01b031681565b6040516001600160a01b0390911681526020015b60405180910390f35b61011861016b3660046111e2565b6105b8565b6101186107c6565b6101806107da565b60405161015491906111fb565b61011861019b3660046111e2565b610987565b6000546001600160a01b0316610140565b6101186101bf3660046111be565b6109e5565b6101cd60075481565b604051908152602001610154565b6101186101e936600461127e565b610a0f565b6101cd60055481565b600254610140906001600160a01b031681565b6101cd60045481565b6102636102213660046111e2565b60066020526000908152604090208054600182015460028301546003840154600485015460059095015493946001600160a01b03909316939192909160ff1686565b604080519687526001600160a01b0390951660208701529385019290925260608401526080830152151560a082015260c001610154565b6101186102a83660046111be565b610d6b565b6102b5610de1565b600380546001600160a01b0319166001600160a01b0392909216919091179055565b6102df610e3b565b60075481106103285760405162461bcd60e51b815260206004820152601060248201526f125108191bd95cdb89dd08195e1a5cdd60821b60448201526064015b60405180910390fd5b6000818152600660205260409020600581015460ff166103825760405162461bcd60e51b81526020600482015260156024820152744c697374696e67206973206e6f742061637469766560581b604482015260640161031f565b6004818101546003546040516370a0823160e01b8152339381019390935290916001600160a01b03909116906370a0823190602401602060405180830381865afa1580156103d4573d6000803e3d6000fd5b505050506040513d601f19601f820116820180604052508101906103f891906112aa565b101561043b5760405162461bcd60e51b8152602060048201526012602482015271496e73756666696369656e742066756e647360701b604482015260640161031f565b60006064600454836004015461045191906112d9565b61045b91906112f6565b9050600081836004015461046f9190611318565b6001840154600354919250610493916001600160a01b039081169133911684610e94565b81600560008282546104a5919061132b565b909155505060028054908401546003850154604051630f8f39e360e41b81526001600160a01b039093169263f8f39e30926104e89230923392919060040161133e565b600060405180830381600087803b15801561050257600080fd5b505af1158015610516573d6000803e3d6000fd5b5050505060058301805460ff19169055600183015460028401546003850154600486015460408051938452602084019290925282820152608060608301819052600990830152681c1d5c98da185cd95960ba1b60a0830152516001600160a01b0390921691339187917f0a06a6f449435029a2c06dbea66356ac3f4f0584a73ff7f22ef368c144a012a79181900360c00190a45050506105b560018055565b50565b6105c0610e3b565b60075481106106065760405162461bcd60e51b8152602060048201526012602482015271125b9d985b1a59081b1a5cdd1a5b99c8125160721b604482015260640161031f565b600081815260066020526040902060018101546001600160a01b0316331461067f5760405162461bcd60e51b815260206004820152602660248201527f4f6e6c79207468652073656c6c65722063616e2063616e63656c20746865206c604482015265697374696e6760d01b606482015260840161031f565b600581015460ff166106cb5760405162461bcd60e51b81526020600482015260156024820152744c697374696e67206973206e6f742061637469766560581b604482015260640161031f565b60028054908201546003830154604051630f8f39e360e41b81526001600160a01b039093169263f8f39e30926107099230923392919060040161133e565b600060405180830381600087803b15801561072357600080fd5b505af1158015610737573d6000803e3d6000fd5b50505060058201805460ff1916905550600281015460038201546004830154604051339286927f6d0ecfb1e9c08e774b62b396633297074ab554950a2f8ece9cd32392582c39a0926107b492919091825260208201526060604082018190526009908201526818d85b98d95b1b195960ba1b608082015260a00190565b60405180910390a4506105b560018055565b6107ce610de1565b6107d86000610ef4565b565b60606000805b6007548110156108245760008181526006602052604090206005015460ff1615610812578161080e81611367565b9250505b8061081c81611367565b9150506107e0565b508067ffffffffffffffff81111561083e5761083e611380565b6040519080825280602002602001820160405280156108b357816020015b6108a06040518060c001604052806000815260200160006001600160a01b031681526020016000815260200160008152602001600081526020016000151581525090565b81526020019060019003908161085c5790505b5091506000805b6007548110156109815760008181526006602052604090206005015460ff161561096f57600081815260066020908152604091829020825160c0810184528154815260018201546001600160a01b031692810192909252600281015492820192909252600382015460608201526004820154608082015260059091015460ff16151560a0820152845185908490811061095557610955611396565b6020026020010181905250818061096b90611367565b9250505b8061097981611367565b9150506108ba565b50505090565b61098f610de1565b60648111156109e05760405162461bcd60e51b815260206004820152601d60248201527f496e76616c696420636f6d6d697373696f6e2070657263656e74616765000000604482015260640161031f565b600455565b6109ed610de1565b600280546001600160a01b0319166001600160a01b0392909216919091179055565b610a17610e3b565b6002546040516331a9108f60e11b81526004810185905233916001600160a01b031690636352211e90602401602060405180830381865afa158015610a60573d6000803e3d6000fd5b505050506040513d601f19601f82011682018060405250810190610a8491906113ac565b6001600160a01b031614610ada5760405162461bcd60e51b815260206004820152601860248201527f596f7520646f6e2774206f776e207468697320746f6b656e0000000000000000604482015260640161031f565b600254604051627eeac760e11b81523360048201526024810185905283916001600160a01b03169062fdd58e90604401602060405180830381865afa158015610b27573d6000803e3d6000fd5b505050506040513d601f19601f82011682018060405250810190610b4b91906112aa565b1015610b905760405162461bcd60e51b8152602060048201526014602482015273496e73756666696369656e742062616c616e636560601b604482015260640161031f565b6000606460045483610ba291906112d9565b610bac91906112f6565b9050610bd833610bc46000546001600160a01b031690565b6003546001600160a01b0316919084610e94565b600254604051630f8f39e360e41b81526001600160a01b039091169063f8f39e3090610c0e90339030908990899060040161133e565b600060405180830381600087803b158015610c2857600080fd5b505af1158015610c3c573d6000803e3d6000fd5b505050508060056000828254610c52919061132b565b9091555050600780549081906000610c6983611367565b90915550506040805160c0810182528281523360208083018281528385018a815260608086018b815260808088018c8152600160a0808b0182815260008e81526006808c52908e90209c518d559851928c0180546001600160a01b0319166001600160a01b0390941693909317909255955160028b0155925160038a015551600489015590516005909701805460ff19169715159790971790965586518b81529384018a905295830186905294820152651b1a5cdd195960d21b928101929092528792909184917f17e0f11c4bcec098f0fa71675a26636c8b4d923dfc6b337aff247d171ddb1df5910160405180910390a45050610d6660018055565b505050565b610d73610de1565b6001600160a01b038116610dd85760405162461bcd60e51b815260206004820152602660248201527f4f776e61626c653a206e6577206f776e657220697320746865207a65726f206160448201526564647265737360d01b606482015260840161031f565b6105b581610ef4565b6000546001600160a01b031633146107d85760405162461bcd60e51b815260206004820181905260248201527f4f776e61626c653a2063616c6c6572206973206e6f7420746865206f776e6572604482015260640161031f565b600260015403610e8d5760405162461bcd60e51b815260206004820152601f60248201527f5265656e7472616e637947756172643a207265656e7472616e742063616c6c00604482015260640161031f565b6002600155565b604080516001600160a01b0385811660248301528416604482015260648082018490528251808303909101815260849091019091526020810180516001600160e01b03166323b872dd60e01b179052610eee908590610f44565b50505050565b600080546001600160a01b038381166001600160a01b0319831681178455604051919092169283917f8be0079c531659141344cd1fd0a4f28419497f9722a3daafe3b4186f6b6457e09190a35050565b6000610f99826040518060400160405280602081526020017f5361666545524332303a206c6f772d6c6576656c2063616c6c206661696c6564815250856001600160a01b03166110199092919063ffffffff16565b9050805160001480610fba575080806020019051810190610fba91906113c9565b610d665760405162461bcd60e51b815260206004820152602a60248201527f5361666545524332303a204552433230206f7065726174696f6e20646964206e6044820152691bdd081cdd58d8d9595960b21b606482015260840161031f565b60606110288484600085611030565b949350505050565b6060824710156110915760405162461bcd60e51b815260206004820152602660248201527f416464726573733a20696e73756666696369656e742062616c616e636520666f6044820152651c8818d85b1b60d21b606482015260840161031f565b600080866001600160a01b031685876040516110ad919061140f565b60006040518083038185875af1925050503d80600081146110ea576040519150601f19603f3d011682016040523d82523d6000602084013e6110ef565b606091505b50915091506111008783838761110b565b979650505050505050565b6060831561117a578251600003611173576001600160a01b0385163b6111735760405162461bcd60e51b815260206004820152601d60248201527f416464726573733a2063616c6c20746f206e6f6e2d636f6e7472616374000000604482015260640161031f565b5081611028565b611028838381511561118f5781518083602001fd5b8060405162461bcd60e51b815260040161031f919061142b565b6001600160a01b03811681146105b557600080fd5b6000602082840312156111d057600080fd5b81356111db816111a9565b9392505050565b6000602082840312156111f457600080fd5b5035919050565b602080825282518282018190526000919060409081850190868401855b8281101561127157815180518552868101516001600160a01b0316878601528581015186860152606080820151908601526080808201519086015260a09081015115159085015260c09093019290850190600101611218565b5091979650505050505050565b60008060006060848603121561129357600080fd5b505081359360208301359350604090920135919050565b6000602082840312156112bc57600080fd5b5051919050565b634e487b7160e01b600052601160045260246000fd5b80820281158282048414176112f0576112f06112c3565b92915050565b60008261131357634e487b7160e01b600052601260045260246000fd5b500490565b818103818111156112f0576112f06112c3565b808201808211156112f0576112f06112c3565b6001600160a01b0394851681529290931660208301526040820152606081019190915260800190565b600060018201611379576113796112c3565b5060010190565b634e487b7160e01b600052604160045260246000fd5b634e487b7160e01b600052603260045260246000fd5b6000602082840312156113be57600080fd5b81516111db816111a9565b6000602082840312156113db57600080fd5b815180151581146111db57600080fd5b60005b838110156114065781810151838201526020016113ee565b50506000910152565b600082516114218184602087016113eb565b9190910192915050565b602081526000825180602084015261144a8160408501602087016113eb565b601f01601f1916919091016040019291505056fea2646970667358221220923251f8d3f7717a30853da029f7dc1a7dcb46c4fc8944050092018cacd5885464736f6c63430008150033",
  "linkReferences": {},
  "deployedLinkReferences": {}
}