{
  "_format": "hh-sol-artifact-1",
  "contractName": "AssetsAuctionMarketplace",
  "sourceName": "contracts/assetsMarket/NFTAuctionMarketplace.sol",
  "abi": [
    {
      "inputs": [
        {
          "internalType": "address",
          "name": "_nftContractAddress",
          "type": "address"
        },
        {
          "internalType": "address",
          "name": "_siliquaCoinContractAddress",
          "type": "address"
        },
        {
          "internalType": "uint256",
          "name": "_commissionPercentage",
          "type": "uint256"
        }
      ],
      "stateMutability": "nonpayable",
      "type": "constructor"
    },
    {
      "anonymous": false,
      "inputs": [
        {
          "indexed": true,
          "internalType": "uint256",
          "name": "auctionId",
          "type": "uint256"
        },
        {
          "indexed": false,
          "internalType": "address",
          "name": "seller",
          "type": "address"
        },
        {
          "indexed": false,
          "internalType": "uint256",
          "name": "tokenId",
          "type": "uint256"
        },
        {
          "indexed": false,
          "internalType": "uint256",
          "name": "amount",
          "type": "uint256"
        },
        {
          "indexed": false,
          "internalType": "uint256",
          "name": "startingPrice",
          "type": "uint256"
        },
        {
          "indexed": false,
          "internalType": "uint256",
          "name": "duration",
          "type": "uint256"
        }
      ],
      "name": "AuctionCreated",
      "type": "event"
    },
    {
      "anonymous": false,
      "inputs": [
        {
          "indexed": true,
          "internalType": "uint256",
          "name": "auctionId",
          "type": "uint256"
        },
        {
          "indexed": true,
          "internalType": "address",
          "name": "winner",
          "type": "address"
        },
        {
          "indexed": false,
          "internalType": "uint256",
          "name": "winningBid",
          "type": "uint256"
        }
      ],
      "name": "AuctionEnded",
      "type": "event"
    },
    {
      "anonymous": false,
      "inputs": [
        {
          "indexed": true,
          "internalType": "uint256",
          "name": "auctionId",
          "type": "uint256"
        },
        {
          "indexed": true,
          "internalType": "address",
          "name": "bidder",
          "type": "address"
        },
        {
          "indexed": false,
          "internalType": "uint256",
          "name": "bidAmount",
          "type": "uint256"
        }
      ],
      "name": "BidPlaced",
      "type": "event"
    },
    {
      "anonymous": false,
      "inputs": [
        {
          "indexed": true,
          "internalType": "address",
          "name": "previousOwner",
          "type": "address"
        },
        {
          "indexed": true,
          "internalType": "address",
          "name": "newOwner",
          "type": "address"
        }
      ],
      "name": "OwnershipTransferred",
      "type": "event"
    },
    {
      "anonymous": false,
      "inputs": [
        {
          "indexed": false,
          "internalType": "address",
          "name": "account",
          "type": "address"
        }
      ],
      "name": "Paused",
      "type": "event"
    },
    {
      "anonymous": false,
      "inputs": [
        {
          "indexed": false,
          "internalType": "address",
          "name": "account",
          "type": "address"
        }
      ],
      "name": "Unpaused",
      "type": "event"
    },
    {
      "inputs": [],
      "name": "auctionId",
      "outputs": [
        {
          "internalType": "uint256",
          "name": "",
          "type": "uint256"
        }
      ],
      "stateMutability": "view",
      "type": "function"
    },
    {
      "inputs": [
        {
          "internalType": "uint256",
          "name": "",
          "type": "uint256"
        }
      ],
      "name": "auctions",
      "outputs": [
        {
          "internalType": "uint256",
          "name": "auctionId",
          "type": "uint256"
        },
        {
          "internalType": "address",
          "name": "seller",
          "type": "address"
        },
        {
          "internalType": "uint256",
          "name": "tokenId",
          "type": "uint256"
        },
        {
          "internalType": "uint256",
          "name": "amount",
          "type": "uint256"
        },
        {
          "internalType": "uint256",
          "name": "startingPrice",
          "type": "uint256"
        },
        {
          "internalType": "uint256",
          "name": "highestBid",
          "type": "uint256"
        },
        {
          "internalType": "address",
          "name": "highestBidder",
          "type": "address"
        },
        {
          "internalType": "uint256",
          "name": "auctionEndTime",
          "type": "uint256"
        },
        {
          "internalType": "bool",
          "name": "ended",
          "type": "bool"
        }
      ],
      "stateMutability": "view",
      "type": "function"
    },
    {
      "inputs": [],
      "name": "commissionPercentage",
      "outputs": [
        {
          "internalType": "uint256",
          "name": "",
          "type": "uint256"
        }
      ],
      "stateMutability": "view",
      "type": "function"
    },
    {
      "inputs": [
        {
          "internalType": "uint256",
          "name": "_tokenId",
          "type": "uint256"
        },
        {
          "internalType": "uint256",
          "name": "_amount",
          "type": "uint256"
        },
        {
          "internalType": "uint256",
          "name": "_startingPrice",
          "type": "uint256"
        },
        {
          "internalType": "uint256",
          "name": "_duration",
          "type": "uint256"
        }
      ],
      "name": "createAuction",
      "outputs": [],
      "stateMutability": "nonpayable",
      "type": "function"
    },
    {
      "inputs": [
        {
          "internalType": "uint256",
          "name": "_auctionId",
          "type": "uint256"
        }
      ],
      "name": "endAuction",
      "outputs": [],
      "stateMutability": "nonpayable",
      "type": "function"
    },
    {
      "inputs": [],
      "name": "nftToken",
      "outputs": [
        {
          "internalType": "contract AssetsNFT",
          "name": "",
          "type": "address"
        }
      ],
      "stateMutability": "view",
      "type": "function"
    },
    {
      "inputs": [
        {
          "internalType": "address",
          "name": "",
          "type": "address"
        },
        {
          "internalType": "address",
          "name": "",
          "type": "address"
        },
        {
          "internalType": "uint256[]",
          "name": "",
          "type": "uint256[]"
        },
        {
          "internalType": "uint256[]",
          "name": "",
          "type": "uint256[]"
        },
        {
          "internalType": "bytes",
          "name": "",
          "type": "bytes"
        }
      ],
      "name": "onERC1155BatchReceived",
      "outputs": [
        {
          "internalType": "bytes4",
          "name": "",
          "type": "bytes4"
        }
      ],
      "stateMutability": "nonpayable",
      "type": "function"
    },
    {
      "inputs": [
        {
          "internalType": "address",
          "name": "",
          "type": "address"
        },
        {
          "internalType": "address",
          "name": "",
          "type": "address"
        },
        {
          "internalType": "uint256",
          "name": "",
          "type": "uint256"
        },
        {
          "internalType": "uint256",
          "name": "",
          "type": "uint256"
        },
        {
          "internalType": "bytes",
          "name": "",
          "type": "bytes"
        }
      ],
      "name": "onERC1155Received",
      "outputs": [
        {
          "internalType": "bytes4",
          "name": "",
          "type": "bytes4"
        }
      ],
      "stateMutability": "nonpayable",
      "type": "function"
    },
    {
      "inputs": [],
      "name": "owner",
      "outputs": [
        {
          "internalType": "address",
          "name": "",
          "type": "address"
        }
      ],
      "stateMutability": "view",
      "type": "function"
    },
    {
      "inputs": [],
      "name": "pause",
      "outputs": [],
      "stateMutability": "nonpayable",
      "type": "function"
    },
    {
      "inputs": [],
      "name": "paused",
      "outputs": [
        {
          "internalType": "bool",
          "name": "",
          "type": "bool"
        }
      ],
      "stateMutability": "view",
      "type": "function"
    },
    {
      "inputs": [
        {
          "internalType": "uint256",
          "name": "_auctionId",
          "type": "uint256"
        }
      ],
      "name": "placeBid",
      "outputs": [],
      "stateMutability": "payable",
      "type": "function"
    },
    {
      "inputs": [],
      "name": "renounceOwnership",
      "outputs": [],
      "stateMutability": "nonpayable",
      "type": "function"
    },
    {
      "inputs": [
        {
          "internalType": "address",
          "name": "_nftContractAddress",
          "type": "address"
        }
      ],
      "name": "setNFTContract",
      "outputs": [],
      "stateMutability": "nonpayable",
      "type": "function"
    },
    {
      "inputs": [
        {
          "internalType": "address",
          "name": "_siliquaCoinAddress",
          "type": "address"
        }
      ],
      "name": "setSiliquaCoin",
      "outputs": [],
      "stateMutability": "nonpayable",
      "type": "function"
    },
    {
      "inputs": [
        {
          "internalType": "bytes4",
          "name": "interfaceId",
          "type": "bytes4"
        }
      ],
      "name": "supportsInterface",
      "outputs": [
        {
          "internalType": "bool",
          "name": "",
          "type": "bool"
        }
      ],
      "stateMutability": "view",
      "type": "function"
    },
    {
      "inputs": [],
      "name": "token",
      "outputs": [
        {
          "internalType": "contract ISiliquaCoin",
          "name": "",
          "type": "address"
        }
      ],
      "stateMutability": "view",
      "type": "function"
    },
    {
      "inputs": [],
      "name": "totalCommissionEarned",
      "outputs": [
        {
          "internalType": "uint256",
          "name": "",
          "type": "uint256"
        }
      ],
      "stateMutability": "view",
      "type": "function"
    },
    {
      "inputs": [
        {
          "internalType": "address",
          "name": "newOwner",
          "type": "address"
        }
      ],
      "name": "transferOwnership",
      "outputs": [],
      "stateMutability": "nonpayable",
      "type": "function"
    },
    {
      "inputs": [],
      "name": "unpause",
      "outputs": [],
      "stateMutability": "nonpayable",
      "type": "function"
    },
    {
      "inputs": [
        {
          "internalType": "uint256",
          "name": "_newCommissionPercentage",
          "type": "uint256"
        }
      ],
      "name": "updateCommissionPercentage",
      "outputs": [],
      "stateMutability": "nonpayable",
      "type": "function"
    }
  ],
  "bytecode": "0x608060405260006007553480156200001657600080fd5b506040516200165e3803806200165e8339810160408190526200003991620000f7565b62000044336200008a565b60018055600280546001600160a81b0319166101006001600160a01b0395861602179055600380546001600160a01b031916929093169190911790915560045562000138565b600080546001600160a01b038381166001600160a01b0319831681178455604051919092169283917f8be0079c531659141344cd1fd0a4f28419497f9722a3daafe3b4186f6b6457e09190a35050565b80516001600160a01b0381168114620000f257600080fd5b919050565b6000806000606084860312156200010d57600080fd5b6200011884620000da565b92506200012860208501620000da565b9150604084015190509250925092565b61151680620001486000396000f3fe60806040526004361061012a5760003560e01c80638da5cb5b116100ab578063c73cdd231161006f578063c73cdd23146103d5578063d06fcba8146103eb578063d575fe6414610410578063f23a6e6114610426578063f2fde38b14610452578063fc0c546a1461047257600080fd5b80638da5cb5b1461030b5780639979ef451461033d578063a7ccabdf14610350578063b9a2de3a14610370578063bc197c811461039057600080fd5b8063571a26a0116100f2578063571a26a0146101df5780635c975abb146102a9578063715018a6146102c15780638456cb59146102d65780638ce2199e146102eb57600080fd5b806301ffc9a71461012f57806310782f8f1461016457806313bc2b49146101885780633f4ba83a146101aa578063431f21da146101bf575b600080fd5b34801561013b57600080fd5b5061014f61014a36600461110e565b610492565b60405190151581526020015b60405180910390f35b34801561017057600080fd5b5061017a60075481565b60405190815260200161015b565b34801561019457600080fd5b506101a86101a336600461115b565b6104c9565b005b3480156101b657600080fd5b506101a86104fb565b3480156101cb57600080fd5b506101a86101da366004611176565b61050d565b3480156101eb57600080fd5b506102566101fa3660046111a8565b600660208190526000918252604090912080546001820154600283015460038401546004850154600586015496860154600787015460089097015495976001600160a01b03958616979496939592949093929091169160ff1689565b60408051998a526001600160a01b0398891660208b01528901969096526060880194909452608087019290925260a086015290921660c084015260e083019190915215156101008201526101200161015b565b3480156102b557600080fd5b5060025460ff1661014f565b3480156102cd57600080fd5b506101a86107d8565b3480156102e257600080fd5b506101a86107ea565b3480156102f757600080fd5b506101a86103063660046111a8565b6107fa565b34801561031757600080fd5b506000546001600160a01b03165b6040516001600160a01b03909116815260200161015b565b6101a861034b3660046111a8565b610860565b34801561035c57600080fd5b506101a861036b36600461115b565b610a3d565b34801561037c57600080fd5b506101a861038b3660046111a8565b610a75565b34801561039c57600080fd5b506103bc6103ab3660046112f8565b63bc197c8160e01b95945050505050565b6040516001600160e01b0319909116815260200161015b565b3480156103e157600080fd5b5061017a60055481565b3480156103f757600080fd5b506002546103259061010090046001600160a01b031681565b34801561041c57600080fd5b5061017a60045481565b34801561043257600080fd5b506103bc6104413660046113a2565b63f23a6e6160e01b95945050505050565b34801561045e57600080fd5b506101a861046d36600461115b565b610e77565b34801561047e57600080fd5b50600354610325906001600160a01b031681565b60006001600160e01b03198216630271189760e51b14806104c357506301ffc9a760e01b6001600160e01b03198316145b92915050565b6104d1610eed565b6104d9610f47565b600380546001600160a01b0319166001600160a01b0392909216919091179055565b610503610eed565b61050b610f8d565b565b610515610f47565b600254604051627eeac760e11b815233600482015260248101869052849161010090046001600160a01b03169062fdd58e90604401602060405180830381865afa158015610567573d6000803e3d6000fd5b505050506040513d601f19601f8201168201806040525081019061058b9190611407565b10156105d55760405162461bcd60e51b8152602060048201526014602482015273496e73756666696369656e742062616c616e636560601b60448201526064015b60405180910390fd5b600081116106255760405162461bcd60e51b815260206004820152601f60248201527f4475726174696f6e206d7573742062652067726561746572207468616e20300060448201526064016105cc565b60408051610120810182526007548152336020820152908101859052606081018490526080810183905260a08101839052600060c082015260e0810161066b8342611436565b815260006020918201819052600780548252600680845260409283902085518155938501516001850180546001600160a01b03199081166001600160a01b03938416179091558685015160028088019190915560608801516003880155608088015160048089019190915560a0890151600589015560c089015194880180549093169484169490941790915560e087015193860193909355610100958601516008909501805460ff19169515159590951790945590549151637f4c824d60e11b8152939091049091169163fe99049a9161074d91339130918a918a9101611449565b600060405180830381600087803b15801561076757600080fd5b505af115801561077b573d6000803e3d6000fd5b5050600754604080513381526020810189905290810187905260608101869052608081018590529092507e09646912aaa7019ad837e57cc5c0613299c8432f5268d4450ab8673fe0fa03915060a00160405180910390a250505050565b6107e0610eed565b61050b6000610fdf565b6107f2610eed565b61050b61102f565b610802610eed565b61080a610f47565b606481111561085b5760405162461bcd60e51b815260206004820152601d60248201527f496e76616c696420636f6d6d697373696f6e2070657263656e7461676500000060448201526064016105cc565b600455565b61086861106c565b610870610f47565b6000818152600660205260409020600881015460ff16156108cb5760405162461bcd60e51b8152602060048201526015602482015274105d58dd1a5bdb88185b1c9958591e48195b991959605a1b60448201526064016105cc565b806007015442106109125760405162461bcd60e51b8152602060048201526011602482015270105d58dd1a5bdb881a185cc8195b991959607a1b60448201526064016105cc565b806005015434116109845760405162461bcd60e51b815260206004820152603660248201527f42696420616d6f756e74206d75737420626520686967686572207468616e20746044820152751a194818dd5c9c995b9d081a1a59da195cdd08189a5960521b60648201526084016105cc565b60068101546001600160a01b0316156109d957600681015460058201546040516001600160a01b039092169181156108fc0291906000818181858888f193505050501580156109d7573d6000803e3d6000fd5b505b34600582018190556006820180546001600160a01b03191633908117909155825460405192835290917f0e54eff26401bf69b81b26f60bd85ef47f5d85275c1d268d84f68d6897431c47906020015b60405180910390a350610a3a60018055565b50565b610a45610eed565b610a4d610f47565b600280546001600160a01b0390921661010002610100600160a81b0319909216919091179055565b610a7d610eed565b610a8561106c565b610a8d610f47565b6000818152600660205260409020600881015460ff1615610ae85760405162461bcd60e51b8152602060048201526015602482015274105d58dd1a5bdb88185b1c9958591e48195b991959605a1b60448201526064016105cc565b8060070154421015610b3c5760405162461bcd60e51b815260206004820152601960248201527f41756374696f6e20686173206e6f742079657420656e6465640000000000000060448201526064016105cc565b60088101805460ff1916600117905560068101546001600160a01b031615610dbb57600060646004548360050154610b749190611472565b610b7e9190611489565b90508060056000828254610b929190611436565b90915550506005820154600090610baa9083906114ab565b60018401546040519192506001600160a01b03169082156108fc029083906000818181858888f19350505050158015610be7573d6000803e3d6000fd5b50600280546006850154918501546003860154604051637f4c824d60e11b81526001600160a01b0361010090940484169463fe99049a94610c319430949190921692600401611449565b600060405180830381600087803b158015610c4b57600080fd5b505af1158015610c5f573d6000803e3d6000fd5b5050600354600686015460405163423f6cef60e01b81526001600160a01b039182166004820152670de0b6b3a764000060248201529116925063423f6cef91506044016020604051808303816000875af1158015610cc1573d6000803e3d6000fd5b505050506040513d601f19601f82011682018060405250810190610ce591906114be565b50600354600184015460405163423f6cef60e01b81526001600160a01b039182166004820152670de0b6b3a7640000602482015291169063423f6cef906044016020604051808303816000875af1158015610d44573d6000803e3d6000fd5b505050506040513d601f19601f82011682018060405250810190610d6891906114be565b506006830154835460058501546040519081526001600160a01b03909216917fd2aa34a4fdbbc6dff6a3e56f46e0f3ae2a31d7785ff3487aa5c95c642acea5019060200160405180910390a35050610e6d565b600280546001830154918301546003840154604051637f4c824d60e11b81526001600160a01b0361010090940484169463fe99049a94610e049430949190921692600401611449565b600060405180830381600087803b158015610e1e57600080fd5b505af1158015610e32573d6000803e3d6000fd5b50508254604051600080825293509091507fd2aa34a4fdbbc6dff6a3e56f46e0f3ae2a31d7785ff3487aa5c95c642acea50190602001610a28565b50610a3a60018055565b610e7f610eed565b6001600160a01b038116610ee45760405162461bcd60e51b815260206004820152602660248201527f4f776e61626c653a206e6577206f776e657220697320746865207a65726f206160448201526564647265737360d01b60648201526084016105cc565b610a3a81610fdf565b6000546001600160a01b0316331461050b5760405162461bcd60e51b815260206004820181905260248201527f4f776e61626c653a2063616c6c6572206973206e6f7420746865206f776e657260448201526064016105cc565b60025460ff161561050b5760405162461bcd60e51b815260206004820152601060248201526f14185d5cd8589b194e881c185d5cd95960821b60448201526064016105cc565b610f956110c5565b6002805460ff191690557f5db9ee0a495bf2e6ff9c91a7834c1ba4fdd244a5e8aa4e537bd38aeae4b073aa335b6040516001600160a01b03909116815260200160405180910390a1565b600080546001600160a01b038381166001600160a01b0319831681178455604051919092169283917f8be0079c531659141344cd1fd0a4f28419497f9722a3daafe3b4186f6b6457e09190a35050565b611037610f47565b6002805460ff191660011790557f62e78cea01bee320cd4e420270b5ea74000d11b0c9f74754ebdbfc544b05a258610fc23390565b6002600154036110be5760405162461bcd60e51b815260206004820152601f60248201527f5265656e7472616e637947756172643a207265656e7472616e742063616c6c0060448201526064016105cc565b6002600155565b60025460ff1661050b5760405162461bcd60e51b815260206004820152601460248201527314185d5cd8589b194e881b9bdd081c185d5cd95960621b60448201526064016105cc565b60006020828403121561112057600080fd5b81356001600160e01b03198116811461113857600080fd5b9392505050565b80356001600160a01b038116811461115657600080fd5b919050565b60006020828403121561116d57600080fd5b6111388261113f565b6000806000806080858703121561118c57600080fd5b5050823594602084013594506040840135936060013592509050565b6000602082840312156111ba57600080fd5b5035919050565b634e487b7160e01b600052604160045260246000fd5b604051601f8201601f1916810167ffffffffffffffff81118282101715611200576112006111c1565b604052919050565b600082601f83011261121957600080fd5b8135602067ffffffffffffffff821115611235576112356111c1565b8160051b6112448282016111d7565b928352848101820192828101908785111561125e57600080fd5b83870192505b8483101561127d57823582529183019190830190611264565b979650505050505050565b600082601f83011261129957600080fd5b813567ffffffffffffffff8111156112b3576112b36111c1565b6112c6601f8201601f19166020016111d7565b8181528460208386010111156112db57600080fd5b816020850160208301376000918101602001919091529392505050565b600080600080600060a0868803121561131057600080fd5b6113198661113f565b94506113276020870161113f565b9350604086013567ffffffffffffffff8082111561134457600080fd5b61135089838a01611208565b9450606088013591508082111561136657600080fd5b61137289838a01611208565b9350608088013591508082111561138857600080fd5b5061139588828901611288565b9150509295509295909350565b600080600080600060a086880312156113ba57600080fd5b6113c38661113f565b94506113d16020870161113f565b93506040860135925060608601359150608086013567ffffffffffffffff8111156113fb57600080fd5b61139588828901611288565b60006020828403121561141957600080fd5b5051919050565b634e487b7160e01b600052601160045260246000fd5b808201808211156104c3576104c3611420565b6001600160a01b0394851681529290931660208301526040820152606081019190915260800190565b80820281158282048414176104c3576104c3611420565b6000826114a657634e487b7160e01b600052601260045260246000fd5b500490565b818103818111156104c3576104c3611420565b6000602082840312156114d057600080fd5b8151801515811461113857600080fdfea26469706673582212206b3e4c86bdb5a71e2ea0d2e772e812639a11e5bf9ca6399669a6d7817de20d1864736f6c63430008150033",
  "linkReferences": {},
  "deployedLinkReferences": {}
}