{
  "_format": "hh-sol-artifact-1",
  "contractName": "HorsesNFT",
  "sourceName": "contracts/HorsesNFT.sol",
  "abi": [
    {
      "inputs": [],
      "stateMutability": "nonpayable",
      "type": "constructor"
    },
    {
      "anonymous": false,
      "inputs": [
        {
          "indexed": true,
          "internalType": "address",
          "name": "owner",
          "type": "address"
        },
        {
          "indexed": true,
          "internalType": "address",
          "name": "approved",
          "type": "address"
        },
        {
          "indexed": true,
          "internalType": "uint256",
          "name": "tokenId",
          "type": "uint256"
        }
      ],
      "name": "Approval",
      "type": "event"
    },
    {
      "anonymous": false,
      "inputs": [
        {
          "indexed": true,
          "internalType": "address",
          "name": "owner",
          "type": "address"
        },
        {
          "indexed": true,
          "internalType": "address",
          "name": "operator",
          "type": "address"
        },
        {
          "indexed": false,
          "internalType": "bool",
          "name": "approved",
          "type": "bool"
        }
      ],
      "name": "ApprovalForAll",
      "type": "event"
    },
    {
      "anonymous": false,
      "inputs": [
        {
          "indexed": false,
          "internalType": "uint256",
          "name": "_fromTokenId",
          "type": "uint256"
        },
        {
          "indexed": false,
          "internalType": "uint256",
          "name": "_toTokenId",
          "type": "uint256"
        }
      ],
      "name": "BatchMetadataUpdate",
      "type": "event"
    },
    {
      "anonymous": false,
      "inputs": [
        {
          "indexed": false,
          "internalType": "uint256",
          "name": "_tokenId",
          "type": "uint256"
        }
      ],
      "name": "MetadataUpdate",
      "type": "event"
    },
    {
      "anonymous": false,
      "inputs": [
        {
          "indexed": true,
          "internalType": "bytes32",
          "name": "role",
          "type": "bytes32"
        },
        {
          "indexed": true,
          "internalType": "bytes32",
          "name": "previousAdminRole",
          "type": "bytes32"
        },
        {
          "indexed": true,
          "internalType": "bytes32",
          "name": "newAdminRole",
          "type": "bytes32"
        }
      ],
      "name": "RoleAdminChanged",
      "type": "event"
    },
    {
      "anonymous": false,
      "inputs": [
        {
          "indexed": true,
          "internalType": "bytes32",
          "name": "role",
          "type": "bytes32"
        },
        {
          "indexed": true,
          "internalType": "address",
          "name": "account",
          "type": "address"
        },
        {
          "indexed": true,
          "internalType": "address",
          "name": "sender",
          "type": "address"
        }
      ],
      "name": "RoleGranted",
      "type": "event"
    },
    {
      "anonymous": false,
      "inputs": [
        {
          "indexed": true,
          "internalType": "bytes32",
          "name": "role",
          "type": "bytes32"
        },
        {
          "indexed": true,
          "internalType": "address",
          "name": "account",
          "type": "address"
        },
        {
          "indexed": true,
          "internalType": "address",
          "name": "sender",
          "type": "address"
        }
      ],
      "name": "RoleRevoked",
      "type": "event"
    },
    {
      "anonymous": false,
      "inputs": [
        {
          "indexed": true,
          "internalType": "address",
          "name": "from",
          "type": "address"
        },
        {
          "indexed": true,
          "internalType": "address",
          "name": "to",
          "type": "address"
        },
        {
          "indexed": true,
          "internalType": "uint256",
          "name": "tokenId",
          "type": "uint256"
        }
      ],
      "name": "Transfer",
      "type": "event"
    },
    {
      "inputs": [],
      "name": "DEFAULT_ADMIN_ROLE",
      "outputs": [
        {
          "internalType": "bytes32",
          "name": "",
          "type": "bytes32"
        }
      ],
      "stateMutability": "view",
      "type": "function"
    },
    {
      "inputs": [],
      "name": "MINTER_ROLE",
      "outputs": [
        {
          "internalType": "bytes32",
          "name": "",
          "type": "bytes32"
        }
      ],
      "stateMutability": "view",
      "type": "function"
    },
    {
      "inputs": [
        {
          "internalType": "address",
          "name": "to",
          "type": "address"
        },
        {
          "internalType": "uint256",
          "name": "tokenId",
          "type": "uint256"
        }
      ],
      "name": "approve",
      "outputs": [],
      "stateMutability": "nonpayable",
      "type": "function"
    },
    {
      "inputs": [
        {
          "internalType": "address",
          "name": "owner",
          "type": "address"
        }
      ],
      "name": "balanceOf",
      "outputs": [
        {
          "internalType": "uint256",
          "name": "",
          "type": "uint256"
        }
      ],
      "stateMutability": "view",
      "type": "function"
    },
    {
      "inputs": [
        {
          "internalType": "uint256",
          "name": "tokenId",
          "type": "uint256"
        }
      ],
      "name": "burn",
      "outputs": [],
      "stateMutability": "nonpayable",
      "type": "function"
    },
    {
      "inputs": [
        {
          "internalType": "uint256",
          "name": "tokenId",
          "type": "uint256"
        }
      ],
      "name": "getApproved",
      "outputs": [
        {
          "internalType": "address",
          "name": "",
          "type": "address"
        }
      ],
      "stateMutability": "view",
      "type": "function"
    },
    {
      "inputs": [
        {
          "internalType": "bytes32",
          "name": "role",
          "type": "bytes32"
        }
      ],
      "name": "getRoleAdmin",
      "outputs": [
        {
          "internalType": "bytes32",
          "name": "",
          "type": "bytes32"
        }
      ],
      "stateMutability": "view",
      "type": "function"
    },
    {
      "inputs": [
        {
          "internalType": "bytes32",
          "name": "role",
          "type": "bytes32"
        },
        {
          "internalType": "address",
          "name": "account",
          "type": "address"
        }
      ],
      "name": "grantRole",
      "outputs": [],
      "stateMutability": "nonpayable",
      "type": "function"
    },
    {
      "inputs": [
        {
          "internalType": "bytes32",
          "name": "role",
          "type": "bytes32"
        },
        {
          "internalType": "address",
          "name": "account",
          "type": "address"
        }
      ],
      "name": "hasRole",
      "outputs": [
        {
          "internalType": "bool",
          "name": "",
          "type": "bool"
        }
      ],
      "stateMutability": "view",
      "type": "function"
    },
    {
      "inputs": [
        {
          "internalType": "address",
          "name": "owner",
          "type": "address"
        },
        {
          "internalType": "address",
          "name": "operator",
          "type": "address"
        }
      ],
      "name": "isApprovedForAll",
      "outputs": [
        {
          "internalType": "bool",
          "name": "",
          "type": "bool"
        }
      ],
      "stateMutability": "view",
      "type": "function"
    },
    {
      "inputs": [],
      "name": "name",
      "outputs": [
        {
          "internalType": "string",
          "name": "",
          "type": "string"
        }
      ],
      "stateMutability": "view",
      "type": "function"
    },
    {
      "inputs": [
        {
          "internalType": "uint256",
          "name": "tokenId",
          "type": "uint256"
        }
      ],
      "name": "ownerOf",
      "outputs": [
        {
          "internalType": "address",
          "name": "",
          "type": "address"
        }
      ],
      "stateMutability": "view",
      "type": "function"
    },
    {
      "inputs": [
        {
          "internalType": "bytes32",
          "name": "role",
          "type": "bytes32"
        },
        {
          "internalType": "address",
          "name": "account",
          "type": "address"
        }
      ],
      "name": "renounceRole",
      "outputs": [],
      "stateMutability": "nonpayable",
      "type": "function"
    },
    {
      "inputs": [
        {
          "internalType": "bytes32",
          "name": "role",
          "type": "bytes32"
        },
        {
          "internalType": "address",
          "name": "account",
          "type": "address"
        }
      ],
      "name": "revokeRole",
      "outputs": [],
      "stateMutability": "nonpayable",
      "type": "function"
    },
    {
      "inputs": [
        {
          "internalType": "address",
          "name": "to",
          "type": "address"
        },
        {
          "internalType": "string",
          "name": "uri",
          "type": "string"
        }
      ],
      "name": "safeMint",
      "outputs": [],
      "stateMutability": "nonpayable",
      "type": "function"
    },
    {
      "inputs": [
        {
          "internalType": "address",
          "name": "from",
          "type": "address"
        },
        {
          "internalType": "address",
          "name": "to",
          "type": "address"
        },
        {
          "internalType": "uint256",
          "name": "tokenId",
          "type": "uint256"
        }
      ],
      "name": "safeTransferFrom",
      "outputs": [],
      "stateMutability": "nonpayable",
      "type": "function"
    },
    {
      "inputs": [
        {
          "internalType": "address",
          "name": "from",
          "type": "address"
        },
        {
          "internalType": "address",
          "name": "to",
          "type": "address"
        },
        {
          "internalType": "uint256",
          "name": "tokenId",
          "type": "uint256"
        },
        {
          "internalType": "bytes",
          "name": "data",
          "type": "bytes"
        }
      ],
      "name": "safeTransferFrom",
      "outputs": [],
      "stateMutability": "nonpayable",
      "type": "function"
    },
    {
      "inputs": [
        {
          "internalType": "address",
          "name": "operator",
          "type": "address"
        },
        {
          "internalType": "bool",
          "name": "approved",
          "type": "bool"
        }
      ],
      "name": "setApprovalForAll",
      "outputs": [],
      "stateMutability": "nonpayable",
      "type": "function"
    },
    {
      "inputs": [
        {
          "internalType": "bytes4",
          "name": "interfaceId",
          "type": "bytes4"
        }
      ],
      "name": "supportsInterface",
      "outputs": [
        {
          "internalType": "bool",
          "name": "",
          "type": "bool"
        }
      ],
      "stateMutability": "view",
      "type": "function"
    },
    {
      "inputs": [],
      "name": "symbol",
      "outputs": [
        {
          "internalType": "string",
          "name": "",
          "type": "string"
        }
      ],
      "stateMutability": "view",
      "type": "function"
    },
    {
      "inputs": [
        {
          "internalType": "uint256",
          "name": "tokenId",
          "type": "uint256"
        }
      ],
      "name": "tokenURI",
      "outputs": [
        {
          "internalType": "string",
          "name": "",
          "type": "string"
        }
      ],
      "stateMutability": "view",
      "type": "function"
    },
    {
      "inputs": [
        {
          "internalType": "address",
          "name": "from",
          "type": "address"
        },
        {
          "internalType": "address",
          "name": "to",
          "type": "address"
        },
        {
          "internalType": "uint256",
          "name": "tokenId",
          "type": "uint256"
        }
      ],
      "name": "transferFrom",
      "outputs": [],
      "stateMutability": "nonpayable",
      "type": "function"
    }
  ],
  "bytecode": "0x60806040523480156200001157600080fd5b5060405180604001604052806009815260200168121bdc9cd95cd3919560ba1b815250604051806040016040528060038152602001622427a960e91b8152508160009081620000619190620001fe565b506001620000708282620001fe565b506200008291506000905033620000b4565b620000ae7f9f2df0fed2c77648de5860a4cc508cd0818c85b8b8a1ab4ceeef8d981c8956a633620000b4565b620002ca565b60008281526007602090815260408083206001600160a01b038516845290915290205460ff16620001555760008281526007602090815260408083206001600160a01b03851684529091529020805460ff19166001179055620001143390565b6001600160a01b0316816001600160a01b0316837f2f8788117e7eff1d82e926ec794901d17c78024a50270940304540a733656f0d60405160405180910390a45b5050565b634e487b7160e01b600052604160045260246000fd5b600181811c908216806200018457607f821691505b602082108103620001a557634e487b7160e01b600052602260045260246000fd5b50919050565b601f821115620001f957600081815260208120601f850160051c81016020861015620001d45750805b601f850160051c820191505b81811015620001f557828155600101620001e0565b5050505b505050565b81516001600160401b038111156200021a576200021a62000159565b62000232816200022b84546200016f565b84620001ab565b602080601f8311600181146200026a5760008415620002515750858301515b600019600386901b1c1916600185901b178555620001f5565b600085815260208120601f198616915b828110156200029b578886015182559484019460019091019084016200027a565b5085821015620002ba5787850151600019600388901b60f8161c191681555b5050505050600190811b01905550565b611e6b80620002da6000396000f3fe608060405234801561001057600080fd5b50600436106101425760003560e01c806370a08231116100b8578063b88d4fde1161007c578063b88d4fde146102b0578063c87b56dd146102c3578063d204c45e146102d6578063d5391393146102e9578063d547741f146102fe578063e985e9c51461031157600080fd5b806370a082311461026757806391d148541461027a57806395d89b411461028d578063a217fddf14610295578063a22cb4651461029d57600080fd5b8063248a9ca31161010a578063248a9ca3146101d75780632f2ff15d1461020857806336568abe1461021b57806342842e0e1461022e57806342966c68146102415780636352211e1461025457600080fd5b806301ffc9a71461014757806306fdde031461016f578063081812fc14610184578063095ea7b3146101af57806323b872dd146101c4575b600080fd5b61015a61015536600461174c565b61034d565b60405190151581526020015b60405180910390f35b61017761035e565b60405161016691906117b9565b6101976101923660046117cc565b6103f0565b6040516001600160a01b039091168152602001610166565b6101c26101bd366004611801565b610417565b005b6101c26101d236600461182b565b610531565b6101fa6101e53660046117cc565b60009081526007602052604090206001015490565b604051908152602001610166565b6101c2610216366004611867565b610562565b6101c2610229366004611867565b610587565b6101c261023c36600461182b565b610605565b6101c261024f3660046117cc565b610620565b6101976102623660046117cc565b610641565b6101fa610275366004611893565b6106a1565b61015a610288366004611867565b610727565b610177610752565b6101fa600081565b6101c26102ab3660046118ae565b610761565b6101c26102be366004611976565b61076c565b6101776102d13660046117cc565b6107a4565b6101c26102e43660046119f2565b6107af565b6101fa600080516020611e1683398151915281565b6101c261030c366004611867565b6107f6565b61015a61031f366004611a54565b6001600160a01b03918216600090815260056020908152604080832093909416825291909152205460ff1690565b60006103588261081b565b92915050565b60606000805461036d90611a7e565b80601f016020809104026020016040519081016040528092919081815260200182805461039990611a7e565b80156103e65780601f106103bb576101008083540402835291602001916103e6565b820191906000526020600020905b8154815290600101906020018083116103c957829003601f168201915b5050505050905090565b60006103fb82610840565b506000908152600460205260409020546001600160a01b031690565b600061042282610641565b9050806001600160a01b0316836001600160a01b0316036104945760405162461bcd60e51b815260206004820152602160248201527f4552433732313a20617070726f76616c20746f2063757272656e74206f776e656044820152603960f91b60648201526084015b60405180910390fd5b336001600160a01b03821614806104b057506104b0813361031f565b6105225760405162461bcd60e51b815260206004820152603d60248201527f4552433732313a20617070726f76652063616c6c6572206973206e6f7420746f60448201527f6b656e206f776e6572206f7220617070726f76656420666f7220616c6c000000606482015260840161048b565b61052c83836108a2565b505050565b61053b3382610910565b6105575760405162461bcd60e51b815260040161048b90611ab8565b61052c83838361098f565b60008281526007602052604090206001015461057d81610af3565b61052c8383610afd565b6001600160a01b03811633146105f75760405162461bcd60e51b815260206004820152602f60248201527f416363657373436f6e74726f6c3a2063616e206f6e6c792072656e6f756e636560448201526e103937b632b9903337b91039b2b63360891b606482015260840161048b565b6106018282610b83565b5050565b61052c8383836040518060200160405280600081525061076c565b600080516020611e1683398151915261063881610af3565b61060182610bea565b6000818152600260205260408120546001600160a01b0316806103585760405162461bcd60e51b8152602060048201526018602482015277115490cdcc8c4e881a5b9d985b1a59081d1bdad95b88125160421b604482015260640161048b565b60006001600160a01b03821661070b5760405162461bcd60e51b815260206004820152602960248201527f4552433732313a2061646472657373207a65726f206973206e6f7420612076616044820152683634b21037bbb732b960b91b606482015260840161048b565b506001600160a01b031660009081526003602052604090205490565b60009182526007602090815260408084206001600160a01b0393909316845291905290205460ff1690565b60606001805461036d90611a7e565b610601338383610c0b565b6107763383610910565b6107925760405162461bcd60e51b815260040161048b90611ab8565b61079e84848484610cd9565b50505050565b606061035882610d0c565b600080516020611e168339815191526107c781610af3565b60006107d260085490565b90506107e2600880546001019055565b6107ec8482610e14565b61079e8184610e2e565b60008281526007602052604090206001015461081181610af3565b61052c8383610b83565b60006001600160e01b03198216637965db0b60e01b1480610358575061035882610ef9565b6000818152600260205260409020546001600160a01b031661089f5760405162461bcd60e51b8152602060048201526018602482015277115490cdcc8c4e881a5b9d985b1a59081d1bdad95b88125160421b604482015260640161048b565b50565b600081815260046020526040902080546001600160a01b0319166001600160a01b03841690811790915581906108d782610641565b6001600160a01b03167f8c5be1e5ebec7d5bd14f71427d1e84f3dd0314c0f7b2291e5b200ac8c7c3b92560405160405180910390a45050565b60008061091c83610641565b9050806001600160a01b0316846001600160a01b0316148061096357506001600160a01b0380821660009081526005602090815260408083209388168352929052205460ff165b806109875750836001600160a01b031661097c846103f0565b6001600160a01b0316145b949350505050565b826001600160a01b03166109a282610641565b6001600160a01b0316146109c85760405162461bcd60e51b815260040161048b90611b05565b6001600160a01b038216610a2a5760405162461bcd60e51b8152602060048201526024808201527f4552433732313a207472616e7366657220746f20746865207a65726f206164646044820152637265737360e01b606482015260840161048b565b826001600160a01b0316610a3d82610641565b6001600160a01b031614610a635760405162461bcd60e51b815260040161048b90611b05565b600081815260046020908152604080832080546001600160a01b03199081169091556001600160a01b0387811680865260038552838620805460001901905590871680865283862080546001019055868652600290945282852080549092168417909155905184937fddf252ad1be2c89b69c2b068fc378daa952ba7f163c4a11628f55a4df523b3ef91a4505050565b61089f8133610f1e565b610b078282610727565b6106015760008281526007602090815260408083206001600160a01b03851684529091529020805460ff19166001179055610b3f3390565b6001600160a01b0316816001600160a01b0316837f2f8788117e7eff1d82e926ec794901d17c78024a50270940304540a733656f0d60405160405180910390a45050565b610b8d8282610727565b156106015760008281526007602090815260408083206001600160a01b0385168085529252808320805460ff1916905551339285917ff6391f5c32d9c69d2a47ea670b442974b53935d1edc7fd64eb21e047a839171b9190a45050565b600080516020611e16833981519152610c0281610af3565b61060182610f77565b816001600160a01b0316836001600160a01b031603610c6c5760405162461bcd60e51b815260206004820152601960248201527f4552433732313a20617070726f766520746f2063616c6c657200000000000000604482015260640161048b565b6001600160a01b03838116600081815260056020908152604080832094871680845294825291829020805460ff191686151590811790915591519182527f17307eab39ab6107e8899845ad3d59bd9653f200f220920489ca2b5937696c31910160405180910390a3505050565b610ce484848461098f565b610cf084848484610fb7565b61079e5760405162461bcd60e51b815260040161048b90611b4a565b6060610d1782610840565b60008281526006602052604081208054610d3090611a7e565b80601f0160208091040260200160405190810160405280929190818152602001828054610d5c90611a7e565b8015610da95780601f10610d7e57610100808354040283529160200191610da9565b820191906000526020600020905b815481529060010190602001808311610d8c57829003601f168201915b505050505090506000610dc760408051602081019091526000815290565b90508051600003610dd9575092915050565b815115610e0b578082604051602001610df3929190611b9c565b60405160208183030381529060405292505050919050565b610987846110b8565b61060182826040518060200160405280600081525061112c565b6000828152600260205260409020546001600160a01b0316610ea95760405162461bcd60e51b815260206004820152602e60248201527f45524337323155524953746f726167653a2055524920736574206f66206e6f6e60448201526d32bc34b9ba32b73a103a37b5b2b760911b606482015260840161048b565b6000828152600660205260409020610ec18282611c19565b506040518281527ff8e1a15aba9398e019f0b49df1a4fde98ee17ae345cb5f6b5e2c27f5033e8ce79060200160405180910390a15050565b60006001600160e01b03198216632483248360e11b148061035857506103588261115f565b610f288282610727565b61060157610f35816111af565b610f408360206111c1565b604051602001610f51929190611cd9565b60408051601f198184030181529082905262461bcd60e51b825261048b916004016117b9565b610f808161135d565b60008181526006602052604090208054610f9990611a7e565b15905061089f57600081815260066020526040812061089f916116e8565b60006001600160a01b0384163b156110ad57604051630a85bd0160e11b81526001600160a01b0385169063150b7a0290610ffb903390899088908890600401611d4e565b6020604051808303816000875af1925050508015611036575060408051601f3d908101601f1916820190925261103391810190611d8b565b60015b611093573d808015611064576040519150601f19603f3d011682016040523d82523d6000602084013e611069565b606091505b50805160000361108b5760405162461bcd60e51b815260040161048b90611b4a565b805181602001fd5b6001600160e01b031916630a85bd0160e11b149050610987565b506001949350505050565b60606110c382610840565b60006110da60408051602081019091526000815290565b905060008151116110fa5760405180602001604052806000815250611125565b80611104846113f2565b604051602001611115929190611b9c565b6040516020818303038152906040525b9392505050565b6111368383611485565b6111436000848484610fb7565b61052c5760405162461bcd60e51b815260040161048b90611b4a565b60006001600160e01b031982166380ac58cd60e01b148061119057506001600160e01b03198216635b5e139f60e01b145b8061035857506301ffc9a760e01b6001600160e01b0319831614610358565b60606103586001600160a01b03831660145b606060006111d0836002611dbe565b6111db906002611dd5565b67ffffffffffffffff8111156111f3576111f36118ea565b6040519080825280601f01601f19166020018201604052801561121d576020820181803683370190505b509050600360fc1b8160008151811061123857611238611de8565b60200101906001600160f81b031916908160001a905350600f60fb1b8160018151811061126757611267611de8565b60200101906001600160f81b031916908160001a905350600061128b846002611dbe565b611296906001611dd5565b90505b600181111561130e576f181899199a1a9b1b9c1cb0b131b232b360811b85600f16601081106112ca576112ca611de8565b1a60f81b8282815181106112e0576112e0611de8565b60200101906001600160f81b031916908160001a90535060049490941c9361130781611dfe565b9050611299565b5083156111255760405162461bcd60e51b815260206004820181905260248201527f537472696e67733a20686578206c656e67746820696e73756666696369656e74604482015260640161048b565b600061136882610641565b905061137382610641565b600083815260046020908152604080832080546001600160a01b03199081169091556001600160a01b0385168085526003845282852080546000190190558785526002909352818420805490911690555192935084927fddf252ad1be2c89b69c2b068fc378daa952ba7f163c4a11628f55a4df523b3ef908390a45050565b606060006113ff83611610565b600101905060008167ffffffffffffffff81111561141f5761141f6118ea565b6040519080825280601f01601f191660200182016040528015611449576020820181803683370190505b5090508181016020015b600019016f181899199a1a9b1b9c1cb0b131b232b360811b600a86061a8153600a850494508461145357509392505050565b6001600160a01b0382166114db5760405162461bcd60e51b815260206004820181905260248201527f4552433732313a206d696e7420746f20746865207a65726f2061646472657373604482015260640161048b565b6000818152600260205260409020546001600160a01b0316156115405760405162461bcd60e51b815260206004820152601c60248201527f4552433732313a20746f6b656e20616c7265616479206d696e74656400000000604482015260640161048b565b6000818152600260205260409020546001600160a01b0316156115a55760405162461bcd60e51b815260206004820152601c60248201527f4552433732313a20746f6b656e20616c7265616479206d696e74656400000000604482015260640161048b565b6001600160a01b038216600081815260036020908152604080832080546001019055848352600290915280822080546001600160a01b0319168417905551839291907fddf252ad1be2c89b69c2b068fc378daa952ba7f163c4a11628f55a4df523b3ef908290a45050565b60008072184f03e93ff9f4daa797ed6e38ed64bf6a1f0160401b831061164f5772184f03e93ff9f4daa797ed6e38ed64bf6a1f0160401b830492506040015b6d04ee2d6d415b85acef8100000000831061167b576d04ee2d6d415b85acef8100000000830492506020015b662386f26fc10000831061169957662386f26fc10000830492506010015b6305f5e10083106116b1576305f5e100830492506008015b61271083106116c557612710830492506004015b606483106116d7576064830492506002015b600a83106103585760010192915050565b5080546116f490611a7e565b6000825580601f10611704575050565b601f01602090049060005260206000209081019061089f91905b80821115611732576000815560010161171e565b5090565b6001600160e01b03198116811461089f57600080fd5b60006020828403121561175e57600080fd5b813561112581611736565b60005b8381101561178457818101518382015260200161176c565b50506000910152565b600081518084526117a5816020860160208601611769565b601f01601f19169290920160200192915050565b602081526000611125602083018461178d565b6000602082840312156117de57600080fd5b5035919050565b80356001600160a01b03811681146117fc57600080fd5b919050565b6000806040838503121561181457600080fd5b61181d836117e5565b946020939093013593505050565b60008060006060848603121561184057600080fd5b611849846117e5565b9250611857602085016117e5565b9150604084013590509250925092565b6000806040838503121561187a57600080fd5b8235915061188a602084016117e5565b90509250929050565b6000602082840312156118a557600080fd5b611125826117e5565b600080604083850312156118c157600080fd5b6118ca836117e5565b9150602083013580151581146118df57600080fd5b809150509250929050565b634e487b7160e01b600052604160045260246000fd5b600067ffffffffffffffff8084111561191b5761191b6118ea565b604051601f8501601f19908116603f01168101908282118183101715611943576119436118ea565b8160405280935085815286868601111561195c57600080fd5b858560208301376000602087830101525050509392505050565b6000806000806080858703121561198c57600080fd5b611995856117e5565b93506119a3602086016117e5565b925060408501359150606085013567ffffffffffffffff8111156119c657600080fd5b8501601f810187136119d757600080fd5b6119e687823560208401611900565b91505092959194509250565b60008060408385031215611a0557600080fd5b611a0e836117e5565b9150602083013567ffffffffffffffff811115611a2a57600080fd5b8301601f81018513611a3b57600080fd5b611a4a85823560208401611900565b9150509250929050565b60008060408385031215611a6757600080fd5b611a70836117e5565b915061188a602084016117e5565b600181811c90821680611a9257607f821691505b602082108103611ab257634e487b7160e01b600052602260045260246000fd5b50919050565b6020808252602d908201527f4552433732313a2063616c6c6572206973206e6f7420746f6b656e206f776e6560408201526c1c881bdc88185c1c1c9bdd9959609a1b606082015260800190565b60208082526025908201527f4552433732313a207472616e736665722066726f6d20696e636f72726563742060408201526437bbb732b960d91b606082015260800190565b60208082526032908201527f4552433732313a207472616e7366657220746f206e6f6e20455243373231526560408201527131b2b4bb32b91034b6b83632b6b2b73a32b960711b606082015260800190565b60008351611bae818460208801611769565b835190830190611bc2818360208801611769565b01949350505050565b601f82111561052c57600081815260208120601f850160051c81016020861015611bf25750805b601f850160051c820191505b81811015611c1157828155600101611bfe565b505050505050565b815167ffffffffffffffff811115611c3357611c336118ea565b611c4781611c418454611a7e565b84611bcb565b602080601f831160018114611c7c5760008415611c645750858301515b600019600386901b1c1916600185901b178555611c11565b600085815260208120601f198616915b82811015611cab57888601518255948401946001909101908401611c8c565b5085821015611cc95787850151600019600388901b60f8161c191681555b5050505050600190811b01905550565b7f416363657373436f6e74726f6c3a206163636f756e7420000000000000000000815260008351611d11816017850160208801611769565b7001034b99036b4b9b9b4b733903937b6329607d1b6017918401918201528351611d42816028840160208801611769565b01602801949350505050565b6001600160a01b0385811682528416602082015260408101839052608060608201819052600090611d819083018461178d565b9695505050505050565b600060208284031215611d9d57600080fd5b815161112581611736565b634e487b7160e01b600052601160045260246000fd5b808202811582820484141761035857610358611da8565b8082018082111561035857610358611da8565b634e487b7160e01b600052603260045260246000fd5b600081611e0d57611e0d611da8565b50600019019056fe9f2df0fed2c77648de5860a4cc508cd0818c85b8b8a1ab4ceeef8d981c8956a6a264697066735822122059da466b7ecd5147a30e00d04a92cab2b72fb3c33796177f8ac06e280393415a64736f6c63430008150033",
  "linkReferences": {},
  "deployedLinkReferences": {}
}