{
  "_format": "hh-sol-artifact-1",
  "contractName": "HorsesNFT",
  "sourceName": "contracts/HorsesNFT.sol",
  "abi": [
    {
      "inputs": [],
      "stateMutability": "nonpayable",
      "type": "constructor"
    },
    {
      "anonymous": false,
      "inputs": [
        {
          "indexed": true,
          "internalType": "address",
          "name": "owner",
          "type": "address"
        },
        {
          "indexed": true,
          "internalType": "address",
          "name": "approved",
          "type": "address"
        },
        {
          "indexed": true,
          "internalType": "uint256",
          "name": "tokenId",
          "type": "uint256"
        }
      ],
      "name": "Approval",
      "type": "event"
    },
    {
      "anonymous": false,
      "inputs": [
        {
          "indexed": true,
          "internalType": "address",
          "name": "owner",
          "type": "address"
        },
        {
          "indexed": true,
          "internalType": "address",
          "name": "operator",
          "type": "address"
        },
        {
          "indexed": false,
          "internalType": "bool",
          "name": "approved",
          "type": "bool"
        }
      ],
      "name": "ApprovalForAll",
      "type": "event"
    },
    {
      "anonymous": false,
      "inputs": [
        {
          "indexed": false,
          "internalType": "uint256",
          "name": "_fromTokenId",
          "type": "uint256"
        },
        {
          "indexed": false,
          "internalType": "uint256",
          "name": "_toTokenId",
          "type": "uint256"
        }
      ],
      "name": "BatchMetadataUpdate",
      "type": "event"
    },
    {
      "anonymous": false,
      "inputs": [
        {
          "indexed": false,
          "internalType": "uint256",
          "name": "_tokenId",
          "type": "uint256"
        }
      ],
      "name": "MetadataUpdate",
      "type": "event"
    },
    {
      "anonymous": false,
      "inputs": [
        {
          "indexed": false,
          "internalType": "address",
          "name": "account",
          "type": "address"
        }
      ],
      "name": "Paused",
      "type": "event"
    },
    {
      "anonymous": false,
      "inputs": [
        {
          "indexed": true,
          "internalType": "bytes32",
          "name": "role",
          "type": "bytes32"
        },
        {
          "indexed": true,
          "internalType": "bytes32",
          "name": "previousAdminRole",
          "type": "bytes32"
        },
        {
          "indexed": true,
          "internalType": "bytes32",
          "name": "newAdminRole",
          "type": "bytes32"
        }
      ],
      "name": "RoleAdminChanged",
      "type": "event"
    },
    {
      "anonymous": false,
      "inputs": [
        {
          "indexed": true,
          "internalType": "bytes32",
          "name": "role",
          "type": "bytes32"
        },
        {
          "indexed": true,
          "internalType": "address",
          "name": "account",
          "type": "address"
        },
        {
          "indexed": true,
          "internalType": "address",
          "name": "sender",
          "type": "address"
        }
      ],
      "name": "RoleGranted",
      "type": "event"
    },
    {
      "anonymous": false,
      "inputs": [
        {
          "indexed": true,
          "internalType": "bytes32",
          "name": "role",
          "type": "bytes32"
        },
        {
          "indexed": true,
          "internalType": "address",
          "name": "account",
          "type": "address"
        },
        {
          "indexed": true,
          "internalType": "address",
          "name": "sender",
          "type": "address"
        }
      ],
      "name": "RoleRevoked",
      "type": "event"
    },
    {
      "anonymous": false,
      "inputs": [
        {
          "indexed": true,
          "internalType": "address",
          "name": "from",
          "type": "address"
        },
        {
          "indexed": true,
          "internalType": "address",
          "name": "to",
          "type": "address"
        },
        {
          "indexed": true,
          "internalType": "uint256",
          "name": "tokenId",
          "type": "uint256"
        }
      ],
      "name": "Transfer",
      "type": "event"
    },
    {
      "anonymous": false,
      "inputs": [
        {
          "indexed": false,
          "internalType": "address",
          "name": "account",
          "type": "address"
        }
      ],
      "name": "Unpaused",
      "type": "event"
    },
    {
      "inputs": [],
      "name": "DEFAULT_ADMIN_ROLE",
      "outputs": [
        {
          "internalType": "bytes32",
          "name": "",
          "type": "bytes32"
        }
      ],
      "stateMutability": "view",
      "type": "function"
    },
    {
      "inputs": [],
      "name": "MINTER_ROLE",
      "outputs": [
        {
          "internalType": "bytes32",
          "name": "",
          "type": "bytes32"
        }
      ],
      "stateMutability": "view",
      "type": "function"
    },
    {
      "inputs": [
        {
          "internalType": "address",
          "name": "to",
          "type": "address"
        },
        {
          "internalType": "uint256",
          "name": "tokenId",
          "type": "uint256"
        }
      ],
      "name": "approve",
      "outputs": [],
      "stateMutability": "nonpayable",
      "type": "function"
    },
    {
      "inputs": [
        {
          "internalType": "address",
          "name": "owner",
          "type": "address"
        }
      ],
      "name": "balanceOf",
      "outputs": [
        {
          "internalType": "uint256",
          "name": "",
          "type": "uint256"
        }
      ],
      "stateMutability": "view",
      "type": "function"
    },
    {
      "inputs": [
        {
          "internalType": "uint256",
          "name": "tokenId",
          "type": "uint256"
        }
      ],
      "name": "burn",
      "outputs": [],
      "stateMutability": "nonpayable",
      "type": "function"
    },
    {
      "inputs": [
        {
          "internalType": "uint256",
          "name": "tokenId",
          "type": "uint256"
        }
      ],
      "name": "getApproved",
      "outputs": [
        {
          "internalType": "address",
          "name": "",
          "type": "address"
        }
      ],
      "stateMutability": "view",
      "type": "function"
    },
    {
      "inputs": [
        {
          "internalType": "bytes32",
          "name": "role",
          "type": "bytes32"
        }
      ],
      "name": "getRoleAdmin",
      "outputs": [
        {
          "internalType": "bytes32",
          "name": "",
          "type": "bytes32"
        }
      ],
      "stateMutability": "view",
      "type": "function"
    },
    {
      "inputs": [
        {
          "internalType": "bytes32",
          "name": "role",
          "type": "bytes32"
        },
        {
          "internalType": "address",
          "name": "account",
          "type": "address"
        }
      ],
      "name": "grantRole",
      "outputs": [],
      "stateMutability": "nonpayable",
      "type": "function"
    },
    {
      "inputs": [
        {
          "internalType": "bytes32",
          "name": "role",
          "type": "bytes32"
        },
        {
          "internalType": "address",
          "name": "account",
          "type": "address"
        }
      ],
      "name": "hasRole",
      "outputs": [
        {
          "internalType": "bool",
          "name": "",
          "type": "bool"
        }
      ],
      "stateMutability": "view",
      "type": "function"
    },
    {
      "inputs": [
        {
          "internalType": "address",
          "name": "owner",
          "type": "address"
        },
        {
          "internalType": "address",
          "name": "operator",
          "type": "address"
        }
      ],
      "name": "isApprovedForAll",
      "outputs": [
        {
          "internalType": "bool",
          "name": "",
          "type": "bool"
        }
      ],
      "stateMutability": "view",
      "type": "function"
    },
    {
      "inputs": [],
      "name": "name",
      "outputs": [
        {
          "internalType": "string",
          "name": "",
          "type": "string"
        }
      ],
      "stateMutability": "view",
      "type": "function"
    },
    {
      "inputs": [
        {
          "internalType": "uint256",
          "name": "tokenId",
          "type": "uint256"
        }
      ],
      "name": "ownerOf",
      "outputs": [
        {
          "internalType": "address",
          "name": "",
          "type": "address"
        }
      ],
      "stateMutability": "view",
      "type": "function"
    },
    {
      "inputs": [],
      "name": "pause",
      "outputs": [],
      "stateMutability": "nonpayable",
      "type": "function"
    },
    {
      "inputs": [],
      "name": "paused",
      "outputs": [
        {
          "internalType": "bool",
          "name": "",
          "type": "bool"
        }
      ],
      "stateMutability": "view",
      "type": "function"
    },
    {
      "inputs": [
        {
          "internalType": "bytes32",
          "name": "role",
          "type": "bytes32"
        },
        {
          "internalType": "address",
          "name": "account",
          "type": "address"
        }
      ],
      "name": "renounceRole",
      "outputs": [],
      "stateMutability": "nonpayable",
      "type": "function"
    },
    {
      "inputs": [
        {
          "internalType": "bytes32",
          "name": "role",
          "type": "bytes32"
        },
        {
          "internalType": "address",
          "name": "account",
          "type": "address"
        }
      ],
      "name": "revokeRole",
      "outputs": [],
      "stateMutability": "nonpayable",
      "type": "function"
    },
    {
      "inputs": [
        {
          "internalType": "address",
          "name": "to",
          "type": "address"
        },
        {
          "internalType": "string",
          "name": "uri",
          "type": "string"
        }
      ],
      "name": "safeMint",
      "outputs": [],
      "stateMutability": "nonpayable",
      "type": "function"
    },
    {
      "inputs": [
        {
          "internalType": "address",
          "name": "from",
          "type": "address"
        },
        {
          "internalType": "address",
          "name": "to",
          "type": "address"
        },
        {
          "internalType": "uint256",
          "name": "tokenId",
          "type": "uint256"
        }
      ],
      "name": "safeTransferFrom",
      "outputs": [],
      "stateMutability": "nonpayable",
      "type": "function"
    },
    {
      "inputs": [
        {
          "internalType": "address",
          "name": "from",
          "type": "address"
        },
        {
          "internalType": "address",
          "name": "to",
          "type": "address"
        },
        {
          "internalType": "uint256",
          "name": "tokenId",
          "type": "uint256"
        },
        {
          "internalType": "bytes",
          "name": "data",
          "type": "bytes"
        }
      ],
      "name": "safeTransferFrom",
      "outputs": [],
      "stateMutability": "nonpayable",
      "type": "function"
    },
    {
      "inputs": [
        {
          "internalType": "address",
          "name": "operator",
          "type": "address"
        },
        {
          "internalType": "bool",
          "name": "approved",
          "type": "bool"
        }
      ],
      "name": "setApprovalForAll",
      "outputs": [],
      "stateMutability": "nonpayable",
      "type": "function"
    },
    {
      "inputs": [
        {
          "internalType": "bytes4",
          "name": "interfaceId",
          "type": "bytes4"
        }
      ],
      "name": "supportsInterface",
      "outputs": [
        {
          "internalType": "bool",
          "name": "",
          "type": "bool"
        }
      ],
      "stateMutability": "view",
      "type": "function"
    },
    {
      "inputs": [],
      "name": "symbol",
      "outputs": [
        {
          "internalType": "string",
          "name": "",
          "type": "string"
        }
      ],
      "stateMutability": "view",
      "type": "function"
    },
    {
      "inputs": [
        {
          "internalType": "uint256",
          "name": "tokenId",
          "type": "uint256"
        }
      ],
      "name": "tokenURI",
      "outputs": [
        {
          "internalType": "string",
          "name": "",
          "type": "string"
        }
      ],
      "stateMutability": "view",
      "type": "function"
    },
    {
      "inputs": [
        {
          "internalType": "address",
          "name": "from",
          "type": "address"
        },
        {
          "internalType": "address",
          "name": "to",
          "type": "address"
        },
        {
          "internalType": "uint256",
          "name": "tokenId",
          "type": "uint256"
        }
      ],
      "name": "transferFrom",
      "outputs": [],
      "stateMutability": "nonpayable",
      "type": "function"
    },
    {
      "inputs": [],
      "name": "unpause",
      "outputs": [],
      "stateMutability": "nonpayable",
      "type": "function"
    }
  ],
  "bytecode": "0x60806040523480156200001157600080fd5b5060405180604001604052806009815260200168121bdc9cd95cd3919560ba1b815250604051806040016040528060038152602001622427a960e91b815250816000908162000061919062000206565b50600162000070828262000206565b50506008805460ff19169055506200008a600033620000bc565b620000b67f9f2df0fed2c77648de5860a4cc508cd0818c85b8b8a1ab4ceeef8d981c8956a633620000bc565b620002d2565b60008281526007602090815260408083206001600160a01b038516845290915290205460ff166200015d5760008281526007602090815260408083206001600160a01b03851684529091529020805460ff191660011790556200011c3390565b6001600160a01b0316816001600160a01b0316837f2f8788117e7eff1d82e926ec794901d17c78024a50270940304540a733656f0d60405160405180910390a45b5050565b634e487b7160e01b600052604160045260246000fd5b600181811c908216806200018c57607f821691505b602082108103620001ad57634e487b7160e01b600052602260045260246000fd5b50919050565b601f8211156200020157600081815260208120601f850160051c81016020861015620001dc5750805b601f850160051c820191505b81811015620001fd57828155600101620001e8565b5050505b505050565b81516001600160401b0381111562000222576200022262000161565b6200023a8162000233845462000177565b84620001b3565b602080601f831160018114620002725760008415620002595750858301515b600019600386901b1c1916600185901b178555620001fd565b600085815260208120601f198616915b82811015620002a35788860151825594840194600190910190840162000282565b5085821015620002c25787850151600019600388901b60f8161c191681555b5050505050600190811b01905550565b61202880620002e26000396000f3fe608060405234801561001057600080fd5b50600436106101735760003560e01c80636352211e116100de578063a22cb46511610097578063d204c45e11610071578063d204c45e14610322578063d539139314610335578063d547741f1461034a578063e985e9c51461035d57600080fd5b8063a22cb465146102e9578063b88d4fde146102fc578063c87b56dd1461030f57600080fd5b80636352211e1461029857806370a08231146102ab5780638456cb59146102be57806391d14854146102c657806395d89b41146102d9578063a217fddf146102e157600080fd5b80632f2ff15d116101305780632f2ff15d1461023957806336568abe1461024c5780633f4ba83a1461025f57806342842e0e1461026757806342966c681461027a5780635c975abb1461028d57600080fd5b806301ffc9a71461017857806306fdde03146101a0578063081812fc146101b5578063095ea7b3146101e057806323b872dd146101f5578063248a9ca314610208575b600080fd5b61018b61018636600461190e565b610399565b60405190151581526020015b60405180910390f35b6101a86103b4565b604051610197919061197b565b6101c86101c336600461198e565b610446565b6040516001600160a01b039091168152602001610197565b6101f36101ee3660046119be565b61046d565b005b6101f36102033660046119e8565b610587565b61022b61021636600461198e565b60009081526007602052604090206001015490565b604051908152602001610197565b6101f3610247366004611a24565b6105b8565b6101f361025a366004611a24565b6105dd565b6101f361065b565b6101f36102753660046119e8565b610671565b6101f361028836600461198e565b61068c565b60085460ff1661018b565b6101c86102a636600461198e565b6106b5565b61022b6102b9366004611a50565b61071b565b6101f36107a1565b61018b6102d4366004611a24565b6107b4565b6101a86107df565b61022b600081565b6101f36102f7366004611a6b565b6107ee565b6101f361030a366004611b33565b6107f9565b6101a861031d36600461198e565b610831565b6101f3610330366004611baf565b610844565b61022b600080516020611fd383398151915281565b6101f3610358366004611a24565b610893565b61018b61036b366004611c11565b6001600160a01b03918216600090815260056020908152604080832093909416825291909152205460ff1690565b60006103a36108b8565b6103ac82610900565b90505b919050565b6060600080546103c390611c3b565b80601f01602080910402602001604051908101604052809291908181526020018280546103ef90611c3b565b801561043c5780601f106104115761010080835404028352916020019161043c565b820191906000526020600020905b81548152906001019060200180831161041f57829003601f168201915b5050505050905090565b600061045182610925565b506000908152600460205260409020546001600160a01b031690565b6000610478826106b5565b9050806001600160a01b0316836001600160a01b0316036104ea5760405162461bcd60e51b815260206004820152602160248201527f4552433732313a20617070726f76616c20746f2063757272656e74206f776e656044820152603960f91b60648201526084015b60405180910390fd5b336001600160a01b03821614806105065750610506813361036b565b6105785760405162461bcd60e51b815260206004820152603d60248201527f4552433732313a20617070726f76652063616c6c6572206973206e6f7420746f60448201527f6b656e206f776e6572206f7220617070726f76656420666f7220616c6c00000060648201526084016104e1565b6105828383610984565b505050565b61059133826109f2565b6105ad5760405162461bcd60e51b81526004016104e190611c75565b610582838383610a71565b6000828152600760205260409020600101546105d381610bd5565b6105828383610bdf565b6001600160a01b038116331461064d5760405162461bcd60e51b815260206004820152602f60248201527f416363657373436f6e74726f6c3a2063616e206f6e6c792072656e6f756e636560448201526e103937b632b9903337b91039b2b63360891b60648201526084016104e1565b6106578282610c65565b5050565b600061066681610bd5565b61066e610ccc565b50565b610582838383604051806020016040528060008152506107f9565b600080516020611fd38339815191526106a481610bd5565b6106ac6108b8565b61065782610d1e565b6000818152600260205260408120546001600160a01b0316806107155760405162461bcd60e51b8152602060048201526018602482015277115490cdcc8c4e881a5b9d985b1a59081d1bdad95b88125160421b60448201526064016104e1565b92915050565b60006001600160a01b0382166107855760405162461bcd60e51b815260206004820152602960248201527f4552433732313a2061646472657373207a65726f206973206e6f7420612076616044820152683634b21037bbb732b960b91b60648201526084016104e1565b506001600160a01b031660009081526003602052604090205490565b60006107ac81610bd5565b61066e610d47565b60009182526007602090815260408084206001600160a01b0393909316845291905290205460ff1690565b6060600180546103c390611c3b565b610657338383610d84565b61080333836109f2565b61081f5760405162461bcd60e51b81526004016104e190611c75565b61082b84848484610e52565b50505050565b606061083b6108b8565b6103ac82610e85565b600080516020611fd383398151915261085c81610bd5565b6108646108b8565b600061086f60095490565b905061087f600980546001019055565b6108898482610f8d565b61082b8184610fa7565b6000828152600760205260409020600101546108ae81610bd5565b6105828383610c65565b60085460ff16156108fe5760405162461bcd60e51b815260206004820152601060248201526f14185d5cd8589b194e881c185d5cd95960821b60448201526064016104e1565b565b60006001600160e01b03198216637965db0b60e01b14806103ac57506103ac82611072565b6000818152600260205260409020546001600160a01b031661066e5760405162461bcd60e51b8152602060048201526018602482015277115490cdcc8c4e881a5b9d985b1a59081d1bdad95b88125160421b60448201526064016104e1565b600081815260046020526040902080546001600160a01b0319166001600160a01b03841690811790915581906109b9826106b5565b6001600160a01b03167f8c5be1e5ebec7d5bd14f71427d1e84f3dd0314c0f7b2291e5b200ac8c7c3b92560405160405180910390a45050565b6000806109fe836106b5565b9050806001600160a01b0316846001600160a01b03161480610a4557506001600160a01b0380821660009081526005602090815260408083209388168352929052205460ff165b80610a695750836001600160a01b0316610a5e84610446565b6001600160a01b0316145b949350505050565b826001600160a01b0316610a84826106b5565b6001600160a01b031614610aaa5760405162461bcd60e51b81526004016104e190611cc2565b6001600160a01b038216610b0c5760405162461bcd60e51b8152602060048201526024808201527f4552433732313a207472616e7366657220746f20746865207a65726f206164646044820152637265737360e01b60648201526084016104e1565b826001600160a01b0316610b1f826106b5565b6001600160a01b031614610b455760405162461bcd60e51b81526004016104e190611cc2565b600081815260046020908152604080832080546001600160a01b03199081169091556001600160a01b0387811680865260038552838620805460001901905590871680865283862080546001019055868652600290945282852080549092168417909155905184937fddf252ad1be2c89b69c2b068fc378daa952ba7f163c4a11628f55a4df523b3ef91a4505050565b61066e8133611097565b610be982826107b4565b6106575760008281526007602090815260408083206001600160a01b03851684529091529020805460ff19166001179055610c213390565b6001600160a01b0316816001600160a01b0316837f2f8788117e7eff1d82e926ec794901d17c78024a50270940304540a733656f0d60405160405180910390a45050565b610c6f82826107b4565b156106575760008281526007602090815260408083206001600160a01b0385168085529252808320805460ff1916905551339285917ff6391f5c32d9c69d2a47ea670b442974b53935d1edc7fd64eb21e047a839171b9190a45050565b610cd46110f0565b6008805460ff191690557f5db9ee0a495bf2e6ff9c91a7834c1ba4fdd244a5e8aa4e537bd38aeae4b073aa335b6040516001600160a01b03909116815260200160405180910390a1565b600080516020611fd3833981519152610d3681610bd5565b610d3e6108b8565b61065782611139565b610d4f6108b8565b6008805460ff191660011790557f62e78cea01bee320cd4e420270b5ea74000d11b0c9f74754ebdbfc544b05a258610d013390565b816001600160a01b0316836001600160a01b031603610de55760405162461bcd60e51b815260206004820152601960248201527f4552433732313a20617070726f766520746f2063616c6c65720000000000000060448201526064016104e1565b6001600160a01b03838116600081815260056020908152604080832094871680845294825291829020805460ff191686151590811790915591519182527f17307eab39ab6107e8899845ad3d59bd9653f200f220920489ca2b5937696c31910160405180910390a3505050565b610e5d848484610a71565b610e6984848484611179565b61082b5760405162461bcd60e51b81526004016104e190611d07565b6060610e9082610925565b60008281526006602052604081208054610ea990611c3b565b80601f0160208091040260200160405190810160405280929190818152602001828054610ed590611c3b565b8015610f225780601f10610ef757610100808354040283529160200191610f22565b820191906000526020600020905b815481529060010190602001808311610f0557829003601f168201915b505050505090506000610f4060408051602081019091526000815290565b90508051600003610f52575092915050565b815115610f84578082604051602001610f6c929190611d59565b60405160208183030381529060405292505050919050565b610a698461127a565b6106578282604051806020016040528060008152506112ee565b6000828152600260205260409020546001600160a01b03166110225760405162461bcd60e51b815260206004820152602e60248201527f45524337323155524953746f726167653a2055524920736574206f66206e6f6e60448201526d32bc34b9ba32b73a103a37b5b2b760911b60648201526084016104e1565b600082815260066020526040902061103a8282611dd6565b506040518281527ff8e1a15aba9398e019f0b49df1a4fde98ee17ae345cb5f6b5e2c27f5033e8ce79060200160405180910390a15050565b60006001600160e01b03198216632483248360e11b14806103ac57506103ac82611321565b6110a182826107b4565b610657576110ae81611371565b6110b9836020611383565b6040516020016110ca929190611e96565b60408051601f198184030181529082905262461bcd60e51b82526104e19160040161197b565b60085460ff166108fe5760405162461bcd60e51b815260206004820152601460248201527314185d5cd8589b194e881b9bdd081c185d5cd95960621b60448201526064016104e1565b6111428161151f565b6000818152600660205260409020805461115b90611c3b565b15905061066e57600081815260066020526040812061066e916118aa565b60006001600160a01b0384163b1561126f57604051630a85bd0160e11b81526001600160a01b0385169063150b7a02906111bd903390899088908890600401611f0b565b6020604051808303816000875af19250505080156111f8575060408051601f3d908101601f191682019092526111f591810190611f48565b60015b611255573d808015611226576040519150601f19603f3d011682016040523d82523d6000602084013e61122b565b606091505b50805160000361124d5760405162461bcd60e51b81526004016104e190611d07565b805181602001fd5b6001600160e01b031916630a85bd0160e11b149050610a69565b506001949350505050565b606061128582610925565b600061129c60408051602081019091526000815290565b905060008151116112bc57604051806020016040528060008152506112e7565b806112c6846115b4565b6040516020016112d7929190611d59565b6040516020818303038152906040525b9392505050565b6112f88383611647565b6113056000848484611179565b6105825760405162461bcd60e51b81526004016104e190611d07565b60006001600160e01b031982166380ac58cd60e01b148061135257506001600160e01b03198216635b5e139f60e01b145b806103ac57506301ffc9a760e01b6001600160e01b03198316146103ac565b60606103ac6001600160a01b03831660145b60606000611392836002611f7b565b61139d906002611f92565b67ffffffffffffffff8111156113b5576113b5611aa7565b6040519080825280601f01601f1916602001820160405280156113df576020820181803683370190505b509050600360fc1b816000815181106113fa576113fa611fa5565b60200101906001600160f81b031916908160001a905350600f60fb1b8160018151811061142957611429611fa5565b60200101906001600160f81b031916908160001a905350600061144d846002611f7b565b611458906001611f92565b90505b60018111156114d0576f181899199a1a9b1b9c1cb0b131b232b360811b85600f166010811061148c5761148c611fa5565b1a60f81b8282815181106114a2576114a2611fa5565b60200101906001600160f81b031916908160001a90535060049490941c936114c981611fbb565b905061145b565b5083156112e75760405162461bcd60e51b815260206004820181905260248201527f537472696e67733a20686578206c656e67746820696e73756666696369656e7460448201526064016104e1565b600061152a826106b5565b9050611535826106b5565b600083815260046020908152604080832080546001600160a01b03199081169091556001600160a01b0385168085526003845282852080546000190190558785526002909352818420805490911690555192935084927fddf252ad1be2c89b69c2b068fc378daa952ba7f163c4a11628f55a4df523b3ef908390a45050565b606060006115c1836117d2565b600101905060008167ffffffffffffffff8111156115e1576115e1611aa7565b6040519080825280601f01601f19166020018201604052801561160b576020820181803683370190505b5090508181016020015b600019016f181899199a1a9b1b9c1cb0b131b232b360811b600a86061a8153600a850494508461161557509392505050565b6001600160a01b03821661169d5760405162461bcd60e51b815260206004820181905260248201527f4552433732313a206d696e7420746f20746865207a65726f206164647265737360448201526064016104e1565b6000818152600260205260409020546001600160a01b0316156117025760405162461bcd60e51b815260206004820152601c60248201527f4552433732313a20746f6b656e20616c7265616479206d696e7465640000000060448201526064016104e1565b6000818152600260205260409020546001600160a01b0316156117675760405162461bcd60e51b815260206004820152601c60248201527f4552433732313a20746f6b656e20616c7265616479206d696e7465640000000060448201526064016104e1565b6001600160a01b038216600081815260036020908152604080832080546001019055848352600290915280822080546001600160a01b0319168417905551839291907fddf252ad1be2c89b69c2b068fc378daa952ba7f163c4a11628f55a4df523b3ef908290a45050565b60008072184f03e93ff9f4daa797ed6e38ed64bf6a1f0160401b83106118115772184f03e93ff9f4daa797ed6e38ed64bf6a1f0160401b830492506040015b6d04ee2d6d415b85acef8100000000831061183d576d04ee2d6d415b85acef8100000000830492506020015b662386f26fc10000831061185b57662386f26fc10000830492506010015b6305f5e1008310611873576305f5e100830492506008015b612710831061188757612710830492506004015b60648310611899576064830492506002015b600a83106107155760010192915050565b5080546118b690611c3b565b6000825580601f106118c6575050565b601f01602090049060005260206000209081019061066e91905b808211156118f457600081556001016118e0565b5090565b6001600160e01b03198116811461066e57600080fd5b60006020828403121561192057600080fd5b81356112e7816118f8565b60005b8381101561194657818101518382015260200161192e565b50506000910152565b6000815180845261196781602086016020860161192b565b601f01601f19169290920160200192915050565b6020815260006112e7602083018461194f565b6000602082840312156119a057600080fd5b5035919050565b80356001600160a01b03811681146103af57600080fd5b600080604083850312156119d157600080fd5b6119da836119a7565b946020939093013593505050565b6000806000606084860312156119fd57600080fd5b611a06846119a7565b9250611a14602085016119a7565b9150604084013590509250925092565b60008060408385031215611a3757600080fd5b82359150611a47602084016119a7565b90509250929050565b600060208284031215611a6257600080fd5b6112e7826119a7565b60008060408385031215611a7e57600080fd5b611a87836119a7565b915060208301358015158114611a9c57600080fd5b809150509250929050565b634e487b7160e01b600052604160045260246000fd5b600067ffffffffffffffff80841115611ad857611ad8611aa7565b604051601f8501601f19908116603f01168101908282118183101715611b0057611b00611aa7565b81604052809350858152868686011115611b1957600080fd5b858560208301376000602087830101525050509392505050565b60008060008060808587031215611b4957600080fd5b611b52856119a7565b9350611b60602086016119a7565b925060408501359150606085013567ffffffffffffffff811115611b8357600080fd5b8501601f81018713611b9457600080fd5b611ba387823560208401611abd565b91505092959194509250565b60008060408385031215611bc257600080fd5b611bcb836119a7565b9150602083013567ffffffffffffffff811115611be757600080fd5b8301601f81018513611bf857600080fd5b611c0785823560208401611abd565b9150509250929050565b60008060408385031215611c2457600080fd5b611c2d836119a7565b9150611a47602084016119a7565b600181811c90821680611c4f57607f821691505b602082108103611c6f57634e487b7160e01b600052602260045260246000fd5b50919050565b6020808252602d908201527f4552433732313a2063616c6c6572206973206e6f7420746f6b656e206f776e6560408201526c1c881bdc88185c1c1c9bdd9959609a1b606082015260800190565b60208082526025908201527f4552433732313a207472616e736665722066726f6d20696e636f72726563742060408201526437bbb732b960d91b606082015260800190565b60208082526032908201527f4552433732313a207472616e7366657220746f206e6f6e20455243373231526560408201527131b2b4bb32b91034b6b83632b6b2b73a32b960711b606082015260800190565b60008351611d6b81846020880161192b565b835190830190611d7f81836020880161192b565b01949350505050565b601f82111561058257600081815260208120601f850160051c81016020861015611daf5750805b601f850160051c820191505b81811015611dce57828155600101611dbb565b505050505050565b815167ffffffffffffffff811115611df057611df0611aa7565b611e0481611dfe8454611c3b565b84611d88565b602080601f831160018114611e395760008415611e215750858301515b600019600386901b1c1916600185901b178555611dce565b600085815260208120601f198616915b82811015611e6857888601518255948401946001909101908401611e49565b5085821015611e865787850151600019600388901b60f8161c191681555b5050505050600190811b01905550565b7f416363657373436f6e74726f6c3a206163636f756e7420000000000000000000815260008351611ece81601785016020880161192b565b7001034b99036b4b9b9b4b733903937b6329607d1b6017918401918201528351611eff81602884016020880161192b565b01602801949350505050565b6001600160a01b0385811682528416602082015260408101839052608060608201819052600090611f3e9083018461194f565b9695505050505050565b600060208284031215611f5a57600080fd5b81516112e7816118f8565b634e487b7160e01b600052601160045260246000fd5b808202811582820484141761071557610715611f65565b8082018082111561071557610715611f65565b634e487b7160e01b600052603260045260246000fd5b600081611fca57611fca611f65565b50600019019056fe9f2df0fed2c77648de5860a4cc508cd0818c85b8b8a1ab4ceeef8d981c8956a6a26469706673582212205db309b547e374e3daf9fbca2d039fe2ef99a65cc29f8a8b2270d68084ddb70664736f6c63430008150033",
  "linkReferences": {},
  "deployedLinkReferences": {}
}