{
  "_format": "hh-sol-artifact-1",
  "contractName": "AvatarNFT",
  "sourceName": "contracts/avatarMarket/AvatarNFT.sol",
  "abi": [
    {
      "inputs": [
        {
          "internalType": "string",
          "name": "_initialBaseURI",
          "type": "string"
        }
      ],
      "stateMutability": "nonpayable",
      "type": "constructor"
    },
    {
      "anonymous": false,
      "inputs": [
        {
          "indexed": true,
          "internalType": "address",
          "name": "owner",
          "type": "address"
        },
        {
          "indexed": true,
          "internalType": "address",
          "name": "approved",
          "type": "address"
        },
        {
          "indexed": true,
          "internalType": "uint256",
          "name": "tokenId",
          "type": "uint256"
        }
      ],
      "name": "Approval",
      "type": "event"
    },
    {
      "anonymous": false,
      "inputs": [
        {
          "indexed": true,
          "internalType": "address",
          "name": "owner",
          "type": "address"
        },
        {
          "indexed": true,
          "internalType": "address",
          "name": "operator",
          "type": "address"
        },
        {
          "indexed": false,
          "internalType": "bool",
          "name": "approved",
          "type": "bool"
        }
      ],
      "name": "ApprovalForAll",
      "type": "event"
    },
    {
      "anonymous": false,
      "inputs": [
        {
          "indexed": false,
          "internalType": "uint256",
          "name": "_fromTokenId",
          "type": "uint256"
        },
        {
          "indexed": false,
          "internalType": "uint256",
          "name": "_toTokenId",
          "type": "uint256"
        }
      ],
      "name": "BatchMetadataUpdate",
      "type": "event"
    },
    {
      "anonymous": false,
      "inputs": [
        {
          "indexed": false,
          "internalType": "uint256",
          "name": "_tokenId",
          "type": "uint256"
        }
      ],
      "name": "MetadataUpdate",
      "type": "event"
    },
    {
      "anonymous": false,
      "inputs": [
        {
          "indexed": false,
          "internalType": "address",
          "name": "account",
          "type": "address"
        }
      ],
      "name": "Paused",
      "type": "event"
    },
    {
      "anonymous": false,
      "inputs": [
        {
          "indexed": true,
          "internalType": "bytes32",
          "name": "role",
          "type": "bytes32"
        },
        {
          "indexed": true,
          "internalType": "bytes32",
          "name": "previousAdminRole",
          "type": "bytes32"
        },
        {
          "indexed": true,
          "internalType": "bytes32",
          "name": "newAdminRole",
          "type": "bytes32"
        }
      ],
      "name": "RoleAdminChanged",
      "type": "event"
    },
    {
      "anonymous": false,
      "inputs": [
        {
          "indexed": true,
          "internalType": "bytes32",
          "name": "role",
          "type": "bytes32"
        },
        {
          "indexed": true,
          "internalType": "address",
          "name": "account",
          "type": "address"
        },
        {
          "indexed": true,
          "internalType": "address",
          "name": "sender",
          "type": "address"
        }
      ],
      "name": "RoleGranted",
      "type": "event"
    },
    {
      "anonymous": false,
      "inputs": [
        {
          "indexed": true,
          "internalType": "bytes32",
          "name": "role",
          "type": "bytes32"
        },
        {
          "indexed": true,
          "internalType": "address",
          "name": "account",
          "type": "address"
        },
        {
          "indexed": true,
          "internalType": "address",
          "name": "sender",
          "type": "address"
        }
      ],
      "name": "RoleRevoked",
      "type": "event"
    },
    {
      "anonymous": false,
      "inputs": [
        {
          "indexed": true,
          "internalType": "address",
          "name": "from",
          "type": "address"
        },
        {
          "indexed": true,
          "internalType": "address",
          "name": "to",
          "type": "address"
        },
        {
          "indexed": true,
          "internalType": "uint256",
          "name": "tokenId",
          "type": "uint256"
        }
      ],
      "name": "Transfer",
      "type": "event"
    },
    {
      "anonymous": false,
      "inputs": [
        {
          "indexed": false,
          "internalType": "address",
          "name": "account",
          "type": "address"
        }
      ],
      "name": "Unpaused",
      "type": "event"
    },
    {
      "inputs": [],
      "name": "DEFAULT_ADMIN_ROLE",
      "outputs": [
        {
          "internalType": "bytes32",
          "name": "",
          "type": "bytes32"
        }
      ],
      "stateMutability": "view",
      "type": "function"
    },
    {
      "inputs": [],
      "name": "MINTER_ROLE",
      "outputs": [
        {
          "internalType": "bytes32",
          "name": "",
          "type": "bytes32"
        }
      ],
      "stateMutability": "view",
      "type": "function"
    },
    {
      "inputs": [
        {
          "internalType": "address",
          "name": "to",
          "type": "address"
        },
        {
          "internalType": "uint256",
          "name": "tokenId",
          "type": "uint256"
        }
      ],
      "name": "approve",
      "outputs": [],
      "stateMutability": "nonpayable",
      "type": "function"
    },
    {
      "inputs": [
        {
          "internalType": "address",
          "name": "owner",
          "type": "address"
        }
      ],
      "name": "balanceOf",
      "outputs": [
        {
          "internalType": "uint256",
          "name": "",
          "type": "uint256"
        }
      ],
      "stateMutability": "view",
      "type": "function"
    },
    {
      "inputs": [
        {
          "internalType": "uint256",
          "name": "_tokenId",
          "type": "uint256"
        }
      ],
      "name": "burn",
      "outputs": [],
      "stateMutability": "nonpayable",
      "type": "function"
    },
    {
      "inputs": [
        {
          "internalType": "uint256",
          "name": "tokenId",
          "type": "uint256"
        }
      ],
      "name": "getApproved",
      "outputs": [
        {
          "internalType": "address",
          "name": "",
          "type": "address"
        }
      ],
      "stateMutability": "view",
      "type": "function"
    },
    {
      "inputs": [
        {
          "internalType": "bytes32",
          "name": "role",
          "type": "bytes32"
        }
      ],
      "name": "getRoleAdmin",
      "outputs": [
        {
          "internalType": "bytes32",
          "name": "",
          "type": "bytes32"
        }
      ],
      "stateMutability": "view",
      "type": "function"
    },
    {
      "inputs": [
        {
          "internalType": "bytes32",
          "name": "role",
          "type": "bytes32"
        },
        {
          "internalType": "address",
          "name": "account",
          "type": "address"
        }
      ],
      "name": "grantRole",
      "outputs": [],
      "stateMutability": "nonpayable",
      "type": "function"
    },
    {
      "inputs": [
        {
          "internalType": "bytes32",
          "name": "role",
          "type": "bytes32"
        },
        {
          "internalType": "address",
          "name": "account",
          "type": "address"
        }
      ],
      "name": "hasRole",
      "outputs": [
        {
          "internalType": "bool",
          "name": "",
          "type": "bool"
        }
      ],
      "stateMutability": "view",
      "type": "function"
    },
    {
      "inputs": [
        {
          "internalType": "address",
          "name": "owner",
          "type": "address"
        },
        {
          "internalType": "address",
          "name": "operator",
          "type": "address"
        }
      ],
      "name": "isApprovedForAll",
      "outputs": [
        {
          "internalType": "bool",
          "name": "",
          "type": "bool"
        }
      ],
      "stateMutability": "view",
      "type": "function"
    },
    {
      "inputs": [],
      "name": "name",
      "outputs": [
        {
          "internalType": "string",
          "name": "",
          "type": "string"
        }
      ],
      "stateMutability": "view",
      "type": "function"
    },
    {
      "inputs": [
        {
          "internalType": "uint256",
          "name": "tokenId",
          "type": "uint256"
        }
      ],
      "name": "ownerOf",
      "outputs": [
        {
          "internalType": "address",
          "name": "",
          "type": "address"
        }
      ],
      "stateMutability": "view",
      "type": "function"
    },
    {
      "inputs": [],
      "name": "pause",
      "outputs": [],
      "stateMutability": "nonpayable",
      "type": "function"
    },
    {
      "inputs": [],
      "name": "paused",
      "outputs": [
        {
          "internalType": "bool",
          "name": "",
          "type": "bool"
        }
      ],
      "stateMutability": "view",
      "type": "function"
    },
    {
      "inputs": [
        {
          "internalType": "bytes32",
          "name": "role",
          "type": "bytes32"
        },
        {
          "internalType": "address",
          "name": "account",
          "type": "address"
        }
      ],
      "name": "renounceRole",
      "outputs": [],
      "stateMutability": "nonpayable",
      "type": "function"
    },
    {
      "inputs": [
        {
          "internalType": "bytes32",
          "name": "role",
          "type": "bytes32"
        },
        {
          "internalType": "address",
          "name": "account",
          "type": "address"
        }
      ],
      "name": "revokeRole",
      "outputs": [],
      "stateMutability": "nonpayable",
      "type": "function"
    },
    {
      "inputs": [
        {
          "internalType": "address",
          "name": "_to",
          "type": "address"
        }
      ],
      "name": "safeMint",
      "outputs": [],
      "stateMutability": "nonpayable",
      "type": "function"
    },
    {
      "inputs": [
        {
          "internalType": "address",
          "name": "from",
          "type": "address"
        },
        {
          "internalType": "address",
          "name": "to",
          "type": "address"
        },
        {
          "internalType": "uint256",
          "name": "tokenId",
          "type": "uint256"
        }
      ],
      "name": "safeTransferFrom",
      "outputs": [],
      "stateMutability": "nonpayable",
      "type": "function"
    },
    {
      "inputs": [
        {
          "internalType": "address",
          "name": "from",
          "type": "address"
        },
        {
          "internalType": "address",
          "name": "to",
          "type": "address"
        },
        {
          "internalType": "uint256",
          "name": "tokenId",
          "type": "uint256"
        },
        {
          "internalType": "bytes",
          "name": "data",
          "type": "bytes"
        }
      ],
      "name": "safeTransferFrom",
      "outputs": [],
      "stateMutability": "nonpayable",
      "type": "function"
    },
    {
      "inputs": [
        {
          "internalType": "address",
          "name": "operator",
          "type": "address"
        },
        {
          "internalType": "bool",
          "name": "approved",
          "type": "bool"
        }
      ],
      "name": "setApprovalForAll",
      "outputs": [],
      "stateMutability": "nonpayable",
      "type": "function"
    },
    {
      "inputs": [
        {
          "internalType": "string",
          "name": "_newBaseURI",
          "type": "string"
        }
      ],
      "name": "setBaseURI",
      "outputs": [],
      "stateMutability": "nonpayable",
      "type": "function"
    },
    {
      "inputs": [
        {
          "internalType": "uint256",
          "name": "_tokenId",
          "type": "uint256"
        },
        {
          "internalType": "string",
          "name": "_uri",
          "type": "string"
        }
      ],
      "name": "setTokenURI",
      "outputs": [],
      "stateMutability": "nonpayable",
      "type": "function"
    },
    {
      "inputs": [
        {
          "internalType": "bytes4",
          "name": "_interfaceId",
          "type": "bytes4"
        }
      ],
      "name": "supportsInterface",
      "outputs": [
        {
          "internalType": "bool",
          "name": "",
          "type": "bool"
        }
      ],
      "stateMutability": "view",
      "type": "function"
    },
    {
      "inputs": [],
      "name": "symbol",
      "outputs": [
        {
          "internalType": "string",
          "name": "",
          "type": "string"
        }
      ],
      "stateMutability": "view",
      "type": "function"
    },
    {
      "inputs": [
        {
          "internalType": "uint256",
          "name": "_tokenId",
          "type": "uint256"
        }
      ],
      "name": "tokenURI",
      "outputs": [
        {
          "internalType": "string",
          "name": "",
          "type": "string"
        }
      ],
      "stateMutability": "view",
      "type": "function"
    },
    {
      "inputs": [
        {
          "internalType": "address",
          "name": "from",
          "type": "address"
        },
        {
          "internalType": "address",
          "name": "to",
          "type": "address"
        },
        {
          "internalType": "uint256",
          "name": "tokenId",
          "type": "uint256"
        }
      ],
      "name": "transferFrom",
      "outputs": [],
      "stateMutability": "nonpayable",
      "type": "function"
    },
    {
      "inputs": [],
      "name": "unpause",
      "outputs": [],
      "stateMutability": "nonpayable",
      "type": "function"
    }
  ],
  "bytecode": "0x60806040523480156200001157600080fd5b5060405162002a6e38038062002a6e83398101604081905262000034916200044d565b60405180604001604052806009815260200168105d985d185c93919560ba1b8152506040518060400160405280600381526020016241564160e81b815250816000908162000083919062000595565b50600162000092828262000595565b50506008805460ff1916905550620000ac600033620000ea565b620000d87f9f2df0fed2c77648de5860a4cc508cd0818c85b8b8a1ab4ceeef8d981c8956a633620000ea565b620000e38162000175565b5062000785565b620000f6828262000195565b620001715760008281526007602090815260408083206001600160a01b03851684529091529020805460ff19166001179055620001303390565b6001600160a01b0316816001600160a01b0316837f2f8788117e7eff1d82e926ec794901d17c78024a50270940304540a733656f0d60405160405180910390a45b5050565b60006200018281620001c2565b600a62000190838262000595565b505050565b60008281526007602090815260408083206001600160a01b038516845290915290205460ff165b92915050565b620001ce8133620001d1565b50565b620001dd828262000195565b6200017157620001ed816200023e565b620001fa83602062000251565b6040516020016200020d92919062000661565b60408051601f198184030181529082905262461bcd60e51b82526200023591600401620006da565b60405180910390fd5b6060620001bc6001600160a01b03831660145b606060006200026283600262000725565b6200026f9060026200073f565b6001600160401b0381111562000289576200028962000411565b6040519080825280601f01601f191660200182016040528015620002b4576020820181803683370190505b509050600360fc1b81600081518110620002d257620002d262000755565b60200101906001600160f81b031916908160001a905350600f60fb1b8160018151811062000304576200030462000755565b60200101906001600160f81b031916908160001a90535060006200032a84600262000725565b620003379060016200073f565b90505b6001811115620003b9576f181899199a1a9b1b9c1cb0b131b232b360811b85600f16601081106200036f576200036f62000755565b1a60f81b82828151811062000388576200038862000755565b60200101906001600160f81b031916908160001a90535060049490941c93620003b1816200076b565b90506200033a565b5083156200040a5760405162461bcd60e51b815260206004820181905260248201527f537472696e67733a20686578206c656e67746820696e73756666696369656e74604482015260640162000235565b9392505050565b634e487b7160e01b600052604160045260246000fd5b60005b83811015620004445781810151838201526020016200042a565b50506000910152565b6000602082840312156200046057600080fd5b81516001600160401b03808211156200047857600080fd5b818401915084601f8301126200048d57600080fd5b815181811115620004a257620004a262000411565b604051601f8201601f19908116603f01168101908382118183101715620004cd57620004cd62000411565b81604052828152876020848701011115620004e757600080fd5b620004fa83602083016020880162000427565b979650505050505050565b600181811c908216806200051a57607f821691505b6020821081036200053b57634e487b7160e01b600052602260045260246000fd5b50919050565b601f82111562000190576000816000526020600020601f850160051c810160208610156200056c5750805b601f850160051c820191505b818110156200058d5782815560010162000578565b505050505050565b81516001600160401b03811115620005b157620005b162000411565b620005c981620005c2845462000505565b8462000541565b602080601f831160018114620006015760008415620005e85750858301515b600019600386901b1c1916600185901b1785556200058d565b600085815260208120601f198616915b82811015620006325788860151825594840194600190910190840162000611565b5085821015620006515787850151600019600388901b60f8161c191681555b5050505050600190811b01905550565b7f416363657373436f6e74726f6c3a206163636f756e74200000000000000000008152600083516200069b81601785016020880162000427565b7001034b99036b4b9b9b4b733903937b6329607d1b6017918401918201528351620006ce81602884016020880162000427565b01602801949350505050565b6020815260008251806020840152620006fb81604085016020870162000427565b601f01601f19169190910160400192915050565b634e487b7160e01b600052601160045260246000fd5b8082028115828204841417620001bc57620001bc6200070f565b80820180821115620001bc57620001bc6200070f565b634e487b7160e01b600052603260045260246000fd5b6000816200077d576200077d6200070f565b506000190190565b6122d980620007956000396000f3fe608060405234801561001057600080fd5b50600436106101a95760003560e01c806355f804b3116100f9578063a217fddf11610097578063c87b56dd11610071578063c87b56dd1461037e578063d539139314610391578063d547741f146103a6578063e985e9c5146103b957600080fd5b8063a217fddf14610350578063a22cb46514610358578063b88d4fde1461036b57600080fd5b806370a08231116100d357806370a082311461031a5780638456cb591461032d57806391d148541461033557806395d89b411461034857600080fd5b806355f804b3146102e95780635c975abb146102fc5780636352211e1461030757600080fd5b8063248a9ca3116101665780633f4ba83a116101405780633f4ba83a146102a857806340d097c3146102b057806342842e0e146102c357806342966c68146102d657600080fd5b8063248a9ca3146102515780632f2ff15d1461028257806336568abe1461029557600080fd5b806301ffc9a7146101ae57806306fdde03146101d6578063081812fc146101eb578063095ea7b314610216578063162094c41461022b57806323b872dd1461023e575b600080fd5b6101c16101bc366004611ab5565b6103f5565b60405190151581526020015b60405180910390f35b6101de610410565b6040516101cd9190611b22565b6101fe6101f9366004611b35565b6104a2565b6040516001600160a01b0390911681526020016101cd565b610229610224366004611b65565b6104c9565b005b610229610239366004611c3b565b6105e3565b61022961024c366004611c82565b610634565b61027461025f366004611b35565b60009081526007602052604090206001015490565b6040519081526020016101cd565b610229610290366004611cbe565b610665565b6102296102a3366004611cbe565b61068a565b610229610708565b6102296102be366004611cea565b61071e565b6102296102d1366004611c82565b61079f565b6102296102e4366004611b35565b6107ba565b6102296102f7366004611d05565b6107e3565b60085460ff166101c1565b6101fe610315366004611b35565b6107fa565b610274610328366004611cea565b610860565b6102296108e6565b6101c1610343366004611cbe565b6108f9565b6101de610924565b610274600081565b610229610366366004611d3a565b610933565b610229610379366004611d76565b61093e565b6101de61038c366004611b35565b610970565b61027460008051602061228483398151915281565b6102296103b4366004611cbe565b610983565b6101c16103c7366004611df2565b6001600160a01b03918216600090815260056020908152604080832093909416825291909152205460ff1690565b60006103ff6109a8565b610408826109f0565b90505b919050565b60606000805461041f90611e1c565b80601f016020809104026020016040519081016040528092919081815260200182805461044b90611e1c565b80156104985780601f1061046d57610100808354040283529160200191610498565b820191906000526020600020905b81548152906001019060200180831161047b57829003601f168201915b5050505050905090565b60006104ad82610a15565b506000908152600460205260409020546001600160a01b031690565b60006104d4826107fa565b9050806001600160a01b0316836001600160a01b0316036105465760405162461bcd60e51b815260206004820152602160248201527f4552433732313a20617070726f76616c20746f2063757272656e74206f776e656044820152603960f91b60648201526084015b60405180910390fd5b336001600160a01b0382161480610562575061056281336103c7565b6105d45760405162461bcd60e51b815260206004820152603d60248201527f4552433732313a20617070726f76652063616c6c6572206973206e6f7420746f60448201527f6b656e206f776e6572206f7220617070726f76656420666f7220616c6c000000606482015260840161053d565b6105de8383610a74565b505050565b60006105ee81610ae2565b6105f66109a8565b6000838152600260205260409020546001600160a01b031661062a5760405162461bcd60e51b815260040161053d90611e56565b6105de8383610aec565b61063e3382610b70565b61065a5760405162461bcd60e51b815260040161053d90611ea4565b6105de838383610bef565b60008281526007602052604090206001015461068081610ae2565b6105de8383610d53565b6001600160a01b03811633146106fa5760405162461bcd60e51b815260206004820152602f60248201527f416363657373436f6e74726f6c3a2063616e206f6e6c792072656e6f756e636560448201526e103937b632b9903337b91039b2b63360891b606482015260840161053d565b6107048282610dd9565b5050565b600061071381610ae2565b61071b610e40565b50565b60008051602061228483398151915261073681610ae2565b61073e6109a8565b600061074960095490565b9050610759600980546001019055565b600061076482610e92565b6040516020016107749190611ef1565b604051602081830303815290604052905061078f8483610f9b565b6107998282610aec565b50505050565b6105de8383836040518060200160405280600081525061093e565b6000805160206122848339815191526107d281610ae2565b6107da6109a8565b61070482610fb5565b60006107ee81610ae2565b600a6105de8382611f6a565b6000818152600260205260408120546001600160a01b03168061085a5760405162461bcd60e51b8152602060048201526018602482015277115490cdcc8c4e881a5b9d985b1a59081d1bdad95b88125160421b604482015260640161053d565b92915050565b60006001600160a01b0382166108ca5760405162461bcd60e51b815260206004820152602960248201527f4552433732313a2061646472657373207a65726f206973206e6f7420612076616044820152683634b21037bbb732b960b91b606482015260840161053d565b506001600160a01b031660009081526003602052604090205490565b60006108f181610ae2565b61071b610fde565b60009182526007602090815260408084206001600160a01b0393909316845291905290205460ff1690565b60606001805461041f90611e1c565b61070433838361101b565b6109483383610b70565b6109645760405162461bcd60e51b815260040161053d90611ea4565b610799848484846110e9565b606061097a6109a8565b6104088261111c565b60008281526007602052604090206001015461099e81610ae2565b6105de8383610dd9565b60085460ff16156109ee5760405162461bcd60e51b815260206004820152601060248201526f14185d5cd8589b194e881c185d5cd95960821b604482015260640161053d565b565b60006001600160e01b03198216637965db0b60e01b1480610408575061040882611217565b6000818152600260205260409020546001600160a01b031661071b5760405162461bcd60e51b8152602060048201526018602482015277115490cdcc8c4e881a5b9d985b1a59081d1bdad95b88125160421b604482015260640161053d565b600081815260046020526040902080546001600160a01b0319166001600160a01b0384169081179091558190610aa9826107fa565b6001600160a01b03167f8c5be1e5ebec7d5bd14f71427d1e84f3dd0314c0f7b2291e5b200ac8c7c3b92560405160405180910390a45050565b61071b813361123c565b6000828152600260205260409020546001600160a01b0316610b205760405162461bcd60e51b815260040161053d90611e56565b6000828152600660205260409020610b388282611f6a565b506040518281527ff8e1a15aba9398e019f0b49df1a4fde98ee17ae345cb5f6b5e2c27f5033e8ce79060200160405180910390a15050565b600080610b7c836107fa565b9050806001600160a01b0316846001600160a01b03161480610bc357506001600160a01b0380821660009081526005602090815260408083209388168352929052205460ff165b80610be75750836001600160a01b0316610bdc846104a2565b6001600160a01b0316145b949350505050565b826001600160a01b0316610c02826107fa565b6001600160a01b031614610c285760405162461bcd60e51b815260040161053d9061202a565b6001600160a01b038216610c8a5760405162461bcd60e51b8152602060048201526024808201527f4552433732313a207472616e7366657220746f20746865207a65726f206164646044820152637265737360e01b606482015260840161053d565b826001600160a01b0316610c9d826107fa565b6001600160a01b031614610cc35760405162461bcd60e51b815260040161053d9061202a565b600081815260046020908152604080832080546001600160a01b03199081169091556001600160a01b0387811680865260038552838620805460001901905590871680865283862080546001019055868652600290945282852080549092168417909155905184937fddf252ad1be2c89b69c2b068fc378daa952ba7f163c4a11628f55a4df523b3ef91a4505050565b610d5d82826108f9565b6107045760008281526007602090815260408083206001600160a01b03851684529091529020805460ff19166001179055610d953390565b6001600160a01b0316816001600160a01b0316837f2f8788117e7eff1d82e926ec794901d17c78024a50270940304540a733656f0d60405160405180910390a45050565b610de382826108f9565b156107045760008281526007602090815260408083206001600160a01b0385168085529252808320805460ff1916905551339285917ff6391f5c32d9c69d2a47ea670b442974b53935d1edc7fd64eb21e047a839171b9190a45050565b610e48611295565b6008805460ff191690557f5db9ee0a495bf2e6ff9c91a7834c1ba4fdd244a5e8aa4e537bd38aeae4b073aa335b6040516001600160a01b03909116815260200160405180910390a1565b606081600003610eb95750506040805180820190915260018152600360fc1b602082015290565b8160005b8115610ee35780610ecd81612085565b9150610edc9050600a836120b4565b9150610ebd565b60008167ffffffffffffffff811115610efe57610efe611b8f565b6040519080825280601f01601f191660200182016040528015610f28576020820181803683370190505b509050815b8515610f9257610f3e600a876120c8565b610f499060306120dc565b60f81b82610f56836120ef565b92508281518110610f6957610f69612106565b60200101906001600160f81b031916908160001a905350610f8b600a876120b4565b9550610f2d565b50949350505050565b6107048282604051806020016040528060008152506112de565b600080516020612284833981519152610fcd81610ae2565b610fd56109a8565b61070482611311565b610fe66109a8565b6008805460ff191660011790557f62e78cea01bee320cd4e420270b5ea74000d11b0c9f74754ebdbfc544b05a258610e753390565b816001600160a01b0316836001600160a01b03160361107c5760405162461bcd60e51b815260206004820152601960248201527f4552433732313a20617070726f766520746f2063616c6c657200000000000000604482015260640161053d565b6001600160a01b03838116600081815260056020908152604080832094871680845294825291829020805460ff191686151590811790915591519182527f17307eab39ab6107e8899845ad3d59bd9653f200f220920489ca2b5937696c31910160405180910390a3505050565b6110f4848484610bef565b61110084848484611351565b6107995760405162461bcd60e51b815260040161053d9061211c565b606061112782610a15565b6000828152600660205260408120805461114090611e1c565b80601f016020809104026020016040519081016040528092919081815260200182805461116c90611e1c565b80156111b95780601f1061118e576101008083540402835291602001916111b9565b820191906000526020600020905b81548152906001019060200180831161119c57829003601f168201915b5050505050905060006111ca611452565b905080516000036111dc575092915050565b81511561120e5780826040516020016111f692919061216e565b60405160208183030381529060405292505050919050565b610be784611461565b60006001600160e01b03198216632483248360e11b14806104085750610408826114c8565b61124682826108f9565b6107045761125381611518565b61125e83602061152a565b60405160200161126f92919061219d565b60408051601f198184030181529082905262461bcd60e51b825261053d91600401611b22565b60085460ff166109ee5760405162461bcd60e51b815260206004820152601460248201527314185d5cd8589b194e881b9bdd081c185d5cd95960621b604482015260640161053d565b6112e883836116c6565b6112f56000848484611351565b6105de5760405162461bcd60e51b815260040161053d9061211c565b61131a81611851565b6000818152600660205260409020805461133390611e1c565b15905061071b57600081815260066020526040812061071b91611a51565b60006001600160a01b0384163b1561144757604051630a85bd0160e11b81526001600160a01b0385169063150b7a0290611395903390899088908890600401612212565b6020604051808303816000875af19250505080156113d0575060408051601f3d908101601f191682019092526113cd9181019061224f565b60015b61142d573d8080156113fe576040519150601f19603f3d011682016040523d82523d6000602084013e611403565b606091505b5080516000036114255760405162461bcd60e51b815260040161053d9061211c565b805181602001fd5b6001600160e01b031916630a85bd0160e11b149050610be7565b506001949350505050565b6060600a805461041f90611e1c565b606061146c82610a15565b6000611476611452565b9050600081511161149657604051806020016040528060008152506114c1565b806114a0846118e6565b6040516020016114b192919061216e565b6040516020818303038152906040525b9392505050565b60006001600160e01b031982166380ac58cd60e01b14806114f957506001600160e01b03198216635b5e139f60e01b145b8061040857506301ffc9a760e01b6001600160e01b0319831614610408565b60606104086001600160a01b03831660145b6060600061153983600261226c565b6115449060026120dc565b67ffffffffffffffff81111561155c5761155c611b8f565b6040519080825280601f01601f191660200182016040528015611586576020820181803683370190505b509050600360fc1b816000815181106115a1576115a1612106565b60200101906001600160f81b031916908160001a905350600f60fb1b816001815181106115d0576115d0612106565b60200101906001600160f81b031916908160001a90535060006115f484600261226c565b6115ff9060016120dc565b90505b6001811115611677576f181899199a1a9b1b9c1cb0b131b232b360811b85600f166010811061163357611633612106565b1a60f81b82828151811061164957611649612106565b60200101906001600160f81b031916908160001a90535060049490941c93611670816120ef565b9050611602565b5083156114c15760405162461bcd60e51b815260206004820181905260248201527f537472696e67733a20686578206c656e67746820696e73756666696369656e74604482015260640161053d565b6001600160a01b03821661171c5760405162461bcd60e51b815260206004820181905260248201527f4552433732313a206d696e7420746f20746865207a65726f2061646472657373604482015260640161053d565b6000818152600260205260409020546001600160a01b0316156117815760405162461bcd60e51b815260206004820152601c60248201527f4552433732313a20746f6b656e20616c7265616479206d696e74656400000000604482015260640161053d565b6000818152600260205260409020546001600160a01b0316156117e65760405162461bcd60e51b815260206004820152601c60248201527f4552433732313a20746f6b656e20616c7265616479206d696e74656400000000604482015260640161053d565b6001600160a01b038216600081815260036020908152604080832080546001019055848352600290915280822080546001600160a01b0319168417905551839291907fddf252ad1be2c89b69c2b068fc378daa952ba7f163c4a11628f55a4df523b3ef908290a45050565b600061185c826107fa565b9050611867826107fa565b600083815260046020908152604080832080546001600160a01b03199081169091556001600160a01b0385168085526003845282852080546000190190558785526002909352818420805490911690555192935084927fddf252ad1be2c89b69c2b068fc378daa952ba7f163c4a11628f55a4df523b3ef908390a45050565b606060006118f383611979565b600101905060008167ffffffffffffffff81111561191357611913611b8f565b6040519080825280601f01601f19166020018201604052801561193d576020820181803683370190505b5090508181016020015b600019016f181899199a1a9b1b9c1cb0b131b232b360811b600a86061a8153600a850494508461194757509392505050565b60008072184f03e93ff9f4daa797ed6e38ed64bf6a1f0160401b83106119b85772184f03e93ff9f4daa797ed6e38ed64bf6a1f0160401b830492506040015b6d04ee2d6d415b85acef810000000083106119e4576d04ee2d6d415b85acef8100000000830492506020015b662386f26fc100008310611a0257662386f26fc10000830492506010015b6305f5e1008310611a1a576305f5e100830492506008015b6127108310611a2e57612710830492506004015b60648310611a40576064830492506002015b600a831061085a5760010192915050565b508054611a5d90611e1c565b6000825580601f10611a6d575050565b601f01602090049060005260206000209081019061071b91905b80821115611a9b5760008155600101611a87565b5090565b6001600160e01b03198116811461071b57600080fd5b600060208284031215611ac757600080fd5b81356114c181611a9f565b60005b83811015611aed578181015183820152602001611ad5565b50506000910152565b60008151808452611b0e816020860160208601611ad2565b601f01601f19169290920160200192915050565b6020815260006114c16020830184611af6565b600060208284031215611b4757600080fd5b5035919050565b80356001600160a01b038116811461040b57600080fd5b60008060408385031215611b7857600080fd5b611b8183611b4e565b946020939093013593505050565b634e487b7160e01b600052604160045260246000fd5b600067ffffffffffffffff80841115611bc057611bc0611b8f565b604051601f8501601f19908116603f01168101908282118183101715611be857611be8611b8f565b81604052809350858152868686011115611c0157600080fd5b858560208301376000602087830101525050509392505050565b600082601f830112611c2c57600080fd5b6114c183833560208501611ba5565b60008060408385031215611c4e57600080fd5b82359150602083013567ffffffffffffffff811115611c6c57600080fd5b611c7885828601611c1b565b9150509250929050565b600080600060608486031215611c9757600080fd5b611ca084611b4e565b9250611cae60208501611b4e565b9150604084013590509250925092565b60008060408385031215611cd157600080fd5b82359150611ce160208401611b4e565b90509250929050565b600060208284031215611cfc57600080fd5b6114c182611b4e565b600060208284031215611d1757600080fd5b813567ffffffffffffffff811115611d2e57600080fd5b610be784828501611c1b565b60008060408385031215611d4d57600080fd5b611d5683611b4e565b915060208301358015158114611d6b57600080fd5b809150509250929050565b60008060008060808587031215611d8c57600080fd5b611d9585611b4e565b9350611da360208601611b4e565b925060408501359150606085013567ffffffffffffffff811115611dc657600080fd5b8501601f81018713611dd757600080fd5b611de687823560208401611ba5565b91505092959194509250565b60008060408385031215611e0557600080fd5b611e0e83611b4e565b9150611ce160208401611b4e565b600181811c90821680611e3057607f821691505b602082108103611e5057634e487b7160e01b600052602260045260246000fd5b50919050565b6020808252602e908201527f45524337323155524953746f726167653a2055524920736574206f66206e6f6e60408201526d32bc34b9ba32b73a103a37b5b2b760911b606082015260800190565b6020808252602d908201527f4552433732313a2063616c6c6572206973206e6f7420746f6b656e206f776e6560408201526c1c881bdc88185c1c1c9bdd9959609a1b606082015260800190565b602f60f81b815260008251611f0d816001850160208701611ad2565b9190910160010192915050565b601f8211156105de576000816000526020600020601f850160051c81016020861015611f435750805b601f850160051c820191505b81811015611f6257828155600101611f4f565b505050505050565b815167ffffffffffffffff811115611f8457611f84611b8f565b611f9881611f928454611e1c565b84611f1a565b602080601f831160018114611fcd5760008415611fb55750858301515b600019600386901b1c1916600185901b178555611f62565b600085815260208120601f198616915b82811015611ffc57888601518255948401946001909101908401611fdd565b508582101561201a5787850151600019600388901b60f8161c191681555b5050505050600190811b01905550565b60208082526025908201527f4552433732313a207472616e736665722066726f6d20696e636f72726563742060408201526437bbb732b960d91b606082015260800190565b634e487b7160e01b600052601160045260246000fd5b6000600182016120975761209761206f565b5060010190565b634e487b7160e01b600052601260045260246000fd5b6000826120c3576120c361209e565b500490565b6000826120d7576120d761209e565b500690565b8082018082111561085a5761085a61206f565b6000816120fe576120fe61206f565b506000190190565b634e487b7160e01b600052603260045260246000fd5b60208082526032908201527f4552433732313a207472616e7366657220746f206e6f6e20455243373231526560408201527131b2b4bb32b91034b6b83632b6b2b73a32b960711b606082015260800190565b60008351612180818460208801611ad2565b835190830190612194818360208801611ad2565b01949350505050565b7f416363657373436f6e74726f6c3a206163636f756e74200000000000000000008152600083516121d5816017850160208801611ad2565b7001034b99036b4b9b9b4b733903937b6329607d1b6017918401918201528351612206816028840160208801611ad2565b01602801949350505050565b6001600160a01b038581168252841660208201526040810183905260806060820181905260009061224590830184611af6565b9695505050505050565b60006020828403121561226157600080fd5b81516114c181611a9f565b808202811582820484141761085a5761085a61206f56fe9f2df0fed2c77648de5860a4cc508cd0818c85b8b8a1ab4ceeef8d981c8956a6a2646970667358221220c4b22d72b3ece6f0fb52b0c32fcdd7a77f16999c008d59cfb7bc09feb230fbfd64736f6c63430008170033",
  "linkReferences": {},
  "deployedLinkReferences": {}
}