{
  "_format": "hh-sol-artifact-1",
  "contractName": "AvatarNFT",
  "sourceName": "contracts/avatarMarket/AvatarNFT.sol",
  "abi": [
    {
      "inputs": [],
      "stateMutability": "nonpayable",
      "type": "constructor"
    },
    {
      "anonymous": false,
      "inputs": [
        {
          "indexed": true,
          "internalType": "address",
          "name": "owner",
          "type": "address"
        },
        {
          "indexed": true,
          "internalType": "address",
          "name": "approved",
          "type": "address"
        },
        {
          "indexed": true,
          "internalType": "uint256",
          "name": "tokenId",
          "type": "uint256"
        }
      ],
      "name": "Approval",
      "type": "event"
    },
    {
      "anonymous": false,
      "inputs": [
        {
          "indexed": true,
          "internalType": "address",
          "name": "owner",
          "type": "address"
        },
        {
          "indexed": true,
          "internalType": "address",
          "name": "operator",
          "type": "address"
        },
        {
          "indexed": false,
          "internalType": "bool",
          "name": "approved",
          "type": "bool"
        }
      ],
      "name": "ApprovalForAll",
      "type": "event"
    },
    {
      "anonymous": false,
      "inputs": [
        {
          "indexed": false,
          "internalType": "uint256",
          "name": "_fromTokenId",
          "type": "uint256"
        },
        {
          "indexed": false,
          "internalType": "uint256",
          "name": "_toTokenId",
          "type": "uint256"
        }
      ],
      "name": "BatchMetadataUpdate",
      "type": "event"
    },
    {
      "anonymous": false,
      "inputs": [
        {
          "indexed": false,
          "internalType": "uint256",
          "name": "_tokenId",
          "type": "uint256"
        }
      ],
      "name": "MetadataUpdate",
      "type": "event"
    },
    {
      "anonymous": false,
      "inputs": [
        {
          "indexed": false,
          "internalType": "address",
          "name": "account",
          "type": "address"
        }
      ],
      "name": "Paused",
      "type": "event"
    },
    {
      "anonymous": false,
      "inputs": [
        {
          "indexed": true,
          "internalType": "bytes32",
          "name": "role",
          "type": "bytes32"
        },
        {
          "indexed": true,
          "internalType": "bytes32",
          "name": "previousAdminRole",
          "type": "bytes32"
        },
        {
          "indexed": true,
          "internalType": "bytes32",
          "name": "newAdminRole",
          "type": "bytes32"
        }
      ],
      "name": "RoleAdminChanged",
      "type": "event"
    },
    {
      "anonymous": false,
      "inputs": [
        {
          "indexed": true,
          "internalType": "bytes32",
          "name": "role",
          "type": "bytes32"
        },
        {
          "indexed": true,
          "internalType": "address",
          "name": "account",
          "type": "address"
        },
        {
          "indexed": true,
          "internalType": "address",
          "name": "sender",
          "type": "address"
        }
      ],
      "name": "RoleGranted",
      "type": "event"
    },
    {
      "anonymous": false,
      "inputs": [
        {
          "indexed": true,
          "internalType": "bytes32",
          "name": "role",
          "type": "bytes32"
        },
        {
          "indexed": true,
          "internalType": "address",
          "name": "account",
          "type": "address"
        },
        {
          "indexed": true,
          "internalType": "address",
          "name": "sender",
          "type": "address"
        }
      ],
      "name": "RoleRevoked",
      "type": "event"
    },
    {
      "anonymous": false,
      "inputs": [
        {
          "indexed": true,
          "internalType": "address",
          "name": "from",
          "type": "address"
        },
        {
          "indexed": true,
          "internalType": "address",
          "name": "to",
          "type": "address"
        },
        {
          "indexed": true,
          "internalType": "uint256",
          "name": "tokenId",
          "type": "uint256"
        }
      ],
      "name": "Transfer",
      "type": "event"
    },
    {
      "anonymous": false,
      "inputs": [
        {
          "indexed": false,
          "internalType": "address",
          "name": "account",
          "type": "address"
        }
      ],
      "name": "Unpaused",
      "type": "event"
    },
    {
      "inputs": [],
      "name": "DEFAULT_ADMIN_ROLE",
      "outputs": [
        {
          "internalType": "bytes32",
          "name": "",
          "type": "bytes32"
        }
      ],
      "stateMutability": "view",
      "type": "function"
    },
    {
      "inputs": [],
      "name": "MINTER_ROLE",
      "outputs": [
        {
          "internalType": "bytes32",
          "name": "",
          "type": "bytes32"
        }
      ],
      "stateMutability": "view",
      "type": "function"
    },
    {
      "inputs": [
        {
          "internalType": "address",
          "name": "to",
          "type": "address"
        },
        {
          "internalType": "uint256",
          "name": "tokenId",
          "type": "uint256"
        }
      ],
      "name": "approve",
      "outputs": [],
      "stateMutability": "nonpayable",
      "type": "function"
    },
    {
      "inputs": [
        {
          "internalType": "address",
          "name": "owner",
          "type": "address"
        }
      ],
      "name": "balanceOf",
      "outputs": [
        {
          "internalType": "uint256",
          "name": "",
          "type": "uint256"
        }
      ],
      "stateMutability": "view",
      "type": "function"
    },
    {
      "inputs": [
        {
          "internalType": "uint256",
          "name": "_tokenId",
          "type": "uint256"
        }
      ],
      "name": "burn",
      "outputs": [],
      "stateMutability": "nonpayable",
      "type": "function"
    },
    {
      "inputs": [
        {
          "internalType": "uint256",
          "name": "tokenId",
          "type": "uint256"
        }
      ],
      "name": "getApproved",
      "outputs": [
        {
          "internalType": "address",
          "name": "",
          "type": "address"
        }
      ],
      "stateMutability": "view",
      "type": "function"
    },
    {
      "inputs": [
        {
          "internalType": "bytes32",
          "name": "role",
          "type": "bytes32"
        }
      ],
      "name": "getRoleAdmin",
      "outputs": [
        {
          "internalType": "bytes32",
          "name": "",
          "type": "bytes32"
        }
      ],
      "stateMutability": "view",
      "type": "function"
    },
    {
      "inputs": [
        {
          "internalType": "bytes32",
          "name": "role",
          "type": "bytes32"
        },
        {
          "internalType": "address",
          "name": "account",
          "type": "address"
        }
      ],
      "name": "grantRole",
      "outputs": [],
      "stateMutability": "nonpayable",
      "type": "function"
    },
    {
      "inputs": [
        {
          "internalType": "bytes32",
          "name": "role",
          "type": "bytes32"
        },
        {
          "internalType": "address",
          "name": "account",
          "type": "address"
        }
      ],
      "name": "hasRole",
      "outputs": [
        {
          "internalType": "bool",
          "name": "",
          "type": "bool"
        }
      ],
      "stateMutability": "view",
      "type": "function"
    },
    {
      "inputs": [
        {
          "internalType": "address",
          "name": "owner",
          "type": "address"
        },
        {
          "internalType": "address",
          "name": "operator",
          "type": "address"
        }
      ],
      "name": "isApprovedForAll",
      "outputs": [
        {
          "internalType": "bool",
          "name": "",
          "type": "bool"
        }
      ],
      "stateMutability": "view",
      "type": "function"
    },
    {
      "inputs": [],
      "name": "name",
      "outputs": [
        {
          "internalType": "string",
          "name": "",
          "type": "string"
        }
      ],
      "stateMutability": "view",
      "type": "function"
    },
    {
      "inputs": [
        {
          "internalType": "uint256",
          "name": "tokenId",
          "type": "uint256"
        }
      ],
      "name": "ownerOf",
      "outputs": [
        {
          "internalType": "address",
          "name": "",
          "type": "address"
        }
      ],
      "stateMutability": "view",
      "type": "function"
    },
    {
      "inputs": [],
      "name": "pause",
      "outputs": [],
      "stateMutability": "nonpayable",
      "type": "function"
    },
    {
      "inputs": [],
      "name": "paused",
      "outputs": [
        {
          "internalType": "bool",
          "name": "",
          "type": "bool"
        }
      ],
      "stateMutability": "view",
      "type": "function"
    },
    {
      "inputs": [
        {
          "internalType": "bytes32",
          "name": "role",
          "type": "bytes32"
        },
        {
          "internalType": "address",
          "name": "account",
          "type": "address"
        }
      ],
      "name": "renounceRole",
      "outputs": [],
      "stateMutability": "nonpayable",
      "type": "function"
    },
    {
      "inputs": [
        {
          "internalType": "bytes32",
          "name": "role",
          "type": "bytes32"
        },
        {
          "internalType": "address",
          "name": "account",
          "type": "address"
        }
      ],
      "name": "revokeRole",
      "outputs": [],
      "stateMutability": "nonpayable",
      "type": "function"
    },
    {
      "inputs": [
        {
          "internalType": "address",
          "name": "_to",
          "type": "address"
        },
        {
          "internalType": "string",
          "name": "_uri",
          "type": "string"
        }
      ],
      "name": "safeMint",
      "outputs": [],
      "stateMutability": "nonpayable",
      "type": "function"
    },
    {
      "inputs": [
        {
          "internalType": "address",
          "name": "from",
          "type": "address"
        },
        {
          "internalType": "address",
          "name": "to",
          "type": "address"
        },
        {
          "internalType": "uint256",
          "name": "tokenId",
          "type": "uint256"
        }
      ],
      "name": "safeTransferFrom",
      "outputs": [],
      "stateMutability": "nonpayable",
      "type": "function"
    },
    {
      "inputs": [
        {
          "internalType": "address",
          "name": "from",
          "type": "address"
        },
        {
          "internalType": "address",
          "name": "to",
          "type": "address"
        },
        {
          "internalType": "uint256",
          "name": "tokenId",
          "type": "uint256"
        },
        {
          "internalType": "bytes",
          "name": "data",
          "type": "bytes"
        }
      ],
      "name": "safeTransferFrom",
      "outputs": [],
      "stateMutability": "nonpayable",
      "type": "function"
    },
    {
      "inputs": [
        {
          "internalType": "address",
          "name": "operator",
          "type": "address"
        },
        {
          "internalType": "bool",
          "name": "approved",
          "type": "bool"
        }
      ],
      "name": "setApprovalForAll",
      "outputs": [],
      "stateMutability": "nonpayable",
      "type": "function"
    },
    {
      "inputs": [
        {
          "internalType": "uint256",
          "name": "_tokenId",
          "type": "uint256"
        },
        {
          "internalType": "string",
          "name": "_uri",
          "type": "string"
        }
      ],
      "name": "setTokenURI",
      "outputs": [],
      "stateMutability": "nonpayable",
      "type": "function"
    },
    {
      "inputs": [
        {
          "internalType": "bytes4",
          "name": "_interfaceId",
          "type": "bytes4"
        }
      ],
      "name": "supportsInterface",
      "outputs": [
        {
          "internalType": "bool",
          "name": "",
          "type": "bool"
        }
      ],
      "stateMutability": "view",
      "type": "function"
    },
    {
      "inputs": [],
      "name": "symbol",
      "outputs": [
        {
          "internalType": "string",
          "name": "",
          "type": "string"
        }
      ],
      "stateMutability": "view",
      "type": "function"
    },
    {
      "inputs": [
        {
          "internalType": "uint256",
          "name": "_tokenId",
          "type": "uint256"
        }
      ],
      "name": "tokenURI",
      "outputs": [
        {
          "internalType": "string",
          "name": "",
          "type": "string"
        }
      ],
      "stateMutability": "view",
      "type": "function"
    },
    {
      "inputs": [
        {
          "internalType": "address",
          "name": "from",
          "type": "address"
        },
        {
          "internalType": "address",
          "name": "to",
          "type": "address"
        },
        {
          "internalType": "uint256",
          "name": "tokenId",
          "type": "uint256"
        }
      ],
      "name": "transferFrom",
      "outputs": [],
      "stateMutability": "nonpayable",
      "type": "function"
    },
    {
      "inputs": [],
      "name": "unpause",
      "outputs": [],
      "stateMutability": "nonpayable",
      "type": "function"
    }
  ],
  "bytecode": "0x60806040523480156200001157600080fd5b5060405180604001604052806009815260200168105d985d185c93919560ba1b8152506040518060400160405280600381526020016241564160e81b815250816000908162000061919062000206565b50600162000070828262000206565b50506008805460ff19169055506200008a600033620000bc565b620000b67f9f2df0fed2c77648de5860a4cc508cd0818c85b8b8a1ab4ceeef8d981c8956a633620000bc565b620002d2565b60008281526007602090815260408083206001600160a01b038516845290915290205460ff166200015d5760008281526007602090815260408083206001600160a01b03851684529091529020805460ff191660011790556200011c3390565b6001600160a01b0316816001600160a01b0316837f2f8788117e7eff1d82e926ec794901d17c78024a50270940304540a733656f0d60405160405180910390a45b5050565b634e487b7160e01b600052604160045260246000fd5b600181811c908216806200018c57607f821691505b602082108103620001ad57634e487b7160e01b600052602260045260246000fd5b50919050565b601f8211156200020157600081815260208120601f850160051c81016020861015620001dc5750805b601f850160051c820191505b81811015620001fd57828155600101620001e8565b5050505b505050565b81516001600160401b0381111562000222576200022262000161565b6200023a8162000233845462000177565b84620001b3565b602080601f831160018114620002725760008415620002595750858301515b600019600386901b1c1916600185901b178555620001fd565b600085815260208120601f198616915b82811015620002a35788860151825594840194600190910190840162000282565b5085821015620002c25787850151600019600388901b60f8161c191681555b5050505050600190811b01905550565b6120eb80620002e26000396000f3fe608060405234801561001057600080fd5b506004361061018e5760003560e01c80636352211e116100de578063a22cb46511610097578063d204c45e11610071578063d204c45e14610350578063d539139314610363578063d547741f14610378578063e985e9c51461038b57600080fd5b8063a22cb46514610317578063b88d4fde1461032a578063c87b56dd1461033d57600080fd5b80636352211e146102c657806370a08231146102d95780638456cb59146102ec57806391d14854146102f457806395d89b4114610307578063a217fddf1461030f57600080fd5b8063248a9ca31161014b5780633f4ba83a116101255780633f4ba83a1461028d57806342842e0e1461029557806342966c68146102a85780635c975abb146102bb57600080fd5b8063248a9ca3146102365780632f2ff15d1461026757806336568abe1461027a57600080fd5b806301ffc9a71461019357806306fdde03146101bb578063081812fc146101d0578063095ea7b3146101fb578063162094c41461021057806323b872dd14610223575b600080fd5b6101a66101a1366004611946565b6103c7565b60405190151581526020015b60405180910390f35b6101c36103e2565b6040516101b291906119b3565b6101e36101de3660046119c6565b610474565b6040516001600160a01b0390911681526020016101b2565b61020e6102093660046119f6565b61049b565b005b61020e61021e366004611acc565b6105b5565b61020e610231366004611b13565b610606565b6102596102443660046119c6565b60009081526007602052604090206001015490565b6040519081526020016101b2565b61020e610275366004611b4f565b610637565b61020e610288366004611b4f565b61065c565b61020e6106da565b61020e6102a3366004611b13565b6106f0565b61020e6102b63660046119c6565b61070b565b60085460ff166101a6565b6101e36102d43660046119c6565b610734565b6102596102e7366004611b7b565b61079a565b61020e610820565b6101a6610302366004611b4f565b610833565b6101c361085e565b610259600081565b61020e610325366004611b96565b61086d565b61020e610338366004611bd2565b610878565b6101c361034b3660046119c6565b6108b0565b61020e61035e366004611c4e565b6108c3565b61025960008051602061209683398151915281565b61020e610386366004611b4f565b610912565b6101a6610399366004611c86565b6001600160a01b03918216600090815260056020908152604080832093909416825291909152205460ff1690565b60006103d1610937565b6103da8261097f565b90505b919050565b6060600080546103f190611cb0565b80601f016020809104026020016040519081016040528092919081815260200182805461041d90611cb0565b801561046a5780601f1061043f5761010080835404028352916020019161046a565b820191906000526020600020905b81548152906001019060200180831161044d57829003601f168201915b5050505050905090565b600061047f826109a4565b506000908152600460205260409020546001600160a01b031690565b60006104a682610734565b9050806001600160a01b0316836001600160a01b0316036105185760405162461bcd60e51b815260206004820152602160248201527f4552433732313a20617070726f76616c20746f2063757272656e74206f776e656044820152603960f91b60648201526084015b60405180910390fd5b336001600160a01b038216148061053457506105348133610399565b6105a65760405162461bcd60e51b815260206004820152603d60248201527f4552433732313a20617070726f76652063616c6c6572206973206e6f7420746f60448201527f6b656e206f776e6572206f7220617070726f76656420666f7220616c6c000000606482015260840161050f565b6105b08383610a03565b505050565b60006105c081610a71565b6105c8610937565b6000838152600260205260409020546001600160a01b03166105fc5760405162461bcd60e51b815260040161050f90611cea565b6105b08383610a7b565b6106103382610aff565b61062c5760405162461bcd60e51b815260040161050f90611d38565b6105b0838383610b7e565b60008281526007602052604090206001015461065281610a71565b6105b08383610ce2565b6001600160a01b03811633146106cc5760405162461bcd60e51b815260206004820152602f60248201527f416363657373436f6e74726f6c3a2063616e206f6e6c792072656e6f756e636560448201526e103937b632b9903337b91039b2b63360891b606482015260840161050f565b6106d68282610d68565b5050565b60006106e581610a71565b6106ed610dcf565b50565b6105b083838360405180602001604052806000815250610878565b60008051602061209683398151915261072381610a71565b61072b610937565b6106d682610e21565b6000818152600260205260408120546001600160a01b0316806107945760405162461bcd60e51b8152602060048201526018602482015277115490cdcc8c4e881a5b9d985b1a59081d1bdad95b88125160421b604482015260640161050f565b92915050565b60006001600160a01b0382166108045760405162461bcd60e51b815260206004820152602960248201527f4552433732313a2061646472657373207a65726f206973206e6f7420612076616044820152683634b21037bbb732b960b91b606482015260840161050f565b506001600160a01b031660009081526003602052604090205490565b600061082b81610a71565b6106ed610e4a565b60009182526007602090815260408084206001600160a01b0393909316845291905290205460ff1690565b6060600180546103f190611cb0565b6106d6338383610e87565b6108823383610aff565b61089e5760405162461bcd60e51b815260040161050f90611d38565b6108aa84848484610f55565b50505050565b60606108ba610937565b6103da82610f88565b6000805160206120968339815191526108db81610a71565b6108e3610937565b60006108ee60095490565b90506108fe600980546001019055565b6109088482611090565b6108aa8184610a7b565b60008281526007602052604090206001015461092d81610a71565b6105b08383610d68565b60085460ff161561097d5760405162461bcd60e51b815260206004820152601060248201526f14185d5cd8589b194e881c185d5cd95960821b604482015260640161050f565b565b60006001600160e01b03198216637965db0b60e01b14806103da57506103da826110aa565b6000818152600260205260409020546001600160a01b03166106ed5760405162461bcd60e51b8152602060048201526018602482015277115490cdcc8c4e881a5b9d985b1a59081d1bdad95b88125160421b604482015260640161050f565b600081815260046020526040902080546001600160a01b0319166001600160a01b0384169081179091558190610a3882610734565b6001600160a01b03167f8c5be1e5ebec7d5bd14f71427d1e84f3dd0314c0f7b2291e5b200ac8c7c3b92560405160405180910390a45050565b6106ed81336110cf565b6000828152600260205260409020546001600160a01b0316610aaf5760405162461bcd60e51b815260040161050f90611cea565b6000828152600660205260409020610ac78282611dd3565b506040518281527ff8e1a15aba9398e019f0b49df1a4fde98ee17ae345cb5f6b5e2c27f5033e8ce79060200160405180910390a15050565b600080610b0b83610734565b9050806001600160a01b0316846001600160a01b03161480610b5257506001600160a01b0380821660009081526005602090815260408083209388168352929052205460ff165b80610b765750836001600160a01b0316610b6b84610474565b6001600160a01b0316145b949350505050565b826001600160a01b0316610b9182610734565b6001600160a01b031614610bb75760405162461bcd60e51b815260040161050f90611e93565b6001600160a01b038216610c195760405162461bcd60e51b8152602060048201526024808201527f4552433732313a207472616e7366657220746f20746865207a65726f206164646044820152637265737360e01b606482015260840161050f565b826001600160a01b0316610c2c82610734565b6001600160a01b031614610c525760405162461bcd60e51b815260040161050f90611e93565b600081815260046020908152604080832080546001600160a01b03199081169091556001600160a01b0387811680865260038552838620805460001901905590871680865283862080546001019055868652600290945282852080549092168417909155905184937fddf252ad1be2c89b69c2b068fc378daa952ba7f163c4a11628f55a4df523b3ef91a4505050565b610cec8282610833565b6106d65760008281526007602090815260408083206001600160a01b03851684529091529020805460ff19166001179055610d243390565b6001600160a01b0316816001600160a01b0316837f2f8788117e7eff1d82e926ec794901d17c78024a50270940304540a733656f0d60405160405180910390a45050565b610d728282610833565b156106d65760008281526007602090815260408083206001600160a01b0385168085529252808320805460ff1916905551339285917ff6391f5c32d9c69d2a47ea670b442974b53935d1edc7fd64eb21e047a839171b9190a45050565b610dd7611128565b6008805460ff191690557f5db9ee0a495bf2e6ff9c91a7834c1ba4fdd244a5e8aa4e537bd38aeae4b073aa335b6040516001600160a01b03909116815260200160405180910390a1565b600080516020612096833981519152610e3981610a71565b610e41610937565b6106d682611171565b610e52610937565b6008805460ff191660011790557f62e78cea01bee320cd4e420270b5ea74000d11b0c9f74754ebdbfc544b05a258610e043390565b816001600160a01b0316836001600160a01b031603610ee85760405162461bcd60e51b815260206004820152601960248201527f4552433732313a20617070726f766520746f2063616c6c657200000000000000604482015260640161050f565b6001600160a01b03838116600081815260056020908152604080832094871680845294825291829020805460ff191686151590811790915591519182527f17307eab39ab6107e8899845ad3d59bd9653f200f220920489ca2b5937696c31910160405180910390a3505050565b610f60848484610b7e565b610f6c848484846111b1565b6108aa5760405162461bcd60e51b815260040161050f90611ed8565b6060610f93826109a4565b60008281526006602052604081208054610fac90611cb0565b80601f0160208091040260200160405190810160405280929190818152602001828054610fd890611cb0565b80156110255780601f10610ffa57610100808354040283529160200191611025565b820191906000526020600020905b81548152906001019060200180831161100857829003601f168201915b50505050509050600061104360408051602081019091526000815290565b90508051600003611055575092915050565b81511561108757808260405160200161106f929190611f2a565b60405160208183030381529060405292505050919050565b610b76846112b2565b6106d6828260405180602001604052806000815250611326565b60006001600160e01b03198216632483248360e11b14806103da57506103da82611359565b6110d98282610833565b6106d6576110e6816113a9565b6110f18360206113bb565b604051602001611102929190611f59565b60408051601f198184030181529082905262461bcd60e51b825261050f916004016119b3565b60085460ff1661097d5760405162461bcd60e51b815260206004820152601460248201527314185d5cd8589b194e881b9bdd081c185d5cd95960621b604482015260640161050f565b61117a81611557565b6000818152600660205260409020805461119390611cb0565b1590506106ed5760008181526006602052604081206106ed916118e2565b60006001600160a01b0384163b156112a757604051630a85bd0160e11b81526001600160a01b0385169063150b7a02906111f5903390899088908890600401611fce565b6020604051808303816000875af1925050508015611230575060408051601f3d908101601f1916820190925261122d9181019061200b565b60015b61128d573d80801561125e576040519150601f19603f3d011682016040523d82523d6000602084013e611263565b606091505b5080516000036112855760405162461bcd60e51b815260040161050f90611ed8565b805181602001fd5b6001600160e01b031916630a85bd0160e11b149050610b76565b506001949350505050565b60606112bd826109a4565b60006112d460408051602081019091526000815290565b905060008151116112f4576040518060200160405280600081525061131f565b806112fe846115ec565b60405160200161130f929190611f2a565b6040516020818303038152906040525b9392505050565b611330838361167f565b61133d60008484846111b1565b6105b05760405162461bcd60e51b815260040161050f90611ed8565b60006001600160e01b031982166380ac58cd60e01b148061138a57506001600160e01b03198216635b5e139f60e01b145b806103da57506301ffc9a760e01b6001600160e01b03198316146103da565b60606103da6001600160a01b03831660145b606060006113ca83600261203e565b6113d5906002612055565b67ffffffffffffffff8111156113ed576113ed611a20565b6040519080825280601f01601f191660200182016040528015611417576020820181803683370190505b509050600360fc1b8160008151811061143257611432612068565b60200101906001600160f81b031916908160001a905350600f60fb1b8160018151811061146157611461612068565b60200101906001600160f81b031916908160001a905350600061148584600261203e565b611490906001612055565b90505b6001811115611508576f181899199a1a9b1b9c1cb0b131b232b360811b85600f16601081106114c4576114c4612068565b1a60f81b8282815181106114da576114da612068565b60200101906001600160f81b031916908160001a90535060049490941c936115018161207e565b9050611493565b50831561131f5760405162461bcd60e51b815260206004820181905260248201527f537472696e67733a20686578206c656e67746820696e73756666696369656e74604482015260640161050f565b600061156282610734565b905061156d82610734565b600083815260046020908152604080832080546001600160a01b03199081169091556001600160a01b0385168085526003845282852080546000190190558785526002909352818420805490911690555192935084927fddf252ad1be2c89b69c2b068fc378daa952ba7f163c4a11628f55a4df523b3ef908390a45050565b606060006115f98361180a565b600101905060008167ffffffffffffffff81111561161957611619611a20565b6040519080825280601f01601f191660200182016040528015611643576020820181803683370190505b5090508181016020015b600019016f181899199a1a9b1b9c1cb0b131b232b360811b600a86061a8153600a850494508461164d57509392505050565b6001600160a01b0382166116d55760405162461bcd60e51b815260206004820181905260248201527f4552433732313a206d696e7420746f20746865207a65726f2061646472657373604482015260640161050f565b6000818152600260205260409020546001600160a01b03161561173a5760405162461bcd60e51b815260206004820152601c60248201527f4552433732313a20746f6b656e20616c7265616479206d696e74656400000000604482015260640161050f565b6000818152600260205260409020546001600160a01b03161561179f5760405162461bcd60e51b815260206004820152601c60248201527f4552433732313a20746f6b656e20616c7265616479206d696e74656400000000604482015260640161050f565b6001600160a01b038216600081815260036020908152604080832080546001019055848352600290915280822080546001600160a01b0319168417905551839291907fddf252ad1be2c89b69c2b068fc378daa952ba7f163c4a11628f55a4df523b3ef908290a45050565b60008072184f03e93ff9f4daa797ed6e38ed64bf6a1f0160401b83106118495772184f03e93ff9f4daa797ed6e38ed64bf6a1f0160401b830492506040015b6d04ee2d6d415b85acef81000000008310611875576d04ee2d6d415b85acef8100000000830492506020015b662386f26fc10000831061189357662386f26fc10000830492506010015b6305f5e10083106118ab576305f5e100830492506008015b61271083106118bf57612710830492506004015b606483106118d1576064830492506002015b600a83106107945760010192915050565b5080546118ee90611cb0565b6000825580601f106118fe575050565b601f0160209004906000526020600020908101906106ed91905b8082111561192c5760008155600101611918565b5090565b6001600160e01b0319811681146106ed57600080fd5b60006020828403121561195857600080fd5b813561131f81611930565b60005b8381101561197e578181015183820152602001611966565b50506000910152565b6000815180845261199f816020860160208601611963565b601f01601f19169290920160200192915050565b60208152600061131f6020830184611987565b6000602082840312156119d857600080fd5b5035919050565b80356001600160a01b03811681146103dd57600080fd5b60008060408385031215611a0957600080fd5b611a12836119df565b946020939093013593505050565b634e487b7160e01b600052604160045260246000fd5b600067ffffffffffffffff80841115611a5157611a51611a20565b604051601f8501601f19908116603f01168101908282118183101715611a7957611a79611a20565b81604052809350858152868686011115611a9257600080fd5b858560208301376000602087830101525050509392505050565b600082601f830112611abd57600080fd5b61131f83833560208501611a36565b60008060408385031215611adf57600080fd5b82359150602083013567ffffffffffffffff811115611afd57600080fd5b611b0985828601611aac565b9150509250929050565b600080600060608486031215611b2857600080fd5b611b31846119df565b9250611b3f602085016119df565b9150604084013590509250925092565b60008060408385031215611b6257600080fd5b82359150611b72602084016119df565b90509250929050565b600060208284031215611b8d57600080fd5b61131f826119df565b60008060408385031215611ba957600080fd5b611bb2836119df565b915060208301358015158114611bc757600080fd5b809150509250929050565b60008060008060808587031215611be857600080fd5b611bf1856119df565b9350611bff602086016119df565b925060408501359150606085013567ffffffffffffffff811115611c2257600080fd5b8501601f81018713611c3357600080fd5b611c4287823560208401611a36565b91505092959194509250565b60008060408385031215611c6157600080fd5b611c6a836119df565b9150602083013567ffffffffffffffff811115611afd57600080fd5b60008060408385031215611c9957600080fd5b611ca2836119df565b9150611b72602084016119df565b600181811c90821680611cc457607f821691505b602082108103611ce457634e487b7160e01b600052602260045260246000fd5b50919050565b6020808252602e908201527f45524337323155524953746f726167653a2055524920736574206f66206e6f6e60408201526d32bc34b9ba32b73a103a37b5b2b760911b606082015260800190565b6020808252602d908201527f4552433732313a2063616c6c6572206973206e6f7420746f6b656e206f776e6560408201526c1c881bdc88185c1c1c9bdd9959609a1b606082015260800190565b601f8211156105b057600081815260208120601f850160051c81016020861015611dac5750805b601f850160051c820191505b81811015611dcb57828155600101611db8565b505050505050565b815167ffffffffffffffff811115611ded57611ded611a20565b611e0181611dfb8454611cb0565b84611d85565b602080601f831160018114611e365760008415611e1e5750858301515b600019600386901b1c1916600185901b178555611dcb565b600085815260208120601f198616915b82811015611e6557888601518255948401946001909101908401611e46565b5085821015611e835787850151600019600388901b60f8161c191681555b5050505050600190811b01905550565b60208082526025908201527f4552433732313a207472616e736665722066726f6d20696e636f72726563742060408201526437bbb732b960d91b606082015260800190565b60208082526032908201527f4552433732313a207472616e7366657220746f206e6f6e20455243373231526560408201527131b2b4bb32b91034b6b83632b6b2b73a32b960711b606082015260800190565b60008351611f3c818460208801611963565b835190830190611f50818360208801611963565b01949350505050565b7f416363657373436f6e74726f6c3a206163636f756e7420000000000000000000815260008351611f91816017850160208801611963565b7001034b99036b4b9b9b4b733903937b6329607d1b6017918401918201528351611fc2816028840160208801611963565b01602801949350505050565b6001600160a01b038581168252841660208201526040810183905260806060820181905260009061200190830184611987565b9695505050505050565b60006020828403121561201d57600080fd5b815161131f81611930565b634e487b7160e01b600052601160045260246000fd5b808202811582820484141761079457610794612028565b8082018082111561079457610794612028565b634e487b7160e01b600052603260045260246000fd5b60008161208d5761208d612028565b50600019019056fe9f2df0fed2c77648de5860a4cc508cd0818c85b8b8a1ab4ceeef8d981c8956a6a2646970667358221220a7054f841b0facdab2681c9c05b2e88acf13878541f3d286602498184268632f64736f6c63430008150033",
  "linkReferences": {},
  "deployedLinkReferences": {}
}