{
  "_format": "hh-sol-artifact-1",
  "contractName": "AvatarNFT",
  "sourceName": "contracts/avatarMarket/AvatarNFT.sol",
  "abi": [
    {
      "inputs": [
        {
          "internalType": "string",
          "name": "initialBaseURI",
          "type": "string"
        }
      ],
      "stateMutability": "nonpayable",
      "type": "constructor"
    },
    {
      "anonymous": false,
      "inputs": [
        {
          "indexed": true,
          "internalType": "address",
          "name": "owner",
          "type": "address"
        },
        {
          "indexed": true,
          "internalType": "address",
          "name": "approved",
          "type": "address"
        },
        {
          "indexed": true,
          "internalType": "uint256",
          "name": "tokenId",
          "type": "uint256"
        }
      ],
      "name": "Approval",
      "type": "event"
    },
    {
      "anonymous": false,
      "inputs": [
        {
          "indexed": true,
          "internalType": "address",
          "name": "owner",
          "type": "address"
        },
        {
          "indexed": true,
          "internalType": "address",
          "name": "operator",
          "type": "address"
        },
        {
          "indexed": false,
          "internalType": "bool",
          "name": "approved",
          "type": "bool"
        }
      ],
      "name": "ApprovalForAll",
      "type": "event"
    },
    {
      "anonymous": false,
      "inputs": [
        {
          "indexed": true,
          "internalType": "address",
          "name": "to",
          "type": "address"
        },
        {
          "indexed": true,
          "internalType": "uint256",
          "name": "tokenId",
          "type": "uint256"
        },
        {
          "indexed": false,
          "internalType": "string",
          "name": "existingTokenURI",
          "type": "string"
        }
      ],
      "name": "ExistingTokenMinted",
      "type": "event"
    },
    {
      "anonymous": false,
      "inputs": [
        {
          "indexed": false,
          "internalType": "address",
          "name": "account",
          "type": "address"
        }
      ],
      "name": "Paused",
      "type": "event"
    },
    {
      "anonymous": false,
      "inputs": [
        {
          "indexed": true,
          "internalType": "bytes32",
          "name": "role",
          "type": "bytes32"
        },
        {
          "indexed": true,
          "internalType": "bytes32",
          "name": "previousAdminRole",
          "type": "bytes32"
        },
        {
          "indexed": true,
          "internalType": "bytes32",
          "name": "newAdminRole",
          "type": "bytes32"
        }
      ],
      "name": "RoleAdminChanged",
      "type": "event"
    },
    {
      "anonymous": false,
      "inputs": [
        {
          "indexed": true,
          "internalType": "bytes32",
          "name": "role",
          "type": "bytes32"
        },
        {
          "indexed": true,
          "internalType": "address",
          "name": "account",
          "type": "address"
        },
        {
          "indexed": true,
          "internalType": "address",
          "name": "sender",
          "type": "address"
        }
      ],
      "name": "RoleGranted",
      "type": "event"
    },
    {
      "anonymous": false,
      "inputs": [
        {
          "indexed": true,
          "internalType": "bytes32",
          "name": "role",
          "type": "bytes32"
        },
        {
          "indexed": true,
          "internalType": "address",
          "name": "account",
          "type": "address"
        },
        {
          "indexed": true,
          "internalType": "address",
          "name": "sender",
          "type": "address"
        }
      ],
      "name": "RoleRevoked",
      "type": "event"
    },
    {
      "anonymous": false,
      "inputs": [
        {
          "indexed": true,
          "internalType": "address",
          "name": "to",
          "type": "address"
        },
        {
          "indexed": true,
          "internalType": "uint256",
          "name": "tokenId",
          "type": "uint256"
        },
        {
          "indexed": false,
          "internalType": "string",
          "name": "tokenURI",
          "type": "string"
        }
      ],
      "name": "TokenMinted",
      "type": "event"
    },
    {
      "anonymous": false,
      "inputs": [
        {
          "indexed": true,
          "internalType": "address",
          "name": "from",
          "type": "address"
        },
        {
          "indexed": true,
          "internalType": "address",
          "name": "to",
          "type": "address"
        },
        {
          "indexed": true,
          "internalType": "uint256",
          "name": "tokenId",
          "type": "uint256"
        }
      ],
      "name": "Transfer",
      "type": "event"
    },
    {
      "anonymous": false,
      "inputs": [
        {
          "indexed": false,
          "internalType": "address",
          "name": "account",
          "type": "address"
        }
      ],
      "name": "Unpaused",
      "type": "event"
    },
    {
      "inputs": [],
      "name": "DEFAULT_ADMIN_ROLE",
      "outputs": [
        {
          "internalType": "bytes32",
          "name": "",
          "type": "bytes32"
        }
      ],
      "stateMutability": "view",
      "type": "function"
    },
    {
      "inputs": [],
      "name": "MINTER_ROLE",
      "outputs": [
        {
          "internalType": "bytes32",
          "name": "",
          "type": "bytes32"
        }
      ],
      "stateMutability": "view",
      "type": "function"
    },
    {
      "inputs": [
        {
          "internalType": "address",
          "name": "to",
          "type": "address"
        },
        {
          "internalType": "uint256",
          "name": "tokenId",
          "type": "uint256"
        }
      ],
      "name": "approve",
      "outputs": [],
      "stateMutability": "nonpayable",
      "type": "function"
    },
    {
      "inputs": [
        {
          "internalType": "address",
          "name": "owner",
          "type": "address"
        }
      ],
      "name": "balanceOf",
      "outputs": [
        {
          "internalType": "uint256",
          "name": "",
          "type": "uint256"
        }
      ],
      "stateMutability": "view",
      "type": "function"
    },
    {
      "inputs": [
        {
          "internalType": "uint256",
          "name": "tokenId",
          "type": "uint256"
        }
      ],
      "name": "burn",
      "outputs": [],
      "stateMutability": "nonpayable",
      "type": "function"
    },
    {
      "inputs": [
        {
          "internalType": "uint256",
          "name": "tokenId",
          "type": "uint256"
        }
      ],
      "name": "getApproved",
      "outputs": [
        {
          "internalType": "address",
          "name": "",
          "type": "address"
        }
      ],
      "stateMutability": "view",
      "type": "function"
    },
    {
      "inputs": [
        {
          "internalType": "address",
          "name": "owner",
          "type": "address"
        }
      ],
      "name": "getOwnedTokens",
      "outputs": [
        {
          "internalType": "uint256[]",
          "name": "",
          "type": "uint256[]"
        }
      ],
      "stateMutability": "view",
      "type": "function"
    },
    {
      "inputs": [
        {
          "internalType": "bytes32",
          "name": "role",
          "type": "bytes32"
        }
      ],
      "name": "getRoleAdmin",
      "outputs": [
        {
          "internalType": "bytes32",
          "name": "",
          "type": "bytes32"
        }
      ],
      "stateMutability": "view",
      "type": "function"
    },
    {
      "inputs": [
        {
          "internalType": "address",
          "name": "owner",
          "type": "address"
        }
      ],
      "name": "getTokenURLsByOwner",
      "outputs": [
        {
          "internalType": "string[]",
          "name": "",
          "type": "string[]"
        }
      ],
      "stateMutability": "view",
      "type": "function"
    },
    {
      "inputs": [
        {
          "internalType": "bytes32",
          "name": "role",
          "type": "bytes32"
        },
        {
          "internalType": "address",
          "name": "account",
          "type": "address"
        }
      ],
      "name": "grantRole",
      "outputs": [],
      "stateMutability": "nonpayable",
      "type": "function"
    },
    {
      "inputs": [
        {
          "internalType": "bytes32",
          "name": "role",
          "type": "bytes32"
        },
        {
          "internalType": "address",
          "name": "account",
          "type": "address"
        }
      ],
      "name": "hasRole",
      "outputs": [
        {
          "internalType": "bool",
          "name": "",
          "type": "bool"
        }
      ],
      "stateMutability": "view",
      "type": "function"
    },
    {
      "inputs": [
        {
          "internalType": "address",
          "name": "owner",
          "type": "address"
        },
        {
          "internalType": "address",
          "name": "operator",
          "type": "address"
        }
      ],
      "name": "isApprovedForAll",
      "outputs": [
        {
          "internalType": "bool",
          "name": "",
          "type": "bool"
        }
      ],
      "stateMutability": "view",
      "type": "function"
    },
    {
      "inputs": [],
      "name": "name",
      "outputs": [
        {
          "internalType": "string",
          "name": "",
          "type": "string"
        }
      ],
      "stateMutability": "view",
      "type": "function"
    },
    {
      "inputs": [
        {
          "internalType": "uint256",
          "name": "tokenId",
          "type": "uint256"
        }
      ],
      "name": "ownerOf",
      "outputs": [
        {
          "internalType": "address",
          "name": "",
          "type": "address"
        }
      ],
      "stateMutability": "view",
      "type": "function"
    },
    {
      "inputs": [],
      "name": "pause",
      "outputs": [],
      "stateMutability": "nonpayable",
      "type": "function"
    },
    {
      "inputs": [],
      "name": "paused",
      "outputs": [
        {
          "internalType": "bool",
          "name": "",
          "type": "bool"
        }
      ],
      "stateMutability": "view",
      "type": "function"
    },
    {
      "inputs": [
        {
          "internalType": "bytes32",
          "name": "role",
          "type": "bytes32"
        },
        {
          "internalType": "address",
          "name": "account",
          "type": "address"
        }
      ],
      "name": "renounceRole",
      "outputs": [],
      "stateMutability": "nonpayable",
      "type": "function"
    },
    {
      "inputs": [
        {
          "internalType": "bytes32",
          "name": "role",
          "type": "bytes32"
        },
        {
          "internalType": "address",
          "name": "account",
          "type": "address"
        }
      ],
      "name": "revokeRole",
      "outputs": [],
      "stateMutability": "nonpayable",
      "type": "function"
    },
    {
      "inputs": [
        {
          "internalType": "address",
          "name": "to",
          "type": "address"
        }
      ],
      "name": "safeMint",
      "outputs": [],
      "stateMutability": "nonpayable",
      "type": "function"
    },
    {
      "inputs": [
        {
          "internalType": "address",
          "name": "to",
          "type": "address"
        },
        {
          "internalType": "uint256",
          "name": "existingTokenId",
          "type": "uint256"
        }
      ],
      "name": "safeMintExistingNFT",
      "outputs": [],
      "stateMutability": "nonpayable",
      "type": "function"
    },
    {
      "inputs": [
        {
          "internalType": "address",
          "name": "from",
          "type": "address"
        },
        {
          "internalType": "address",
          "name": "to",
          "type": "address"
        },
        {
          "internalType": "uint256",
          "name": "tokenId",
          "type": "uint256"
        }
      ],
      "name": "safeTransferFrom",
      "outputs": [],
      "stateMutability": "nonpayable",
      "type": "function"
    },
    {
      "inputs": [
        {
          "internalType": "address",
          "name": "from",
          "type": "address"
        },
        {
          "internalType": "address",
          "name": "to",
          "type": "address"
        },
        {
          "internalType": "uint256",
          "name": "tokenId",
          "type": "uint256"
        },
        {
          "internalType": "bytes",
          "name": "data",
          "type": "bytes"
        }
      ],
      "name": "safeTransferFrom",
      "outputs": [],
      "stateMutability": "nonpayable",
      "type": "function"
    },
    {
      "inputs": [
        {
          "internalType": "address",
          "name": "operator",
          "type": "address"
        },
        {
          "internalType": "bool",
          "name": "approved",
          "type": "bool"
        }
      ],
      "name": "setApprovalForAll",
      "outputs": [],
      "stateMutability": "nonpayable",
      "type": "function"
    },
    {
      "inputs": [
        {
          "internalType": "string",
          "name": "newBaseURI",
          "type": "string"
        }
      ],
      "name": "setBaseURI",
      "outputs": [],
      "stateMutability": "nonpayable",
      "type": "function"
    },
    {
      "inputs": [
        {
          "internalType": "bytes4",
          "name": "interfaceId",
          "type": "bytes4"
        }
      ],
      "name": "supportsInterface",
      "outputs": [
        {
          "internalType": "bool",
          "name": "",
          "type": "bool"
        }
      ],
      "stateMutability": "view",
      "type": "function"
    },
    {
      "inputs": [],
      "name": "symbol",
      "outputs": [
        {
          "internalType": "string",
          "name": "",
          "type": "string"
        }
      ],
      "stateMutability": "view",
      "type": "function"
    },
    {
      "inputs": [
        {
          "internalType": "uint256",
          "name": "index",
          "type": "uint256"
        }
      ],
      "name": "tokenByIndex",
      "outputs": [
        {
          "internalType": "uint256",
          "name": "",
          "type": "uint256"
        }
      ],
      "stateMutability": "view",
      "type": "function"
    },
    {
      "inputs": [
        {
          "internalType": "address",
          "name": "owner",
          "type": "address"
        },
        {
          "internalType": "uint256",
          "name": "index",
          "type": "uint256"
        }
      ],
      "name": "tokenOfOwnerByIndex",
      "outputs": [
        {
          "internalType": "uint256",
          "name": "",
          "type": "uint256"
        }
      ],
      "stateMutability": "view",
      "type": "function"
    },
    {
      "inputs": [
        {
          "internalType": "uint256",
          "name": "id",
          "type": "uint256"
        }
      ],
      "name": "tokenURI",
      "outputs": [
        {
          "internalType": "string",
          "name": "",
          "type": "string"
        }
      ],
      "stateMutability": "view",
      "type": "function"
    },
    {
      "inputs": [],
      "name": "totalSupply",
      "outputs": [
        {
          "internalType": "uint256",
          "name": "",
          "type": "uint256"
        }
      ],
      "stateMutability": "view",
      "type": "function"
    },
    {
      "inputs": [
        {
          "internalType": "address",
          "name": "from",
          "type": "address"
        },
        {
          "internalType": "address",
          "name": "to",
          "type": "address"
        },
        {
          "internalType": "uint256",
          "name": "tokenId",
          "type": "uint256"
        }
      ],
      "name": "transferFrom",
      "outputs": [],
      "stateMutability": "nonpayable",
      "type": "function"
    },
    {
      "inputs": [],
      "name": "unpause",
      "outputs": [],
      "stateMutability": "nonpayable",
      "type": "function"
    },
    {
      "inputs": [
        {
          "internalType": "uint256",
          "name": "amount",
          "type": "uint256"
        }
      ],
      "name": "withdrawFunds",
      "outputs": [],
      "stateMutability": "nonpayable",
      "type": "function"
    }
  ],
  "bytecode": "0x60806040523480156200001157600080fd5b5060405162002b9738038062002b978339810160408190526200003491620001a9565b60405180604001604052806009815260200168105d985d185c93919560ba1b8152506040518060400160405280600381526020016241564160e81b81525081600090816200008391906200030f565b5060016200009282826200030f565b5050600b805460ff1916905550620000ac600033620000ee565b620000d87f9f2df0fed2c77648de5860a4cc508cd0818c85b8b8a1ab4ceeef8d981c8956a633620000ee565b600c620000e682826200030f565b5050620003db565b6000828152600a602090815260408083206001600160a01b038516845290915290205460ff166200018f576000828152600a602090815260408083206001600160a01b03851684529091529020805460ff191660011790556200014e3390565b6001600160a01b0316816001600160a01b0316837f2f8788117e7eff1d82e926ec794901d17c78024a50270940304540a733656f0d60405160405180910390a45b5050565b634e487b7160e01b600052604160045260246000fd5b60006020808385031215620001bd57600080fd5b82516001600160401b0380821115620001d557600080fd5b818501915085601f830112620001ea57600080fd5b815181811115620001ff57620001ff62000193565b604051601f8201601f19908116603f011681019083821181831017156200022a576200022a62000193565b8160405282815288868487010111156200024357600080fd5b600093505b8284101562000267578484018601518185018701529285019262000248565b600086848301015280965050505050505092915050565b600181811c908216806200029357607f821691505b602082108103620002b457634e487b7160e01b600052602260045260246000fd5b50919050565b601f8211156200030a576000816000526020600020601f850160051c81016020861015620002e55750805b601f850160051c820191505b818110156200030657828155600101620002f1565b5050505b505050565b81516001600160401b038111156200032b576200032b62000193565b62000343816200033c84546200027e565b84620002ba565b602080601f8311600181146200037b5760008415620003625750858301515b600019600386901b1c1916600185901b17855562000306565b600085815260208120601f198616915b82811015620003ac578886015182559484019460019091019084016200038b565b5085821015620003cb5787850151600019600388901b60f8161c191681555b5050505050600190811b01905550565b6127ac80620003eb6000396000f3fe608060405234801561001057600080fd5b50600436106101fb5760003560e01c806355f804b31161011a578063a217fddf116100ad578063caf1e27a1161007c578063caf1e27a1461042d578063d539139314610440578063d547741f14610467578063d9d616551461047a578063e985e9c51461049a57600080fd5b8063a217fddf146103ec578063a22cb465146103f4578063b88d4fde14610407578063c87b56dd1461041a57600080fd5b806370a08231116100e957806370a08231146103b65780638456cb59146103c957806391d14854146103d157806395d89b41146103e457600080fd5b806355f804b3146103655780635c975abb146103785780636352211e146103835780636ff117b01461039657600080fd5b80632f2ff15d1161019257806340d097c31161016157806340d097c31461031957806342842e0e1461032c57806342966c681461033f5780634f6ccce71461035257600080fd5b80632f2ff15d146102d85780632f745c59146102eb57806336568abe146102fe5780633f4ba83a1461031157600080fd5b8063155dd5ee116101ce578063155dd5ee1461027d57806318160ddd1461029057806323b872dd146102a2578063248a9ca3146102b557600080fd5b806301ffc9a71461020057806306fdde0314610228578063081812fc1461023d578063095ea7b314610268575b600080fd5b61021361020e366004611f69565b6104d6565b60405190151581526020015b60405180910390f35b6102306104e7565b60405161021f9190611fd6565b61025061024b366004611fe9565b610579565b6040516001600160a01b03909116815260200161021f565b61027b61027636600461201e565b6105a0565b005b61027b61028b366004611fe9565b6106ba565b6008545b60405190815260200161021f565b61027b6102b0366004612048565b6106f2565b6102946102c3366004611fe9565b6000908152600a602052604090206001015490565b61027b6102e6366004612084565b610724565b6102946102f936600461201e565b610749565b61027b61030c366004612084565b6107df565b61027b61085d565b61027b6103273660046120b0565b610873565b61027b61033a366004612048565b61090b565b61027b61034d366004611fe9565b610926565b610294610360366004611fe9565b61098c565b61027b6103733660046120cb565b610a1f565b600b5460ff16610213565b610250610391366004611fe9565b610a3d565b6103a96103a43660046120b0565b610a9d565b60405161021f919061213d565b6102946103c43660046120b0565b610b4d565b61027b610bd3565b6102136103df366004612084565b610be6565b610230610c11565b610294600081565b61027b6104023660046121a1565b610c20565b61027b6104153660046121f3565b610c2b565b610230610428366004611fe9565b610c5d565b61027b61043b36600461201e565b610d39565b6102947f9f2df0fed2c77648de5860a4cc508cd0818c85b8b8a1ab4ceeef8d981c8956a681565b61027b610475366004612084565b610e70565b61048d6104883660046120b0565b610e95565b60405161021f91906122cf565b6102136104a8366004612313565b6001600160a01b03918216600090815260056020908152604080832093909416825291909152205460ff1690565b60006104e182610f25565b92915050565b6060600080546104f69061233d565b80601f01602080910402602001604051908101604052809291908181526020018280546105229061233d565b801561056f5780601f106105445761010080835404028352916020019161056f565b820191906000526020600020905b81548152906001019060200180831161055257829003601f168201915b5050505050905090565b600061058482610f4a565b506000908152600460205260409020546001600160a01b031690565b60006105ab82610a3d565b9050806001600160a01b0316836001600160a01b03160361061d5760405162461bcd60e51b815260206004820152602160248201527f4552433732313a20617070726f76616c20746f2063757272656e74206f776e656044820152603960f91b60648201526084015b60405180910390fd5b336001600160a01b0382161480610639575061063981336104a8565b6106ab5760405162461bcd60e51b815260206004820152603d60248201527f4552433732313a20617070726f76652063616c6c6572206973206e6f7420746f60448201527f6b656e206f776e6572206f7220617070726f76656420666f7220616c6c0000006064820152608401610614565b6106b58383610fa9565b505050565b60006106c581611017565b604051339083156108fc029084906000818181858888f193505050501580156106b5573d6000803e3d6000fd5b6106fd335b82611021565b6107195760405162461bcd60e51b815260040161061490612377565b6106b58383836110a0565b6000828152600a602052604090206001015461073f81611017565b6106b58383611211565b600061075483610b4d565b82106107b65760405162461bcd60e51b815260206004820152602b60248201527f455243373231456e756d657261626c653a206f776e657220696e646578206f7560448201526a74206f6620626f756e647360a81b6064820152608401610614565b506001600160a01b03919091166000908152600660209081526040808320938352929052205490565b6001600160a01b038116331461084f5760405162461bcd60e51b815260206004820152602f60248201527f416363657373436f6e74726f6c3a2063616e206f6e6c792072656e6f756e636560448201526e103937b632b9903337b91039b2b63360891b6064820152608401610614565b6108598282611297565b5050565b600061086881611017565b6108706112fe565b50565b7f9f2df0fed2c77648de5860a4cc508cd0818c85b8b8a1ab4ceeef8d981c8956a661089d81611017565b6108a5611350565b60006108b060085490565b90506108bc8382611398565b80836001600160a01b03167fdf92894dc4675a7333caa5903b69cf5d8e8ec0d3f361c88207b6688e525703bb6108f184610c5d565b6040516108fe9190611fd6565b60405180910390a3505050565b6106b583838360405180602001604052806000815250610c2b565b61092e611350565b610937336106f7565b6109835760405162461bcd60e51b815260206004820181905260248201527f43616c6c6572206973206e6f74206f776e6572206e6f7220617070726f7665646044820152606401610614565b610870816113b2565b600061099760085490565b82106109fa5760405162461bcd60e51b815260206004820152602c60248201527f455243373231456e756d657261626c653a20676c6f62616c20696e646578206f60448201526b7574206f6620626f756e647360a01b6064820152608401610614565b60088281548110610a0d57610a0d6123c4565b90600052602060002001549050919050565b6000610a2a81611017565b600c610a3783858361242a565b50505050565b6000818152600260205260408120546001600160a01b0316806104e15760405162461bcd60e51b8152602060048201526018602482015277115490cdcc8c4e881a5b9d985b1a59081d1bdad95b88125160421b6044820152606401610614565b60606000610aaa83610b4d565b905060008167ffffffffffffffff811115610ac757610ac76121dd565b604051908082528060200260200182016040528015610afa57816020015b6060815260200190600190039081610ae55790505b50905060005b82811015610b45576000610b148683610749565b9050610b1f81610c5d565b838381518110610b3157610b316123c4565b602090810291909101015250600101610b00565b509392505050565b60006001600160a01b038216610bb75760405162461bcd60e51b815260206004820152602960248201527f4552433732313a2061646472657373207a65726f206973206e6f7420612076616044820152683634b21037bbb732b960b91b6064820152608401610614565b506001600160a01b031660009081526003602052604090205490565b6000610bde81611017565b610870611455565b6000918252600a602090815260408084206001600160a01b0393909316845291905290205460ff1690565b6060600180546104f69061233d565b610859338383611492565b610c353383611021565b610c515760405162461bcd60e51b815260040161061490612377565b610a3784848484611558565b6000818152600260205260409020546060906001600160a01b0316610cdc5760405162461bcd60e51b815260206004820152602f60248201527f4552433732314d657461646174613a2055524920717565727920666f72206e6f60448201526e3732bc34b9ba32b73a103a37b5b2b760891b6064820152608401610614565b6000828152600e6020526040902054829060ff1615610d0657506000828152600d60205260409020545b600c610d118261158b565b604051602001610d229291906124ea565b604051602081830303815290604052915050919050565b7f9f2df0fed2c77648de5860a4cc508cd0818c85b8b8a1ab4ceeef8d981c8956a6610d6381611017565b610d6b611350565b6000828152600260205260409020546001600160a01b0316610de35760405162461bcd60e51b815260206004820152602b60248201527f4176617461724e46543a206578697374696e6720746f6b656e20494420646f6560448201526a1cc81b9bdd08195e1a5cdd60aa1b6064820152608401610614565b6000610dee60085490565b9050610dfa8482611398565b6000818152600d60209081526040808320869055600e9091529020805460ff19166001179055806001600160a01b0385167f64ac6b0d3ddcecd03853253032d99b1b69f4947f38ef15dba43e43925472dd8a610e5586610c5d565b604051610e629190611fd6565b60405180910390a350505050565b6000828152600a6020526040902060010154610e8b81611017565b6106b58383611297565b60606000610ea283610b4d565b905060008167ffffffffffffffff811115610ebf57610ebf6121dd565b604051908082528060200260200182016040528015610ee8578160200160208202803683370190505b50905060005b82811015610b4557610f008582610749565b828281518110610f1257610f126123c4565b6020908102919091010152600101610eee565b60006001600160e01b03198216637965db0b60e01b14806104e157506104e18261161e565b6000818152600260205260409020546001600160a01b03166108705760405162461bcd60e51b8152602060048201526018602482015277115490cdcc8c4e881a5b9d985b1a59081d1bdad95b88125160421b6044820152606401610614565b600081815260046020526040902080546001600160a01b0319166001600160a01b0384169081179091558190610fde82610a3d565b6001600160a01b03167f8c5be1e5ebec7d5bd14f71427d1e84f3dd0314c0f7b2291e5b200ac8c7c3b92560405160405180910390a45050565b6108708133611643565b60008061102d83610a3d565b9050806001600160a01b0316846001600160a01b0316148061107457506001600160a01b0380821660009081526005602090815260408083209388168352929052205460ff165b806110985750836001600160a01b031661108d84610579565b6001600160a01b0316145b949350505050565b826001600160a01b03166110b382610a3d565b6001600160a01b0316146110d95760405162461bcd60e51b815260040161061490612590565b6001600160a01b03821661113b5760405162461bcd60e51b8152602060048201526024808201527f4552433732313a207472616e7366657220746f20746865207a65726f206164646044820152637265737360e01b6064820152608401610614565b611148838383600161169c565b826001600160a01b031661115b82610a3d565b6001600160a01b0316146111815760405162461bcd60e51b815260040161061490612590565b600081815260046020908152604080832080546001600160a01b03199081169091556001600160a01b0387811680865260038552838620805460001901905590871680865283862080546001019055868652600290945282852080549092168417909155905184937fddf252ad1be2c89b69c2b068fc378daa952ba7f163c4a11628f55a4df523b3ef91a4505050565b61121b8282610be6565b610859576000828152600a602090815260408083206001600160a01b03851684529091529020805460ff191660011790556112533390565b6001600160a01b0316816001600160a01b0316837f2f8788117e7eff1d82e926ec794901d17c78024a50270940304540a733656f0d60405160405180910390a45050565b6112a18282610be6565b15610859576000828152600a602090815260408083206001600160a01b0385168085529252808320805460ff1916905551339285917ff6391f5c32d9c69d2a47ea670b442974b53935d1edc7fd64eb21e047a839171b9190a45050565b6113066117d0565b600b805460ff191690557f5db9ee0a495bf2e6ff9c91a7834c1ba4fdd244a5e8aa4e537bd38aeae4b073aa335b6040516001600160a01b03909116815260200160405180910390a1565b600b5460ff16156113965760405162461bcd60e51b815260206004820152601060248201526f14185d5cd8589b194e881c185d5cd95960821b6044820152606401610614565b565b610859828260405180602001604052806000815250611819565b60006113bd82610a3d565b90506113cd81600084600161169c565b6113d682610a3d565b600083815260046020908152604080832080546001600160a01b03199081169091556001600160a01b0385168085526003845282852080546000190190558785526002909352818420805490911690555192935084927fddf252ad1be2c89b69c2b068fc378daa952ba7f163c4a11628f55a4df523b3ef908390a45050565b61145d611350565b600b805460ff191660011790557f62e78cea01bee320cd4e420270b5ea74000d11b0c9f74754ebdbfc544b05a2586113333390565b816001600160a01b0316836001600160a01b0316036114f35760405162461bcd60e51b815260206004820152601960248201527f4552433732313a20617070726f766520746f2063616c6c6572000000000000006044820152606401610614565b6001600160a01b03838116600081815260056020908152604080832094871680845294825291829020805460ff191686151590811790915591519182527f17307eab39ab6107e8899845ad3d59bd9653f200f220920489ca2b5937696c3191016108fe565b6115638484846110a0565b61156f8484848461184c565b610a375760405162461bcd60e51b8152600401610614906125d5565b606060006115988361194d565b600101905060008167ffffffffffffffff8111156115b8576115b86121dd565b6040519080825280601f01601f1916602001820160405280156115e2576020820181803683370190505b5090508181016020015b600019016f181899199a1a9b1b9c1cb0b131b232b360811b600a86061a8153600a85049450846115ec57509392505050565b60006001600160e01b0319821663780e9d6360e01b14806104e157506104e182611a25565b61164d8282610be6565b6108595761165a81611a75565b611665836020611a87565b604051602001611676929190612627565b60408051601f198184030181529082905262461bcd60e51b825261061491600401611fd6565b600181111561170b5760405162461bcd60e51b815260206004820152603560248201527f455243373231456e756d657261626c653a20636f6e7365637574697665207472604482015274185b9cd9995c9cc81b9bdd081cdd5c1c1bdc9d1959605a1b6064820152608401610614565b816001600160a01b0385166117675761176281600880546000838152600960205260408120829055600182018355919091527ff3f7a9fe364faab93b216da50a3214154f22a0a2b415b23a84c8169e8b636ee30155565b61178a565b836001600160a01b0316856001600160a01b03161461178a5761178a8582611c2a565b6001600160a01b0384166117a6576117a181611cc7565b6117c9565b846001600160a01b0316846001600160a01b0316146117c9576117c98482611d76565b5050505050565b600b5460ff166113965760405162461bcd60e51b815260206004820152601460248201527314185d5cd8589b194e881b9bdd081c185d5cd95960621b6044820152606401610614565b6118238383611dba565b611830600084848461184c565b6106b55760405162461bcd60e51b8152600401610614906125d5565b60006001600160a01b0384163b1561194257604051630a85bd0160e11b81526001600160a01b0385169063150b7a029061189090339089908890889060040161269c565b6020604051808303816000875af19250505080156118cb575060408051601f3d908101601f191682019092526118c8918101906126d9565b60015b611928573d8080156118f9576040519150601f19603f3d011682016040523d82523d6000602084013e6118fe565b606091505b5080516000036119205760405162461bcd60e51b8152600401610614906125d5565b805181602001fd5b6001600160e01b031916630a85bd0160e11b149050611098565b506001949350505050565b60008072184f03e93ff9f4daa797ed6e38ed64bf6a1f0160401b831061198c5772184f03e93ff9f4daa797ed6e38ed64bf6a1f0160401b830492506040015b6d04ee2d6d415b85acef810000000083106119b8576d04ee2d6d415b85acef8100000000830492506020015b662386f26fc1000083106119d657662386f26fc10000830492506010015b6305f5e10083106119ee576305f5e100830492506008015b6127108310611a0257612710830492506004015b60648310611a14576064830492506002015b600a83106104e15760010192915050565b60006001600160e01b031982166380ac58cd60e01b1480611a5657506001600160e01b03198216635b5e139f60e01b145b806104e157506301ffc9a760e01b6001600160e01b03198316146104e1565b60606104e16001600160a01b03831660145b60606000611a9683600261270c565b611aa1906002612723565b67ffffffffffffffff811115611ab957611ab96121dd565b6040519080825280601f01601f191660200182016040528015611ae3576020820181803683370190505b509050600360fc1b81600081518110611afe57611afe6123c4565b60200101906001600160f81b031916908160001a905350600f60fb1b81600181518110611b2d57611b2d6123c4565b60200101906001600160f81b031916908160001a9053506000611b5184600261270c565b611b5c906001612723565b90505b6001811115611bd4576f181899199a1a9b1b9c1cb0b131b232b360811b85600f1660108110611b9057611b906123c4565b1a60f81b828281518110611ba657611ba66123c4565b60200101906001600160f81b031916908160001a90535060049490941c93611bcd81612736565b9050611b5f565b508315611c235760405162461bcd60e51b815260206004820181905260248201527f537472696e67733a20686578206c656e67746820696e73756666696369656e746044820152606401610614565b9392505050565b60006001611c3784610b4d565b611c41919061274d565b600083815260076020526040902054909150808214611c94576001600160a01b03841660009081526006602090815260408083208584528252808320548484528184208190558352600790915290208190555b5060009182526007602090815260408084208490556001600160a01b039094168352600681528383209183525290812055565b600854600090611cd99060019061274d565b60008381526009602052604081205460088054939450909284908110611d0157611d016123c4565b906000526020600020015490508060088381548110611d2257611d226123c4565b6000918252602080832090910192909255828152600990915260408082208490558582528120556008805480611d5a57611d5a612760565b6001900381819060005260206000200160009055905550505050565b6000611d8183610b4d565b6001600160a01b039093166000908152600660209081526040808320868452825280832085905593825260079052919091209190915550565b6001600160a01b038216611e105760405162461bcd60e51b815260206004820181905260248201527f4552433732313a206d696e7420746f20746865207a65726f20616464726573736044820152606401610614565b6000818152600260205260409020546001600160a01b031615611e755760405162461bcd60e51b815260206004820152601c60248201527f4552433732313a20746f6b656e20616c7265616479206d696e746564000000006044820152606401610614565b611e8360008383600161169c565b6000818152600260205260409020546001600160a01b031615611ee85760405162461bcd60e51b815260206004820152601c60248201527f4552433732313a20746f6b656e20616c7265616479206d696e746564000000006044820152606401610614565b6001600160a01b038216600081815260036020908152604080832080546001019055848352600290915280822080546001600160a01b0319168417905551839291907fddf252ad1be2c89b69c2b068fc378daa952ba7f163c4a11628f55a4df523b3ef908290a45050565b6001600160e01b03198116811461087057600080fd5b600060208284031215611f7b57600080fd5b8135611c2381611f53565b60005b83811015611fa1578181015183820152602001611f89565b50506000910152565b60008151808452611fc2816020860160208601611f86565b601f01601f19169290920160200192915050565b602081526000611c236020830184611faa565b600060208284031215611ffb57600080fd5b5035919050565b80356001600160a01b038116811461201957600080fd5b919050565b6000806040838503121561203157600080fd5b61203a83612002565b946020939093013593505050565b60008060006060848603121561205d57600080fd5b61206684612002565b925061207460208501612002565b9150604084013590509250925092565b6000806040838503121561209757600080fd5b823591506120a760208401612002565b90509250929050565b6000602082840312156120c257600080fd5b611c2382612002565b600080602083850312156120de57600080fd5b823567ffffffffffffffff808211156120f657600080fd5b818501915085601f83011261210a57600080fd5b81358181111561211957600080fd5b86602082850101111561212b57600080fd5b60209290920196919550909350505050565b600060208083016020845280855180835260408601915060408160051b87010192506020870160005b8281101561219457603f19888603018452612182858351611faa565b94509285019290850190600101612166565b5092979650505050505050565b600080604083850312156121b457600080fd5b6121bd83612002565b9150602083013580151581146121d257600080fd5b809150509250929050565b634e487b7160e01b600052604160045260246000fd5b6000806000806080858703121561220957600080fd5b61221285612002565b935061222060208601612002565b925060408501359150606085013567ffffffffffffffff8082111561224457600080fd5b818701915087601f83011261225857600080fd5b81358181111561226a5761226a6121dd565b604051601f8201601f19908116603f01168101908382118183101715612292576122926121dd565b816040528281528a60208487010111156122ab57600080fd5b82602086016020830137600060208483010152809550505050505092959194509250565b6020808252825182820181905260009190848201906040850190845b81811015612307578351835292840192918401916001016122eb565b50909695505050505050565b6000806040838503121561232657600080fd5b61232f83612002565b91506120a760208401612002565b600181811c9082168061235157607f821691505b60208210810361237157634e487b7160e01b600052602260045260246000fd5b50919050565b6020808252602d908201527f4552433732313a2063616c6c6572206973206e6f7420746f6b656e206f776e6560408201526c1c881bdc88185c1c1c9bdd9959609a1b606082015260800190565b634e487b7160e01b600052603260045260246000fd5b601f8211156106b5576000816000526020600020601f850160051c810160208610156124035750805b601f850160051c820191505b818110156124225782815560010161240f565b505050505050565b67ffffffffffffffff831115612442576124426121dd565b61245683612450835461233d565b836123da565b6000601f84116001811461248a57600085156124725750838201355b600019600387901b1c1916600186901b1783556117c9565b600083815260209020601f19861690835b828110156124bb578685013582556020948501946001909201910161249b565b50868210156124d85760001960f88860031b161c19848701351681555b505060018560011b0183555050505050565b60008084546124f88161233d565b60018281168015612510576001811461252557612554565b60ff1984168752821515830287019450612554565b8860005260208060002060005b8581101561254b5781548a820152908401908201612532565b50505082870194505b50505050602f60f81b81528351612572816001840160208801611f86565b64173539b7b760d91b60019290910191820152600601949350505050565b60208082526025908201527f4552433732313a207472616e736665722066726f6d20696e636f72726563742060408201526437bbb732b960d91b606082015260800190565b60208082526032908201527f4552433732313a207472616e7366657220746f206e6f6e20455243373231526560408201527131b2b4bb32b91034b6b83632b6b2b73a32b960711b606082015260800190565b7f416363657373436f6e74726f6c3a206163636f756e742000000000000000000081526000835161265f816017850160208801611f86565b7001034b99036b4b9b9b4b733903937b6329607d1b6017918401918201528351612690816028840160208801611f86565b01602801949350505050565b6001600160a01b03858116825284166020820152604081018390526080606082018190526000906126cf90830184611faa565b9695505050505050565b6000602082840312156126eb57600080fd5b8151611c2381611f53565b634e487b7160e01b600052601160045260246000fd5b80820281158282048414176104e1576104e16126f6565b808201808211156104e1576104e16126f6565b600081612745576127456126f6565b506000190190565b818103818111156104e1576104e16126f6565b634e487b7160e01b600052603160045260246000fdfea2646970667358221220ce37933f76374250ee68b76d4193ad3ab2cc0750e8672a65826e2e21ffcf7f7764736f6c63430008170033",
  "linkReferences": {},
  "deployedLinkReferences": {}
}