{
  "_format": "hh-sol-artifact-1",
  "contractName": "AvatarNFT",
  "sourceName": "contracts/avatarMarket/AvatarNFT.sol",
  "abi": [
    {
      "inputs": [
        {
          "internalType": "string",
          "name": "_initialBaseURI",
          "type": "string"
        }
      ],
      "stateMutability": "nonpayable",
      "type": "constructor"
    },
    {
      "anonymous": false,
      "inputs": [
        {
          "indexed": true,
          "internalType": "address",
          "name": "owner",
          "type": "address"
        },
        {
          "indexed": true,
          "internalType": "address",
          "name": "approved",
          "type": "address"
        },
        {
          "indexed": true,
          "internalType": "uint256",
          "name": "tokenId",
          "type": "uint256"
        }
      ],
      "name": "Approval",
      "type": "event"
    },
    {
      "anonymous": false,
      "inputs": [
        {
          "indexed": true,
          "internalType": "address",
          "name": "owner",
          "type": "address"
        },
        {
          "indexed": true,
          "internalType": "address",
          "name": "operator",
          "type": "address"
        },
        {
          "indexed": false,
          "internalType": "bool",
          "name": "approved",
          "type": "bool"
        }
      ],
      "name": "ApprovalForAll",
      "type": "event"
    },
    {
      "anonymous": false,
      "inputs": [
        {
          "indexed": false,
          "internalType": "uint256",
          "name": "_fromTokenId",
          "type": "uint256"
        },
        {
          "indexed": false,
          "internalType": "uint256",
          "name": "_toTokenId",
          "type": "uint256"
        }
      ],
      "name": "BatchMetadataUpdate",
      "type": "event"
    },
    {
      "anonymous": false,
      "inputs": [
        {
          "indexed": false,
          "internalType": "uint256",
          "name": "_tokenId",
          "type": "uint256"
        }
      ],
      "name": "MetadataUpdate",
      "type": "event"
    },
    {
      "anonymous": false,
      "inputs": [
        {
          "indexed": false,
          "internalType": "address",
          "name": "account",
          "type": "address"
        }
      ],
      "name": "Paused",
      "type": "event"
    },
    {
      "anonymous": false,
      "inputs": [
        {
          "indexed": true,
          "internalType": "bytes32",
          "name": "role",
          "type": "bytes32"
        },
        {
          "indexed": true,
          "internalType": "bytes32",
          "name": "previousAdminRole",
          "type": "bytes32"
        },
        {
          "indexed": true,
          "internalType": "bytes32",
          "name": "newAdminRole",
          "type": "bytes32"
        }
      ],
      "name": "RoleAdminChanged",
      "type": "event"
    },
    {
      "anonymous": false,
      "inputs": [
        {
          "indexed": true,
          "internalType": "bytes32",
          "name": "role",
          "type": "bytes32"
        },
        {
          "indexed": true,
          "internalType": "address",
          "name": "account",
          "type": "address"
        },
        {
          "indexed": true,
          "internalType": "address",
          "name": "sender",
          "type": "address"
        }
      ],
      "name": "RoleGranted",
      "type": "event"
    },
    {
      "anonymous": false,
      "inputs": [
        {
          "indexed": true,
          "internalType": "bytes32",
          "name": "role",
          "type": "bytes32"
        },
        {
          "indexed": true,
          "internalType": "address",
          "name": "account",
          "type": "address"
        },
        {
          "indexed": true,
          "internalType": "address",
          "name": "sender",
          "type": "address"
        }
      ],
      "name": "RoleRevoked",
      "type": "event"
    },
    {
      "anonymous": false,
      "inputs": [
        {
          "indexed": true,
          "internalType": "address",
          "name": "from",
          "type": "address"
        },
        {
          "indexed": true,
          "internalType": "address",
          "name": "to",
          "type": "address"
        },
        {
          "indexed": true,
          "internalType": "uint256",
          "name": "tokenId",
          "type": "uint256"
        }
      ],
      "name": "Transfer",
      "type": "event"
    },
    {
      "anonymous": false,
      "inputs": [
        {
          "indexed": false,
          "internalType": "address",
          "name": "account",
          "type": "address"
        }
      ],
      "name": "Unpaused",
      "type": "event"
    },
    {
      "inputs": [],
      "name": "DEFAULT_ADMIN_ROLE",
      "outputs": [
        {
          "internalType": "bytes32",
          "name": "",
          "type": "bytes32"
        }
      ],
      "stateMutability": "view",
      "type": "function"
    },
    {
      "inputs": [],
      "name": "MINTER_ROLE",
      "outputs": [
        {
          "internalType": "bytes32",
          "name": "",
          "type": "bytes32"
        }
      ],
      "stateMutability": "view",
      "type": "function"
    },
    {
      "inputs": [
        {
          "internalType": "address",
          "name": "to",
          "type": "address"
        },
        {
          "internalType": "uint256",
          "name": "tokenId",
          "type": "uint256"
        }
      ],
      "name": "approve",
      "outputs": [],
      "stateMutability": "nonpayable",
      "type": "function"
    },
    {
      "inputs": [
        {
          "internalType": "address",
          "name": "owner",
          "type": "address"
        }
      ],
      "name": "balanceOf",
      "outputs": [
        {
          "internalType": "uint256",
          "name": "",
          "type": "uint256"
        }
      ],
      "stateMutability": "view",
      "type": "function"
    },
    {
      "inputs": [
        {
          "internalType": "uint256",
          "name": "_tokenId",
          "type": "uint256"
        }
      ],
      "name": "burn",
      "outputs": [],
      "stateMutability": "nonpayable",
      "type": "function"
    },
    {
      "inputs": [
        {
          "internalType": "uint256",
          "name": "tokenId",
          "type": "uint256"
        }
      ],
      "name": "getApproved",
      "outputs": [
        {
          "internalType": "address",
          "name": "",
          "type": "address"
        }
      ],
      "stateMutability": "view",
      "type": "function"
    },
    {
      "inputs": [
        {
          "internalType": "address",
          "name": "owner",
          "type": "address"
        }
      ],
      "name": "getOwnedTokens",
      "outputs": [
        {
          "internalType": "uint256[]",
          "name": "",
          "type": "uint256[]"
        }
      ],
      "stateMutability": "view",
      "type": "function"
    },
    {
      "inputs": [
        {
          "internalType": "bytes32",
          "name": "role",
          "type": "bytes32"
        }
      ],
      "name": "getRoleAdmin",
      "outputs": [
        {
          "internalType": "bytes32",
          "name": "",
          "type": "bytes32"
        }
      ],
      "stateMutability": "view",
      "type": "function"
    },
    {
      "inputs": [
        {
          "internalType": "bytes32",
          "name": "role",
          "type": "bytes32"
        },
        {
          "internalType": "address",
          "name": "account",
          "type": "address"
        }
      ],
      "name": "grantRole",
      "outputs": [],
      "stateMutability": "nonpayable",
      "type": "function"
    },
    {
      "inputs": [
        {
          "internalType": "bytes32",
          "name": "role",
          "type": "bytes32"
        },
        {
          "internalType": "address",
          "name": "account",
          "type": "address"
        }
      ],
      "name": "hasRole",
      "outputs": [
        {
          "internalType": "bool",
          "name": "",
          "type": "bool"
        }
      ],
      "stateMutability": "view",
      "type": "function"
    },
    {
      "inputs": [
        {
          "internalType": "address",
          "name": "owner",
          "type": "address"
        },
        {
          "internalType": "address",
          "name": "operator",
          "type": "address"
        }
      ],
      "name": "isApprovedForAll",
      "outputs": [
        {
          "internalType": "bool",
          "name": "",
          "type": "bool"
        }
      ],
      "stateMutability": "view",
      "type": "function"
    },
    {
      "inputs": [],
      "name": "name",
      "outputs": [
        {
          "internalType": "string",
          "name": "",
          "type": "string"
        }
      ],
      "stateMutability": "view",
      "type": "function"
    },
    {
      "inputs": [
        {
          "internalType": "uint256",
          "name": "tokenId",
          "type": "uint256"
        }
      ],
      "name": "ownerOf",
      "outputs": [
        {
          "internalType": "address",
          "name": "",
          "type": "address"
        }
      ],
      "stateMutability": "view",
      "type": "function"
    },
    {
      "inputs": [],
      "name": "pause",
      "outputs": [],
      "stateMutability": "nonpayable",
      "type": "function"
    },
    {
      "inputs": [],
      "name": "paused",
      "outputs": [
        {
          "internalType": "bool",
          "name": "",
          "type": "bool"
        }
      ],
      "stateMutability": "view",
      "type": "function"
    },
    {
      "inputs": [
        {
          "internalType": "bytes32",
          "name": "role",
          "type": "bytes32"
        },
        {
          "internalType": "address",
          "name": "account",
          "type": "address"
        }
      ],
      "name": "renounceRole",
      "outputs": [],
      "stateMutability": "nonpayable",
      "type": "function"
    },
    {
      "inputs": [
        {
          "internalType": "bytes32",
          "name": "role",
          "type": "bytes32"
        },
        {
          "internalType": "address",
          "name": "account",
          "type": "address"
        }
      ],
      "name": "revokeRole",
      "outputs": [],
      "stateMutability": "nonpayable",
      "type": "function"
    },
    {
      "inputs": [
        {
          "internalType": "address",
          "name": "_to",
          "type": "address"
        }
      ],
      "name": "safeMint",
      "outputs": [],
      "stateMutability": "nonpayable",
      "type": "function"
    },
    {
      "inputs": [
        {
          "internalType": "address",
          "name": "from",
          "type": "address"
        },
        {
          "internalType": "address",
          "name": "to",
          "type": "address"
        },
        {
          "internalType": "uint256",
          "name": "tokenId",
          "type": "uint256"
        }
      ],
      "name": "safeTransferFrom",
      "outputs": [],
      "stateMutability": "nonpayable",
      "type": "function"
    },
    {
      "inputs": [
        {
          "internalType": "address",
          "name": "from",
          "type": "address"
        },
        {
          "internalType": "address",
          "name": "to",
          "type": "address"
        },
        {
          "internalType": "uint256",
          "name": "tokenId",
          "type": "uint256"
        },
        {
          "internalType": "bytes",
          "name": "data",
          "type": "bytes"
        }
      ],
      "name": "safeTransferFrom",
      "outputs": [],
      "stateMutability": "nonpayable",
      "type": "function"
    },
    {
      "inputs": [
        {
          "internalType": "address",
          "name": "operator",
          "type": "address"
        },
        {
          "internalType": "bool",
          "name": "approved",
          "type": "bool"
        }
      ],
      "name": "setApprovalForAll",
      "outputs": [],
      "stateMutability": "nonpayable",
      "type": "function"
    },
    {
      "inputs": [
        {
          "internalType": "string",
          "name": "_newBaseURI",
          "type": "string"
        }
      ],
      "name": "setBaseURI",
      "outputs": [],
      "stateMutability": "nonpayable",
      "type": "function"
    },
    {
      "inputs": [
        {
          "internalType": "uint256",
          "name": "_tokenId",
          "type": "uint256"
        },
        {
          "internalType": "string",
          "name": "_uri",
          "type": "string"
        }
      ],
      "name": "setTokenURI",
      "outputs": [],
      "stateMutability": "nonpayable",
      "type": "function"
    },
    {
      "inputs": [
        {
          "internalType": "bytes4",
          "name": "_interfaceId",
          "type": "bytes4"
        }
      ],
      "name": "supportsInterface",
      "outputs": [
        {
          "internalType": "bool",
          "name": "",
          "type": "bool"
        }
      ],
      "stateMutability": "view",
      "type": "function"
    },
    {
      "inputs": [],
      "name": "symbol",
      "outputs": [
        {
          "internalType": "string",
          "name": "",
          "type": "string"
        }
      ],
      "stateMutability": "view",
      "type": "function"
    },
    {
      "inputs": [
        {
          "internalType": "uint256",
          "name": "_tokenId",
          "type": "uint256"
        }
      ],
      "name": "tokenURI",
      "outputs": [
        {
          "internalType": "string",
          "name": "",
          "type": "string"
        }
      ],
      "stateMutability": "view",
      "type": "function"
    },
    {
      "inputs": [
        {
          "internalType": "address",
          "name": "from",
          "type": "address"
        },
        {
          "internalType": "address",
          "name": "to",
          "type": "address"
        },
        {
          "internalType": "uint256",
          "name": "tokenId",
          "type": "uint256"
        }
      ],
      "name": "transferFrom",
      "outputs": [],
      "stateMutability": "nonpayable",
      "type": "function"
    },
    {
      "inputs": [],
      "name": "unpause",
      "outputs": [],
      "stateMutability": "nonpayable",
      "type": "function"
    }
  ],
  "bytecode": "0x60806040523480156200001157600080fd5b5060405162002b4038038062002b4083398101604081905262000034916200044d565b60405180604001604052806009815260200168105d985d185c93919560ba1b8152506040518060400160405280600381526020016241564160e81b815250816000908162000083919062000595565b50600162000092828262000595565b50506008805460ff1916905550620000ac600033620000ea565b620000d87f9f2df0fed2c77648de5860a4cc508cd0818c85b8b8a1ab4ceeef8d981c8956a633620000ea565b620000e38162000175565b5062000785565b620000f6828262000195565b620001715760008281526007602090815260408083206001600160a01b03851684529091529020805460ff19166001179055620001303390565b6001600160a01b0316816001600160a01b0316837f2f8788117e7eff1d82e926ec794901d17c78024a50270940304540a733656f0d60405160405180910390a45b5050565b60006200018281620001c2565b600a62000190838262000595565b505050565b60008281526007602090815260408083206001600160a01b038516845290915290205460ff165b92915050565b620001ce8133620001d1565b50565b620001dd828262000195565b6200017157620001ed816200023e565b620001fa83602062000251565b6040516020016200020d92919062000661565b60408051601f198184030181529082905262461bcd60e51b82526200023591600401620006da565b60405180910390fd5b6060620001bc6001600160a01b03831660145b606060006200026283600262000725565b6200026f9060026200073f565b6001600160401b0381111562000289576200028962000411565b6040519080825280601f01601f191660200182016040528015620002b4576020820181803683370190505b509050600360fc1b81600081518110620002d257620002d262000755565b60200101906001600160f81b031916908160001a905350600f60fb1b8160018151811062000304576200030462000755565b60200101906001600160f81b031916908160001a90535060006200032a84600262000725565b620003379060016200073f565b90505b6001811115620003b9576f181899199a1a9b1b9c1cb0b131b232b360811b85600f16601081106200036f576200036f62000755565b1a60f81b82828151811062000388576200038862000755565b60200101906001600160f81b031916908160001a90535060049490941c93620003b1816200076b565b90506200033a565b5083156200040a5760405162461bcd60e51b815260206004820181905260248201527f537472696e67733a20686578206c656e67746820696e73756666696369656e74604482015260640162000235565b9392505050565b634e487b7160e01b600052604160045260246000fd5b60005b83811015620004445781810151838201526020016200042a565b50506000910152565b6000602082840312156200046057600080fd5b81516001600160401b03808211156200047857600080fd5b818401915084601f8301126200048d57600080fd5b815181811115620004a257620004a262000411565b604051601f8201601f19908116603f01168101908382118183101715620004cd57620004cd62000411565b81604052828152876020848701011115620004e757600080fd5b620004fa83602083016020880162000427565b979650505050505050565b600181811c908216806200051a57607f821691505b6020821081036200053b57634e487b7160e01b600052602260045260246000fd5b50919050565b601f82111562000190576000816000526020600020601f850160051c810160208610156200056c5750805b601f850160051c820191505b818110156200058d5782815560010162000578565b505050505050565b81516001600160401b03811115620005b157620005b162000411565b620005c981620005c2845462000505565b8462000541565b602080601f831160018114620006015760008415620005e85750858301515b600019600386901b1c1916600185901b1785556200058d565b600085815260208120601f198616915b82811015620006325788860151825594840194600190910190840162000611565b5085821015620006515787850151600019600388901b60f8161c191681555b5050505050600190811b01905550565b7f416363657373436f6e74726f6c3a206163636f756e74200000000000000000008152600083516200069b81601785016020880162000427565b7001034b99036b4b9b9b4b733903937b6329607d1b6017918401918201528351620006ce81602884016020880162000427565b01602801949350505050565b6020815260008251806020840152620006fb81604085016020870162000427565b601f01601f19169190910160400192915050565b634e487b7160e01b600052601160045260246000fd5b8082028115828204841417620001bc57620001bc6200070f565b80820180821115620001bc57620001bc6200070f565b634e487b7160e01b600052603260045260246000fd5b6000816200077d576200077d6200070f565b506000190190565b6123ab80620007956000396000f3fe608060405234801561001057600080fd5b50600436106101c45760003560e01c80635c975abb116100f9578063a22cb46511610097578063d539139311610071578063d5391393146103ac578063d547741f146103c1578063d9d61655146103d4578063e985e9c5146103f457600080fd5b8063a22cb46514610373578063b88d4fde14610386578063c87b56dd1461039957600080fd5b80638456cb59116100d35780638456cb591461034857806391d148541461035057806395d89b4114610363578063a217fddf1461036b57600080fd5b80635c975abb146103175780636352211e1461032257806370a082311461033557600080fd5b80632f2ff15d1161016657806340d097c31161014057806340d097c3146102cb57806342842e0e146102de57806342966c68146102f157806355f804b31461030457600080fd5b80632f2ff15d1461029d57806336568abe146102b05780633f4ba83a146102c357600080fd5b8063095ea7b3116101a2578063095ea7b314610231578063162094c41461024657806323b872dd14610259578063248a9ca31461026c57600080fd5b806301ffc9a7146101c957806306fdde03146101f1578063081812fc14610206575b600080fd5b6101dc6101d7366004611b62565b610430565b60405190151581526020015b60405180910390f35b6101f961044b565b6040516101e89190611bcf565b610219610214366004611be2565b6104dd565b6040516001600160a01b0390911681526020016101e8565b61024461023f366004611c12565b610504565b005b610244610254366004611ce8565b61061e565b610244610267366004611d2f565b61066f565b61028f61027a366004611be2565b60009081526007602052604090206001015490565b6040519081526020016101e8565b6102446102ab366004611d6b565b6106a0565b6102446102be366004611d6b565b6106c5565b610244610743565b6102446102d9366004611d97565b610759565b6102446102ec366004611d2f565b61080b565b6102446102ff366004611be2565b610826565b610244610312366004611db2565b610927565b60085460ff166101dc565b610219610330366004611be2565b61093e565b61028f610343366004611d97565b6109a4565b610244610a2a565b6101dc61035e366004611d6b565b610a3d565b6101f9610a68565b61028f600081565b610244610381366004611de7565b610a77565b610244610394366004611e23565b610a82565b6101f96103a7366004611be2565b610aba565b61028f60008051602061235683398151915281565b6102446103cf366004611d6b565b610acd565b6103e76103e2366004611d97565b610af2565b6040516101e89190611e9f565b6101dc610402366004611ee3565b6001600160a01b03918216600090815260056020908152604080832093909416825291909152205460ff1690565b600061043a610b5e565b61044382610ba6565b90505b919050565b60606000805461045a90611f0d565b80601f016020809104026020016040519081016040528092919081815260200182805461048690611f0d565b80156104d35780601f106104a8576101008083540402835291602001916104d3565b820191906000526020600020905b8154815290600101906020018083116104b657829003601f168201915b5050505050905090565b60006104e882610bcb565b506000908152600460205260409020546001600160a01b031690565b600061050f8261093e565b9050806001600160a01b0316836001600160a01b0316036105815760405162461bcd60e51b815260206004820152602160248201527f4552433732313a20617070726f76616c20746f2063757272656e74206f776e656044820152603960f91b60648201526084015b60405180910390fd5b336001600160a01b038216148061059d575061059d8133610402565b61060f5760405162461bcd60e51b815260206004820152603d60248201527f4552433732313a20617070726f76652063616c6c6572206973206e6f7420746f60448201527f6b656e206f776e6572206f7220617070726f76656420666f7220616c6c0000006064820152608401610578565b6106198383610c2a565b505050565b600061062981610c98565b610631610b5e565b6000838152600260205260409020546001600160a01b03166106655760405162461bcd60e51b815260040161057890611f47565b6106198383610ca2565b6106793382610d26565b6106955760405162461bcd60e51b815260040161057890611f95565b610619838383610da5565b6000828152600760205260409020600101546106bb81610c98565b6106198383610f09565b6001600160a01b03811633146107355760405162461bcd60e51b815260206004820152602f60248201527f416363657373436f6e74726f6c3a2063616e206f6e6c792072656e6f756e636560448201526e103937b632b9903337b91039b2b63360891b6064820152608401610578565b61073f8282610f8f565b5050565b600061074e81610c98565b610756610ff6565b50565b60008051602061235683398151915261077181610c98565b610779610b5e565b600061078460095490565b9050600061079182611048565b90506107a1600980546001019055565b6000816040516020016107b49190611fe2565b60405160208183030381529060405290506107cf85846110db565b6107d98382610ca2565b50506001600160a01b039092166000908152600b60209081526040822080546001810182559083529120019190915550565b61061983838360405180602001604052806000815250610a82565b60008051602061235683398151915261083e81610c98565b610846610b5e565b61084f826110f5565b600061085a8361093e565b6001600160a01b0381166000908152600b602052604081209192505b815481101561092057848282815481106108925761089261201a565b90600052602060002001540361091857815482906108b290600190612046565b815481106108c2576108c261201a565b90600052602060002001548282815481106108df576108df61201a565b9060005260206000200181905550818054806108fd576108fd612059565b60019003818190600052602060002001600090559055610920565b600101610876565b5050505050565b600061093281610c98565b600a61061983826120bf565b6000818152600260205260408120546001600160a01b03168061099e5760405162461bcd60e51b8152602060048201526018602482015277115490cdcc8c4e881a5b9d985b1a59081d1bdad95b88125160421b6044820152606401610578565b92915050565b60006001600160a01b038216610a0e5760405162461bcd60e51b815260206004820152602960248201527f4552433732313a2061646472657373207a65726f206973206e6f7420612076616044820152683634b21037bbb732b960b91b6064820152608401610578565b506001600160a01b031660009081526003602052604090205490565b6000610a3581610c98565b61075661111e565b60009182526007602090815260408084206001600160a01b0393909316845291905290205460ff1690565b60606001805461045a90611f0d565b61073f33838361115b565b610a8c3383610d26565b610aa85760405162461bcd60e51b815260040161057890611f95565b610ab484848484611229565b50505050565b6060610ac4610b5e565b6104438261125c565b600082815260076020526040902060010154610ae881610c98565b6106198383610f8f565b6001600160a01b0381166000908152600b6020908152604091829020805483518184028101840190945280845260609392830182828015610b5257602002820191906000526020600020905b815481526020019060010190808311610b3e575b50505050509050919050565b60085460ff1615610ba45760405162461bcd60e51b815260206004820152601060248201526f14185d5cd8589b194e881c185d5cd95960821b6044820152606401610578565b565b60006001600160e01b03198216637965db0b60e01b1480610443575061044382611357565b6000818152600260205260409020546001600160a01b03166107565760405162461bcd60e51b8152602060048201526018602482015277115490cdcc8c4e881a5b9d985b1a59081d1bdad95b88125160421b6044820152606401610578565b600081815260046020526040902080546001600160a01b0319166001600160a01b0384169081179091558190610c5f8261093e565b6001600160a01b03167f8c5be1e5ebec7d5bd14f71427d1e84f3dd0314c0f7b2291e5b200ac8c7c3b92560405160405180910390a45050565b610756813361137c565b6000828152600260205260409020546001600160a01b0316610cd65760405162461bcd60e51b815260040161057890611f47565b6000828152600660205260409020610cee82826120bf565b506040518281527ff8e1a15aba9398e019f0b49df1a4fde98ee17ae345cb5f6b5e2c27f5033e8ce79060200160405180910390a15050565b600080610d328361093e565b9050806001600160a01b0316846001600160a01b03161480610d7957506001600160a01b0380821660009081526005602090815260408083209388168352929052205460ff165b80610d9d5750836001600160a01b0316610d92846104dd565b6001600160a01b0316145b949350505050565b826001600160a01b0316610db88261093e565b6001600160a01b031614610dde5760405162461bcd60e51b81526004016105789061217f565b6001600160a01b038216610e405760405162461bcd60e51b8152602060048201526024808201527f4552433732313a207472616e7366657220746f20746865207a65726f206164646044820152637265737360e01b6064820152608401610578565b826001600160a01b0316610e538261093e565b6001600160a01b031614610e795760405162461bcd60e51b81526004016105789061217f565b600081815260046020908152604080832080546001600160a01b03199081169091556001600160a01b0387811680865260038552838620805460001901905590871680865283862080546001019055868652600290945282852080549092168417909155905184937fddf252ad1be2c89b69c2b068fc378daa952ba7f163c4a11628f55a4df523b3ef91a4505050565b610f138282610a3d565b61073f5760008281526007602090815260408083206001600160a01b03851684529091529020805460ff19166001179055610f4b3390565b6001600160a01b0316816001600160a01b0316837f2f8788117e7eff1d82e926ec794901d17c78024a50270940304540a733656f0d60405160405180910390a45050565b610f998282610a3d565b1561073f5760008281526007602090815260408083206001600160a01b0385168085529252808320805460ff1916905551339285917ff6391f5c32d9c69d2a47ea670b442974b53935d1edc7fd64eb21e047a839171b9190a45050565b610ffe6113d5565b6008805460ff191690557f5db9ee0a495bf2e6ff9c91a7834c1ba4fdd244a5e8aa4e537bd38aeae4b073aa335b6040516001600160a01b03909116815260200160405180910390a1565b606060006110558361141e565b600101905060008167ffffffffffffffff81111561107557611075611c3c565b6040519080825280601f01601f19166020018201604052801561109f576020820181803683370190505b5090508181016020015b600019016f181899199a1a9b1b9c1cb0b131b232b360811b600a86061a8153600a85049450846110a957509392505050565b61073f8282604051806020016040528060008152506114f6565b60008051602061235683398151915261110d81610c98565b611115610b5e565b61073f82611529565b611126610b5e565b6008805460ff191660011790557f62e78cea01bee320cd4e420270b5ea74000d11b0c9f74754ebdbfc544b05a25861102b3390565b816001600160a01b0316836001600160a01b0316036111bc5760405162461bcd60e51b815260206004820152601960248201527f4552433732313a20617070726f766520746f2063616c6c6572000000000000006044820152606401610578565b6001600160a01b03838116600081815260056020908152604080832094871680845294825291829020805460ff191686151590811790915591519182527f17307eab39ab6107e8899845ad3d59bd9653f200f220920489ca2b5937696c31910160405180910390a3505050565b611234848484610da5565b61124084848484611569565b610ab45760405162461bcd60e51b8152600401610578906121c4565b606061126782610bcb565b6000828152600660205260408120805461128090611f0d565b80601f01602080910402602001604051908101604052809291908181526020018280546112ac90611f0d565b80156112f95780601f106112ce576101008083540402835291602001916112f9565b820191906000526020600020905b8154815290600101906020018083116112dc57829003601f168201915b50505050509050600061130a61166a565b9050805160000361131c575092915050565b81511561134e578082604051602001611336929190612216565b60405160208183030381529060405292505050919050565b610d9d84611679565b60006001600160e01b03198216632483248360e11b14806104435750610443826116e0565b6113868282610a3d565b61073f5761139381611730565b61139e836020611742565b6040516020016113af929190612245565b60408051601f198184030181529082905262461bcd60e51b825261057891600401611bcf565b60085460ff16610ba45760405162461bcd60e51b815260206004820152601460248201527314185d5cd8589b194e881b9bdd081c185d5cd95960621b6044820152606401610578565b60008072184f03e93ff9f4daa797ed6e38ed64bf6a1f0160401b831061145d5772184f03e93ff9f4daa797ed6e38ed64bf6a1f0160401b830492506040015b6d04ee2d6d415b85acef81000000008310611489576d04ee2d6d415b85acef8100000000830492506020015b662386f26fc1000083106114a757662386f26fc10000830492506010015b6305f5e10083106114bf576305f5e100830492506008015b61271083106114d357612710830492506004015b606483106114e5576064830492506002015b600a831061099e5760010192915050565b61150083836118de565b61150d6000848484611569565b6106195760405162461bcd60e51b8152600401610578906121c4565b61153281611a69565b6000818152600660205260409020805461154b90611f0d565b15905061075657600081815260066020526040812061075691611afe565b60006001600160a01b0384163b1561165f57604051630a85bd0160e11b81526001600160a01b0385169063150b7a02906115ad9033908990889088906004016122ba565b6020604051808303816000875af19250505080156115e8575060408051601f3d908101601f191682019092526115e5918101906122f7565b60015b611645573d808015611616576040519150601f19603f3d011682016040523d82523d6000602084013e61161b565b606091505b50805160000361163d5760405162461bcd60e51b8152600401610578906121c4565b805181602001fd5b6001600160e01b031916630a85bd0160e11b149050610d9d565b506001949350505050565b6060600a805461045a90611f0d565b606061168482610bcb565b600061168e61166a565b905060008151116116ae57604051806020016040528060008152506116d9565b806116b884611048565b6040516020016116c9929190612216565b6040516020818303038152906040525b9392505050565b60006001600160e01b031982166380ac58cd60e01b148061171157506001600160e01b03198216635b5e139f60e01b145b8061044357506301ffc9a760e01b6001600160e01b0319831614610443565b60606104436001600160a01b03831660145b60606000611751836002612314565b61175c90600261232b565b67ffffffffffffffff81111561177457611774611c3c565b6040519080825280601f01601f19166020018201604052801561179e576020820181803683370190505b509050600360fc1b816000815181106117b9576117b961201a565b60200101906001600160f81b031916908160001a905350600f60fb1b816001815181106117e8576117e861201a565b60200101906001600160f81b031916908160001a905350600061180c846002612314565b61181790600161232b565b90505b600181111561188f576f181899199a1a9b1b9c1cb0b131b232b360811b85600f166010811061184b5761184b61201a565b1a60f81b8282815181106118615761186161201a565b60200101906001600160f81b031916908160001a90535060049490941c936118888161233e565b905061181a565b5083156116d95760405162461bcd60e51b815260206004820181905260248201527f537472696e67733a20686578206c656e67746820696e73756666696369656e746044820152606401610578565b6001600160a01b0382166119345760405162461bcd60e51b815260206004820181905260248201527f4552433732313a206d696e7420746f20746865207a65726f20616464726573736044820152606401610578565b6000818152600260205260409020546001600160a01b0316156119995760405162461bcd60e51b815260206004820152601c60248201527f4552433732313a20746f6b656e20616c7265616479206d696e746564000000006044820152606401610578565b6000818152600260205260409020546001600160a01b0316156119fe5760405162461bcd60e51b815260206004820152601c60248201527f4552433732313a20746f6b656e20616c7265616479206d696e746564000000006044820152606401610578565b6001600160a01b038216600081815260036020908152604080832080546001019055848352600290915280822080546001600160a01b0319168417905551839291907fddf252ad1be2c89b69c2b068fc378daa952ba7f163c4a11628f55a4df523b3ef908290a45050565b6000611a748261093e565b9050611a7f8261093e565b600083815260046020908152604080832080546001600160a01b03199081169091556001600160a01b0385168085526003845282852080546000190190558785526002909352818420805490911690555192935084927fddf252ad1be2c89b69c2b068fc378daa952ba7f163c4a11628f55a4df523b3ef908390a45050565b508054611b0a90611f0d565b6000825580601f10611b1a575050565b601f01602090049060005260206000209081019061075691905b80821115611b485760008155600101611b34565b5090565b6001600160e01b03198116811461075657600080fd5b600060208284031215611b7457600080fd5b81356116d981611b4c565b60005b83811015611b9a578181015183820152602001611b82565b50506000910152565b60008151808452611bbb816020860160208601611b7f565b601f01601f19169290920160200192915050565b6020815260006116d96020830184611ba3565b600060208284031215611bf457600080fd5b5035919050565b80356001600160a01b038116811461044657600080fd5b60008060408385031215611c2557600080fd5b611c2e83611bfb565b946020939093013593505050565b634e487b7160e01b600052604160045260246000fd5b600067ffffffffffffffff80841115611c6d57611c6d611c3c565b604051601f8501601f19908116603f01168101908282118183101715611c9557611c95611c3c565b81604052809350858152868686011115611cae57600080fd5b858560208301376000602087830101525050509392505050565b600082601f830112611cd957600080fd5b6116d983833560208501611c52565b60008060408385031215611cfb57600080fd5b82359150602083013567ffffffffffffffff811115611d1957600080fd5b611d2585828601611cc8565b9150509250929050565b600080600060608486031215611d4457600080fd5b611d4d84611bfb565b9250611d5b60208501611bfb565b9150604084013590509250925092565b60008060408385031215611d7e57600080fd5b82359150611d8e60208401611bfb565b90509250929050565b600060208284031215611da957600080fd5b6116d982611bfb565b600060208284031215611dc457600080fd5b813567ffffffffffffffff811115611ddb57600080fd5b610d9d84828501611cc8565b60008060408385031215611dfa57600080fd5b611e0383611bfb565b915060208301358015158114611e1857600080fd5b809150509250929050565b60008060008060808587031215611e3957600080fd5b611e4285611bfb565b9350611e5060208601611bfb565b925060408501359150606085013567ffffffffffffffff811115611e7357600080fd5b8501601f81018713611e8457600080fd5b611e9387823560208401611c52565b91505092959194509250565b6020808252825182820181905260009190848201906040850190845b81811015611ed757835183529284019291840191600101611ebb565b50909695505050505050565b60008060408385031215611ef657600080fd5b611eff83611bfb565b9150611d8e60208401611bfb565b600181811c90821680611f2157607f821691505b602082108103611f4157634e487b7160e01b600052602260045260246000fd5b50919050565b6020808252602e908201527f45524337323155524953746f726167653a2055524920736574206f66206e6f6e60408201526d32bc34b9ba32b73a103a37b5b2b760911b606082015260800190565b6020808252602d908201527f4552433732313a2063616c6c6572206973206e6f7420746f6b656e206f776e6560408201526c1c881bdc88185c1c1c9bdd9959609a1b606082015260800190565b602f60f81b815260008251611ffe816001850160208701611b7f565b64173539b7b760d91b6001939091019283015250600601919050565b634e487b7160e01b600052603260045260246000fd5b634e487b7160e01b600052601160045260246000fd5b8181038181111561099e5761099e612030565b634e487b7160e01b600052603160045260246000fd5b601f821115610619576000816000526020600020601f850160051c810160208610156120985750805b601f850160051c820191505b818110156120b7578281556001016120a4565b505050505050565b815167ffffffffffffffff8111156120d9576120d9611c3c565b6120ed816120e78454611f0d565b8461206f565b602080601f831160018114612122576000841561210a5750858301515b600019600386901b1c1916600185901b1785556120b7565b600085815260208120601f198616915b8281101561215157888601518255948401946001909101908401612132565b508582101561216f5787850151600019600388901b60f8161c191681555b5050505050600190811b01905550565b60208082526025908201527f4552433732313a207472616e736665722066726f6d20696e636f72726563742060408201526437bbb732b960d91b606082015260800190565b60208082526032908201527f4552433732313a207472616e7366657220746f206e6f6e20455243373231526560408201527131b2b4bb32b91034b6b83632b6b2b73a32b960711b606082015260800190565b60008351612228818460208801611b7f565b83519083019061223c818360208801611b7f565b01949350505050565b7f416363657373436f6e74726f6c3a206163636f756e742000000000000000000081526000835161227d816017850160208801611b7f565b7001034b99036b4b9b9b4b733903937b6329607d1b60179184019182015283516122ae816028840160208801611b7f565b01602801949350505050565b6001600160a01b03858116825284166020820152604081018390526080606082018190526000906122ed90830184611ba3565b9695505050505050565b60006020828403121561230957600080fd5b81516116d981611b4c565b808202811582820484141761099e5761099e612030565b8082018082111561099e5761099e612030565b60008161234d5761234d612030565b50600019019056fe9f2df0fed2c77648de5860a4cc508cd0818c85b8b8a1ab4ceeef8d981c8956a6a2646970667358221220c134c2ab571b514d47a7cad9eeb9e8426a24cc1f064171e3d3054f2f31a9c20e64736f6c63430008170033",
  "linkReferences": {},
  "deployedLinkReferences": {}
}