{
  "_format": "hh-sol-artifact-1",
  "contractName": "AvatarNFT",
  "sourceName": "contracts/avatarMarket/AvatarNFT.sol",
  "abi": [
    {
      "inputs": [
        {
          "internalType": "string",
          "name": "_initialBaseURI",
          "type": "string"
        }
      ],
      "stateMutability": "nonpayable",
      "type": "constructor"
    },
    {
      "anonymous": false,
      "inputs": [
        {
          "indexed": true,
          "internalType": "address",
          "name": "owner",
          "type": "address"
        },
        {
          "indexed": true,
          "internalType": "address",
          "name": "approved",
          "type": "address"
        },
        {
          "indexed": true,
          "internalType": "uint256",
          "name": "tokenId",
          "type": "uint256"
        }
      ],
      "name": "Approval",
      "type": "event"
    },
    {
      "anonymous": false,
      "inputs": [
        {
          "indexed": true,
          "internalType": "address",
          "name": "owner",
          "type": "address"
        },
        {
          "indexed": true,
          "internalType": "address",
          "name": "operator",
          "type": "address"
        },
        {
          "indexed": false,
          "internalType": "bool",
          "name": "approved",
          "type": "bool"
        }
      ],
      "name": "ApprovalForAll",
      "type": "event"
    },
    {
      "anonymous": false,
      "inputs": [
        {
          "indexed": false,
          "internalType": "uint256",
          "name": "_fromTokenId",
          "type": "uint256"
        },
        {
          "indexed": false,
          "internalType": "uint256",
          "name": "_toTokenId",
          "type": "uint256"
        }
      ],
      "name": "BatchMetadataUpdate",
      "type": "event"
    },
    {
      "anonymous": false,
      "inputs": [
        {
          "indexed": false,
          "internalType": "uint256",
          "name": "_tokenId",
          "type": "uint256"
        }
      ],
      "name": "MetadataUpdate",
      "type": "event"
    },
    {
      "anonymous": false,
      "inputs": [
        {
          "indexed": false,
          "internalType": "address",
          "name": "account",
          "type": "address"
        }
      ],
      "name": "Paused",
      "type": "event"
    },
    {
      "anonymous": false,
      "inputs": [
        {
          "indexed": true,
          "internalType": "bytes32",
          "name": "role",
          "type": "bytes32"
        },
        {
          "indexed": true,
          "internalType": "bytes32",
          "name": "previousAdminRole",
          "type": "bytes32"
        },
        {
          "indexed": true,
          "internalType": "bytes32",
          "name": "newAdminRole",
          "type": "bytes32"
        }
      ],
      "name": "RoleAdminChanged",
      "type": "event"
    },
    {
      "anonymous": false,
      "inputs": [
        {
          "indexed": true,
          "internalType": "bytes32",
          "name": "role",
          "type": "bytes32"
        },
        {
          "indexed": true,
          "internalType": "address",
          "name": "account",
          "type": "address"
        },
        {
          "indexed": true,
          "internalType": "address",
          "name": "sender",
          "type": "address"
        }
      ],
      "name": "RoleGranted",
      "type": "event"
    },
    {
      "anonymous": false,
      "inputs": [
        {
          "indexed": true,
          "internalType": "bytes32",
          "name": "role",
          "type": "bytes32"
        },
        {
          "indexed": true,
          "internalType": "address",
          "name": "account",
          "type": "address"
        },
        {
          "indexed": true,
          "internalType": "address",
          "name": "sender",
          "type": "address"
        }
      ],
      "name": "RoleRevoked",
      "type": "event"
    },
    {
      "anonymous": false,
      "inputs": [
        {
          "indexed": true,
          "internalType": "address",
          "name": "from",
          "type": "address"
        },
        {
          "indexed": true,
          "internalType": "address",
          "name": "to",
          "type": "address"
        },
        {
          "indexed": true,
          "internalType": "uint256",
          "name": "tokenId",
          "type": "uint256"
        }
      ],
      "name": "Transfer",
      "type": "event"
    },
    {
      "anonymous": false,
      "inputs": [
        {
          "indexed": false,
          "internalType": "address",
          "name": "account",
          "type": "address"
        }
      ],
      "name": "Unpaused",
      "type": "event"
    },
    {
      "inputs": [],
      "name": "DEFAULT_ADMIN_ROLE",
      "outputs": [
        {
          "internalType": "bytes32",
          "name": "",
          "type": "bytes32"
        }
      ],
      "stateMutability": "view",
      "type": "function"
    },
    {
      "inputs": [],
      "name": "MINTER_ROLE",
      "outputs": [
        {
          "internalType": "bytes32",
          "name": "",
          "type": "bytes32"
        }
      ],
      "stateMutability": "view",
      "type": "function"
    },
    {
      "inputs": [
        {
          "internalType": "address",
          "name": "to",
          "type": "address"
        },
        {
          "internalType": "uint256",
          "name": "tokenId",
          "type": "uint256"
        }
      ],
      "name": "approve",
      "outputs": [],
      "stateMutability": "nonpayable",
      "type": "function"
    },
    {
      "inputs": [
        {
          "internalType": "address",
          "name": "owner",
          "type": "address"
        }
      ],
      "name": "balanceOf",
      "outputs": [
        {
          "internalType": "uint256",
          "name": "",
          "type": "uint256"
        }
      ],
      "stateMutability": "view",
      "type": "function"
    },
    {
      "inputs": [],
      "name": "baseURI",
      "outputs": [
        {
          "internalType": "string",
          "name": "",
          "type": "string"
        }
      ],
      "stateMutability": "view",
      "type": "function"
    },
    {
      "inputs": [
        {
          "internalType": "uint256",
          "name": "_tokenId",
          "type": "uint256"
        }
      ],
      "name": "burn",
      "outputs": [],
      "stateMutability": "nonpayable",
      "type": "function"
    },
    {
      "inputs": [
        {
          "internalType": "uint256",
          "name": "tokenId",
          "type": "uint256"
        }
      ],
      "name": "getApproved",
      "outputs": [
        {
          "internalType": "address",
          "name": "",
          "type": "address"
        }
      ],
      "stateMutability": "view",
      "type": "function"
    },
    {
      "inputs": [
        {
          "internalType": "address",
          "name": "owner",
          "type": "address"
        }
      ],
      "name": "getOwnedTokens",
      "outputs": [
        {
          "internalType": "uint256[]",
          "name": "",
          "type": "uint256[]"
        }
      ],
      "stateMutability": "view",
      "type": "function"
    },
    {
      "inputs": [
        {
          "internalType": "bytes32",
          "name": "role",
          "type": "bytes32"
        }
      ],
      "name": "getRoleAdmin",
      "outputs": [
        {
          "internalType": "bytes32",
          "name": "",
          "type": "bytes32"
        }
      ],
      "stateMutability": "view",
      "type": "function"
    },
    {
      "inputs": [
        {
          "internalType": "address",
          "name": "owner",
          "type": "address"
        }
      ],
      "name": "getTokenURLsByOwner",
      "outputs": [
        {
          "internalType": "string[]",
          "name": "",
          "type": "string[]"
        }
      ],
      "stateMutability": "view",
      "type": "function"
    },
    {
      "inputs": [],
      "name": "getTotalTokenCount",
      "outputs": [
        {
          "internalType": "uint256",
          "name": "",
          "type": "uint256"
        }
      ],
      "stateMutability": "view",
      "type": "function"
    },
    {
      "inputs": [
        {
          "internalType": "bytes32",
          "name": "role",
          "type": "bytes32"
        },
        {
          "internalType": "address",
          "name": "account",
          "type": "address"
        }
      ],
      "name": "grantRole",
      "outputs": [],
      "stateMutability": "nonpayable",
      "type": "function"
    },
    {
      "inputs": [
        {
          "internalType": "bytes32",
          "name": "role",
          "type": "bytes32"
        },
        {
          "internalType": "address",
          "name": "account",
          "type": "address"
        }
      ],
      "name": "hasRole",
      "outputs": [
        {
          "internalType": "bool",
          "name": "",
          "type": "bool"
        }
      ],
      "stateMutability": "view",
      "type": "function"
    },
    {
      "inputs": [
        {
          "internalType": "address",
          "name": "owner",
          "type": "address"
        },
        {
          "internalType": "address",
          "name": "operator",
          "type": "address"
        }
      ],
      "name": "isApprovedForAll",
      "outputs": [
        {
          "internalType": "bool",
          "name": "",
          "type": "bool"
        }
      ],
      "stateMutability": "view",
      "type": "function"
    },
    {
      "inputs": [],
      "name": "name",
      "outputs": [
        {
          "internalType": "string",
          "name": "",
          "type": "string"
        }
      ],
      "stateMutability": "view",
      "type": "function"
    },
    {
      "inputs": [
        {
          "internalType": "uint256",
          "name": "tokenId",
          "type": "uint256"
        }
      ],
      "name": "ownerOf",
      "outputs": [
        {
          "internalType": "address",
          "name": "",
          "type": "address"
        }
      ],
      "stateMutability": "view",
      "type": "function"
    },
    {
      "inputs": [],
      "name": "pause",
      "outputs": [],
      "stateMutability": "nonpayable",
      "type": "function"
    },
    {
      "inputs": [],
      "name": "paused",
      "outputs": [
        {
          "internalType": "bool",
          "name": "",
          "type": "bool"
        }
      ],
      "stateMutability": "view",
      "type": "function"
    },
    {
      "inputs": [
        {
          "internalType": "bytes32",
          "name": "role",
          "type": "bytes32"
        },
        {
          "internalType": "address",
          "name": "account",
          "type": "address"
        }
      ],
      "name": "renounceRole",
      "outputs": [],
      "stateMutability": "nonpayable",
      "type": "function"
    },
    {
      "inputs": [
        {
          "internalType": "bytes32",
          "name": "role",
          "type": "bytes32"
        },
        {
          "internalType": "address",
          "name": "account",
          "type": "address"
        }
      ],
      "name": "revokeRole",
      "outputs": [],
      "stateMutability": "nonpayable",
      "type": "function"
    },
    {
      "inputs": [
        {
          "internalType": "address",
          "name": "_to",
          "type": "address"
        },
        {
          "internalType": "bool",
          "name": "isRevealed",
          "type": "bool"
        }
      ],
      "name": "safeMint",
      "outputs": [],
      "stateMutability": "nonpayable",
      "type": "function"
    },
    {
      "inputs": [
        {
          "internalType": "address",
          "name": "from",
          "type": "address"
        },
        {
          "internalType": "address",
          "name": "to",
          "type": "address"
        },
        {
          "internalType": "uint256",
          "name": "tokenId",
          "type": "uint256"
        }
      ],
      "name": "safeTransferFrom",
      "outputs": [],
      "stateMutability": "nonpayable",
      "type": "function"
    },
    {
      "inputs": [
        {
          "internalType": "address",
          "name": "from",
          "type": "address"
        },
        {
          "internalType": "address",
          "name": "to",
          "type": "address"
        },
        {
          "internalType": "uint256",
          "name": "tokenId",
          "type": "uint256"
        },
        {
          "internalType": "bytes",
          "name": "data",
          "type": "bytes"
        }
      ],
      "name": "safeTransferFrom",
      "outputs": [],
      "stateMutability": "nonpayable",
      "type": "function"
    },
    {
      "inputs": [
        {
          "internalType": "address",
          "name": "operator",
          "type": "address"
        },
        {
          "internalType": "bool",
          "name": "approved",
          "type": "bool"
        }
      ],
      "name": "setApprovalForAll",
      "outputs": [],
      "stateMutability": "nonpayable",
      "type": "function"
    },
    {
      "inputs": [
        {
          "internalType": "string",
          "name": "_newBaseURI",
          "type": "string"
        }
      ],
      "name": "setBaseURI",
      "outputs": [],
      "stateMutability": "nonpayable",
      "type": "function"
    },
    {
      "inputs": [
        {
          "internalType": "uint256",
          "name": "_tokenId",
          "type": "uint256"
        },
        {
          "internalType": "string",
          "name": "_uri",
          "type": "string"
        }
      ],
      "name": "setTokenURI",
      "outputs": [],
      "stateMutability": "nonpayable",
      "type": "function"
    },
    {
      "inputs": [
        {
          "internalType": "bytes4",
          "name": "_interfaceId",
          "type": "bytes4"
        }
      ],
      "name": "supportsInterface",
      "outputs": [
        {
          "internalType": "bool",
          "name": "",
          "type": "bool"
        }
      ],
      "stateMutability": "view",
      "type": "function"
    },
    {
      "inputs": [],
      "name": "symbol",
      "outputs": [
        {
          "internalType": "string",
          "name": "",
          "type": "string"
        }
      ],
      "stateMutability": "view",
      "type": "function"
    },
    {
      "inputs": [
        {
          "internalType": "uint256",
          "name": "_tokenId",
          "type": "uint256"
        }
      ],
      "name": "tokenURI",
      "outputs": [
        {
          "internalType": "string",
          "name": "",
          "type": "string"
        }
      ],
      "stateMutability": "view",
      "type": "function"
    },
    {
      "inputs": [
        {
          "internalType": "address",
          "name": "from",
          "type": "address"
        },
        {
          "internalType": "address",
          "name": "to",
          "type": "address"
        },
        {
          "internalType": "uint256",
          "name": "tokenId",
          "type": "uint256"
        }
      ],
      "name": "transferFrom",
      "outputs": [],
      "stateMutability": "nonpayable",
      "type": "function"
    },
    {
      "inputs": [],
      "name": "unpause",
      "outputs": [],
      "stateMutability": "nonpayable",
      "type": "function"
    }
  ],
  "bytecode": "0x60806040523480156200001157600080fd5b5060405162002d8138038062002d8183398101604081905262000034916200044d565b60405180604001604052806009815260200168105d985d185c93919560ba1b8152506040518060400160405280600381526020016241564160e81b815250816000908162000083919062000595565b50600162000092828262000595565b50506008805460ff1916905550620000ac600033620000ea565b620000d87f9f2df0fed2c77648de5860a4cc508cd0818c85b8b8a1ab4ceeef8d981c8956a633620000ea565b620000e38162000175565b5062000785565b620000f6828262000195565b620001715760008281526007602090815260408083206001600160a01b03851684529091529020805460ff19166001179055620001303390565b6001600160a01b0316816001600160a01b0316837f2f8788117e7eff1d82e926ec794901d17c78024a50270940304540a733656f0d60405160405180910390a45b5050565b60006200018281620001c2565b600a62000190838262000595565b505050565b60008281526007602090815260408083206001600160a01b038516845290915290205460ff165b92915050565b620001ce8133620001d1565b50565b620001dd828262000195565b6200017157620001ed816200023e565b620001fa83602062000251565b6040516020016200020d92919062000661565b60408051601f198184030181529082905262461bcd60e51b82526200023591600401620006da565b60405180910390fd5b6060620001bc6001600160a01b03831660145b606060006200026283600262000725565b6200026f9060026200073f565b6001600160401b0381111562000289576200028962000411565b6040519080825280601f01601f191660200182016040528015620002b4576020820181803683370190505b509050600360fc1b81600081518110620002d257620002d262000755565b60200101906001600160f81b031916908160001a905350600f60fb1b8160018151811062000304576200030462000755565b60200101906001600160f81b031916908160001a90535060006200032a84600262000725565b620003379060016200073f565b90505b6001811115620003b9576f181899199a1a9b1b9c1cb0b131b232b360811b85600f16601081106200036f576200036f62000755565b1a60f81b82828151811062000388576200038862000755565b60200101906001600160f81b031916908160001a90535060049490941c93620003b1816200076b565b90506200033a565b5083156200040a5760405162461bcd60e51b815260206004820181905260248201527f537472696e67733a20686578206c656e67746820696e73756666696369656e74604482015260640162000235565b9392505050565b634e487b7160e01b600052604160045260246000fd5b60005b83811015620004445781810151838201526020016200042a565b50506000910152565b6000602082840312156200046057600080fd5b81516001600160401b03808211156200047857600080fd5b818401915084601f8301126200048d57600080fd5b815181811115620004a257620004a262000411565b604051601f8201601f19908116603f01168101908382118183101715620004cd57620004cd62000411565b81604052828152876020848701011115620004e757600080fd5b620004fa83602083016020880162000427565b979650505050505050565b600181811c908216806200051a57607f821691505b6020821081036200053b57634e487b7160e01b600052602260045260246000fd5b50919050565b601f82111562000190576000816000526020600020601f850160051c810160208610156200056c5750805b601f850160051c820191505b818110156200058d5782815560010162000578565b505050505050565b81516001600160401b03811115620005b157620005b162000411565b620005c981620005c2845462000505565b8462000541565b602080601f831160018114620006015760008415620005e85750858301515b600019600386901b1c1916600185901b1785556200058d565b600085815260208120601f198616915b82811015620006325788860151825594840194600190910190840162000611565b5085821015620006515787850151600019600388901b60f8161c191681555b5050505050600190811b01905550565b7f416363657373436f6e74726f6c3a206163636f756e74200000000000000000008152600083516200069b81601785016020880162000427565b7001034b99036b4b9b9b4b733903937b6329607d1b6017918401918201528351620006ce81602884016020880162000427565b01602801949350505050565b6020815260008251806020840152620006fb81604085016020870162000427565b601f01601f19169190910160400192915050565b634e487b7160e01b600052601160045260246000fd5b8082028115828204841417620001bc57620001bc6200070f565b80820180821115620001bc57620001bc6200070f565b634e487b7160e01b600052603260045260246000fd5b6000816200077d576200077d6200070f565b506000190190565b6125ec80620007956000396000f3fe608060405234801561001057600080fd5b50600436106101e55760003560e01c80636352211e1161010f578063a22cb465116100a2578063d547741f11610071578063d547741f1461040a578063d9d616551461041d578063e53626671461043d578063e985e9c51461044557600080fd5b8063a22cb465146103bc578063b88d4fde146103cf578063c87b56dd146103e2578063d5391393146103f557600080fd5b80638456cb59116100de5780638456cb591461039157806391d148541461039957806395d89b41146103ac578063a217fddf146103b457600080fd5b80636352211e146103435780636c0360eb146103565780636ff117b01461035e57806370a082311461037e57600080fd5b8063248a9ca31161018757806342842e0e1161015657806342842e0e146102ff57806342966c681461031257806355f804b3146103255780635c975abb1461033857600080fd5b8063248a9ca3146102a05780632f2ff15d146102d157806336568abe146102e45780633f4ba83a146102f757600080fd5b8063081812fc116101c3578063081812fc1461023c578063095ea7b314610267578063162094c41461027a57806323b872dd1461028d57600080fd5b806301ffc9a7146101ea5780630424cb0d1461021257806306fdde0314610227575b600080fd5b6101fd6101f8366004611d3f565b610481565b60405190151581526020015b60405180910390f35b610225610220366004611d73565b61049c565b005b61022f610580565b6040516102099190611dff565b61024f61024a366004611e12565b610612565b6040516001600160a01b039091168152602001610209565b610225610275366004611e2b565b610639565b610225610288366004611f01565b610753565b61022561029b366004611f48565b6107a4565b6102c36102ae366004611e12565b60009081526007602052604090206001015490565b604051908152602001610209565b6102256102df366004611f84565b6107d5565b6102256102f2366004611f84565b6107fa565b610225610878565b61022561030d366004611f48565b61088e565b610225610320366004611e12565b6108a9565b610225610333366004611fb0565b6109aa565b60085460ff166101fd565b61024f610351366004611e12565b6109c1565b61022f610a27565b61037161036c366004611fe5565b610ab5565b6040516102099190612000565b6102c361038c366004611fe5565b610b71565b610225610bf7565b6101fd6103a7366004611f84565b610c0a565b61022f610c35565b6102c3600081565b6102256103ca366004611d73565b610c44565b6102256103dd366004612064565b610c4f565b61022f6103f0366004611e12565b610c87565b6102c360008051602061259783398151915281565b610225610418366004611f84565b610c9a565b61043061042b366004611fe5565b610cbf565b60405161020991906120e0565b6102c3610d2b565b6101fd610453366004612124565b6001600160a01b03918216600090815260056020908152604080832093909416825291909152205460ff1690565b600061048b610d3b565b61049482610d83565b90505b919050565b6000805160206125978339815191526104b481610da8565b6104bc610d3b565b60006104c760095490565b90506104d7600980546001019055565b606083156105145760006104ea83610db2565b9050806040516020016104fd919061214e565b60405160208183030381529060405291505061053a565b5060408051808201909152600d81526c17bab735b737bbb7173539b7b760991b60208201525b6105448583610e45565b61054e8282610e5f565b506001600160a01b039093166000908152600b6020908152604082208054600181018255908352912001929092555050565b60606000805461058f90612186565b80601f01602080910402602001604051908101604052809291908181526020018280546105bb90612186565b80156106085780601f106105dd57610100808354040283529160200191610608565b820191906000526020600020905b8154815290600101906020018083116105eb57829003601f168201915b5050505050905090565b600061061d82610ee3565b506000908152600460205260409020546001600160a01b031690565b6000610644826109c1565b9050806001600160a01b0316836001600160a01b0316036106b65760405162461bcd60e51b815260206004820152602160248201527f4552433732313a20617070726f76616c20746f2063757272656e74206f776e656044820152603960f91b60648201526084015b60405180910390fd5b336001600160a01b03821614806106d257506106d28133610453565b6107445760405162461bcd60e51b815260206004820152603d60248201527f4552433732313a20617070726f76652063616c6c6572206973206e6f7420746f60448201527f6b656e206f776e6572206f7220617070726f76656420666f7220616c6c00000060648201526084016106ad565b61074e8383610f42565b505050565b600061075e81610da8565b610766610d3b565b6000838152600260205260409020546001600160a01b031661079a5760405162461bcd60e51b81526004016106ad906121c0565b61074e8383610e5f565b6107ae3382610fb0565b6107ca5760405162461bcd60e51b81526004016106ad9061220e565b61074e83838361102f565b6000828152600760205260409020600101546107f081610da8565b61074e8383611193565b6001600160a01b038116331461086a5760405162461bcd60e51b815260206004820152602f60248201527f416363657373436f6e74726f6c3a2063616e206f6e6c792072656e6f756e636560448201526e103937b632b9903337b91039b2b63360891b60648201526084016106ad565b6108748282611219565b5050565b600061088381610da8565b61088b611280565b50565b61074e83838360405180602001604052806000815250610c4f565b6000805160206125978339815191526108c181610da8565b6108c9610d3b565b6108d2826112d2565b60006108dd836109c1565b6001600160a01b0381166000908152600b602052604081209192505b81548110156109a357848282815481106109155761091561225b565b90600052602060002001540361099b578154829061093590600190612287565b815481106109455761094561225b565b90600052602060002001548282815481106109625761096261225b565b9060005260206000200181905550818054806109805761098061229a565b600190038181906000526020600020016000905590556109a3565b6001016108f9565b5050505050565b60006109b581610da8565b600a61074e8382612300565b6000818152600260205260408120546001600160a01b031680610a215760405162461bcd60e51b8152602060048201526018602482015277115490cdcc8c4e881a5b9d985b1a59081d1bdad95b88125160421b60448201526064016106ad565b92915050565b600a8054610a3490612186565b80601f0160208091040260200160405190810160405280929190818152602001828054610a6090612186565b8015610aad5780601f10610a8257610100808354040283529160200191610aad565b820191906000526020600020905b815481529060010190602001808311610a9057829003601f168201915b505050505081565b60606000610ac283610cbf565b90506000815167ffffffffffffffff811115610ae057610ae0611e55565b604051908082528060200260200182016040528015610b1357816020015b6060815260200190600190039081610afe5790505b50905060005b8251811015610b6957610b44838281518110610b3757610b3761225b565b6020026020010151610c87565b828281518110610b5657610b5661225b565b6020908102919091010152600101610b19565b509392505050565b60006001600160a01b038216610bdb5760405162461bcd60e51b815260206004820152602960248201527f4552433732313a2061646472657373207a65726f206973206e6f7420612076616044820152683634b21037bbb732b960b91b60648201526084016106ad565b506001600160a01b031660009081526003602052604090205490565b6000610c0281610da8565b61088b6112fb565b60009182526007602090815260408084206001600160a01b0393909316845291905290205460ff1690565b60606001805461058f90612186565b610874338383611338565b610c593383610fb0565b610c755760405162461bcd60e51b81526004016106ad9061220e565b610c8184848484611406565b50505050565b6060610c91610d3b565b61049482611439565b600082815260076020526040902060010154610cb581610da8565b61074e8383611219565b6001600160a01b0381166000908152600b6020908152604091829020805483518184028101840190945280845260609392830182828015610d1f57602002820191906000526020600020905b815481526020019060010190808311610d0b575b50505050509050919050565b6000610d3660095490565b905090565b60085460ff1615610d815760405162461bcd60e51b815260206004820152601060248201526f14185d5cd8589b194e881c185d5cd95960821b60448201526064016106ad565b565b60006001600160e01b03198216637965db0b60e01b1480610494575061049482611534565b61088b8133611559565b60606000610dbf836115b2565b600101905060008167ffffffffffffffff811115610ddf57610ddf611e55565b6040519080825280601f01601f191660200182016040528015610e09576020820181803683370190505b5090508181016020015b600019016f181899199a1a9b1b9c1cb0b131b232b360811b600a86061a8153600a8504945084610e1357509392505050565b61087482826040518060200160405280600081525061168a565b6000828152600260205260409020546001600160a01b0316610e935760405162461bcd60e51b81526004016106ad906121c0565b6000828152600660205260409020610eab8282612300565b506040518281527ff8e1a15aba9398e019f0b49df1a4fde98ee17ae345cb5f6b5e2c27f5033e8ce79060200160405180910390a15050565b6000818152600260205260409020546001600160a01b031661088b5760405162461bcd60e51b8152602060048201526018602482015277115490cdcc8c4e881a5b9d985b1a59081d1bdad95b88125160421b60448201526064016106ad565b600081815260046020526040902080546001600160a01b0319166001600160a01b0384169081179091558190610f77826109c1565b6001600160a01b03167f8c5be1e5ebec7d5bd14f71427d1e84f3dd0314c0f7b2291e5b200ac8c7c3b92560405160405180910390a45050565b600080610fbc836109c1565b9050806001600160a01b0316846001600160a01b0316148061100357506001600160a01b0380821660009081526005602090815260408083209388168352929052205460ff165b806110275750836001600160a01b031661101c84610612565b6001600160a01b0316145b949350505050565b826001600160a01b0316611042826109c1565b6001600160a01b0316146110685760405162461bcd60e51b81526004016106ad906123c0565b6001600160a01b0382166110ca5760405162461bcd60e51b8152602060048201526024808201527f4552433732313a207472616e7366657220746f20746865207a65726f206164646044820152637265737360e01b60648201526084016106ad565b826001600160a01b03166110dd826109c1565b6001600160a01b0316146111035760405162461bcd60e51b81526004016106ad906123c0565b600081815260046020908152604080832080546001600160a01b03199081169091556001600160a01b0387811680865260038552838620805460001901905590871680865283862080546001019055868652600290945282852080549092168417909155905184937fddf252ad1be2c89b69c2b068fc378daa952ba7f163c4a11628f55a4df523b3ef91a4505050565b61119d8282610c0a565b6108745760008281526007602090815260408083206001600160a01b03851684529091529020805460ff191660011790556111d53390565b6001600160a01b0316816001600160a01b0316837f2f8788117e7eff1d82e926ec794901d17c78024a50270940304540a733656f0d60405160405180910390a45050565b6112238282610c0a565b156108745760008281526007602090815260408083206001600160a01b0385168085529252808320805460ff1916905551339285917ff6391f5c32d9c69d2a47ea670b442974b53935d1edc7fd64eb21e047a839171b9190a45050565b6112886116bd565b6008805460ff191690557f5db9ee0a495bf2e6ff9c91a7834c1ba4fdd244a5e8aa4e537bd38aeae4b073aa335b6040516001600160a01b03909116815260200160405180910390a1565b6000805160206125978339815191526112ea81610da8565b6112f2610d3b565b61087482611706565b611303610d3b565b6008805460ff191660011790557f62e78cea01bee320cd4e420270b5ea74000d11b0c9f74754ebdbfc544b05a2586112b53390565b816001600160a01b0316836001600160a01b0316036113995760405162461bcd60e51b815260206004820152601960248201527f4552433732313a20617070726f766520746f2063616c6c65720000000000000060448201526064016106ad565b6001600160a01b03838116600081815260056020908152604080832094871680845294825291829020805460ff191686151590811790915591519182527f17307eab39ab6107e8899845ad3d59bd9653f200f220920489ca2b5937696c31910160405180910390a3505050565b61141184848461102f565b61141d84848484611746565b610c815760405162461bcd60e51b81526004016106ad90612405565b606061144482610ee3565b6000828152600660205260408120805461145d90612186565b80601f016020809104026020016040519081016040528092919081815260200182805461148990612186565b80156114d65780601f106114ab576101008083540402835291602001916114d6565b820191906000526020600020905b8154815290600101906020018083116114b957829003601f168201915b5050505050905060006114e7611847565b905080516000036114f9575092915050565b81511561152b578082604051602001611513929190612457565b60405160208183030381529060405292505050919050565b61102784611856565b60006001600160e01b03198216632483248360e11b14806104945750610494826118bd565b6115638282610c0a565b610874576115708161190d565b61157b83602061191f565b60405160200161158c929190612486565b60408051601f198184030181529082905262461bcd60e51b82526106ad91600401611dff565b60008072184f03e93ff9f4daa797ed6e38ed64bf6a1f0160401b83106115f15772184f03e93ff9f4daa797ed6e38ed64bf6a1f0160401b830492506040015b6d04ee2d6d415b85acef8100000000831061161d576d04ee2d6d415b85acef8100000000830492506020015b662386f26fc10000831061163b57662386f26fc10000830492506010015b6305f5e1008310611653576305f5e100830492506008015b612710831061166757612710830492506004015b60648310611679576064830492506002015b600a8310610a215760010192915050565b6116948383611abb565b6116a16000848484611746565b61074e5760405162461bcd60e51b81526004016106ad90612405565b60085460ff16610d815760405162461bcd60e51b815260206004820152601460248201527314185d5cd8589b194e881b9bdd081c185d5cd95960621b60448201526064016106ad565b61170f81611c46565b6000818152600660205260409020805461172890612186565b15905061088b57600081815260066020526040812061088b91611cdb565b60006001600160a01b0384163b1561183c57604051630a85bd0160e11b81526001600160a01b0385169063150b7a029061178a9033908990889088906004016124fb565b6020604051808303816000875af19250505080156117c5575060408051601f3d908101601f191682019092526117c291810190612538565b60015b611822573d8080156117f3576040519150601f19603f3d011682016040523d82523d6000602084013e6117f8565b606091505b50805160000361181a5760405162461bcd60e51b81526004016106ad90612405565b805181602001fd5b6001600160e01b031916630a85bd0160e11b149050611027565b506001949350505050565b6060600a805461058f90612186565b606061186182610ee3565b600061186b611847565b9050600081511161188b57604051806020016040528060008152506118b6565b8061189584610db2565b6040516020016118a6929190612457565b6040516020818303038152906040525b9392505050565b60006001600160e01b031982166380ac58cd60e01b14806118ee57506001600160e01b03198216635b5e139f60e01b145b8061049457506301ffc9a760e01b6001600160e01b0319831614610494565b60606104946001600160a01b03831660145b6060600061192e836002612555565b61193990600261256c565b67ffffffffffffffff81111561195157611951611e55565b6040519080825280601f01601f19166020018201604052801561197b576020820181803683370190505b509050600360fc1b816000815181106119965761199661225b565b60200101906001600160f81b031916908160001a905350600f60fb1b816001815181106119c5576119c561225b565b60200101906001600160f81b031916908160001a90535060006119e9846002612555565b6119f490600161256c565b90505b6001811115611a6c576f181899199a1a9b1b9c1cb0b131b232b360811b85600f1660108110611a2857611a2861225b565b1a60f81b828281518110611a3e57611a3e61225b565b60200101906001600160f81b031916908160001a90535060049490941c93611a658161257f565b90506119f7565b5083156118b65760405162461bcd60e51b815260206004820181905260248201527f537472696e67733a20686578206c656e67746820696e73756666696369656e7460448201526064016106ad565b6001600160a01b038216611b115760405162461bcd60e51b815260206004820181905260248201527f4552433732313a206d696e7420746f20746865207a65726f206164647265737360448201526064016106ad565b6000818152600260205260409020546001600160a01b031615611b765760405162461bcd60e51b815260206004820152601c60248201527f4552433732313a20746f6b656e20616c7265616479206d696e7465640000000060448201526064016106ad565b6000818152600260205260409020546001600160a01b031615611bdb5760405162461bcd60e51b815260206004820152601c60248201527f4552433732313a20746f6b656e20616c7265616479206d696e7465640000000060448201526064016106ad565b6001600160a01b038216600081815260036020908152604080832080546001019055848352600290915280822080546001600160a01b0319168417905551839291907fddf252ad1be2c89b69c2b068fc378daa952ba7f163c4a11628f55a4df523b3ef908290a45050565b6000611c51826109c1565b9050611c5c826109c1565b600083815260046020908152604080832080546001600160a01b03199081169091556001600160a01b0385168085526003845282852080546000190190558785526002909352818420805490911690555192935084927fddf252ad1be2c89b69c2b068fc378daa952ba7f163c4a11628f55a4df523b3ef908390a45050565b508054611ce790612186565b6000825580601f10611cf7575050565b601f01602090049060005260206000209081019061088b91905b80821115611d255760008155600101611d11565b5090565b6001600160e01b03198116811461088b57600080fd5b600060208284031215611d5157600080fd5b81356118b681611d29565b80356001600160a01b038116811461049757600080fd5b60008060408385031215611d8657600080fd5b611d8f83611d5c565b915060208301358015158114611da457600080fd5b809150509250929050565b60005b83811015611dca578181015183820152602001611db2565b50506000910152565b60008151808452611deb816020860160208601611daf565b601f01601f19169290920160200192915050565b6020815260006118b66020830184611dd3565b600060208284031215611e2457600080fd5b5035919050565b60008060408385031215611e3e57600080fd5b611e4783611d5c565b946020939093013593505050565b634e487b7160e01b600052604160045260246000fd5b600067ffffffffffffffff80841115611e8657611e86611e55565b604051601f8501601f19908116603f01168101908282118183101715611eae57611eae611e55565b81604052809350858152868686011115611ec757600080fd5b858560208301376000602087830101525050509392505050565b600082601f830112611ef257600080fd5b6118b683833560208501611e6b565b60008060408385031215611f1457600080fd5b82359150602083013567ffffffffffffffff811115611f3257600080fd5b611f3e85828601611ee1565b9150509250929050565b600080600060608486031215611f5d57600080fd5b611f6684611d5c565b9250611f7460208501611d5c565b9150604084013590509250925092565b60008060408385031215611f9757600080fd5b82359150611fa760208401611d5c565b90509250929050565b600060208284031215611fc257600080fd5b813567ffffffffffffffff811115611fd957600080fd5b61102784828501611ee1565b600060208284031215611ff757600080fd5b6118b682611d5c565b600060208083016020845280855180835260408601915060408160051b87010192506020870160005b8281101561205757603f19888603018452612045858351611dd3565b94509285019290850190600101612029565b5092979650505050505050565b6000806000806080858703121561207a57600080fd5b61208385611d5c565b935061209160208601611d5c565b925060408501359150606085013567ffffffffffffffff8111156120b457600080fd5b8501601f810187136120c557600080fd5b6120d487823560208401611e6b565b91505092959194509250565b6020808252825182820181905260009190848201906040850190845b81811015612118578351835292840192918401916001016120fc565b50909695505050505050565b6000806040838503121561213757600080fd5b61214083611d5c565b9150611fa760208401611d5c565b602f60f81b81526000825161216a816001850160208701611daf565b64173539b7b760d91b6001939091019283015250600601919050565b600181811c9082168061219a57607f821691505b6020821081036121ba57634e487b7160e01b600052602260045260246000fd5b50919050565b6020808252602e908201527f45524337323155524953746f726167653a2055524920736574206f66206e6f6e60408201526d32bc34b9ba32b73a103a37b5b2b760911b606082015260800190565b6020808252602d908201527f4552433732313a2063616c6c6572206973206e6f7420746f6b656e206f776e6560408201526c1c881bdc88185c1c1c9bdd9959609a1b606082015260800190565b634e487b7160e01b600052603260045260246000fd5b634e487b7160e01b600052601160045260246000fd5b81810381811115610a2157610a21612271565b634e487b7160e01b600052603160045260246000fd5b601f82111561074e576000816000526020600020601f850160051c810160208610156122d95750805b601f850160051c820191505b818110156122f8578281556001016122e5565b505050505050565b815167ffffffffffffffff81111561231a5761231a611e55565b61232e816123288454612186565b846122b0565b602080601f831160018114612363576000841561234b5750858301515b600019600386901b1c1916600185901b1785556122f8565b600085815260208120601f198616915b8281101561239257888601518255948401946001909101908401612373565b50858210156123b05787850151600019600388901b60f8161c191681555b5050505050600190811b01905550565b60208082526025908201527f4552433732313a207472616e736665722066726f6d20696e636f72726563742060408201526437bbb732b960d91b606082015260800190565b60208082526032908201527f4552433732313a207472616e7366657220746f206e6f6e20455243373231526560408201527131b2b4bb32b91034b6b83632b6b2b73a32b960711b606082015260800190565b60008351612469818460208801611daf565b83519083019061247d818360208801611daf565b01949350505050565b7f416363657373436f6e74726f6c3a206163636f756e74200000000000000000008152600083516124be816017850160208801611daf565b7001034b99036b4b9b9b4b733903937b6329607d1b60179184019182015283516124ef816028840160208801611daf565b01602801949350505050565b6001600160a01b038581168252841660208201526040810183905260806060820181905260009061252e90830184611dd3565b9695505050505050565b60006020828403121561254a57600080fd5b81516118b681611d29565b8082028115828204841417610a2157610a21612271565b80820180821115610a2157610a21612271565b60008161258e5761258e612271565b50600019019056fe9f2df0fed2c77648de5860a4cc508cd0818c85b8b8a1ab4ceeef8d981c8956a6a264697066735822122034026f0f019235370aa444dcf37545cf482f3b2b14ac6c11a4dc09863b8ef7dc64736f6c63430008170033",
  "linkReferences": {},
  "deployedLinkReferences": {}
}