{
  "_format": "hh-sol-artifact-1",
  "contractName": "AvatarSmashEvent",
  "sourceName": "contracts/racing/AvatarSmashEvent.sol",
  "abi": [
    {
      "inputs": [
        {
          "internalType": "address",
          "name": "_nftContractAddress",
          "type": "address"
        }
      ],
      "stateMutability": "nonpayable",
      "type": "constructor"
    },
    {
      "anonymous": false,
      "inputs": [
        {
          "indexed": false,
          "internalType": "uint256",
          "name": "fightId",
          "type": "uint256"
        },
        {
          "indexed": false,
          "internalType": "uint256",
          "name": "entryFee",
          "type": "uint256"
        },
        {
          "indexed": false,
          "internalType": "uint256",
          "name": "numWinners",
          "type": "uint256"
        },
        {
          "indexed": false,
          "internalType": "uint256[]",
          "name": "prizeDistribution",
          "type": "uint256[]"
        }
      ],
      "name": "FightCreated",
      "type": "event"
    },
    {
      "anonymous": false,
      "inputs": [
        {
          "indexed": false,
          "internalType": "uint256",
          "name": "fightId",
          "type": "uint256"
        },
        {
          "indexed": false,
          "internalType": "address",
          "name": "avatarOwner",
          "type": "address"
        },
        {
          "indexed": false,
          "internalType": "uint256",
          "name": "nftId",
          "type": "uint256"
        }
      ],
      "name": "FighterEnteredMatch",
      "type": "event"
    },
    {
      "anonymous": false,
      "inputs": [
        {
          "indexed": false,
          "internalType": "uint256",
          "name": "fightId",
          "type": "uint256"
        },
        {
          "indexed": false,
          "internalType": "uint256[]",
          "name": "winningIds",
          "type": "uint256[]"
        }
      ],
      "name": "MatchEnded",
      "type": "event"
    },
    {
      "anonymous": false,
      "inputs": [
        {
          "indexed": false,
          "internalType": "uint256",
          "name": "fightId",
          "type": "uint256"
        }
      ],
      "name": "MatchStarted",
      "type": "event"
    },
    {
      "anonymous": false,
      "inputs": [
        {
          "indexed": true,
          "internalType": "address",
          "name": "previousOwner",
          "type": "address"
        },
        {
          "indexed": true,
          "internalType": "address",
          "name": "newOwner",
          "type": "address"
        }
      ],
      "name": "OwnershipTransferred",
      "type": "event"
    },
    {
      "anonymous": false,
      "inputs": [
        {
          "indexed": false,
          "internalType": "address",
          "name": "account",
          "type": "address"
        }
      ],
      "name": "Paused",
      "type": "event"
    },
    {
      "anonymous": false,
      "inputs": [
        {
          "indexed": false,
          "internalType": "address",
          "name": "account",
          "type": "address"
        }
      ],
      "name": "Unpaused",
      "type": "event"
    },
    {
      "inputs": [
        {
          "internalType": "uint256",
          "name": "_entryFee",
          "type": "uint256"
        },
        {
          "internalType": "uint256[]",
          "name": "_prizeDistribution",
          "type": "uint256[]"
        }
      ],
      "name": "createFight",
      "outputs": [],
      "stateMutability": "nonpayable",
      "type": "function"
    },
    {
      "inputs": [
        {
          "internalType": "uint256",
          "name": "_fightId",
          "type": "uint256"
        },
        {
          "internalType": "uint256[]",
          "name": "_winningIds",
          "type": "uint256[]"
        }
      ],
      "name": "endMatch",
      "outputs": [],
      "stateMutability": "nonpayable",
      "type": "function"
    },
    {
      "inputs": [
        {
          "internalType": "uint256",
          "name": "_fightId",
          "type": "uint256"
        },
        {
          "internalType": "uint256",
          "name": "_nftId",
          "type": "uint256"
        }
      ],
      "name": "enterFighterInFight",
      "outputs": [],
      "stateMutability": "payable",
      "type": "function"
    },
    {
      "inputs": [
        {
          "internalType": "uint256",
          "name": "",
          "type": "uint256"
        }
      ],
      "name": "fights",
      "outputs": [
        {
          "internalType": "uint256",
          "name": "fightId",
          "type": "uint256"
        },
        {
          "internalType": "uint256",
          "name": "entryFee",
          "type": "uint256"
        },
        {
          "internalType": "uint256",
          "name": "totalPrizePool",
          "type": "uint256"
        },
        {
          "internalType": "uint256",
          "name": "numWinners",
          "type": "uint256"
        },
        {
          "internalType": "uint256",
          "name": "minParticipants",
          "type": "uint256"
        },
        {
          "internalType": "bool",
          "name": "active",
          "type": "bool"
        },
        {
          "internalType": "bool",
          "name": "started",
          "type": "bool"
        },
        {
          "internalType": "bool",
          "name": "ended",
          "type": "bool"
        }
      ],
      "stateMutability": "view",
      "type": "function"
    },
    {
      "inputs": [
        {
          "internalType": "uint256",
          "name": "_fightId",
          "type": "uint256"
        }
      ],
      "name": "getMatchStatus",
      "outputs": [
        {
          "internalType": "bool",
          "name": "active",
          "type": "bool"
        }
      ],
      "stateMutability": "view",
      "type": "function"
    },
    {
      "inputs": [
        {
          "internalType": "uint256",
          "name": "_fightId",
          "type": "uint256"
        }
      ],
      "name": "getRaceResults",
      "outputs": [
        {
          "internalType": "uint256[]",
          "name": "",
          "type": "uint256[]"
        }
      ],
      "stateMutability": "view",
      "type": "function"
    },
    {
      "inputs": [
        {
          "internalType": "uint256",
          "name": "_fightId",
          "type": "uint256"
        }
      ],
      "name": "isEndedMatch",
      "outputs": [
        {
          "internalType": "bool",
          "name": "active",
          "type": "bool"
        }
      ],
      "stateMutability": "view",
      "type": "function"
    },
    {
      "inputs": [],
      "name": "nftToken",
      "outputs": [
        {
          "internalType": "contract AvatarNFT",
          "name": "",
          "type": "address"
        }
      ],
      "stateMutability": "view",
      "type": "function"
    },
    {
      "inputs": [],
      "name": "owner",
      "outputs": [
        {
          "internalType": "address",
          "name": "",
          "type": "address"
        }
      ],
      "stateMutability": "view",
      "type": "function"
    },
    {
      "inputs": [],
      "name": "pause",
      "outputs": [],
      "stateMutability": "nonpayable",
      "type": "function"
    },
    {
      "inputs": [],
      "name": "paused",
      "outputs": [
        {
          "internalType": "bool",
          "name": "",
          "type": "bool"
        }
      ],
      "stateMutability": "view",
      "type": "function"
    },
    {
      "inputs": [],
      "name": "renounceOwnership",
      "outputs": [],
      "stateMutability": "nonpayable",
      "type": "function"
    },
    {
      "inputs": [
        {
          "internalType": "uint256",
          "name": "_fightId",
          "type": "uint256"
        }
      ],
      "name": "startMatch",
      "outputs": [],
      "stateMutability": "nonpayable",
      "type": "function"
    },
    {
      "inputs": [
        {
          "internalType": "address",
          "name": "newOwner",
          "type": "address"
        }
      ],
      "name": "transferOwnership",
      "outputs": [],
      "stateMutability": "nonpayable",
      "type": "function"
    },
    {
      "inputs": [],
      "name": "unpause",
      "outputs": [],
      "stateMutability": "nonpayable",
      "type": "function"
    }
  ],
  "bytecode": "0x608060405234801561001057600080fd5b5060405161148838038061148883398101604081905261002f916100ba565b6100383361006a565b6000805460ff60a01b19169055600180546001600160a01b0319166001600160a01b03929092169190911790556100ea565b600080546001600160a01b038381166001600160a01b0319831681178455604051919092169283917f8be0079c531659141344cd1fd0a4f28419497f9722a3daafe3b4186f6b6457e09190a35050565b6000602082840312156100cc57600080fd5b81516001600160a01b03811681146100e357600080fd5b9392505050565b61138f806100f96000396000f3fe6080604052600436106100e85760003560e01c80638da5cb5b1161008a578063d06fcba811610059578063d06fcba8146102cd578063dee1f3f1146102ed578063f2fde38b1461030d578063f76bdb1a1461032d57600080fd5b80638da5cb5b1461023b578063a1432c531461026d578063bf0188ec1461028d578063bf725a84146102ad57600080fd5b80635c975abb116100c65780635c975abb146101c6578063715018a6146101f15780637d6d1748146102065780638456cb591461022657600080fd5b80632847b790146100ed5780633f4ba83a146101025780634315e72314610117575b600080fd5b6101006100fb36600461107d565b61035a565b005b34801561010e57600080fd5b50610100610501565b34801561012357600080fd5b5061018061013236600461109f565b600360208190526000918252604090912080546001820154600283015493830154600584015460069094015492949193919290919060ff808216916101008104821691620100009091041688565b6040805198895260208901979097529587019490945260608601929092526080850152151560a0840152151560c0830152151560e0820152610100015b60405180910390f35b3480156101d257600080fd5b50600054600160a01b900460ff165b60405190151581526020016101bd565b3480156101fd57600080fd5b50610100610513565b34801561021257600080fd5b506101006102213660046110ce565b610525565b34801561023257600080fd5b50610100610780565b34801561024757600080fd5b506000546001600160a01b03165b6040516001600160a01b0390911681526020016101bd565b34801561027957600080fd5b506101e161028836600461109f565b610790565b34801561029957600080fd5b506101006102a83660046110ce565b610801565b3480156102b957600080fd5b506101006102c836600461109f565b610b05565b3480156102d957600080fd5b50600154610255906001600160a01b031681565b3480156102f957600080fd5b506101e161030836600461109f565b610bef565b34801561031957600080fd5b506101006103283660046111ad565b610c74565b34801561033957600080fd5b5061034d61034836600461109f565b610ced565b6040516101bd9190611205565b610362610dc1565b600082815260036020526040902061037983610bef565b61039e5760405162461bcd60e51b815260040161039590611218565b60405180910390fd5b336103a883610e0e565b6001600160a01b0316146103ea5760405162461bcd60e51b81526020600482015260096024820152682737ba1037bbb732b960b91b6044820152606401610395565b806001015434146104335760405162461bcd60e51b8152602060048201526013602482015272496e636f727265637420656e7472792066656560681b6044820152606401610395565b60088101546014116104875760405162461bcd60e51b815260206004820152601960248201527f4d6178207061727469636970616e7473206578636565646564000000000000006044820152606401610395565b3481600201600082825461049b9190611271565b909155505060088101805460018101825560009182526020918290200183905560408051858152339281019290925281018390527fd40e4321fade2997b500bc8cded7b5c8a4304cf8cc6bd2c430e8dde58af049809060600160405180910390a1505050565b610509610e8b565b610511610ee5565b565b61051b610e8b565b6105116000610f3a565b61052d610e8b565b610535610dc1565b60008281526003602052604090206006810154610100900460ff166105905760405162461bcd60e51b8152602060048201526011602482015270119a59da1d081b9bdd081cdd185c9d1959607a1b6044820152606401610395565b80600301548251146105e45760405162461bcd60e51b815260206004820152601b60248201527f496e636f7272656374206e756d626572206f662077696e6e65727300000000006044820152606401610395565b60068101805462ffffff191662010000179055815161060c906007830190602085019061101d565b5060006064826002015460506106229190611284565b61062c919061129b565b905060005b82600301548110156107405760006064846004018381548110610656576106566112bd565b90600052602060002001548461066c9190611284565b610676919061129b565b9050600061069c86848151811061068f5761068f6112bd565b6020026020010151610e0e565b90506001600160a01b0381166106f45760405162461bcd60e51b815260206004820152601960248201527f57696e6e6572206e6f7420666f756e6420696e206669676874000000000000006044820152606401610395565b6040516001600160a01b0382169083156108fc029084906000818181858888f1935050505015801561072a573d6000803e3d6000fd5b5050508080610738906112d3565b915050610631565b507fa825012d43998fffb4f7c88942d56d79e33a5a1f46bcdcc5fbadcb05dbceec4f84846040516107729291906112ec565b60405180910390a150505050565b610788610e8b565b610511610f8a565b600061079a610dc1565b60025482106107e25760405162461bcd60e51b8152602060048201526014602482015273119a59da1d08191bd95cc81b9bdd08195e1a5cdd60621b6044820152606401610395565b5060009081526003602052604090206006015462010000900460ff1690565b610809610e8b565b610811610dc1565b8051600090815b835181101561085a57838181518110610833576108336112bd565b6020026020010151836108469190611271565b925080610852816112d3565b915050610818565b5060648211156108ac5760405162461bcd60e51b815260206004820152601f60248201527f546f74616c20646973747269627574696f6e20657863656564732031303025006044820152606401610395565b60648210156109075760405162461bcd60e51b815260206004820152602160248201527f546f74616c20646973747269627574696f6e206c657373207468616e203130306044820152602560f81b6064820152608401610395565b60058111156109505760405162461bcd60e51b815260206004820152601560248201527413585e080d481dda5b9b995c9cc8185b1b1bddd959605a1b6044820152606401610395565b600061095b60025490565b9050604051806101600160405280828152602001868152602001600081526020018381526020018581526020018360036109959190611284565b8152600160208083019190915260006040808401829052606084018290528051828152808401825260808501528051828152928301905260a0909201915090526000828152600360208181526040928390208451815584820151600182015592840151600284015560608401519183019190915560808301518051610a20926004850192019061101d565b5060a0820151600582015560c082015160068201805460e08501516101008087015161ffff1990931694151561ff001916949094179015159093029290921762ff0000191662010000921515929092029190911790556101208201518051610a9291600784019160209091019061101d565b506101408201518051610aaf91600884019160209091019061101d565b509050507f2cd55bcf498112cb1f13dd79fe3cf119ffe989aac0ef32485aa1b4f1fe04f8c481868487604051610ae8949392919061130d565b60405180910390a1610afe600280546001019055565b5050505050565b610b0d610e8b565b610b15610dc1565b6000818152600360205260409020610b2c82610bef565b610b485760405162461bcd60e51b815260040161039590611218565b600581015460088201541015610ba05760405162461bcd60e51b815260206004820152601760248201527f4e6f7420656e6f756768207061727469636970616e74730000000000000000006044820152606401610395565b60068101805461ff0019166101001790556040517fb94815bc897678aff1a4b2af4335727acb3b957640bdb895415ba9b79ada1e2e90610be39084815260200190565b60405180910390a15050565b6000610bf9610dc1565b6002548210610c415760405162461bcd60e51b8152602060048201526014602482015273119a59da1d08191bd95cc81b9bdd08195e1a5cdd60621b6044820152606401610395565b6000828152600360205260409020600681015460ff168015610c6d57506006810154610100900460ff16155b9392505050565b610c7c610e8b565b6001600160a01b038116610ce15760405162461bcd60e51b815260206004820152602660248201527f4f776e61626c653a206e6577206f776e657220697320746865207a65726f206160448201526564647265737360d01b6064820152608401610395565b610cea81610f3a565b50565b6060610cf7610dc1565b60008281526003602052604090206006015462010000900460ff16610d5e5760405162461bcd60e51b815260206004820152601760248201527f466967687420686173206e6f7420656e646564207965740000000000000000006044820152606401610395565b60008281526003602090815260409182902060070180548351818402810184019094528084529091830182828015610db557602002820191906000526020600020905b815481526020019060010190808311610da1575b50505050509050919050565b600054600160a01b900460ff16156105115760405162461bcd60e51b815260206004820152601060248201526f14185d5cd8589b194e881c185d5cd95960821b6044820152606401610395565b6000610e18610dc1565b6001546040516331a9108f60e11b8152600481018490526001600160a01b0390911690636352211e90602401602060405180830381865afa158015610e61573d6000803e3d6000fd5b505050506040513d601f19601f82011682018060405250810190610e85919061133c565b92915050565b6000546001600160a01b031633146105115760405162461bcd60e51b815260206004820181905260248201527f4f776e61626c653a2063616c6c6572206973206e6f7420746865206f776e65726044820152606401610395565b610eed610fcd565b6000805460ff60a01b191690557f5db9ee0a495bf2e6ff9c91a7834c1ba4fdd244a5e8aa4e537bd38aeae4b073aa335b6040516001600160a01b03909116815260200160405180910390a1565b600080546001600160a01b038381166001600160a01b0319831681178455604051919092169283917f8be0079c531659141344cd1fd0a4f28419497f9722a3daafe3b4186f6b6457e09190a35050565b610f92610dc1565b6000805460ff60a01b1916600160a01b1790557f62e78cea01bee320cd4e420270b5ea74000d11b0c9f74754ebdbfc544b05a258610f1d3390565b600054600160a01b900460ff166105115760405162461bcd60e51b815260206004820152601460248201527314185d5cd8589b194e881b9bdd081c185d5cd95960621b6044820152606401610395565b828054828255906000526020600020908101928215611058579160200282015b8281111561105857825182559160200191906001019061103d565b50611064929150611068565b5090565b5b808211156110645760008155600101611069565b6000806040838503121561109057600080fd5b50508035926020909101359150565b6000602082840312156110b157600080fd5b5035919050565b634e487b7160e01b600052604160045260246000fd5b600080604083850312156110e157600080fd5b8235915060208084013567ffffffffffffffff8082111561110157600080fd5b818601915086601f83011261111557600080fd5b813581811115611127576111276110b8565b8060051b604051601f19603f8301168101818110858211171561114c5761114c6110b8565b60405291825284820192508381018501918983111561116a57600080fd5b938501935b828510156111885784358452938501939285019261116f565b8096505050505050509250929050565b6001600160a01b0381168114610cea57600080fd5b6000602082840312156111bf57600080fd5b8135610c6d81611198565b600081518084526020808501945080840160005b838110156111fa578151875295820195908201906001016111de565b509495945050505050565b602081526000610c6d60208301846111ca565b60208082526023908201527f4669676874206e6f7420616374697665206f7220616c726561647920737461726040820152621d195960ea1b606082015260800190565b634e487b7160e01b600052601160045260246000fd5b80820180821115610e8557610e8561125b565b8082028115828204841417610e8557610e8561125b565b6000826112b857634e487b7160e01b600052601260045260246000fd5b500490565b634e487b7160e01b600052603260045260246000fd5b6000600182016112e5576112e561125b565b5060010190565b82815260406020820152600061130560408301846111ca565b949350505050565b84815283602082015282604082015260806060820152600061133260808301846111ca565b9695505050505050565b60006020828403121561134e57600080fd5b8151610c6d8161119856fea264697066735822122006c9c23088d4acee36113e0522dc3348bdcfb4dfad2964e9da6c2ca6d98a2a4664736f6c63430008150033",
  "linkReferences": {},
  "deployedLinkReferences": {}
}