{
  "_format": "hh-sol-artifact-1",
  "contractName": "DerbyBettingHub",
  "sourceName": "contracts/racing/DerbyBettingHub.sol",
  "abi": [
    {
      "inputs": [
        {
          "internalType": "address",
          "name": "_racingEventAddress",
          "type": "address"
        }
      ],
      "stateMutability": "nonpayable",
      "type": "constructor"
    },
    {
      "anonymous": false,
      "inputs": [
        {
          "indexed": true,
          "internalType": "uint256",
          "name": "raceId",
          "type": "uint256"
        },
        {
          "indexed": false,
          "internalType": "uint256",
          "name": "betId",
          "type": "uint256"
        },
        {
          "indexed": true,
          "internalType": "address",
          "name": "bettor",
          "type": "address"
        },
        {
          "indexed": false,
          "internalType": "uint256",
          "name": "winnings",
          "type": "uint256"
        }
      ],
      "name": "BetClaimed",
      "type": "event"
    },
    {
      "anonymous": false,
      "inputs": [
        {
          "indexed": true,
          "internalType": "uint256",
          "name": "raceId",
          "type": "uint256"
        },
        {
          "indexed": false,
          "internalType": "uint256",
          "name": "betId",
          "type": "uint256"
        },
        {
          "indexed": true,
          "internalType": "address",
          "name": "bettor",
          "type": "address"
        },
        {
          "indexed": false,
          "internalType": "uint256",
          "name": "betAmount",
          "type": "uint256"
        }
      ],
      "name": "BetPlaced",
      "type": "event"
    },
    {
      "anonymous": false,
      "inputs": [
        {
          "indexed": true,
          "internalType": "address",
          "name": "previousOwner",
          "type": "address"
        },
        {
          "indexed": true,
          "internalType": "address",
          "name": "newOwner",
          "type": "address"
        }
      ],
      "name": "OwnershipTransferred",
      "type": "event"
    },
    {
      "inputs": [
        {
          "internalType": "uint256",
          "name": "",
          "type": "uint256"
        },
        {
          "internalType": "uint256",
          "name": "",
          "type": "uint256"
        }
      ],
      "name": "betsByRace",
      "outputs": [
        {
          "internalType": "uint256",
          "name": "betId",
          "type": "uint256"
        },
        {
          "internalType": "uint256",
          "name": "raceId",
          "type": "uint256"
        },
        {
          "internalType": "uint256",
          "name": "betAmount",
          "type": "uint256"
        },
        {
          "internalType": "address",
          "name": "bettor",
          "type": "address"
        },
        {
          "internalType": "bool",
          "name": "isClaimed",
          "type": "bool"
        }
      ],
      "stateMutability": "view",
      "type": "function"
    },
    {
      "inputs": [
        {
          "internalType": "uint256",
          "name": "raceId",
          "type": "uint256"
        },
        {
          "internalType": "uint256",
          "name": "betId",
          "type": "uint256"
        }
      ],
      "name": "claimWinnings",
      "outputs": [],
      "stateMutability": "nonpayable",
      "type": "function"
    },
    {
      "inputs": [],
      "name": "owner",
      "outputs": [
        {
          "internalType": "address",
          "name": "",
          "type": "address"
        }
      ],
      "stateMutability": "view",
      "type": "function"
    },
    {
      "inputs": [
        {
          "internalType": "uint256",
          "name": "raceId",
          "type": "uint256"
        },
        {
          "internalType": "uint256[]",
          "name": "horseIds",
          "type": "uint256[]"
        }
      ],
      "name": "placeBet",
      "outputs": [],
      "stateMutability": "payable",
      "type": "function"
    },
    {
      "inputs": [],
      "name": "racingEvent",
      "outputs": [
        {
          "internalType": "contract HorseRacingEvent",
          "name": "",
          "type": "address"
        }
      ],
      "stateMutability": "view",
      "type": "function"
    },
    {
      "inputs": [],
      "name": "renounceOwnership",
      "outputs": [],
      "stateMutability": "nonpayable",
      "type": "function"
    },
    {
      "inputs": [
        {
          "internalType": "address",
          "name": "newOwner",
          "type": "address"
        }
      ],
      "name": "transferOwnership",
      "outputs": [],
      "stateMutability": "nonpayable",
      "type": "function"
    }
  ],
  "bytecode": "0x608060405234801561001057600080fd5b5060405161102a38038061102a83398101604081905261002f916100ad565b6100383361005d565b600180546001600160a01b0319166001600160a01b03929092169190911790556100dd565b600080546001600160a01b038381166001600160a01b0319831681178455604051919092169283917f8be0079c531659141344cd1fd0a4f28419497f9722a3daafe3b4186f6b6457e09190a35050565b6000602082840312156100bf57600080fd5b81516001600160a01b03811681146100d657600080fd5b9392505050565b610f3e806100ec6000396000f3fe6080604052600436106100705760003560e01c8063715018a61161004e578063715018a6146101435780638da5cb5b146101585780639d6d10da1461018a578063f2fde38b146101aa57600080fd5b8063286db5c21461007557806330d14655146100975780634f36ed09146100aa575b600080fd5b34801561008157600080fd5b50610095610090366004610c65565b6101ca565b005b6100956100a5366004610cf2565b61068a565b3480156100b657600080fd5b5061010b6100c5366004610c65565b600360208181526000938452604080852090915291835291208054600182015492820154600490920154909291906001600160a01b03811690600160a01b900460ff1685565b604080519586526020860194909452928401919091526001600160a01b031660608301521515608082015260a0015b60405180910390f35b34801561014f57600080fd5b50610095610855565b34801561016457600080fd5b506000546001600160a01b03165b6040516001600160a01b03909116815260200161013a565b34801561019657600080fd5b50600154610172906001600160a01b031681565b3480156101b657600080fd5b506100956101c5366004610d94565b610869565b6000828152600360209081526040808320848452909152902060048101546001600160a01b03166102375760405162461bcd60e51b815260206004820152601260248201527110995d08191bd95cc81b9bdd08195e1a5cdd60721b60448201526064015b60405180910390fd5b60015460405163287b12f160e01b8152600481018590526001600160a01b039091169063287b12f190602401602060405180830381865afa158015610280573d6000803e3d6000fd5b505050506040513d601f19601f820116820180604052508101906102a49190610dc4565b6102e45760405162461bcd60e51b8152602060048201526011602482015270149858d9481a5cc81b9bdd08195b991959607a1b604482015260640161022e565b60048101546001600160a01b031633146103315760405162461bcd60e51b815260206004820152600e60248201526d2737ba103a3432903132ba3a37b960911b604482015260640161022e565b6004810154600160a01b900460ff161561038d5760405162461bcd60e51b815260206004820152601860248201527f57696e6e696e677320616c726561647920636c61696d65640000000000000000604482015260640161022e565b600154604051637bb5ed8d60e11b8152600481018590526000916001600160a01b03169063f76bdb1a90602401600060405180830381865afa1580156103d7573d6000803e3d6000fd5b505050506040513d6000823e601f3d908101601f191682016040526103ff9190810190610de6565b90506104b2826040518060c001604052908160008201548152602001600182015481526020016002820180548060200260200160405190810160405280929190818152602001828054801561047357602002820191906000526020600020905b81548152602001906001019080831161045f575b5050509183525050600382015460208201526004909101546001600160a01b0381166040830152600160a01b900460ff161515606090910152826108e2565b6104f05760405162461bcd60e51b815260206004820152600f60248201526e2132ba103234b2103737ba103bb4b760891b604482015260640161022e565b60006105a3836040518060c001604052908160008201548152602001600182015481526020016002820180548060200260200160405190810160405280929190818152602001828054801561056457602002820191906000526020600020905b815481526020019060010190808311610550575b5050509183525050600382015460208201526004909101546001600160a01b0381166040830152600160a01b900460ff1615156060909101528661096e565b905047808211156106025760405162461bcd60e51b815260206004820152602360248201527f436f6e747261637420646f6573206e6f74206861766520656e6f7567682066756044820152626e647360e81b606482015260840161022e565b60048401805460ff60a01b1916600160a01b179055604051339083156108fc029084906000818181858888f19350505050158015610644573d6000803e3d6000fd5b506040805186815260208101849052339188917ff251247842e91ddcbb8408e9b83e4f8cba5b0d669ff7a5e1ae6dad372c368109910160405180910390a3505050505050565b600154604051630116538f60e01b8152600481018490526001600160a01b0390911690630116538f90602401602060405180830381865afa1580156106d3573d6000803e3d6000fd5b505050506040513d601f19601f820116820180604052508101906106f79190610dc4565b61074e5760405162461bcd60e51b815260206004820152602260248201527f52616365206e6f7420616374697665206f7220616c7265616479207374617274604482015261195960f21b606482015260840161022e565b600061075960025490565b6040805160c0810182528281526020808201878152828401878152346060850152336080850152600060a085018190528981526003845285812087825284529490942083518155905160018201559251805194955091936107c09260028501920190610c05565b506060820151600382015560808201516004909101805460a0909301511515600160a01b026001600160a81b03199093166001600160a01b0390921691909117919091179055610814600280546001019055565b60408051828152346020820152339185917ffdd8ed02332acacb3420e7345a9adadb30877075eade2bcde9fe778e8bb71e42910160405180910390a3505050565b61085d61099e565b61086760006109f8565b565b61087161099e565b6001600160a01b0381166108d65760405162461bcd60e51b815260206004820152602660248201527f4f776e61626c653a206e6577206f776e657220697320746865207a65726f206160448201526564647265737360d01b606482015260840161022e565b6108df816109f8565b50565b60008151836040015151146108f957506000610968565b60005b8360400151518110156109625782818151811061091b5761091b610e77565b60200260200101518460400151828151811061093957610939610e77565b602002602001015114610950576000915050610968565b8061095a81610ea3565b9150506108fc565b50600190505b92915050565b600080600090506000610985856040015185610a48565b9050610995856060015182610b60565b95945050505050565b6000546001600160a01b031633146108675760405162461bcd60e51b815260206004820181905260248201527f4f776e61626c653a2063616c6c6572206973206e6f7420746865206f776e6572604482015260640161022e565b600080546001600160a01b038381166001600160a01b0319831681178455604051919092169283917f8be0079c531659141344cd1fd0a4f28419497f9722a3daafe3b4186f6b6457e09190a35050565b60008080610a5560025490565b905060005b81811015610b565760008581526003602090815260408083208484528252808320815160c08101835281548152600182015481850152600282018054845181870281018701865281815292959394860193830182828015610ada57602002820191906000526020600020905b815481526020019060010190808311610ac6575b5050509183525050600382015460208201526004909101546001600160a01b038116604080840191909152600160a01b90910460ff161515606090920191909152810151909150610b2c908890610b91565b15610b43576060810151610b409085610ebc565b93505b5080610b4e81610ea3565b915050610a5a565b5090949350505050565b600082821115610b8657610b75600284610ecf565b610b7f9084610ebc565b9050610968565b610b7f836002610ef1565b60008151835114610ba457506000610968565b60005b835181101561096257828181518110610bc257610bc2610e77565b6020026020010151848281518110610bdc57610bdc610e77565b602002602001015114610bf3576000915050610968565b80610bfd81610ea3565b915050610ba7565b828054828255906000526020600020908101928215610c40579160200282015b82811115610c40578251825591602001919060010190610c25565b50610c4c929150610c50565b5090565b5b80821115610c4c5760008155600101610c51565b60008060408385031215610c7857600080fd5b50508035926020909101359150565b634e487b7160e01b600052604160045260246000fd5b604051601f8201601f1916810167ffffffffffffffff81118282101715610cc657610cc6610c87565b604052919050565b600067ffffffffffffffff821115610ce857610ce8610c87565b5060051b60200190565b60008060408385031215610d0557600080fd5b8235915060208084013567ffffffffffffffff811115610d2457600080fd5b8401601f81018613610d3557600080fd5b8035610d48610d4382610cce565b610c9d565b81815260059190911b82018301908381019088831115610d6757600080fd5b928401925b82841015610d8557833582529284019290840190610d6c565b80955050505050509250929050565b600060208284031215610da657600080fd5b81356001600160a01b0381168114610dbd57600080fd5b9392505050565b600060208284031215610dd657600080fd5b81518015158114610dbd57600080fd5b60006020808385031215610df957600080fd5b825167ffffffffffffffff811115610e1057600080fd5b8301601f81018513610e2157600080fd5b8051610e2f610d4382610cce565b81815260059190911b82018301908381019087831115610e4e57600080fd5b928401925b82841015610e6c57835182529284019290840190610e53565b979650505050505050565b634e487b7160e01b600052603260045260246000fd5b634e487b7160e01b600052601160045260246000fd5b600060018201610eb557610eb5610e8d565b5060010190565b8082018082111561096857610968610e8d565b600082610eec57634e487b7160e01b600052601260045260246000fd5b500490565b808202811582820484141761096857610968610e8d56fea2646970667358221220cce0e7bde9aafa7275f943e14584fc1590ad59e4eac74e5ad97826b3d66d900e64736f6c63430008150033",
  "linkReferences": {},
  "deployedLinkReferences": {}
}